{
	"data": {
		"bytecode": {
			"linkReferences": {},
			"object": "60806040526005600655600a60075560326008556014600955601e600a55348015610028575f5ffd5b5060405161281e38038061281e833981810160405281019061004a9190610620565b808484816003908161005c91906108cc565b50806004908161006c91906108cc565b5050505f73ffffffffffffffffffffffffffffffffffffffff168173ffffffffffffffffffffffffffffffffffffffff16036100df575f6040517f1e4fbdf70000000000000000000000000000000000000000000000000000000081526004016100d691906109aa565b60405180910390fd5b6100ee816103b660201b60201c565b5081600b5f6101000a81548173ffffffffffffffffffffffffffffffffffffffff021916908373ffffffffffffffffffffffffffffffffffffffff160217905550600b5f9054906101000a900473ffffffffffffffffffffffffffffffffffffffff1673ffffffffffffffffffffffffffffffffffffffff1663c45a01556040518163ffffffff1660e01b8152600401602060405180830381865afa158015610199573d5f5f3e3d5ffd5b505050506040513d601f19601f820116820180604052508101906101bd91906109c3565b73ffffffffffffffffffffffffffffffffffffffff1663c9c6539630600b5f9054906101000a900473ffffffffffffffffffffffffffffffffffffffff1673ffffffffffffffffffffffffffffffffffffffff1663ad5c46486040518163ffffffff1660e01b8152600401602060405180830381865afa158015610243573d5f5f3e3d5ffd5b505050506040513d601f19601f8201168201806040525081019061026791906109c3565b6040518363ffffffff1660e01b81526004016102849291906109ee565b6020604051808303815f875af11580156102a0573d5f5f3e3d5ffd5b505050506040513d601f19601f820116820180604052508101906102c491906109c3565b600c5f6101000a81548173ffffffffffffffffffffffffffffffffffffffff021916908373ffffffffffffffffffffffffffffffffffffffff1602179055506001600d5f8373ffffffffffffffffffffffffffffffffffffffff1673ffffffffffffffffffffffffffffffffffffffff1681526020019081526020015f205f6101000a81548160ff0219169083151502179055506001600d5f3073ffffffffffffffffffffffffffffffffffffffff1673ffffffffffffffffffffffffffffffffffffffff1681526020019081526020015f205f6101000a81548160ff02191690831515021790555050505050610a15565b5f60055f9054906101000a900473ffffffffffffffffffffffffffffffffffffffff1690508160055f6101000a81548173ffffffffffffffffffffffffffffffffffffffff021916908373ffffffffffffffffffffffffffffffffffffffff1602179055508173ffffffffffffffffffffffffffffffffffffffff168173ffffffffffffffffffffffffffffffffffffffff167f8be0079c531659141344cd1fd0a4f28419497f9722a3daafe3b4186f6b6457e060405160405180910390a35050565b5f604051905090565b5f5ffd5b5f5ffd5b5f5ffd5b5f5ffd5b5f601f19601f8301169050919050565b7f4e487b71000000000000000000000000000000000000000000000000000000005f52604160045260245ffd5b6104d882610492565b810181811067ffffffffffffffff821117156104f7576104f66104a2565b5b80604052505050565b5f610509610479565b905061051582826104cf565b919050565b5f67ffffffffffffffff821115610534576105336104a2565b5b61053d82610492565b9050602081019050919050565b8281835e5f83830152505050565b5f61056a6105658461051a565b610500565b9050828152602081018484840111156105865761058561048e565b5b61059184828561054a565b509392505050565b5f82601f8301126105ad576105ac61048a565b5b81516105bd848260208601610558565b91505092915050565b5f73ffffffffffffffffffffffffffffffffffffffff82169050919050565b5f6105ef826105c6565b9050919050565b6105ff816105e5565b8114610609575f5ffd5b50565b5f8151905061061a816105f6565b92915050565b5f5f5f5f6080858703121561063857610637610482565b5b5f85015167ffffffffffffffff81111561065557610654610486565b5b61066187828801610599565b945050602085015167ffffffffffffffff81111561068257610681610486565b5b61068e87828801610599565b935050604061069f8782880161060c565b92505060606106b08782880161060c565b91505092959194509250565b5f81519050919050565b7f4e487b71000000000000000000000000000000000000000000000000000000005f52602260045260245ffd5b5f600282049050600182168061070a57607f821691505b60208210810361071d5761071c6106c6565b5b50919050565b5f819050815f5260205f209050919050565b5f6020601f8301049050919050565b5f82821b905092915050565b5f6008830261077f7fffffffffffffffffffffffffffffffffffffffffffffffffffffffffffffffff82610744565b6107898683610744565b95508019841693508086168417925050509392505050565b5f819050919050565b5f819050919050565b5f6107cd6107c86107c3846107a1565b6107aa565b6107a1565b9050919050565b5f819050919050565b6107e6836107b3565b6107fa6107f2826107d4565b848454610750565b825550505050565b5f5f905090565b610811610802565b61081c8184846107dd565b505050565b5b8181101561083f576108345f82610809565b600181019050610822565b5050565b601f8211156108845761085581610723565b61085e84610735565b8101602085101561086d578190505b61088161087985610735565b830182610821565b50505b505050565b5f82821c905092915050565b5f6108a45f1984600802610889565b1980831691505092915050565b5f6108bc8383610895565b9150826002028217905092915050565b6108d5826106bc565b67ffffffffffffffff8111156108ee576108ed6104a2565b5b6108f882546106f3565b610903828285610843565b5f60209050601f831160018114610934575f8415610922578287015190505b61092c85826108b1565b865550610993565b601f19841661094286610723565b5f5b8281101561096957848901518255600182019150602085019450602081019050610944565b868310156109865784890151610982601f891682610895565b8355505b6001600288020188555050505b505050505050565b6109a4816105e5565b82525050565b5f6020820190506109bd5f83018461099b565b92915050565b5f602082840312156109d8576109d7610482565b5b5f6109e58482850161060c565b91505092915050565b5f604082019050610a015f83018561099b565b610a0e602083018461099b565b9392505050565b611dfc80610a225f395ff3fe608060405234801561000f575f5ffd5b506004361061018c575f3560e01c806370a08231116100dc578063c647b20e11610095578063cb4ca6311161006f578063cb4ca6311461044e578063cc1776d31461047e578063dd62ed3e1461049c578063f2fde38b146104cc5761018c565b8063c647b20e146103f8578063c6a3064714610414578063c816841b146104305761018c565b806370a0823114610336578063715018a6146103665780638da5cb5b1461037057806395d89b411461038e578063a9059cbb146103ac578063beabacc8146103dc5761018c565b80632431ba7311610149578063337270771161012357806333727077146102c05780634e6fd6c4146102de5780634f7041a5146102fc57806351c6590a1461031a5761018c565b80632431ba73146102685780632e1a7d4d14610286578063313ce567146102a25761018c565b806305bf0a541461019057806306fdde03146101ae578063095ea7b3146101cc57806315291cd4146101fc57806318160ddd1461021a57806323b872dd14610238575b5f5ffd5b6101986104e8565b6040516101a591906116e4565b60405180910390f35b6101b66104ee565b6040516101c3919061176d565b60405180910390f35b6101e660048036038101906101e19190611815565b61057e565b6040516101f3919061186d565b60405180910390f35b6102046105a0565b60405161021191906116e4565b60405180910390f35b6102226105a6565b60405161022f91906116e4565b60405180910390f35b610252600480360381019061024d9190611886565b6105af565b60405161025f919061186d565b60405180910390f35b6102706105dd565b60405161027d9190611931565b60405180910390f35b6102a0600480360381019061029b919061194a565b610602565b005b6102aa6106fc565b6040516102b79190611990565b60405180910390f35b6102c8610704565b6040516102d591906116e4565b60405180910390f35b6102e661070a565b6040516102f391906119b8565b60405180910390f35b610304610710565b60405161031191906116e4565b60405180910390f35b610334600480360381019061032f919061194a565b610716565b005b610350600480360381019061034b91906119d1565b61086f565b60405161035d91906116e4565b60405180910390f35b61036e6108b4565b005b6103786108c7565b60405161038591906119b8565b60405180910390f35b6103966108ef565b6040516103a3919061176d565b60405180910390f35b6103c660048036038101906103c19190611815565b61097f565b6040516103d3919061186d565b60405180910390f35b6103f660048036038101906103f19190611886565b6109a1565b005b610412600480360381019061040d91906119fc565b610d5f565b005b61042e60048036038101906104299190611a64565b610dc1565b005b610438610e21565b60405161044591906119b8565b60405180910390f35b610468600480360381019061046391906119d1565b610e46565b604051610475919061186d565b60405180910390f35b610486610e63565b60405161049391906116e4565b60405180910390f35b6104b660048036038101906104b19190611aa2565b610e69565b6040516104c391906116e4565b60405180910390f35b6104e660048036038101906104e191906119d1565b610eeb565b005b60095481565b6060600380546104fd90611b0d565b80601f016020809104026020016040519081016040528092919081815260200182805461052990611b0d565b80156105745780601f1061054b57610100808354040283529160200191610574565b820191905f5260205f20905b81548152906001019060200180831161055757829003601f168201915b5050505050905090565b5f5f610588610f6f565b9050610595818585610f76565b600191505092915050565b60085481565b5f600254905090565b5f5f6105b9610f6f565b90506105c6858285610f88565b6105d185858561101b565b60019150509392505050565b600b5f9054906101000a900473ffffffffffffffffffffffffffffffffffffffff1681565b61060a61110b565b5f73ffffffffffffffffffffffffffffffffffffffff163373ffffffffffffffffffffffffffffffffffffffff160361066f576040517fa38ca3d900000000000000000000000000000000000000000000000000000000815260040160405180910390fd5b478111156106a9576040517f356680b700000000000000000000000000000000000000000000000000000000815260040160405180910390fd5b5f4790506106b56108c7565b73ffffffffffffffffffffffffffffffffffffffff166108fc8290811502906040515f60405180830381858888f193505050501580156106f7573d5f5f3e3d5ffd5b505050565b5f6012905090565b600a5481565b61dead81565b60065481565b61071e61110b565b5f8111610757576040517f671d94d800000000000000000000000000000000000000000000000000000000815260040160405180910390fd5b61078330600b5f9054906101000a900473ffffffffffffffffffffffffffffffffffffffff1683610f76565b600b5f9054906101000a900473ffffffffffffffffffffffffffffffffffffffff1673ffffffffffffffffffffffffffffffffffffffff1663f305d7194730845f5f6107cd6108c7565b426040518863ffffffff1660e01b81526004016107ef96959493929190611b76565b60606040518083038185885af115801561080b573d5f5f3e3d5ffd5b50505050506040513d601f19601f820116820180604052508101906108309190611be9565b5050507f38f8a0c92f4c5b0b6877f878cb4c0c8d348a47b76d716c8e78f425043df9515b8147604051610864929190611c39565b60405180910390a150565b5f5f5f8373ffffffffffffffffffffffffffffffffffffffff1673ffffffffffffffffffffffffffffffffffffffff1681526020019081526020015f20549050919050565b6108bc61110b565b6108c55f611192565b565b5f60055f9054906101000a900473ffffffffffffffffffffffffffffffffffffffff16905090565b6060600480546108fe90611b0d565b80601f016020809104026020016040519081016040528092919081815260200182805461092a90611b0d565b80156109755780601f1061094c57610100808354040283529160200191610975565b820191905f5260205f20905b81548152906001019060200180831161095857829003601f168201915b5050505050905090565b5f5f610989610f6f565b905061099681858561101b565b600191505092915050565b5f73ffffffffffffffffffffffffffffffffffffffff168373ffffffffffffffffffffffffffffffffffffffff1603610a06576040517ff38f85c300000000000000000000000000000000000000000000000000000000815260040160405180910390fd5b5f73ffffffffffffffffffffffffffffffffffffffff168273ffffffffffffffffffffffffffffffffffffffff1603610a6b576040517fa38ca3d900000000000000000000000000000000000000000000000000000000815260040160405180910390fd5b600d5f8473ffffffffffffffffffffffffffffffffffffffff1673ffffffffffffffffffffffffffffffffffffffff1681526020019081526020015f205f9054906101000a900460ff1680610b065750600d5f8373ffffffffffffffffffffffffffffffffffffffff1673ffffffffffffffffffffffffffffffffffffffff1681526020019081526020015f205f9054906101000a900460ff165b15610b1b57610b1683838361101b565b610d5a565b5f600c5f9054906101000a900473ffffffffffffffffffffffffffffffffffffffff1673ffffffffffffffffffffffffffffffffffffffff168373ffffffffffffffffffffffffffffffffffffffff161490505f600c5f9054906101000a900473ffffffffffffffffffffffffffffffffffffffff1673ffffffffffffffffffffffffffffffffffffffff168573ffffffffffffffffffffffffffffffffffffffff161490505f8215610be957606460065485610bd89190611c8d565b610be29190611cfb565b9050610c0d565b8115610c0c57606460075485610bff9190611c8d565b610c099190611cfb565b90505b5b5f8185610c1a9190611d2b565b90508181610c289190611d5e565b8514610c60576040517f1f825c6a00000000000000000000000000000000000000000000000000000000815260040160405180910390fd5b5f821115610d4a57610c7387308461101b565b7f092c6768ba45dfdc937f94a27a0c5be8334952f1558bc7dd41b3e8707502e1b682604051610ca291906116e4565b60405180910390a15f606460085484610cbb9190611c8d565b610cc59190611cfb565b90505f606460095485610cd89190611c8d565b610ce29190611cfb565b90505f818386610cf29190611d2b565b610cfc9190611d2b565b9050610d2a30600c5f9054906101000a900473ffffffffffffffffffffffffffffffffffffffff168561101b565b610d343083611255565b610d4630610d406108c7565b8361101b565b5050505b610d5587878361101b565b505050505b505050565b610d6761110b565b600a8211158015610d79575060148111155b610daf576040517faf1ee13400000000000000000000000000000000000000000000000000000000815260040160405180910390fd5b81600681905550806007819055505050565b610dc961110b565b80600d5f8473ffffffffffffffffffffffffffffffffffffffff1673ffffffffffffffffffffffffffffffffffffffff1681526020019081526020015f205f6101000a81548160ff0219169083151502179055505050565b600c5f9054906101000a900473ffffffffffffffffffffffffffffffffffffffff1681565b600d602052805f5260405f205f915054906101000a900460ff1681565b60075481565b5f60015f8473ffffffffffffffffffffffffffffffffffffffff1673ffffffffffffffffffffffffffffffffffffffff1681526020019081526020015f205f8373ffffffffffffffffffffffffffffffffffffffff1673ffffffffffffffffffffffffffffffffffffffff1681526020019081526020015f2054905092915050565b610ef361110b565b5f73ffffffffffffffffffffffffffffffffffffffff168173ffffffffffffffffffffffffffffffffffffffff1603610f63575f6040517f1e4fbdf7000000000000000000000000000000000000000000000000000000008152600401610f5a91906119b8565b60405180910390fd5b610f6c81611192565b50565b5f33905090565b610f8383838360016112d4565b505050565b5f610f938484610e69565b90507fffffffffffffffffffffffffffffffffffffffffffffffffffffffffffffffff8110156110155781811015611006578281836040517ffb8f41b2000000000000000000000000000000000000000000000000000000008152600401610ffd93929190611d91565b60405180910390fd5b61101484848484035f6112d4565b5b50505050565b5f73ffffffffffffffffffffffffffffffffffffffff168373ffffffffffffffffffffffffffffffffffffffff160361108b575f6040517f96c6fd1e00000000000000000000000000000000000000000000000000000000815260040161108291906119b8565b60405180910390fd5b5f73ffffffffffffffffffffffffffffffffffffffff168273ffffffffffffffffffffffffffffffffffffffff16036110fb575f6040517fec442f050000000000000000000000000000000000000000000000000000000081526004016110f291906119b8565b60405180910390fd5b6111068383836114a3565b505050565b611113610f6f565b73ffffffffffffffffffffffffffffffffffffffff166111316108c7565b73ffffffffffffffffffffffffffffffffffffffff161461119057611154610f6f565b6040517f118cdaa700000000000000000000000000000000000000000000000000000000815260040161118791906119b8565b60405180910390fd5b565b5f60055f9054906101000a900473ffffffffffffffffffffffffffffffffffffffff1690508160055f6101000a81548173ffffffffffffffffffffffffffffffffffffffff021916908373ffffffffffffffffffffffffffffffffffffffff1602179055508173ffffffffffffffffffffffffffffffffffffffff168173ffffffffffffffffffffffffffffffffffffffff167f8be0079c531659141344cd1fd0a4f28419497f9722a3daafe3b4186f6b6457e060405160405180910390a35050565b5f73ffffffffffffffffffffffffffffffffffffffff168273ffffffffffffffffffffffffffffffffffffffff16036112c5575f6040517f96c6fd1e0000000000000000000000000000000000000000000000000000000081526004016112bc91906119b8565b60405180910390fd5b6112d0825f836114a3565b5050565b5f73ffffffffffffffffffffffffffffffffffffffff168473ffffffffffffffffffffffffffffffffffffffff1603611344575f6040517fe602df0500000000000000000000000000000000000000000000000000000000815260040161133b91906119b8565b60405180910390fd5b5f73ffffffffffffffffffffffffffffffffffffffff168373ffffffffffffffffffffffffffffffffffffffff16036113b4575f6040517f94280d620000000000000000000000000000000000000000000000000000000081526004016113ab91906119b8565b60405180910390fd5b8160015f8673ffffffffffffffffffffffffffffffffffffffff1673ffffffffffffffffffffffffffffffffffffffff1681526020019081526020015f205f8573ffffffffffffffffffffffffffffffffffffffff1673ffffffffffffffffffffffffffffffffffffffff1681526020019081526020015f2081905550801561149d578273ffffffffffffffffffffffffffffffffffffffff168473ffffffffffffffffffffffffffffffffffffffff167f8c5be1e5ebec7d5bd14f71427d1e84f3dd0314c0f7b2291e5b200ac8c7c3b9258460405161149491906116e4565b60405180910390a35b50505050565b6114ae8383836114b3565b505050565b5f73ffffffffffffffffffffffffffffffffffffffff168373ffffffffffffffffffffffffffffffffffffffff1603611503578060025f8282546114f79190611d5e565b925050819055506115d1565b5f5f5f8573ffffffffffffffffffffffffffffffffffffffff1673ffffffffffffffffffffffffffffffffffffffff1681526020019081526020015f205490508181101561158c578381836040517fe450d38c00000000000000000000000000000000000000000000000000000000815260040161158393929190611d91565b60405180910390fd5b8181035f5f8673ffffffffffffffffffffffffffffffffffffffff1673ffffffffffffffffffffffffffffffffffffffff1681526020019081526020015f2081905550505b5f73ffffffffffffffffffffffffffffffffffffffff168273ffffffffffffffffffffffffffffffffffffffff1603611618578060025f8282540392505081905550611662565b805f5f8473ffffffffffffffffffffffffffffffffffffffff1673ffffffffffffffffffffffffffffffffffffffff1681526020019081526020015f205f82825401925050819055505b8173ffffffffffffffffffffffffffffffffffffffff168373ffffffffffffffffffffffffffffffffffffffff167fddf252ad1be2c89b69c2b068fc378daa952ba7f163c4a11628f55a4df523b3ef836040516116bf91906116e4565b60405180910390a3505050565b5f819050919050565b6116de816116cc565b82525050565b5f6020820190506116f75f8301846116d5565b92915050565b5f81519050919050565b5f82825260208201905092915050565b8281835e5f83830152505050565b5f601f19601f8301169050919050565b5f61173f826116fd565b6117498185611707565b9350611759818560208601611717565b61176281611725565b840191505092915050565b5f6020820190508181035f8301526117858184611735565b905092915050565b5f5ffd5b5f73ffffffffffffffffffffffffffffffffffffffff82169050919050565b5f6117ba82611791565b9050919050565b6117ca816117b0565b81146117d4575f5ffd5b50565b5f813590506117e5816117c1565b92915050565b6117f4816116cc565b81146117fe575f5ffd5b50565b5f8135905061180f816117eb565b92915050565b5f5f6040838503121561182b5761182a61178d565b5b5f611838858286016117d7565b925050602061184985828601611801565b9150509250929050565b5f8115159050919050565b61186781611853565b82525050565b5f6020820190506118805f83018461185e565b92915050565b5f5f5f6060848603121561189d5761189c61178d565b5b5f6118aa868287016117d7565b93505060206118bb868287016117d7565b92505060406118cc86828701611801565b9150509250925092565b5f819050919050565b5f6118f96118f46118ef84611791565b6118d6565b611791565b9050919050565b5f61190a826118df565b9050919050565b5f61191b82611900565b9050919050565b61192b81611911565b82525050565b5f6020820190506119445f830184611922565b92915050565b5f6020828403121561195f5761195e61178d565b5b5f61196c84828501611801565b91505092915050565b5f60ff82169050919050565b61198a81611975565b82525050565b5f6020820190506119a35f830184611981565b92915050565b6119b2816117b0565b82525050565b5f6020820190506119cb5f8301846119a9565b92915050565b5f602082840312156119e6576119e561178d565b5b5f6119f3848285016117d7565b91505092915050565b5f5f60408385031215611a1257611a1161178d565b5b5f611a1f85828601611801565b9250506020611a3085828601611801565b9150509250929050565b611a4381611853565b8114611a4d575f5ffd5b50565b5f81359050611a5e81611a3a565b92915050565b5f5f60408385031215611a7a57611a7961178d565b5b5f611a87858286016117d7565b9250506020611a9885828601611a50565b9150509250929050565b5f5f60408385031215611ab857611ab761178d565b5b5f611ac5858286016117d7565b9250506020611ad6858286016117d7565b9150509250929050565b7f4e487b71000000000000000000000000000000000000000000000000000000005f52602260045260245ffd5b5f6002820490506001821680611b2457607f821691505b602082108103611b3757611b36611ae0565b5b50919050565b5f819050919050565b5f611b60611b5b611b5684611b3d565b6118d6565b6116cc565b9050919050565b611b7081611b46565b82525050565b5f60c082019050611b895f8301896119a9565b611b9660208301886116d5565b611ba36040830187611b67565b611bb06060830186611b67565b611bbd60808301856119a9565b611bca60a08301846116d5565b979650505050505050565b5f81519050611be3816117eb565b92915050565b5f5f5f60608486031215611c0057611bff61178d565b5b5f611c0d86828701611bd5565b9350506020611c1e86828701611bd5565b9250506040611c2f86828701611bd5565b9150509250925092565b5f604082019050611c4c5f8301856116d5565b611c5960208301846116d5565b9392505050565b7f4e487b71000000000000000000000000000000000000000000000000000000005f52601160045260245ffd5b5f611c97826116cc565b9150611ca2836116cc565b9250828202611cb0816116cc565b91508282048414831517611cc757611cc6611c60565b5b5092915050565b7f4e487b71000000000000000000000000000000000000000000000000000000005f52601260045260245ffd5b5f611d05826116cc565b9150611d10836116cc565b925082611d2057611d1f611cce565b5b828204905092915050565b5f611d35826116cc565b9150611d40836116cc565b9250828203905081811115611d5857611d57611c60565b5b92915050565b5f611d68826116cc565b9150611d73836116cc565b9250828201905080821115611d8b57611d8a611c60565b5b92915050565b5f606082019050611da45f8301866119a9565b611db160208301856116d5565b611dbe60408301846116d5565b94935050505056fea26469706673582212209ab067f48bb8ba78f4ec9a3755d5d356ddb4f16e0c80f68484ffb5d65fe12bbb64736f6c634300081c0033",
			"opcodes": "PUSH1 0x80 PUSH1 0x40 MSTORE PUSH1 0x5 PUSH1 0x6 SSTORE PUSH1 0xA PUSH1 0x7 SSTORE PUSH1 0x32 PUSH1 0x8 SSTORE PUSH1 0x14 PUSH1 0x9 SSTORE PUSH1 0x1E PUSH1 0xA SSTORE CALLVALUE DUP1 ISZERO PUSH2 0x28 JUMPI PUSH0 PUSH0 REVERT JUMPDEST POP PUSH1 0x40 MLOAD PUSH2 0x281E CODESIZE SUB DUP1 PUSH2 0x281E DUP4 CODECOPY DUP2 DUP2 ADD PUSH1 0x40 MSTORE DUP2 ADD SWAP1 PUSH2 0x4A SWAP2 SWAP1 PUSH2 0x620 JUMP JUMPDEST DUP1 DUP5 DUP5 DUP2 PUSH1 0x3 SWAP1 DUP2 PUSH2 0x5C SWAP2 SWAP1 PUSH2 0x8CC JUMP JUMPDEST POP DUP1 PUSH1 0x4 SWAP1 DUP2 PUSH2 0x6C SWAP2 SWAP1 PUSH2 0x8CC JUMP JUMPDEST POP POP POP PUSH0 PUSH20 0xFFFFFFFFFFFFFFFFFFFFFFFFFFFFFFFFFFFFFFFF AND DUP2 PUSH20 0xFFFFFFFFFFFFFFFFFFFFFFFFFFFFFFFFFFFFFFFF AND SUB PUSH2 0xDF JUMPI PUSH0 PUSH1 0x40 MLOAD PUSH32 0x1E4FBDF700000000000000000000000000000000000000000000000000000000 DUP2 MSTORE PUSH1 0x4 ADD PUSH2 0xD6 SWAP2 SWAP1 PUSH2 0x9AA JUMP JUMPDEST PUSH1 0x40 MLOAD DUP1 SWAP2 SUB SWAP1 REVERT JUMPDEST PUSH2 0xEE DUP2 PUSH2 0x3B6 PUSH1 0x20 SHL PUSH1 0x20 SHR JUMP JUMPDEST POP DUP2 PUSH1 0xB PUSH0 PUSH2 0x100 EXP DUP2 SLOAD DUP2 PUSH20 0xFFFFFFFFFFFFFFFFFFFFFFFFFFFFFFFFFFFFFFFF MUL NOT AND SWAP1 DUP4 PUSH20 0xFFFFFFFFFFFFFFFFFFFFFFFFFFFFFFFFFFFFFFFF AND MUL OR SWAP1 SSTORE POP PUSH1 0xB PUSH0 SWAP1 SLOAD SWAP1 PUSH2 0x100 EXP SWAP1 DIV PUSH20 0xFFFFFFFFFFFFFFFFFFFFFFFFFFFFFFFFFFFFFFFF AND PUSH20 0xFFFFFFFFFFFFFFFFFFFFFFFFFFFFFFFFFFFFFFFF AND PUSH4 0xC45A0155 PUSH1 0x40 MLOAD DUP2 PUSH4 0xFFFFFFFF AND PUSH1 0xE0 SHL DUP2 MSTORE PUSH1 0x4 ADD PUSH1 0x20 PUSH1 0x40 MLOAD DUP1 DUP4 SUB DUP2 DUP7 GAS STATICCALL ISZERO DUP1 ISZERO PUSH2 0x199 JUMPI RETURNDATASIZE PUSH0 PUSH0 RETURNDATACOPY RETURNDATASIZE PUSH0 REVERT JUMPDEST POP POP POP POP PUSH1 0x40 MLOAD RETURNDATASIZE PUSH1 0x1F NOT PUSH1 0x1F DUP3 ADD AND DUP3 ADD DUP1 PUSH1 0x40 MSTORE POP DUP2 ADD SWAP1 PUSH2 0x1BD SWAP2 SWAP1 PUSH2 0x9C3 JUMP JUMPDEST PUSH20 0xFFFFFFFFFFFFFFFFFFFFFFFFFFFFFFFFFFFFFFFF AND PUSH4 0xC9C65396 ADDRESS PUSH1 0xB PUSH0 SWAP1 SLOAD SWAP1 PUSH2 0x100 EXP SWAP1 DIV PUSH20 0xFFFFFFFFFFFFFFFFFFFFFFFFFFFFFFFFFFFFFFFF AND PUSH20 0xFFFFFFFFFFFFFFFFFFFFFFFFFFFFFFFFFFFFFFFF AND PUSH4 0xAD5C4648 PUSH1 0x40 MLOAD DUP2 PUSH4 0xFFFFFFFF AND PUSH1 0xE0 SHL DUP2 MSTORE PUSH1 0x4 ADD PUSH1 0x20 PUSH1 0x40 MLOAD DUP1 DUP4 SUB DUP2 DUP7 GAS STATICCALL ISZERO DUP1 ISZERO PUSH2 0x243 JUMPI RETURNDATASIZE PUSH0 PUSH0 RETURNDATACOPY RETURNDATASIZE PUSH0 REVERT JUMPDEST POP POP POP POP PUSH1 0x40 MLOAD RETURNDATASIZE PUSH1 0x1F NOT PUSH1 0x1F DUP3 ADD AND DUP3 ADD DUP1 PUSH1 0x40 MSTORE POP DUP2 ADD SWAP1 PUSH2 0x267 SWAP2 SWAP1 PUSH2 0x9C3 JUMP JUMPDEST PUSH1 0x40 MLOAD DUP4 PUSH4 0xFFFFFFFF AND PUSH1 0xE0 SHL DUP2 MSTORE PUSH1 0x4 ADD PUSH2 0x284 SWAP3 SWAP2 SWAP1 PUSH2 0x9EE JUMP JUMPDEST PUSH1 0x20 PUSH1 0x40 MLOAD DUP1 DUP4 SUB DUP2 PUSH0 DUP8 GAS CALL ISZERO DUP1 ISZERO PUSH2 0x2A0 JUMPI RETURNDATASIZE PUSH0 PUSH0 RETURNDATACOPY RETURNDATASIZE PUSH0 REVERT JUMPDEST POP POP POP POP PUSH1 0x40 MLOAD RETURNDATASIZE PUSH1 0x1F NOT PUSH1 0x1F DUP3 ADD AND DUP3 ADD DUP1 PUSH1 0x40 MSTORE POP DUP2 ADD SWAP1 PUSH2 0x2C4 SWAP2 SWAP1 PUSH2 0x9C3 JUMP JUMPDEST PUSH1 0xC PUSH0 PUSH2 0x100 EXP DUP2 SLOAD DUP2 PUSH20 0xFFFFFFFFFFFFFFFFFFFFFFFFFFFFFFFFFFFFFFFF MUL NOT AND SWAP1 DUP4 PUSH20 0xFFFFFFFFFFFFFFFFFFFFFFFFFFFFFFFFFFFFFFFF AND MUL OR SWAP1 SSTORE POP PUSH1 0x1 PUSH1 0xD PUSH0 DUP4 PUSH20 0xFFFFFFFFFFFFFFFFFFFFFFFFFFFFFFFFFFFFFFFF AND PUSH20 0xFFFFFFFFFFFFFFFFFFFFFFFFFFFFFFFFFFFFFFFF AND DUP2 MSTORE PUSH1 0x20 ADD SWAP1 DUP2 MSTORE PUSH1 0x20 ADD PUSH0 KECCAK256 PUSH0 PUSH2 0x100 EXP DUP2 SLOAD DUP2 PUSH1 0xFF MUL NOT AND SWAP1 DUP4 ISZERO ISZERO MUL OR SWAP1 SSTORE POP PUSH1 0x1 PUSH1 0xD PUSH0 ADDRESS PUSH20 0xFFFFFFFFFFFFFFFFFFFFFFFFFFFFFFFFFFFFFFFF AND PUSH20 0xFFFFFFFFFFFFFFFFFFFFFFFFFFFFFFFFFFFFFFFF AND DUP2 MSTORE PUSH1 0x20 ADD SWAP1 DUP2 MSTORE PUSH1 0x20 ADD PUSH0 KECCAK256 PUSH0 PUSH2 0x100 EXP DUP2 SLOAD DUP2 PUSH1 0xFF MUL NOT AND SWAP1 DUP4 ISZERO ISZERO MUL OR SWAP1 SSTORE POP POP POP POP POP PUSH2 0xA15 JUMP JUMPDEST PUSH0 PUSH1 0x5 PUSH0 SWAP1 SLOAD SWAP1 PUSH2 0x100 EXP SWAP1 DIV PUSH20 0xFFFFFFFFFFFFFFFFFFFFFFFFFFFFFFFFFFFFFFFF AND SWAP1 POP DUP2 PUSH1 0x5 PUSH0 PUSH2 0x100 EXP DUP2 SLOAD DUP2 PUSH20 0xFFFFFFFFFFFFFFFFFFFFFFFFFFFFFFFFFFFFFFFF MUL NOT AND SWAP1 DUP4 PUSH20 0xFFFFFFFFFFFFFFFFFFFFFFFFFFFFFFFFFFFFFFFF AND MUL OR SWAP1 SSTORE POP DUP2 PUSH20 0xFFFFFFFFFFFFFFFFFFFFFFFFFFFFFFFFFFFFFFFF AND DUP2 PUSH20 0xFFFFFFFFFFFFFFFFFFFFFFFFFFFFFFFFFFFFFFFF AND PUSH32 0x8BE0079C531659141344CD1FD0A4F28419497F9722A3DAAFE3B4186F6B6457E0 PUSH1 0x40 MLOAD PUSH1 0x40 MLOAD DUP1 SWAP2 SUB SWAP1 LOG3 POP POP JUMP JUMPDEST PUSH0 PUSH1 0x40 MLOAD SWAP1 POP SWAP1 JUMP JUMPDEST PUSH0 PUSH0 REVERT JUMPDEST PUSH0 PUSH0 REVERT JUMPDEST PUSH0 PUSH0 REVERT JUMPDEST PUSH0 PUSH0 REVERT JUMPDEST PUSH0 PUSH1 0x1F NOT PUSH1 0x1F DUP4 ADD AND SWAP1 POP SWAP2 SWAP1 POP JUMP JUMPDEST PUSH32 0x4E487B7100000000000000000000000000000000000000000000000000000000 PUSH0 MSTORE PUSH1 0x41 PUSH1 0x4 MSTORE PUSH1 0x24 PUSH0 REVERT JUMPDEST PUSH2 0x4D8 DUP3 PUSH2 0x492 JUMP JUMPDEST DUP2 ADD DUP2 DUP2 LT PUSH8 0xFFFFFFFFFFFFFFFF DUP3 GT OR ISZERO PUSH2 0x4F7 JUMPI PUSH2 0x4F6 PUSH2 0x4A2 JUMP JUMPDEST JUMPDEST DUP1 PUSH1 0x40 MSTORE POP POP POP JUMP JUMPDEST PUSH0 PUSH2 0x509 PUSH2 0x479 JUMP JUMPDEST SWAP1 POP PUSH2 0x515 DUP3 DUP3 PUSH2 0x4CF JUMP JUMPDEST SWAP2 SWAP1 POP JUMP JUMPDEST PUSH0 PUSH8 0xFFFFFFFFFFFFFFFF DUP3 GT ISZERO PUSH2 0x534 JUMPI PUSH2 0x533 PUSH2 0x4A2 JUMP JUMPDEST JUMPDEST PUSH2 0x53D DUP3 PUSH2 0x492 JUMP JUMPDEST SWAP1 POP PUSH1 0x20 DUP2 ADD SWAP1 POP SWAP2 SWAP1 POP JUMP JUMPDEST DUP3 DUP2 DUP4 MCOPY PUSH0 DUP4 DUP4 ADD MSTORE POP POP POP JUMP JUMPDEST PUSH0 PUSH2 0x56A PUSH2 0x565 DUP5 PUSH2 0x51A JUMP JUMPDEST PUSH2 0x500 JUMP JUMPDEST SWAP1 POP DUP3 DUP2 MSTORE PUSH1 0x20 DUP2 ADD DUP5 DUP5 DUP5 ADD GT ISZERO PUSH2 0x586 JUMPI PUSH2 0x585 PUSH2 0x48E JUMP JUMPDEST JUMPDEST PUSH2 0x591 DUP5 DUP3 DUP6 PUSH2 0x54A JUMP JUMPDEST POP SWAP4 SWAP3 POP POP POP JUMP JUMPDEST PUSH0 DUP3 PUSH1 0x1F DUP4 ADD SLT PUSH2 0x5AD JUMPI PUSH2 0x5AC PUSH2 0x48A JUMP JUMPDEST JUMPDEST DUP2 MLOAD PUSH2 0x5BD DUP5 DUP3 PUSH1 0x20 DUP7 ADD PUSH2 0x558 JUMP JUMPDEST SWAP2 POP POP SWAP3 SWAP2 POP POP JUMP JUMPDEST PUSH0 PUSH20 0xFFFFFFFFFFFFFFFFFFFFFFFFFFFFFFFFFFFFFFFF DUP3 AND SWAP1 POP SWAP2 SWAP1 POP JUMP JUMPDEST PUSH0 PUSH2 0x5EF DUP3 PUSH2 0x5C6 JUMP JUMPDEST SWAP1 POP SWAP2 SWAP1 POP JUMP JUMPDEST PUSH2 0x5FF DUP2 PUSH2 0x5E5 JUMP JUMPDEST DUP2 EQ PUSH2 0x609 JUMPI PUSH0 PUSH0 REVERT JUMPDEST POP JUMP JUMPDEST PUSH0 DUP2 MLOAD SWAP1 POP PUSH2 0x61A DUP2 PUSH2 0x5F6 JUMP JUMPDEST SWAP3 SWAP2 POP POP JUMP JUMPDEST PUSH0 PUSH0 PUSH0 PUSH0 PUSH1 0x80 DUP6 DUP8 SUB SLT ISZERO PUSH2 0x638 JUMPI PUSH2 0x637 PUSH2 0x482 JUMP JUMPDEST JUMPDEST PUSH0 DUP6 ADD MLOAD PUSH8 0xFFFFFFFFFFFFFFFF DUP2 GT ISZERO PUSH2 0x655 JUMPI PUSH2 0x654 PUSH2 0x486 JUMP JUMPDEST JUMPDEST PUSH2 0x661 DUP8 DUP3 DUP9 ADD PUSH2 0x599 JUMP JUMPDEST SWAP5 POP POP PUSH1 0x20 DUP6 ADD MLOAD PUSH8 0xFFFFFFFFFFFFFFFF DUP2 GT ISZERO PUSH2 0x682 JUMPI PUSH2 0x681 PUSH2 0x486 JUMP JUMPDEST JUMPDEST PUSH2 0x68E DUP8 DUP3 DUP9 ADD PUSH2 0x599 JUMP JUMPDEST SWAP4 POP POP PUSH1 0x40 PUSH2 0x69F DUP8 DUP3 DUP9 ADD PUSH2 0x60C JUMP JUMPDEST SWAP3 POP POP PUSH1 0x60 PUSH2 0x6B0 DUP8 DUP3 DUP9 ADD PUSH2 0x60C JUMP JUMPDEST SWAP2 POP POP SWAP3 SWAP6 SWAP2 SWAP5 POP SWAP3 POP JUMP JUMPDEST PUSH0 DUP2 MLOAD SWAP1 POP SWAP2 SWAP1 POP JUMP JUMPDEST PUSH32 0x4E487B7100000000000000000000000000000000000000000000000000000000 PUSH0 MSTORE PUSH1 0x22 PUSH1 0x4 MSTORE PUSH1 0x24 PUSH0 REVERT JUMPDEST PUSH0 PUSH1 0x2 DUP3 DIV SWAP1 POP PUSH1 0x1 DUP3 AND DUP1 PUSH2 0x70A JUMPI PUSH1 0x7F DUP3 AND SWAP2 POP JUMPDEST PUSH1 0x20 DUP3 LT DUP2 SUB PUSH2 0x71D JUMPI PUSH2 0x71C PUSH2 0x6C6 JUMP JUMPDEST JUMPDEST POP SWAP2 SWAP1 POP JUMP JUMPDEST PUSH0 DUP2 SWAP1 POP DUP2 PUSH0 MSTORE PUSH1 0x20 PUSH0 KECCAK256 SWAP1 POP SWAP2 SWAP1 POP JUMP JUMPDEST PUSH0 PUSH1 0x20 PUSH1 0x1F DUP4 ADD DIV SWAP1 POP SWAP2 SWAP1 POP JUMP JUMPDEST PUSH0 DUP3 DUP3 SHL SWAP1 POP SWAP3 SWAP2 POP POP JUMP JUMPDEST PUSH0 PUSH1 0x8 DUP4 MUL PUSH2 0x77F PUSH32 0xFFFFFFFFFFFFFFFFFFFFFFFFFFFFFFFFFFFFFFFFFFFFFFFFFFFFFFFFFFFFFFFF DUP3 PUSH2 0x744 JUMP JUMPDEST PUSH2 0x789 DUP7 DUP4 PUSH2 0x744 JUMP JUMPDEST SWAP6 POP DUP1 NOT DUP5 AND SWAP4 POP DUP1 DUP7 AND DUP5 OR SWAP3 POP POP POP SWAP4 SWAP3 POP POP POP JUMP JUMPDEST PUSH0 DUP2 SWAP1 POP SWAP2 SWAP1 POP JUMP JUMPDEST PUSH0 DUP2 SWAP1 POP SWAP2 SWAP1 POP JUMP JUMPDEST PUSH0 PUSH2 0x7CD PUSH2 0x7C8 PUSH2 0x7C3 DUP5 PUSH2 0x7A1 JUMP JUMPDEST PUSH2 0x7AA JUMP JUMPDEST PUSH2 0x7A1 JUMP JUMPDEST SWAP1 POP SWAP2 SWAP1 POP JUMP JUMPDEST PUSH0 DUP2 SWAP1 POP SWAP2 SWAP1 POP JUMP JUMPDEST PUSH2 0x7E6 DUP4 PUSH2 0x7B3 JUMP JUMPDEST PUSH2 0x7FA PUSH2 0x7F2 DUP3 PUSH2 0x7D4 JUMP JUMPDEST DUP5 DUP5 SLOAD PUSH2 0x750 JUMP JUMPDEST DUP3 SSTORE POP POP POP POP JUMP JUMPDEST PUSH0 PUSH0 SWAP1 POP SWAP1 JUMP JUMPDEST PUSH2 0x811 PUSH2 0x802 JUMP JUMPDEST PUSH2 0x81C DUP2 DUP5 DUP5 PUSH2 0x7DD JUMP JUMPDEST POP POP POP JUMP JUMPDEST JUMPDEST DUP2 DUP2 LT ISZERO PUSH2 0x83F JUMPI PUSH2 0x834 PUSH0 DUP3 PUSH2 0x809 JUMP JUMPDEST PUSH1 0x1 DUP2 ADD SWAP1 POP PUSH2 0x822 JUMP JUMPDEST POP POP JUMP JUMPDEST PUSH1 0x1F DUP3 GT ISZERO PUSH2 0x884 JUMPI PUSH2 0x855 DUP2 PUSH2 0x723 JUMP JUMPDEST PUSH2 0x85E DUP5 PUSH2 0x735 JUMP JUMPDEST DUP2 ADD PUSH1 0x20 DUP6 LT ISZERO PUSH2 0x86D JUMPI DUP2 SWAP1 POP JUMPDEST PUSH2 0x881 PUSH2 0x879 DUP6 PUSH2 0x735 JUMP JUMPDEST DUP4 ADD DUP3 PUSH2 0x821 JUMP JUMPDEST POP POP JUMPDEST POP POP POP JUMP JUMPDEST PUSH0 DUP3 DUP3 SHR SWAP1 POP SWAP3 SWAP2 POP POP JUMP JUMPDEST PUSH0 PUSH2 0x8A4 PUSH0 NOT DUP5 PUSH1 0x8 MUL PUSH2 0x889 JUMP JUMPDEST NOT DUP1 DUP4 AND SWAP2 POP POP SWAP3 SWAP2 POP POP JUMP JUMPDEST PUSH0 PUSH2 0x8BC DUP4 DUP4 PUSH2 0x895 JUMP JUMPDEST SWAP2 POP DUP3 PUSH1 0x2 MUL DUP3 OR SWAP1 POP SWAP3 SWAP2 POP POP JUMP JUMPDEST PUSH2 0x8D5 DUP3 PUSH2 0x6BC JUMP JUMPDEST PUSH8 0xFFFFFFFFFFFFFFFF DUP2 GT ISZERO PUSH2 0x8EE JUMPI PUSH2 0x8ED PUSH2 0x4A2 JUMP JUMPDEST JUMPDEST PUSH2 0x8F8 DUP3 SLOAD PUSH2 0x6F3 JUMP JUMPDEST PUSH2 0x903 DUP3 DUP3 DUP6 PUSH2 0x843 JUMP JUMPDEST PUSH0 PUSH1 0x20 SWAP1 POP PUSH1 0x1F DUP4 GT PUSH1 0x1 DUP2 EQ PUSH2 0x934 JUMPI PUSH0 DUP5 ISZERO PUSH2 0x922 JUMPI DUP3 DUP8 ADD MLOAD SWAP1 POP JUMPDEST PUSH2 0x92C DUP6 DUP3 PUSH2 0x8B1 JUMP JUMPDEST DUP7 SSTORE POP PUSH2 0x993 JUMP JUMPDEST PUSH1 0x1F NOT DUP5 AND PUSH2 0x942 DUP7 PUSH2 0x723 JUMP JUMPDEST PUSH0 JUMPDEST DUP3 DUP2 LT ISZERO PUSH2 0x969 JUMPI DUP5 DUP10 ADD MLOAD DUP3 SSTORE PUSH1 0x1 DUP3 ADD SWAP2 POP PUSH1 0x20 DUP6 ADD SWAP5 POP PUSH1 0x20 DUP2 ADD SWAP1 POP PUSH2 0x944 JUMP JUMPDEST DUP7 DUP4 LT ISZERO PUSH2 0x986 JUMPI DUP5 DUP10 ADD MLOAD PUSH2 0x982 PUSH1 0x1F DUP10 AND DUP3 PUSH2 0x895 JUMP JUMPDEST DUP4 SSTORE POP JUMPDEST PUSH1 0x1 PUSH1 0x2 DUP9 MUL ADD DUP9 SSTORE POP POP POP JUMPDEST POP POP POP POP POP POP JUMP JUMPDEST PUSH2 0x9A4 DUP2 PUSH2 0x5E5 JUMP JUMPDEST DUP3 MSTORE POP POP JUMP JUMPDEST PUSH0 PUSH1 0x20 DUP3 ADD SWAP1 POP PUSH2 0x9BD PUSH0 DUP4 ADD DUP5 PUSH2 0x99B JUMP JUMPDEST SWAP3 SWAP2 POP POP JUMP JUMPDEST PUSH0 PUSH1 0x20 DUP3 DUP5 SUB SLT ISZERO PUSH2 0x9D8 JUMPI PUSH2 0x9D7 PUSH2 0x482 JUMP JUMPDEST JUMPDEST PUSH0 PUSH2 0x9E5 DUP5 DUP3 DUP6 ADD PUSH2 0x60C JUMP JUMPDEST SWAP2 POP POP SWAP3 SWAP2 POP POP JUMP JUMPDEST PUSH0 PUSH1 0x40 DUP3 ADD SWAP1 POP PUSH2 0xA01 PUSH0 DUP4 ADD DUP6 PUSH2 0x99B JUMP JUMPDEST PUSH2 0xA0E PUSH1 0x20 DUP4 ADD DUP5 PUSH2 0x99B JUMP JUMPDEST SWAP4 SWAP3 POP POP POP JUMP JUMPDEST PUSH2 0x1DFC DUP1 PUSH2 0xA22 PUSH0 CODECOPY PUSH0 RETURN INVALID PUSH1 0x80 PUSH1 0x40 MSTORE CALLVALUE DUP1 ISZERO PUSH2 0xF JUMPI PUSH0 PUSH0 REVERT JUMPDEST POP PUSH1 0x4 CALLDATASIZE LT PUSH2 0x18C JUMPI PUSH0 CALLDATALOAD PUSH1 0xE0 SHR DUP1 PUSH4 0x70A08231 GT PUSH2 0xDC JUMPI DUP1 PUSH4 0xC647B20E GT PUSH2 0x95 JUMPI DUP1 PUSH4 0xCB4CA631 GT PUSH2 0x6F JUMPI DUP1 PUSH4 0xCB4CA631 EQ PUSH2 0x44E JUMPI DUP1 PUSH4 0xCC1776D3 EQ PUSH2 0x47E JUMPI DUP1 PUSH4 0xDD62ED3E EQ PUSH2 0x49C JUMPI DUP1 PUSH4 0xF2FDE38B EQ PUSH2 0x4CC JUMPI PUSH2 0x18C JUMP JUMPDEST DUP1 PUSH4 0xC647B20E EQ PUSH2 0x3F8 JUMPI DUP1 PUSH4 0xC6A30647 EQ PUSH2 0x414 JUMPI DUP1 PUSH4 0xC816841B EQ PUSH2 0x430 JUMPI PUSH2 0x18C JUMP JUMPDEST DUP1 PUSH4 0x70A08231 EQ PUSH2 0x336 JUMPI DUP1 PUSH4 0x715018A6 EQ PUSH2 0x366 JUMPI DUP1 PUSH4 0x8DA5CB5B EQ PUSH2 0x370 JUMPI DUP1 PUSH4 0x95D89B41 EQ PUSH2 0x38E JUMPI DUP1 PUSH4 0xA9059CBB EQ PUSH2 0x3AC JUMPI DUP1 PUSH4 0xBEABACC8 EQ PUSH2 0x3DC JUMPI PUSH2 0x18C JUMP JUMPDEST DUP1 PUSH4 0x2431BA73 GT PUSH2 0x149 JUMPI DUP1 PUSH4 0x33727077 GT PUSH2 0x123 JUMPI DUP1 PUSH4 0x33727077 EQ PUSH2 0x2C0 JUMPI DUP1 PUSH4 0x4E6FD6C4 EQ PUSH2 0x2DE JUMPI DUP1 PUSH4 0x4F7041A5 EQ PUSH2 0x2FC JUMPI DUP1 PUSH4 0x51C6590A EQ PUSH2 0x31A JUMPI PUSH2 0x18C JUMP JUMPDEST DUP1 PUSH4 0x2431BA73 EQ PUSH2 0x268 JUMPI DUP1 PUSH4 0x2E1A7D4D EQ PUSH2 0x286 JUMPI DUP1 PUSH4 0x313CE567 EQ PUSH2 0x2A2 JUMPI PUSH2 0x18C JUMP JUMPDEST DUP1 PUSH4 0x5BF0A54 EQ PUSH2 0x190 JUMPI DUP1 PUSH4 0x6FDDE03 EQ PUSH2 0x1AE JUMPI DUP1 PUSH4 0x95EA7B3 EQ PUSH2 0x1CC JUMPI DUP1 PUSH4 0x15291CD4 EQ PUSH2 0x1FC JUMPI DUP1 PUSH4 0x18160DDD EQ PUSH2 0x21A JUMPI DUP1 PUSH4 0x23B872DD EQ PUSH2 0x238 JUMPI JUMPDEST PUSH0 PUSH0 REVERT JUMPDEST PUSH2 0x198 PUSH2 0x4E8 JUMP JUMPDEST PUSH1 0x40 MLOAD PUSH2 0x1A5 SWAP2 SWAP1 PUSH2 0x16E4 JUMP JUMPDEST PUSH1 0x40 MLOAD DUP1 SWAP2 SUB SWAP1 RETURN JUMPDEST PUSH2 0x1B6 PUSH2 0x4EE JUMP JUMPDEST PUSH1 0x40 MLOAD PUSH2 0x1C3 SWAP2 SWAP1 PUSH2 0x176D JUMP JUMPDEST PUSH1 0x40 MLOAD DUP1 SWAP2 SUB SWAP1 RETURN JUMPDEST PUSH2 0x1E6 PUSH1 0x4 DUP1 CALLDATASIZE SUB DUP2 ADD SWAP1 PUSH2 0x1E1 SWAP2 SWAP1 PUSH2 0x1815 JUMP JUMPDEST PUSH2 0x57E JUMP JUMPDEST PUSH1 0x40 MLOAD PUSH2 0x1F3 SWAP2 SWAP1 PUSH2 0x186D JUMP JUMPDEST PUSH1 0x40 MLOAD DUP1 SWAP2 SUB SWAP1 RETURN JUMPDEST PUSH2 0x204 PUSH2 0x5A0 JUMP JUMPDEST PUSH1 0x40 MLOAD PUSH2 0x211 SWAP2 SWAP1 PUSH2 0x16E4 JUMP JUMPDEST PUSH1 0x40 MLOAD DUP1 SWAP2 SUB SWAP1 RETURN JUMPDEST PUSH2 0x222 PUSH2 0x5A6 JUMP JUMPDEST PUSH1 0x40 MLOAD PUSH2 0x22F SWAP2 SWAP1 PUSH2 0x16E4 JUMP JUMPDEST PUSH1 0x40 MLOAD DUP1 SWAP2 SUB SWAP1 RETURN JUMPDEST PUSH2 0x252 PUSH1 0x4 DUP1 CALLDATASIZE SUB DUP2 ADD SWAP1 PUSH2 0x24D SWAP2 SWAP1 PUSH2 0x1886 JUMP JUMPDEST PUSH2 0x5AF JUMP JUMPDEST PUSH1 0x40 MLOAD PUSH2 0x25F SWAP2 SWAP1 PUSH2 0x186D JUMP JUMPDEST PUSH1 0x40 MLOAD DUP1 SWAP2 SUB SWAP1 RETURN JUMPDEST PUSH2 0x270 PUSH2 0x5DD JUMP JUMPDEST PUSH1 0x40 MLOAD PUSH2 0x27D SWAP2 SWAP1 PUSH2 0x1931 JUMP JUMPDEST PUSH1 0x40 MLOAD DUP1 SWAP2 SUB SWAP1 RETURN JUMPDEST PUSH2 0x2A0 PUSH1 0x4 DUP1 CALLDATASIZE SUB DUP2 ADD SWAP1 PUSH2 0x29B SWAP2 SWAP1 PUSH2 0x194A JUMP JUMPDEST PUSH2 0x602 JUMP JUMPDEST STOP JUMPDEST PUSH2 0x2AA PUSH2 0x6FC JUMP JUMPDEST PUSH1 0x40 MLOAD PUSH2 0x2B7 SWAP2 SWAP1 PUSH2 0x1990 JUMP JUMPDEST PUSH1 0x40 MLOAD DUP1 SWAP2 SUB SWAP1 RETURN JUMPDEST PUSH2 0x2C8 PUSH2 0x704 JUMP JUMPDEST PUSH1 0x40 MLOAD PUSH2 0x2D5 SWAP2 SWAP1 PUSH2 0x16E4 JUMP JUMPDEST PUSH1 0x40 MLOAD DUP1 SWAP2 SUB SWAP1 RETURN JUMPDEST PUSH2 0x2E6 PUSH2 0x70A JUMP JUMPDEST PUSH1 0x40 MLOAD PUSH2 0x2F3 SWAP2 SWAP1 PUSH2 0x19B8 JUMP JUMPDEST PUSH1 0x40 MLOAD DUP1 SWAP2 SUB SWAP1 RETURN JUMPDEST PUSH2 0x304 PUSH2 0x710 JUMP JUMPDEST PUSH1 0x40 MLOAD PUSH2 0x311 SWAP2 SWAP1 PUSH2 0x16E4 JUMP JUMPDEST PUSH1 0x40 MLOAD DUP1 SWAP2 SUB SWAP1 RETURN JUMPDEST PUSH2 0x334 PUSH1 0x4 DUP1 CALLDATASIZE SUB DUP2 ADD SWAP1 PUSH2 0x32F SWAP2 SWAP1 PUSH2 0x194A JUMP JUMPDEST PUSH2 0x716 JUMP JUMPDEST STOP JUMPDEST PUSH2 0x350 PUSH1 0x4 DUP1 CALLDATASIZE SUB DUP2 ADD SWAP1 PUSH2 0x34B SWAP2 SWAP1 PUSH2 0x19D1 JUMP JUMPDEST PUSH2 0x86F JUMP JUMPDEST PUSH1 0x40 MLOAD PUSH2 0x35D SWAP2 SWAP1 PUSH2 0x16E4 JUMP JUMPDEST PUSH1 0x40 MLOAD DUP1 SWAP2 SUB SWAP1 RETURN JUMPDEST PUSH2 0x36E PUSH2 0x8B4 JUMP JUMPDEST STOP JUMPDEST PUSH2 0x378 PUSH2 0x8C7 JUMP JUMPDEST PUSH1 0x40 MLOAD PUSH2 0x385 SWAP2 SWAP1 PUSH2 0x19B8 JUMP JUMPDEST PUSH1 0x40 MLOAD DUP1 SWAP2 SUB SWAP1 RETURN JUMPDEST PUSH2 0x396 PUSH2 0x8EF JUMP JUMPDEST PUSH1 0x40 MLOAD PUSH2 0x3A3 SWAP2 SWAP1 PUSH2 0x176D JUMP JUMPDEST PUSH1 0x40 MLOAD DUP1 SWAP2 SUB SWAP1 RETURN JUMPDEST PUSH2 0x3C6 PUSH1 0x4 DUP1 CALLDATASIZE SUB DUP2 ADD SWAP1 PUSH2 0x3C1 SWAP2 SWAP1 PUSH2 0x1815 JUMP JUMPDEST PUSH2 0x97F JUMP JUMPDEST PUSH1 0x40 MLOAD PUSH2 0x3D3 SWAP2 SWAP1 PUSH2 0x186D JUMP JUMPDEST PUSH1 0x40 MLOAD DUP1 SWAP2 SUB SWAP1 RETURN JUMPDEST PUSH2 0x3F6 PUSH1 0x4 DUP1 CALLDATASIZE SUB DUP2 ADD SWAP1 PUSH2 0x3F1 SWAP2 SWAP1 PUSH2 0x1886 JUMP JUMPDEST PUSH2 0x9A1 JUMP JUMPDEST STOP JUMPDEST PUSH2 0x412 PUSH1 0x4 DUP1 CALLDATASIZE SUB DUP2 ADD SWAP1 PUSH2 0x40D SWAP2 SWAP1 PUSH2 0x19FC JUMP JUMPDEST PUSH2 0xD5F JUMP JUMPDEST STOP JUMPDEST PUSH2 0x42E PUSH1 0x4 DUP1 CALLDATASIZE SUB DUP2 ADD SWAP1 PUSH2 0x429 SWAP2 SWAP1 PUSH2 0x1A64 JUMP JUMPDEST PUSH2 0xDC1 JUMP JUMPDEST STOP JUMPDEST PUSH2 0x438 PUSH2 0xE21 JUMP JUMPDEST PUSH1 0x40 MLOAD PUSH2 0x445 SWAP2 SWAP1 PUSH2 0x19B8 JUMP JUMPDEST PUSH1 0x40 MLOAD DUP1 SWAP2 SUB SWAP1 RETURN JUMPDEST PUSH2 0x468 PUSH1 0x4 DUP1 CALLDATASIZE SUB DUP2 ADD SWAP1 PUSH2 0x463 SWAP2 SWAP1 PUSH2 0x19D1 JUMP JUMPDEST PUSH2 0xE46 JUMP JUMPDEST PUSH1 0x40 MLOAD PUSH2 0x475 SWAP2 SWAP1 PUSH2 0x186D JUMP JUMPDEST PUSH1 0x40 MLOAD DUP1 SWAP2 SUB SWAP1 RETURN JUMPDEST PUSH2 0x486 PUSH2 0xE63 JUMP JUMPDEST PUSH1 0x40 MLOAD PUSH2 0x493 SWAP2 SWAP1 PUSH2 0x16E4 JUMP JUMPDEST PUSH1 0x40 MLOAD DUP1 SWAP2 SUB SWAP1 RETURN JUMPDEST PUSH2 0x4B6 PUSH1 0x4 DUP1 CALLDATASIZE SUB DUP2 ADD SWAP1 PUSH2 0x4B1 SWAP2 SWAP1 PUSH2 0x1AA2 JUMP JUMPDEST PUSH2 0xE69 JUMP JUMPDEST PUSH1 0x40 MLOAD PUSH2 0x4C3 SWAP2 SWAP1 PUSH2 0x16E4 JUMP JUMPDEST PUSH1 0x40 MLOAD DUP1 SWAP2 SUB SWAP1 RETURN JUMPDEST PUSH2 0x4E6 PUSH1 0x4 DUP1 CALLDATASIZE SUB DUP2 ADD SWAP1 PUSH2 0x4E1 SWAP2 SWAP1 PUSH2 0x19D1 JUMP JUMPDEST PUSH2 0xEEB JUMP JUMPDEST STOP JUMPDEST PUSH1 0x9 SLOAD DUP2 JUMP JUMPDEST PUSH1 0x60 PUSH1 0x3 DUP1 SLOAD PUSH2 0x4FD SWAP1 PUSH2 0x1B0D JUMP JUMPDEST DUP1 PUSH1 0x1F ADD PUSH1 0x20 DUP1 SWAP2 DIV MUL PUSH1 0x20 ADD PUSH1 0x40 MLOAD SWAP1 DUP2 ADD PUSH1 0x40 MSTORE DUP1 SWAP3 SWAP2 SWAP1 DUP2 DUP2 MSTORE PUSH1 0x20 ADD DUP3 DUP1 SLOAD PUSH2 0x529 SWAP1 PUSH2 0x1B0D JUMP JUMPDEST DUP1 ISZERO PUSH2 0x574 JUMPI DUP1 PUSH1 0x1F LT PUSH2 0x54B JUMPI PUSH2 0x100 DUP1 DUP4 SLOAD DIV MUL DUP4 MSTORE SWAP2 PUSH1 0x20 ADD SWAP2 PUSH2 0x574 JUMP JUMPDEST DUP3 ADD SWAP2 SWAP1 PUSH0 MSTORE PUSH1 0x20 PUSH0 KECCAK256 SWAP1 JUMPDEST DUP2 SLOAD DUP2 MSTORE SWAP1 PUSH1 0x1 ADD SWAP1 PUSH1 0x20 ADD DUP1 DUP4 GT PUSH2 0x557 JUMPI DUP3 SWAP1 SUB PUSH1 0x1F AND DUP3 ADD SWAP2 JUMPDEST POP POP POP POP POP SWAP1 POP SWAP1 JUMP JUMPDEST PUSH0 PUSH0 PUSH2 0x588 PUSH2 0xF6F JUMP JUMPDEST SWAP1 POP PUSH2 0x595 DUP2 DUP6 DUP6 PUSH2 0xF76 JUMP JUMPDEST PUSH1 0x1 SWAP2 POP POP SWAP3 SWAP2 POP POP JUMP JUMPDEST PUSH1 0x8 SLOAD DUP2 JUMP JUMPDEST PUSH0 PUSH1 0x2 SLOAD SWAP1 POP SWAP1 JUMP JUMPDEST PUSH0 PUSH0 PUSH2 0x5B9 PUSH2 0xF6F JUMP JUMPDEST SWAP1 POP PUSH2 0x5C6 DUP6 DUP3 DUP6 PUSH2 0xF88 JUMP JUMPDEST PUSH2 0x5D1 DUP6 DUP6 DUP6 PUSH2 0x101B JUMP JUMPDEST PUSH1 0x1 SWAP2 POP POP SWAP4 SWAP3 POP POP POP JUMP JUMPDEST PUSH1 0xB PUSH0 SWAP1 SLOAD SWAP1 PUSH2 0x100 EXP SWAP1 DIV PUSH20 0xFFFFFFFFFFFFFFFFFFFFFFFFFFFFFFFFFFFFFFFF AND DUP2 JUMP JUMPDEST PUSH2 0x60A PUSH2 0x110B JUMP JUMPDEST PUSH0 PUSH20 0xFFFFFFFFFFFFFFFFFFFFFFFFFFFFFFFFFFFFFFFF AND CALLER PUSH20 0xFFFFFFFFFFFFFFFFFFFFFFFFFFFFFFFFFFFFFFFF AND SUB PUSH2 0x66F JUMPI PUSH1 0x40 MLOAD PUSH32 0xA38CA3D900000000000000000000000000000000000000000000000000000000 DUP2 MSTORE PUSH1 0x4 ADD PUSH1 0x40 MLOAD DUP1 SWAP2 SUB SWAP1 REVERT JUMPDEST SELFBALANCE DUP2 GT ISZERO PUSH2 0x6A9 JUMPI PUSH1 0x40 MLOAD PUSH32 0x356680B700000000000000000000000000000000000000000000000000000000 DUP2 MSTORE PUSH1 0x4 ADD PUSH1 0x40 MLOAD DUP1 SWAP2 SUB SWAP1 REVERT JUMPDEST PUSH0 SELFBALANCE SWAP1 POP PUSH2 0x6B5 PUSH2 0x8C7 JUMP JUMPDEST PUSH20 0xFFFFFFFFFFFFFFFFFFFFFFFFFFFFFFFFFFFFFFFF AND PUSH2 0x8FC DUP3 SWAP1 DUP2 ISZERO MUL SWAP1 PUSH1 0x40 MLOAD PUSH0 PUSH1 0x40 MLOAD DUP1 DUP4 SUB DUP2 DUP6 DUP9 DUP9 CALL SWAP4 POP POP POP POP ISZERO DUP1 ISZERO PUSH2 0x6F7 JUMPI RETURNDATASIZE PUSH0 PUSH0 RETURNDATACOPY RETURNDATASIZE PUSH0 REVERT JUMPDEST POP POP POP JUMP JUMPDEST PUSH0 PUSH1 0x12 SWAP1 POP SWAP1 JUMP JUMPDEST PUSH1 0xA SLOAD DUP2 JUMP JUMPDEST PUSH2 0xDEAD DUP2 JUMP JUMPDEST PUSH1 0x6 SLOAD DUP2 JUMP JUMPDEST PUSH2 0x71E PUSH2 0x110B JUMP JUMPDEST PUSH0 DUP2 GT PUSH2 0x757 JUMPI PUSH1 0x40 MLOAD PUSH32 0x671D94D800000000000000000000000000000000000000000000000000000000 DUP2 MSTORE PUSH1 0x4 ADD PUSH1 0x40 MLOAD DUP1 SWAP2 SUB SWAP1 REVERT JUMPDEST PUSH2 0x783 ADDRESS PUSH1 0xB PUSH0 SWAP1 SLOAD SWAP1 PUSH2 0x100 EXP SWAP1 DIV PUSH20 0xFFFFFFFFFFFFFFFFFFFFFFFFFFFFFFFFFFFFFFFF AND DUP4 PUSH2 0xF76 JUMP JUMPDEST PUSH1 0xB PUSH0 SWAP1 SLOAD SWAP1 PUSH2 0x100 EXP SWAP1 DIV PUSH20 0xFFFFFFFFFFFFFFFFFFFFFFFFFFFFFFFFFFFFFFFF AND PUSH20 0xFFFFFFFFFFFFFFFFFFFFFFFFFFFFFFFFFFFFFFFF AND PUSH4 0xF305D719 SELFBALANCE ADDRESS DUP5 PUSH0 PUSH0 PUSH2 0x7CD PUSH2 0x8C7 JUMP JUMPDEST TIMESTAMP PUSH1 0x40 MLOAD DUP9 PUSH4 0xFFFFFFFF AND PUSH1 0xE0 SHL DUP2 MSTORE PUSH1 0x4 ADD PUSH2 0x7EF SWAP7 SWAP6 SWAP5 SWAP4 SWAP3 SWAP2 SWAP1 PUSH2 0x1B76 JUMP JUMPDEST PUSH1 0x60 PUSH1 0x40 MLOAD DUP1 DUP4 SUB DUP2 DUP6 DUP9 GAS CALL ISZERO DUP1 ISZERO PUSH2 0x80B JUMPI RETURNDATASIZE PUSH0 PUSH0 RETURNDATACOPY RETURNDATASIZE PUSH0 REVERT JUMPDEST POP POP POP POP POP PUSH1 0x40 MLOAD RETURNDATASIZE PUSH1 0x1F NOT PUSH1 0x1F DUP3 ADD AND DUP3 ADD DUP1 PUSH1 0x40 MSTORE POP DUP2 ADD SWAP1 PUSH2 0x830 SWAP2 SWAP1 PUSH2 0x1BE9 JUMP JUMPDEST POP POP POP PUSH32 0x38F8A0C92F4C5B0B6877F878CB4C0C8D348A47B76D716C8E78F425043DF9515B DUP2 SELFBALANCE PUSH1 0x40 MLOAD PUSH2 0x864 SWAP3 SWAP2 SWAP1 PUSH2 0x1C39 JUMP JUMPDEST PUSH1 0x40 MLOAD DUP1 SWAP2 SUB SWAP1 LOG1 POP JUMP JUMPDEST PUSH0 PUSH0 PUSH0 DUP4 PUSH20 0xFFFFFFFFFFFFFFFFFFFFFFFFFFFFFFFFFFFFFFFF AND PUSH20 0xFFFFFFFFFFFFFFFFFFFFFFFFFFFFFFFFFFFFFFFF AND DUP2 MSTORE PUSH1 0x20 ADD SWAP1 DUP2 MSTORE PUSH1 0x20 ADD PUSH0 KECCAK256 SLOAD SWAP1 POP SWAP2 SWAP1 POP JUMP JUMPDEST PUSH2 0x8BC PUSH2 0x110B JUMP JUMPDEST PUSH2 0x8C5 PUSH0 PUSH2 0x1192 JUMP JUMPDEST JUMP JUMPDEST PUSH0 PUSH1 0x5 PUSH0 SWAP1 SLOAD SWAP1 PUSH2 0x100 EXP SWAP1 DIV PUSH20 0xFFFFFFFFFFFFFFFFFFFFFFFFFFFFFFFFFFFFFFFF AND SWAP1 POP SWAP1 JUMP JUMPDEST PUSH1 0x60 PUSH1 0x4 DUP1 SLOAD PUSH2 0x8FE SWAP1 PUSH2 0x1B0D JUMP JUMPDEST DUP1 PUSH1 0x1F ADD PUSH1 0x20 DUP1 SWAP2 DIV MUL PUSH1 0x20 ADD PUSH1 0x40 MLOAD SWAP1 DUP2 ADD PUSH1 0x40 MSTORE DUP1 SWAP3 SWAP2 SWAP1 DUP2 DUP2 MSTORE PUSH1 0x20 ADD DUP3 DUP1 SLOAD PUSH2 0x92A SWAP1 PUSH2 0x1B0D JUMP JUMPDEST DUP1 ISZERO PUSH2 0x975 JUMPI DUP1 PUSH1 0x1F LT PUSH2 0x94C JUMPI PUSH2 0x100 DUP1 DUP4 SLOAD DIV MUL DUP4 MSTORE SWAP2 PUSH1 0x20 ADD SWAP2 PUSH2 0x975 JUMP JUMPDEST DUP3 ADD SWAP2 SWAP1 PUSH0 MSTORE PUSH1 0x20 PUSH0 KECCAK256 SWAP1 JUMPDEST DUP2 SLOAD DUP2 MSTORE SWAP1 PUSH1 0x1 ADD SWAP1 PUSH1 0x20 ADD DUP1 DUP4 GT PUSH2 0x958 JUMPI DUP3 SWAP1 SUB PUSH1 0x1F AND DUP3 ADD SWAP2 JUMPDEST POP POP POP POP POP SWAP1 POP SWAP1 JUMP JUMPDEST PUSH0 PUSH0 PUSH2 0x989 PUSH2 0xF6F JUMP JUMPDEST SWAP1 POP PUSH2 0x996 DUP2 DUP6 DUP6 PUSH2 0x101B JUMP JUMPDEST PUSH1 0x1 SWAP2 POP POP SWAP3 SWAP2 POP POP JUMP JUMPDEST PUSH0 PUSH20 0xFFFFFFFFFFFFFFFFFFFFFFFFFFFFFFFFFFFFFFFF AND DUP4 PUSH20 0xFFFFFFFFFFFFFFFFFFFFFFFFFFFFFFFFFFFFFFFF AND SUB PUSH2 0xA06 JUMPI PUSH1 0x40 MLOAD PUSH32 0xF38F85C300000000000000000000000000000000000000000000000000000000 DUP2 MSTORE PUSH1 0x4 ADD PUSH1 0x40 MLOAD DUP1 SWAP2 SUB SWAP1 REVERT JUMPDEST PUSH0 PUSH20 0xFFFFFFFFFFFFFFFFFFFFFFFFFFFFFFFFFFFFFFFF AND DUP3 PUSH20 0xFFFFFFFFFFFFFFFFFFFFFFFFFFFFFFFFFFFFFFFF AND SUB PUSH2 0xA6B JUMPI PUSH1 0x40 MLOAD PUSH32 0xA38CA3D900000000000000000000000000000000000000000000000000000000 DUP2 MSTORE PUSH1 0x4 ADD PUSH1 0x40 MLOAD DUP1 SWAP2 SUB SWAP1 REVERT JUMPDEST PUSH1 0xD PUSH0 DUP5 PUSH20 0xFFFFFFFFFFFFFFFFFFFFFFFFFFFFFFFFFFFFFFFF AND PUSH20 0xFFFFFFFFFFFFFFFFFFFFFFFFFFFFFFFFFFFFFFFF AND DUP2 MSTORE PUSH1 0x20 ADD SWAP1 DUP2 MSTORE PUSH1 0x20 ADD PUSH0 KECCAK256 PUSH0 SWAP1 SLOAD SWAP1 PUSH2 0x100 EXP SWAP1 DIV PUSH1 0xFF AND DUP1 PUSH2 0xB06 JUMPI POP PUSH1 0xD PUSH0 DUP4 PUSH20 0xFFFFFFFFFFFFFFFFFFFFFFFFFFFFFFFFFFFFFFFF AND PUSH20 0xFFFFFFFFFFFFFFFFFFFFFFFFFFFFFFFFFFFFFFFF AND DUP2 MSTORE PUSH1 0x20 ADD SWAP1 DUP2 MSTORE PUSH1 0x20 ADD PUSH0 KECCAK256 PUSH0 SWAP1 SLOAD SWAP1 PUSH2 0x100 EXP SWAP1 DIV PUSH1 0xFF AND JUMPDEST ISZERO PUSH2 0xB1B JUMPI PUSH2 0xB16 DUP4 DUP4 DUP4 PUSH2 0x101B JUMP JUMPDEST PUSH2 0xD5A JUMP JUMPDEST PUSH0 PUSH1 0xC PUSH0 SWAP1 SLOAD SWAP1 PUSH2 0x100 EXP SWAP1 DIV PUSH20 0xFFFFFFFFFFFFFFFFFFFFFFFFFFFFFFFFFFFFFFFF AND PUSH20 0xFFFFFFFFFFFFFFFFFFFFFFFFFFFFFFFFFFFFFFFF AND DUP4 PUSH20 0xFFFFFFFFFFFFFFFFFFFFFFFFFFFFFFFFFFFFFFFF AND EQ SWAP1 POP PUSH0 PUSH1 0xC PUSH0 SWAP1 SLOAD SWAP1 PUSH2 0x100 EXP SWAP1 DIV PUSH20 0xFFFFFFFFFFFFFFFFFFFFFFFFFFFFFFFFFFFFFFFF AND PUSH20 0xFFFFFFFFFFFFFFFFFFFFFFFFFFFFFFFFFFFFFFFF AND DUP6 PUSH20 0xFFFFFFFFFFFFFFFFFFFFFFFFFFFFFFFFFFFFFFFF AND EQ SWAP1 POP PUSH0 DUP3 ISZERO PUSH2 0xBE9 JUMPI PUSH1 0x64 PUSH1 0x6 SLOAD DUP6 PUSH2 0xBD8 SWAP2 SWAP1 PUSH2 0x1C8D JUMP JUMPDEST PUSH2 0xBE2 SWAP2 SWAP1 PUSH2 0x1CFB JUMP JUMPDEST SWAP1 POP PUSH2 0xC0D JUMP JUMPDEST DUP2 ISZERO PUSH2 0xC0C JUMPI PUSH1 0x64 PUSH1 0x7 SLOAD DUP6 PUSH2 0xBFF SWAP2 SWAP1 PUSH2 0x1C8D JUMP JUMPDEST PUSH2 0xC09 SWAP2 SWAP1 PUSH2 0x1CFB JUMP JUMPDEST SWAP1 POP JUMPDEST JUMPDEST PUSH0 DUP2 DUP6 PUSH2 0xC1A SWAP2 SWAP1 PUSH2 0x1D2B JUMP JUMPDEST SWAP1 POP DUP2 DUP2 PUSH2 0xC28 SWAP2 SWAP1 PUSH2 0x1D5E JUMP JUMPDEST DUP6 EQ PUSH2 0xC60 JUMPI PUSH1 0x40 MLOAD PUSH32 0x1F825C6A00000000000000000000000000000000000000000000000000000000 DUP2 MSTORE PUSH1 0x4 ADD PUSH1 0x40 MLOAD DUP1 SWAP2 SUB SWAP1 REVERT JUMPDEST PUSH0 DUP3 GT ISZERO PUSH2 0xD4A JUMPI PUSH2 0xC73 DUP8 ADDRESS DUP5 PUSH2 0x101B JUMP JUMPDEST PUSH32 0x92C6768BA45DFDC937F94A27A0C5BE8334952F1558BC7DD41B3E8707502E1B6 DUP3 PUSH1 0x40 MLOAD PUSH2 0xCA2 SWAP2 SWAP1 PUSH2 0x16E4 JUMP JUMPDEST PUSH1 0x40 MLOAD DUP1 SWAP2 SUB SWAP1 LOG1 PUSH0 PUSH1 0x64 PUSH1 0x8 SLOAD DUP5 PUSH2 0xCBB SWAP2 SWAP1 PUSH2 0x1C8D JUMP JUMPDEST PUSH2 0xCC5 SWAP2 SWAP1 PUSH2 0x1CFB JUMP JUMPDEST SWAP1 POP PUSH0 PUSH1 0x64 PUSH1 0x9 SLOAD DUP6 PUSH2 0xCD8 SWAP2 SWAP1 PUSH2 0x1C8D JUMP JUMPDEST PUSH2 0xCE2 SWAP2 SWAP1 PUSH2 0x1CFB JUMP JUMPDEST SWAP1 POP PUSH0 DUP2 DUP4 DUP7 PUSH2 0xCF2 SWAP2 SWAP1 PUSH2 0x1D2B JUMP JUMPDEST PUSH2 0xCFC SWAP2 SWAP1 PUSH2 0x1D2B JUMP JUMPDEST SWAP1 POP PUSH2 0xD2A ADDRESS PUSH1 0xC PUSH0 SWAP1 SLOAD SWAP1 PUSH2 0x100 EXP SWAP1 DIV PUSH20 0xFFFFFFFFFFFFFFFFFFFFFFFFFFFFFFFFFFFFFFFF AND DUP6 PUSH2 0x101B JUMP JUMPDEST PUSH2 0xD34 ADDRESS DUP4 PUSH2 0x1255 JUMP JUMPDEST PUSH2 0xD46 ADDRESS PUSH2 0xD40 PUSH2 0x8C7 JUMP JUMPDEST DUP4 PUSH2 0x101B JUMP JUMPDEST POP POP POP JUMPDEST PUSH2 0xD55 DUP8 DUP8 DUP4 PUSH2 0x101B JUMP JUMPDEST POP POP POP POP JUMPDEST POP POP POP JUMP JUMPDEST PUSH2 0xD67 PUSH2 0x110B JUMP JUMPDEST PUSH1 0xA DUP3 GT ISZERO DUP1 ISZERO PUSH2 0xD79 JUMPI POP PUSH1 0x14 DUP2 GT ISZERO JUMPDEST PUSH2 0xDAF JUMPI PUSH1 0x40 MLOAD PUSH32 0xAF1EE13400000000000000000000000000000000000000000000000000000000 DUP2 MSTORE PUSH1 0x4 ADD PUSH1 0x40 MLOAD DUP1 SWAP2 SUB SWAP1 REVERT JUMPDEST DUP2 PUSH1 0x6 DUP2 SWAP1 SSTORE POP DUP1 PUSH1 0x7 DUP2 SWAP1 SSTORE POP POP POP JUMP JUMPDEST PUSH2 0xDC9 PUSH2 0x110B JUMP JUMPDEST DUP1 PUSH1 0xD PUSH0 DUP5 PUSH20 0xFFFFFFFFFFFFFFFFFFFFFFFFFFFFFFFFFFFFFFFF AND PUSH20 0xFFFFFFFFFFFFFFFFFFFFFFFFFFFFFFFFFFFFFFFF AND DUP2 MSTORE PUSH1 0x20 ADD SWAP1 DUP2 MSTORE PUSH1 0x20 ADD PUSH0 KECCAK256 PUSH0 PUSH2 0x100 EXP DUP2 SLOAD DUP2 PUSH1 0xFF MUL NOT AND SWAP1 DUP4 ISZERO ISZERO MUL OR SWAP1 SSTORE POP POP POP JUMP JUMPDEST PUSH1 0xC PUSH0 SWAP1 SLOAD SWAP1 PUSH2 0x100 EXP SWAP1 DIV PUSH20 0xFFFFFFFFFFFFFFFFFFFFFFFFFFFFFFFFFFFFFFFF AND DUP2 JUMP JUMPDEST PUSH1 0xD PUSH1 0x20 MSTORE DUP1 PUSH0 MSTORE PUSH1 0x40 PUSH0 KECCAK256 PUSH0 SWAP2 POP SLOAD SWAP1 PUSH2 0x100 EXP SWAP1 DIV PUSH1 0xFF AND DUP2 JUMP JUMPDEST PUSH1 0x7 SLOAD DUP2 JUMP JUMPDEST PUSH0 PUSH1 0x1 PUSH0 DUP5 PUSH20 0xFFFFFFFFFFFFFFFFFFFFFFFFFFFFFFFFFFFFFFFF AND PUSH20 0xFFFFFFFFFFFFFFFFFFFFFFFFFFFFFFFFFFFFFFFF AND DUP2 MSTORE PUSH1 0x20 ADD SWAP1 DUP2 MSTORE PUSH1 0x20 ADD PUSH0 KECCAK256 PUSH0 DUP4 PUSH20 0xFFFFFFFFFFFFFFFFFFFFFFFFFFFFFFFFFFFFFFFF AND PUSH20 0xFFFFFFFFFFFFFFFFFFFFFFFFFFFFFFFFFFFFFFFF AND DUP2 MSTORE PUSH1 0x20 ADD SWAP1 DUP2 MSTORE PUSH1 0x20 ADD PUSH0 KECCAK256 SLOAD SWAP1 POP SWAP3 SWAP2 POP POP JUMP JUMPDEST PUSH2 0xEF3 PUSH2 0x110B JUMP JUMPDEST PUSH0 PUSH20 0xFFFFFFFFFFFFFFFFFFFFFFFFFFFFFFFFFFFFFFFF AND DUP2 PUSH20 0xFFFFFFFFFFFFFFFFFFFFFFFFFFFFFFFFFFFFFFFF AND SUB PUSH2 0xF63 JUMPI PUSH0 PUSH1 0x40 MLOAD PUSH32 0x1E4FBDF700000000000000000000000000000000000000000000000000000000 DUP2 MSTORE PUSH1 0x4 ADD PUSH2 0xF5A SWAP2 SWAP1 PUSH2 0x19B8 JUMP JUMPDEST PUSH1 0x40 MLOAD DUP1 SWAP2 SUB SWAP1 REVERT JUMPDEST PUSH2 0xF6C DUP2 PUSH2 0x1192 JUMP JUMPDEST POP JUMP JUMPDEST PUSH0 CALLER SWAP1 POP SWAP1 JUMP JUMPDEST PUSH2 0xF83 DUP4 DUP4 DUP4 PUSH1 0x1 PUSH2 0x12D4 JUMP JUMPDEST POP POP POP JUMP JUMPDEST PUSH0 PUSH2 0xF93 DUP5 DUP5 PUSH2 0xE69 JUMP JUMPDEST SWAP1 POP PUSH32 0xFFFFFFFFFFFFFFFFFFFFFFFFFFFFFFFFFFFFFFFFFFFFFFFFFFFFFFFFFFFFFFFF DUP2 LT ISZERO PUSH2 0x1015 JUMPI DUP2 DUP2 LT ISZERO PUSH2 0x1006 JUMPI DUP3 DUP2 DUP4 PUSH1 0x40 MLOAD PUSH32 0xFB8F41B200000000000000000000000000000000000000000000000000000000 DUP2 MSTORE PUSH1 0x4 ADD PUSH2 0xFFD SWAP4 SWAP3 SWAP2 SWAP1 PUSH2 0x1D91 JUMP JUMPDEST PUSH1 0x40 MLOAD DUP1 SWAP2 SUB SWAP1 REVERT JUMPDEST PUSH2 0x1014 DUP5 DUP5 DUP5 DUP5 SUB PUSH0 PUSH2 0x12D4 JUMP JUMPDEST JUMPDEST POP POP POP POP JUMP JUMPDEST PUSH0 PUSH20 0xFFFFFFFFFFFFFFFFFFFFFFFFFFFFFFFFFFFFFFFF AND DUP4 PUSH20 0xFFFFFFFFFFFFFFFFFFFFFFFFFFFFFFFFFFFFFFFF AND SUB PUSH2 0x108B JUMPI PUSH0 PUSH1 0x40 MLOAD PUSH32 0x96C6FD1E00000000000000000000000000000000000000000000000000000000 DUP2 MSTORE PUSH1 0x4 ADD PUSH2 0x1082 SWAP2 SWAP1 PUSH2 0x19B8 JUMP JUMPDEST PUSH1 0x40 MLOAD DUP1 SWAP2 SUB SWAP1 REVERT JUMPDEST PUSH0 PUSH20 0xFFFFFFFFFFFFFFFFFFFFFFFFFFFFFFFFFFFFFFFF AND DUP3 PUSH20 0xFFFFFFFFFFFFFFFFFFFFFFFFFFFFFFFFFFFFFFFF AND SUB PUSH2 0x10FB JUMPI PUSH0 PUSH1 0x40 MLOAD PUSH32 0xEC442F0500000000000000000000000000000000000000000000000000000000 DUP2 MSTORE PUSH1 0x4 ADD PUSH2 0x10F2 SWAP2 SWAP1 PUSH2 0x19B8 JUMP JUMPDEST PUSH1 0x40 MLOAD DUP1 SWAP2 SUB SWAP1 REVERT JUMPDEST PUSH2 0x1106 DUP4 DUP4 DUP4 PUSH2 0x14A3 JUMP JUMPDEST POP POP POP JUMP JUMPDEST PUSH2 0x1113 PUSH2 0xF6F JUMP JUMPDEST PUSH20 0xFFFFFFFFFFFFFFFFFFFFFFFFFFFFFFFFFFFFFFFF AND PUSH2 0x1131 PUSH2 0x8C7 JUMP JUMPDEST PUSH20 0xFFFFFFFFFFFFFFFFFFFFFFFFFFFFFFFFFFFFFFFF AND EQ PUSH2 0x1190 JUMPI PUSH2 0x1154 PUSH2 0xF6F JUMP JUMPDEST PUSH1 0x40 MLOAD PUSH32 0x118CDAA700000000000000000000000000000000000000000000000000000000 DUP2 MSTORE PUSH1 0x4 ADD PUSH2 0x1187 SWAP2 SWAP1 PUSH2 0x19B8 JUMP JUMPDEST PUSH1 0x40 MLOAD DUP1 SWAP2 SUB SWAP1 REVERT JUMPDEST JUMP JUMPDEST PUSH0 PUSH1 0x5 PUSH0 SWAP1 SLOAD SWAP1 PUSH2 0x100 EXP SWAP1 DIV PUSH20 0xFFFFFFFFFFFFFFFFFFFFFFFFFFFFFFFFFFFFFFFF AND SWAP1 POP DUP2 PUSH1 0x5 PUSH0 PUSH2 0x100 EXP DUP2 SLOAD DUP2 PUSH20 0xFFFFFFFFFFFFFFFFFFFFFFFFFFFFFFFFFFFFFFFF MUL NOT AND SWAP1 DUP4 PUSH20 0xFFFFFFFFFFFFFFFFFFFFFFFFFFFFFFFFFFFFFFFF AND MUL OR SWAP1 SSTORE POP DUP2 PUSH20 0xFFFFFFFFFFFFFFFFFFFFFFFFFFFFFFFFFFFFFFFF AND DUP2 PUSH20 0xFFFFFFFFFFFFFFFFFFFFFFFFFFFFFFFFFFFFFFFF AND PUSH32 0x8BE0079C531659141344CD1FD0A4F28419497F9722A3DAAFE3B4186F6B6457E0 PUSH1 0x40 MLOAD PUSH1 0x40 MLOAD DUP1 SWAP2 SUB SWAP1 LOG3 POP POP JUMP JUMPDEST PUSH0 PUSH20 0xFFFFFFFFFFFFFFFFFFFFFFFFFFFFFFFFFFFFFFFF AND DUP3 PUSH20 0xFFFFFFFFFFFFFFFFFFFFFFFFFFFFFFFFFFFFFFFF AND SUB PUSH2 0x12C5 JUMPI PUSH0 PUSH1 0x40 MLOAD PUSH32 0x96C6FD1E00000000000000000000000000000000000000000000000000000000 DUP2 MSTORE PUSH1 0x4 ADD PUSH2 0x12BC SWAP2 SWAP1 PUSH2 0x19B8 JUMP JUMPDEST PUSH1 0x40 MLOAD DUP1 SWAP2 SUB SWAP1 REVERT JUMPDEST PUSH2 0x12D0 DUP3 PUSH0 DUP4 PUSH2 0x14A3 JUMP JUMPDEST POP POP JUMP JUMPDEST PUSH0 PUSH20 0xFFFFFFFFFFFFFFFFFFFFFFFFFFFFFFFFFFFFFFFF AND DUP5 PUSH20 0xFFFFFFFFFFFFFFFFFFFFFFFFFFFFFFFFFFFFFFFF AND SUB PUSH2 0x1344 JUMPI PUSH0 PUSH1 0x40 MLOAD PUSH32 0xE602DF0500000000000000000000000000000000000000000000000000000000 DUP2 MSTORE PUSH1 0x4 ADD PUSH2 0x133B SWAP2 SWAP1 PUSH2 0x19B8 JUMP JUMPDEST PUSH1 0x40 MLOAD DUP1 SWAP2 SUB SWAP1 REVERT JUMPDEST PUSH0 PUSH20 0xFFFFFFFFFFFFFFFFFFFFFFFFFFFFFFFFFFFFFFFF AND DUP4 PUSH20 0xFFFFFFFFFFFFFFFFFFFFFFFFFFFFFFFFFFFFFFFF AND SUB PUSH2 0x13B4 JUMPI PUSH0 PUSH1 0x40 MLOAD PUSH32 0x94280D6200000000000000000000000000000000000000000000000000000000 DUP2 MSTORE PUSH1 0x4 ADD PUSH2 0x13AB SWAP2 SWAP1 PUSH2 0x19B8 JUMP JUMPDEST PUSH1 0x40 MLOAD DUP1 SWAP2 SUB SWAP1 REVERT JUMPDEST DUP2 PUSH1 0x1 PUSH0 DUP7 PUSH20 0xFFFFFFFFFFFFFFFFFFFFFFFFFFFFFFFFFFFFFFFF AND PUSH20 0xFFFFFFFFFFFFFFFFFFFFFFFFFFFFFFFFFFFFFFFF AND DUP2 MSTORE PUSH1 0x20 ADD SWAP1 DUP2 MSTORE PUSH1 0x20 ADD PUSH0 KECCAK256 PUSH0 DUP6 PUSH20 0xFFFFFFFFFFFFFFFFFFFFFFFFFFFFFFFFFFFFFFFF AND PUSH20 0xFFFFFFFFFFFFFFFFFFFFFFFFFFFFFFFFFFFFFFFF AND DUP2 MSTORE PUSH1 0x20 ADD SWAP1 DUP2 MSTORE PUSH1 0x20 ADD PUSH0 KECCAK256 DUP2 SWAP1 SSTORE POP DUP1 ISZERO PUSH2 0x149D JUMPI DUP3 PUSH20 0xFFFFFFFFFFFFFFFFFFFFFFFFFFFFFFFFFFFFFFFF AND DUP5 PUSH20 0xFFFFFFFFFFFFFFFFFFFFFFFFFFFFFFFFFFFFFFFF AND PUSH32 0x8C5BE1E5EBEC7D5BD14F71427D1E84F3DD0314C0F7B2291E5B200AC8C7C3B925 DUP5 PUSH1 0x40 MLOAD PUSH2 0x1494 SWAP2 SWAP1 PUSH2 0x16E4 JUMP JUMPDEST PUSH1 0x40 MLOAD DUP1 SWAP2 SUB SWAP1 LOG3 JUMPDEST POP POP POP POP JUMP JUMPDEST PUSH2 0x14AE DUP4 DUP4 DUP4 PUSH2 0x14B3 JUMP JUMPDEST POP POP POP JUMP JUMPDEST PUSH0 PUSH20 0xFFFFFFFFFFFFFFFFFFFFFFFFFFFFFFFFFFFFFFFF AND DUP4 PUSH20 0xFFFFFFFFFFFFFFFFFFFFFFFFFFFFFFFFFFFFFFFF AND SUB PUSH2 0x1503 JUMPI DUP1 PUSH1 0x2 PUSH0 DUP3 DUP3 SLOAD PUSH2 0x14F7 SWAP2 SWAP1 PUSH2 0x1D5E JUMP JUMPDEST SWAP3 POP POP DUP2 SWAP1 SSTORE POP PUSH2 0x15D1 JUMP JUMPDEST PUSH0 PUSH0 PUSH0 DUP6 PUSH20 0xFFFFFFFFFFFFFFFFFFFFFFFFFFFFFFFFFFFFFFFF AND PUSH20 0xFFFFFFFFFFFFFFFFFFFFFFFFFFFFFFFFFFFFFFFF AND DUP2 MSTORE PUSH1 0x20 ADD SWAP1 DUP2 MSTORE PUSH1 0x20 ADD PUSH0 KECCAK256 SLOAD SWAP1 POP DUP2 DUP2 LT ISZERO PUSH2 0x158C JUMPI DUP4 DUP2 DUP4 PUSH1 0x40 MLOAD PUSH32 0xE450D38C00000000000000000000000000000000000000000000000000000000 DUP2 MSTORE PUSH1 0x4 ADD PUSH2 0x1583 SWAP4 SWAP3 SWAP2 SWAP1 PUSH2 0x1D91 JUMP JUMPDEST PUSH1 0x40 MLOAD DUP1 SWAP2 SUB SWAP1 REVERT JUMPDEST DUP2 DUP2 SUB PUSH0 PUSH0 DUP7 PUSH20 0xFFFFFFFFFFFFFFFFFFFFFFFFFFFFFFFFFFFFFFFF AND PUSH20 0xFFFFFFFFFFFFFFFFFFFFFFFFFFFFFFFFFFFFFFFF AND DUP2 MSTORE PUSH1 0x20 ADD SWAP1 DUP2 MSTORE PUSH1 0x20 ADD PUSH0 KECCAK256 DUP2 SWAP1 SSTORE POP POP JUMPDEST PUSH0 PUSH20 0xFFFFFFFFFFFFFFFFFFFFFFFFFFFFFFFFFFFFFFFF AND DUP3 PUSH20 0xFFFFFFFFFFFFFFFFFFFFFFFFFFFFFFFFFFFFFFFF AND SUB PUSH2 0x1618 JUMPI DUP1 PUSH1 0x2 PUSH0 DUP3 DUP3 SLOAD SUB SWAP3 POP POP DUP2 SWAP1 SSTORE POP PUSH2 0x1662 JUMP JUMPDEST DUP1 PUSH0 PUSH0 DUP5 PUSH20 0xFFFFFFFFFFFFFFFFFFFFFFFFFFFFFFFFFFFFFFFF AND PUSH20 0xFFFFFFFFFFFFFFFFFFFFFFFFFFFFFFFFFFFFFFFF AND DUP2 MSTORE PUSH1 0x20 ADD SWAP1 DUP2 MSTORE PUSH1 0x20 ADD PUSH0 KECCAK256 PUSH0 DUP3 DUP3 SLOAD ADD SWAP3 POP POP DUP2 SWAP1 SSTORE POP JUMPDEST DUP2 PUSH20 0xFFFFFFFFFFFFFFFFFFFFFFFFFFFFFFFFFFFFFFFF AND DUP4 PUSH20 0xFFFFFFFFFFFFFFFFFFFFFFFFFFFFFFFFFFFFFFFF AND PUSH32 0xDDF252AD1BE2C89B69C2B068FC378DAA952BA7F163C4A11628F55A4DF523B3EF DUP4 PUSH1 0x40 MLOAD PUSH2 0x16BF SWAP2 SWAP1 PUSH2 0x16E4 JUMP JUMPDEST PUSH1 0x40 MLOAD DUP1 SWAP2 SUB SWAP1 LOG3 POP POP POP JUMP JUMPDEST PUSH0 DUP2 SWAP1 POP SWAP2 SWAP1 POP JUMP JUMPDEST PUSH2 0x16DE DUP2 PUSH2 0x16CC JUMP JUMPDEST DUP3 MSTORE POP POP JUMP JUMPDEST PUSH0 PUSH1 0x20 DUP3 ADD SWAP1 POP PUSH2 0x16F7 PUSH0 DUP4 ADD DUP5 PUSH2 0x16D5 JUMP JUMPDEST SWAP3 SWAP2 POP POP JUMP JUMPDEST PUSH0 DUP2 MLOAD SWAP1 POP SWAP2 SWAP1 POP JUMP JUMPDEST PUSH0 DUP3 DUP3 MSTORE PUSH1 0x20 DUP3 ADD SWAP1 POP SWAP3 SWAP2 POP POP JUMP JUMPDEST DUP3 DUP2 DUP4 MCOPY PUSH0 DUP4 DUP4 ADD MSTORE POP POP POP JUMP JUMPDEST PUSH0 PUSH1 0x1F NOT PUSH1 0x1F DUP4 ADD AND SWAP1 POP SWAP2 SWAP1 POP JUMP JUMPDEST PUSH0 PUSH2 0x173F DUP3 PUSH2 0x16FD JUMP JUMPDEST PUSH2 0x1749 DUP2 DUP6 PUSH2 0x1707 JUMP JUMPDEST SWAP4 POP PUSH2 0x1759 DUP2 DUP6 PUSH1 0x20 DUP7 ADD PUSH2 0x1717 JUMP JUMPDEST PUSH2 0x1762 DUP2 PUSH2 0x1725 JUMP JUMPDEST DUP5 ADD SWAP2 POP POP SWAP3 SWAP2 POP POP JUMP JUMPDEST PUSH0 PUSH1 0x20 DUP3 ADD SWAP1 POP DUP2 DUP2 SUB PUSH0 DUP4 ADD MSTORE PUSH2 0x1785 DUP2 DUP5 PUSH2 0x1735 JUMP JUMPDEST SWAP1 POP SWAP3 SWAP2 POP POP JUMP JUMPDEST PUSH0 PUSH0 REVERT JUMPDEST PUSH0 PUSH20 0xFFFFFFFFFFFFFFFFFFFFFFFFFFFFFFFFFFFFFFFF DUP3 AND SWAP1 POP SWAP2 SWAP1 POP JUMP JUMPDEST PUSH0 PUSH2 0x17BA DUP3 PUSH2 0x1791 JUMP JUMPDEST SWAP1 POP SWAP2 SWAP1 POP JUMP JUMPDEST PUSH2 0x17CA DUP2 PUSH2 0x17B0 JUMP JUMPDEST DUP2 EQ PUSH2 0x17D4 JUMPI PUSH0 PUSH0 REVERT JUMPDEST POP JUMP JUMPDEST PUSH0 DUP2 CALLDATALOAD SWAP1 POP PUSH2 0x17E5 DUP2 PUSH2 0x17C1 JUMP JUMPDEST SWAP3 SWAP2 POP POP JUMP JUMPDEST PUSH2 0x17F4 DUP2 PUSH2 0x16CC JUMP JUMPDEST DUP2 EQ PUSH2 0x17FE JUMPI PUSH0 PUSH0 REVERT JUMPDEST POP JUMP JUMPDEST PUSH0 DUP2 CALLDATALOAD SWAP1 POP PUSH2 0x180F DUP2 PUSH2 0x17EB JUMP JUMPDEST SWAP3 SWAP2 POP POP JUMP JUMPDEST PUSH0 PUSH0 PUSH1 0x40 DUP4 DUP6 SUB SLT ISZERO PUSH2 0x182B JUMPI PUSH2 0x182A PUSH2 0x178D JUMP JUMPDEST JUMPDEST PUSH0 PUSH2 0x1838 DUP6 DUP3 DUP7 ADD PUSH2 0x17D7 JUMP JUMPDEST SWAP3 POP POP PUSH1 0x20 PUSH2 0x1849 DUP6 DUP3 DUP7 ADD PUSH2 0x1801 JUMP JUMPDEST SWAP2 POP POP SWAP3 POP SWAP3 SWAP1 POP JUMP JUMPDEST PUSH0 DUP2 ISZERO ISZERO SWAP1 POP SWAP2 SWAP1 POP JUMP JUMPDEST PUSH2 0x1867 DUP2 PUSH2 0x1853 JUMP JUMPDEST DUP3 MSTORE POP POP JUMP JUMPDEST PUSH0 PUSH1 0x20 DUP3 ADD SWAP1 POP PUSH2 0x1880 PUSH0 DUP4 ADD DUP5 PUSH2 0x185E JUMP JUMPDEST SWAP3 SWAP2 POP POP JUMP JUMPDEST PUSH0 PUSH0 PUSH0 PUSH1 0x60 DUP5 DUP7 SUB SLT ISZERO PUSH2 0x189D JUMPI PUSH2 0x189C PUSH2 0x178D JUMP JUMPDEST JUMPDEST PUSH0 PUSH2 0x18AA DUP7 DUP3 DUP8 ADD PUSH2 0x17D7 JUMP JUMPDEST SWAP4 POP POP PUSH1 0x20 PUSH2 0x18BB DUP7 DUP3 DUP8 ADD PUSH2 0x17D7 JUMP JUMPDEST SWAP3 POP POP PUSH1 0x40 PUSH2 0x18CC DUP7 DUP3 DUP8 ADD PUSH2 0x1801 JUMP JUMPDEST SWAP2 POP POP SWAP3 POP SWAP3 POP SWAP3 JUMP JUMPDEST PUSH0 DUP2 SWAP1 POP SWAP2 SWAP1 POP JUMP JUMPDEST PUSH0 PUSH2 0x18F9 PUSH2 0x18F4 PUSH2 0x18EF DUP5 PUSH2 0x1791 JUMP JUMPDEST PUSH2 0x18D6 JUMP JUMPDEST PUSH2 0x1791 JUMP JUMPDEST SWAP1 POP SWAP2 SWAP1 POP JUMP JUMPDEST PUSH0 PUSH2 0x190A DUP3 PUSH2 0x18DF JUMP JUMPDEST SWAP1 POP SWAP2 SWAP1 POP JUMP JUMPDEST PUSH0 PUSH2 0x191B DUP3 PUSH2 0x1900 JUMP JUMPDEST SWAP1 POP SWAP2 SWAP1 POP JUMP JUMPDEST PUSH2 0x192B DUP2 PUSH2 0x1911 JUMP JUMPDEST DUP3 MSTORE POP POP JUMP JUMPDEST PUSH0 PUSH1 0x20 DUP3 ADD SWAP1 POP PUSH2 0x1944 PUSH0 DUP4 ADD DUP5 PUSH2 0x1922 JUMP JUMPDEST SWAP3 SWAP2 POP POP JUMP JUMPDEST PUSH0 PUSH1 0x20 DUP3 DUP5 SUB SLT ISZERO PUSH2 0x195F JUMPI PUSH2 0x195E PUSH2 0x178D JUMP JUMPDEST JUMPDEST PUSH0 PUSH2 0x196C DUP5 DUP3 DUP6 ADD PUSH2 0x1801 JUMP JUMPDEST SWAP2 POP POP SWAP3 SWAP2 POP POP JUMP JUMPDEST PUSH0 PUSH1 0xFF DUP3 AND SWAP1 POP SWAP2 SWAP1 POP JUMP JUMPDEST PUSH2 0x198A DUP2 PUSH2 0x1975 JUMP JUMPDEST DUP3 MSTORE POP POP JUMP JUMPDEST PUSH0 PUSH1 0x20 DUP3 ADD SWAP1 POP PUSH2 0x19A3 PUSH0 DUP4 ADD DUP5 PUSH2 0x1981 JUMP JUMPDEST SWAP3 SWAP2 POP POP JUMP JUMPDEST PUSH2 0x19B2 DUP2 PUSH2 0x17B0 JUMP JUMPDEST DUP3 MSTORE POP POP JUMP JUMPDEST PUSH0 PUSH1 0x20 DUP3 ADD SWAP1 POP PUSH2 0x19CB PUSH0 DUP4 ADD DUP5 PUSH2 0x19A9 JUMP JUMPDEST SWAP3 SWAP2 POP POP JUMP JUMPDEST PUSH0 PUSH1 0x20 DUP3 DUP5 SUB SLT ISZERO PUSH2 0x19E6 JUMPI PUSH2 0x19E5 PUSH2 0x178D JUMP JUMPDEST JUMPDEST PUSH0 PUSH2 0x19F3 DUP5 DUP3 DUP6 ADD PUSH2 0x17D7 JUMP JUMPDEST SWAP2 POP POP SWAP3 SWAP2 POP POP JUMP JUMPDEST PUSH0 PUSH0 PUSH1 0x40 DUP4 DUP6 SUB SLT ISZERO PUSH2 0x1A12 JUMPI PUSH2 0x1A11 PUSH2 0x178D JUMP JUMPDEST JUMPDEST PUSH0 PUSH2 0x1A1F DUP6 DUP3 DUP7 ADD PUSH2 0x1801 JUMP JUMPDEST SWAP3 POP POP PUSH1 0x20 PUSH2 0x1A30 DUP6 DUP3 DUP7 ADD PUSH2 0x1801 JUMP JUMPDEST SWAP2 POP POP SWAP3 POP SWAP3 SWAP1 POP JUMP JUMPDEST PUSH2 0x1A43 DUP2 PUSH2 0x1853 JUMP JUMPDEST DUP2 EQ PUSH2 0x1A4D JUMPI PUSH0 PUSH0 REVERT JUMPDEST POP JUMP JUMPDEST PUSH0 DUP2 CALLDATALOAD SWAP1 POP PUSH2 0x1A5E DUP2 PUSH2 0x1A3A JUMP JUMPDEST SWAP3 SWAP2 POP POP JUMP JUMPDEST PUSH0 PUSH0 PUSH1 0x40 DUP4 DUP6 SUB SLT ISZERO PUSH2 0x1A7A JUMPI PUSH2 0x1A79 PUSH2 0x178D JUMP JUMPDEST JUMPDEST PUSH0 PUSH2 0x1A87 DUP6 DUP3 DUP7 ADD PUSH2 0x17D7 JUMP JUMPDEST SWAP3 POP POP PUSH1 0x20 PUSH2 0x1A98 DUP6 DUP3 DUP7 ADD PUSH2 0x1A50 JUMP JUMPDEST SWAP2 POP POP SWAP3 POP SWAP3 SWAP1 POP JUMP JUMPDEST PUSH0 PUSH0 PUSH1 0x40 DUP4 DUP6 SUB SLT ISZERO PUSH2 0x1AB8 JUMPI PUSH2 0x1AB7 PUSH2 0x178D JUMP JUMPDEST JUMPDEST PUSH0 PUSH2 0x1AC5 DUP6 DUP3 DUP7 ADD PUSH2 0x17D7 JUMP JUMPDEST SWAP3 POP POP PUSH1 0x20 PUSH2 0x1AD6 DUP6 DUP3 DUP7 ADD PUSH2 0x17D7 JUMP JUMPDEST SWAP2 POP POP SWAP3 POP SWAP3 SWAP1 POP JUMP JUMPDEST PUSH32 0x4E487B7100000000000000000000000000000000000000000000000000000000 PUSH0 MSTORE PUSH1 0x22 PUSH1 0x4 MSTORE PUSH1 0x24 PUSH0 REVERT JUMPDEST PUSH0 PUSH1 0x2 DUP3 DIV SWAP1 POP PUSH1 0x1 DUP3 AND DUP1 PUSH2 0x1B24 JUMPI PUSH1 0x7F DUP3 AND SWAP2 POP JUMPDEST PUSH1 0x20 DUP3 LT DUP2 SUB PUSH2 0x1B37 JUMPI PUSH2 0x1B36 PUSH2 0x1AE0 JUMP JUMPDEST JUMPDEST POP SWAP2 SWAP1 POP JUMP JUMPDEST PUSH0 DUP2 SWAP1 POP SWAP2 SWAP1 POP JUMP JUMPDEST PUSH0 PUSH2 0x1B60 PUSH2 0x1B5B PUSH2 0x1B56 DUP5 PUSH2 0x1B3D JUMP JUMPDEST PUSH2 0x18D6 JUMP JUMPDEST PUSH2 0x16CC JUMP JUMPDEST SWAP1 POP SWAP2 SWAP1 POP JUMP JUMPDEST PUSH2 0x1B70 DUP2 PUSH2 0x1B46 JUMP JUMPDEST DUP3 MSTORE POP POP JUMP JUMPDEST PUSH0 PUSH1 0xC0 DUP3 ADD SWAP1 POP PUSH2 0x1B89 PUSH0 DUP4 ADD DUP10 PUSH2 0x19A9 JUMP JUMPDEST PUSH2 0x1B96 PUSH1 0x20 DUP4 ADD DUP9 PUSH2 0x16D5 JUMP JUMPDEST PUSH2 0x1BA3 PUSH1 0x40 DUP4 ADD DUP8 PUSH2 0x1B67 JUMP JUMPDEST PUSH2 0x1BB0 PUSH1 0x60 DUP4 ADD DUP7 PUSH2 0x1B67 JUMP JUMPDEST PUSH2 0x1BBD PUSH1 0x80 DUP4 ADD DUP6 PUSH2 0x19A9 JUMP JUMPDEST PUSH2 0x1BCA PUSH1 0xA0 DUP4 ADD DUP5 PUSH2 0x16D5 JUMP JUMPDEST SWAP8 SWAP7 POP POP POP POP POP POP POP JUMP JUMPDEST PUSH0 DUP2 MLOAD SWAP1 POP PUSH2 0x1BE3 DUP2 PUSH2 0x17EB JUMP JUMPDEST SWAP3 SWAP2 POP POP JUMP JUMPDEST PUSH0 PUSH0 PUSH0 PUSH1 0x60 DUP5 DUP7 SUB SLT ISZERO PUSH2 0x1C00 JUMPI PUSH2 0x1BFF PUSH2 0x178D JUMP JUMPDEST JUMPDEST PUSH0 PUSH2 0x1C0D DUP7 DUP3 DUP8 ADD PUSH2 0x1BD5 JUMP JUMPDEST SWAP4 POP POP PUSH1 0x20 PUSH2 0x1C1E DUP7 DUP3 DUP8 ADD PUSH2 0x1BD5 JUMP JUMPDEST SWAP3 POP POP PUSH1 0x40 PUSH2 0x1C2F DUP7 DUP3 DUP8 ADD PUSH2 0x1BD5 JUMP JUMPDEST SWAP2 POP POP SWAP3 POP SWAP3 POP SWAP3 JUMP JUMPDEST PUSH0 PUSH1 0x40 DUP3 ADD SWAP1 POP PUSH2 0x1C4C PUSH0 DUP4 ADD DUP6 PUSH2 0x16D5 JUMP JUMPDEST PUSH2 0x1C59 PUSH1 0x20 DUP4 ADD DUP5 PUSH2 0x16D5 JUMP JUMPDEST SWAP4 SWAP3 POP POP POP JUMP JUMPDEST PUSH32 0x4E487B7100000000000000000000000000000000000000000000000000000000 PUSH0 MSTORE PUSH1 0x11 PUSH1 0x4 MSTORE PUSH1 0x24 PUSH0 REVERT JUMPDEST PUSH0 PUSH2 0x1C97 DUP3 PUSH2 0x16CC JUMP JUMPDEST SWAP2 POP PUSH2 0x1CA2 DUP4 PUSH2 0x16CC JUMP JUMPDEST SWAP3 POP DUP3 DUP3 MUL PUSH2 0x1CB0 DUP2 PUSH2 0x16CC JUMP JUMPDEST SWAP2 POP DUP3 DUP3 DIV DUP5 EQ DUP4 ISZERO OR PUSH2 0x1CC7 JUMPI PUSH2 0x1CC6 PUSH2 0x1C60 JUMP JUMPDEST JUMPDEST POP SWAP3 SWAP2 POP POP JUMP JUMPDEST PUSH32 0x4E487B7100000000000000000000000000000000000000000000000000000000 PUSH0 MSTORE PUSH1 0x12 PUSH1 0x4 MSTORE PUSH1 0x24 PUSH0 REVERT JUMPDEST PUSH0 PUSH2 0x1D05 DUP3 PUSH2 0x16CC JUMP JUMPDEST SWAP2 POP PUSH2 0x1D10 DUP4 PUSH2 0x16CC JUMP JUMPDEST SWAP3 POP DUP3 PUSH2 0x1D20 JUMPI PUSH2 0x1D1F PUSH2 0x1CCE JUMP JUMPDEST JUMPDEST DUP3 DUP3 DIV SWAP1 POP SWAP3 SWAP2 POP POP JUMP JUMPDEST PUSH0 PUSH2 0x1D35 DUP3 PUSH2 0x16CC JUMP JUMPDEST SWAP2 POP PUSH2 0x1D40 DUP4 PUSH2 0x16CC JUMP JUMPDEST SWAP3 POP DUP3 DUP3 SUB SWAP1 POP DUP2 DUP2 GT ISZERO PUSH2 0x1D58 JUMPI PUSH2 0x1D57 PUSH2 0x1C60 JUMP JUMPDEST JUMPDEST SWAP3 SWAP2 POP POP JUMP JUMPDEST PUSH0 PUSH2 0x1D68 DUP3 PUSH2 0x16CC JUMP JUMPDEST SWAP2 POP PUSH2 0x1D73 DUP4 PUSH2 0x16CC JUMP JUMPDEST SWAP3 POP DUP3 DUP3 ADD SWAP1 POP DUP1 DUP3 GT ISZERO PUSH2 0x1D8B JUMPI PUSH2 0x1D8A PUSH2 0x1C60 JUMP JUMPDEST JUMPDEST SWAP3 SWAP2 POP POP JUMP JUMPDEST PUSH0 PUSH1 0x60 DUP3 ADD SWAP1 POP PUSH2 0x1DA4 PUSH0 DUP4 ADD DUP7 PUSH2 0x19A9 JUMP JUMPDEST PUSH2 0x1DB1 PUSH1 0x20 DUP4 ADD DUP6 PUSH2 0x16D5 JUMP JUMPDEST PUSH2 0x1DBE PUSH1 0x40 DUP4 ADD DUP5 PUSH2 0x16D5 JUMP JUMPDEST SWAP5 SWAP4 POP POP POP POP JUMP INVALID LOG2 PUSH5 0x6970667358 0x22 SLT KECCAK256 SWAP11 0xB0 PUSH8 0xF48BB8BA78F4EC9A CALLDATACOPY SSTORE 0xD5 0xD3 JUMP 0xDD 0xB4 CALL PUSH15 0xC80F68484FFB5D65FE12BBB64736F PUSH13 0x634300081C0033000000000000 "
		},
		"gasEstimates": {
			"creation": {
				"codeDepositCost": "1535200",
				"executionCost": "infinite",
				"totalCost": "infinite"
			},
			"external": {
				"DEAD_ADDRESS()": "440",
				"addLiquidity(uint256)": "infinite",
				"allowance(address,address)": "infinite",
				"approve(address,uint256)": "infinite",
				"balanceOf(address)": "2851",
				"burnShare()": "2449",
				"buyTax()": "2514",
				"decimals()": "428",
				"excludeFromTax(address,bool)": "infinite",
				"isExcludedFromTax(address)": "2877",
				"liquidityShare()": "2515",
				"name()": "infinite",
				"owner()": "2582",
				"renounceOwnership()": "infinite",
				"rewardsShare()": "2470",
				"sellTax()": "2491",
				"setTaxes(uint256,uint256)": "infinite",
				"symbol()": "infinite",
				"totalSupply()": "2544",
				"transfer(address,address,uint256)": "infinite",
				"transfer(address,uint256)": "infinite",
				"transferFrom(address,address,uint256)": "infinite",
				"transferOwnership(address)": "infinite",
				"uniswapPair()": "2597",
				"uniswaprouter()": "infinite",
				"withdraw(uint256)": "infinite"
			},
			"internal": {
				"_update(address,address,uint256)": "infinite"
			}
		},
		"methodIdentifiers": {
			"DEAD_ADDRESS()": "4e6fd6c4",
			"addLiquidity(uint256)": "51c6590a",
			"allowance(address,address)": "dd62ed3e",
			"approve(address,uint256)": "095ea7b3",
			"balanceOf(address)": "70a08231",
			"burnShare()": "05bf0a54",
			"buyTax()": "4f7041a5",
			"decimals()": "313ce567",
			"excludeFromTax(address,bool)": "c6a30647",
			"isExcludedFromTax(address)": "cb4ca631",
			"liquidityShare()": "15291cd4",
			"name()": "06fdde03",
			"owner()": "8da5cb5b",
			"renounceOwnership()": "715018a6",
			"rewardsShare()": "33727077",
			"sellTax()": "cc1776d3",
			"setTaxes(uint256,uint256)": "c647b20e",
			"symbol()": "95d89b41",
			"totalSupply()": "18160ddd",
			"transfer(address,address,uint256)": "beabacc8",
			"transfer(address,uint256)": "a9059cbb",
			"transferFrom(address,address,uint256)": "23b872dd",
			"transferOwnership(address)": "f2fde38b",
			"uniswapPair()": "c816841b",
			"uniswaprouter()": "2431ba73",
			"withdraw(uint256)": "2e1a7d4d"
		}
	},
	"abi": [
		{
			"inputs": [
				{
					"internalType": "string",
					"name": "_name",
					"type": "string"
				},
				{
					"internalType": "string",
					"name": "_symbol",
					"type": "string"
				},
				{
					"internalType": "address",
					"name": "routerAddress",
					"type": "address"
				},
				{
					"internalType": "address",
					"name": "owner",
					"type": "address"
				}
			],
			"stateMutability": "nonpayable",
			"type": "constructor"
		},
		{
			"inputs": [],
			"name": "ArithmeticError",
			"type": "error"
		},
		{
			"inputs": [
				{
					"internalType": "address",
					"name": "spender",
					"type": "address"
				},
				{
					"internalType": "uint256",
					"name": "allowance",
					"type": "uint256"
				},
				{
					"internalType": "uint256",
					"name": "needed",
					"type": "uint256"
				}
			],
			"name": "ERC20InsufficientAllowance",
			"type": "error"
		},
		{
			"inputs": [
				{
					"internalType": "address",
					"name": "sender",
					"type": "address"
				},
				{
					"internalType": "uint256",
					"name": "balance",
					"type": "uint256"
				},
				{
					"internalType": "uint256",
					"name": "needed",
					"type": "uint256"
				}
			],
			"name": "ERC20InsufficientBalance",
			"type": "error"
		},
		{
			"inputs": [
				{
					"internalType": "address",
					"name": "approver",
					"type": "address"
				}
			],
			"name": "ERC20InvalidApprover",
			"type": "error"
		},
		{
			"inputs": [
				{
					"internalType": "address",
					"name": "receiver",
					"type": "address"
				}
			],
			"name": "ERC20InvalidReceiver",
			"type": "error"
		},
		{
			"inputs": [
				{
					"internalType": "address",
					"name": "sender",
					"type": "address"
				}
			],
			"name": "ERC20InvalidSender",
			"type": "error"
		},
		{
			"inputs": [
				{
					"internalType": "address",
					"name": "spender",
					"type": "address"
				}
			],
			"name": "ERC20InvalidSpender",
			"type": "error"
		},
		{
			"inputs": [],
			"name": "InsufficientFunds",
			"type": "error"
		},
		{
			"inputs": [
				{
					"internalType": "address",
					"name": "owner",
					"type": "address"
				}
			],
			"name": "OwnableInvalidOwner",
			"type": "error"
		},
		{
			"inputs": [
				{
					"internalType": "address",
					"name": "account",
					"type": "address"
				}
			],
			"name": "OwnableUnauthorizedAccount",
			"type": "error"
		},
		{
			"inputs": [],
			"name": "TaxTooHigh",
			"type": "error"
		},
		{
			"inputs": [],
			"name": "TokenAmountMustBePositive",
			"type": "error"
		},
		{
			"inputs": [],
			"name": "TransferFromZero",
			"type": "error"
		},
		{
			"inputs": [],
			"name": "TransferToZero",
			"type": "error"
		},
		{
			"anonymous": false,
			"inputs": [
				{
					"indexed": true,
					"internalType": "address",
					"name": "owner",
					"type": "address"
				},
				{
					"indexed": true,
					"internalType": "address",
					"name": "spender",
					"type": "address"
				},
				{
					"indexed": false,
					"internalType": "uint256",
					"name": "value",
					"type": "uint256"
				}
			],
			"name": "Approval",
			"type": "event"
		},
		{
			"anonymous": false,
			"inputs": [
				{
					"indexed": false,
					"internalType": "uint256",
					"name": "tokens",
					"type": "uint256"
				},
				{
					"indexed": false,
					"internalType": "uint256",
					"name": "eth",
					"type": "uint256"
				}
			],
			"name": "LiquidityAdded",
			"type": "event"
		},
		{
			"anonymous": false,
			"inputs": [
				{
					"indexed": true,
					"internalType": "address",
					"name": "previousOwner",
					"type": "address"
				},
				{
					"indexed": true,
					"internalType": "address",
					"name": "newOwner",
					"type": "address"
				}
			],
			"name": "OwnershipTransferred",
			"type": "event"
		},
		{
			"anonymous": false,
			"inputs": [
				{
					"indexed": false,
					"internalType": "uint256",
					"name": "amount",
					"type": "uint256"
				}
			],
			"name": "TaxCollected",
			"type": "event"
		},
		{
			"anonymous": false,
			"inputs": [
				{
					"indexed": true,
					"internalType": "address",
					"name": "to",
					"type": "address"
				},
				{
					"indexed": false,
					"internalType": "uint256",
					"name": "amount",
					"type": "uint256"
				}
			],
			"name": "TokensMinted",
			"type": "event"
		},
		{
			"anonymous": false,
			"inputs": [
				{
					"indexed": true,
					"internalType": "address",
					"name": "from",
					"type": "address"
				},
				{
					"indexed": true,
					"internalType": "address",
					"name": "to",
					"type": "address"
				},
				{
					"indexed": false,
					"internalType": "uint256",
					"name": "value",
					"type": "uint256"
				}
			],
			"name": "Transfer",
			"type": "event"
		},
		{
			"inputs": [],
			"name": "DEAD_ADDRESS",
			"outputs": [
				{
					"internalType": "address",
					"name": "",
					"type": "address"
				}
			],
			"stateMutability": "view",
			"type": "function"
		},
		{
			"inputs": [
				{
					"internalType": "uint256",
					"name": "tokenAmount",
					"type": "uint256"
				}
			],
			"name": "addLiquidity",
			"outputs": [],
			"stateMutability": "nonpayable",
			"type": "function"
		},
		{
			"inputs": [
				{
					"internalType": "address",
					"name": "owner",
					"type": "address"
				},
				{
					"internalType": "address",
					"name": "spender",
					"type": "address"
				}
			],
			"name": "allowance",
			"outputs": [
				{
					"internalType": "uint256",
					"name": "",
					"type": "uint256"
				}
			],
			"stateMutability": "view",
			"type": "function"
		},
		{
			"inputs": [
				{
					"internalType": "address",
					"name": "spender",
					"type": "address"
				},
				{
					"internalType": "uint256",
					"name": "value",
					"type": "uint256"
				}
			],
			"name": "approve",
			"outputs": [
				{
					"internalType": "bool",
					"name": "",
					"type": "bool"
				}
			],
			"stateMutability": "nonpayable",
			"type": "function"
		},
		{
			"inputs": [
				{
					"internalType": "address",
					"name": "account",
					"type": "address"
				}
			],
			"name": "balanceOf",
			"outputs": [
				{
					"internalType": "uint256",
					"name": "",
					"type": "uint256"
				}
			],
			"stateMutability": "view",
			"type": "function"
		},
		{
			"inputs": [],
			"name": "burnShare",
			"outputs": [
				{
					"internalType": "uint256",
					"name": "",
					"type": "uint256"
				}
			],
			"stateMutability": "view",
			"type": "function"
		},
		{
			"inputs": [],
			"name": "buyTax",
			"outputs": [
				{
					"internalType": "uint256",
					"name": "",
					"type": "uint256"
				}
			],
			"stateMutability": "view",
			"type": "function"
		},
		{
			"inputs": [],
			"name": "decimals",
			"outputs": [
				{
					"internalType": "uint8",
					"name": "",
					"type": "uint8"
				}
			],
			"stateMutability": "view",
			"type": "function"
		},
		{
			"inputs": [
				{
					"internalType": "address",
					"name": "account",
					"type": "address"
				},
				{
					"internalType": "bool",
					"name": "excluded",
					"type": "bool"
				}
			],
			"name": "excludeFromTax",
			"outputs": [],
			"stateMutability": "nonpayable",
			"type": "function"
		},
		{
			"inputs": [
				{
					"internalType": "address",
					"name": "",
					"type": "address"
				}
			],
			"name": "isExcludedFromTax",
			"outputs": [
				{
					"internalType": "bool",
					"name": "",
					"type": "bool"
				}
			],
			"stateMutability": "view",
			"type": "function"
		},
		{
			"inputs": [],
			"name": "liquidityShare",
			"outputs": [
				{
					"internalType": "uint256",
					"name": "",
					"type": "uint256"
				}
			],
			"stateMutability": "view",
			"type": "function"
		},
		{
			"inputs": [],
			"name": "name",
			"outputs": [
				{
					"internalType": "string",
					"name": "",
					"type": "string"
				}
			],
			"stateMutability": "view",
			"type": "function"
		},
		{
			"inputs": [],
			"name": "owner",
			"outputs": [
				{
					"internalType": "address",
					"name": "",
					"type": "address"
				}
			],
			"stateMutability": "view",
			"type": "function"
		},
		{
			"inputs": [],
			"name": "renounceOwnership",
			"outputs": [],
			"stateMutability": "nonpayable",
			"type": "function"
		},
		{
			"inputs": [],
			"name": "rewardsShare",
			"outputs": [
				{
					"internalType": "uint256",
					"name": "",
					"type": "uint256"
				}
			],
			"stateMutability": "view",
			"type": "function"
		},
		{
			"inputs": [],
			"name": "sellTax",
			"outputs": [
				{
					"internalType": "uint256",
					"name": "",
					"type": "uint256"
				}
			],
			"stateMutability": "view",
			"type": "function"
		},
		{
			"inputs": [
				{
					"internalType": "uint256",
					"name": "_buyTax",
					"type": "uint256"
				},
				{
					"internalType": "uint256",
					"name": "_sellTax",
					"type": "uint256"
				}
			],
			"name": "setTaxes",
			"outputs": [],
			"stateMutability": "nonpayable",
			"type": "function"
		},
		{
			"inputs": [],
			"name": "symbol",
			"outputs": [
				{
					"internalType": "string",
					"name": "",
					"type": "string"
				}
			],
			"stateMutability": "view",
			"type": "function"
		},
		{
			"inputs": [],
			"name": "totalSupply",
			"outputs": [
				{
					"internalType": "uint256",
					"name": "",
					"type": "uint256"
				}
			],
			"stateMutability": "view",
			"type": "function"
		},
		{
			"inputs": [
				{
					"internalType": "address",
					"name": "to",
					"type": "address"
				},
				{
					"internalType": "uint256",
					"name": "value",
					"type": "uint256"
				}
			],
			"name": "transfer",
			"outputs": [
				{
					"internalType": "bool",
					"name": "",
					"type": "bool"
				}
			],
			"stateMutability": "nonpayable",
			"type": "function"
		},
		{
			"inputs": [
				{
					"internalType": "address",
					"name": "sender",
					"type": "address"
				},
				{
					"internalType": "address",
					"name": "recipient",
					"type": "address"
				},
				{
					"internalType": "uint256",
					"name": "amount",
					"type": "uint256"
				}
			],
			"name": "transfer",
			"outputs": [],
			"stateMutability": "nonpayable",
			"type": "function"
		},
		{
			"inputs": [
				{
					"internalType": "address",
					"name": "from",
					"type": "address"
				},
				{
					"internalType": "address",
					"name": "to",
					"type": "address"
				},
				{
					"internalType": "uint256",
					"name": "value",
					"type": "uint256"
				}
			],
			"name": "transferFrom",
			"outputs": [
				{
					"internalType": "bool",
					"name": "",
					"type": "bool"
				}
			],
			"stateMutability": "nonpayable",
			"type": "function"
		},
		{
			"inputs": [
				{
					"internalType": "address",
					"name": "newOwner",
					"type": "address"
				}
			],
			"name": "transferOwnership",
			"outputs": [],
			"stateMutability": "nonpayable",
			"type": "function"
		},
		{
			"inputs": [],
			"name": "uniswapPair",
			"outputs": [
				{
					"internalType": "address",
					"name": "",
					"type": "address"
				}
			],
			"stateMutability": "view",
			"type": "function"
		},
		{
			"inputs": [],
			"name": "uniswaprouter",
			"outputs": [
				{
					"internalType": "contract IUniswapV2Router02",
					"name": "",
					"type": "address"
				}
			],
			"stateMutability": "view",
			"type": "function"
		},
		{
			"inputs": [
				{
					"internalType": "uint256",
					"name": "amount",
					"type": "uint256"
				}
			],
			"name": "withdraw",
			"outputs": [],
			"stateMutability": "nonpayable",
			"type": "function"
		}
	]
}