{
	"contracts/mem.sol": {
		"MemCoin": {
			"abi": [
				{
					"inputs": [
						{
							"internalType": "string",
							"name": "_name",
							"type": "string"
						},
						{
							"internalType": "string",
							"name": "_symbol",
							"type": "string"
						},
						{
							"internalType": "address",
							"name": "routerAddress",
							"type": "address"
						},
						{
							"internalType": "address",
							"name": "owner",
							"type": "address"
						}
					],
					"stateMutability": "nonpayable",
					"type": "constructor"
				},
				{
					"inputs": [],
					"name": "ArithmeticError",
					"type": "error"
				},
				{
					"inputs": [
						{
							"internalType": "address",
							"name": "spender",
							"type": "address"
						},
						{
							"internalType": "uint256",
							"name": "allowance",
							"type": "uint256"
						},
						{
							"internalType": "uint256",
							"name": "needed",
							"type": "uint256"
						}
					],
					"name": "ERC20InsufficientAllowance",
					"type": "error"
				},
				{
					"inputs": [
						{
							"internalType": "address",
							"name": "sender",
							"type": "address"
						},
						{
							"internalType": "uint256",
							"name": "balance",
							"type": "uint256"
						},
						{
							"internalType": "uint256",
							"name": "needed",
							"type": "uint256"
						}
					],
					"name": "ERC20InsufficientBalance",
					"type": "error"
				},
				{
					"inputs": [
						{
							"internalType": "address",
							"name": "approver",
							"type": "address"
						}
					],
					"name": "ERC20InvalidApprover",
					"type": "error"
				},
				{
					"inputs": [
						{
							"internalType": "address",
							"name": "receiver",
							"type": "address"
						}
					],
					"name": "ERC20InvalidReceiver",
					"type": "error"
				},
				{
					"inputs": [
						{
							"internalType": "address",
							"name": "sender",
							"type": "address"
						}
					],
					"name": "ERC20InvalidSender",
					"type": "error"
				},
				{
					"inputs": [
						{
							"internalType": "address",
							"name": "spender",
							"type": "address"
						}
					],
					"name": "ERC20InvalidSpender",
					"type": "error"
				},
				{
					"inputs": [],
					"name": "InsufficientFunds",
					"type": "error"
				},
				{
					"inputs": [
						{
							"internalType": "address",
							"name": "owner",
							"type": "address"
						}
					],
					"name": "OwnableInvalidOwner",
					"type": "error"
				},
				{
					"inputs": [
						{
							"internalType": "address",
							"name": "account",
							"type": "address"
						}
					],
					"name": "OwnableUnauthorizedAccount",
					"type": "error"
				},
				{
					"inputs": [],
					"name": "TaxTooHigh",
					"type": "error"
				},
				{
					"inputs": [],
					"name": "TokenAmountMustBePositive",
					"type": "error"
				},
				{
					"inputs": [],
					"name": "TransferFromZero",
					"type": "error"
				},
				{
					"inputs": [],
					"name": "TransferToZero",
					"type": "error"
				},
				{
					"anonymous": false,
					"inputs": [
						{
							"indexed": true,
							"internalType": "address",
							"name": "owner",
							"type": "address"
						},
						{
							"indexed": true,
							"internalType": "address",
							"name": "spender",
							"type": "address"
						},
						{
							"indexed": false,
							"internalType": "uint256",
							"name": "value",
							"type": "uint256"
						}
					],
					"name": "Approval",
					"type": "event"
				},
				{
					"anonymous": false,
					"inputs": [
						{
							"indexed": false,
							"internalType": "uint256",
							"name": "tokens",
							"type": "uint256"
						},
						{
							"indexed": false,
							"internalType": "uint256",
							"name": "eth",
							"type": "uint256"
						}
					],
					"name": "LiquidityAdded",
					"type": "event"
				},
				{
					"anonymous": false,
					"inputs": [
						{
							"indexed": true,
							"internalType": "address",
							"name": "previousOwner",
							"type": "address"
						},
						{
							"indexed": true,
							"internalType": "address",
							"name": "newOwner",
							"type": "address"
						}
					],
					"name": "OwnershipTransferred",
					"type": "event"
				},
				{
					"anonymous": false,
					"inputs": [
						{
							"indexed": false,
							"internalType": "uint256",
							"name": "amount",
							"type": "uint256"
						}
					],
					"name": "TaxCollected",
					"type": "event"
				},
				{
					"anonymous": false,
					"inputs": [
						{
							"indexed": true,
							"internalType": "address",
							"name": "to",
							"type": "address"
						},
						{
							"indexed": false,
							"internalType": "uint256",
							"name": "amount",
							"type": "uint256"
						}
					],
					"name": "TokensMinted",
					"type": "event"
				},
				{
					"anonymous": false,
					"inputs": [
						{
							"indexed": true,
							"internalType": "address",
							"name": "from",
							"type": "address"
						},
						{
							"indexed": true,
							"internalType": "address",
							"name": "to",
							"type": "address"
						},
						{
							"indexed": false,
							"internalType": "uint256",
							"name": "value",
							"type": "uint256"
						}
					],
					"name": "Transfer",
					"type": "event"
				},
				{
					"inputs": [],
					"name": "DEAD_ADDRESS",
					"outputs": [
						{
							"internalType": "address",
							"name": "",
							"type": "address"
						}
					],
					"stateMutability": "view",
					"type": "function"
				},
				{
					"inputs": [
						{
							"internalType": "uint256",
							"name": "tokenAmount",
							"type": "uint256"
						}
					],
					"name": "addLiquidity",
					"outputs": [],
					"stateMutability": "nonpayable",
					"type": "function"
				},
				{
					"inputs": [
						{
							"internalType": "address",
							"name": "owner",
							"type": "address"
						},
						{
							"internalType": "address",
							"name": "spender",
							"type": "address"
						}
					],
					"name": "allowance",
					"outputs": [
						{
							"internalType": "uint256",
							"name": "",
							"type": "uint256"
						}
					],
					"stateMutability": "view",
					"type": "function"
				},
				{
					"inputs": [
						{
							"internalType": "address",
							"name": "spender",
							"type": "address"
						},
						{
							"internalType": "uint256",
							"name": "value",
							"type": "uint256"
						}
					],
					"name": "approve",
					"outputs": [
						{
							"internalType": "bool",
							"name": "",
							"type": "bool"
						}
					],
					"stateMutability": "nonpayable",
					"type": "function"
				},
				{
					"inputs": [
						{
							"internalType": "address",
							"name": "account",
							"type": "address"
						}
					],
					"name": "balanceOf",
					"outputs": [
						{
							"internalType": "uint256",
							"name": "",
							"type": "uint256"
						}
					],
					"stateMutability": "view",
					"type": "function"
				},
				{
					"inputs": [],
					"name": "burnShare",
					"outputs": [
						{
							"internalType": "uint256",
							"name": "",
							"type": "uint256"
						}
					],
					"stateMutability": "view",
					"type": "function"
				},
				{
					"inputs": [],
					"name": "buyTax",
					"outputs": [
						{
							"internalType": "uint256",
							"name": "",
							"type": "uint256"
						}
					],
					"stateMutability": "view",
					"type": "function"
				},
				{
					"inputs": [],
					"name": "decimals",
					"outputs": [
						{
							"internalType": "uint8",
							"name": "",
							"type": "uint8"
						}
					],
					"stateMutability": "view",
					"type": "function"
				},
				{
					"inputs": [
						{
							"internalType": "address",
							"name": "account",
							"type": "address"
						},
						{
							"internalType": "bool",
							"name": "excluded",
							"type": "bool"
						}
					],
					"name": "excludeFromTax",
					"outputs": [],
					"stateMutability": "nonpayable",
					"type": "function"
				},
				{
					"inputs": [
						{
							"internalType": "address",
							"name": "",
							"type": "address"
						}
					],
					"name": "isExcludedFromTax",
					"outputs": [
						{
							"internalType": "bool",
							"name": "",
							"type": "bool"
						}
					],
					"stateMutability": "view",
					"type": "function"
				},
				{
					"inputs": [],
					"name": "liquidityShare",
					"outputs": [
						{
							"internalType": "uint256",
							"name": "",
							"type": "uint256"
						}
					],
					"stateMutability": "view",
					"type": "function"
				},
				{
					"inputs": [],
					"name": "name",
					"outputs": [
						{
							"internalType": "string",
							"name": "",
							"type": "string"
						}
					],
					"stateMutability": "view",
					"type": "function"
				},
				{
					"inputs": [],
					"name": "owner",
					"outputs": [
						{
							"internalType": "address",
							"name": "",
							"type": "address"
						}
					],
					"stateMutability": "view",
					"type": "function"
				},
				{
					"inputs": [],
					"name": "renounceOwnership",
					"outputs": [],
					"stateMutability": "nonpayable",
					"type": "function"
				},
				{
					"inputs": [],
					"name": "rewardsShare",
					"outputs": [
						{
							"internalType": "uint256",
							"name": "",
							"type": "uint256"
						}
					],
					"stateMutability": "view",
					"type": "function"
				},
				{
					"inputs": [],
					"name": "sellTax",
					"outputs": [
						{
							"internalType": "uint256",
							"name": "",
							"type": "uint256"
						}
					],
					"stateMutability": "view",
					"type": "function"
				},
				{
					"inputs": [
						{
							"internalType": "uint256",
							"name": "_buyTax",
							"type": "uint256"
						},
						{
							"internalType": "uint256",
							"name": "_sellTax",
							"type": "uint256"
						}
					],
					"name": "setTaxes",
					"outputs": [],
					"stateMutability": "nonpayable",
					"type": "function"
				},
				{
					"inputs": [],
					"name": "symbol",
					"outputs": [
						{
							"internalType": "string",
							"name": "",
							"type": "string"
						}
					],
					"stateMutability": "view",
					"type": "function"
				},
				{
					"inputs": [],
					"name": "totalSupply",
					"outputs": [
						{
							"internalType": "uint256",
							"name": "",
							"type": "uint256"
						}
					],
					"stateMutability": "view",
					"type": "function"
				},
				{
					"inputs": [
						{
							"internalType": "address",
							"name": "to",
							"type": "address"
						},
						{
							"internalType": "uint256",
							"name": "value",
							"type": "uint256"
						}
					],
					"name": "transfer",
					"outputs": [
						{
							"internalType": "bool",
							"name": "",
							"type": "bool"
						}
					],
					"stateMutability": "nonpayable",
					"type": "function"
				},
				{
					"inputs": [
						{
							"internalType": "address",
							"name": "sender",
							"type": "address"
						},
						{
							"internalType": "address",
							"name": "recipient",
							"type": "address"
						},
						{
							"internalType": "uint256",
							"name": "amount",
							"type": "uint256"
						}
					],
					"name": "transfer",
					"outputs": [],
					"stateMutability": "nonpayable",
					"type": "function"
				},
				{
					"inputs": [
						{
							"internalType": "address",
							"name": "from",
							"type": "address"
						},
						{
							"internalType": "address",
							"name": "to",
							"type": "address"
						},
						{
							"internalType": "uint256",
							"name": "value",
							"type": "uint256"
						}
					],
					"name": "transferFrom",
					"outputs": [
						{
							"internalType": "bool",
							"name": "",
							"type": "bool"
						}
					],
					"stateMutability": "nonpayable",
					"type": "function"
				},
				{
					"inputs": [
						{
							"internalType": "address",
							"name": "newOwner",
							"type": "address"
						}
					],
					"name": "transferOwnership",
					"outputs": [],
					"stateMutability": "nonpayable",
					"type": "function"
				},
				{
					"inputs": [],
					"name": "uniswapPair",
					"outputs": [
						{
							"internalType": "address",
							"name": "",
							"type": "address"
						}
					],
					"stateMutability": "view",
					"type": "function"
				},
				{
					"inputs": [],
					"name": "uniswaprouter",
					"outputs": [
						{
							"internalType": "contract IUniswapV2Router02",
							"name": "",
							"type": "address"
						}
					],
					"stateMutability": "view",
					"type": "function"
				},
				{
					"inputs": [
						{
							"internalType": "uint256",
							"name": "amount",
							"type": "uint256"
						}
					],
					"name": "withdraw",
					"outputs": [],
					"stateMutability": "nonpayable",
					"type": "function"
				}
			],
			"devdoc": {
				"errors": {
					"ERC20InsufficientAllowance(address,uint256,uint256)": [
						{
							"details": "Indicates a failure with the `spender`’s `allowance`. Used in transfers.",
							"params": {
								"allowance": "Amount of tokens a `spender` is allowed to operate with.",
								"needed": "Minimum amount required to perform a transfer.",
								"spender": "Address that may be allowed to operate on tokens without being their owner."
							}
						}
					],
					"ERC20InsufficientBalance(address,uint256,uint256)": [
						{
							"details": "Indicates an error related to the current `balance` of a `sender`. Used in transfers.",
							"params": {
								"balance": "Current balance for the interacting account.",
								"needed": "Minimum amount required to perform a transfer.",
								"sender": "Address whose tokens are being transferred."
							}
						}
					],
					"ERC20InvalidApprover(address)": [
						{
							"details": "Indicates a failure with the `approver` of a token to be approved. Used in approvals.",
							"params": {
								"approver": "Address initiating an approval operation."
							}
						}
					],
					"ERC20InvalidReceiver(address)": [
						{
							"details": "Indicates a failure with the token `receiver`. Used in transfers.",
							"params": {
								"receiver": "Address to which tokens are being transferred."
							}
						}
					],
					"ERC20InvalidSender(address)": [
						{
							"details": "Indicates a failure with the token `sender`. Used in transfers.",
							"params": {
								"sender": "Address whose tokens are being transferred."
							}
						}
					],
					"ERC20InvalidSpender(address)": [
						{
							"details": "Indicates a failure with the `spender` to be approved. Used in approvals.",
							"params": {
								"spender": "Address that may be allowed to operate on tokens without being their owner."
							}
						}
					],
					"OwnableInvalidOwner(address)": [
						{
							"details": "The owner is not a valid owner account. (eg. `address(0)`)"
						}
					],
					"OwnableUnauthorizedAccount(address)": [
						{
							"details": "The caller account is not authorized to perform an operation."
						}
					]
				},
				"events": {
					"Approval(address,address,uint256)": {
						"details": "Emitted when the allowance of a `spender` for an `owner` is set by a call to {approve}. `value` is the new allowance."
					},
					"Transfer(address,address,uint256)": {
						"details": "Emitted when `value` tokens are moved from one account (`from`) to another (`to`). Note that `value` may be zero."
					}
				},
				"kind": "dev",
				"methods": {
					"allowance(address,address)": {
						"details": "See {IERC20-allowance}."
					},
					"approve(address,uint256)": {
						"details": "See {IERC20-approve}. NOTE: If `value` is the maximum `uint256`, the allowance is not updated on `transferFrom`. This is semantically equivalent to an infinite approval. Requirements: - `spender` cannot be the zero address."
					},
					"balanceOf(address)": {
						"details": "See {IERC20-balanceOf}."
					},
					"decimals()": {
						"details": "Returns the number of decimals used to get its user representation. For example, if `decimals` equals `2`, a balance of `505` tokens should be displayed to a user as `5.05` (`505 / 10 ** 2`). Tokens usually opt for a value of 18, imitating the relationship between Ether and Wei. This is the default value returned by this function, unless it's overridden. NOTE: This information is only used for _display_ purposes: it in no way affects any of the arithmetic of the contract, including {IERC20-balanceOf} and {IERC20-transfer}."
					},
					"name()": {
						"details": "Returns the name of the token."
					},
					"owner()": {
						"details": "Returns the address of the current owner."
					},
					"renounceOwnership()": {
						"details": "Leaves the contract without owner. It will not be possible to call `onlyOwner` functions. Can only be called by the current owner. NOTE: Renouncing ownership will leave the contract without an owner, thereby disabling any functionality that is only available to the owner."
					},
					"symbol()": {
						"details": "Returns the symbol of the token, usually a shorter version of the name."
					},
					"totalSupply()": {
						"details": "See {IERC20-totalSupply}."
					},
					"transfer(address,uint256)": {
						"details": "See {IERC20-transfer}. Requirements: - `to` cannot be the zero address. - the caller must have a balance of at least `value`."
					},
					"transferFrom(address,address,uint256)": {
						"details": "See {IERC20-transferFrom}. Skips emitting an {Approval} event indicating an allowance update. This is not required by the ERC. See {xref-ERC20-_approve-address-address-uint256-bool-}[_approve]. NOTE: Does not update the allowance if the current allowance is the maximum `uint256`. Requirements: - `from` and `to` cannot be the zero address. - `from` must have a balance of at least `value`. - the caller must have allowance for ``from``'s tokens of at least `value`."
					},
					"transferOwnership(address)": {
						"details": "Transfers ownership of the contract to a new account (`newOwner`). Can only be called by the current owner."
					}
				},
				"version": 1
			},
			"evm": {
				"assembly": "    /* \"contracts/mem.sol\":348:4356  contract MemCoin is ERC20, Ownable {... */\n  mstore(0x40, 0x80)\n    /* \"contracts/mem.sol\":603:604  5 */\n  0x05\n    /* \"contracts/mem.sol\":579:604  uint256 public buyTax = 5 */\n  0x06\n  sstore\n    /* \"contracts/mem.sol\":636:638  10 */\n  0x0a\n    /* \"contracts/mem.sol\":611:638  uint256 public sellTax = 10 */\n  0x07\n  sstore\n    /* \"contracts/mem.sol\":677:679  50 */\n  0x32\n    /* \"contracts/mem.sol\":645:679  uint256 public liquidityShare = 50 */\n  0x08\n  sstore\n    /* \"contracts/mem.sol\":713:715  20 */\n  0x14\n    /* \"contracts/mem.sol\":686:715  uint256 public burnShare = 20 */\n  0x09\n  sstore\n    /* \"contracts/mem.sol\":752:754  30 */\n  0x1e\n    /* \"contracts/mem.sol\":722:754  uint256 public rewardsShare = 30 */\n  0x0a\n  sstore\n    /* \"contracts/mem.sol\":1150:1603  constructor(... */\n  callvalue\n  dup1\n  iszero\n  tag_1\n  jumpi\n  revert(0x00, 0x00)\ntag_1:\n  pop\n  mload(0x40)\n  sub(codesize, bytecodeSize)\n  dup1\n  bytecodeSize\n  dup4\n  codecopy\n  dup2\n  dup2\n  add\n  0x40\n  mstore\n  dup2\n  add\n  swap1\n  tag_2\n  swap2\n  swap1\n  tag_3\n  jump\t// in\ntag_2:\n    /* \"contracts/mem.sol\":1319:1324  owner */\n  dup1\n    /* \"contracts/mem.sol\":1295:1300  _name */\n  dup5\n    /* \"contracts/mem.sol\":1302:1309  _symbol */\n  dup5\n    /* \"@openzeppelin/contracts/token/ERC20/ERC20.sol\":1675:1680  name_ */\n  dup2\n    /* \"@openzeppelin/contracts/token/ERC20/ERC20.sol\":1667:1672  _name */\n  0x03\n    /* \"@openzeppelin/contracts/token/ERC20/ERC20.sol\":1667:1680  _name = name_ */\n  swap1\n  dup2\n  tag_8\n  swap2\n  swap1\n  tag_9\n  jump\t// in\ntag_8:\n  pop\n    /* \"@openzeppelin/contracts/token/ERC20/ERC20.sol\":1700:1707  symbol_ */\n  dup1\n    /* \"@openzeppelin/contracts/token/ERC20/ERC20.sol\":1690:1697  _symbol */\n  0x04\n    /* \"@openzeppelin/contracts/token/ERC20/ERC20.sol\":1690:1707  _symbol = symbol_ */\n  swap1\n  dup2\n  tag_10\n  swap2\n  swap1\n  tag_9\n  jump\t// in\ntag_10:\n  pop\n    /* \"@openzeppelin/contracts/token/ERC20/ERC20.sol\":1601:1714  constructor(string memory name_, string memory symbol_) {... */\n  pop\n  pop\n    /* \"@openzeppelin/contracts/access/Ownable.sol\":1297:1298  0 */\n  0x00\n    /* \"@openzeppelin/contracts/access/Ownable.sol\":1273:1299  initialOwner == address(0) */\n  0xffffffffffffffffffffffffffffffffffffffff\n  and\n    /* \"@openzeppelin/contracts/access/Ownable.sol\":1273:1285  initialOwner */\n  dup2\n    /* \"@openzeppelin/contracts/access/Ownable.sol\":1273:1299  initialOwner == address(0) */\n  0xffffffffffffffffffffffffffffffffffffffff\n  and\n  sub\n    /* \"@openzeppelin/contracts/access/Ownable.sol\":1269:1364  if (initialOwner == address(0)) {... */\n  tag_12\n  jumpi\n    /* \"@openzeppelin/contracts/access/Ownable.sol\":1350:1351  0 */\n  0x00\n    /* \"@openzeppelin/contracts/access/Ownable.sol\":1322:1353  OwnableInvalidOwner(address(0)) */\n  mload(0x40)\n  0x1e4fbdf700000000000000000000000000000000000000000000000000000000\n  dup2\n  mstore\n  0x04\n  add\n  tag_13\n  swap2\n  swap1\n  tag_14\n  jump\t// in\ntag_13:\n  mload(0x40)\n  dup1\n  swap2\n  sub\n  swap1\n  revert\n    /* \"@openzeppelin/contracts/access/Ownable.sol\":1269:1364  if (initialOwner == address(0)) {... */\ntag_12:\n    /* \"@openzeppelin/contracts/access/Ownable.sol\":1373:1405  _transferOwnership(initialOwner) */\n  tag_15\n    /* \"@openzeppelin/contracts/access/Ownable.sol\":1392:1404  initialOwner */\n  dup2\n    /* \"@openzeppelin/contracts/access/Ownable.sol\":1373:1391  _transferOwnership */\n  shl(0x20, tag_16)\n    /* \"@openzeppelin/contracts/access/Ownable.sol\":1373:1405  _transferOwnership(initialOwner) */\n  0x20\n  shr\n  jump\t// in\ntag_15:\n    /* \"@openzeppelin/contracts/access/Ownable.sol\":1225:1412  constructor(address initialOwner) {... */\n  pop\n    /* \"contracts/mem.sol\":1372:1385  routerAddress */\n  dup2\n    /* \"contracts/mem.sol\":1337:1350  uniswaprouter */\n  0x0b\n  0x00\n    /* \"contracts/mem.sol\":1337:1386  uniswaprouter = IUniswapV2Router02(routerAddress) */\n  0x0100\n  exp\n  dup2\n  sload\n  dup2\n  0xffffffffffffffffffffffffffffffffffffffff\n  mul\n  not\n  and\n  swap1\n  dup4\n  0xffffffffffffffffffffffffffffffffffffffff\n  and\n  mul\n  or\n  swap1\n  sstore\n  pop\n    /* \"contracts/mem.sol\":1429:1442  uniswaprouter */\n  0x0b\n  0x00\n  swap1\n  sload\n  swap1\n  0x0100\n  exp\n  swap1\n  div\n  0xffffffffffffffffffffffffffffffffffffffff\n  and\n    /* \"contracts/mem.sol\":1429:1450  uniswaprouter.factory */\n  0xffffffffffffffffffffffffffffffffffffffff\n  and\n  0xc45a0155\n    /* \"contracts/mem.sol\":1429:1452  uniswaprouter.factory() */\n  mload(0x40)\n  dup2\n  0xffffffff\n  and\n  0xe0\n  shl\n  dup2\n  mstore\n  0x04\n  add\n  0x20\n  mload(0x40)\n  dup1\n  dup4\n  sub\n  dup2\n  dup7\n  gas\n  staticcall\n  iszero\n  dup1\n  iszero\n  tag_19\n  jumpi\n  returndatacopy(0x00, 0x00, returndatasize)\n  revert(0x00, returndatasize)\ntag_19:\n  pop\n  pop\n  pop\n  pop\n  mload(0x40)\n  returndatasize\n  not(0x1f)\n  0x1f\n  dup3\n  add\n  and\n  dup3\n  add\n  dup1\n  0x40\n  mstore\n  pop\n  dup2\n  add\n  swap1\n  tag_20\n  swap2\n  swap1\n  tag_21\n  jump\t// in\ntag_20:\n    /* \"contracts/mem.sol\":1411:1464  IUniswapV2Factory(uniswaprouter.factory()).createPair */\n  0xffffffffffffffffffffffffffffffffffffffff\n  and\n  0xc9c65396\n    /* \"contracts/mem.sol\":1473:1477  this */\n  address\n    /* \"contracts/mem.sol\":1480:1493  uniswaprouter */\n  0x0b\n  0x00\n  swap1\n  sload\n  swap1\n  0x0100\n  exp\n  swap1\n  div\n  0xffffffffffffffffffffffffffffffffffffffff\n  and\n    /* \"contracts/mem.sol\":1480:1498  uniswaprouter.WETH */\n  0xffffffffffffffffffffffffffffffffffffffff\n  and\n  0xad5c4648\n    /* \"contracts/mem.sol\":1480:1500  uniswaprouter.WETH() */\n  mload(0x40)\n  dup2\n  0xffffffff\n  and\n  0xe0\n  shl\n  dup2\n  mstore\n  0x04\n  add\n  0x20\n  mload(0x40)\n  dup1\n  dup4\n  sub\n  dup2\n  dup7\n  gas\n  staticcall\n  iszero\n  dup1\n  iszero\n  tag_23\n  jumpi\n  returndatacopy(0x00, 0x00, returndatasize)\n  revert(0x00, returndatasize)\ntag_23:\n  pop\n  pop\n  pop\n  pop\n  mload(0x40)\n  returndatasize\n  not(0x1f)\n  0x1f\n  dup3\n  add\n  and\n  dup3\n  add\n  dup1\n  0x40\n  mstore\n  pop\n  dup2\n  add\n  swap1\n  tag_24\n  swap2\n  swap1\n  tag_21\n  jump\t// in\ntag_24:\n    /* \"contracts/mem.sol\":1411:1501  IUniswapV2Factory(uniswaprouter.factory()).createPair(address(this), uniswaprouter.WETH()) */\n  mload(0x40)\n  dup4\n  0xffffffff\n  and\n  0xe0\n  shl\n  dup2\n  mstore\n  0x04\n  add\n  tag_25\n  swap3\n  swap2\n  swap1\n  tag_26\n  jump\t// in\ntag_25:\n  0x20\n  mload(0x40)\n  dup1\n  dup4\n  sub\n  dup2\n  0x00\n  dup8\n  gas\n  call\n  iszero\n  dup1\n  iszero\n  tag_28\n  jumpi\n  returndatacopy(0x00, 0x00, returndatasize)\n  revert(0x00, returndatasize)\ntag_28:\n  pop\n  pop\n  pop\n  pop\n  mload(0x40)\n  returndatasize\n  not(0x1f)\n  0x1f\n  dup3\n  add\n  and\n  dup3\n  add\n  dup1\n  0x40\n  mstore\n  pop\n  dup2\n  add\n  swap1\n  tag_29\n  swap2\n  swap1\n  tag_21\n  jump\t// in\ntag_29:\n    /* \"contracts/mem.sol\":1397:1408  uniswapPair */\n  0x0c\n  0x00\n    /* \"contracts/mem.sol\":1397:1501  uniswapPair = IUniswapV2Factory(uniswaprouter.factory()).createPair(address(this), uniswaprouter.WETH()) */\n  0x0100\n  exp\n  dup2\n  sload\n  dup2\n  0xffffffffffffffffffffffffffffffffffffffff\n  mul\n  not\n  and\n  swap1\n  dup4\n  0xffffffffffffffffffffffffffffffffffffffff\n  and\n  mul\n  or\n  swap1\n  sstore\n  pop\n    /* \"contracts/mem.sol\":1541:1545  true */\n  0x01\n    /* \"contracts/mem.sol\":1514:1531  isExcludedFromTax */\n  0x0d\n    /* \"contracts/mem.sol\":1514:1538  isExcludedFromTax[owner] */\n  0x00\n    /* \"contracts/mem.sol\":1532:1537  owner */\n  dup4\n    /* \"contracts/mem.sol\":1514:1538  isExcludedFromTax[owner] */\n  0xffffffffffffffffffffffffffffffffffffffff\n  and\n  0xffffffffffffffffffffffffffffffffffffffff\n  and\n  dup2\n  mstore\n  0x20\n  add\n  swap1\n  dup2\n  mstore\n  0x20\n  add\n  0x00\n  keccak256\n  0x00\n    /* \"contracts/mem.sol\":1514:1545  isExcludedFromTax[owner] = true */\n  0x0100\n  exp\n  dup2\n  sload\n  dup2\n  0xff\n  mul\n  not\n  and\n  swap1\n  dup4\n  iszero\n  iszero\n  mul\n  or\n  swap1\n  sstore\n  pop\n    /* \"contracts/mem.sol\":1591:1595  true */\n  0x01\n    /* \"contracts/mem.sol\":1556:1573  isExcludedFromTax */\n  0x0d\n    /* \"contracts/mem.sol\":1556:1588  isExcludedFromTax[address(this)] */\n  0x00\n    /* \"contracts/mem.sol\":1582:1586  this */\n  address\n    /* \"contracts/mem.sol\":1556:1588  isExcludedFromTax[address(this)] */\n  0xffffffffffffffffffffffffffffffffffffffff\n  and\n  0xffffffffffffffffffffffffffffffffffffffff\n  and\n  dup2\n  mstore\n  0x20\n  add\n  swap1\n  dup2\n  mstore\n  0x20\n  add\n  0x00\n  keccak256\n  0x00\n    /* \"contracts/mem.sol\":1556:1595  isExcludedFromTax[address(this)] = true */\n  0x0100\n  exp\n  dup2\n  sload\n  dup2\n  0xff\n  mul\n  not\n  and\n  swap1\n  dup4\n  iszero\n  iszero\n  mul\n  or\n  swap1\n  sstore\n  pop\n    /* \"contracts/mem.sol\":1150:1603  constructor(... */\n  pop\n  pop\n  pop\n  pop\n    /* \"contracts/mem.sol\":348:4356  contract MemCoin is ERC20, Ownable {... */\n  jump(tag_30)\n    /* \"@openzeppelin/contracts/access/Ownable.sol\":2912:3099  function _transferOwnership(address newOwner) internal virtual {... */\ntag_16:\n    /* \"@openzeppelin/contracts/access/Ownable.sol\":2985:3001  address oldOwner */\n  0x00\n    /* \"@openzeppelin/contracts/access/Ownable.sol\":3004:3010  _owner */\n  0x05\n  0x00\n  swap1\n  sload\n  swap1\n  0x0100\n  exp\n  swap1\n  div\n  0xffffffffffffffffffffffffffffffffffffffff\n  and\n    /* \"@openzeppelin/contracts/access/Ownable.sol\":2985:3010  address oldOwner = _owner */\n  swap1\n  pop\n    /* \"@openzeppelin/contracts/access/Ownable.sol\":3029:3037  newOwner */\n  dup2\n    /* \"@openzeppelin/contracts/access/Ownable.sol\":3020:3026  _owner */\n  0x05\n  0x00\n    /* \"@openzeppelin/contracts/access/Ownable.sol\":3020:3037  _owner = newOwner */\n  0x0100\n  exp\n  dup2\n  sload\n  dup2\n  0xffffffffffffffffffffffffffffffffffffffff\n  mul\n  not\n  and\n  swap1\n  dup4\n  0xffffffffffffffffffffffffffffffffffffffff\n  and\n  mul\n  or\n  swap1\n  sstore\n  pop\n    /* \"@openzeppelin/contracts/access/Ownable.sol\":3083:3091  newOwner */\n  dup2\n    /* \"@openzeppelin/contracts/access/Ownable.sol\":3052:3092  OwnershipTransferred(oldOwner, newOwner) */\n  0xffffffffffffffffffffffffffffffffffffffff\n  and\n    /* \"@openzeppelin/contracts/access/Ownable.sol\":3073:3081  oldOwner */\n  dup2\n    /* \"@openzeppelin/contracts/access/Ownable.sol\":3052:3092  OwnershipTransferred(oldOwner, newOwner) */\n  0xffffffffffffffffffffffffffffffffffffffff\n  and\n  0x8be0079c531659141344cd1fd0a4f28419497f9722a3daafe3b4186f6b6457e0\n  mload(0x40)\n  mload(0x40)\n  dup1\n  swap2\n  sub\n  swap1\n  log3\n    /* \"@openzeppelin/contracts/access/Ownable.sol\":2975:3099  {... */\n  pop\n    /* \"@openzeppelin/contracts/access/Ownable.sol\":2912:3099  function _transferOwnership(address newOwner) internal virtual {... */\n  pop\n  jump\t// out\n    /* \"#utility.yul\":7:82   */\ntag_32:\n    /* \"#utility.yul\":40:46   */\n  0x00\n    /* \"#utility.yul\":73:75   */\n  0x40\n    /* \"#utility.yul\":67:76   */\n  mload\n    /* \"#utility.yul\":57:76   */\n  swap1\n  pop\n    /* \"#utility.yul\":7:82   */\n  swap1\n  jump\t// out\n    /* \"#utility.yul\":88:205   */\ntag_33:\n    /* \"#utility.yul\":197:198   */\n  0x00\n    /* \"#utility.yul\":194:195   */\n  0x00\n    /* \"#utility.yul\":187:199   */\n  revert\n    /* \"#utility.yul\":211:328   */\ntag_34:\n    /* \"#utility.yul\":320:321   */\n  0x00\n    /* \"#utility.yul\":317:318   */\n  0x00\n    /* \"#utility.yul\":310:322   */\n  revert\n    /* \"#utility.yul\":334:451   */\ntag_35:\n    /* \"#utility.yul\":443:444   */\n  0x00\n    /* \"#utility.yul\":440:441   */\n  0x00\n    /* \"#utility.yul\":433:445   */\n  revert\n    /* \"#utility.yul\":457:574   */\ntag_36:\n    /* \"#utility.yul\":566:567   */\n  0x00\n    /* \"#utility.yul\":563:564   */\n  0x00\n    /* \"#utility.yul\":556:568   */\n  revert\n    /* \"#utility.yul\":580:682   */\ntag_37:\n    /* \"#utility.yul\":621:627   */\n  0x00\n    /* \"#utility.yul\":672:674   */\n  0x1f\n    /* \"#utility.yul\":668:675   */\n  not\n    /* \"#utility.yul\":663:665   */\n  0x1f\n    /* \"#utility.yul\":656:661   */\n  dup4\n    /* \"#utility.yul\":652:666   */\n  add\n    /* \"#utility.yul\":648:676   */\n  and\n    /* \"#utility.yul\":638:676   */\n  swap1\n  pop\n    /* \"#utility.yul\":580:682   */\n  swap2\n  swap1\n  pop\n  jump\t// out\n    /* \"#utility.yul\":688:868   */\ntag_38:\n    /* \"#utility.yul\":736:813   */\n  0x4e487b7100000000000000000000000000000000000000000000000000000000\n    /* \"#utility.yul\":733:734   */\n  0x00\n    /* \"#utility.yul\":726:814   */\n  mstore\n    /* \"#utility.yul\":833:837   */\n  0x41\n    /* \"#utility.yul\":830:831   */\n  0x04\n    /* \"#utility.yul\":823:838   */\n  mstore\n    /* \"#utility.yul\":857:861   */\n  0x24\n    /* \"#utility.yul\":854:855   */\n  0x00\n    /* \"#utility.yul\":847:862   */\n  revert\n    /* \"#utility.yul\":874:1155   */\ntag_39:\n    /* \"#utility.yul\":957:984   */\n  tag_78\n    /* \"#utility.yul\":979:983   */\n  dup3\n    /* \"#utility.yul\":957:984   */\n  tag_37\n  jump\t// in\ntag_78:\n    /* \"#utility.yul\":949:955   */\n  dup2\n    /* \"#utility.yul\":945:985   */\n  add\n    /* \"#utility.yul\":1087:1093   */\n  dup2\n    /* \"#utility.yul\":1075:1085   */\n  dup2\n    /* \"#utility.yul\":1072:1094   */\n  lt\n    /* \"#utility.yul\":1051:1069   */\n  0xffffffffffffffff\n    /* \"#utility.yul\":1039:1049   */\n  dup3\n    /* \"#utility.yul\":1036:1070   */\n  gt\n    /* \"#utility.yul\":1033:1095   */\n  or\n    /* \"#utility.yul\":1030:1118   */\n  iszero\n  tag_79\n  jumpi\n    /* \"#utility.yul\":1098:1116   */\n  tag_80\n  tag_38\n  jump\t// in\ntag_80:\n    /* \"#utility.yul\":1030:1118   */\ntag_79:\n    /* \"#utility.yul\":1138:1148   */\n  dup1\n    /* \"#utility.yul\":1134:1136   */\n  0x40\n    /* \"#utility.yul\":1127:1149   */\n  mstore\n    /* \"#utility.yul\":917:1155   */\n  pop\n    /* \"#utility.yul\":874:1155   */\n  pop\n  pop\n  jump\t// out\n    /* \"#utility.yul\":1161:1290   */\ntag_40:\n    /* \"#utility.yul\":1195:1201   */\n  0x00\n    /* \"#utility.yul\":1222:1242   */\n  tag_82\n  tag_32\n  jump\t// in\ntag_82:\n    /* \"#utility.yul\":1212:1242   */\n  swap1\n  pop\n    /* \"#utility.yul\":1251:1284   */\n  tag_83\n    /* \"#utility.yul\":1279:1283   */\n  dup3\n    /* \"#utility.yul\":1271:1277   */\n  dup3\n    /* \"#utility.yul\":1251:1284   */\n  tag_39\n  jump\t// in\ntag_83:\n    /* \"#utility.yul\":1161:1290   */\n  swap2\n  swap1\n  pop\n  jump\t// out\n    /* \"#utility.yul\":1296:1604   */\ntag_41:\n    /* \"#utility.yul\":1358:1362   */\n  0x00\n    /* \"#utility.yul\":1448:1466   */\n  0xffffffffffffffff\n    /* \"#utility.yul\":1440:1446   */\n  dup3\n    /* \"#utility.yul\":1437:1467   */\n  gt\n    /* \"#utility.yul\":1434:1490   */\n  iszero\n  tag_85\n  jumpi\n    /* \"#utility.yul\":1470:1488   */\n  tag_86\n  tag_38\n  jump\t// in\ntag_86:\n    /* \"#utility.yul\":1434:1490   */\ntag_85:\n    /* \"#utility.yul\":1508:1537   */\n  tag_87\n    /* \"#utility.yul\":1530:1536   */\n  dup3\n    /* \"#utility.yul\":1508:1537   */\n  tag_37\n  jump\t// in\ntag_87:\n    /* \"#utility.yul\":1500:1537   */\n  swap1\n  pop\n    /* \"#utility.yul\":1592:1596   */\n  0x20\n    /* \"#utility.yul\":1586:1590   */\n  dup2\n    /* \"#utility.yul\":1582:1597   */\n  add\n    /* \"#utility.yul\":1574:1597   */\n  swap1\n  pop\n    /* \"#utility.yul\":1296:1604   */\n  swap2\n  swap1\n  pop\n  jump\t// out\n    /* \"#utility.yul\":1610:1749   */\ntag_42:\n    /* \"#utility.yul\":1699:1705   */\n  dup3\n    /* \"#utility.yul\":1694:1697   */\n  dup2\n    /* \"#utility.yul\":1689:1692   */\n  dup4\n    /* \"#utility.yul\":1683:1706   */\n  mcopy\n    /* \"#utility.yul\":1740:1741   */\n  0x00\n    /* \"#utility.yul\":1731:1737   */\n  dup4\n    /* \"#utility.yul\":1726:1729   */\n  dup4\n    /* \"#utility.yul\":1722:1738   */\n  add\n    /* \"#utility.yul\":1715:1742   */\n  mstore\n    /* \"#utility.yul\":1610:1749   */\n  pop\n  pop\n  pop\n  jump\t// out\n    /* \"#utility.yul\":1755:2189   */\ntag_43:\n    /* \"#utility.yul\":1844:1849   */\n  0x00\n    /* \"#utility.yul\":1869:1935   */\n  tag_90\n    /* \"#utility.yul\":1885:1934   */\n  tag_91\n    /* \"#utility.yul\":1927:1933   */\n  dup5\n    /* \"#utility.yul\":1885:1934   */\n  tag_41\n  jump\t// in\ntag_91:\n    /* \"#utility.yul\":1869:1935   */\n  tag_40\n  jump\t// in\ntag_90:\n    /* \"#utility.yul\":1860:1935   */\n  swap1\n  pop\n    /* \"#utility.yul\":1958:1964   */\n  dup3\n    /* \"#utility.yul\":1951:1956   */\n  dup2\n    /* \"#utility.yul\":1944:1965   */\n  mstore\n    /* \"#utility.yul\":1996:2000   */\n  0x20\n    /* \"#utility.yul\":1989:1994   */\n  dup2\n    /* \"#utility.yul\":1985:2001   */\n  add\n    /* \"#utility.yul\":2034:2037   */\n  dup5\n    /* \"#utility.yul\":2025:2031   */\n  dup5\n    /* \"#utility.yul\":2020:2023   */\n  dup5\n    /* \"#utility.yul\":2016:2032   */\n  add\n    /* \"#utility.yul\":2013:2038   */\n  gt\n    /* \"#utility.yul\":2010:2122   */\n  iszero\n  tag_92\n  jumpi\n    /* \"#utility.yul\":2041:2120   */\n  tag_93\n  tag_36\n  jump\t// in\ntag_93:\n    /* \"#utility.yul\":2010:2122   */\ntag_92:\n    /* \"#utility.yul\":2131:2183   */\n  tag_94\n    /* \"#utility.yul\":2176:2182   */\n  dup5\n    /* \"#utility.yul\":2171:2174   */\n  dup3\n    /* \"#utility.yul\":2166:2169   */\n  dup6\n    /* \"#utility.yul\":2131:2183   */\n  tag_42\n  jump\t// in\ntag_94:\n    /* \"#utility.yul\":1850:2189   */\n  pop\n    /* \"#utility.yul\":1755:2189   */\n  swap4\n  swap3\n  pop\n  pop\n  pop\n  jump\t// out\n    /* \"#utility.yul\":2209:2564   */\ntag_44:\n    /* \"#utility.yul\":2276:2281   */\n  0x00\n    /* \"#utility.yul\":2325:2328   */\n  dup3\n    /* \"#utility.yul\":2318:2322   */\n  0x1f\n    /* \"#utility.yul\":2310:2316   */\n  dup4\n    /* \"#utility.yul\":2306:2323   */\n  add\n    /* \"#utility.yul\":2302:2329   */\n  slt\n    /* \"#utility.yul\":2292:2414   */\n  tag_96\n  jumpi\n    /* \"#utility.yul\":2333:2412   */\n  tag_97\n  tag_35\n  jump\t// in\ntag_97:\n    /* \"#utility.yul\":2292:2414   */\ntag_96:\n    /* \"#utility.yul\":2443:2449   */\n  dup2\n    /* \"#utility.yul\":2437:2450   */\n  mload\n    /* \"#utility.yul\":2468:2558   */\n  tag_98\n    /* \"#utility.yul\":2554:2557   */\n  dup5\n    /* \"#utility.yul\":2546:2552   */\n  dup3\n    /* \"#utility.yul\":2539:2543   */\n  0x20\n    /* \"#utility.yul\":2531:2537   */\n  dup7\n    /* \"#utility.yul\":2527:2544   */\n  add\n    /* \"#utility.yul\":2468:2558   */\n  tag_43\n  jump\t// in\ntag_98:\n    /* \"#utility.yul\":2459:2558   */\n  swap2\n  pop\n    /* \"#utility.yul\":2282:2564   */\n  pop\n    /* \"#utility.yul\":2209:2564   */\n  swap3\n  swap2\n  pop\n  pop\n  jump\t// out\n    /* \"#utility.yul\":2570:2696   */\ntag_45:\n    /* \"#utility.yul\":2607:2614   */\n  0x00\n    /* \"#utility.yul\":2647:2689   */\n  0xffffffffffffffffffffffffffffffffffffffff\n    /* \"#utility.yul\":2640:2645   */\n  dup3\n    /* \"#utility.yul\":2636:2690   */\n  and\n    /* \"#utility.yul\":2625:2690   */\n  swap1\n  pop\n    /* \"#utility.yul\":2570:2696   */\n  swap2\n  swap1\n  pop\n  jump\t// out\n    /* \"#utility.yul\":2702:2798   */\ntag_46:\n    /* \"#utility.yul\":2739:2746   */\n  0x00\n    /* \"#utility.yul\":2768:2792   */\n  tag_101\n    /* \"#utility.yul\":2786:2791   */\n  dup3\n    /* \"#utility.yul\":2768:2792   */\n  tag_45\n  jump\t// in\ntag_101:\n    /* \"#utility.yul\":2757:2792   */\n  swap1\n  pop\n    /* \"#utility.yul\":2702:2798   */\n  swap2\n  swap1\n  pop\n  jump\t// out\n    /* \"#utility.yul\":2804:2926   */\ntag_47:\n    /* \"#utility.yul\":2877:2901   */\n  tag_103\n    /* \"#utility.yul\":2895:2900   */\n  dup2\n    /* \"#utility.yul\":2877:2901   */\n  tag_46\n  jump\t// in\ntag_103:\n    /* \"#utility.yul\":2870:2875   */\n  dup2\n    /* \"#utility.yul\":2867:2902   */\n  eq\n    /* \"#utility.yul\":2857:2920   */\n  tag_104\n  jumpi\n    /* \"#utility.yul\":2916:2917   */\n  0x00\n    /* \"#utility.yul\":2913:2914   */\n  0x00\n    /* \"#utility.yul\":2906:2918   */\n  revert\n    /* \"#utility.yul\":2857:2920   */\ntag_104:\n    /* \"#utility.yul\":2804:2926   */\n  pop\n  jump\t// out\n    /* \"#utility.yul\":2932:3075   */\ntag_48:\n    /* \"#utility.yul\":2989:2994   */\n  0x00\n    /* \"#utility.yul\":3020:3026   */\n  dup2\n    /* \"#utility.yul\":3014:3027   */\n  mload\n    /* \"#utility.yul\":3005:3027   */\n  swap1\n  pop\n    /* \"#utility.yul\":3036:3069   */\n  tag_106\n    /* \"#utility.yul\":3063:3068   */\n  dup2\n    /* \"#utility.yul\":3036:3069   */\n  tag_47\n  jump\t// in\ntag_106:\n    /* \"#utility.yul\":2932:3075   */\n  swap3\n  swap2\n  pop\n  pop\n  jump\t// out\n    /* \"#utility.yul\":3081:4247   */\ntag_3:\n    /* \"#utility.yul\":3198:3204   */\n  0x00\n    /* \"#utility.yul\":3206:3212   */\n  0x00\n    /* \"#utility.yul\":3214:3220   */\n  0x00\n    /* \"#utility.yul\":3222:3228   */\n  0x00\n    /* \"#utility.yul\":3271:3274   */\n  0x80\n    /* \"#utility.yul\":3259:3268   */\n  dup6\n    /* \"#utility.yul\":3250:3257   */\n  dup8\n    /* \"#utility.yul\":3246:3269   */\n  sub\n    /* \"#utility.yul\":3242:3275   */\n  slt\n    /* \"#utility.yul\":3239:3359   */\n  iszero\n  tag_108\n  jumpi\n    /* \"#utility.yul\":3278:3357   */\n  tag_109\n  tag_33\n  jump\t// in\ntag_109:\n    /* \"#utility.yul\":3239:3359   */\ntag_108:\n    /* \"#utility.yul\":3419:3420   */\n  0x00\n    /* \"#utility.yul\":3408:3417   */\n  dup6\n    /* \"#utility.yul\":3404:3421   */\n  add\n    /* \"#utility.yul\":3398:3422   */\n  mload\n    /* \"#utility.yul\":3449:3467   */\n  0xffffffffffffffff\n    /* \"#utility.yul\":3441:3447   */\n  dup2\n    /* \"#utility.yul\":3438:3468   */\n  gt\n    /* \"#utility.yul\":3435:3552   */\n  iszero\n  tag_110\n  jumpi\n    /* \"#utility.yul\":3471:3550   */\n  tag_111\n  tag_34\n  jump\t// in\ntag_111:\n    /* \"#utility.yul\":3435:3552   */\ntag_110:\n    /* \"#utility.yul\":3576:3650   */\n  tag_112\n    /* \"#utility.yul\":3642:3649   */\n  dup8\n    /* \"#utility.yul\":3633:3639   */\n  dup3\n    /* \"#utility.yul\":3622:3631   */\n  dup9\n    /* \"#utility.yul\":3618:3640   */\n  add\n    /* \"#utility.yul\":3576:3650   */\n  tag_44\n  jump\t// in\ntag_112:\n    /* \"#utility.yul\":3566:3650   */\n  swap5\n  pop\n    /* \"#utility.yul\":3369:3660   */\n  pop\n    /* \"#utility.yul\":3720:3722   */\n  0x20\n    /* \"#utility.yul\":3709:3718   */\n  dup6\n    /* \"#utility.yul\":3705:3723   */\n  add\n    /* \"#utility.yul\":3699:3724   */\n  mload\n    /* \"#utility.yul\":3751:3769   */\n  0xffffffffffffffff\n    /* \"#utility.yul\":3743:3749   */\n  dup2\n    /* \"#utility.yul\":3740:3770   */\n  gt\n    /* \"#utility.yul\":3737:3854   */\n  iszero\n  tag_113\n  jumpi\n    /* \"#utility.yul\":3773:3852   */\n  tag_114\n  tag_34\n  jump\t// in\ntag_114:\n    /* \"#utility.yul\":3737:3854   */\ntag_113:\n    /* \"#utility.yul\":3878:3952   */\n  tag_115\n    /* \"#utility.yul\":3944:3951   */\n  dup8\n    /* \"#utility.yul\":3935:3941   */\n  dup3\n    /* \"#utility.yul\":3924:3933   */\n  dup9\n    /* \"#utility.yul\":3920:3942   */\n  add\n    /* \"#utility.yul\":3878:3952   */\n  tag_44\n  jump\t// in\ntag_115:\n    /* \"#utility.yul\":3868:3952   */\n  swap4\n  pop\n    /* \"#utility.yul\":3670:3962   */\n  pop\n    /* \"#utility.yul\":4001:4003   */\n  0x40\n    /* \"#utility.yul\":4027:4091   */\n  tag_116\n    /* \"#utility.yul\":4083:4090   */\n  dup8\n    /* \"#utility.yul\":4074:4080   */\n  dup3\n    /* \"#utility.yul\":4063:4072   */\n  dup9\n    /* \"#utility.yul\":4059:4081   */\n  add\n    /* \"#utility.yul\":4027:4091   */\n  tag_48\n  jump\t// in\ntag_116:\n    /* \"#utility.yul\":4017:4091   */\n  swap3\n  pop\n    /* \"#utility.yul\":3972:4101   */\n  pop\n    /* \"#utility.yul\":4140:4142   */\n  0x60\n    /* \"#utility.yul\":4166:4230   */\n  tag_117\n    /* \"#utility.yul\":4222:4229   */\n  dup8\n    /* \"#utility.yul\":4213:4219   */\n  dup3\n    /* \"#utility.yul\":4202:4211   */\n  dup9\n    /* \"#utility.yul\":4198:4220   */\n  add\n    /* \"#utility.yul\":4166:4230   */\n  tag_48\n  jump\t// in\ntag_117:\n    /* \"#utility.yul\":4156:4230   */\n  swap2\n  pop\n    /* \"#utility.yul\":4111:4240   */\n  pop\n    /* \"#utility.yul\":3081:4247   */\n  swap3\n  swap6\n  swap2\n  swap5\n  pop\n  swap3\n  pop\n  jump\t// out\n    /* \"#utility.yul\":4253:4352   */\ntag_49:\n    /* \"#utility.yul\":4305:4311   */\n  0x00\n    /* \"#utility.yul\":4339:4344   */\n  dup2\n    /* \"#utility.yul\":4333:4345   */\n  mload\n    /* \"#utility.yul\":4323:4345   */\n  swap1\n  pop\n    /* \"#utility.yul\":4253:4352   */\n  swap2\n  swap1\n  pop\n  jump\t// out\n    /* \"#utility.yul\":4358:4538   */\ntag_50:\n    /* \"#utility.yul\":4406:4483   */\n  0x4e487b7100000000000000000000000000000000000000000000000000000000\n    /* \"#utility.yul\":4403:4404   */\n  0x00\n    /* \"#utility.yul\":4396:4484   */\n  mstore\n    /* \"#utility.yul\":4503:4507   */\n  0x22\n    /* \"#utility.yul\":4500:4501   */\n  0x04\n    /* \"#utility.yul\":4493:4508   */\n  mstore\n    /* \"#utility.yul\":4527:4531   */\n  0x24\n    /* \"#utility.yul\":4524:4525   */\n  0x00\n    /* \"#utility.yul\":4517:4532   */\n  revert\n    /* \"#utility.yul\":4544:4864   */\ntag_51:\n    /* \"#utility.yul\":4588:4594   */\n  0x00\n    /* \"#utility.yul\":4625:4626   */\n  0x02\n    /* \"#utility.yul\":4619:4623   */\n  dup3\n    /* \"#utility.yul\":4615:4627   */\n  div\n    /* \"#utility.yul\":4605:4627   */\n  swap1\n  pop\n    /* \"#utility.yul\":4672:4673   */\n  0x01\n    /* \"#utility.yul\":4666:4670   */\n  dup3\n    /* \"#utility.yul\":4662:4674   */\n  and\n    /* \"#utility.yul\":4693:4711   */\n  dup1\n    /* \"#utility.yul\":4683:4764   */\n  tag_121\n  jumpi\n    /* \"#utility.yul\":4749:4753   */\n  0x7f\n    /* \"#utility.yul\":4741:4747   */\n  dup3\n    /* \"#utility.yul\":4737:4754   */\n  and\n    /* \"#utility.yul\":4727:4754   */\n  swap2\n  pop\n    /* \"#utility.yul\":4683:4764   */\ntag_121:\n    /* \"#utility.yul\":4811:4813   */\n  0x20\n    /* \"#utility.yul\":4803:4809   */\n  dup3\n    /* \"#utility.yul\":4800:4814   */\n  lt\n    /* \"#utility.yul\":4780:4798   */\n  dup2\n    /* \"#utility.yul\":4777:4815   */\n  sub\n    /* \"#utility.yul\":4774:4858   */\n  tag_122\n  jumpi\n    /* \"#utility.yul\":4830:4848   */\n  tag_123\n  tag_50\n  jump\t// in\ntag_123:\n    /* \"#utility.yul\":4774:4858   */\ntag_122:\n    /* \"#utility.yul\":4595:4864   */\n  pop\n    /* \"#utility.yul\":4544:4864   */\n  swap2\n  swap1\n  pop\n  jump\t// out\n    /* \"#utility.yul\":4870:5011   */\ntag_52:\n    /* \"#utility.yul\":4919:4923   */\n  0x00\n    /* \"#utility.yul\":4942:4945   */\n  dup2\n    /* \"#utility.yul\":4934:4945   */\n  swap1\n  pop\n    /* \"#utility.yul\":4965:4968   */\n  dup2\n    /* \"#utility.yul\":4962:4963   */\n  0x00\n    /* \"#utility.yul\":4955:4969   */\n  mstore\n    /* \"#utility.yul\":4999:5003   */\n  0x20\n    /* \"#utility.yul\":4996:4997   */\n  0x00\n    /* \"#utility.yul\":4986:5004   */\n  keccak256\n    /* \"#utility.yul\":4978:5004   */\n  swap1\n  pop\n    /* \"#utility.yul\":4870:5011   */\n  swap2\n  swap1\n  pop\n  jump\t// out\n    /* \"#utility.yul\":5017:5110   */\ntag_53:\n    /* \"#utility.yul\":5054:5060   */\n  0x00\n    /* \"#utility.yul\":5101:5103   */\n  0x20\n    /* \"#utility.yul\":5096:5098   */\n  0x1f\n    /* \"#utility.yul\":5089:5094   */\n  dup4\n    /* \"#utility.yul\":5085:5099   */\n  add\n    /* \"#utility.yul\":5081:5104   */\n  div\n    /* \"#utility.yul\":5071:5104   */\n  swap1\n  pop\n    /* \"#utility.yul\":5017:5110   */\n  swap2\n  swap1\n  pop\n  jump\t// out\n    /* \"#utility.yul\":5116:5223   */\ntag_54:\n    /* \"#utility.yul\":5160:5168   */\n  0x00\n    /* \"#utility.yul\":5210:5215   */\n  dup3\n    /* \"#utility.yul\":5204:5208   */\n  dup3\n    /* \"#utility.yul\":5200:5216   */\n  shl\n    /* \"#utility.yul\":5179:5216   */\n  swap1\n  pop\n    /* \"#utility.yul\":5116:5223   */\n  swap3\n  swap2\n  pop\n  pop\n  jump\t// out\n    /* \"#utility.yul\":5229:5622   */\ntag_55:\n    /* \"#utility.yul\":5298:5304   */\n  0x00\n    /* \"#utility.yul\":5348:5349   */\n  0x08\n    /* \"#utility.yul\":5336:5346   */\n  dup4\n    /* \"#utility.yul\":5332:5350   */\n  mul\n    /* \"#utility.yul\":5371:5468   */\n  tag_128\n    /* \"#utility.yul\":5401:5467   */\n  0xffffffffffffffffffffffffffffffffffffffffffffffffffffffffffffffff\n    /* \"#utility.yul\":5390:5399   */\n  dup3\n    /* \"#utility.yul\":5371:5468   */\n  tag_54\n  jump\t// in\ntag_128:\n    /* \"#utility.yul\":5489:5528   */\n  tag_129\n    /* \"#utility.yul\":5519:5527   */\n  dup7\n    /* \"#utility.yul\":5508:5517   */\n  dup4\n    /* \"#utility.yul\":5489:5528   */\n  tag_54\n  jump\t// in\ntag_129:\n    /* \"#utility.yul\":5477:5528   */\n  swap6\n  pop\n    /* \"#utility.yul\":5561:5565   */\n  dup1\n    /* \"#utility.yul\":5557:5566   */\n  not\n    /* \"#utility.yul\":5550:5555   */\n  dup5\n    /* \"#utility.yul\":5546:5567   */\n  and\n    /* \"#utility.yul\":5537:5567   */\n  swap4\n  pop\n    /* \"#utility.yul\":5610:5614   */\n  dup1\n    /* \"#utility.yul\":5600:5608   */\n  dup7\n    /* \"#utility.yul\":5596:5615   */\n  and\n    /* \"#utility.yul\":5589:5594   */\n  dup5\n    /* \"#utility.yul\":5586:5616   */\n  or\n    /* \"#utility.yul\":5576:5616   */\n  swap3\n  pop\n    /* \"#utility.yul\":5305:5622   */\n  pop\n  pop\n    /* \"#utility.yul\":5229:5622   */\n  swap4\n  swap3\n  pop\n  pop\n  pop\n  jump\t// out\n    /* \"#utility.yul\":5628:5705   */\ntag_56:\n    /* \"#utility.yul\":5665:5672   */\n  0x00\n    /* \"#utility.yul\":5694:5699   */\n  dup2\n    /* \"#utility.yul\":5683:5699   */\n  swap1\n  pop\n    /* \"#utility.yul\":5628:5705   */\n  swap2\n  swap1\n  pop\n  jump\t// out\n    /* \"#utility.yul\":5711:5771   */\ntag_57:\n    /* \"#utility.yul\":5739:5742   */\n  0x00\n    /* \"#utility.yul\":5760:5765   */\n  dup2\n    /* \"#utility.yul\":5753:5765   */\n  swap1\n  pop\n    /* \"#utility.yul\":5711:5771   */\n  swap2\n  swap1\n  pop\n  jump\t// out\n    /* \"#utility.yul\":5777:5919   */\ntag_58:\n    /* \"#utility.yul\":5827:5836   */\n  0x00\n    /* \"#utility.yul\":5860:5913   */\n  tag_133\n    /* \"#utility.yul\":5878:5912   */\n  tag_134\n    /* \"#utility.yul\":5887:5911   */\n  tag_135\n    /* \"#utility.yul\":5905:5910   */\n  dup5\n    /* \"#utility.yul\":5887:5911   */\n  tag_56\n  jump\t// in\ntag_135:\n    /* \"#utility.yul\":5878:5912   */\n  tag_57\n  jump\t// in\ntag_134:\n    /* \"#utility.yul\":5860:5913   */\n  tag_56\n  jump\t// in\ntag_133:\n    /* \"#utility.yul\":5847:5913   */\n  swap1\n  pop\n    /* \"#utility.yul\":5777:5919   */\n  swap2\n  swap1\n  pop\n  jump\t// out\n    /* \"#utility.yul\":5925:6000   */\ntag_59:\n    /* \"#utility.yul\":5968:5971   */\n  0x00\n    /* \"#utility.yul\":5989:5994   */\n  dup2\n    /* \"#utility.yul\":5982:5994   */\n  swap1\n  pop\n    /* \"#utility.yul\":5925:6000   */\n  swap2\n  swap1\n  pop\n  jump\t// out\n    /* \"#utility.yul\":6006:6275   */\ntag_60:\n    /* \"#utility.yul\":6116:6155   */\n  tag_138\n    /* \"#utility.yul\":6147:6154   */\n  dup4\n    /* \"#utility.yul\":6116:6155   */\n  tag_58\n  jump\t// in\ntag_138:\n    /* \"#utility.yul\":6177:6268   */\n  tag_139\n    /* \"#utility.yul\":6226:6267   */\n  tag_140\n    /* \"#utility.yul\":6250:6266   */\n  dup3\n    /* \"#utility.yul\":6226:6267   */\n  tag_59\n  jump\t// in\ntag_140:\n    /* \"#utility.yul\":6218:6224   */\n  dup5\n    /* \"#utility.yul\":6211:6215   */\n  dup5\n    /* \"#utility.yul\":6205:6216   */\n  sload\n    /* \"#utility.yul\":6177:6268   */\n  tag_55\n  jump\t// in\ntag_139:\n    /* \"#utility.yul\":6171:6175   */\n  dup3\n    /* \"#utility.yul\":6164:6269   */\n  sstore\n    /* \"#utility.yul\":6082:6275   */\n  pop\n    /* \"#utility.yul\":6006:6275   */\n  pop\n  pop\n  pop\n  jump\t// out\n    /* \"#utility.yul\":6281:6354   */\ntag_61:\n    /* \"#utility.yul\":6326:6329   */\n  0x00\n    /* \"#utility.yul\":6347:6348   */\n  0x00\n    /* \"#utility.yul\":6340:6348   */\n  swap1\n  pop\n    /* \"#utility.yul\":6281:6354   */\n  swap1\n  jump\t// out\n    /* \"#utility.yul\":6360:6549   */\ntag_62:\n    /* \"#utility.yul\":6437:6469   */\n  tag_143\n  tag_61\n  jump\t// in\ntag_143:\n    /* \"#utility.yul\":6478:6543   */\n  tag_144\n    /* \"#utility.yul\":6536:6542   */\n  dup2\n    /* \"#utility.yul\":6528:6534   */\n  dup5\n    /* \"#utility.yul\":6522:6526   */\n  dup5\n    /* \"#utility.yul\":6478:6543   */\n  tag_60\n  jump\t// in\ntag_144:\n    /* \"#utility.yul\":6413:6549   */\n  pop\n    /* \"#utility.yul\":6360:6549   */\n  pop\n  pop\n  jump\t// out\n    /* \"#utility.yul\":6555:6741   */\ntag_63:\n    /* \"#utility.yul\":6615:6735   */\ntag_146:\n    /* \"#utility.yul\":6632:6635   */\n  dup2\n    /* \"#utility.yul\":6625:6630   */\n  dup2\n    /* \"#utility.yul\":6622:6636   */\n  lt\n    /* \"#utility.yul\":6615:6735   */\n  iszero\n  tag_148\n  jumpi\n    /* \"#utility.yul\":6686:6725   */\n  tag_149\n    /* \"#utility.yul\":6723:6724   */\n  0x00\n    /* \"#utility.yul\":6716:6721   */\n  dup3\n    /* \"#utility.yul\":6686:6725   */\n  tag_62\n  jump\t// in\ntag_149:\n    /* \"#utility.yul\":6659:6660   */\n  0x01\n    /* \"#utility.yul\":6652:6657   */\n  dup2\n    /* \"#utility.yul\":6648:6661   */\n  add\n    /* \"#utility.yul\":6639:6661   */\n  swap1\n  pop\n    /* \"#utility.yul\":6615:6735   */\n  jump(tag_146)\ntag_148:\n    /* \"#utility.yul\":6555:6741   */\n  pop\n  pop\n  jump\t// out\n    /* \"#utility.yul\":6747:7290   */\ntag_64:\n    /* \"#utility.yul\":6848:6850   */\n  0x1f\n    /* \"#utility.yul\":6843:6846   */\n  dup3\n    /* \"#utility.yul\":6840:6851   */\n  gt\n    /* \"#utility.yul\":6837:7283   */\n  iszero\n  tag_151\n  jumpi\n    /* \"#utility.yul\":6882:6920   */\n  tag_152\n    /* \"#utility.yul\":6914:6919   */\n  dup2\n    /* \"#utility.yul\":6882:6920   */\n  tag_52\n  jump\t// in\ntag_152:\n    /* \"#utility.yul\":6966:6995   */\n  tag_153\n    /* \"#utility.yul\":6984:6994   */\n  dup5\n    /* \"#utility.yul\":6966:6995   */\n  tag_53\n  jump\t// in\ntag_153:\n    /* \"#utility.yul\":6956:6964   */\n  dup2\n    /* \"#utility.yul\":6952:6996   */\n  add\n    /* \"#utility.yul\":7149:7151   */\n  0x20\n    /* \"#utility.yul\":7137:7147   */\n  dup6\n    /* \"#utility.yul\":7134:7152   */\n  lt\n    /* \"#utility.yul\":7131:7180   */\n  iszero\n  tag_154\n  jumpi\n    /* \"#utility.yul\":7170:7178   */\n  dup2\n    /* \"#utility.yul\":7155:7178   */\n  swap1\n  pop\n    /* \"#utility.yul\":7131:7180   */\ntag_154:\n    /* \"#utility.yul\":7193:7273   */\n  tag_155\n    /* \"#utility.yul\":7249:7271   */\n  tag_156\n    /* \"#utility.yul\":7267:7270   */\n  dup6\n    /* \"#utility.yul\":7249:7271   */\n  tag_53\n  jump\t// in\ntag_156:\n    /* \"#utility.yul\":7239:7247   */\n  dup4\n    /* \"#utility.yul\":7235:7272   */\n  add\n    /* \"#utility.yul\":7222:7233   */\n  dup3\n    /* \"#utility.yul\":7193:7273   */\n  tag_63\n  jump\t// in\ntag_155:\n    /* \"#utility.yul\":6852:7283   */\n  pop\n  pop\n    /* \"#utility.yul\":6837:7283   */\ntag_151:\n    /* \"#utility.yul\":6747:7290   */\n  pop\n  pop\n  pop\n  jump\t// out\n    /* \"#utility.yul\":7296:7413   */\ntag_65:\n    /* \"#utility.yul\":7350:7358   */\n  0x00\n    /* \"#utility.yul\":7400:7405   */\n  dup3\n    /* \"#utility.yul\":7394:7398   */\n  dup3\n    /* \"#utility.yul\":7390:7406   */\n  shr\n    /* \"#utility.yul\":7369:7406   */\n  swap1\n  pop\n    /* \"#utility.yul\":7296:7413   */\n  swap3\n  swap2\n  pop\n  pop\n  jump\t// out\n    /* \"#utility.yul\":7419:7588   */\ntag_66:\n    /* \"#utility.yul\":7463:7469   */\n  0x00\n    /* \"#utility.yul\":7496:7547   */\n  tag_159\n    /* \"#utility.yul\":7544:7545   */\n  0x00\n    /* \"#utility.yul\":7540:7546   */\n  not\n    /* \"#utility.yul\":7532:7537   */\n  dup5\n    /* \"#utility.yul\":7529:7530   */\n  0x08\n    /* \"#utility.yul\":7525:7538   */\n  mul\n    /* \"#utility.yul\":7496:7547   */\n  tag_65\n  jump\t// in\ntag_159:\n    /* \"#utility.yul\":7492:7548   */\n  not\n    /* \"#utility.yul\":7577:7581   */\n  dup1\n    /* \"#utility.yul\":7571:7575   */\n  dup4\n    /* \"#utility.yul\":7567:7582   */\n  and\n    /* \"#utility.yul\":7557:7582   */\n  swap2\n  pop\n    /* \"#utility.yul\":7470:7588   */\n  pop\n    /* \"#utility.yul\":7419:7588   */\n  swap3\n  swap2\n  pop\n  pop\n  jump\t// out\n    /* \"#utility.yul\":7593:7888   */\ntag_67:\n    /* \"#utility.yul\":7669:7673   */\n  0x00\n    /* \"#utility.yul\":7815:7844   */\n  tag_161\n    /* \"#utility.yul\":7840:7843   */\n  dup4\n    /* \"#utility.yul\":7834:7838   */\n  dup4\n    /* \"#utility.yul\":7815:7844   */\n  tag_66\n  jump\t// in\ntag_161:\n    /* \"#utility.yul\":7807:7844   */\n  swap2\n  pop\n    /* \"#utility.yul\":7877:7880   */\n  dup3\n    /* \"#utility.yul\":7874:7875   */\n  0x02\n    /* \"#utility.yul\":7870:7881   */\n  mul\n    /* \"#utility.yul\":7864:7868   */\n  dup3\n    /* \"#utility.yul\":7861:7882   */\n  or\n    /* \"#utility.yul\":7853:7882   */\n  swap1\n  pop\n    /* \"#utility.yul\":7593:7888   */\n  swap3\n  swap2\n  pop\n  pop\n  jump\t// out\n    /* \"#utility.yul\":7893:9288   */\ntag_9:\n    /* \"#utility.yul\":8010:8047   */\n  tag_163\n    /* \"#utility.yul\":8043:8046   */\n  dup3\n    /* \"#utility.yul\":8010:8047   */\n  tag_49\n  jump\t// in\ntag_163:\n    /* \"#utility.yul\":8112:8130   */\n  0xffffffffffffffff\n    /* \"#utility.yul\":8104:8110   */\n  dup2\n    /* \"#utility.yul\":8101:8131   */\n  gt\n    /* \"#utility.yul\":8098:8154   */\n  iszero\n  tag_164\n  jumpi\n    /* \"#utility.yul\":8134:8152   */\n  tag_165\n  tag_38\n  jump\t// in\ntag_165:\n    /* \"#utility.yul\":8098:8154   */\ntag_164:\n    /* \"#utility.yul\":8178:8216   */\n  tag_166\n    /* \"#utility.yul\":8210:8214   */\n  dup3\n    /* \"#utility.yul\":8204:8215   */\n  sload\n    /* \"#utility.yul\":8178:8216   */\n  tag_51\n  jump\t// in\ntag_166:\n    /* \"#utility.yul\":8263:8330   */\n  tag_167\n    /* \"#utility.yul\":8323:8329   */\n  dup3\n    /* \"#utility.yul\":8315:8321   */\n  dup3\n    /* \"#utility.yul\":8309:8313   */\n  dup6\n    /* \"#utility.yul\":8263:8330   */\n  tag_64\n  jump\t// in\ntag_167:\n    /* \"#utility.yul\":8357:8358   */\n  0x00\n    /* \"#utility.yul\":8381:8385   */\n  0x20\n    /* \"#utility.yul\":8368:8385   */\n  swap1\n  pop\n    /* \"#utility.yul\":8413:8415   */\n  0x1f\n    /* \"#utility.yul\":8405:8411   */\n  dup4\n    /* \"#utility.yul\":8402:8416   */\n  gt\n    /* \"#utility.yul\":8430:8431   */\n  0x01\n    /* \"#utility.yul\":8425:9043   */\n  dup2\n  eq\n  tag_169\n  jumpi\n    /* \"#utility.yul\":9087:9088   */\n  0x00\n    /* \"#utility.yul\":9104:9110   */\n  dup5\n    /* \"#utility.yul\":9101:9178   */\n  iszero\n  tag_170\n  jumpi\n    /* \"#utility.yul\":9153:9162   */\n  dup3\n    /* \"#utility.yul\":9148:9151   */\n  dup8\n    /* \"#utility.yul\":9144:9163   */\n  add\n    /* \"#utility.yul\":9138:9164   */\n  mload\n    /* \"#utility.yul\":9129:9164   */\n  swap1\n  pop\n    /* \"#utility.yul\":9101:9178   */\ntag_170:\n    /* \"#utility.yul\":9204:9271   */\n  tag_171\n    /* \"#utility.yul\":9264:9270   */\n  dup6\n    /* \"#utility.yul\":9257:9262   */\n  dup3\n    /* \"#utility.yul\":9204:9271   */\n  tag_67\n  jump\t// in\ntag_171:\n    /* \"#utility.yul\":9198:9202   */\n  dup7\n    /* \"#utility.yul\":9191:9272   */\n  sstore\n    /* \"#utility.yul\":9060:9282   */\n  pop\n    /* \"#utility.yul\":8395:9282   */\n  jump(tag_168)\n    /* \"#utility.yul\":8425:9043   */\ntag_169:\n    /* \"#utility.yul\":8477:8481   */\n  0x1f\n    /* \"#utility.yul\":8473:8482   */\n  not\n    /* \"#utility.yul\":8465:8471   */\n  dup5\n    /* \"#utility.yul\":8461:8483   */\n  and\n    /* \"#utility.yul\":8511:8548   */\n  tag_172\n    /* \"#utility.yul\":8543:8547   */\n  dup7\n    /* \"#utility.yul\":8511:8548   */\n  tag_52\n  jump\t// in\ntag_172:\n    /* \"#utility.yul\":8570:8571   */\n  0x00\n    /* \"#utility.yul\":8584:8792   */\ntag_173:\n    /* \"#utility.yul\":8598:8605   */\n  dup3\n    /* \"#utility.yul\":8595:8596   */\n  dup2\n    /* \"#utility.yul\":8592:8606   */\n  lt\n    /* \"#utility.yul\":8584:8792   */\n  iszero\n  tag_175\n  jumpi\n    /* \"#utility.yul\":8677:8686   */\n  dup5\n    /* \"#utility.yul\":8672:8675   */\n  dup10\n    /* \"#utility.yul\":8668:8687   */\n  add\n    /* \"#utility.yul\":8662:8688   */\n  mload\n    /* \"#utility.yul\":8654:8660   */\n  dup3\n    /* \"#utility.yul\":8647:8689   */\n  sstore\n    /* \"#utility.yul\":8728:8729   */\n  0x01\n    /* \"#utility.yul\":8720:8726   */\n  dup3\n    /* \"#utility.yul\":8716:8730   */\n  add\n    /* \"#utility.yul\":8706:8730   */\n  swap2\n  pop\n    /* \"#utility.yul\":8775:8777   */\n  0x20\n    /* \"#utility.yul\":8764:8773   */\n  dup6\n    /* \"#utility.yul\":8760:8778   */\n  add\n    /* \"#utility.yul\":8747:8778   */\n  swap5\n  pop\n    /* \"#utility.yul\":8621:8625   */\n  0x20\n    /* \"#utility.yul\":8618:8619   */\n  dup2\n    /* \"#utility.yul\":8614:8626   */\n  add\n    /* \"#utility.yul\":8609:8626   */\n  swap1\n  pop\n    /* \"#utility.yul\":8584:8792   */\n  jump(tag_173)\ntag_175:\n    /* \"#utility.yul\":8820:8826   */\n  dup7\n    /* \"#utility.yul\":8811:8818   */\n  dup4\n    /* \"#utility.yul\":8808:8827   */\n  lt\n    /* \"#utility.yul\":8805:8984   */\n  iszero\n  tag_176\n  jumpi\n    /* \"#utility.yul\":8878:8887   */\n  dup5\n    /* \"#utility.yul\":8873:8876   */\n  dup10\n    /* \"#utility.yul\":8869:8888   */\n  add\n    /* \"#utility.yul\":8863:8889   */\n  mload\n    /* \"#utility.yul\":8921:8969   */\n  tag_177\n    /* \"#utility.yul\":8963:8967   */\n  0x1f\n    /* \"#utility.yul\":8955:8961   */\n  dup10\n    /* \"#utility.yul\":8951:8968   */\n  and\n    /* \"#utility.yul\":8940:8949   */\n  dup3\n    /* \"#utility.yul\":8921:8969   */\n  tag_66\n  jump\t// in\ntag_177:\n    /* \"#utility.yul\":8913:8919   */\n  dup4\n    /* \"#utility.yul\":8906:8970   */\n  sstore\n    /* \"#utility.yul\":8828:8984   */\n  pop\n    /* \"#utility.yul\":8805:8984   */\ntag_176:\n    /* \"#utility.yul\":9030:9031   */\n  0x01\n    /* \"#utility.yul\":9026:9027   */\n  0x02\n    /* \"#utility.yul\":9018:9024   */\n  dup9\n    /* \"#utility.yul\":9014:9028   */\n  mul\n    /* \"#utility.yul\":9010:9032   */\n  add\n    /* \"#utility.yul\":9004:9008   */\n  dup9\n    /* \"#utility.yul\":8997:9033   */\n  sstore\n    /* \"#utility.yul\":8432:9043   */\n  pop\n  pop\n  pop\n    /* \"#utility.yul\":8395:9282   */\ntag_168:\n  pop\n    /* \"#utility.yul\":7985:9288   */\n  pop\n  pop\n  pop\n    /* \"#utility.yul\":7893:9288   */\n  pop\n  pop\n  jump\t// out\n    /* \"#utility.yul\":9294:9412   */\ntag_68:\n    /* \"#utility.yul\":9381:9405   */\n  tag_179\n    /* \"#utility.yul\":9399:9404   */\n  dup2\n    /* \"#utility.yul\":9381:9405   */\n  tag_46\n  jump\t// in\ntag_179:\n    /* \"#utility.yul\":9376:9379   */\n  dup3\n    /* \"#utility.yul\":9369:9406   */\n  mstore\n    /* \"#utility.yul\":9294:9412   */\n  pop\n  pop\n  jump\t// out\n    /* \"#utility.yul\":9418:9640   */\ntag_14:\n    /* \"#utility.yul\":9511:9515   */\n  0x00\n    /* \"#utility.yul\":9549:9551   */\n  0x20\n    /* \"#utility.yul\":9538:9547   */\n  dup3\n    /* \"#utility.yul\":9534:9552   */\n  add\n    /* \"#utility.yul\":9526:9552   */\n  swap1\n  pop\n    /* \"#utility.yul\":9562:9633   */\n  tag_181\n    /* \"#utility.yul\":9630:9631   */\n  0x00\n    /* \"#utility.yul\":9619:9628   */\n  dup4\n    /* \"#utility.yul\":9615:9632   */\n  add\n    /* \"#utility.yul\":9606:9612   */\n  dup5\n    /* \"#utility.yul\":9562:9633   */\n  tag_68\n  jump\t// in\ntag_181:\n    /* \"#utility.yul\":9418:9640   */\n  swap3\n  swap2\n  pop\n  pop\n  jump\t// out\n    /* \"#utility.yul\":9646:9997   */\ntag_21:\n    /* \"#utility.yul\":9716:9722   */\n  0x00\n    /* \"#utility.yul\":9765:9767   */\n  0x20\n    /* \"#utility.yul\":9753:9762   */\n  dup3\n    /* \"#utility.yul\":9744:9751   */\n  dup5\n    /* \"#utility.yul\":9740:9763   */\n  sub\n    /* \"#utility.yul\":9736:9768   */\n  slt\n    /* \"#utility.yul\":9733:9852   */\n  iszero\n  tag_183\n  jumpi\n    /* \"#utility.yul\":9771:9850   */\n  tag_184\n  tag_33\n  jump\t// in\ntag_184:\n    /* \"#utility.yul\":9733:9852   */\ntag_183:\n    /* \"#utility.yul\":9891:9892   */\n  0x00\n    /* \"#utility.yul\":9916:9980   */\n  tag_185\n    /* \"#utility.yul\":9972:9979   */\n  dup5\n    /* \"#utility.yul\":9963:9969   */\n  dup3\n    /* \"#utility.yul\":9952:9961   */\n  dup6\n    /* \"#utility.yul\":9948:9970   */\n  add\n    /* \"#utility.yul\":9916:9980   */\n  tag_48\n  jump\t// in\ntag_185:\n    /* \"#utility.yul\":9906:9980   */\n  swap2\n  pop\n    /* \"#utility.yul\":9862:9990   */\n  pop\n    /* \"#utility.yul\":9646:9997   */\n  swap3\n  swap2\n  pop\n  pop\n  jump\t// out\n    /* \"#utility.yul\":10003:10335   */\ntag_26:\n    /* \"#utility.yul\":10124:10128   */\n  0x00\n    /* \"#utility.yul\":10162:10164   */\n  0x40\n    /* \"#utility.yul\":10151:10160   */\n  dup3\n    /* \"#utility.yul\":10147:10165   */\n  add\n    /* \"#utility.yul\":10139:10165   */\n  swap1\n  pop\n    /* \"#utility.yul\":10175:10246   */\n  tag_187\n    /* \"#utility.yul\":10243:10244   */\n  0x00\n    /* \"#utility.yul\":10232:10241   */\n  dup4\n    /* \"#utility.yul\":10228:10245   */\n  add\n    /* \"#utility.yul\":10219:10225   */\n  dup6\n    /* \"#utility.yul\":10175:10246   */\n  tag_68\n  jump\t// in\ntag_187:\n    /* \"#utility.yul\":10256:10328   */\n  tag_188\n    /* \"#utility.yul\":10324:10326   */\n  0x20\n    /* \"#utility.yul\":10313:10322   */\n  dup4\n    /* \"#utility.yul\":10309:10327   */\n  add\n    /* \"#utility.yul\":10300:10306   */\n  dup5\n    /* \"#utility.yul\":10256:10328   */\n  tag_68\n  jump\t// in\ntag_188:\n    /* \"#utility.yul\":10003:10335   */\n  swap4\n  swap3\n  pop\n  pop\n  pop\n  jump\t// out\n    /* \"contracts/mem.sol\":348:4356  contract MemCoin is ERC20, Ownable {... */\ntag_30:\n  dataSize(sub_0)\n  dup1\n  dataOffset(sub_0)\n  0x00\n  codecopy\n  0x00\n  return\nstop\n\nsub_0: assembly {\n        /* \"contracts/mem.sol\":348:4356  contract MemCoin is ERC20, Ownable {... */\n      mstore(0x40, 0x80)\n      callvalue\n      dup1\n      iszero\n      tag_1\n      jumpi\n      revert(0x00, 0x00)\n    tag_1:\n      pop\n      jumpi(tag_2, lt(calldatasize, 0x04))\n      shr(0xe0, calldataload(0x00))\n      dup1\n      0x70a08231\n      gt\n      tag_29\n      jumpi\n      dup1\n      0xc647b20e\n      gt\n      tag_30\n      jumpi\n      dup1\n      0xcb4ca631\n      gt\n      tag_31\n      jumpi\n      dup1\n      0xcb4ca631\n      eq\n      tag_25\n      jumpi\n      dup1\n      0xcc1776d3\n      eq\n      tag_26\n      jumpi\n      dup1\n      0xdd62ed3e\n      eq\n      tag_27\n      jumpi\n      dup1\n      0xf2fde38b\n      eq\n      tag_28\n      jumpi\n      jump(tag_2)\n    tag_31:\n      dup1\n      0xc647b20e\n      eq\n      tag_22\n      jumpi\n      dup1\n      0xc6a30647\n      eq\n      tag_23\n      jumpi\n      dup1\n      0xc816841b\n      eq\n      tag_24\n      jumpi\n      jump(tag_2)\n    tag_30:\n      dup1\n      0x70a08231\n      eq\n      tag_16\n      jumpi\n      dup1\n      0x715018a6\n      eq\n      tag_17\n      jumpi\n      dup1\n      0x8da5cb5b\n      eq\n      tag_18\n      jumpi\n      dup1\n      0x95d89b41\n      eq\n      tag_19\n      jumpi\n      dup1\n      0xa9059cbb\n      eq\n      tag_20\n      jumpi\n      dup1\n      0xbeabacc8\n      eq\n      tag_21\n      jumpi\n      jump(tag_2)\n    tag_29:\n      dup1\n      0x2431ba73\n      gt\n      tag_32\n      jumpi\n      dup1\n      0x33727077\n      gt\n      tag_33\n      jumpi\n      dup1\n      0x33727077\n      eq\n      tag_12\n      jumpi\n      dup1\n      0x4e6fd6c4\n      eq\n      tag_13\n      jumpi\n      dup1\n      0x4f7041a5\n      eq\n      tag_14\n      jumpi\n      dup1\n      0x51c6590a\n      eq\n      tag_15\n      jumpi\n      jump(tag_2)\n    tag_33:\n      dup1\n      0x2431ba73\n      eq\n      tag_9\n      jumpi\n      dup1\n      0x2e1a7d4d\n      eq\n      tag_10\n      jumpi\n      dup1\n      0x313ce567\n      eq\n      tag_11\n      jumpi\n      jump(tag_2)\n    tag_32:\n      dup1\n      0x05bf0a54\n      eq\n      tag_3\n      jumpi\n      dup1\n      0x06fdde03\n      eq\n      tag_4\n      jumpi\n      dup1\n      0x095ea7b3\n      eq\n      tag_5\n      jumpi\n      dup1\n      0x15291cd4\n      eq\n      tag_6\n      jumpi\n      dup1\n      0x18160ddd\n      eq\n      tag_7\n      jumpi\n      dup1\n      0x23b872dd\n      eq\n      tag_8\n      jumpi\n    tag_2:\n      revert(0x00, 0x00)\n        /* \"contracts/mem.sol\":686:715  uint256 public burnShare = 20 */\n    tag_3:\n      tag_34\n      tag_35\n      jump\t// in\n    tag_34:\n      mload(0x40)\n      tag_36\n      swap2\n      swap1\n      tag_37\n      jump\t// in\n    tag_36:\n      mload(0x40)\n      dup1\n      swap2\n      sub\n      swap1\n      return\n        /* \"@openzeppelin/contracts/token/ERC20/ERC20.sol\":1779:1868  function name() public view virtual returns (string memory) {... */\n    tag_4:\n      tag_38\n      tag_39\n      jump\t// in\n    tag_38:\n      mload(0x40)\n      tag_40\n      swap2\n      swap1\n      tag_41\n      jump\t// in\n    tag_40:\n      mload(0x40)\n      dup1\n      swap2\n      sub\n      swap1\n      return\n        /* \"@openzeppelin/contracts/token/ERC20/ERC20.sol\":3998:4184  function approve(address spender, uint256 value) public virtual returns (bool) {... */\n    tag_5:\n      tag_42\n      0x04\n      dup1\n      calldatasize\n      sub\n      dup2\n      add\n      swap1\n      tag_43\n      swap2\n      swap1\n      tag_44\n      jump\t// in\n    tag_43:\n      tag_45\n      jump\t// in\n    tag_42:\n      mload(0x40)\n      tag_46\n      swap2\n      swap1\n      tag_47\n      jump\t// in\n    tag_46:\n      mload(0x40)\n      dup1\n      swap2\n      sub\n      swap1\n      return\n        /* \"contracts/mem.sol\":645:679  uint256 public liquidityShare = 50 */\n    tag_6:\n      tag_48\n      tag_49\n      jump\t// in\n    tag_48:\n      mload(0x40)\n      tag_50\n      swap2\n      swap1\n      tag_37\n      jump\t// in\n    tag_50:\n      mload(0x40)\n      dup1\n      swap2\n      sub\n      swap1\n      return\n        /* \"@openzeppelin/contracts/token/ERC20/ERC20.sol\":2849:2946  function totalSupply() public view virtual returns (uint256) {... */\n    tag_7:\n      tag_51\n      tag_52\n      jump\t// in\n    tag_51:\n      mload(0x40)\n      tag_53\n      swap2\n      swap1\n      tag_37\n      jump\t// in\n    tag_53:\n      mload(0x40)\n      dup1\n      swap2\n      sub\n      swap1\n      return\n        /* \"@openzeppelin/contracts/token/ERC20/ERC20.sol\":4776:5020  function transferFrom(address from, address to, uint256 value) public virtual returns (bool) {... */\n    tag_8:\n      tag_54\n      0x04\n      dup1\n      calldatasize\n      sub\n      dup2\n      add\n      swap1\n      tag_55\n      swap2\n      swap1\n      tag_56\n      jump\t// in\n    tag_55:\n      tag_57\n      jump\t// in\n    tag_54:\n      mload(0x40)\n      tag_58\n      swap2\n      swap1\n      tag_47\n      jump\t// in\n    tag_58:\n      mload(0x40)\n      dup1\n      swap2\n      sub\n      swap1\n      return\n        /* \"contracts/mem.sol\":763:802  IUniswapV2Router02 public uniswaprouter */\n    tag_9:\n      tag_59\n      tag_60\n      jump\t// in\n    tag_59:\n      mload(0x40)\n      tag_61\n      swap2\n      swap1\n      tag_62\n      jump\t// in\n    tag_61:\n      mload(0x40)\n      dup1\n      swap2\n      sub\n      swap1\n      return\n        /* \"contracts/mem.sol\":3711:4005  function withdraw(uint256 amount) external onlyOwner {... */\n    tag_10:\n      tag_63\n      0x04\n      dup1\n      calldatasize\n      sub\n      dup2\n      add\n      swap1\n      tag_64\n      swap2\n      swap1\n      tag_65\n      jump\t// in\n    tag_64:\n      tag_66\n      jump\t// in\n    tag_63:\n      stop\n        /* \"@openzeppelin/contracts/token/ERC20/ERC20.sol\":2707:2789  function decimals() public view virtual returns (uint8) {... */\n    tag_11:\n      tag_67\n      tag_68\n      jump\t// in\n    tag_67:\n      mload(0x40)\n      tag_69\n      swap2\n      swap1\n      tag_70\n      jump\t// in\n    tag_69:\n      mload(0x40)\n      dup1\n      swap2\n      sub\n      swap1\n      return\n        /* \"contracts/mem.sol\":722:754  uint256 public rewardsShare = 30 */\n    tag_12:\n      tag_71\n      tag_72\n      jump\t// in\n    tag_71:\n      mload(0x40)\n      tag_73\n      swap2\n      swap1\n      tag_37\n      jump\t// in\n    tag_73:\n      mload(0x40)\n      dup1\n      swap2\n      sub\n      swap1\n      return\n        /* \"contracts/mem.sol\":842:923  address public constant DEAD_ADDRESS = 0x000000000000000000000000000000000000dEaD */\n    tag_13:\n      tag_74\n      tag_75\n      jump\t// in\n    tag_74:\n      mload(0x40)\n      tag_76\n      swap2\n      swap1\n      tag_77\n      jump\t// in\n    tag_76:\n      mload(0x40)\n      dup1\n      swap2\n      sub\n      swap1\n      return\n        /* \"contracts/mem.sol\":579:604  uint256 public buyTax = 5 */\n    tag_14:\n      tag_78\n      tag_79\n      jump\t// in\n    tag_78:\n      mload(0x40)\n      tag_80\n      swap2\n      swap1\n      tag_37\n      jump\t// in\n    tag_80:\n      mload(0x40)\n      dup1\n      swap2\n      sub\n      swap1\n      return\n        /* \"contracts/mem.sol\":3205:3701  function addLiquidity(uint256 tokenAmount) external onlyOwner {... */\n    tag_15:\n      tag_81\n      0x04\n      dup1\n      calldatasize\n      sub\n      dup2\n      add\n      swap1\n      tag_82\n      swap2\n      swap1\n      tag_65\n      jump\t// in\n    tag_82:\n      tag_83\n      jump\t// in\n    tag_81:\n      stop\n        /* \"@openzeppelin/contracts/token/ERC20/ERC20.sol\":3004:3120  function balanceOf(address account) public view virtual returns (uint256) {... */\n    tag_16:\n      tag_84\n      0x04\n      dup1\n      calldatasize\n      sub\n      dup2\n      add\n      swap1\n      tag_85\n      swap2\n      swap1\n      tag_86\n      jump\t// in\n    tag_85:\n      tag_87\n      jump\t// in\n    tag_84:\n      mload(0x40)\n      tag_88\n      swap2\n      swap1\n      tag_37\n      jump\t// in\n    tag_88:\n      mload(0x40)\n      dup1\n      swap2\n      sub\n      swap1\n      return\n        /* \"@openzeppelin/contracts/access/Ownable.sol\":2293:2394  function renounceOwnership() public virtual onlyOwner {... */\n    tag_17:\n      tag_89\n      tag_90\n      jump\t// in\n    tag_89:\n      stop\n        /* \"@openzeppelin/contracts/access/Ownable.sol\":1638:1723  function owner() public view virtual returns (address) {... */\n    tag_18:\n      tag_91\n      tag_92\n      jump\t// in\n    tag_91:\n      mload(0x40)\n      tag_93\n      swap2\n      swap1\n      tag_77\n      jump\t// in\n    tag_93:\n      mload(0x40)\n      dup1\n      swap2\n      sub\n      swap1\n      return\n        /* \"@openzeppelin/contracts/token/ERC20/ERC20.sol\":1981:2074  function symbol() public view virtual returns (string memory) {... */\n    tag_19:\n      tag_94\n      tag_95\n      jump\t// in\n    tag_94:\n      mload(0x40)\n      tag_96\n      swap2\n      swap1\n      tag_41\n      jump\t// in\n    tag_96:\n      mload(0x40)\n      dup1\n      swap2\n      sub\n      swap1\n      return\n        /* \"@openzeppelin/contracts/token/ERC20/ERC20.sol\":3315:3493  function transfer(address to, uint256 value) public virtual returns (bool) {... */\n    tag_20:\n      tag_97\n      0x04\n      dup1\n      calldatasize\n      sub\n      dup2\n      add\n      swap1\n      tag_98\n      swap2\n      swap1\n      tag_44\n      jump\t// in\n    tag_98:\n      tag_99\n      jump\t// in\n    tag_97:\n      mload(0x40)\n      tag_100\n      swap2\n      swap1\n      tag_47\n      jump\t// in\n    tag_100:\n      mload(0x40)\n      dup1\n      swap2\n      sub\n      swap1\n      return\n        /* \"contracts/mem.sol\":1611:3034  function transfer(address sender, address recipient, uint256 amount) external{... */\n    tag_21:\n      tag_101\n      0x04\n      dup1\n      calldatasize\n      sub\n      dup2\n      add\n      swap1\n      tag_102\n      swap2\n      swap1\n      tag_56\n      jump\t// in\n    tag_102:\n      tag_103\n      jump\t// in\n    tag_101:\n      stop\n        /* \"contracts/mem.sol\":4152:4353  function setTaxes(uint256 _buyTax, uint256 _sellTax) external onlyOwner {... */\n    tag_22:\n      tag_104\n      0x04\n      dup1\n      calldatasize\n      sub\n      dup2\n      add\n      swap1\n      tag_105\n      swap2\n      swap1\n      tag_106\n      jump\t// in\n    tag_105:\n      tag_107\n      jump\t// in\n    tag_104:\n      stop\n        /* \"contracts/mem.sol\":4013:4144  function excludeFromTax(address account, bool excluded) external onlyOwner {... */\n    tag_23:\n      tag_108\n      0x04\n      dup1\n      calldatasize\n      sub\n      dup2\n      add\n      swap1\n      tag_109\n      swap2\n      swap1\n      tag_110\n      jump\t// in\n    tag_109:\n      tag_111\n      jump\t// in\n    tag_108:\n      stop\n        /* \"contracts/mem.sol\":809:835  address public uniswapPair */\n    tag_24:\n      tag_112\n      tag_113\n      jump\t// in\n    tag_112:\n      mload(0x40)\n      tag_114\n      swap2\n      swap1\n      tag_77\n      jump\t// in\n    tag_114:\n      mload(0x40)\n      dup1\n      swap2\n      sub\n      swap1\n      return\n        /* \"contracts/mem.sol\":932:981  mapping(address => bool) public isExcludedFromTax */\n    tag_25:\n      tag_115\n      0x04\n      dup1\n      calldatasize\n      sub\n      dup2\n      add\n      swap1\n      tag_116\n      swap2\n      swap1\n      tag_86\n      jump\t// in\n    tag_116:\n      tag_117\n      jump\t// in\n    tag_115:\n      mload(0x40)\n      tag_118\n      swap2\n      swap1\n      tag_47\n      jump\t// in\n    tag_118:\n      mload(0x40)\n      dup1\n      swap2\n      sub\n      swap1\n      return\n        /* \"contracts/mem.sol\":611:638  uint256 public sellTax = 10 */\n    tag_26:\n      tag_119\n      tag_120\n      jump\t// in\n    tag_119:\n      mload(0x40)\n      tag_121\n      swap2\n      swap1\n      tag_37\n      jump\t// in\n    tag_121:\n      mload(0x40)\n      dup1\n      swap2\n      sub\n      swap1\n      return\n        /* \"@openzeppelin/contracts/token/ERC20/ERC20.sol\":3551:3691  function allowance(address owner, address spender) public view virtual returns (uint256) {... */\n    tag_27:\n      tag_122\n      0x04\n      dup1\n      calldatasize\n      sub\n      dup2\n      add\n      swap1\n      tag_123\n      swap2\n      swap1\n      tag_124\n      jump\t// in\n    tag_123:\n      tag_125\n      jump\t// in\n    tag_122:\n      mload(0x40)\n      tag_126\n      swap2\n      swap1\n      tag_37\n      jump\t// in\n    tag_126:\n      mload(0x40)\n      dup1\n      swap2\n      sub\n      swap1\n      return\n        /* \"@openzeppelin/contracts/access/Ownable.sol\":2543:2758  function transferOwnership(address newOwner) public virtual onlyOwner {... */\n    tag_28:\n      tag_127\n      0x04\n      dup1\n      calldatasize\n      sub\n      dup2\n      add\n      swap1\n      tag_128\n      swap2\n      swap1\n      tag_86\n      jump\t// in\n    tag_128:\n      tag_129\n      jump\t// in\n    tag_127:\n      stop\n        /* \"contracts/mem.sol\":686:715  uint256 public burnShare = 20 */\n    tag_35:\n      sload(0x09)\n      dup2\n      jump\t// out\n        /* \"@openzeppelin/contracts/token/ERC20/ERC20.sol\":1779:1868  function name() public view virtual returns (string memory) {... */\n    tag_39:\n        /* \"@openzeppelin/contracts/token/ERC20/ERC20.sol\":1824:1837  string memory */\n      0x60\n        /* \"@openzeppelin/contracts/token/ERC20/ERC20.sol\":1856:1861  _name */\n      0x03\n        /* \"@openzeppelin/contracts/token/ERC20/ERC20.sol\":1849:1861  return _name */\n      dup1\n      sload\n      tag_131\n      swap1\n      tag_132\n      jump\t// in\n    tag_131:\n      dup1\n      0x1f\n      add\n      0x20\n      dup1\n      swap2\n      div\n      mul\n      0x20\n      add\n      mload(0x40)\n      swap1\n      dup2\n      add\n      0x40\n      mstore\n      dup1\n      swap3\n      swap2\n      swap1\n      dup2\n      dup2\n      mstore\n      0x20\n      add\n      dup3\n      dup1\n      sload\n      tag_133\n      swap1\n      tag_132\n      jump\t// in\n    tag_133:\n      dup1\n      iszero\n      tag_134\n      jumpi\n      dup1\n      0x1f\n      lt\n      tag_135\n      jumpi\n      0x0100\n      dup1\n      dup4\n      sload\n      div\n      mul\n      dup4\n      mstore\n      swap2\n      0x20\n      add\n      swap2\n      jump(tag_134)\n    tag_135:\n      dup3\n      add\n      swap2\n      swap1\n      0x00\n      mstore\n      keccak256(0x00, 0x20)\n      swap1\n    tag_136:\n      dup2\n      sload\n      dup2\n      mstore\n      swap1\n      0x01\n      add\n      swap1\n      0x20\n      add\n      dup1\n      dup4\n      gt\n      tag_136\n      jumpi\n      dup3\n      swap1\n      sub\n      0x1f\n      and\n      dup3\n      add\n      swap2\n    tag_134:\n      pop\n      pop\n      pop\n      pop\n      pop\n      swap1\n      pop\n        /* \"@openzeppelin/contracts/token/ERC20/ERC20.sol\":1779:1868  function name() public view virtual returns (string memory) {... */\n      swap1\n      jump\t// out\n        /* \"@openzeppelin/contracts/token/ERC20/ERC20.sol\":3998:4184  function approve(address spender, uint256 value) public virtual returns (bool) {... */\n    tag_45:\n        /* \"@openzeppelin/contracts/token/ERC20/ERC20.sol\":4071:4075  bool */\n      0x00\n        /* \"@openzeppelin/contracts/token/ERC20/ERC20.sol\":4087:4100  address owner */\n      0x00\n        /* \"@openzeppelin/contracts/token/ERC20/ERC20.sol\":4103:4115  _msgSender() */\n      tag_138\n        /* \"@openzeppelin/contracts/token/ERC20/ERC20.sol\":4103:4113  _msgSender */\n      tag_139\n        /* \"@openzeppelin/contracts/token/ERC20/ERC20.sol\":4103:4115  _msgSender() */\n      jump\t// in\n    tag_138:\n        /* \"@openzeppelin/contracts/token/ERC20/ERC20.sol\":4087:4115  address owner = _msgSender() */\n      swap1\n      pop\n        /* \"@openzeppelin/contracts/token/ERC20/ERC20.sol\":4125:4156  _approve(owner, spender, value) */\n      tag_140\n        /* \"@openzeppelin/contracts/token/ERC20/ERC20.sol\":4134:4139  owner */\n      dup2\n        /* \"@openzeppelin/contracts/token/ERC20/ERC20.sol\":4141:4148  spender */\n      dup6\n        /* \"@openzeppelin/contracts/token/ERC20/ERC20.sol\":4150:4155  value */\n      dup6\n        /* \"@openzeppelin/contracts/token/ERC20/ERC20.sol\":4125:4133  _approve */\n      tag_141\n        /* \"@openzeppelin/contracts/token/ERC20/ERC20.sol\":4125:4156  _approve(owner, spender, value) */\n      jump\t// in\n    tag_140:\n        /* \"@openzeppelin/contracts/token/ERC20/ERC20.sol\":4173:4177  true */\n      0x01\n        /* \"@openzeppelin/contracts/token/ERC20/ERC20.sol\":4166:4177  return true */\n      swap2\n      pop\n      pop\n        /* \"@openzeppelin/contracts/token/ERC20/ERC20.sol\":3998:4184  function approve(address spender, uint256 value) public virtual returns (bool) {... */\n      swap3\n      swap2\n      pop\n      pop\n      jump\t// out\n        /* \"contracts/mem.sol\":645:679  uint256 public liquidityShare = 50 */\n    tag_49:\n      sload(0x08)\n      dup2\n      jump\t// out\n        /* \"@openzeppelin/contracts/token/ERC20/ERC20.sol\":2849:2946  function totalSupply() public view virtual returns (uint256) {... */\n    tag_52:\n        /* \"@openzeppelin/contracts/token/ERC20/ERC20.sol\":2901:2908  uint256 */\n      0x00\n        /* \"@openzeppelin/contracts/token/ERC20/ERC20.sol\":2927:2939  _totalSupply */\n      sload(0x02)\n        /* \"@openzeppelin/contracts/token/ERC20/ERC20.sol\":2920:2939  return _totalSupply */\n      swap1\n      pop\n        /* \"@openzeppelin/contracts/token/ERC20/ERC20.sol\":2849:2946  function totalSupply() public view virtual returns (uint256) {... */\n      swap1\n      jump\t// out\n        /* \"@openzeppelin/contracts/token/ERC20/ERC20.sol\":4776:5020  function transferFrom(address from, address to, uint256 value) public virtual returns (bool) {... */\n    tag_57:\n        /* \"@openzeppelin/contracts/token/ERC20/ERC20.sol\":4863:4867  bool */\n      0x00\n        /* \"@openzeppelin/contracts/token/ERC20/ERC20.sol\":4879:4894  address spender */\n      0x00\n        /* \"@openzeppelin/contracts/token/ERC20/ERC20.sol\":4897:4909  _msgSender() */\n      tag_144\n        /* \"@openzeppelin/contracts/token/ERC20/ERC20.sol\":4897:4907  _msgSender */\n      tag_139\n        /* \"@openzeppelin/contracts/token/ERC20/ERC20.sol\":4897:4909  _msgSender() */\n      jump\t// in\n    tag_144:\n        /* \"@openzeppelin/contracts/token/ERC20/ERC20.sol\":4879:4909  address spender = _msgSender() */\n      swap1\n      pop\n        /* \"@openzeppelin/contracts/token/ERC20/ERC20.sol\":4919:4956  _spendAllowance(from, spender, value) */\n      tag_145\n        /* \"@openzeppelin/contracts/token/ERC20/ERC20.sol\":4935:4939  from */\n      dup6\n        /* \"@openzeppelin/contracts/token/ERC20/ERC20.sol\":4941:4948  spender */\n      dup3\n        /* \"@openzeppelin/contracts/token/ERC20/ERC20.sol\":4950:4955  value */\n      dup6\n        /* \"@openzeppelin/contracts/token/ERC20/ERC20.sol\":4919:4934  _spendAllowance */\n      tag_146\n        /* \"@openzeppelin/contracts/token/ERC20/ERC20.sol\":4919:4956  _spendAllowance(from, spender, value) */\n      jump\t// in\n    tag_145:\n        /* \"@openzeppelin/contracts/token/ERC20/ERC20.sol\":4966:4992  _transfer(from, to, value) */\n      tag_147\n        /* \"@openzeppelin/contracts/token/ERC20/ERC20.sol\":4976:4980  from */\n      dup6\n        /* \"@openzeppelin/contracts/token/ERC20/ERC20.sol\":4982:4984  to */\n      dup6\n        /* \"@openzeppelin/contracts/token/ERC20/ERC20.sol\":4986:4991  value */\n      dup6\n        /* \"@openzeppelin/contracts/token/ERC20/ERC20.sol\":4966:4975  _transfer */\n      tag_148\n        /* \"@openzeppelin/contracts/token/ERC20/ERC20.sol\":4966:4992  _transfer(from, to, value) */\n      jump\t// in\n    tag_147:\n        /* \"@openzeppelin/contracts/token/ERC20/ERC20.sol\":5009:5013  true */\n      0x01\n        /* \"@openzeppelin/contracts/token/ERC20/ERC20.sol\":5002:5013  return true */\n      swap2\n      pop\n      pop\n        /* \"@openzeppelin/contracts/token/ERC20/ERC20.sol\":4776:5020  function transferFrom(address from, address to, uint256 value) public virtual returns (bool) {... */\n      swap4\n      swap3\n      pop\n      pop\n      pop\n      jump\t// out\n        /* \"contracts/mem.sol\":763:802  IUniswapV2Router02 public uniswaprouter */\n    tag_60:\n      0x0b\n      0x00\n      swap1\n      sload\n      swap1\n      0x0100\n      exp\n      swap1\n      div\n      0xffffffffffffffffffffffffffffffffffffffff\n      and\n      dup2\n      jump\t// out\n        /* \"contracts/mem.sol\":3711:4005  function withdraw(uint256 amount) external onlyOwner {... */\n    tag_66:\n        /* \"@openzeppelin/contracts/access/Ownable.sol\":1531:1544  _checkOwner() */\n      tag_150\n        /* \"@openzeppelin/contracts/access/Ownable.sol\":1531:1542  _checkOwner */\n      tag_151\n        /* \"@openzeppelin/contracts/access/Ownable.sol\":1531:1544  _checkOwner() */\n      jump\t// in\n    tag_150:\n        /* \"contracts/mem.sol\":3805:3806  0 */\n      0x00\n        /* \"contracts/mem.sol\":3783:3807  msg.sender != address(0) */\n      0xffffffffffffffffffffffffffffffffffffffff\n      and\n        /* \"contracts/mem.sol\":3783:3793  msg.sender */\n      caller\n        /* \"contracts/mem.sol\":3783:3807  msg.sender != address(0) */\n      0xffffffffffffffffffffffffffffffffffffffff\n      and\n      sub\n        /* \"contracts/mem.sol\":3775:3826  require(msg.sender != address(0), TransferToZero()) */\n      tag_153\n      jumpi\n      mload(0x40)\n      0xa38ca3d900000000000000000000000000000000000000000000000000000000\n      dup2\n      mstore\n      0x04\n      add\n      mload(0x40)\n      dup1\n      swap2\n      sub\n      swap1\n      revert\n    tag_153:\n        /* \"contracts/mem.sol\":3855:3876  address(this).balance */\n      selfbalance\n        /* \"contracts/mem.sol\":3845:3851  amount */\n      dup2\n        /* \"contracts/mem.sol\":3845:3876  amount <= address(this).balance */\n      gt\n      iszero\n        /* \"contracts/mem.sol\":3837:3898  require(amount <= address(this).balance, InsufficientFunds()) */\n      tag_154\n      jumpi\n      mload(0x40)\n      0x356680b700000000000000000000000000000000000000000000000000000000\n      dup2\n      mstore\n      0x04\n      add\n      mload(0x40)\n      dup1\n      swap2\n      sub\n      swap1\n      revert\n    tag_154:\n        /* \"contracts/mem.sol\":3911:3926  uint256 balance */\n      0x00\n        /* \"contracts/mem.sol\":3929:3950  address(this).balance */\n      selfbalance\n        /* \"contracts/mem.sol\":3911:3950  uint256 balance = address(this).balance */\n      swap1\n      pop\n        /* \"contracts/mem.sol\":3971:3978  owner() */\n      tag_155\n        /* \"contracts/mem.sol\":3971:3976  owner */\n      tag_92\n        /* \"contracts/mem.sol\":3971:3978  owner() */\n      jump\t// in\n    tag_155:\n        /* \"contracts/mem.sol\":3963:3988  payable(owner()).transfer */\n      0xffffffffffffffffffffffffffffffffffffffff\n      and\n        /* \"contracts/mem.sol\":3963:3997  payable(owner()).transfer(balance) */\n      0x08fc\n        /* \"contracts/mem.sol\":3989:3996  balance */\n      dup3\n        /* \"contracts/mem.sol\":3963:3997  payable(owner()).transfer(balance) */\n      swap1\n      dup2\n      iszero\n      mul\n      swap1\n      mload(0x40)\n      0x00\n      mload(0x40)\n      dup1\n      dup4\n      sub\n      dup2\n      dup6\n      dup9\n      dup9\n      call\n      swap4\n      pop\n      pop\n      pop\n      pop\n      iszero\n      dup1\n      iszero\n      tag_157\n      jumpi\n      returndatacopy(0x00, 0x00, returndatasize)\n      revert(0x00, returndatasize)\n    tag_157:\n      pop\n        /* \"contracts/mem.sol\":3764:4005  {... */\n      pop\n        /* \"contracts/mem.sol\":3711:4005  function withdraw(uint256 amount) external onlyOwner {... */\n      pop\n      jump\t// out\n        /* \"@openzeppelin/contracts/token/ERC20/ERC20.sol\":2707:2789  function decimals() public view virtual returns (uint8) {... */\n    tag_68:\n        /* \"@openzeppelin/contracts/token/ERC20/ERC20.sol\":2756:2761  uint8 */\n      0x00\n        /* \"@openzeppelin/contracts/token/ERC20/ERC20.sol\":2780:2782  18 */\n      0x12\n        /* \"@openzeppelin/contracts/token/ERC20/ERC20.sol\":2773:2782  return 18 */\n      swap1\n      pop\n        /* \"@openzeppelin/contracts/token/ERC20/ERC20.sol\":2707:2789  function decimals() public view virtual returns (uint8) {... */\n      swap1\n      jump\t// out\n        /* \"contracts/mem.sol\":722:754  uint256 public rewardsShare = 30 */\n    tag_72:\n      sload(0x0a)\n      dup2\n      jump\t// out\n        /* \"contracts/mem.sol\":842:923  address public constant DEAD_ADDRESS = 0x000000000000000000000000000000000000dEaD */\n    tag_75:\n        /* \"contracts/mem.sol\":881:923  0x000000000000000000000000000000000000dEaD */\n      0xdead\n        /* \"contracts/mem.sol\":842:923  address public constant DEAD_ADDRESS = 0x000000000000000000000000000000000000dEaD */\n      dup2\n      jump\t// out\n        /* \"contracts/mem.sol\":579:604  uint256 public buyTax = 5 */\n    tag_79:\n      sload(0x06)\n      dup2\n      jump\t// out\n        /* \"contracts/mem.sol\":3205:3701  function addLiquidity(uint256 tokenAmount) external onlyOwner {... */\n    tag_83:\n        /* \"@openzeppelin/contracts/access/Ownable.sol\":1531:1544  _checkOwner() */\n      tag_160\n        /* \"@openzeppelin/contracts/access/Ownable.sol\":1531:1542  _checkOwner */\n      tag_151\n        /* \"@openzeppelin/contracts/access/Ownable.sol\":1531:1544  _checkOwner() */\n      jump\t// in\n    tag_160:\n        /* \"contracts/mem.sol\":3300:3301  0 */\n      0x00\n        /* \"contracts/mem.sol\":3286:3297  tokenAmount */\n      dup2\n        /* \"contracts/mem.sol\":3286:3301  tokenAmount > 0 */\n      gt\n        /* \"contracts/mem.sol\":3278:3331  require(tokenAmount > 0, TokenAmountMustBePositive()) */\n      tag_162\n      jumpi\n      mload(0x40)\n      0x671d94d800000000000000000000000000000000000000000000000000000000\n      dup2\n      mstore\n      0x04\n      add\n      mload(0x40)\n      dup1\n      swap2\n      sub\n      swap1\n      revert\n    tag_162:\n        /* \"contracts/mem.sol\":3344:3404  _approve(address(this), address(uniswaprouter), tokenAmount) */\n      tag_163\n        /* \"contracts/mem.sol\":3361:3365  this */\n      address\n        /* \"contracts/mem.sol\":3376:3389  uniswaprouter */\n      0x0b\n      0x00\n      swap1\n      sload\n      swap1\n      0x0100\n      exp\n      swap1\n      div\n      0xffffffffffffffffffffffffffffffffffffffff\n      and\n        /* \"contracts/mem.sol\":3392:3403  tokenAmount */\n      dup4\n        /* \"contracts/mem.sol\":3344:3352  _approve */\n      tag_141\n        /* \"contracts/mem.sol\":3344:3404  _approve(address(this), address(uniswaprouter), tokenAmount) */\n      jump\t// in\n    tag_163:\n        /* \"contracts/mem.sol\":3417:3430  uniswaprouter */\n      0x0b\n      0x00\n      swap1\n      sload\n      swap1\n      0x0100\n      exp\n      swap1\n      div\n      0xffffffffffffffffffffffffffffffffffffffff\n      and\n        /* \"contracts/mem.sol\":3417:3446  uniswaprouter.addLiquidityETH */\n      0xffffffffffffffffffffffffffffffffffffffff\n      and\n      0xf305d719\n        /* \"contracts/mem.sol\":3454:3475  address(this).balance */\n      selfbalance\n        /* \"contracts/mem.sol\":3499:3503  this */\n      address\n        /* \"contracts/mem.sol\":3519:3530  tokenAmount */\n      dup5\n        /* \"contracts/mem.sol\":3545:3546  0 */\n      0x00\n        /* \"contracts/mem.sol\":3561:3562  0 */\n      0x00\n        /* \"contracts/mem.sol\":3577:3584  owner() */\n      tag_164\n        /* \"contracts/mem.sol\":3577:3582  owner */\n      tag_92\n        /* \"contracts/mem.sol\":3577:3584  owner() */\n      jump\t// in\n    tag_164:\n        /* \"contracts/mem.sol\":3599:3614  block.timestamp */\n      timestamp\n        /* \"contracts/mem.sol\":3417:3625  uniswaprouter.addLiquidityETH{value: address(this).balance}(... */\n      mload(0x40)\n      dup9\n      0xffffffff\n      and\n      0xe0\n      shl\n      dup2\n      mstore\n      0x04\n      add\n      tag_165\n      swap7\n      swap6\n      swap5\n      swap4\n      swap3\n      swap2\n      swap1\n      tag_166\n      jump\t// in\n    tag_165:\n      0x60\n      mload(0x40)\n      dup1\n      dup4\n      sub\n      dup2\n      dup6\n      dup9\n      gas\n      call\n      iszero\n      dup1\n      iszero\n      tag_168\n      jumpi\n      returndatacopy(0x00, 0x00, returndatasize)\n      revert(0x00, returndatasize)\n    tag_168:\n      pop\n      pop\n      pop\n      pop\n      pop\n      mload(0x40)\n      returndatasize\n      not(0x1f)\n      0x1f\n      dup3\n      add\n      and\n      dup3\n      add\n      dup1\n      0x40\n      mstore\n      pop\n      dup2\n      add\n      swap1\n      tag_169\n      swap2\n      swap1\n      tag_170\n      jump\t// in\n    tag_169:\n      pop\n      pop\n      pop\n        /* \"contracts/mem.sol\":3643:3693  LiquidityAdded(tokenAmount, address(this).balance) */\n      0x38f8a0c92f4c5b0b6877f878cb4c0c8d348a47b76d716c8e78f425043df9515b\n        /* \"contracts/mem.sol\":3658:3669  tokenAmount */\n      dup2\n        /* \"contracts/mem.sol\":3671:3692  address(this).balance */\n      selfbalance\n        /* \"contracts/mem.sol\":3643:3693  LiquidityAdded(tokenAmount, address(this).balance) */\n      mload(0x40)\n      tag_171\n      swap3\n      swap2\n      swap1\n      tag_172\n      jump\t// in\n    tag_171:\n      mload(0x40)\n      dup1\n      swap2\n      sub\n      swap1\n      log1\n        /* \"contracts/mem.sol\":3205:3701  function addLiquidity(uint256 tokenAmount) external onlyOwner {... */\n      pop\n      jump\t// out\n        /* \"@openzeppelin/contracts/token/ERC20/ERC20.sol\":3004:3120  function balanceOf(address account) public view virtual returns (uint256) {... */\n    tag_87:\n        /* \"@openzeppelin/contracts/token/ERC20/ERC20.sol\":3069:3076  uint256 */\n      0x00\n        /* \"@openzeppelin/contracts/token/ERC20/ERC20.sol\":3095:3104  _balances */\n      0x00\n        /* \"@openzeppelin/contracts/token/ERC20/ERC20.sol\":3095:3113  _balances[account] */\n      0x00\n        /* \"@openzeppelin/contracts/token/ERC20/ERC20.sol\":3105:3112  account */\n      dup4\n        /* \"@openzeppelin/contracts/token/ERC20/ERC20.sol\":3095:3113  _balances[account] */\n      0xffffffffffffffffffffffffffffffffffffffff\n      and\n      0xffffffffffffffffffffffffffffffffffffffff\n      and\n      dup2\n      mstore\n      0x20\n      add\n      swap1\n      dup2\n      mstore\n      0x20\n      add\n      0x00\n      keccak256\n      sload\n        /* \"@openzeppelin/contracts/token/ERC20/ERC20.sol\":3088:3113  return _balances[account] */\n      swap1\n      pop\n        /* \"@openzeppelin/contracts/token/ERC20/ERC20.sol\":3004:3120  function balanceOf(address account) public view virtual returns (uint256) {... */\n      swap2\n      swap1\n      pop\n      jump\t// out\n        /* \"@openzeppelin/contracts/access/Ownable.sol\":2293:2394  function renounceOwnership() public virtual onlyOwner {... */\n    tag_90:\n        /* \"@openzeppelin/contracts/access/Ownable.sol\":1531:1544  _checkOwner() */\n      tag_175\n        /* \"@openzeppelin/contracts/access/Ownable.sol\":1531:1542  _checkOwner */\n      tag_151\n        /* \"@openzeppelin/contracts/access/Ownable.sol\":1531:1544  _checkOwner() */\n      jump\t// in\n    tag_175:\n        /* \"@openzeppelin/contracts/access/Ownable.sol\":2357:2387  _transferOwnership(address(0)) */\n      tag_177\n        /* \"@openzeppelin/contracts/access/Ownable.sol\":2384:2385  0 */\n      0x00\n        /* \"@openzeppelin/contracts/access/Ownable.sol\":2357:2375  _transferOwnership */\n      tag_178\n        /* \"@openzeppelin/contracts/access/Ownable.sol\":2357:2387  _transferOwnership(address(0)) */\n      jump\t// in\n    tag_177:\n        /* \"@openzeppelin/contracts/access/Ownable.sol\":2293:2394  function renounceOwnership() public virtual onlyOwner {... */\n      jump\t// out\n        /* \"@openzeppelin/contracts/access/Ownable.sol\":1638:1723  function owner() public view virtual returns (address) {... */\n    tag_92:\n        /* \"@openzeppelin/contracts/access/Ownable.sol\":1684:1691  address */\n      0x00\n        /* \"@openzeppelin/contracts/access/Ownable.sol\":1710:1716  _owner */\n      0x05\n      0x00\n      swap1\n      sload\n      swap1\n      0x0100\n      exp\n      swap1\n      div\n      0xffffffffffffffffffffffffffffffffffffffff\n      and\n        /* \"@openzeppelin/contracts/access/Ownable.sol\":1703:1716  return _owner */\n      swap1\n      pop\n        /* \"@openzeppelin/contracts/access/Ownable.sol\":1638:1723  function owner() public view virtual returns (address) {... */\n      swap1\n      jump\t// out\n        /* \"@openzeppelin/contracts/token/ERC20/ERC20.sol\":1981:2074  function symbol() public view virtual returns (string memory) {... */\n    tag_95:\n        /* \"@openzeppelin/contracts/token/ERC20/ERC20.sol\":2028:2041  string memory */\n      0x60\n        /* \"@openzeppelin/contracts/token/ERC20/ERC20.sol\":2060:2067  _symbol */\n      0x04\n        /* \"@openzeppelin/contracts/token/ERC20/ERC20.sol\":2053:2067  return _symbol */\n      dup1\n      sload\n      tag_181\n      swap1\n      tag_132\n      jump\t// in\n    tag_181:\n      dup1\n      0x1f\n      add\n      0x20\n      dup1\n      swap2\n      div\n      mul\n      0x20\n      add\n      mload(0x40)\n      swap1\n      dup2\n      add\n      0x40\n      mstore\n      dup1\n      swap3\n      swap2\n      swap1\n      dup2\n      dup2\n      mstore\n      0x20\n      add\n      dup3\n      dup1\n      sload\n      tag_182\n      swap1\n      tag_132\n      jump\t// in\n    tag_182:\n      dup1\n      iszero\n      tag_183\n      jumpi\n      dup1\n      0x1f\n      lt\n      tag_184\n      jumpi\n      0x0100\n      dup1\n      dup4\n      sload\n      div\n      mul\n      dup4\n      mstore\n      swap2\n      0x20\n      add\n      swap2\n      jump(tag_183)\n    tag_184:\n      dup3\n      add\n      swap2\n      swap1\n      0x00\n      mstore\n      keccak256(0x00, 0x20)\n      swap1\n    tag_185:\n      dup2\n      sload\n      dup2\n      mstore\n      swap1\n      0x01\n      add\n      swap1\n      0x20\n      add\n      dup1\n      dup4\n      gt\n      tag_185\n      jumpi\n      dup3\n      swap1\n      sub\n      0x1f\n      and\n      dup3\n      add\n      swap2\n    tag_183:\n      pop\n      pop\n      pop\n      pop\n      pop\n      swap1\n      pop\n        /* \"@openzeppelin/contracts/token/ERC20/ERC20.sol\":1981:2074  function symbol() public view virtual returns (string memory) {... */\n      swap1\n      jump\t// out\n        /* \"@openzeppelin/contracts/token/ERC20/ERC20.sol\":3315:3493  function transfer(address to, uint256 value) public virtual returns (bool) {... */\n    tag_99:\n        /* \"@openzeppelin/contracts/token/ERC20/ERC20.sol\":3384:3388  bool */\n      0x00\n        /* \"@openzeppelin/contracts/token/ERC20/ERC20.sol\":3400:3413  address owner */\n      0x00\n        /* \"@openzeppelin/contracts/token/ERC20/ERC20.sol\":3416:3428  _msgSender() */\n      tag_187\n        /* \"@openzeppelin/contracts/token/ERC20/ERC20.sol\":3416:3426  _msgSender */\n      tag_139\n        /* \"@openzeppelin/contracts/token/ERC20/ERC20.sol\":3416:3428  _msgSender() */\n      jump\t// in\n    tag_187:\n        /* \"@openzeppelin/contracts/token/ERC20/ERC20.sol\":3400:3428  address owner = _msgSender() */\n      swap1\n      pop\n        /* \"@openzeppelin/contracts/token/ERC20/ERC20.sol\":3438:3465  _transfer(owner, to, value) */\n      tag_188\n        /* \"@openzeppelin/contracts/token/ERC20/ERC20.sol\":3448:3453  owner */\n      dup2\n        /* \"@openzeppelin/contracts/token/ERC20/ERC20.sol\":3455:3457  to */\n      dup6\n        /* \"@openzeppelin/contracts/token/ERC20/ERC20.sol\":3459:3464  value */\n      dup6\n        /* \"@openzeppelin/contracts/token/ERC20/ERC20.sol\":3438:3447  _transfer */\n      tag_148\n        /* \"@openzeppelin/contracts/token/ERC20/ERC20.sol\":3438:3465  _transfer(owner, to, value) */\n      jump\t// in\n    tag_188:\n        /* \"@openzeppelin/contracts/token/ERC20/ERC20.sol\":3482:3486  true */\n      0x01\n        /* \"@openzeppelin/contracts/token/ERC20/ERC20.sol\":3475:3486  return true */\n      swap2\n      pop\n      pop\n        /* \"@openzeppelin/contracts/token/ERC20/ERC20.sol\":3315:3493  function transfer(address to, uint256 value) public virtual returns (bool) {... */\n      swap3\n      swap2\n      pop\n      pop\n      jump\t// out\n        /* \"contracts/mem.sol\":1611:3034  function transfer(address sender, address recipient, uint256 amount) external{... */\n    tag_103:\n        /* \"contracts/mem.sol\":1725:1726  0 */\n      0x00\n        /* \"contracts/mem.sol\":1707:1727  sender != address(0) */\n      0xffffffffffffffffffffffffffffffffffffffff\n      and\n        /* \"contracts/mem.sol\":1707:1713  sender */\n      dup4\n        /* \"contracts/mem.sol\":1707:1727  sender != address(0) */\n      0xffffffffffffffffffffffffffffffffffffffff\n      and\n      sub\n        /* \"contracts/mem.sol\":1699:1748  require(sender != address(0), TransferFromZero()) */\n      tag_190\n      jumpi\n      mload(0x40)\n      0xf38f85c300000000000000000000000000000000000000000000000000000000\n      dup2\n      mstore\n      0x04\n      add\n      mload(0x40)\n      dup1\n      swap2\n      sub\n      swap1\n      revert\n    tag_190:\n        /* \"contracts/mem.sol\":1788:1789  0 */\n      0x00\n        /* \"contracts/mem.sol\":1767:1790  recipient != address(0) */\n      0xffffffffffffffffffffffffffffffffffffffff\n      and\n        /* \"contracts/mem.sol\":1767:1776  recipient */\n      dup3\n        /* \"contracts/mem.sol\":1767:1790  recipient != address(0) */\n      0xffffffffffffffffffffffffffffffffffffffff\n      and\n      sub\n        /* \"contracts/mem.sol\":1759:1809  require(recipient != address(0), TransferToZero()) */\n      tag_191\n      jumpi\n      mload(0x40)\n      0xa38ca3d900000000000000000000000000000000000000000000000000000000\n      dup2\n      mstore\n      0x04\n      add\n      mload(0x40)\n      dup1\n      swap2\n      sub\n      swap1\n      revert\n    tag_191:\n        /* \"contracts/mem.sol\":1826:1843  isExcludedFromTax */\n      0x0d\n        /* \"contracts/mem.sol\":1826:1851  isExcludedFromTax[sender] */\n      0x00\n        /* \"contracts/mem.sol\":1844:1850  sender */\n      dup5\n        /* \"contracts/mem.sol\":1826:1851  isExcludedFromTax[sender] */\n      0xffffffffffffffffffffffffffffffffffffffff\n      and\n      0xffffffffffffffffffffffffffffffffffffffff\n      and\n      dup2\n      mstore\n      0x20\n      add\n      swap1\n      dup2\n      mstore\n      0x20\n      add\n      0x00\n      keccak256\n      0x00\n      swap1\n      sload\n      swap1\n      0x0100\n      exp\n      swap1\n      div\n      0xff\n      and\n        /* \"contracts/mem.sol\":1826:1883  isExcludedFromTax[sender] || isExcludedFromTax[recipient] */\n      dup1\n      tag_192\n      jumpi\n      pop\n        /* \"contracts/mem.sol\":1855:1872  isExcludedFromTax */\n      0x0d\n        /* \"contracts/mem.sol\":1855:1883  isExcludedFromTax[recipient] */\n      0x00\n        /* \"contracts/mem.sol\":1873:1882  recipient */\n      dup4\n        /* \"contracts/mem.sol\":1855:1883  isExcludedFromTax[recipient] */\n      0xffffffffffffffffffffffffffffffffffffffff\n      and\n      0xffffffffffffffffffffffffffffffffffffffff\n      and\n      dup2\n      mstore\n      0x20\n      add\n      swap1\n      dup2\n      mstore\n      0x20\n      add\n      0x00\n      keccak256\n      0x00\n      swap1\n      sload\n      swap1\n      0x0100\n      exp\n      swap1\n      div\n      0xff\n      and\n        /* \"contracts/mem.sol\":1826:1883  isExcludedFromTax[sender] || isExcludedFromTax[recipient] */\n    tag_192:\n        /* \"contracts/mem.sol\":1822:1975  if (isExcludedFromTax[sender] || isExcludedFromTax[recipient]) {... */\n      iszero\n      tag_193\n      jumpi\n        /* \"contracts/mem.sol\":1900:1942  super._transfer(sender, recipient, amount) */\n      tag_194\n        /* \"contracts/mem.sol\":1916:1922  sender */\n      dup4\n        /* \"contracts/mem.sol\":1924:1933  recipient */\n      dup4\n        /* \"contracts/mem.sol\":1935:1941  amount */\n      dup4\n        /* \"contracts/mem.sol\":1900:1915  super._transfer */\n      tag_148\n        /* \"contracts/mem.sol\":1900:1942  super._transfer(sender, recipient, amount) */\n      jump\t// in\n    tag_194:\n        /* \"contracts/mem.sol\":1957:1964  return; */\n      jump(tag_189)\n        /* \"contracts/mem.sol\":1822:1975  if (isExcludedFromTax[sender] || isExcludedFromTax[recipient]) {... */\n    tag_193:\n        /* \"contracts/mem.sol\":1987:1997  bool isBuy */\n      0x00\n        /* \"contracts/mem.sol\":2013:2024  uniswapPair */\n      0x0c\n      0x00\n      swap1\n      sload\n      swap1\n      0x0100\n      exp\n      swap1\n      div\n      0xffffffffffffffffffffffffffffffffffffffff\n      and\n        /* \"contracts/mem.sol\":2000:2024  recipient == uniswapPair */\n      0xffffffffffffffffffffffffffffffffffffffff\n      and\n        /* \"contracts/mem.sol\":2000:2009  recipient */\n      dup4\n        /* \"contracts/mem.sol\":2000:2024  recipient == uniswapPair */\n      0xffffffffffffffffffffffffffffffffffffffff\n      and\n      eq\n        /* \"contracts/mem.sol\":1987:2024  bool isBuy = recipient == uniswapPair */\n      swap1\n      pop\n        /* \"contracts/mem.sol\":2035:2046  bool isSell */\n      0x00\n        /* \"contracts/mem.sol\":2059:2070  uniswapPair */\n      0x0c\n      0x00\n      swap1\n      sload\n      swap1\n      0x0100\n      exp\n      swap1\n      div\n      0xffffffffffffffffffffffffffffffffffffffff\n      and\n        /* \"contracts/mem.sol\":2049:2070  sender == uniswapPair */\n      0xffffffffffffffffffffffffffffffffffffffff\n      and\n        /* \"contracts/mem.sol\":2049:2055  sender */\n      dup6\n        /* \"contracts/mem.sol\":2049:2070  sender == uniswapPair */\n      0xffffffffffffffffffffffffffffffffffffffff\n      and\n      eq\n        /* \"contracts/mem.sol\":2035:2070  bool isSell = sender == uniswapPair */\n      swap1\n      pop\n        /* \"contracts/mem.sol\":2083:2100  uint256 taxAmount */\n      0x00\n        /* \"contracts/mem.sol\":2114:2119  isBuy */\n      dup3\n        /* \"contracts/mem.sol\":2111:2262  if(isBuy) {... */\n      iszero\n      tag_195\n      jumpi\n        /* \"contracts/mem.sol\":2168:2171  100 */\n      0x64\n        /* \"contracts/mem.sol\":2158:2164  buyTax */\n      sload(0x06)\n        /* \"contracts/mem.sol\":2149:2155  amount */\n      dup6\n        /* \"contracts/mem.sol\":2149:2164  amount * buyTax */\n      tag_196\n      swap2\n      swap1\n      tag_197\n      jump\t// in\n    tag_196:\n        /* \"contracts/mem.sol\":2148:2171  (amount * buyTax) / 100 */\n      tag_198\n      swap2\n      swap1\n      tag_199\n      jump\t// in\n    tag_198:\n        /* \"contracts/mem.sol\":2136:2171  taxAmount = (amount * buyTax) / 100 */\n      swap1\n      pop\n        /* \"contracts/mem.sol\":2111:2262  if(isBuy) {... */\n      jump(tag_200)\n    tag_195:\n        /* \"contracts/mem.sol\":2191:2197  isSell */\n      dup2\n        /* \"contracts/mem.sol\":2188:2262  if(isSell) {... */\n      iszero\n      tag_201\n      jumpi\n        /* \"contracts/mem.sol\":2247:2250  100 */\n      0x64\n        /* \"contracts/mem.sol\":2236:2243  sellTax */\n      sload(0x07)\n        /* \"contracts/mem.sol\":2227:2233  amount */\n      dup6\n        /* \"contracts/mem.sol\":2227:2243  amount * sellTax */\n      tag_202\n      swap2\n      swap1\n      tag_197\n      jump\t// in\n    tag_202:\n        /* \"contracts/mem.sol\":2226:2250  (amount * sellTax) / 100 */\n      tag_203\n      swap2\n      swap1\n      tag_199\n      jump\t// in\n    tag_203:\n        /* \"contracts/mem.sol\":2214:2250  taxAmount = (amount * sellTax) / 100 */\n      swap1\n      pop\n        /* \"contracts/mem.sol\":2188:2262  if(isSell) {... */\n    tag_201:\n        /* \"contracts/mem.sol\":2111:2262  if(isBuy) {... */\n    tag_200:\n        /* \"contracts/mem.sol\":2274:2291  uint256 netAmount */\n      0x00\n        /* \"contracts/mem.sol\":2303:2312  taxAmount */\n      dup2\n        /* \"contracts/mem.sol\":2294:2300  amount */\n      dup6\n        /* \"contracts/mem.sol\":2294:2312  amount - taxAmount */\n      tag_204\n      swap2\n      swap1\n      tag_205\n      jump\t// in\n    tag_204:\n        /* \"contracts/mem.sol\":2274:2312  uint256 netAmount = amount - taxAmount */\n      swap1\n      pop\n        /* \"contracts/mem.sol\":2353:2362  taxAmount */\n      dup2\n        /* \"contracts/mem.sol\":2341:2350  netAmount */\n      dup2\n        /* \"contracts/mem.sol\":2341:2362  netAmount + taxAmount */\n      tag_206\n      swap2\n      swap1\n      tag_207\n      jump\t// in\n    tag_206:\n        /* \"contracts/mem.sol\":2331:2337  amount */\n      dup6\n        /* \"contracts/mem.sol\":2331:2362  amount == netAmount + taxAmount */\n      eq\n        /* \"contracts/mem.sol\":2323:2382  require(amount == netAmount + taxAmount, ArithmeticError()) */\n      tag_208\n      jumpi\n      mload(0x40)\n      0x1f825c6a00000000000000000000000000000000000000000000000000000000\n      dup2\n      mstore\n      0x04\n      add\n      mload(0x40)\n      dup1\n      swap2\n      sub\n      swap1\n      revert\n    tag_208:\n        /* \"contracts/mem.sol\":2411:2412  0 */\n      0x00\n        /* \"contracts/mem.sol\":2399:2408  taxAmount */\n      dup3\n        /* \"contracts/mem.sol\":2399:2412  taxAmount > 0 */\n      gt\n        /* \"contracts/mem.sol\":2395:2969  if (taxAmount > 0) {... */\n      iszero\n      tag_209\n      jumpi\n        /* \"contracts/mem.sol\":2429:2478  super._transfer(sender, address(this), taxAmount) */\n      tag_210\n        /* \"contracts/mem.sol\":2445:2451  sender */\n      dup8\n        /* \"contracts/mem.sol\":2461:2465  this */\n      address\n        /* \"contracts/mem.sol\":2468:2477  taxAmount */\n      dup5\n        /* \"contracts/mem.sol\":2429:2444  super._transfer */\n      tag_148\n        /* \"contracts/mem.sol\":2429:2478  super._transfer(sender, address(this), taxAmount) */\n      jump\t// in\n    tag_210:\n        /* \"contracts/mem.sol\":2498:2521  TaxCollected(taxAmount) */\n      0x092c6768ba45dfdc937f94a27a0c5be8334952f1558bc7dd41b3e8707502e1b6\n        /* \"contracts/mem.sol\":2511:2520  taxAmount */\n      dup3\n        /* \"contracts/mem.sol\":2498:2521  TaxCollected(taxAmount) */\n      mload(0x40)\n      tag_211\n      swap2\n      swap1\n      tag_37\n      jump\t// in\n    tag_211:\n      mload(0x40)\n      dup1\n      swap2\n      sub\n      swap1\n      log1\n        /* \"contracts/mem.sol\":2538:2561  uint256 liquidityTokens */\n      0x00\n        /* \"contracts/mem.sol\":2595:2598  100 */\n      0x64\n        /* \"contracts/mem.sol\":2577:2591  liquidityShare */\n      sload(0x08)\n        /* \"contracts/mem.sol\":2565:2574  taxAmount */\n      dup5\n        /* \"contracts/mem.sol\":2565:2591  taxAmount * liquidityShare */\n      tag_212\n      swap2\n      swap1\n      tag_197\n      jump\t// in\n    tag_212:\n        /* \"contracts/mem.sol\":2564:2598  (taxAmount * liquidityShare) / 100 */\n      tag_213\n      swap2\n      swap1\n      tag_199\n      jump\t// in\n    tag_213:\n        /* \"contracts/mem.sol\":2538:2598  uint256 liquidityTokens = (taxAmount * liquidityShare) / 100 */\n      swap1\n      pop\n        /* \"contracts/mem.sol\":2613:2631  uint256 burnTokens */\n      0x00\n        /* \"contracts/mem.sol\":2660:2663  100 */\n      0x64\n        /* \"contracts/mem.sol\":2647:2656  burnShare */\n      sload(0x09)\n        /* \"contracts/mem.sol\":2635:2644  taxAmount */\n      dup6\n        /* \"contracts/mem.sol\":2635:2656  taxAmount * burnShare */\n      tag_214\n      swap2\n      swap1\n      tag_197\n      jump\t// in\n    tag_214:\n        /* \"contracts/mem.sol\":2634:2663  (taxAmount * burnShare) / 100 */\n      tag_215\n      swap2\n      swap1\n      tag_199\n      jump\t// in\n    tag_215:\n        /* \"contracts/mem.sol\":2613:2663  uint256 burnTokens = (taxAmount * burnShare) / 100 */\n      swap1\n      pop\n        /* \"contracts/mem.sol\":2678:2699  uint256 rewardsTokens */\n      0x00\n        /* \"contracts/mem.sol\":2732:2742  burnTokens */\n      dup2\n        /* \"contracts/mem.sol\":2714:2729  liquidityTokens */\n      dup4\n        /* \"contracts/mem.sol\":2702:2711  taxAmount */\n      dup7\n        /* \"contracts/mem.sol\":2702:2729  taxAmount - liquidityTokens */\n      tag_216\n      swap2\n      swap1\n      tag_205\n      jump\t// in\n    tag_216:\n        /* \"contracts/mem.sol\":2702:2742  taxAmount - liquidityTokens - burnTokens */\n      tag_217\n      swap2\n      swap1\n      tag_205\n      jump\t// in\n    tag_217:\n        /* \"contracts/mem.sol\":2678:2742  uint256 rewardsTokens = taxAmount - liquidityTokens - burnTokens */\n      swap1\n      pop\n        /* \"contracts/mem.sol\":2759:2819  super._transfer(address(this), uniswapPair, liquidityTokens) */\n      tag_218\n        /* \"contracts/mem.sol\":2783:2787  this */\n      address\n        /* \"contracts/mem.sol\":2790:2801  uniswapPair */\n      0x0c\n      0x00\n      swap1\n      sload\n      swap1\n      0x0100\n      exp\n      swap1\n      div\n      0xffffffffffffffffffffffffffffffffffffffff\n      and\n        /* \"contracts/mem.sol\":2803:2818  liquidityTokens */\n      dup6\n        /* \"contracts/mem.sol\":2759:2774  super._transfer */\n      tag_148\n        /* \"contracts/mem.sol\":2759:2819  super._transfer(address(this), uniswapPair, liquidityTokens) */\n      jump\t// in\n    tag_218:\n        /* \"contracts/mem.sol\":2848:2886  super._burn(address(this), burnTokens) */\n      tag_219\n        /* \"contracts/mem.sol\":2868:2872  this */\n      address\n        /* \"contracts/mem.sol\":2875:2885  burnTokens */\n      dup4\n        /* \"contracts/mem.sol\":2848:2859  super._burn */\n      tag_220\n        /* \"contracts/mem.sol\":2848:2886  super._burn(address(this), burnTokens) */\n      jump\t// in\n    tag_219:\n        /* \"contracts/mem.sol\":2903:2957  super._transfer(address(this), owner(), rewardsTokens) */\n      tag_221\n        /* \"contracts/mem.sol\":2927:2931  this */\n      address\n        /* \"contracts/mem.sol\":2934:2941  owner() */\n      tag_222\n        /* \"contracts/mem.sol\":2934:2939  owner */\n      tag_92\n        /* \"contracts/mem.sol\":2934:2941  owner() */\n      jump\t// in\n    tag_222:\n        /* \"contracts/mem.sol\":2943:2956  rewardsTokens */\n      dup4\n        /* \"contracts/mem.sol\":2903:2918  super._transfer */\n      tag_148\n        /* \"contracts/mem.sol\":2903:2957  super._transfer(address(this), owner(), rewardsTokens) */\n      jump\t// in\n    tag_221:\n        /* \"contracts/mem.sol\":2414:2969  {... */\n      pop\n      pop\n      pop\n        /* \"contracts/mem.sol\":2395:2969  if (taxAmount > 0) {... */\n    tag_209:\n        /* \"contracts/mem.sol\":2981:3026  super._transfer(sender, recipient, netAmount) */\n      tag_223\n        /* \"contracts/mem.sol\":2997:3003  sender */\n      dup8\n        /* \"contracts/mem.sol\":3005:3014  recipient */\n      dup8\n        /* \"contracts/mem.sol\":3016:3025  netAmount */\n      dup4\n        /* \"contracts/mem.sol\":2981:2996  super._transfer */\n      tag_148\n        /* \"contracts/mem.sol\":2981:3026  super._transfer(sender, recipient, netAmount) */\n      jump\t// in\n    tag_223:\n        /* \"contracts/mem.sol\":1688:3034  {... */\n      pop\n      pop\n      pop\n      pop\n        /* \"contracts/mem.sol\":1611:3034  function transfer(address sender, address recipient, uint256 amount) external{... */\n    tag_189:\n      pop\n      pop\n      pop\n      jump\t// out\n        /* \"contracts/mem.sol\":4152:4353  function setTaxes(uint256 _buyTax, uint256 _sellTax) external onlyOwner {... */\n    tag_107:\n        /* \"@openzeppelin/contracts/access/Ownable.sol\":1531:1544  _checkOwner() */\n      tag_225\n        /* \"@openzeppelin/contracts/access/Ownable.sol\":1531:1542  _checkOwner */\n      tag_151\n        /* \"@openzeppelin/contracts/access/Ownable.sol\":1531:1544  _checkOwner() */\n      jump\t// in\n    tag_225:\n        /* \"contracts/mem.sol\":4254:4256  10 */\n      0x0a\n        /* \"contracts/mem.sol\":4243:4250  _buyTax */\n      dup3\n        /* \"contracts/mem.sol\":4243:4256  _buyTax <= 10 */\n      gt\n      iszero\n        /* \"contracts/mem.sol\":4243:4274  _buyTax <= 10 && _sellTax <= 20 */\n      dup1\n      iszero\n      tag_227\n      jumpi\n      pop\n        /* \"contracts/mem.sol\":4272:4274  20 */\n      0x14\n        /* \"contracts/mem.sol\":4260:4268  _sellTax */\n      dup2\n        /* \"contracts/mem.sol\":4260:4274  _sellTax <= 20 */\n      gt\n      iszero\n        /* \"contracts/mem.sol\":4243:4274  _buyTax <= 10 && _sellTax <= 20 */\n    tag_227:\n        /* \"contracts/mem.sol\":4235:4289  require(_buyTax <= 10 && _sellTax <= 20, TaxTooHigh()) */\n      tag_228\n      jumpi\n      mload(0x40)\n      0xaf1ee13400000000000000000000000000000000000000000000000000000000\n      dup2\n      mstore\n      0x04\n      add\n      mload(0x40)\n      dup1\n      swap2\n      sub\n      swap1\n      revert\n    tag_228:\n        /* \"contracts/mem.sol\":4309:4316  _buyTax */\n      dup2\n        /* \"contracts/mem.sol\":4300:4306  buyTax */\n      0x06\n        /* \"contracts/mem.sol\":4300:4316  buyTax = _buyTax */\n      dup2\n      swap1\n      sstore\n      pop\n        /* \"contracts/mem.sol\":4337:4345  _sellTax */\n      dup1\n        /* \"contracts/mem.sol\":4327:4334  sellTax */\n      0x07\n        /* \"contracts/mem.sol\":4327:4345  sellTax = _sellTax */\n      dup2\n      swap1\n      sstore\n      pop\n        /* \"contracts/mem.sol\":4152:4353  function setTaxes(uint256 _buyTax, uint256 _sellTax) external onlyOwner {... */\n      pop\n      pop\n      jump\t// out\n        /* \"contracts/mem.sol\":4013:4144  function excludeFromTax(address account, bool excluded) external onlyOwner {... */\n    tag_111:\n        /* \"@openzeppelin/contracts/access/Ownable.sol\":1531:1544  _checkOwner() */\n      tag_230\n        /* \"@openzeppelin/contracts/access/Ownable.sol\":1531:1542  _checkOwner */\n      tag_151\n        /* \"@openzeppelin/contracts/access/Ownable.sol\":1531:1544  _checkOwner() */\n      jump\t// in\n    tag_230:\n        /* \"contracts/mem.sol\":4128:4136  excluded */\n      dup1\n        /* \"contracts/mem.sol\":4099:4116  isExcludedFromTax */\n      0x0d\n        /* \"contracts/mem.sol\":4099:4125  isExcludedFromTax[account] */\n      0x00\n        /* \"contracts/mem.sol\":4117:4124  account */\n      dup5\n        /* \"contracts/mem.sol\":4099:4125  isExcludedFromTax[account] */\n      0xffffffffffffffffffffffffffffffffffffffff\n      and\n      0xffffffffffffffffffffffffffffffffffffffff\n      and\n      dup2\n      mstore\n      0x20\n      add\n      swap1\n      dup2\n      mstore\n      0x20\n      add\n      0x00\n      keccak256\n      0x00\n        /* \"contracts/mem.sol\":4099:4136  isExcludedFromTax[account] = excluded */\n      0x0100\n      exp\n      dup2\n      sload\n      dup2\n      0xff\n      mul\n      not\n      and\n      swap1\n      dup4\n      iszero\n      iszero\n      mul\n      or\n      swap1\n      sstore\n      pop\n        /* \"contracts/mem.sol\":4013:4144  function excludeFromTax(address account, bool excluded) external onlyOwner {... */\n      pop\n      pop\n      jump\t// out\n        /* \"contracts/mem.sol\":809:835  address public uniswapPair */\n    tag_113:\n      0x0c\n      0x00\n      swap1\n      sload\n      swap1\n      0x0100\n      exp\n      swap1\n      div\n      0xffffffffffffffffffffffffffffffffffffffff\n      and\n      dup2\n      jump\t// out\n        /* \"contracts/mem.sol\":932:981  mapping(address => bool) public isExcludedFromTax */\n    tag_117:\n      mstore(0x20, 0x0d)\n      dup1\n      0x00\n      mstore\n      keccak256(0x00, 0x40)\n      0x00\n      swap2\n      pop\n      sload\n      swap1\n      0x0100\n      exp\n      swap1\n      div\n      0xff\n      and\n      dup2\n      jump\t// out\n        /* \"contracts/mem.sol\":611:638  uint256 public sellTax = 10 */\n    tag_120:\n      sload(0x07)\n      dup2\n      jump\t// out\n        /* \"@openzeppelin/contracts/token/ERC20/ERC20.sol\":3551:3691  function allowance(address owner, address spender) public view virtual returns (uint256) {... */\n    tag_125:\n        /* \"@openzeppelin/contracts/token/ERC20/ERC20.sol\":3631:3638  uint256 */\n      0x00\n        /* \"@openzeppelin/contracts/token/ERC20/ERC20.sol\":3657:3668  _allowances */\n      0x01\n        /* \"@openzeppelin/contracts/token/ERC20/ERC20.sol\":3657:3675  _allowances[owner] */\n      0x00\n        /* \"@openzeppelin/contracts/token/ERC20/ERC20.sol\":3669:3674  owner */\n      dup5\n        /* \"@openzeppelin/contracts/token/ERC20/ERC20.sol\":3657:3675  _allowances[owner] */\n      0xffffffffffffffffffffffffffffffffffffffff\n      and\n      0xffffffffffffffffffffffffffffffffffffffff\n      and\n      dup2\n      mstore\n      0x20\n      add\n      swap1\n      dup2\n      mstore\n      0x20\n      add\n      0x00\n      keccak256\n        /* \"@openzeppelin/contracts/token/ERC20/ERC20.sol\":3657:3684  _allowances[owner][spender] */\n      0x00\n        /* \"@openzeppelin/contracts/token/ERC20/ERC20.sol\":3676:3683  spender */\n      dup4\n        /* \"@openzeppelin/contracts/token/ERC20/ERC20.sol\":3657:3684  _allowances[owner][spender] */\n      0xffffffffffffffffffffffffffffffffffffffff\n      and\n      0xffffffffffffffffffffffffffffffffffffffff\n      and\n      dup2\n      mstore\n      0x20\n      add\n      swap1\n      dup2\n      mstore\n      0x20\n      add\n      0x00\n      keccak256\n      sload\n        /* \"@openzeppelin/contracts/token/ERC20/ERC20.sol\":3650:3684  return _allowances[owner][spender] */\n      swap1\n      pop\n        /* \"@openzeppelin/contracts/token/ERC20/ERC20.sol\":3551:3691  function allowance(address owner, address spender) public view virtual returns (uint256) {... */\n      swap3\n      swap2\n      pop\n      pop\n      jump\t// out\n        /* \"@openzeppelin/contracts/access/Ownable.sol\":2543:2758  function transferOwnership(address newOwner) public virtual onlyOwner {... */\n    tag_129:\n        /* \"@openzeppelin/contracts/access/Ownable.sol\":1531:1544  _checkOwner() */\n      tag_234\n        /* \"@openzeppelin/contracts/access/Ownable.sol\":1531:1542  _checkOwner */\n      tag_151\n        /* \"@openzeppelin/contracts/access/Ownable.sol\":1531:1544  _checkOwner() */\n      jump\t// in\n    tag_234:\n        /* \"@openzeppelin/contracts/access/Ownable.sol\":2647:2648  0 */\n      0x00\n        /* \"@openzeppelin/contracts/access/Ownable.sol\":2627:2649  newOwner == address(0) */\n      0xffffffffffffffffffffffffffffffffffffffff\n      and\n        /* \"@openzeppelin/contracts/access/Ownable.sol\":2627:2635  newOwner */\n      dup2\n        /* \"@openzeppelin/contracts/access/Ownable.sol\":2627:2649  newOwner == address(0) */\n      0xffffffffffffffffffffffffffffffffffffffff\n      and\n      sub\n        /* \"@openzeppelin/contracts/access/Ownable.sol\":2623:2714  if (newOwner == address(0)) {... */\n      tag_236\n      jumpi\n        /* \"@openzeppelin/contracts/access/Ownable.sol\":2700:2701  0 */\n      0x00\n        /* \"@openzeppelin/contracts/access/Ownable.sol\":2672:2703  OwnableInvalidOwner(address(0)) */\n      mload(0x40)\n      0x1e4fbdf700000000000000000000000000000000000000000000000000000000\n      dup2\n      mstore\n      0x04\n      add\n      tag_237\n      swap2\n      swap1\n      tag_77\n      jump\t// in\n    tag_237:\n      mload(0x40)\n      dup1\n      swap2\n      sub\n      swap1\n      revert\n        /* \"@openzeppelin/contracts/access/Ownable.sol\":2623:2714  if (newOwner == address(0)) {... */\n    tag_236:\n        /* \"@openzeppelin/contracts/access/Ownable.sol\":2723:2751  _transferOwnership(newOwner) */\n      tag_238\n        /* \"@openzeppelin/contracts/access/Ownable.sol\":2742:2750  newOwner */\n      dup2\n        /* \"@openzeppelin/contracts/access/Ownable.sol\":2723:2741  _transferOwnership */\n      tag_178\n        /* \"@openzeppelin/contracts/access/Ownable.sol\":2723:2751  _transferOwnership(newOwner) */\n      jump\t// in\n    tag_238:\n        /* \"@openzeppelin/contracts/access/Ownable.sol\":2543:2758  function transferOwnership(address newOwner) public virtual onlyOwner {... */\n      pop\n      jump\t// out\n        /* \"@openzeppelin/contracts/utils/Context.sol\":656:752  function _msgSender() internal view virtual returns (address) {... */\n    tag_139:\n        /* \"@openzeppelin/contracts/utils/Context.sol\":709:716  address */\n      0x00\n        /* \"@openzeppelin/contracts/utils/Context.sol\":735:745  msg.sender */\n      caller\n        /* \"@openzeppelin/contracts/utils/Context.sol\":728:745  return msg.sender */\n      swap1\n      pop\n        /* \"@openzeppelin/contracts/utils/Context.sol\":656:752  function _msgSender() internal view virtual returns (address) {... */\n      swap1\n      jump\t// out\n        /* \"@openzeppelin/contracts/token/ERC20/ERC20.sol\":8726:8854  function _approve(address owner, address spender, uint256 value) internal {... */\n    tag_141:\n        /* \"@openzeppelin/contracts/token/ERC20/ERC20.sol\":8810:8847  _approve(owner, spender, value, true) */\n      tag_241\n        /* \"@openzeppelin/contracts/token/ERC20/ERC20.sol\":8819:8824  owner */\n      dup4\n        /* \"@openzeppelin/contracts/token/ERC20/ERC20.sol\":8826:8833  spender */\n      dup4\n        /* \"@openzeppelin/contracts/token/ERC20/ERC20.sol\":8835:8840  value */\n      dup4\n        /* \"@openzeppelin/contracts/token/ERC20/ERC20.sol\":8842:8846  true */\n      0x01\n        /* \"@openzeppelin/contracts/token/ERC20/ERC20.sol\":8810:8818  _approve */\n      tag_242\n        /* \"@openzeppelin/contracts/token/ERC20/ERC20.sol\":8810:8847  _approve(owner, spender, value, true) */\n      jump\t// in\n    tag_241:\n        /* \"@openzeppelin/contracts/token/ERC20/ERC20.sol\":8726:8854  function _approve(address owner, address spender, uint256 value) internal {... */\n      pop\n      pop\n      pop\n      jump\t// out\n        /* \"@openzeppelin/contracts/token/ERC20/ERC20.sol\":10415:10891  function _spendAllowance(address owner, address spender, uint256 value) internal virtual {... */\n    tag_146:\n        /* \"@openzeppelin/contracts/token/ERC20/ERC20.sol\":10514:10538  uint256 currentAllowance */\n      0x00\n        /* \"@openzeppelin/contracts/token/ERC20/ERC20.sol\":10541:10566  allowance(owner, spender) */\n      tag_244\n        /* \"@openzeppelin/contracts/token/ERC20/ERC20.sol\":10551:10556  owner */\n      dup5\n        /* \"@openzeppelin/contracts/token/ERC20/ERC20.sol\":10558:10565  spender */\n      dup5\n        /* \"@openzeppelin/contracts/token/ERC20/ERC20.sol\":10541:10550  allowance */\n      tag_125\n        /* \"@openzeppelin/contracts/token/ERC20/ERC20.sol\":10541:10566  allowance(owner, spender) */\n      jump\t// in\n    tag_244:\n        /* \"@openzeppelin/contracts/token/ERC20/ERC20.sol\":10514:10566  uint256 currentAllowance = allowance(owner, spender) */\n      swap1\n      pop\n        /* \"@openzeppelin/contracts/token/ERC20/ERC20.sol\":10599:10616  type(uint256).max */\n      0xffffffffffffffffffffffffffffffffffffffffffffffffffffffffffffffff\n        /* \"@openzeppelin/contracts/token/ERC20/ERC20.sol\":10580:10596  currentAllowance */\n      dup2\n        /* \"@openzeppelin/contracts/token/ERC20/ERC20.sol\":10580:10616  currentAllowance < type(uint256).max */\n      lt\n        /* \"@openzeppelin/contracts/token/ERC20/ERC20.sol\":10576:10885  if (currentAllowance < type(uint256).max) {... */\n      iszero\n      tag_245\n      jumpi\n        /* \"@openzeppelin/contracts/token/ERC20/ERC20.sol\":10655:10660  value */\n      dup2\n        /* \"@openzeppelin/contracts/token/ERC20/ERC20.sol\":10636:10652  currentAllowance */\n      dup2\n        /* \"@openzeppelin/contracts/token/ERC20/ERC20.sol\":10636:10660  currentAllowance < value */\n      lt\n        /* \"@openzeppelin/contracts/token/ERC20/ERC20.sol\":10632:10762  if (currentAllowance < value) {... */\n      iszero\n      tag_246\n      jumpi\n        /* \"@openzeppelin/contracts/token/ERC20/ERC20.sol\":10714:10721  spender */\n      dup3\n        /* \"@openzeppelin/contracts/token/ERC20/ERC20.sol\":10723:10739  currentAllowance */\n      dup2\n        /* \"@openzeppelin/contracts/token/ERC20/ERC20.sol\":10741:10746  value */\n      dup4\n        /* \"@openzeppelin/contracts/token/ERC20/ERC20.sol\":10687:10747  ERC20InsufficientAllowance(spender, currentAllowance, value) */\n      mload(0x40)\n      0xfb8f41b200000000000000000000000000000000000000000000000000000000\n      dup2\n      mstore\n      0x04\n      add\n      tag_247\n      swap4\n      swap3\n      swap2\n      swap1\n      tag_248\n      jump\t// in\n    tag_247:\n      mload(0x40)\n      dup1\n      swap2\n      sub\n      swap1\n      revert\n        /* \"@openzeppelin/contracts/token/ERC20/ERC20.sol\":10632:10762  if (currentAllowance < value) {... */\n    tag_246:\n        /* \"@openzeppelin/contracts/token/ERC20/ERC20.sol\":10803:10860  _approve(owner, spender, currentAllowance - value, false) */\n      tag_249\n        /* \"@openzeppelin/contracts/token/ERC20/ERC20.sol\":10812:10817  owner */\n      dup5\n        /* \"@openzeppelin/contracts/token/ERC20/ERC20.sol\":10819:10826  spender */\n      dup5\n        /* \"@openzeppelin/contracts/token/ERC20/ERC20.sol\":10847:10852  value */\n      dup5\n        /* \"@openzeppelin/contracts/token/ERC20/ERC20.sol\":10828:10844  currentAllowance */\n      dup5\n        /* \"@openzeppelin/contracts/token/ERC20/ERC20.sol\":10828:10852  currentAllowance - value */\n      sub\n        /* \"@openzeppelin/contracts/token/ERC20/ERC20.sol\":10854:10859  false */\n      0x00\n        /* \"@openzeppelin/contracts/token/ERC20/ERC20.sol\":10803:10811  _approve */\n      tag_242\n        /* \"@openzeppelin/contracts/token/ERC20/ERC20.sol\":10803:10860  _approve(owner, spender, currentAllowance - value, false) */\n      jump\t// in\n    tag_249:\n        /* \"@openzeppelin/contracts/token/ERC20/ERC20.sol\":10576:10885  if (currentAllowance < type(uint256).max) {... */\n    tag_245:\n        /* \"@openzeppelin/contracts/token/ERC20/ERC20.sol\":10504:10891  {... */\n      pop\n        /* \"@openzeppelin/contracts/token/ERC20/ERC20.sol\":10415:10891  function _spendAllowance(address owner, address spender, uint256 value) internal virtual {... */\n      pop\n      pop\n      pop\n      jump\t// out\n        /* \"@openzeppelin/contracts/token/ERC20/ERC20.sol\":5393:5693  function _transfer(address from, address to, uint256 value) internal {... */\n    tag_148:\n        /* \"@openzeppelin/contracts/token/ERC20/ERC20.sol\":5492:5493  0 */\n      0x00\n        /* \"@openzeppelin/contracts/token/ERC20/ERC20.sol\":5476:5494  from == address(0) */\n      0xffffffffffffffffffffffffffffffffffffffff\n      and\n        /* \"@openzeppelin/contracts/token/ERC20/ERC20.sol\":5476:5480  from */\n      dup4\n        /* \"@openzeppelin/contracts/token/ERC20/ERC20.sol\":5476:5494  from == address(0) */\n      0xffffffffffffffffffffffffffffffffffffffff\n      and\n      sub\n        /* \"@openzeppelin/contracts/token/ERC20/ERC20.sol\":5472:5558  if (from == address(0)) {... */\n      tag_251\n      jumpi\n        /* \"@openzeppelin/contracts/token/ERC20/ERC20.sol\":5544:5545  0 */\n      0x00\n        /* \"@openzeppelin/contracts/token/ERC20/ERC20.sol\":5517:5547  ERC20InvalidSender(address(0)) */\n      mload(0x40)\n      0x96c6fd1e00000000000000000000000000000000000000000000000000000000\n      dup2\n      mstore\n      0x04\n      add\n      tag_252\n      swap2\n      swap1\n      tag_77\n      jump\t// in\n    tag_252:\n      mload(0x40)\n      dup1\n      swap2\n      sub\n      swap1\n      revert\n        /* \"@openzeppelin/contracts/token/ERC20/ERC20.sol\":5472:5558  if (from == address(0)) {... */\n    tag_251:\n        /* \"@openzeppelin/contracts/token/ERC20/ERC20.sol\":5585:5586  0 */\n      0x00\n        /* \"@openzeppelin/contracts/token/ERC20/ERC20.sol\":5571:5587  to == address(0) */\n      0xffffffffffffffffffffffffffffffffffffffff\n      and\n        /* \"@openzeppelin/contracts/token/ERC20/ERC20.sol\":5571:5573  to */\n      dup3\n        /* \"@openzeppelin/contracts/token/ERC20/ERC20.sol\":5571:5587  to == address(0) */\n      0xffffffffffffffffffffffffffffffffffffffff\n      and\n      sub\n        /* \"@openzeppelin/contracts/token/ERC20/ERC20.sol\":5567:5653  if (to == address(0)) {... */\n      tag_253\n      jumpi\n        /* \"@openzeppelin/contracts/token/ERC20/ERC20.sol\":5639:5640  0 */\n      0x00\n        /* \"@openzeppelin/contracts/token/ERC20/ERC20.sol\":5610:5642  ERC20InvalidReceiver(address(0)) */\n      mload(0x40)\n      0xec442f0500000000000000000000000000000000000000000000000000000000\n      dup2\n      mstore\n      0x04\n      add\n      tag_254\n      swap2\n      swap1\n      tag_77\n      jump\t// in\n    tag_254:\n      mload(0x40)\n      dup1\n      swap2\n      sub\n      swap1\n      revert\n        /* \"@openzeppelin/contracts/token/ERC20/ERC20.sol\":5567:5653  if (to == address(0)) {... */\n    tag_253:\n        /* \"@openzeppelin/contracts/token/ERC20/ERC20.sol\":5662:5686  _update(from, to, value) */\n      tag_255\n        /* \"@openzeppelin/contracts/token/ERC20/ERC20.sol\":5670:5674  from */\n      dup4\n        /* \"@openzeppelin/contracts/token/ERC20/ERC20.sol\":5676:5678  to */\n      dup4\n        /* \"@openzeppelin/contracts/token/ERC20/ERC20.sol\":5680:5685  value */\n      dup4\n        /* \"@openzeppelin/contracts/token/ERC20/ERC20.sol\":5662:5669  _update */\n      tag_256\n        /* \"@openzeppelin/contracts/token/ERC20/ERC20.sol\":5662:5686  _update(from, to, value) */\n      jump\t// in\n    tag_255:\n        /* \"@openzeppelin/contracts/token/ERC20/ERC20.sol\":5393:5693  function _transfer(address from, address to, uint256 value) internal {... */\n      pop\n      pop\n      pop\n      jump\t// out\n        /* \"@openzeppelin/contracts/access/Ownable.sol\":1796:1958  function _checkOwner() internal view virtual {... */\n    tag_151:\n        /* \"@openzeppelin/contracts/access/Ownable.sol\":1866:1878  _msgSender() */\n      tag_258\n        /* \"@openzeppelin/contracts/access/Ownable.sol\":1866:1876  _msgSender */\n      tag_139\n        /* \"@openzeppelin/contracts/access/Ownable.sol\":1866:1878  _msgSender() */\n      jump\t// in\n    tag_258:\n        /* \"@openzeppelin/contracts/access/Ownable.sol\":1855:1878  owner() != _msgSender() */\n      0xffffffffffffffffffffffffffffffffffffffff\n      and\n        /* \"@openzeppelin/contracts/access/Ownable.sol\":1855:1862  owner() */\n      tag_259\n        /* \"@openzeppelin/contracts/access/Ownable.sol\":1855:1860  owner */\n      tag_92\n        /* \"@openzeppelin/contracts/access/Ownable.sol\":1855:1862  owner() */\n      jump\t// in\n    tag_259:\n        /* \"@openzeppelin/contracts/access/Ownable.sol\":1855:1878  owner() != _msgSender() */\n      0xffffffffffffffffffffffffffffffffffffffff\n      and\n      eq\n        /* \"@openzeppelin/contracts/access/Ownable.sol\":1851:1952  if (owner() != _msgSender()) {... */\n      tag_260\n      jumpi\n        /* \"@openzeppelin/contracts/access/Ownable.sol\":1928:1940  _msgSender() */\n      tag_261\n        /* \"@openzeppelin/contracts/access/Ownable.sol\":1928:1938  _msgSender */\n      tag_139\n        /* \"@openzeppelin/contracts/access/Ownable.sol\":1928:1940  _msgSender() */\n      jump\t// in\n    tag_261:\n        /* \"@openzeppelin/contracts/access/Ownable.sol\":1901:1941  OwnableUnauthorizedAccount(_msgSender()) */\n      mload(0x40)\n      0x118cdaa700000000000000000000000000000000000000000000000000000000\n      dup2\n      mstore\n      0x04\n      add\n      tag_262\n      swap2\n      swap1\n      tag_77\n      jump\t// in\n    tag_262:\n      mload(0x40)\n      dup1\n      swap2\n      sub\n      swap1\n      revert\n        /* \"@openzeppelin/contracts/access/Ownable.sol\":1851:1952  if (owner() != _msgSender()) {... */\n    tag_260:\n        /* \"@openzeppelin/contracts/access/Ownable.sol\":1796:1958  function _checkOwner() internal view virtual {... */\n      jump\t// out\n        /* \"@openzeppelin/contracts/access/Ownable.sol\":2912:3099  function _transferOwnership(address newOwner) internal virtual {... */\n    tag_178:\n        /* \"@openzeppelin/contracts/access/Ownable.sol\":2985:3001  address oldOwner */\n      0x00\n        /* \"@openzeppelin/contracts/access/Ownable.sol\":3004:3010  _owner */\n      0x05\n      0x00\n      swap1\n      sload\n      swap1\n      0x0100\n      exp\n      swap1\n      div\n      0xffffffffffffffffffffffffffffffffffffffff\n      and\n        /* \"@openzeppelin/contracts/access/Ownable.sol\":2985:3010  address oldOwner = _owner */\n      swap1\n      pop\n        /* \"@openzeppelin/contracts/access/Ownable.sol\":3029:3037  newOwner */\n      dup2\n        /* \"@openzeppelin/contracts/access/Ownable.sol\":3020:3026  _owner */\n      0x05\n      0x00\n        /* \"@openzeppelin/contracts/access/Ownable.sol\":3020:3037  _owner = newOwner */\n      0x0100\n      exp\n      dup2\n      sload\n      dup2\n      0xffffffffffffffffffffffffffffffffffffffff\n      mul\n      not\n      and\n      swap1\n      dup4\n      0xffffffffffffffffffffffffffffffffffffffff\n      and\n      mul\n      or\n      swap1\n      sstore\n      pop\n        /* \"@openzeppelin/contracts/access/Ownable.sol\":3083:3091  newOwner */\n      dup2\n        /* \"@openzeppelin/contracts/access/Ownable.sol\":3052:3092  OwnershipTransferred(oldOwner, newOwner) */\n      0xffffffffffffffffffffffffffffffffffffffff\n      and\n        /* \"@openzeppelin/contracts/access/Ownable.sol\":3073:3081  oldOwner */\n      dup2\n        /* \"@openzeppelin/contracts/access/Ownable.sol\":3052:3092  OwnershipTransferred(oldOwner, newOwner) */\n      0xffffffffffffffffffffffffffffffffffffffff\n      and\n      0x8be0079c531659141344cd1fd0a4f28419497f9722a3daafe3b4186f6b6457e0\n      mload(0x40)\n      mload(0x40)\n      dup1\n      swap2\n      sub\n      swap1\n      log3\n        /* \"@openzeppelin/contracts/access/Ownable.sol\":2975:3099  {... */\n      pop\n        /* \"@openzeppelin/contracts/access/Ownable.sol\":2912:3099  function _transferOwnership(address newOwner) internal virtual {... */\n      pop\n      jump\t// out\n        /* \"@openzeppelin/contracts/token/ERC20/ERC20.sol\":7984:8190  function _burn(address account, uint256 value) internal {... */\n    tag_220:\n        /* \"@openzeppelin/contracts/token/ERC20/ERC20.sol\":8073:8074  0 */\n      0x00\n        /* \"@openzeppelin/contracts/token/ERC20/ERC20.sol\":8054:8075  account == address(0) */\n      0xffffffffffffffffffffffffffffffffffffffff\n      and\n        /* \"@openzeppelin/contracts/token/ERC20/ERC20.sol\":8054:8061  account */\n      dup3\n        /* \"@openzeppelin/contracts/token/ERC20/ERC20.sol\":8054:8075  account == address(0) */\n      0xffffffffffffffffffffffffffffffffffffffff\n      and\n      sub\n        /* \"@openzeppelin/contracts/token/ERC20/ERC20.sol\":8050:8139  if (account == address(0)) {... */\n      tag_265\n      jumpi\n        /* \"@openzeppelin/contracts/token/ERC20/ERC20.sol\":8125:8126  0 */\n      0x00\n        /* \"@openzeppelin/contracts/token/ERC20/ERC20.sol\":8098:8128  ERC20InvalidSender(address(0)) */\n      mload(0x40)\n      0x96c6fd1e00000000000000000000000000000000000000000000000000000000\n      dup2\n      mstore\n      0x04\n      add\n      tag_266\n      swap2\n      swap1\n      tag_77\n      jump\t// in\n    tag_266:\n      mload(0x40)\n      dup1\n      swap2\n      sub\n      swap1\n      revert\n        /* \"@openzeppelin/contracts/token/ERC20/ERC20.sol\":8050:8139  if (account == address(0)) {... */\n    tag_265:\n        /* \"@openzeppelin/contracts/token/ERC20/ERC20.sol\":8148:8183  _update(account, address(0), value) */\n      tag_267\n        /* \"@openzeppelin/contracts/token/ERC20/ERC20.sol\":8156:8163  account */\n      dup3\n        /* \"@openzeppelin/contracts/token/ERC20/ERC20.sol\":8173:8174  0 */\n      0x00\n        /* \"@openzeppelin/contracts/token/ERC20/ERC20.sol\":8177:8182  value */\n      dup4\n        /* \"@openzeppelin/contracts/token/ERC20/ERC20.sol\":8148:8155  _update */\n      tag_256\n        /* \"@openzeppelin/contracts/token/ERC20/ERC20.sol\":8148:8183  _update(account, address(0), value) */\n      jump\t// in\n    tag_267:\n        /* \"@openzeppelin/contracts/token/ERC20/ERC20.sol\":7984:8190  function _burn(address account, uint256 value) internal {... */\n      pop\n      pop\n      jump\t// out\n        /* \"@openzeppelin/contracts/token/ERC20/ERC20.sol\":9701:10133  function _approve(address owner, address spender, uint256 value, bool emitEvent) internal virtual {... */\n    tag_242:\n        /* \"@openzeppelin/contracts/token/ERC20/ERC20.sol\":9830:9831  0 */\n      0x00\n        /* \"@openzeppelin/contracts/token/ERC20/ERC20.sol\":9813:9832  owner == address(0) */\n      0xffffffffffffffffffffffffffffffffffffffff\n      and\n        /* \"@openzeppelin/contracts/token/ERC20/ERC20.sol\":9813:9818  owner */\n      dup5\n        /* \"@openzeppelin/contracts/token/ERC20/ERC20.sol\":9813:9832  owner == address(0) */\n      0xffffffffffffffffffffffffffffffffffffffff\n      and\n      sub\n        /* \"@openzeppelin/contracts/token/ERC20/ERC20.sol\":9809:9898  if (owner == address(0)) {... */\n      tag_269\n      jumpi\n        /* \"@openzeppelin/contracts/token/ERC20/ERC20.sol\":9884:9885  0 */\n      0x00\n        /* \"@openzeppelin/contracts/token/ERC20/ERC20.sol\":9855:9887  ERC20InvalidApprover(address(0)) */\n      mload(0x40)\n      0xe602df0500000000000000000000000000000000000000000000000000000000\n      dup2\n      mstore\n      0x04\n      add\n      tag_270\n      swap2\n      swap1\n      tag_77\n      jump\t// in\n    tag_270:\n      mload(0x40)\n      dup1\n      swap2\n      sub\n      swap1\n      revert\n        /* \"@openzeppelin/contracts/token/ERC20/ERC20.sol\":9809:9898  if (owner == address(0)) {... */\n    tag_269:\n        /* \"@openzeppelin/contracts/token/ERC20/ERC20.sol\":9930:9931  0 */\n      0x00\n        /* \"@openzeppelin/contracts/token/ERC20/ERC20.sol\":9911:9932  spender == address(0) */\n      0xffffffffffffffffffffffffffffffffffffffff\n      and\n        /* \"@openzeppelin/contracts/token/ERC20/ERC20.sol\":9911:9918  spender */\n      dup4\n        /* \"@openzeppelin/contracts/token/ERC20/ERC20.sol\":9911:9932  spender == address(0) */\n      0xffffffffffffffffffffffffffffffffffffffff\n      and\n      sub\n        /* \"@openzeppelin/contracts/token/ERC20/ERC20.sol\":9907:9997  if (spender == address(0)) {... */\n      tag_271\n      jumpi\n        /* \"@openzeppelin/contracts/token/ERC20/ERC20.sol\":9983:9984  0 */\n      0x00\n        /* \"@openzeppelin/contracts/token/ERC20/ERC20.sol\":9955:9986  ERC20InvalidSpender(address(0)) */\n      mload(0x40)\n      0x94280d6200000000000000000000000000000000000000000000000000000000\n      dup2\n      mstore\n      0x04\n      add\n      tag_272\n      swap2\n      swap1\n      tag_77\n      jump\t// in\n    tag_272:\n      mload(0x40)\n      dup1\n      swap2\n      sub\n      swap1\n      revert\n        /* \"@openzeppelin/contracts/token/ERC20/ERC20.sol\":9907:9997  if (spender == address(0)) {... */\n    tag_271:\n        /* \"@openzeppelin/contracts/token/ERC20/ERC20.sol\":10036:10041  value */\n      dup2\n        /* \"@openzeppelin/contracts/token/ERC20/ERC20.sol\":10006:10017  _allowances */\n      0x01\n        /* \"@openzeppelin/contracts/token/ERC20/ERC20.sol\":10006:10024  _allowances[owner] */\n      0x00\n        /* \"@openzeppelin/contracts/token/ERC20/ERC20.sol\":10018:10023  owner */\n      dup7\n        /* \"@openzeppelin/contracts/token/ERC20/ERC20.sol\":10006:10024  _allowances[owner] */\n      0xffffffffffffffffffffffffffffffffffffffff\n      and\n      0xffffffffffffffffffffffffffffffffffffffff\n      and\n      dup2\n      mstore\n      0x20\n      add\n      swap1\n      dup2\n      mstore\n      0x20\n      add\n      0x00\n      keccak256\n        /* \"@openzeppelin/contracts/token/ERC20/ERC20.sol\":10006:10033  _allowances[owner][spender] */\n      0x00\n        /* \"@openzeppelin/contracts/token/ERC20/ERC20.sol\":10025:10032  spender */\n      dup6\n        /* \"@openzeppelin/contracts/token/ERC20/ERC20.sol\":10006:10033  _allowances[owner][spender] */\n      0xffffffffffffffffffffffffffffffffffffffff\n      and\n      0xffffffffffffffffffffffffffffffffffffffff\n      and\n      dup2\n      mstore\n      0x20\n      add\n      swap1\n      dup2\n      mstore\n      0x20\n      add\n      0x00\n      keccak256\n        /* \"@openzeppelin/contracts/token/ERC20/ERC20.sol\":10006:10041  _allowances[owner][spender] = value */\n      dup2\n      swap1\n      sstore\n      pop\n        /* \"@openzeppelin/contracts/token/ERC20/ERC20.sol\":10055:10064  emitEvent */\n      dup1\n        /* \"@openzeppelin/contracts/token/ERC20/ERC20.sol\":10051:10127  if (emitEvent) {... */\n      iszero\n      tag_273\n      jumpi\n        /* \"@openzeppelin/contracts/token/ERC20/ERC20.sol\":10101:10108  spender */\n      dup3\n        /* \"@openzeppelin/contracts/token/ERC20/ERC20.sol\":10085:10116  Approval(owner, spender, value) */\n      0xffffffffffffffffffffffffffffffffffffffff\n      and\n        /* \"@openzeppelin/contracts/token/ERC20/ERC20.sol\":10094:10099  owner */\n      dup5\n        /* \"@openzeppelin/contracts/token/ERC20/ERC20.sol\":10085:10116  Approval(owner, spender, value) */\n      0xffffffffffffffffffffffffffffffffffffffff\n      and\n      0x8c5be1e5ebec7d5bd14f71427d1e84f3dd0314c0f7b2291e5b200ac8c7c3b925\n        /* \"@openzeppelin/contracts/token/ERC20/ERC20.sol\":10110:10115  value */\n      dup5\n        /* \"@openzeppelin/contracts/token/ERC20/ERC20.sol\":10085:10116  Approval(owner, spender, value) */\n      mload(0x40)\n      tag_274\n      swap2\n      swap1\n      tag_37\n      jump\t// in\n    tag_274:\n      mload(0x40)\n      dup1\n      swap2\n      sub\n      swap1\n      log3\n        /* \"@openzeppelin/contracts/token/ERC20/ERC20.sol\":10051:10127  if (emitEvent) {... */\n    tag_273:\n        /* \"@openzeppelin/contracts/token/ERC20/ERC20.sol\":9701:10133  function _approve(address owner, address spender, uint256 value, bool emitEvent) internal virtual {... */\n      pop\n      pop\n      pop\n      pop\n      jump\t// out\n        /* \"contracts/mem.sol\":3042:3195  function _update(address sender, address recipient, uint256 amount) internal virtual override {... */\n    tag_256:\n        /* \"contracts/mem.sol\":3147:3187  super._update(sender, recipient, amount) */\n      tag_276\n        /* \"contracts/mem.sol\":3161:3167  sender */\n      dup4\n        /* \"contracts/mem.sol\":3169:3178  recipient */\n      dup4\n        /* \"contracts/mem.sol\":3180:3186  amount */\n      dup4\n        /* \"contracts/mem.sol\":3147:3160  super._update */\n      tag_277\n        /* \"contracts/mem.sol\":3147:3187  super._update(sender, recipient, amount) */\n      jump\t// in\n    tag_276:\n        /* \"contracts/mem.sol\":3042:3195  function _update(address sender, address recipient, uint256 amount) internal virtual override {... */\n      pop\n      pop\n      pop\n      jump\t// out\n        /* \"@openzeppelin/contracts/token/ERC20/ERC20.sol\":6008:7115  function _update(address from, address to, uint256 value) internal virtual {... */\n    tag_277:\n        /* \"@openzeppelin/contracts/token/ERC20/ERC20.sol\":6113:6114  0 */\n      0x00\n        /* \"@openzeppelin/contracts/token/ERC20/ERC20.sol\":6097:6115  from == address(0) */\n      0xffffffffffffffffffffffffffffffffffffffff\n      and\n        /* \"@openzeppelin/contracts/token/ERC20/ERC20.sol\":6097:6101  from */\n      dup4\n        /* \"@openzeppelin/contracts/token/ERC20/ERC20.sol\":6097:6115  from == address(0) */\n      0xffffffffffffffffffffffffffffffffffffffff\n      and\n      sub\n        /* \"@openzeppelin/contracts/token/ERC20/ERC20.sol\":6093:6633  if (from == address(0)) {... */\n      tag_279\n      jumpi\n        /* \"@openzeppelin/contracts/token/ERC20/ERC20.sol\":6249:6254  value */\n      dup1\n        /* \"@openzeppelin/contracts/token/ERC20/ERC20.sol\":6233:6245  _totalSupply */\n      0x02\n      0x00\n        /* \"@openzeppelin/contracts/token/ERC20/ERC20.sol\":6233:6254  _totalSupply += value */\n      dup3\n      dup3\n      sload\n      tag_280\n      swap2\n      swap1\n      tag_207\n      jump\t// in\n    tag_280:\n      swap3\n      pop\n      pop\n      dup2\n      swap1\n      sstore\n      pop\n        /* \"@openzeppelin/contracts/token/ERC20/ERC20.sol\":6093:6633  if (from == address(0)) {... */\n      jump(tag_281)\n    tag_279:\n        /* \"@openzeppelin/contracts/token/ERC20/ERC20.sol\":6285:6304  uint256 fromBalance */\n      0x00\n        /* \"@openzeppelin/contracts/token/ERC20/ERC20.sol\":6307:6316  _balances */\n      0x00\n        /* \"@openzeppelin/contracts/token/ERC20/ERC20.sol\":6307:6322  _balances[from] */\n      0x00\n        /* \"@openzeppelin/contracts/token/ERC20/ERC20.sol\":6317:6321  from */\n      dup6\n        /* \"@openzeppelin/contracts/token/ERC20/ERC20.sol\":6307:6322  _balances[from] */\n      0xffffffffffffffffffffffffffffffffffffffff\n      and\n      0xffffffffffffffffffffffffffffffffffffffff\n      and\n      dup2\n      mstore\n      0x20\n      add\n      swap1\n      dup2\n      mstore\n      0x20\n      add\n      0x00\n      keccak256\n      sload\n        /* \"@openzeppelin/contracts/token/ERC20/ERC20.sol\":6285:6322  uint256 fromBalance = _balances[from] */\n      swap1\n      pop\n        /* \"@openzeppelin/contracts/token/ERC20/ERC20.sol\":6354:6359  value */\n      dup2\n        /* \"@openzeppelin/contracts/token/ERC20/ERC20.sol\":6340:6351  fromBalance */\n      dup2\n        /* \"@openzeppelin/contracts/token/ERC20/ERC20.sol\":6340:6359  fromBalance < value */\n      lt\n        /* \"@openzeppelin/contracts/token/ERC20/ERC20.sol\":6336:6451  if (fromBalance < value) {... */\n      iszero\n      tag_282\n      jumpi\n        /* \"@openzeppelin/contracts/token/ERC20/ERC20.sol\":6411:6415  from */\n      dup4\n        /* \"@openzeppelin/contracts/token/ERC20/ERC20.sol\":6417:6428  fromBalance */\n      dup2\n        /* \"@openzeppelin/contracts/token/ERC20/ERC20.sol\":6430:6435  value */\n      dup4\n        /* \"@openzeppelin/contracts/token/ERC20/ERC20.sol\":6386:6436  ERC20InsufficientBalance(from, fromBalance, value) */\n      mload(0x40)\n      0xe450d38c00000000000000000000000000000000000000000000000000000000\n      dup2\n      mstore\n      0x04\n      add\n      tag_283\n      swap4\n      swap3\n      swap2\n      swap1\n      tag_248\n      jump\t// in\n    tag_283:\n      mload(0x40)\n      dup1\n      swap2\n      sub\n      swap1\n      revert\n        /* \"@openzeppelin/contracts/token/ERC20/ERC20.sol\":6336:6451  if (fromBalance < value) {... */\n    tag_282:\n        /* \"@openzeppelin/contracts/token/ERC20/ERC20.sol\":6603:6608  value */\n      dup2\n        /* \"@openzeppelin/contracts/token/ERC20/ERC20.sol\":6589:6600  fromBalance */\n      dup2\n        /* \"@openzeppelin/contracts/token/ERC20/ERC20.sol\":6589:6608  fromBalance - value */\n      sub\n        /* \"@openzeppelin/contracts/token/ERC20/ERC20.sol\":6571:6580  _balances */\n      0x00\n        /* \"@openzeppelin/contracts/token/ERC20/ERC20.sol\":6571:6586  _balances[from] */\n      0x00\n        /* \"@openzeppelin/contracts/token/ERC20/ERC20.sol\":6581:6585  from */\n      dup7\n        /* \"@openzeppelin/contracts/token/ERC20/ERC20.sol\":6571:6586  _balances[from] */\n      0xffffffffffffffffffffffffffffffffffffffff\n      and\n      0xffffffffffffffffffffffffffffffffffffffff\n      and\n      dup2\n      mstore\n      0x20\n      add\n      swap1\n      dup2\n      mstore\n      0x20\n      add\n      0x00\n      keccak256\n        /* \"@openzeppelin/contracts/token/ERC20/ERC20.sol\":6571:6608  _balances[from] = fromBalance - value */\n      dup2\n      swap1\n      sstore\n      pop\n        /* \"@openzeppelin/contracts/token/ERC20/ERC20.sol\":6271:6633  {... */\n      pop\n        /* \"@openzeppelin/contracts/token/ERC20/ERC20.sol\":6093:6633  if (from == address(0)) {... */\n    tag_281:\n        /* \"@openzeppelin/contracts/token/ERC20/ERC20.sol\":6661:6662  0 */\n      0x00\n        /* \"@openzeppelin/contracts/token/ERC20/ERC20.sol\":6647:6663  to == address(0) */\n      0xffffffffffffffffffffffffffffffffffffffff\n      and\n        /* \"@openzeppelin/contracts/token/ERC20/ERC20.sol\":6647:6649  to */\n      dup3\n        /* \"@openzeppelin/contracts/token/ERC20/ERC20.sol\":6647:6663  to == address(0) */\n      0xffffffffffffffffffffffffffffffffffffffff\n      and\n      sub\n        /* \"@openzeppelin/contracts/token/ERC20/ERC20.sol\":6643:7068  if (to == address(0)) {... */\n      tag_284\n      jumpi\n        /* \"@openzeppelin/contracts/token/ERC20/ERC20.sol\":6826:6831  value */\n      dup1\n        /* \"@openzeppelin/contracts/token/ERC20/ERC20.sol\":6810:6822  _totalSupply */\n      0x02\n      0x00\n        /* \"@openzeppelin/contracts/token/ERC20/ERC20.sol\":6810:6831  _totalSupply -= value */\n      dup3\n      dup3\n      sload\n      sub\n      swap3\n      pop\n      pop\n      dup2\n      swap1\n      sstore\n      pop\n        /* \"@openzeppelin/contracts/token/ERC20/ERC20.sol\":6643:7068  if (to == address(0)) {... */\n      jump(tag_285)\n    tag_284:\n        /* \"@openzeppelin/contracts/token/ERC20/ERC20.sol\":7038:7043  value */\n      dup1\n        /* \"@openzeppelin/contracts/token/ERC20/ERC20.sol\":7021:7030  _balances */\n      0x00\n        /* \"@openzeppelin/contracts/token/ERC20/ERC20.sol\":7021:7034  _balances[to] */\n      0x00\n        /* \"@openzeppelin/contracts/token/ERC20/ERC20.sol\":7031:7033  to */\n      dup5\n        /* \"@openzeppelin/contracts/token/ERC20/ERC20.sol\":7021:7034  _balances[to] */\n      0xffffffffffffffffffffffffffffffffffffffff\n      and\n      0xffffffffffffffffffffffffffffffffffffffff\n      and\n      dup2\n      mstore\n      0x20\n      add\n      swap1\n      dup2\n      mstore\n      0x20\n      add\n      0x00\n      keccak256\n      0x00\n        /* \"@openzeppelin/contracts/token/ERC20/ERC20.sol\":7021:7043  _balances[to] += value */\n      dup3\n      dup3\n      sload\n      add\n      swap3\n      pop\n      pop\n      dup2\n      swap1\n      sstore\n      pop\n        /* \"@openzeppelin/contracts/token/ERC20/ERC20.sol\":6643:7068  if (to == address(0)) {... */\n    tag_285:\n        /* \"@openzeppelin/contracts/token/ERC20/ERC20.sol\":7098:7100  to */\n      dup2\n        /* \"@openzeppelin/contracts/token/ERC20/ERC20.sol\":7083:7108  Transfer(from, to, value) */\n      0xffffffffffffffffffffffffffffffffffffffff\n      and\n        /* \"@openzeppelin/contracts/token/ERC20/ERC20.sol\":7092:7096  from */\n      dup4\n        /* \"@openzeppelin/contracts/token/ERC20/ERC20.sol\":7083:7108  Transfer(from, to, value) */\n      0xffffffffffffffffffffffffffffffffffffffff\n      and\n      0xddf252ad1be2c89b69c2b068fc378daa952ba7f163c4a11628f55a4df523b3ef\n        /* \"@openzeppelin/contracts/token/ERC20/ERC20.sol\":7102:7107  value */\n      dup4\n        /* \"@openzeppelin/contracts/token/ERC20/ERC20.sol\":7083:7108  Transfer(from, to, value) */\n      mload(0x40)\n      tag_286\n      swap2\n      swap1\n      tag_37\n      jump\t// in\n    tag_286:\n      mload(0x40)\n      dup1\n      swap2\n      sub\n      swap1\n      log3\n        /* \"@openzeppelin/contracts/token/ERC20/ERC20.sol\":6008:7115  function _update(address from, address to, uint256 value) internal virtual {... */\n      pop\n      pop\n      pop\n      jump\t// out\n        /* \"#utility.yul\":7:84   */\n    tag_287:\n        /* \"#utility.yul\":44:51   */\n      0x00\n        /* \"#utility.yul\":73:78   */\n      dup2\n        /* \"#utility.yul\":62:78   */\n      swap1\n      pop\n        /* \"#utility.yul\":7:84   */\n      swap2\n      swap1\n      pop\n      jump\t// out\n        /* \"#utility.yul\":90:208   */\n    tag_288:\n        /* \"#utility.yul\":177:201   */\n      tag_325\n        /* \"#utility.yul\":195:200   */\n      dup2\n        /* \"#utility.yul\":177:201   */\n      tag_287\n      jump\t// in\n    tag_325:\n        /* \"#utility.yul\":172:175   */\n      dup3\n        /* \"#utility.yul\":165:202   */\n      mstore\n        /* \"#utility.yul\":90:208   */\n      pop\n      pop\n      jump\t// out\n        /* \"#utility.yul\":214:436   */\n    tag_37:\n        /* \"#utility.yul\":307:311   */\n      0x00\n        /* \"#utility.yul\":345:347   */\n      0x20\n        /* \"#utility.yul\":334:343   */\n      dup3\n        /* \"#utility.yul\":330:348   */\n      add\n        /* \"#utility.yul\":322:348   */\n      swap1\n      pop\n        /* \"#utility.yul\":358:429   */\n      tag_327\n        /* \"#utility.yul\":426:427   */\n      0x00\n        /* \"#utility.yul\":415:424   */\n      dup4\n        /* \"#utility.yul\":411:428   */\n      add\n        /* \"#utility.yul\":402:408   */\n      dup5\n        /* \"#utility.yul\":358:429   */\n      tag_288\n      jump\t// in\n    tag_327:\n        /* \"#utility.yul\":214:436   */\n      swap3\n      swap2\n      pop\n      pop\n      jump\t// out\n        /* \"#utility.yul\":442:541   */\n    tag_289:\n        /* \"#utility.yul\":494:500   */\n      0x00\n        /* \"#utility.yul\":528:533   */\n      dup2\n        /* \"#utility.yul\":522:534   */\n      mload\n        /* \"#utility.yul\":512:534   */\n      swap1\n      pop\n        /* \"#utility.yul\":442:541   */\n      swap2\n      swap1\n      pop\n      jump\t// out\n        /* \"#utility.yul\":547:716   */\n    tag_290:\n        /* \"#utility.yul\":631:642   */\n      0x00\n        /* \"#utility.yul\":665:671   */\n      dup3\n        /* \"#utility.yul\":660:663   */\n      dup3\n        /* \"#utility.yul\":653:672   */\n      mstore\n        /* \"#utility.yul\":705:709   */\n      0x20\n        /* \"#utility.yul\":700:703   */\n      dup3\n        /* \"#utility.yul\":696:710   */\n      add\n        /* \"#utility.yul\":681:710   */\n      swap1\n      pop\n        /* \"#utility.yul\":547:716   */\n      swap3\n      swap2\n      pop\n      pop\n      jump\t// out\n        /* \"#utility.yul\":722:861   */\n    tag_291:\n        /* \"#utility.yul\":811:817   */\n      dup3\n        /* \"#utility.yul\":806:809   */\n      dup2\n        /* \"#utility.yul\":801:804   */\n      dup4\n        /* \"#utility.yul\":795:818   */\n      mcopy\n        /* \"#utility.yul\":852:853   */\n      0x00\n        /* \"#utility.yul\":843:849   */\n      dup4\n        /* \"#utility.yul\":838:841   */\n      dup4\n        /* \"#utility.yul\":834:850   */\n      add\n        /* \"#utility.yul\":827:854   */\n      mstore\n        /* \"#utility.yul\":722:861   */\n      pop\n      pop\n      pop\n      jump\t// out\n        /* \"#utility.yul\":867:969   */\n    tag_292:\n        /* \"#utility.yul\":908:914   */\n      0x00\n        /* \"#utility.yul\":959:961   */\n      0x1f\n        /* \"#utility.yul\":955:962   */\n      not\n        /* \"#utility.yul\":950:952   */\n      0x1f\n        /* \"#utility.yul\":943:948   */\n      dup4\n        /* \"#utility.yul\":939:953   */\n      add\n        /* \"#utility.yul\":935:963   */\n      and\n        /* \"#utility.yul\":925:963   */\n      swap1\n      pop\n        /* \"#utility.yul\":867:969   */\n      swap2\n      swap1\n      pop\n      jump\t// out\n        /* \"#utility.yul\":975:1352   */\n    tag_293:\n        /* \"#utility.yul\":1063:1066   */\n      0x00\n        /* \"#utility.yul\":1091:1130   */\n      tag_333\n        /* \"#utility.yul\":1124:1129   */\n      dup3\n        /* \"#utility.yul\":1091:1130   */\n      tag_289\n      jump\t// in\n    tag_333:\n        /* \"#utility.yul\":1146:1217   */\n      tag_334\n        /* \"#utility.yul\":1210:1216   */\n      dup2\n        /* \"#utility.yul\":1205:1208   */\n      dup6\n        /* \"#utility.yul\":1146:1217   */\n      tag_290\n      jump\t// in\n    tag_334:\n        /* \"#utility.yul\":1139:1217   */\n      swap4\n      pop\n        /* \"#utility.yul\":1226:1291   */\n      tag_335\n        /* \"#utility.yul\":1284:1290   */\n      dup2\n        /* \"#utility.yul\":1279:1282   */\n      dup6\n        /* \"#utility.yul\":1272:1276   */\n      0x20\n        /* \"#utility.yul\":1265:1270   */\n      dup7\n        /* \"#utility.yul\":1261:1277   */\n      add\n        /* \"#utility.yul\":1226:1291   */\n      tag_291\n      jump\t// in\n    tag_335:\n        /* \"#utility.yul\":1316:1345   */\n      tag_336\n        /* \"#utility.yul\":1338:1344   */\n      dup2\n        /* \"#utility.yul\":1316:1345   */\n      tag_292\n      jump\t// in\n    tag_336:\n        /* \"#utility.yul\":1311:1314   */\n      dup5\n        /* \"#utility.yul\":1307:1346   */\n      add\n        /* \"#utility.yul\":1300:1346   */\n      swap2\n      pop\n        /* \"#utility.yul\":1067:1352   */\n      pop\n        /* \"#utility.yul\":975:1352   */\n      swap3\n      swap2\n      pop\n      pop\n      jump\t// out\n        /* \"#utility.yul\":1358:1671   */\n    tag_41:\n        /* \"#utility.yul\":1471:1475   */\n      0x00\n        /* \"#utility.yul\":1509:1511   */\n      0x20\n        /* \"#utility.yul\":1498:1507   */\n      dup3\n        /* \"#utility.yul\":1494:1512   */\n      add\n        /* \"#utility.yul\":1486:1512   */\n      swap1\n      pop\n        /* \"#utility.yul\":1558:1567   */\n      dup2\n        /* \"#utility.yul\":1552:1556   */\n      dup2\n        /* \"#utility.yul\":1548:1568   */\n      sub\n        /* \"#utility.yul\":1544:1545   */\n      0x00\n        /* \"#utility.yul\":1533:1542   */\n      dup4\n        /* \"#utility.yul\":1529:1546   */\n      add\n        /* \"#utility.yul\":1522:1569   */\n      mstore\n        /* \"#utility.yul\":1586:1664   */\n      tag_338\n        /* \"#utility.yul\":1659:1663   */\n      dup2\n        /* \"#utility.yul\":1650:1656   */\n      dup5\n        /* \"#utility.yul\":1586:1664   */\n      tag_293\n      jump\t// in\n    tag_338:\n        /* \"#utility.yul\":1578:1664   */\n      swap1\n      pop\n        /* \"#utility.yul\":1358:1671   */\n      swap3\n      swap2\n      pop\n      pop\n      jump\t// out\n        /* \"#utility.yul\":1758:1875   */\n    tag_295:\n        /* \"#utility.yul\":1867:1868   */\n      0x00\n        /* \"#utility.yul\":1864:1865   */\n      0x00\n        /* \"#utility.yul\":1857:1869   */\n      revert\n        /* \"#utility.yul\":2004:2130   */\n    tag_297:\n        /* \"#utility.yul\":2041:2048   */\n      0x00\n        /* \"#utility.yul\":2081:2123   */\n      0xffffffffffffffffffffffffffffffffffffffff\n        /* \"#utility.yul\":2074:2079   */\n      dup3\n        /* \"#utility.yul\":2070:2124   */\n      and\n        /* \"#utility.yul\":2059:2124   */\n      swap1\n      pop\n        /* \"#utility.yul\":2004:2130   */\n      swap2\n      swap1\n      pop\n      jump\t// out\n        /* \"#utility.yul\":2136:2232   */\n    tag_298:\n        /* \"#utility.yul\":2173:2180   */\n      0x00\n        /* \"#utility.yul\":2202:2226   */\n      tag_344\n        /* \"#utility.yul\":2220:2225   */\n      dup3\n        /* \"#utility.yul\":2202:2226   */\n      tag_297\n      jump\t// in\n    tag_344:\n        /* \"#utility.yul\":2191:2226   */\n      swap1\n      pop\n        /* \"#utility.yul\":2136:2232   */\n      swap2\n      swap1\n      pop\n      jump\t// out\n        /* \"#utility.yul\":2238:2360   */\n    tag_299:\n        /* \"#utility.yul\":2311:2335   */\n      tag_346\n        /* \"#utility.yul\":2329:2334   */\n      dup2\n        /* \"#utility.yul\":2311:2335   */\n      tag_298\n      jump\t// in\n    tag_346:\n        /* \"#utility.yul\":2304:2309   */\n      dup2\n        /* \"#utility.yul\":2301:2336   */\n      eq\n        /* \"#utility.yul\":2291:2354   */\n      tag_347\n      jumpi\n        /* \"#utility.yul\":2350:2351   */\n      0x00\n        /* \"#utility.yul\":2347:2348   */\n      0x00\n        /* \"#utility.yul\":2340:2352   */\n      revert\n        /* \"#utility.yul\":2291:2354   */\n    tag_347:\n        /* \"#utility.yul\":2238:2360   */\n      pop\n      jump\t// out\n        /* \"#utility.yul\":2366:2505   */\n    tag_300:\n        /* \"#utility.yul\":2412:2417   */\n      0x00\n        /* \"#utility.yul\":2450:2456   */\n      dup2\n        /* \"#utility.yul\":2437:2457   */\n      calldataload\n        /* \"#utility.yul\":2428:2457   */\n      swap1\n      pop\n        /* \"#utility.yul\":2466:2499   */\n      tag_349\n        /* \"#utility.yul\":2493:2498   */\n      dup2\n        /* \"#utility.yul\":2466:2499   */\n      tag_299\n      jump\t// in\n    tag_349:\n        /* \"#utility.yul\":2366:2505   */\n      swap3\n      swap2\n      pop\n      pop\n      jump\t// out\n        /* \"#utility.yul\":2511:2633   */\n    tag_301:\n        /* \"#utility.yul\":2584:2608   */\n      tag_351\n        /* \"#utility.yul\":2602:2607   */\n      dup2\n        /* \"#utility.yul\":2584:2608   */\n      tag_287\n      jump\t// in\n    tag_351:\n        /* \"#utility.yul\":2577:2582   */\n      dup2\n        /* \"#utility.yul\":2574:2609   */\n      eq\n        /* \"#utility.yul\":2564:2627   */\n      tag_352\n      jumpi\n        /* \"#utility.yul\":2623:2624   */\n      0x00\n        /* \"#utility.yul\":2620:2621   */\n      0x00\n        /* \"#utility.yul\":2613:2625   */\n      revert\n        /* \"#utility.yul\":2564:2627   */\n    tag_352:\n        /* \"#utility.yul\":2511:2633   */\n      pop\n      jump\t// out\n        /* \"#utility.yul\":2639:2778   */\n    tag_302:\n        /* \"#utility.yul\":2685:2690   */\n      0x00\n        /* \"#utility.yul\":2723:2729   */\n      dup2\n        /* \"#utility.yul\":2710:2730   */\n      calldataload\n        /* \"#utility.yul\":2701:2730   */\n      swap1\n      pop\n        /* \"#utility.yul\":2739:2772   */\n      tag_354\n        /* \"#utility.yul\":2766:2771   */\n      dup2\n        /* \"#utility.yul\":2739:2772   */\n      tag_301\n      jump\t// in\n    tag_354:\n        /* \"#utility.yul\":2639:2778   */\n      swap3\n      swap2\n      pop\n      pop\n      jump\t// out\n        /* \"#utility.yul\":2784:3258   */\n    tag_44:\n        /* \"#utility.yul\":2852:2858   */\n      0x00\n        /* \"#utility.yul\":2860:2866   */\n      0x00\n        /* \"#utility.yul\":2909:2911   */\n      0x40\n        /* \"#utility.yul\":2897:2906   */\n      dup4\n        /* \"#utility.yul\":2888:2895   */\n      dup6\n        /* \"#utility.yul\":2884:2907   */\n      sub\n        /* \"#utility.yul\":2880:2912   */\n      slt\n        /* \"#utility.yul\":2877:2996   */\n      iszero\n      tag_356\n      jumpi\n        /* \"#utility.yul\":2915:2994   */\n      tag_357\n      tag_295\n      jump\t// in\n    tag_357:\n        /* \"#utility.yul\":2877:2996   */\n    tag_356:\n        /* \"#utility.yul\":3035:3036   */\n      0x00\n        /* \"#utility.yul\":3060:3113   */\n      tag_358\n        /* \"#utility.yul\":3105:3112   */\n      dup6\n        /* \"#utility.yul\":3096:3102   */\n      dup3\n        /* \"#utility.yul\":3085:3094   */\n      dup7\n        /* \"#utility.yul\":3081:3103   */\n      add\n        /* \"#utility.yul\":3060:3113   */\n      tag_300\n      jump\t// in\n    tag_358:\n        /* \"#utility.yul\":3050:3113   */\n      swap3\n      pop\n        /* \"#utility.yul\":3006:3123   */\n      pop\n        /* \"#utility.yul\":3162:3164   */\n      0x20\n        /* \"#utility.yul\":3188:3241   */\n      tag_359\n        /* \"#utility.yul\":3233:3240   */\n      dup6\n        /* \"#utility.yul\":3224:3230   */\n      dup3\n        /* \"#utility.yul\":3213:3222   */\n      dup7\n        /* \"#utility.yul\":3209:3231   */\n      add\n        /* \"#utility.yul\":3188:3241   */\n      tag_302\n      jump\t// in\n    tag_359:\n        /* \"#utility.yul\":3178:3241   */\n      swap2\n      pop\n        /* \"#utility.yul\":3133:3251   */\n      pop\n        /* \"#utility.yul\":2784:3258   */\n      swap3\n      pop\n      swap3\n      swap1\n      pop\n      jump\t// out\n        /* \"#utility.yul\":3264:3354   */\n    tag_303:\n        /* \"#utility.yul\":3298:3305   */\n      0x00\n        /* \"#utility.yul\":3341:3346   */\n      dup2\n        /* \"#utility.yul\":3334:3347   */\n      iszero\n        /* \"#utility.yul\":3327:3348   */\n      iszero\n        /* \"#utility.yul\":3316:3348   */\n      swap1\n      pop\n        /* \"#utility.yul\":3264:3354   */\n      swap2\n      swap1\n      pop\n      jump\t// out\n        /* \"#utility.yul\":3360:3469   */\n    tag_304:\n        /* \"#utility.yul\":3441:3462   */\n      tag_362\n        /* \"#utility.yul\":3456:3461   */\n      dup2\n        /* \"#utility.yul\":3441:3462   */\n      tag_303\n      jump\t// in\n    tag_362:\n        /* \"#utility.yul\":3436:3439   */\n      dup3\n        /* \"#utility.yul\":3429:3463   */\n      mstore\n        /* \"#utility.yul\":3360:3469   */\n      pop\n      pop\n      jump\t// out\n        /* \"#utility.yul\":3475:3685   */\n    tag_47:\n        /* \"#utility.yul\":3562:3566   */\n      0x00\n        /* \"#utility.yul\":3600:3602   */\n      0x20\n        /* \"#utility.yul\":3589:3598   */\n      dup3\n        /* \"#utility.yul\":3585:3603   */\n      add\n        /* \"#utility.yul\":3577:3603   */\n      swap1\n      pop\n        /* \"#utility.yul\":3613:3678   */\n      tag_364\n        /* \"#utility.yul\":3675:3676   */\n      0x00\n        /* \"#utility.yul\":3664:3673   */\n      dup4\n        /* \"#utility.yul\":3660:3677   */\n      add\n        /* \"#utility.yul\":3651:3657   */\n      dup5\n        /* \"#utility.yul\":3613:3678   */\n      tag_304\n      jump\t// in\n    tag_364:\n        /* \"#utility.yul\":3475:3685   */\n      swap3\n      swap2\n      pop\n      pop\n      jump\t// out\n        /* \"#utility.yul\":3691:4310   */\n    tag_56:\n        /* \"#utility.yul\":3768:3774   */\n      0x00\n        /* \"#utility.yul\":3776:3782   */\n      0x00\n        /* \"#utility.yul\":3784:3790   */\n      0x00\n        /* \"#utility.yul\":3833:3835   */\n      0x60\n        /* \"#utility.yul\":3821:3830   */\n      dup5\n        /* \"#utility.yul\":3812:3819   */\n      dup7\n        /* \"#utility.yul\":3808:3831   */\n      sub\n        /* \"#utility.yul\":3804:3836   */\n      slt\n        /* \"#utility.yul\":3801:3920   */\n      iszero\n      tag_366\n      jumpi\n        /* \"#utility.yul\":3839:3918   */\n      tag_367\n      tag_295\n      jump\t// in\n    tag_367:\n        /* \"#utility.yul\":3801:3920   */\n    tag_366:\n        /* \"#utility.yul\":3959:3960   */\n      0x00\n        /* \"#utility.yul\":3984:4037   */\n      tag_368\n        /* \"#utility.yul\":4029:4036   */\n      dup7\n        /* \"#utility.yul\":4020:4026   */\n      dup3\n        /* \"#utility.yul\":4009:4018   */\n      dup8\n        /* \"#utility.yul\":4005:4027   */\n      add\n        /* \"#utility.yul\":3984:4037   */\n      tag_300\n      jump\t// in\n    tag_368:\n        /* \"#utility.yul\":3974:4037   */\n      swap4\n      pop\n        /* \"#utility.yul\":3930:4047   */\n      pop\n        /* \"#utility.yul\":4086:4088   */\n      0x20\n        /* \"#utility.yul\":4112:4165   */\n      tag_369\n        /* \"#utility.yul\":4157:4164   */\n      dup7\n        /* \"#utility.yul\":4148:4154   */\n      dup3\n        /* \"#utility.yul\":4137:4146   */\n      dup8\n        /* \"#utility.yul\":4133:4155   */\n      add\n        /* \"#utility.yul\":4112:4165   */\n      tag_300\n      jump\t// in\n    tag_369:\n        /* \"#utility.yul\":4102:4165   */\n      swap3\n      pop\n        /* \"#utility.yul\":4057:4175   */\n      pop\n        /* \"#utility.yul\":4214:4216   */\n      0x40\n        /* \"#utility.yul\":4240:4293   */\n      tag_370\n        /* \"#utility.yul\":4285:4292   */\n      dup7\n        /* \"#utility.yul\":4276:4282   */\n      dup3\n        /* \"#utility.yul\":4265:4274   */\n      dup8\n        /* \"#utility.yul\":4261:4283   */\n      add\n        /* \"#utility.yul\":4240:4293   */\n      tag_302\n      jump\t// in\n    tag_370:\n        /* \"#utility.yul\":4230:4293   */\n      swap2\n      pop\n        /* \"#utility.yul\":4185:4303   */\n      pop\n        /* \"#utility.yul\":3691:4310   */\n      swap3\n      pop\n      swap3\n      pop\n      swap3\n      jump\t// out\n        /* \"#utility.yul\":4316:4376   */\n    tag_305:\n        /* \"#utility.yul\":4344:4347   */\n      0x00\n        /* \"#utility.yul\":4365:4370   */\n      dup2\n        /* \"#utility.yul\":4358:4370   */\n      swap1\n      pop\n        /* \"#utility.yul\":4316:4376   */\n      swap2\n      swap1\n      pop\n      jump\t// out\n        /* \"#utility.yul\":4382:4524   */\n    tag_306:\n        /* \"#utility.yul\":4432:4441   */\n      0x00\n        /* \"#utility.yul\":4465:4518   */\n      tag_373\n        /* \"#utility.yul\":4483:4517   */\n      tag_374\n        /* \"#utility.yul\":4492:4516   */\n      tag_375\n        /* \"#utility.yul\":4510:4515   */\n      dup5\n        /* \"#utility.yul\":4492:4516   */\n      tag_297\n      jump\t// in\n    tag_375:\n        /* \"#utility.yul\":4483:4517   */\n      tag_305\n      jump\t// in\n    tag_374:\n        /* \"#utility.yul\":4465:4518   */\n      tag_297\n      jump\t// in\n    tag_373:\n        /* \"#utility.yul\":4452:4518   */\n      swap1\n      pop\n        /* \"#utility.yul\":4382:4524   */\n      swap2\n      swap1\n      pop\n      jump\t// out\n        /* \"#utility.yul\":4530:4656   */\n    tag_307:\n        /* \"#utility.yul\":4580:4589   */\n      0x00\n        /* \"#utility.yul\":4613:4650   */\n      tag_377\n        /* \"#utility.yul\":4644:4649   */\n      dup3\n        /* \"#utility.yul\":4613:4650   */\n      tag_306\n      jump\t// in\n    tag_377:\n        /* \"#utility.yul\":4600:4650   */\n      swap1\n      pop\n        /* \"#utility.yul\":4530:4656   */\n      swap2\n      swap1\n      pop\n      jump\t// out\n        /* \"#utility.yul\":4662:4814   */\n    tag_308:\n        /* \"#utility.yul\":4738:4747   */\n      0x00\n        /* \"#utility.yul\":4771:4808   */\n      tag_379\n        /* \"#utility.yul\":4802:4807   */\n      dup3\n        /* \"#utility.yul\":4771:4808   */\n      tag_307\n      jump\t// in\n    tag_379:\n        /* \"#utility.yul\":4758:4808   */\n      swap1\n      pop\n        /* \"#utility.yul\":4662:4814   */\n      swap2\n      swap1\n      pop\n      jump\t// out\n        /* \"#utility.yul\":4820:5003   */\n    tag_309:\n        /* \"#utility.yul\":4933:4996   */\n      tag_381\n        /* \"#utility.yul\":4990:4995   */\n      dup2\n        /* \"#utility.yul\":4933:4996   */\n      tag_308\n      jump\t// in\n    tag_381:\n        /* \"#utility.yul\":4928:4931   */\n      dup3\n        /* \"#utility.yul\":4921:4997   */\n      mstore\n        /* \"#utility.yul\":4820:5003   */\n      pop\n      pop\n      jump\t// out\n        /* \"#utility.yul\":5009:5283   */\n    tag_62:\n        /* \"#utility.yul\":5128:5132   */\n      0x00\n        /* \"#utility.yul\":5166:5168   */\n      0x20\n        /* \"#utility.yul\":5155:5164   */\n      dup3\n        /* \"#utility.yul\":5151:5169   */\n      add\n        /* \"#utility.yul\":5143:5169   */\n      swap1\n      pop\n        /* \"#utility.yul\":5179:5276   */\n      tag_383\n        /* \"#utility.yul\":5273:5274   */\n      0x00\n        /* \"#utility.yul\":5262:5271   */\n      dup4\n        /* \"#utility.yul\":5258:5275   */\n      add\n        /* \"#utility.yul\":5249:5255   */\n      dup5\n        /* \"#utility.yul\":5179:5276   */\n      tag_309\n      jump\t// in\n    tag_383:\n        /* \"#utility.yul\":5009:5283   */\n      swap3\n      swap2\n      pop\n      pop\n      jump\t// out\n        /* \"#utility.yul\":5289:5618   */\n    tag_65:\n        /* \"#utility.yul\":5348:5354   */\n      0x00\n        /* \"#utility.yul\":5397:5399   */\n      0x20\n        /* \"#utility.yul\":5385:5394   */\n      dup3\n        /* \"#utility.yul\":5376:5383   */\n      dup5\n        /* \"#utility.yul\":5372:5395   */\n      sub\n        /* \"#utility.yul\":5368:5400   */\n      slt\n        /* \"#utility.yul\":5365:5484   */\n      iszero\n      tag_385\n      jumpi\n        /* \"#utility.yul\":5403:5482   */\n      tag_386\n      tag_295\n      jump\t// in\n    tag_386:\n        /* \"#utility.yul\":5365:5484   */\n    tag_385:\n        /* \"#utility.yul\":5523:5524   */\n      0x00\n        /* \"#utility.yul\":5548:5601   */\n      tag_387\n        /* \"#utility.yul\":5593:5600   */\n      dup5\n        /* \"#utility.yul\":5584:5590   */\n      dup3\n        /* \"#utility.yul\":5573:5582   */\n      dup6\n        /* \"#utility.yul\":5569:5591   */\n      add\n        /* \"#utility.yul\":5548:5601   */\n      tag_302\n      jump\t// in\n    tag_387:\n        /* \"#utility.yul\":5538:5601   */\n      swap2\n      pop\n        /* \"#utility.yul\":5494:5611   */\n      pop\n        /* \"#utility.yul\":5289:5618   */\n      swap3\n      swap2\n      pop\n      pop\n      jump\t// out\n        /* \"#utility.yul\":5624:5710   */\n    tag_310:\n        /* \"#utility.yul\":5659:5666   */\n      0x00\n        /* \"#utility.yul\":5699:5703   */\n      0xff\n        /* \"#utility.yul\":5692:5697   */\n      dup3\n        /* \"#utility.yul\":5688:5704   */\n      and\n        /* \"#utility.yul\":5677:5704   */\n      swap1\n      pop\n        /* \"#utility.yul\":5624:5710   */\n      swap2\n      swap1\n      pop\n      jump\t// out\n        /* \"#utility.yul\":5716:5828   */\n    tag_311:\n        /* \"#utility.yul\":5799:5821   */\n      tag_390\n        /* \"#utility.yul\":5815:5820   */\n      dup2\n        /* \"#utility.yul\":5799:5821   */\n      tag_310\n      jump\t// in\n    tag_390:\n        /* \"#utility.yul\":5794:5797   */\n      dup3\n        /* \"#utility.yul\":5787:5822   */\n      mstore\n        /* \"#utility.yul\":5716:5828   */\n      pop\n      pop\n      jump\t// out\n        /* \"#utility.yul\":5834:6048   */\n    tag_70:\n        /* \"#utility.yul\":5923:5927   */\n      0x00\n        /* \"#utility.yul\":5961:5963   */\n      0x20\n        /* \"#utility.yul\":5950:5959   */\n      dup3\n        /* \"#utility.yul\":5946:5964   */\n      add\n        /* \"#utility.yul\":5938:5964   */\n      swap1\n      pop\n        /* \"#utility.yul\":5974:6041   */\n      tag_392\n        /* \"#utility.yul\":6038:6039   */\n      0x00\n        /* \"#utility.yul\":6027:6036   */\n      dup4\n        /* \"#utility.yul\":6023:6040   */\n      add\n        /* \"#utility.yul\":6014:6020   */\n      dup5\n        /* \"#utility.yul\":5974:6041   */\n      tag_311\n      jump\t// in\n    tag_392:\n        /* \"#utility.yul\":5834:6048   */\n      swap3\n      swap2\n      pop\n      pop\n      jump\t// out\n        /* \"#utility.yul\":6054:6172   */\n    tag_312:\n        /* \"#utility.yul\":6141:6165   */\n      tag_394\n        /* \"#utility.yul\":6159:6164   */\n      dup2\n        /* \"#utility.yul\":6141:6165   */\n      tag_298\n      jump\t// in\n    tag_394:\n        /* \"#utility.yul\":6136:6139   */\n      dup3\n        /* \"#utility.yul\":6129:6166   */\n      mstore\n        /* \"#utility.yul\":6054:6172   */\n      pop\n      pop\n      jump\t// out\n        /* \"#utility.yul\":6178:6400   */\n    tag_77:\n        /* \"#utility.yul\":6271:6275   */\n      0x00\n        /* \"#utility.yul\":6309:6311   */\n      0x20\n        /* \"#utility.yul\":6298:6307   */\n      dup3\n        /* \"#utility.yul\":6294:6312   */\n      add\n        /* \"#utility.yul\":6286:6312   */\n      swap1\n      pop\n        /* \"#utility.yul\":6322:6393   */\n      tag_396\n        /* \"#utility.yul\":6390:6391   */\n      0x00\n        /* \"#utility.yul\":6379:6388   */\n      dup4\n        /* \"#utility.yul\":6375:6392   */\n      add\n        /* \"#utility.yul\":6366:6372   */\n      dup5\n        /* \"#utility.yul\":6322:6393   */\n      tag_312\n      jump\t// in\n    tag_396:\n        /* \"#utility.yul\":6178:6400   */\n      swap3\n      swap2\n      pop\n      pop\n      jump\t// out\n        /* \"#utility.yul\":6406:6735   */\n    tag_86:\n        /* \"#utility.yul\":6465:6471   */\n      0x00\n        /* \"#utility.yul\":6514:6516   */\n      0x20\n        /* \"#utility.yul\":6502:6511   */\n      dup3\n        /* \"#utility.yul\":6493:6500   */\n      dup5\n        /* \"#utility.yul\":6489:6512   */\n      sub\n        /* \"#utility.yul\":6485:6517   */\n      slt\n        /* \"#utility.yul\":6482:6601   */\n      iszero\n      tag_398\n      jumpi\n        /* \"#utility.yul\":6520:6599   */\n      tag_399\n      tag_295\n      jump\t// in\n    tag_399:\n        /* \"#utility.yul\":6482:6601   */\n    tag_398:\n        /* \"#utility.yul\":6640:6641   */\n      0x00\n        /* \"#utility.yul\":6665:6718   */\n      tag_400\n        /* \"#utility.yul\":6710:6717   */\n      dup5\n        /* \"#utility.yul\":6701:6707   */\n      dup3\n        /* \"#utility.yul\":6690:6699   */\n      dup6\n        /* \"#utility.yul\":6686:6708   */\n      add\n        /* \"#utility.yul\":6665:6718   */\n      tag_300\n      jump\t// in\n    tag_400:\n        /* \"#utility.yul\":6655:6718   */\n      swap2\n      pop\n        /* \"#utility.yul\":6611:6728   */\n      pop\n        /* \"#utility.yul\":6406:6735   */\n      swap3\n      swap2\n      pop\n      pop\n      jump\t// out\n        /* \"#utility.yul\":6741:7215   */\n    tag_106:\n        /* \"#utility.yul\":6809:6815   */\n      0x00\n        /* \"#utility.yul\":6817:6823   */\n      0x00\n        /* \"#utility.yul\":6866:6868   */\n      0x40\n        /* \"#utility.yul\":6854:6863   */\n      dup4\n        /* \"#utility.yul\":6845:6852   */\n      dup6\n        /* \"#utility.yul\":6841:6864   */\n      sub\n        /* \"#utility.yul\":6837:6869   */\n      slt\n        /* \"#utility.yul\":6834:6953   */\n      iszero\n      tag_402\n      jumpi\n        /* \"#utility.yul\":6872:6951   */\n      tag_403\n      tag_295\n      jump\t// in\n    tag_403:\n        /* \"#utility.yul\":6834:6953   */\n    tag_402:\n        /* \"#utility.yul\":6992:6993   */\n      0x00\n        /* \"#utility.yul\":7017:7070   */\n      tag_404\n        /* \"#utility.yul\":7062:7069   */\n      dup6\n        /* \"#utility.yul\":7053:7059   */\n      dup3\n        /* \"#utility.yul\":7042:7051   */\n      dup7\n        /* \"#utility.yul\":7038:7060   */\n      add\n        /* \"#utility.yul\":7017:7070   */\n      tag_302\n      jump\t// in\n    tag_404:\n        /* \"#utility.yul\":7007:7070   */\n      swap3\n      pop\n        /* \"#utility.yul\":6963:7080   */\n      pop\n        /* \"#utility.yul\":7119:7121   */\n      0x20\n        /* \"#utility.yul\":7145:7198   */\n      tag_405\n        /* \"#utility.yul\":7190:7197   */\n      dup6\n        /* \"#utility.yul\":7181:7187   */\n      dup3\n        /* \"#utility.yul\":7170:7179   */\n      dup7\n        /* \"#utility.yul\":7166:7188   */\n      add\n        /* \"#utility.yul\":7145:7198   */\n      tag_302\n      jump\t// in\n    tag_405:\n        /* \"#utility.yul\":7135:7198   */\n      swap2\n      pop\n        /* \"#utility.yul\":7090:7208   */\n      pop\n        /* \"#utility.yul\":6741:7215   */\n      swap3\n      pop\n      swap3\n      swap1\n      pop\n      jump\t// out\n        /* \"#utility.yul\":7221:7337   */\n    tag_313:\n        /* \"#utility.yul\":7291:7312   */\n      tag_407\n        /* \"#utility.yul\":7306:7311   */\n      dup2\n        /* \"#utility.yul\":7291:7312   */\n      tag_303\n      jump\t// in\n    tag_407:\n        /* \"#utility.yul\":7284:7289   */\n      dup2\n        /* \"#utility.yul\":7281:7313   */\n      eq\n        /* \"#utility.yul\":7271:7331   */\n      tag_408\n      jumpi\n        /* \"#utility.yul\":7327:7328   */\n      0x00\n        /* \"#utility.yul\":7324:7325   */\n      0x00\n        /* \"#utility.yul\":7317:7329   */\n      revert\n        /* \"#utility.yul\":7271:7331   */\n    tag_408:\n        /* \"#utility.yul\":7221:7337   */\n      pop\n      jump\t// out\n        /* \"#utility.yul\":7343:7476   */\n    tag_314:\n        /* \"#utility.yul\":7386:7391   */\n      0x00\n        /* \"#utility.yul\":7424:7430   */\n      dup2\n        /* \"#utility.yul\":7411:7431   */\n      calldataload\n        /* \"#utility.yul\":7402:7431   */\n      swap1\n      pop\n        /* \"#utility.yul\":7440:7470   */\n      tag_410\n        /* \"#utility.yul\":7464:7469   */\n      dup2\n        /* \"#utility.yul\":7440:7470   */\n      tag_313\n      jump\t// in\n    tag_410:\n        /* \"#utility.yul\":7343:7476   */\n      swap3\n      swap2\n      pop\n      pop\n      jump\t// out\n        /* \"#utility.yul\":7482:7950   */\n    tag_110:\n        /* \"#utility.yul\":7547:7553   */\n      0x00\n        /* \"#utility.yul\":7555:7561   */\n      0x00\n        /* \"#utility.yul\":7604:7606   */\n      0x40\n        /* \"#utility.yul\":7592:7601   */\n      dup4\n        /* \"#utility.yul\":7583:7590   */\n      dup6\n        /* \"#utility.yul\":7579:7602   */\n      sub\n        /* \"#utility.yul\":7575:7607   */\n      slt\n        /* \"#utility.yul\":7572:7691   */\n      iszero\n      tag_412\n      jumpi\n        /* \"#utility.yul\":7610:7689   */\n      tag_413\n      tag_295\n      jump\t// in\n    tag_413:\n        /* \"#utility.yul\":7572:7691   */\n    tag_412:\n        /* \"#utility.yul\":7730:7731   */\n      0x00\n        /* \"#utility.yul\":7755:7808   */\n      tag_414\n        /* \"#utility.yul\":7800:7807   */\n      dup6\n        /* \"#utility.yul\":7791:7797   */\n      dup3\n        /* \"#utility.yul\":7780:7789   */\n      dup7\n        /* \"#utility.yul\":7776:7798   */\n      add\n        /* \"#utility.yul\":7755:7808   */\n      tag_300\n      jump\t// in\n    tag_414:\n        /* \"#utility.yul\":7745:7808   */\n      swap3\n      pop\n        /* \"#utility.yul\":7701:7818   */\n      pop\n        /* \"#utility.yul\":7857:7859   */\n      0x20\n        /* \"#utility.yul\":7883:7933   */\n      tag_415\n        /* \"#utility.yul\":7925:7932   */\n      dup6\n        /* \"#utility.yul\":7916:7922   */\n      dup3\n        /* \"#utility.yul\":7905:7914   */\n      dup7\n        /* \"#utility.yul\":7901:7923   */\n      add\n        /* \"#utility.yul\":7883:7933   */\n      tag_314\n      jump\t// in\n    tag_415:\n        /* \"#utility.yul\":7873:7933   */\n      swap2\n      pop\n        /* \"#utility.yul\":7828:7943   */\n      pop\n        /* \"#utility.yul\":7482:7950   */\n      swap3\n      pop\n      swap3\n      swap1\n      pop\n      jump\t// out\n        /* \"#utility.yul\":7956:8430   */\n    tag_124:\n        /* \"#utility.yul\":8024:8030   */\n      0x00\n        /* \"#utility.yul\":8032:8038   */\n      0x00\n        /* \"#utility.yul\":8081:8083   */\n      0x40\n        /* \"#utility.yul\":8069:8078   */\n      dup4\n        /* \"#utility.yul\":8060:8067   */\n      dup6\n        /* \"#utility.yul\":8056:8079   */\n      sub\n        /* \"#utility.yul\":8052:8084   */\n      slt\n        /* \"#utility.yul\":8049:8168   */\n      iszero\n      tag_417\n      jumpi\n        /* \"#utility.yul\":8087:8166   */\n      tag_418\n      tag_295\n      jump\t// in\n    tag_418:\n        /* \"#utility.yul\":8049:8168   */\n    tag_417:\n        /* \"#utility.yul\":8207:8208   */\n      0x00\n        /* \"#utility.yul\":8232:8285   */\n      tag_419\n        /* \"#utility.yul\":8277:8284   */\n      dup6\n        /* \"#utility.yul\":8268:8274   */\n      dup3\n        /* \"#utility.yul\":8257:8266   */\n      dup7\n        /* \"#utility.yul\":8253:8275   */\n      add\n        /* \"#utility.yul\":8232:8285   */\n      tag_300\n      jump\t// in\n    tag_419:\n        /* \"#utility.yul\":8222:8285   */\n      swap3\n      pop\n        /* \"#utility.yul\":8178:8295   */\n      pop\n        /* \"#utility.yul\":8334:8336   */\n      0x20\n        /* \"#utility.yul\":8360:8413   */\n      tag_420\n        /* \"#utility.yul\":8405:8412   */\n      dup6\n        /* \"#utility.yul\":8396:8402   */\n      dup3\n        /* \"#utility.yul\":8385:8394   */\n      dup7\n        /* \"#utility.yul\":8381:8403   */\n      add\n        /* \"#utility.yul\":8360:8413   */\n      tag_300\n      jump\t// in\n    tag_420:\n        /* \"#utility.yul\":8350:8413   */\n      swap2\n      pop\n        /* \"#utility.yul\":8305:8423   */\n      pop\n        /* \"#utility.yul\":7956:8430   */\n      swap3\n      pop\n      swap3\n      swap1\n      pop\n      jump\t// out\n        /* \"#utility.yul\":8436:8616   */\n    tag_315:\n        /* \"#utility.yul\":8484:8561   */\n      0x4e487b7100000000000000000000000000000000000000000000000000000000\n        /* \"#utility.yul\":8481:8482   */\n      0x00\n        /* \"#utility.yul\":8474:8562   */\n      mstore\n        /* \"#utility.yul\":8581:8585   */\n      0x22\n        /* \"#utility.yul\":8578:8579   */\n      0x04\n        /* \"#utility.yul\":8571:8586   */\n      mstore\n        /* \"#utility.yul\":8605:8609   */\n      0x24\n        /* \"#utility.yul\":8602:8603   */\n      0x00\n        /* \"#utility.yul\":8595:8610   */\n      revert\n        /* \"#utility.yul\":8622:8942   */\n    tag_132:\n        /* \"#utility.yul\":8666:8672   */\n      0x00\n        /* \"#utility.yul\":8703:8704   */\n      0x02\n        /* \"#utility.yul\":8697:8701   */\n      dup3\n        /* \"#utility.yul\":8693:8705   */\n      div\n        /* \"#utility.yul\":8683:8705   */\n      swap1\n      pop\n        /* \"#utility.yul\":8750:8751   */\n      0x01\n        /* \"#utility.yul\":8744:8748   */\n      dup3\n        /* \"#utility.yul\":8740:8752   */\n      and\n        /* \"#utility.yul\":8771:8789   */\n      dup1\n        /* \"#utility.yul\":8761:8842   */\n      tag_423\n      jumpi\n        /* \"#utility.yul\":8827:8831   */\n      0x7f\n        /* \"#utility.yul\":8819:8825   */\n      dup3\n        /* \"#utility.yul\":8815:8832   */\n      and\n        /* \"#utility.yul\":8805:8832   */\n      swap2\n      pop\n        /* \"#utility.yul\":8761:8842   */\n    tag_423:\n        /* \"#utility.yul\":8889:8891   */\n      0x20\n        /* \"#utility.yul\":8881:8887   */\n      dup3\n        /* \"#utility.yul\":8878:8892   */\n      lt\n        /* \"#utility.yul\":8858:8876   */\n      dup2\n        /* \"#utility.yul\":8855:8893   */\n      sub\n        /* \"#utility.yul\":8852:8936   */\n      tag_424\n      jumpi\n        /* \"#utility.yul\":8908:8926   */\n      tag_425\n      tag_315\n      jump\t// in\n    tag_425:\n        /* \"#utility.yul\":8852:8936   */\n    tag_424:\n        /* \"#utility.yul\":8673:8942   */\n      pop\n        /* \"#utility.yul\":8622:8942   */\n      swap2\n      swap1\n      pop\n      jump\t// out\n        /* \"#utility.yul\":8948:9033   */\n    tag_316:\n        /* \"#utility.yul\":8993:9000   */\n      0x00\n        /* \"#utility.yul\":9022:9027   */\n      dup2\n        /* \"#utility.yul\":9011:9027   */\n      swap1\n      pop\n        /* \"#utility.yul\":8948:9033   */\n      swap2\n      swap1\n      pop\n      jump\t// out\n        /* \"#utility.yul\":9039:9197   */\n    tag_317:\n        /* \"#utility.yul\":9097:9106   */\n      0x00\n        /* \"#utility.yul\":9130:9191   */\n      tag_428\n        /* \"#utility.yul\":9148:9190   */\n      tag_429\n        /* \"#utility.yul\":9157:9189   */\n      tag_430\n        /* \"#utility.yul\":9183:9188   */\n      dup5\n        /* \"#utility.yul\":9157:9189   */\n      tag_316\n      jump\t// in\n    tag_430:\n        /* \"#utility.yul\":9148:9190   */\n      tag_305\n      jump\t// in\n    tag_429:\n        /* \"#utility.yul\":9130:9191   */\n      tag_287\n      jump\t// in\n    tag_428:\n        /* \"#utility.yul\":9117:9191   */\n      swap1\n      pop\n        /* \"#utility.yul\":9039:9197   */\n      swap2\n      swap1\n      pop\n      jump\t// out\n        /* \"#utility.yul\":9203:9350   */\n    tag_318:\n        /* \"#utility.yul\":9298:9343   */\n      tag_432\n        /* \"#utility.yul\":9337:9342   */\n      dup2\n        /* \"#utility.yul\":9298:9343   */\n      tag_317\n      jump\t// in\n    tag_432:\n        /* \"#utility.yul\":9293:9296   */\n      dup3\n        /* \"#utility.yul\":9286:9344   */\n      mstore\n        /* \"#utility.yul\":9203:9350   */\n      pop\n      pop\n      jump\t// out\n        /* \"#utility.yul\":9356:10163   */\n    tag_166:\n        /* \"#utility.yul\":9605:9609   */\n      0x00\n        /* \"#utility.yul\":9643:9646   */\n      0xc0\n        /* \"#utility.yul\":9632:9641   */\n      dup3\n        /* \"#utility.yul\":9628:9647   */\n      add\n        /* \"#utility.yul\":9620:9647   */\n      swap1\n      pop\n        /* \"#utility.yul\":9657:9728   */\n      tag_434\n        /* \"#utility.yul\":9725:9726   */\n      0x00\n        /* \"#utility.yul\":9714:9723   */\n      dup4\n        /* \"#utility.yul\":9710:9727   */\n      add\n        /* \"#utility.yul\":9701:9707   */\n      dup10\n        /* \"#utility.yul\":9657:9728   */\n      tag_312\n      jump\t// in\n    tag_434:\n        /* \"#utility.yul\":9738:9810   */\n      tag_435\n        /* \"#utility.yul\":9806:9808   */\n      0x20\n        /* \"#utility.yul\":9795:9804   */\n      dup4\n        /* \"#utility.yul\":9791:9809   */\n      add\n        /* \"#utility.yul\":9782:9788   */\n      dup9\n        /* \"#utility.yul\":9738:9810   */\n      tag_288\n      jump\t// in\n    tag_435:\n        /* \"#utility.yul\":9820:9900   */\n      tag_436\n        /* \"#utility.yul\":9896:9898   */\n      0x40\n        /* \"#utility.yul\":9885:9894   */\n      dup4\n        /* \"#utility.yul\":9881:9899   */\n      add\n        /* \"#utility.yul\":9872:9878   */\n      dup8\n        /* \"#utility.yul\":9820:9900   */\n      tag_318\n      jump\t// in\n    tag_436:\n        /* \"#utility.yul\":9910:9990   */\n      tag_437\n        /* \"#utility.yul\":9986:9988   */\n      0x60\n        /* \"#utility.yul\":9975:9984   */\n      dup4\n        /* \"#utility.yul\":9971:9989   */\n      add\n        /* \"#utility.yul\":9962:9968   */\n      dup7\n        /* \"#utility.yul\":9910:9990   */\n      tag_318\n      jump\t// in\n    tag_437:\n        /* \"#utility.yul\":10000:10073   */\n      tag_438\n        /* \"#utility.yul\":10068:10071   */\n      0x80\n        /* \"#utility.yul\":10057:10066   */\n      dup4\n        /* \"#utility.yul\":10053:10072   */\n      add\n        /* \"#utility.yul\":10044:10050   */\n      dup6\n        /* \"#utility.yul\":10000:10073   */\n      tag_312\n      jump\t// in\n    tag_438:\n        /* \"#utility.yul\":10083:10156   */\n      tag_439\n        /* \"#utility.yul\":10151:10154   */\n      0xa0\n        /* \"#utility.yul\":10140:10149   */\n      dup4\n        /* \"#utility.yul\":10136:10155   */\n      add\n        /* \"#utility.yul\":10127:10133   */\n      dup5\n        /* \"#utility.yul\":10083:10156   */\n      tag_288\n      jump\t// in\n    tag_439:\n        /* \"#utility.yul\":9356:10163   */\n      swap8\n      swap7\n      pop\n      pop\n      pop\n      pop\n      pop\n      pop\n      pop\n      jump\t// out\n        /* \"#utility.yul\":10169:10312   */\n    tag_319:\n        /* \"#utility.yul\":10226:10231   */\n      0x00\n        /* \"#utility.yul\":10257:10263   */\n      dup2\n        /* \"#utility.yul\":10251:10264   */\n      mload\n        /* \"#utility.yul\":10242:10264   */\n      swap1\n      pop\n        /* \"#utility.yul\":10273:10306   */\n      tag_441\n        /* \"#utility.yul\":10300:10305   */\n      dup2\n        /* \"#utility.yul\":10273:10306   */\n      tag_301\n      jump\t// in\n    tag_441:\n        /* \"#utility.yul\":10169:10312   */\n      swap3\n      swap2\n      pop\n      pop\n      jump\t// out\n        /* \"#utility.yul\":10318:10981   */\n    tag_170:\n        /* \"#utility.yul\":10406:10412   */\n      0x00\n        /* \"#utility.yul\":10414:10420   */\n      0x00\n        /* \"#utility.yul\":10422:10428   */\n      0x00\n        /* \"#utility.yul\":10471:10473   */\n      0x60\n        /* \"#utility.yul\":10459:10468   */\n      dup5\n        /* \"#utility.yul\":10450:10457   */\n      dup7\n        /* \"#utility.yul\":10446:10469   */\n      sub\n        /* \"#utility.yul\":10442:10474   */\n      slt\n        /* \"#utility.yul\":10439:10558   */\n      iszero\n      tag_443\n      jumpi\n        /* \"#utility.yul\":10477:10556   */\n      tag_444\n      tag_295\n      jump\t// in\n    tag_444:\n        /* \"#utility.yul\":10439:10558   */\n    tag_443:\n        /* \"#utility.yul\":10597:10598   */\n      0x00\n        /* \"#utility.yul\":10622:10686   */\n      tag_445\n        /* \"#utility.yul\":10678:10685   */\n      dup7\n        /* \"#utility.yul\":10669:10675   */\n      dup3\n        /* \"#utility.yul\":10658:10667   */\n      dup8\n        /* \"#utility.yul\":10654:10676   */\n      add\n        /* \"#utility.yul\":10622:10686   */\n      tag_319\n      jump\t// in\n    tag_445:\n        /* \"#utility.yul\":10612:10686   */\n      swap4\n      pop\n        /* \"#utility.yul\":10568:10696   */\n      pop\n        /* \"#utility.yul\":10735:10737   */\n      0x20\n        /* \"#utility.yul\":10761:10825   */\n      tag_446\n        /* \"#utility.yul\":10817:10824   */\n      dup7\n        /* \"#utility.yul\":10808:10814   */\n      dup3\n        /* \"#utility.yul\":10797:10806   */\n      dup8\n        /* \"#utility.yul\":10793:10815   */\n      add\n        /* \"#utility.yul\":10761:10825   */\n      tag_319\n      jump\t// in\n    tag_446:\n        /* \"#utility.yul\":10751:10825   */\n      swap3\n      pop\n        /* \"#utility.yul\":10706:10835   */\n      pop\n        /* \"#utility.yul\":10874:10876   */\n      0x40\n        /* \"#utility.yul\":10900:10964   */\n      tag_447\n        /* \"#utility.yul\":10956:10963   */\n      dup7\n        /* \"#utility.yul\":10947:10953   */\n      dup3\n        /* \"#utility.yul\":10936:10945   */\n      dup8\n        /* \"#utility.yul\":10932:10954   */\n      add\n        /* \"#utility.yul\":10900:10964   */\n      tag_319\n      jump\t// in\n    tag_447:\n        /* \"#utility.yul\":10890:10964   */\n      swap2\n      pop\n        /* \"#utility.yul\":10845:10974   */\n      pop\n        /* \"#utility.yul\":10318:10981   */\n      swap3\n      pop\n      swap3\n      pop\n      swap3\n      jump\t// out\n        /* \"#utility.yul\":10987:11319   */\n    tag_172:\n        /* \"#utility.yul\":11108:11112   */\n      0x00\n        /* \"#utility.yul\":11146:11148   */\n      0x40\n        /* \"#utility.yul\":11135:11144   */\n      dup3\n        /* \"#utility.yul\":11131:11149   */\n      add\n        /* \"#utility.yul\":11123:11149   */\n      swap1\n      pop\n        /* \"#utility.yul\":11159:11230   */\n      tag_449\n        /* \"#utility.yul\":11227:11228   */\n      0x00\n        /* \"#utility.yul\":11216:11225   */\n      dup4\n        /* \"#utility.yul\":11212:11229   */\n      add\n        /* \"#utility.yul\":11203:11209   */\n      dup6\n        /* \"#utility.yul\":11159:11230   */\n      tag_288\n      jump\t// in\n    tag_449:\n        /* \"#utility.yul\":11240:11312   */\n      tag_450\n        /* \"#utility.yul\":11308:11310   */\n      0x20\n        /* \"#utility.yul\":11297:11306   */\n      dup4\n        /* \"#utility.yul\":11293:11311   */\n      add\n        /* \"#utility.yul\":11284:11290   */\n      dup5\n        /* \"#utility.yul\":11240:11312   */\n      tag_288\n      jump\t// in\n    tag_450:\n        /* \"#utility.yul\":10987:11319   */\n      swap4\n      swap3\n      pop\n      pop\n      pop\n      jump\t// out\n        /* \"#utility.yul\":11325:11505   */\n    tag_320:\n        /* \"#utility.yul\":11373:11450   */\n      0x4e487b7100000000000000000000000000000000000000000000000000000000\n        /* \"#utility.yul\":11370:11371   */\n      0x00\n        /* \"#utility.yul\":11363:11451   */\n      mstore\n        /* \"#utility.yul\":11470:11474   */\n      0x11\n        /* \"#utility.yul\":11467:11468   */\n      0x04\n        /* \"#utility.yul\":11460:11475   */\n      mstore\n        /* \"#utility.yul\":11494:11498   */\n      0x24\n        /* \"#utility.yul\":11491:11492   */\n      0x00\n        /* \"#utility.yul\":11484:11499   */\n      revert\n        /* \"#utility.yul\":11511:11921   */\n    tag_197:\n        /* \"#utility.yul\":11551:11558   */\n      0x00\n        /* \"#utility.yul\":11574:11594   */\n      tag_453\n        /* \"#utility.yul\":11592:11593   */\n      dup3\n        /* \"#utility.yul\":11574:11594   */\n      tag_287\n      jump\t// in\n    tag_453:\n        /* \"#utility.yul\":11569:11594   */\n      swap2\n      pop\n        /* \"#utility.yul\":11608:11628   */\n      tag_454\n        /* \"#utility.yul\":11626:11627   */\n      dup4\n        /* \"#utility.yul\":11608:11628   */\n      tag_287\n      jump\t// in\n    tag_454:\n        /* \"#utility.yul\":11603:11628   */\n      swap3\n      pop\n        /* \"#utility.yul\":11663:11664   */\n      dup3\n        /* \"#utility.yul\":11660:11661   */\n      dup3\n        /* \"#utility.yul\":11656:11665   */\n      mul\n        /* \"#utility.yul\":11685:11715   */\n      tag_455\n        /* \"#utility.yul\":11703:11714   */\n      dup2\n        /* \"#utility.yul\":11685:11715   */\n      tag_287\n      jump\t// in\n    tag_455:\n        /* \"#utility.yul\":11674:11715   */\n      swap2\n      pop\n        /* \"#utility.yul\":11864:11865   */\n      dup3\n        /* \"#utility.yul\":11855:11862   */\n      dup3\n        /* \"#utility.yul\":11851:11866   */\n      div\n        /* \"#utility.yul\":11848:11849   */\n      dup5\n        /* \"#utility.yul\":11845:11867   */\n      eq\n        /* \"#utility.yul\":11825:11826   */\n      dup4\n        /* \"#utility.yul\":11818:11827   */\n      iszero\n        /* \"#utility.yul\":11798:11881   */\n      or\n        /* \"#utility.yul\":11775:11914   */\n      tag_456\n      jumpi\n        /* \"#utility.yul\":11894:11912   */\n      tag_457\n      tag_320\n      jump\t// in\n    tag_457:\n        /* \"#utility.yul\":11775:11914   */\n    tag_456:\n        /* \"#utility.yul\":11559:11921   */\n      pop\n        /* \"#utility.yul\":11511:11921   */\n      swap3\n      swap2\n      pop\n      pop\n      jump\t// out\n        /* \"#utility.yul\":11927:12107   */\n    tag_321:\n        /* \"#utility.yul\":11975:12052   */\n      0x4e487b7100000000000000000000000000000000000000000000000000000000\n        /* \"#utility.yul\":11972:11973   */\n      0x00\n        /* \"#utility.yul\":11965:12053   */\n      mstore\n        /* \"#utility.yul\":12072:12076   */\n      0x12\n        /* \"#utility.yul\":12069:12070   */\n      0x04\n        /* \"#utility.yul\":12062:12077   */\n      mstore\n        /* \"#utility.yul\":12096:12100   */\n      0x24\n        /* \"#utility.yul\":12093:12094   */\n      0x00\n        /* \"#utility.yul\":12086:12101   */\n      revert\n        /* \"#utility.yul\":12113:12298   */\n    tag_199:\n        /* \"#utility.yul\":12153:12154   */\n      0x00\n        /* \"#utility.yul\":12170:12190   */\n      tag_460\n        /* \"#utility.yul\":12188:12189   */\n      dup3\n        /* \"#utility.yul\":12170:12190   */\n      tag_287\n      jump\t// in\n    tag_460:\n        /* \"#utility.yul\":12165:12190   */\n      swap2\n      pop\n        /* \"#utility.yul\":12204:12224   */\n      tag_461\n        /* \"#utility.yul\":12222:12223   */\n      dup4\n        /* \"#utility.yul\":12204:12224   */\n      tag_287\n      jump\t// in\n    tag_461:\n        /* \"#utility.yul\":12199:12224   */\n      swap3\n      pop\n        /* \"#utility.yul\":12243:12244   */\n      dup3\n        /* \"#utility.yul\":12233:12268   */\n      tag_462\n      jumpi\n        /* \"#utility.yul\":12248:12266   */\n      tag_463\n      tag_321\n      jump\t// in\n    tag_463:\n        /* \"#utility.yul\":12233:12268   */\n    tag_462:\n        /* \"#utility.yul\":12290:12291   */\n      dup3\n        /* \"#utility.yul\":12287:12288   */\n      dup3\n        /* \"#utility.yul\":12283:12292   */\n      div\n        /* \"#utility.yul\":12278:12292   */\n      swap1\n      pop\n        /* \"#utility.yul\":12113:12298   */\n      swap3\n      swap2\n      pop\n      pop\n      jump\t// out\n        /* \"#utility.yul\":12304:12498   */\n    tag_205:\n        /* \"#utility.yul\":12344:12348   */\n      0x00\n        /* \"#utility.yul\":12364:12384   */\n      tag_465\n        /* \"#utility.yul\":12382:12383   */\n      dup3\n        /* \"#utility.yul\":12364:12384   */\n      tag_287\n      jump\t// in\n    tag_465:\n        /* \"#utility.yul\":12359:12384   */\n      swap2\n      pop\n        /* \"#utility.yul\":12398:12418   */\n      tag_466\n        /* \"#utility.yul\":12416:12417   */\n      dup4\n        /* \"#utility.yul\":12398:12418   */\n      tag_287\n      jump\t// in\n    tag_466:\n        /* \"#utility.yul\":12393:12418   */\n      swap3\n      pop\n        /* \"#utility.yul\":12442:12443   */\n      dup3\n        /* \"#utility.yul\":12439:12440   */\n      dup3\n        /* \"#utility.yul\":12435:12444   */\n      sub\n        /* \"#utility.yul\":12427:12444   */\n      swap1\n      pop\n        /* \"#utility.yul\":12466:12467   */\n      dup2\n        /* \"#utility.yul\":12460:12464   */\n      dup2\n        /* \"#utility.yul\":12457:12468   */\n      gt\n        /* \"#utility.yul\":12454:12491   */\n      iszero\n      tag_467\n      jumpi\n        /* \"#utility.yul\":12471:12489   */\n      tag_468\n      tag_320\n      jump\t// in\n    tag_468:\n        /* \"#utility.yul\":12454:12491   */\n    tag_467:\n        /* \"#utility.yul\":12304:12498   */\n      swap3\n      swap2\n      pop\n      pop\n      jump\t// out\n        /* \"#utility.yul\":12504:12695   */\n    tag_207:\n        /* \"#utility.yul\":12544:12547   */\n      0x00\n        /* \"#utility.yul\":12563:12583   */\n      tag_470\n        /* \"#utility.yul\":12581:12582   */\n      dup3\n        /* \"#utility.yul\":12563:12583   */\n      tag_287\n      jump\t// in\n    tag_470:\n        /* \"#utility.yul\":12558:12583   */\n      swap2\n      pop\n        /* \"#utility.yul\":12597:12617   */\n      tag_471\n        /* \"#utility.yul\":12615:12616   */\n      dup4\n        /* \"#utility.yul\":12597:12617   */\n      tag_287\n      jump\t// in\n    tag_471:\n        /* \"#utility.yul\":12592:12617   */\n      swap3\n      pop\n        /* \"#utility.yul\":12640:12641   */\n      dup3\n        /* \"#utility.yul\":12637:12638   */\n      dup3\n        /* \"#utility.yul\":12633:12642   */\n      add\n        /* \"#utility.yul\":12626:12642   */\n      swap1\n      pop\n        /* \"#utility.yul\":12661:12664   */\n      dup1\n        /* \"#utility.yul\":12658:12659   */\n      dup3\n        /* \"#utility.yul\":12655:12665   */\n      gt\n        /* \"#utility.yul\":12652:12688   */\n      iszero\n      tag_472\n      jumpi\n        /* \"#utility.yul\":12668:12686   */\n      tag_473\n      tag_320\n      jump\t// in\n    tag_473:\n        /* \"#utility.yul\":12652:12688   */\n    tag_472:\n        /* \"#utility.yul\":12504:12695   */\n      swap3\n      swap2\n      pop\n      pop\n      jump\t// out\n        /* \"#utility.yul\":12701:13143   */\n    tag_248:\n        /* \"#utility.yul\":12850:12854   */\n      0x00\n        /* \"#utility.yul\":12888:12890   */\n      0x60\n        /* \"#utility.yul\":12877:12886   */\n      dup3\n        /* \"#utility.yul\":12873:12891   */\n      add\n        /* \"#utility.yul\":12865:12891   */\n      swap1\n      pop\n        /* \"#utility.yul\":12901:12972   */\n      tag_475\n        /* \"#utility.yul\":12969:12970   */\n      0x00\n        /* \"#utility.yul\":12958:12967   */\n      dup4\n        /* \"#utility.yul\":12954:12971   */\n      add\n        /* \"#utility.yul\":12945:12951   */\n      dup7\n        /* \"#utility.yul\":12901:12972   */\n      tag_312\n      jump\t// in\n    tag_475:\n        /* \"#utility.yul\":12982:13054   */\n      tag_476\n        /* \"#utility.yul\":13050:13052   */\n      0x20\n        /* \"#utility.yul\":13039:13048   */\n      dup4\n        /* \"#utility.yul\":13035:13053   */\n      add\n        /* \"#utility.yul\":13026:13032   */\n      dup6\n        /* \"#utility.yul\":12982:13054   */\n      tag_288\n      jump\t// in\n    tag_476:\n        /* \"#utility.yul\":13064:13136   */\n      tag_477\n        /* \"#utility.yul\":13132:13134   */\n      0x40\n        /* \"#utility.yul\":13121:13130   */\n      dup4\n        /* \"#utility.yul\":13117:13135   */\n      add\n        /* \"#utility.yul\":13108:13114   */\n      dup5\n        /* \"#utility.yul\":13064:13136   */\n      tag_288\n      jump\t// in\n    tag_477:\n        /* \"#utility.yul\":12701:13143   */\n      swap5\n      swap4\n      pop\n      pop\n      pop\n      pop\n      jump\t// out\n\n    auxdata: 0xa26469706673582212209ab067f48bb8ba78f4ec9a3755d5d356ddb4f16e0c80f68484ffb5d65fe12bbb64736f6c634300081c0033\n}\n",
				"bytecode": {
					"linkReferences": {},
					"object": "60806040526005600655600a60075560326008556014600955601e600a55348015610028575f5ffd5b5060405161281e38038061281e833981810160405281019061004a9190610620565b808484816003908161005c91906108cc565b50806004908161006c91906108cc565b5050505f73ffffffffffffffffffffffffffffffffffffffff168173ffffffffffffffffffffffffffffffffffffffff16036100df575f6040517f1e4fbdf70000000000000000000000000000000000000000000000000000000081526004016100d691906109aa565b60405180910390fd5b6100ee816103b660201b60201c565b5081600b5f6101000a81548173ffffffffffffffffffffffffffffffffffffffff021916908373ffffffffffffffffffffffffffffffffffffffff160217905550600b5f9054906101000a900473ffffffffffffffffffffffffffffffffffffffff1673ffffffffffffffffffffffffffffffffffffffff1663c45a01556040518163ffffffff1660e01b8152600401602060405180830381865afa158015610199573d5f5f3e3d5ffd5b505050506040513d601f19601f820116820180604052508101906101bd91906109c3565b73ffffffffffffffffffffffffffffffffffffffff1663c9c6539630600b5f9054906101000a900473ffffffffffffffffffffffffffffffffffffffff1673ffffffffffffffffffffffffffffffffffffffff1663ad5c46486040518163ffffffff1660e01b8152600401602060405180830381865afa158015610243573d5f5f3e3d5ffd5b505050506040513d601f19601f8201168201806040525081019061026791906109c3565b6040518363ffffffff1660e01b81526004016102849291906109ee565b6020604051808303815f875af11580156102a0573d5f5f3e3d5ffd5b505050506040513d601f19601f820116820180604052508101906102c491906109c3565b600c5f6101000a81548173ffffffffffffffffffffffffffffffffffffffff021916908373ffffffffffffffffffffffffffffffffffffffff1602179055506001600d5f8373ffffffffffffffffffffffffffffffffffffffff1673ffffffffffffffffffffffffffffffffffffffff1681526020019081526020015f205f6101000a81548160ff0219169083151502179055506001600d5f3073ffffffffffffffffffffffffffffffffffffffff1673ffffffffffffffffffffffffffffffffffffffff1681526020019081526020015f205f6101000a81548160ff02191690831515021790555050505050610a15565b5f60055f9054906101000a900473ffffffffffffffffffffffffffffffffffffffff1690508160055f6101000a81548173ffffffffffffffffffffffffffffffffffffffff021916908373ffffffffffffffffffffffffffffffffffffffff1602179055508173ffffffffffffffffffffffffffffffffffffffff168173ffffffffffffffffffffffffffffffffffffffff167f8be0079c531659141344cd1fd0a4f28419497f9722a3daafe3b4186f6b6457e060405160405180910390a35050565b5f604051905090565b5f5ffd5b5f5ffd5b5f5ffd5b5f5ffd5b5f601f19601f8301169050919050565b7f4e487b71000000000000000000000000000000000000000000000000000000005f52604160045260245ffd5b6104d882610492565b810181811067ffffffffffffffff821117156104f7576104f66104a2565b5b80604052505050565b5f610509610479565b905061051582826104cf565b919050565b5f67ffffffffffffffff821115610534576105336104a2565b5b61053d82610492565b9050602081019050919050565b8281835e5f83830152505050565b5f61056a6105658461051a565b610500565b9050828152602081018484840111156105865761058561048e565b5b61059184828561054a565b509392505050565b5f82601f8301126105ad576105ac61048a565b5b81516105bd848260208601610558565b91505092915050565b5f73ffffffffffffffffffffffffffffffffffffffff82169050919050565b5f6105ef826105c6565b9050919050565b6105ff816105e5565b8114610609575f5ffd5b50565b5f8151905061061a816105f6565b92915050565b5f5f5f5f6080858703121561063857610637610482565b5b5f85015167ffffffffffffffff81111561065557610654610486565b5b61066187828801610599565b945050602085015167ffffffffffffffff81111561068257610681610486565b5b61068e87828801610599565b935050604061069f8782880161060c565b92505060606106b08782880161060c565b91505092959194509250565b5f81519050919050565b7f4e487b71000000000000000000000000000000000000000000000000000000005f52602260045260245ffd5b5f600282049050600182168061070a57607f821691505b60208210810361071d5761071c6106c6565b5b50919050565b5f819050815f5260205f209050919050565b5f6020601f8301049050919050565b5f82821b905092915050565b5f6008830261077f7fffffffffffffffffffffffffffffffffffffffffffffffffffffffffffffffff82610744565b6107898683610744565b95508019841693508086168417925050509392505050565b5f819050919050565b5f819050919050565b5f6107cd6107c86107c3846107a1565b6107aa565b6107a1565b9050919050565b5f819050919050565b6107e6836107b3565b6107fa6107f2826107d4565b848454610750565b825550505050565b5f5f905090565b610811610802565b61081c8184846107dd565b505050565b5b8181101561083f576108345f82610809565b600181019050610822565b5050565b601f8211156108845761085581610723565b61085e84610735565b8101602085101561086d578190505b61088161087985610735565b830182610821565b50505b505050565b5f82821c905092915050565b5f6108a45f1984600802610889565b1980831691505092915050565b5f6108bc8383610895565b9150826002028217905092915050565b6108d5826106bc565b67ffffffffffffffff8111156108ee576108ed6104a2565b5b6108f882546106f3565b610903828285610843565b5f60209050601f831160018114610934575f8415610922578287015190505b61092c85826108b1565b865550610993565b601f19841661094286610723565b5f5b8281101561096957848901518255600182019150602085019450602081019050610944565b868310156109865784890151610982601f891682610895565b8355505b6001600288020188555050505b505050505050565b6109a4816105e5565b82525050565b5f6020820190506109bd5f83018461099b565b92915050565b5f602082840312156109d8576109d7610482565b5b5f6109e58482850161060c565b91505092915050565b5f604082019050610a015f83018561099b565b610a0e602083018461099b565b9392505050565b611dfc80610a225f395ff3fe608060405234801561000f575f5ffd5b506004361061018c575f3560e01c806370a08231116100dc578063c647b20e11610095578063cb4ca6311161006f578063cb4ca6311461044e578063cc1776d31461047e578063dd62ed3e1461049c578063f2fde38b146104cc5761018c565b8063c647b20e146103f8578063c6a3064714610414578063c816841b146104305761018c565b806370a0823114610336578063715018a6146103665780638da5cb5b1461037057806395d89b411461038e578063a9059cbb146103ac578063beabacc8146103dc5761018c565b80632431ba7311610149578063337270771161012357806333727077146102c05780634e6fd6c4146102de5780634f7041a5146102fc57806351c6590a1461031a5761018c565b80632431ba73146102685780632e1a7d4d14610286578063313ce567146102a25761018c565b806305bf0a541461019057806306fdde03146101ae578063095ea7b3146101cc57806315291cd4146101fc57806318160ddd1461021a57806323b872dd14610238575b5f5ffd5b6101986104e8565b6040516101a591906116e4565b60405180910390f35b6101b66104ee565b6040516101c3919061176d565b60405180910390f35b6101e660048036038101906101e19190611815565b61057e565b6040516101f3919061186d565b60405180910390f35b6102046105a0565b60405161021191906116e4565b60405180910390f35b6102226105a6565b60405161022f91906116e4565b60405180910390f35b610252600480360381019061024d9190611886565b6105af565b60405161025f919061186d565b60405180910390f35b6102706105dd565b60405161027d9190611931565b60405180910390f35b6102a0600480360381019061029b919061194a565b610602565b005b6102aa6106fc565b6040516102b79190611990565b60405180910390f35b6102c8610704565b6040516102d591906116e4565b60405180910390f35b6102e661070a565b6040516102f391906119b8565b60405180910390f35b610304610710565b60405161031191906116e4565b60405180910390f35b610334600480360381019061032f919061194a565b610716565b005b610350600480360381019061034b91906119d1565b61086f565b60405161035d91906116e4565b60405180910390f35b61036e6108b4565b005b6103786108c7565b60405161038591906119b8565b60405180910390f35b6103966108ef565b6040516103a3919061176d565b60405180910390f35b6103c660048036038101906103c19190611815565b61097f565b6040516103d3919061186d565b60405180910390f35b6103f660048036038101906103f19190611886565b6109a1565b005b610412600480360381019061040d91906119fc565b610d5f565b005b61042e60048036038101906104299190611a64565b610dc1565b005b610438610e21565b60405161044591906119b8565b60405180910390f35b610468600480360381019061046391906119d1565b610e46565b604051610475919061186d565b60405180910390f35b610486610e63565b60405161049391906116e4565b60405180910390f35b6104b660048036038101906104b19190611aa2565b610e69565b6040516104c391906116e4565b60405180910390f35b6104e660048036038101906104e191906119d1565b610eeb565b005b60095481565b6060600380546104fd90611b0d565b80601f016020809104026020016040519081016040528092919081815260200182805461052990611b0d565b80156105745780601f1061054b57610100808354040283529160200191610574565b820191905f5260205f20905b81548152906001019060200180831161055757829003601f168201915b5050505050905090565b5f5f610588610f6f565b9050610595818585610f76565b600191505092915050565b60085481565b5f600254905090565b5f5f6105b9610f6f565b90506105c6858285610f88565b6105d185858561101b565b60019150509392505050565b600b5f9054906101000a900473ffffffffffffffffffffffffffffffffffffffff1681565b61060a61110b565b5f73ffffffffffffffffffffffffffffffffffffffff163373ffffffffffffffffffffffffffffffffffffffff160361066f576040517fa38ca3d900000000000000000000000000000000000000000000000000000000815260040160405180910390fd5b478111156106a9576040517f356680b700000000000000000000000000000000000000000000000000000000815260040160405180910390fd5b5f4790506106b56108c7565b73ffffffffffffffffffffffffffffffffffffffff166108fc8290811502906040515f60405180830381858888f193505050501580156106f7573d5f5f3e3d5ffd5b505050565b5f6012905090565b600a5481565b61dead81565b60065481565b61071e61110b565b5f8111610757576040517f671d94d800000000000000000000000000000000000000000000000000000000815260040160405180910390fd5b61078330600b5f9054906101000a900473ffffffffffffffffffffffffffffffffffffffff1683610f76565b600b5f9054906101000a900473ffffffffffffffffffffffffffffffffffffffff1673ffffffffffffffffffffffffffffffffffffffff1663f305d7194730845f5f6107cd6108c7565b426040518863ffffffff1660e01b81526004016107ef96959493929190611b76565b60606040518083038185885af115801561080b573d5f5f3e3d5ffd5b50505050506040513d601f19601f820116820180604052508101906108309190611be9565b5050507f38f8a0c92f4c5b0b6877f878cb4c0c8d348a47b76d716c8e78f425043df9515b8147604051610864929190611c39565b60405180910390a150565b5f5f5f8373ffffffffffffffffffffffffffffffffffffffff1673ffffffffffffffffffffffffffffffffffffffff1681526020019081526020015f20549050919050565b6108bc61110b565b6108c55f611192565b565b5f60055f9054906101000a900473ffffffffffffffffffffffffffffffffffffffff16905090565b6060600480546108fe90611b0d565b80601f016020809104026020016040519081016040528092919081815260200182805461092a90611b0d565b80156109755780601f1061094c57610100808354040283529160200191610975565b820191905f5260205f20905b81548152906001019060200180831161095857829003601f168201915b5050505050905090565b5f5f610989610f6f565b905061099681858561101b565b600191505092915050565b5f73ffffffffffffffffffffffffffffffffffffffff168373ffffffffffffffffffffffffffffffffffffffff1603610a06576040517ff38f85c300000000000000000000000000000000000000000000000000000000815260040160405180910390fd5b5f73ffffffffffffffffffffffffffffffffffffffff168273ffffffffffffffffffffffffffffffffffffffff1603610a6b576040517fa38ca3d900000000000000000000000000000000000000000000000000000000815260040160405180910390fd5b600d5f8473ffffffffffffffffffffffffffffffffffffffff1673ffffffffffffffffffffffffffffffffffffffff1681526020019081526020015f205f9054906101000a900460ff1680610b065750600d5f8373ffffffffffffffffffffffffffffffffffffffff1673ffffffffffffffffffffffffffffffffffffffff1681526020019081526020015f205f9054906101000a900460ff165b15610b1b57610b1683838361101b565b610d5a565b5f600c5f9054906101000a900473ffffffffffffffffffffffffffffffffffffffff1673ffffffffffffffffffffffffffffffffffffffff168373ffffffffffffffffffffffffffffffffffffffff161490505f600c5f9054906101000a900473ffffffffffffffffffffffffffffffffffffffff1673ffffffffffffffffffffffffffffffffffffffff168573ffffffffffffffffffffffffffffffffffffffff161490505f8215610be957606460065485610bd89190611c8d565b610be29190611cfb565b9050610c0d565b8115610c0c57606460075485610bff9190611c8d565b610c099190611cfb565b90505b5b5f8185610c1a9190611d2b565b90508181610c289190611d5e565b8514610c60576040517f1f825c6a00000000000000000000000000000000000000000000000000000000815260040160405180910390fd5b5f821115610d4a57610c7387308461101b565b7f092c6768ba45dfdc937f94a27a0c5be8334952f1558bc7dd41b3e8707502e1b682604051610ca291906116e4565b60405180910390a15f606460085484610cbb9190611c8d565b610cc59190611cfb565b90505f606460095485610cd89190611c8d565b610ce29190611cfb565b90505f818386610cf29190611d2b565b610cfc9190611d2b565b9050610d2a30600c5f9054906101000a900473ffffffffffffffffffffffffffffffffffffffff168561101b565b610d343083611255565b610d4630610d406108c7565b8361101b565b5050505b610d5587878361101b565b505050505b505050565b610d6761110b565b600a8211158015610d79575060148111155b610daf576040517faf1ee13400000000000000000000000000000000000000000000000000000000815260040160405180910390fd5b81600681905550806007819055505050565b610dc961110b565b80600d5f8473ffffffffffffffffffffffffffffffffffffffff1673ffffffffffffffffffffffffffffffffffffffff1681526020019081526020015f205f6101000a81548160ff0219169083151502179055505050565b600c5f9054906101000a900473ffffffffffffffffffffffffffffffffffffffff1681565b600d602052805f5260405f205f915054906101000a900460ff1681565b60075481565b5f60015f8473ffffffffffffffffffffffffffffffffffffffff1673ffffffffffffffffffffffffffffffffffffffff1681526020019081526020015f205f8373ffffffffffffffffffffffffffffffffffffffff1673ffffffffffffffffffffffffffffffffffffffff1681526020019081526020015f2054905092915050565b610ef361110b565b5f73ffffffffffffffffffffffffffffffffffffffff168173ffffffffffffffffffffffffffffffffffffffff1603610f63575f6040517f1e4fbdf7000000000000000000000000000000000000000000000000000000008152600401610f5a91906119b8565b60405180910390fd5b610f6c81611192565b50565b5f33905090565b610f8383838360016112d4565b505050565b5f610f938484610e69565b90507fffffffffffffffffffffffffffffffffffffffffffffffffffffffffffffffff8110156110155781811015611006578281836040517ffb8f41b2000000000000000000000000000000000000000000000000000000008152600401610ffd93929190611d91565b60405180910390fd5b61101484848484035f6112d4565b5b50505050565b5f73ffffffffffffffffffffffffffffffffffffffff168373ffffffffffffffffffffffffffffffffffffffff160361108b575f6040517f96c6fd1e00000000000000000000000000000000000000000000000000000000815260040161108291906119b8565b60405180910390fd5b5f73ffffffffffffffffffffffffffffffffffffffff168273ffffffffffffffffffffffffffffffffffffffff16036110fb575f6040517fec442f050000000000000000000000000000000000000000000000000000000081526004016110f291906119b8565b60405180910390fd5b6111068383836114a3565b505050565b611113610f6f565b73ffffffffffffffffffffffffffffffffffffffff166111316108c7565b73ffffffffffffffffffffffffffffffffffffffff161461119057611154610f6f565b6040517f118cdaa700000000000000000000000000000000000000000000000000000000815260040161118791906119b8565b60405180910390fd5b565b5f60055f9054906101000a900473ffffffffffffffffffffffffffffffffffffffff1690508160055f6101000a81548173ffffffffffffffffffffffffffffffffffffffff021916908373ffffffffffffffffffffffffffffffffffffffff1602179055508173ffffffffffffffffffffffffffffffffffffffff168173ffffffffffffffffffffffffffffffffffffffff167f8be0079c531659141344cd1fd0a4f28419497f9722a3daafe3b4186f6b6457e060405160405180910390a35050565b5f73ffffffffffffffffffffffffffffffffffffffff168273ffffffffffffffffffffffffffffffffffffffff16036112c5575f6040517f96c6fd1e0000000000000000000000000000000000000000000000000000000081526004016112bc91906119b8565b60405180910390fd5b6112d0825f836114a3565b5050565b5f73ffffffffffffffffffffffffffffffffffffffff168473ffffffffffffffffffffffffffffffffffffffff1603611344575f6040517fe602df0500000000000000000000000000000000000000000000000000000000815260040161133b91906119b8565b60405180910390fd5b5f73ffffffffffffffffffffffffffffffffffffffff168373ffffffffffffffffffffffffffffffffffffffff16036113b4575f6040517f94280d620000000000000000000000000000000000000000000000000000000081526004016113ab91906119b8565b60405180910390fd5b8160015f8673ffffffffffffffffffffffffffffffffffffffff1673ffffffffffffffffffffffffffffffffffffffff1681526020019081526020015f205f8573ffffffffffffffffffffffffffffffffffffffff1673ffffffffffffffffffffffffffffffffffffffff1681526020019081526020015f2081905550801561149d578273ffffffffffffffffffffffffffffffffffffffff168473ffffffffffffffffffffffffffffffffffffffff167f8c5be1e5ebec7d5bd14f71427d1e84f3dd0314c0f7b2291e5b200ac8c7c3b9258460405161149491906116e4565b60405180910390a35b50505050565b6114ae8383836114b3565b505050565b5f73ffffffffffffffffffffffffffffffffffffffff168373ffffffffffffffffffffffffffffffffffffffff1603611503578060025f8282546114f79190611d5e565b925050819055506115d1565b5f5f5f8573ffffffffffffffffffffffffffffffffffffffff1673ffffffffffffffffffffffffffffffffffffffff1681526020019081526020015f205490508181101561158c578381836040517fe450d38c00000000000000000000000000000000000000000000000000000000815260040161158393929190611d91565b60405180910390fd5b8181035f5f8673ffffffffffffffffffffffffffffffffffffffff1673ffffffffffffffffffffffffffffffffffffffff1681526020019081526020015f2081905550505b5f73ffffffffffffffffffffffffffffffffffffffff168273ffffffffffffffffffffffffffffffffffffffff1603611618578060025f8282540392505081905550611662565b805f5f8473ffffffffffffffffffffffffffffffffffffffff1673ffffffffffffffffffffffffffffffffffffffff1681526020019081526020015f205f82825401925050819055505b8173ffffffffffffffffffffffffffffffffffffffff168373ffffffffffffffffffffffffffffffffffffffff167fddf252ad1be2c89b69c2b068fc378daa952ba7f163c4a11628f55a4df523b3ef836040516116bf91906116e4565b60405180910390a3505050565b5f819050919050565b6116de816116cc565b82525050565b5f6020820190506116f75f8301846116d5565b92915050565b5f81519050919050565b5f82825260208201905092915050565b8281835e5f83830152505050565b5f601f19601f8301169050919050565b5f61173f826116fd565b6117498185611707565b9350611759818560208601611717565b61176281611725565b840191505092915050565b5f6020820190508181035f8301526117858184611735565b905092915050565b5f5ffd5b5f73ffffffffffffffffffffffffffffffffffffffff82169050919050565b5f6117ba82611791565b9050919050565b6117ca816117b0565b81146117d4575f5ffd5b50565b5f813590506117e5816117c1565b92915050565b6117f4816116cc565b81146117fe575f5ffd5b50565b5f8135905061180f816117eb565b92915050565b5f5f6040838503121561182b5761182a61178d565b5b5f611838858286016117d7565b925050602061184985828601611801565b9150509250929050565b5f8115159050919050565b61186781611853565b82525050565b5f6020820190506118805f83018461185e565b92915050565b5f5f5f6060848603121561189d5761189c61178d565b5b5f6118aa868287016117d7565b93505060206118bb868287016117d7565b92505060406118cc86828701611801565b9150509250925092565b5f819050919050565b5f6118f96118f46118ef84611791565b6118d6565b611791565b9050919050565b5f61190a826118df565b9050919050565b5f61191b82611900565b9050919050565b61192b81611911565b82525050565b5f6020820190506119445f830184611922565b92915050565b5f6020828403121561195f5761195e61178d565b5b5f61196c84828501611801565b91505092915050565b5f60ff82169050919050565b61198a81611975565b82525050565b5f6020820190506119a35f830184611981565b92915050565b6119b2816117b0565b82525050565b5f6020820190506119cb5f8301846119a9565b92915050565b5f602082840312156119e6576119e561178d565b5b5f6119f3848285016117d7565b91505092915050565b5f5f60408385031215611a1257611a1161178d565b5b5f611a1f85828601611801565b9250506020611a3085828601611801565b9150509250929050565b611a4381611853565b8114611a4d575f5ffd5b50565b5f81359050611a5e81611a3a565b92915050565b5f5f60408385031215611a7a57611a7961178d565b5b5f611a87858286016117d7565b9250506020611a9885828601611a50565b9150509250929050565b5f5f60408385031215611ab857611ab761178d565b5b5f611ac5858286016117d7565b9250506020611ad6858286016117d7565b9150509250929050565b7f4e487b71000000000000000000000000000000000000000000000000000000005f52602260045260245ffd5b5f6002820490506001821680611b2457607f821691505b602082108103611b3757611b36611ae0565b5b50919050565b5f819050919050565b5f611b60611b5b611b5684611b3d565b6118d6565b6116cc565b9050919050565b611b7081611b46565b82525050565b5f60c082019050611b895f8301896119a9565b611b9660208301886116d5565b611ba36040830187611b67565b611bb06060830186611b67565b611bbd60808301856119a9565b611bca60a08301846116d5565b979650505050505050565b5f81519050611be3816117eb565b92915050565b5f5f5f60608486031215611c0057611bff61178d565b5b5f611c0d86828701611bd5565b9350506020611c1e86828701611bd5565b9250506040611c2f86828701611bd5565b9150509250925092565b5f604082019050611c4c5f8301856116d5565b611c5960208301846116d5565b9392505050565b7f4e487b71000000000000000000000000000000000000000000000000000000005f52601160045260245ffd5b5f611c97826116cc565b9150611ca2836116cc565b9250828202611cb0816116cc565b91508282048414831517611cc757611cc6611c60565b5b5092915050565b7f4e487b71000000000000000000000000000000000000000000000000000000005f52601260045260245ffd5b5f611d05826116cc565b9150611d10836116cc565b925082611d2057611d1f611cce565b5b828204905092915050565b5f611d35826116cc565b9150611d40836116cc565b9250828203905081811115611d5857611d57611c60565b5b92915050565b5f611d68826116cc565b9150611d73836116cc565b9250828201905080821115611d8b57611d8a611c60565b5b92915050565b5f606082019050611da45f8301866119a9565b611db160208301856116d5565b611dbe60408301846116d5565b94935050505056fea26469706673582212209ab067f48bb8ba78f4ec9a3755d5d356ddb4f16e0c80f68484ffb5d65fe12bbb64736f6c634300081c0033",
					"opcodes": "PUSH1 0x80 PUSH1 0x40 MSTORE PUSH1 0x5 PUSH1 0x6 SSTORE PUSH1 0xA PUSH1 0x7 SSTORE PUSH1 0x32 PUSH1 0x8 SSTORE PUSH1 0x14 PUSH1 0x9 SSTORE PUSH1 0x1E PUSH1 0xA SSTORE CALLVALUE DUP1 ISZERO PUSH2 0x28 JUMPI PUSH0 PUSH0 REVERT JUMPDEST POP PUSH1 0x40 MLOAD PUSH2 0x281E CODESIZE SUB DUP1 PUSH2 0x281E DUP4 CODECOPY DUP2 DUP2 ADD PUSH1 0x40 MSTORE DUP2 ADD SWAP1 PUSH2 0x4A SWAP2 SWAP1 PUSH2 0x620 JUMP JUMPDEST DUP1 DUP5 DUP5 DUP2 PUSH1 0x3 SWAP1 DUP2 PUSH2 0x5C SWAP2 SWAP1 PUSH2 0x8CC JUMP JUMPDEST POP DUP1 PUSH1 0x4 SWAP1 DUP2 PUSH2 0x6C SWAP2 SWAP1 PUSH2 0x8CC JUMP JUMPDEST POP POP POP PUSH0 PUSH20 0xFFFFFFFFFFFFFFFFFFFFFFFFFFFFFFFFFFFFFFFF AND DUP2 PUSH20 0xFFFFFFFFFFFFFFFFFFFFFFFFFFFFFFFFFFFFFFFF AND SUB PUSH2 0xDF JUMPI PUSH0 PUSH1 0x40 MLOAD PUSH32 0x1E4FBDF700000000000000000000000000000000000000000000000000000000 DUP2 MSTORE PUSH1 0x4 ADD PUSH2 0xD6 SWAP2 SWAP1 PUSH2 0x9AA JUMP JUMPDEST PUSH1 0x40 MLOAD DUP1 SWAP2 SUB SWAP1 REVERT JUMPDEST PUSH2 0xEE DUP2 PUSH2 0x3B6 PUSH1 0x20 SHL PUSH1 0x20 SHR JUMP JUMPDEST POP DUP2 PUSH1 0xB PUSH0 PUSH2 0x100 EXP DUP2 SLOAD DUP2 PUSH20 0xFFFFFFFFFFFFFFFFFFFFFFFFFFFFFFFFFFFFFFFF MUL NOT AND SWAP1 DUP4 PUSH20 0xFFFFFFFFFFFFFFFFFFFFFFFFFFFFFFFFFFFFFFFF AND MUL OR SWAP1 SSTORE POP PUSH1 0xB PUSH0 SWAP1 SLOAD SWAP1 PUSH2 0x100 EXP SWAP1 DIV PUSH20 0xFFFFFFFFFFFFFFFFFFFFFFFFFFFFFFFFFFFFFFFF AND PUSH20 0xFFFFFFFFFFFFFFFFFFFFFFFFFFFFFFFFFFFFFFFF AND PUSH4 0xC45A0155 PUSH1 0x40 MLOAD DUP2 PUSH4 0xFFFFFFFF AND PUSH1 0xE0 SHL DUP2 MSTORE PUSH1 0x4 ADD PUSH1 0x20 PUSH1 0x40 MLOAD DUP1 DUP4 SUB DUP2 DUP7 GAS STATICCALL ISZERO DUP1 ISZERO PUSH2 0x199 JUMPI RETURNDATASIZE PUSH0 PUSH0 RETURNDATACOPY RETURNDATASIZE PUSH0 REVERT JUMPDEST POP POP POP POP PUSH1 0x40 MLOAD RETURNDATASIZE PUSH1 0x1F NOT PUSH1 0x1F DUP3 ADD AND DUP3 ADD DUP1 PUSH1 0x40 MSTORE POP DUP2 ADD SWAP1 PUSH2 0x1BD SWAP2 SWAP1 PUSH2 0x9C3 JUMP JUMPDEST PUSH20 0xFFFFFFFFFFFFFFFFFFFFFFFFFFFFFFFFFFFFFFFF AND PUSH4 0xC9C65396 ADDRESS PUSH1 0xB PUSH0 SWAP1 SLOAD SWAP1 PUSH2 0x100 EXP SWAP1 DIV PUSH20 0xFFFFFFFFFFFFFFFFFFFFFFFFFFFFFFFFFFFFFFFF AND PUSH20 0xFFFFFFFFFFFFFFFFFFFFFFFFFFFFFFFFFFFFFFFF AND PUSH4 0xAD5C4648 PUSH1 0x40 MLOAD DUP2 PUSH4 0xFFFFFFFF AND PUSH1 0xE0 SHL DUP2 MSTORE PUSH1 0x4 ADD PUSH1 0x20 PUSH1 0x40 MLOAD DUP1 DUP4 SUB DUP2 DUP7 GAS STATICCALL ISZERO DUP1 ISZERO PUSH2 0x243 JUMPI RETURNDATASIZE PUSH0 PUSH0 RETURNDATACOPY RETURNDATASIZE PUSH0 REVERT JUMPDEST POP POP POP POP PUSH1 0x40 MLOAD RETURNDATASIZE PUSH1 0x1F NOT PUSH1 0x1F DUP3 ADD AND DUP3 ADD DUP1 PUSH1 0x40 MSTORE POP DUP2 ADD SWAP1 PUSH2 0x267 SWAP2 SWAP1 PUSH2 0x9C3 JUMP JUMPDEST PUSH1 0x40 MLOAD DUP4 PUSH4 0xFFFFFFFF AND PUSH1 0xE0 SHL DUP2 MSTORE PUSH1 0x4 ADD PUSH2 0x284 SWAP3 SWAP2 SWAP1 PUSH2 0x9EE JUMP JUMPDEST PUSH1 0x20 PUSH1 0x40 MLOAD DUP1 DUP4 SUB DUP2 PUSH0 DUP8 GAS CALL ISZERO DUP1 ISZERO PUSH2 0x2A0 JUMPI RETURNDATASIZE PUSH0 PUSH0 RETURNDATACOPY RETURNDATASIZE PUSH0 REVERT JUMPDEST POP POP POP POP PUSH1 0x40 MLOAD RETURNDATASIZE PUSH1 0x1F NOT PUSH1 0x1F DUP3 ADD AND DUP3 ADD DUP1 PUSH1 0x40 MSTORE POP DUP2 ADD SWAP1 PUSH2 0x2C4 SWAP2 SWAP1 PUSH2 0x9C3 JUMP JUMPDEST PUSH1 0xC PUSH0 PUSH2 0x100 EXP DUP2 SLOAD DUP2 PUSH20 0xFFFFFFFFFFFFFFFFFFFFFFFFFFFFFFFFFFFFFFFF MUL NOT AND SWAP1 DUP4 PUSH20 0xFFFFFFFFFFFFFFFFFFFFFFFFFFFFFFFFFFFFFFFF AND MUL OR SWAP1 SSTORE POP PUSH1 0x1 PUSH1 0xD PUSH0 DUP4 PUSH20 0xFFFFFFFFFFFFFFFFFFFFFFFFFFFFFFFFFFFFFFFF AND PUSH20 0xFFFFFFFFFFFFFFFFFFFFFFFFFFFFFFFFFFFFFFFF AND DUP2 MSTORE PUSH1 0x20 ADD SWAP1 DUP2 MSTORE PUSH1 0x20 ADD PUSH0 KECCAK256 PUSH0 PUSH2 0x100 EXP DUP2 SLOAD DUP2 PUSH1 0xFF MUL NOT AND SWAP1 DUP4 ISZERO ISZERO MUL OR SWAP1 SSTORE POP PUSH1 0x1 PUSH1 0xD PUSH0 ADDRESS PUSH20 0xFFFFFFFFFFFFFFFFFFFFFFFFFFFFFFFFFFFFFFFF AND PUSH20 0xFFFFFFFFFFFFFFFFFFFFFFFFFFFFFFFFFFFFFFFF AND DUP2 MSTORE PUSH1 0x20 ADD SWAP1 DUP2 MSTORE PUSH1 0x20 ADD PUSH0 KECCAK256 PUSH0 PUSH2 0x100 EXP DUP2 SLOAD DUP2 PUSH1 0xFF MUL NOT AND SWAP1 DUP4 ISZERO ISZERO MUL OR SWAP1 SSTORE POP POP POP POP POP PUSH2 0xA15 JUMP JUMPDEST PUSH0 PUSH1 0x5 PUSH0 SWAP1 SLOAD SWAP1 PUSH2 0x100 EXP SWAP1 DIV PUSH20 0xFFFFFFFFFFFFFFFFFFFFFFFFFFFFFFFFFFFFFFFF AND SWAP1 POP DUP2 PUSH1 0x5 PUSH0 PUSH2 0x100 EXP DUP2 SLOAD DUP2 PUSH20 0xFFFFFFFFFFFFFFFFFFFFFFFFFFFFFFFFFFFFFFFF MUL NOT AND SWAP1 DUP4 PUSH20 0xFFFFFFFFFFFFFFFFFFFFFFFFFFFFFFFFFFFFFFFF AND MUL OR SWAP1 SSTORE POP DUP2 PUSH20 0xFFFFFFFFFFFFFFFFFFFFFFFFFFFFFFFFFFFFFFFF AND DUP2 PUSH20 0xFFFFFFFFFFFFFFFFFFFFFFFFFFFFFFFFFFFFFFFF AND PUSH32 0x8BE0079C531659141344CD1FD0A4F28419497F9722A3DAAFE3B4186F6B6457E0 PUSH1 0x40 MLOAD PUSH1 0x40 MLOAD DUP1 SWAP2 SUB SWAP1 LOG3 POP POP JUMP JUMPDEST PUSH0 PUSH1 0x40 MLOAD SWAP1 POP SWAP1 JUMP JUMPDEST PUSH0 PUSH0 REVERT JUMPDEST PUSH0 PUSH0 REVERT JUMPDEST PUSH0 PUSH0 REVERT JUMPDEST PUSH0 PUSH0 REVERT JUMPDEST PUSH0 PUSH1 0x1F NOT PUSH1 0x1F DUP4 ADD AND SWAP1 POP SWAP2 SWAP1 POP JUMP JUMPDEST PUSH32 0x4E487B7100000000000000000000000000000000000000000000000000000000 PUSH0 MSTORE PUSH1 0x41 PUSH1 0x4 MSTORE PUSH1 0x24 PUSH0 REVERT JUMPDEST PUSH2 0x4D8 DUP3 PUSH2 0x492 JUMP JUMPDEST DUP2 ADD DUP2 DUP2 LT PUSH8 0xFFFFFFFFFFFFFFFF DUP3 GT OR ISZERO PUSH2 0x4F7 JUMPI PUSH2 0x4F6 PUSH2 0x4A2 JUMP JUMPDEST JUMPDEST DUP1 PUSH1 0x40 MSTORE POP POP POP JUMP JUMPDEST PUSH0 PUSH2 0x509 PUSH2 0x479 JUMP JUMPDEST SWAP1 POP PUSH2 0x515 DUP3 DUP3 PUSH2 0x4CF JUMP JUMPDEST SWAP2 SWAP1 POP JUMP JUMPDEST PUSH0 PUSH8 0xFFFFFFFFFFFFFFFF DUP3 GT ISZERO PUSH2 0x534 JUMPI PUSH2 0x533 PUSH2 0x4A2 JUMP JUMPDEST JUMPDEST PUSH2 0x53D DUP3 PUSH2 0x492 JUMP JUMPDEST SWAP1 POP PUSH1 0x20 DUP2 ADD SWAP1 POP SWAP2 SWAP1 POP JUMP JUMPDEST DUP3 DUP2 DUP4 MCOPY PUSH0 DUP4 DUP4 ADD MSTORE POP POP POP JUMP JUMPDEST PUSH0 PUSH2 0x56A PUSH2 0x565 DUP5 PUSH2 0x51A JUMP JUMPDEST PUSH2 0x500 JUMP JUMPDEST SWAP1 POP DUP3 DUP2 MSTORE PUSH1 0x20 DUP2 ADD DUP5 DUP5 DUP5 ADD GT ISZERO PUSH2 0x586 JUMPI PUSH2 0x585 PUSH2 0x48E JUMP JUMPDEST JUMPDEST PUSH2 0x591 DUP5 DUP3 DUP6 PUSH2 0x54A JUMP JUMPDEST POP SWAP4 SWAP3 POP POP POP JUMP JUMPDEST PUSH0 DUP3 PUSH1 0x1F DUP4 ADD SLT PUSH2 0x5AD JUMPI PUSH2 0x5AC PUSH2 0x48A JUMP JUMPDEST JUMPDEST DUP2 MLOAD PUSH2 0x5BD DUP5 DUP3 PUSH1 0x20 DUP7 ADD PUSH2 0x558 JUMP JUMPDEST SWAP2 POP POP SWAP3 SWAP2 POP POP JUMP JUMPDEST PUSH0 PUSH20 0xFFFFFFFFFFFFFFFFFFFFFFFFFFFFFFFFFFFFFFFF DUP3 AND SWAP1 POP SWAP2 SWAP1 POP JUMP JUMPDEST PUSH0 PUSH2 0x5EF DUP3 PUSH2 0x5C6 JUMP JUMPDEST SWAP1 POP SWAP2 SWAP1 POP JUMP JUMPDEST PUSH2 0x5FF DUP2 PUSH2 0x5E5 JUMP JUMPDEST DUP2 EQ PUSH2 0x609 JUMPI PUSH0 PUSH0 REVERT JUMPDEST POP JUMP JUMPDEST PUSH0 DUP2 MLOAD SWAP1 POP PUSH2 0x61A DUP2 PUSH2 0x5F6 JUMP JUMPDEST SWAP3 SWAP2 POP POP JUMP JUMPDEST PUSH0 PUSH0 PUSH0 PUSH0 PUSH1 0x80 DUP6 DUP8 SUB SLT ISZERO PUSH2 0x638 JUMPI PUSH2 0x637 PUSH2 0x482 JUMP JUMPDEST JUMPDEST PUSH0 DUP6 ADD MLOAD PUSH8 0xFFFFFFFFFFFFFFFF DUP2 GT ISZERO PUSH2 0x655 JUMPI PUSH2 0x654 PUSH2 0x486 JUMP JUMPDEST JUMPDEST PUSH2 0x661 DUP8 DUP3 DUP9 ADD PUSH2 0x599 JUMP JUMPDEST SWAP5 POP POP PUSH1 0x20 DUP6 ADD MLOAD PUSH8 0xFFFFFFFFFFFFFFFF DUP2 GT ISZERO PUSH2 0x682 JUMPI PUSH2 0x681 PUSH2 0x486 JUMP JUMPDEST JUMPDEST PUSH2 0x68E DUP8 DUP3 DUP9 ADD PUSH2 0x599 JUMP JUMPDEST SWAP4 POP POP PUSH1 0x40 PUSH2 0x69F DUP8 DUP3 DUP9 ADD PUSH2 0x60C JUMP JUMPDEST SWAP3 POP POP PUSH1 0x60 PUSH2 0x6B0 DUP8 DUP3 DUP9 ADD PUSH2 0x60C JUMP JUMPDEST SWAP2 POP POP SWAP3 SWAP6 SWAP2 SWAP5 POP SWAP3 POP JUMP JUMPDEST PUSH0 DUP2 MLOAD SWAP1 POP SWAP2 SWAP1 POP JUMP JUMPDEST PUSH32 0x4E487B7100000000000000000000000000000000000000000000000000000000 PUSH0 MSTORE PUSH1 0x22 PUSH1 0x4 MSTORE PUSH1 0x24 PUSH0 REVERT JUMPDEST PUSH0 PUSH1 0x2 DUP3 DIV SWAP1 POP PUSH1 0x1 DUP3 AND DUP1 PUSH2 0x70A JUMPI PUSH1 0x7F DUP3 AND SWAP2 POP JUMPDEST PUSH1 0x20 DUP3 LT DUP2 SUB PUSH2 0x71D JUMPI PUSH2 0x71C PUSH2 0x6C6 JUMP JUMPDEST JUMPDEST POP SWAP2 SWAP1 POP JUMP JUMPDEST PUSH0 DUP2 SWAP1 POP DUP2 PUSH0 MSTORE PUSH1 0x20 PUSH0 KECCAK256 SWAP1 POP SWAP2 SWAP1 POP JUMP JUMPDEST PUSH0 PUSH1 0x20 PUSH1 0x1F DUP4 ADD DIV SWAP1 POP SWAP2 SWAP1 POP JUMP JUMPDEST PUSH0 DUP3 DUP3 SHL SWAP1 POP SWAP3 SWAP2 POP POP JUMP JUMPDEST PUSH0 PUSH1 0x8 DUP4 MUL PUSH2 0x77F PUSH32 0xFFFFFFFFFFFFFFFFFFFFFFFFFFFFFFFFFFFFFFFFFFFFFFFFFFFFFFFFFFFFFFFF DUP3 PUSH2 0x744 JUMP JUMPDEST PUSH2 0x789 DUP7 DUP4 PUSH2 0x744 JUMP JUMPDEST SWAP6 POP DUP1 NOT DUP5 AND SWAP4 POP DUP1 DUP7 AND DUP5 OR SWAP3 POP POP POP SWAP4 SWAP3 POP POP POP JUMP JUMPDEST PUSH0 DUP2 SWAP1 POP SWAP2 SWAP1 POP JUMP JUMPDEST PUSH0 DUP2 SWAP1 POP SWAP2 SWAP1 POP JUMP JUMPDEST PUSH0 PUSH2 0x7CD PUSH2 0x7C8 PUSH2 0x7C3 DUP5 PUSH2 0x7A1 JUMP JUMPDEST PUSH2 0x7AA JUMP JUMPDEST PUSH2 0x7A1 JUMP JUMPDEST SWAP1 POP SWAP2 SWAP1 POP JUMP JUMPDEST PUSH0 DUP2 SWAP1 POP SWAP2 SWAP1 POP JUMP JUMPDEST PUSH2 0x7E6 DUP4 PUSH2 0x7B3 JUMP JUMPDEST PUSH2 0x7FA PUSH2 0x7F2 DUP3 PUSH2 0x7D4 JUMP JUMPDEST DUP5 DUP5 SLOAD PUSH2 0x750 JUMP JUMPDEST DUP3 SSTORE POP POP POP POP JUMP JUMPDEST PUSH0 PUSH0 SWAP1 POP SWAP1 JUMP JUMPDEST PUSH2 0x811 PUSH2 0x802 JUMP JUMPDEST PUSH2 0x81C DUP2 DUP5 DUP5 PUSH2 0x7DD JUMP JUMPDEST POP POP POP JUMP JUMPDEST JUMPDEST DUP2 DUP2 LT ISZERO PUSH2 0x83F JUMPI PUSH2 0x834 PUSH0 DUP3 PUSH2 0x809 JUMP JUMPDEST PUSH1 0x1 DUP2 ADD SWAP1 POP PUSH2 0x822 JUMP JUMPDEST POP POP JUMP JUMPDEST PUSH1 0x1F DUP3 GT ISZERO PUSH2 0x884 JUMPI PUSH2 0x855 DUP2 PUSH2 0x723 JUMP JUMPDEST PUSH2 0x85E DUP5 PUSH2 0x735 JUMP JUMPDEST DUP2 ADD PUSH1 0x20 DUP6 LT ISZERO PUSH2 0x86D JUMPI DUP2 SWAP1 POP JUMPDEST PUSH2 0x881 PUSH2 0x879 DUP6 PUSH2 0x735 JUMP JUMPDEST DUP4 ADD DUP3 PUSH2 0x821 JUMP JUMPDEST POP POP JUMPDEST POP POP POP JUMP JUMPDEST PUSH0 DUP3 DUP3 SHR SWAP1 POP SWAP3 SWAP2 POP POP JUMP JUMPDEST PUSH0 PUSH2 0x8A4 PUSH0 NOT DUP5 PUSH1 0x8 MUL PUSH2 0x889 JUMP JUMPDEST NOT DUP1 DUP4 AND SWAP2 POP POP SWAP3 SWAP2 POP POP JUMP JUMPDEST PUSH0 PUSH2 0x8BC DUP4 DUP4 PUSH2 0x895 JUMP JUMPDEST SWAP2 POP DUP3 PUSH1 0x2 MUL DUP3 OR SWAP1 POP SWAP3 SWAP2 POP POP JUMP JUMPDEST PUSH2 0x8D5 DUP3 PUSH2 0x6BC JUMP JUMPDEST PUSH8 0xFFFFFFFFFFFFFFFF DUP2 GT ISZERO PUSH2 0x8EE JUMPI PUSH2 0x8ED PUSH2 0x4A2 JUMP JUMPDEST JUMPDEST PUSH2 0x8F8 DUP3 SLOAD PUSH2 0x6F3 JUMP JUMPDEST PUSH2 0x903 DUP3 DUP3 DUP6 PUSH2 0x843 JUMP JUMPDEST PUSH0 PUSH1 0x20 SWAP1 POP PUSH1 0x1F DUP4 GT PUSH1 0x1 DUP2 EQ PUSH2 0x934 JUMPI PUSH0 DUP5 ISZERO PUSH2 0x922 JUMPI DUP3 DUP8 ADD MLOAD SWAP1 POP JUMPDEST PUSH2 0x92C DUP6 DUP3 PUSH2 0x8B1 JUMP JUMPDEST DUP7 SSTORE POP PUSH2 0x993 JUMP JUMPDEST PUSH1 0x1F NOT DUP5 AND PUSH2 0x942 DUP7 PUSH2 0x723 JUMP JUMPDEST PUSH0 JUMPDEST DUP3 DUP2 LT ISZERO PUSH2 0x969 JUMPI DUP5 DUP10 ADD MLOAD DUP3 SSTORE PUSH1 0x1 DUP3 ADD SWAP2 POP PUSH1 0x20 DUP6 ADD SWAP5 POP PUSH1 0x20 DUP2 ADD SWAP1 POP PUSH2 0x944 JUMP JUMPDEST DUP7 DUP4 LT ISZERO PUSH2 0x986 JUMPI DUP5 DUP10 ADD MLOAD PUSH2 0x982 PUSH1 0x1F DUP10 AND DUP3 PUSH2 0x895 JUMP JUMPDEST DUP4 SSTORE POP JUMPDEST PUSH1 0x1 PUSH1 0x2 DUP9 MUL ADD DUP9 SSTORE POP POP POP JUMPDEST POP POP POP POP POP POP JUMP JUMPDEST PUSH2 0x9A4 DUP2 PUSH2 0x5E5 JUMP JUMPDEST DUP3 MSTORE POP POP JUMP JUMPDEST PUSH0 PUSH1 0x20 DUP3 ADD SWAP1 POP PUSH2 0x9BD PUSH0 DUP4 ADD DUP5 PUSH2 0x99B JUMP JUMPDEST SWAP3 SWAP2 POP POP JUMP JUMPDEST PUSH0 PUSH1 0x20 DUP3 DUP5 SUB SLT ISZERO PUSH2 0x9D8 JUMPI PUSH2 0x9D7 PUSH2 0x482 JUMP JUMPDEST JUMPDEST PUSH0 PUSH2 0x9E5 DUP5 DUP3 DUP6 ADD PUSH2 0x60C JUMP JUMPDEST SWAP2 POP POP SWAP3 SWAP2 POP POP JUMP JUMPDEST PUSH0 PUSH1 0x40 DUP3 ADD SWAP1 POP PUSH2 0xA01 PUSH0 DUP4 ADD DUP6 PUSH2 0x99B JUMP JUMPDEST PUSH2 0xA0E PUSH1 0x20 DUP4 ADD DUP5 PUSH2 0x99B JUMP JUMPDEST SWAP4 SWAP3 POP POP POP JUMP JUMPDEST PUSH2 0x1DFC DUP1 PUSH2 0xA22 PUSH0 CODECOPY PUSH0 RETURN INVALID PUSH1 0x80 PUSH1 0x40 MSTORE CALLVALUE DUP1 ISZERO PUSH2 0xF JUMPI PUSH0 PUSH0 REVERT JUMPDEST POP PUSH1 0x4 CALLDATASIZE LT PUSH2 0x18C JUMPI PUSH0 CALLDATALOAD PUSH1 0xE0 SHR DUP1 PUSH4 0x70A08231 GT PUSH2 0xDC JUMPI DUP1 PUSH4 0xC647B20E GT PUSH2 0x95 JUMPI DUP1 PUSH4 0xCB4CA631 GT PUSH2 0x6F JUMPI DUP1 PUSH4 0xCB4CA631 EQ PUSH2 0x44E JUMPI DUP1 PUSH4 0xCC1776D3 EQ PUSH2 0x47E JUMPI DUP1 PUSH4 0xDD62ED3E EQ PUSH2 0x49C JUMPI DUP1 PUSH4 0xF2FDE38B EQ PUSH2 0x4CC JUMPI PUSH2 0x18C JUMP JUMPDEST DUP1 PUSH4 0xC647B20E EQ PUSH2 0x3F8 JUMPI DUP1 PUSH4 0xC6A30647 EQ PUSH2 0x414 JUMPI DUP1 PUSH4 0xC816841B EQ PUSH2 0x430 JUMPI PUSH2 0x18C JUMP JUMPDEST DUP1 PUSH4 0x70A08231 EQ PUSH2 0x336 JUMPI DUP1 PUSH4 0x715018A6 EQ PUSH2 0x366 JUMPI DUP1 PUSH4 0x8DA5CB5B EQ PUSH2 0x370 JUMPI DUP1 PUSH4 0x95D89B41 EQ PUSH2 0x38E JUMPI DUP1 PUSH4 0xA9059CBB EQ PUSH2 0x3AC JUMPI DUP1 PUSH4 0xBEABACC8 EQ PUSH2 0x3DC JUMPI PUSH2 0x18C JUMP JUMPDEST DUP1 PUSH4 0x2431BA73 GT PUSH2 0x149 JUMPI DUP1 PUSH4 0x33727077 GT PUSH2 0x123 JUMPI DUP1 PUSH4 0x33727077 EQ PUSH2 0x2C0 JUMPI DUP1 PUSH4 0x4E6FD6C4 EQ PUSH2 0x2DE JUMPI DUP1 PUSH4 0x4F7041A5 EQ PUSH2 0x2FC JUMPI DUP1 PUSH4 0x51C6590A EQ PUSH2 0x31A JUMPI PUSH2 0x18C JUMP JUMPDEST DUP1 PUSH4 0x2431BA73 EQ PUSH2 0x268 JUMPI DUP1 PUSH4 0x2E1A7D4D EQ PUSH2 0x286 JUMPI DUP1 PUSH4 0x313CE567 EQ PUSH2 0x2A2 JUMPI PUSH2 0x18C JUMP JUMPDEST DUP1 PUSH4 0x5BF0A54 EQ PUSH2 0x190 JUMPI DUP1 PUSH4 0x6FDDE03 EQ PUSH2 0x1AE JUMPI DUP1 PUSH4 0x95EA7B3 EQ PUSH2 0x1CC JUMPI DUP1 PUSH4 0x15291CD4 EQ PUSH2 0x1FC JUMPI DUP1 PUSH4 0x18160DDD EQ PUSH2 0x21A JUMPI DUP1 PUSH4 0x23B872DD EQ PUSH2 0x238 JUMPI JUMPDEST PUSH0 PUSH0 REVERT JUMPDEST PUSH2 0x198 PUSH2 0x4E8 JUMP JUMPDEST PUSH1 0x40 MLOAD PUSH2 0x1A5 SWAP2 SWAP1 PUSH2 0x16E4 JUMP JUMPDEST PUSH1 0x40 MLOAD DUP1 SWAP2 SUB SWAP1 RETURN JUMPDEST PUSH2 0x1B6 PUSH2 0x4EE JUMP JUMPDEST PUSH1 0x40 MLOAD PUSH2 0x1C3 SWAP2 SWAP1 PUSH2 0x176D JUMP JUMPDEST PUSH1 0x40 MLOAD DUP1 SWAP2 SUB SWAP1 RETURN JUMPDEST PUSH2 0x1E6 PUSH1 0x4 DUP1 CALLDATASIZE SUB DUP2 ADD SWAP1 PUSH2 0x1E1 SWAP2 SWAP1 PUSH2 0x1815 JUMP JUMPDEST PUSH2 0x57E JUMP JUMPDEST PUSH1 0x40 MLOAD PUSH2 0x1F3 SWAP2 SWAP1 PUSH2 0x186D JUMP JUMPDEST PUSH1 0x40 MLOAD DUP1 SWAP2 SUB SWAP1 RETURN JUMPDEST PUSH2 0x204 PUSH2 0x5A0 JUMP JUMPDEST PUSH1 0x40 MLOAD PUSH2 0x211 SWAP2 SWAP1 PUSH2 0x16E4 JUMP JUMPDEST PUSH1 0x40 MLOAD DUP1 SWAP2 SUB SWAP1 RETURN JUMPDEST PUSH2 0x222 PUSH2 0x5A6 JUMP JUMPDEST PUSH1 0x40 MLOAD PUSH2 0x22F SWAP2 SWAP1 PUSH2 0x16E4 JUMP JUMPDEST PUSH1 0x40 MLOAD DUP1 SWAP2 SUB SWAP1 RETURN JUMPDEST PUSH2 0x252 PUSH1 0x4 DUP1 CALLDATASIZE SUB DUP2 ADD SWAP1 PUSH2 0x24D SWAP2 SWAP1 PUSH2 0x1886 JUMP JUMPDEST PUSH2 0x5AF JUMP JUMPDEST PUSH1 0x40 MLOAD PUSH2 0x25F SWAP2 SWAP1 PUSH2 0x186D JUMP JUMPDEST PUSH1 0x40 MLOAD DUP1 SWAP2 SUB SWAP1 RETURN JUMPDEST PUSH2 0x270 PUSH2 0x5DD JUMP JUMPDEST PUSH1 0x40 MLOAD PUSH2 0x27D SWAP2 SWAP1 PUSH2 0x1931 JUMP JUMPDEST PUSH1 0x40 MLOAD DUP1 SWAP2 SUB SWAP1 RETURN JUMPDEST PUSH2 0x2A0 PUSH1 0x4 DUP1 CALLDATASIZE SUB DUP2 ADD SWAP1 PUSH2 0x29B SWAP2 SWAP1 PUSH2 0x194A JUMP JUMPDEST PUSH2 0x602 JUMP JUMPDEST STOP JUMPDEST PUSH2 0x2AA PUSH2 0x6FC JUMP JUMPDEST PUSH1 0x40 MLOAD PUSH2 0x2B7 SWAP2 SWAP1 PUSH2 0x1990 JUMP JUMPDEST PUSH1 0x40 MLOAD DUP1 SWAP2 SUB SWAP1 RETURN JUMPDEST PUSH2 0x2C8 PUSH2 0x704 JUMP JUMPDEST PUSH1 0x40 MLOAD PUSH2 0x2D5 SWAP2 SWAP1 PUSH2 0x16E4 JUMP JUMPDEST PUSH1 0x40 MLOAD DUP1 SWAP2 SUB SWAP1 RETURN JUMPDEST PUSH2 0x2E6 PUSH2 0x70A JUMP JUMPDEST PUSH1 0x40 MLOAD PUSH2 0x2F3 SWAP2 SWAP1 PUSH2 0x19B8 JUMP JUMPDEST PUSH1 0x40 MLOAD DUP1 SWAP2 SUB SWAP1 RETURN JUMPDEST PUSH2 0x304 PUSH2 0x710 JUMP JUMPDEST PUSH1 0x40 MLOAD PUSH2 0x311 SWAP2 SWAP1 PUSH2 0x16E4 JUMP JUMPDEST PUSH1 0x40 MLOAD DUP1 SWAP2 SUB SWAP1 RETURN JUMPDEST PUSH2 0x334 PUSH1 0x4 DUP1 CALLDATASIZE SUB DUP2 ADD SWAP1 PUSH2 0x32F SWAP2 SWAP1 PUSH2 0x194A JUMP JUMPDEST PUSH2 0x716 JUMP JUMPDEST STOP JUMPDEST PUSH2 0x350 PUSH1 0x4 DUP1 CALLDATASIZE SUB DUP2 ADD SWAP1 PUSH2 0x34B SWAP2 SWAP1 PUSH2 0x19D1 JUMP JUMPDEST PUSH2 0x86F JUMP JUMPDEST PUSH1 0x40 MLOAD PUSH2 0x35D SWAP2 SWAP1 PUSH2 0x16E4 JUMP JUMPDEST PUSH1 0x40 MLOAD DUP1 SWAP2 SUB SWAP1 RETURN JUMPDEST PUSH2 0x36E PUSH2 0x8B4 JUMP JUMPDEST STOP JUMPDEST PUSH2 0x378 PUSH2 0x8C7 JUMP JUMPDEST PUSH1 0x40 MLOAD PUSH2 0x385 SWAP2 SWAP1 PUSH2 0x19B8 JUMP JUMPDEST PUSH1 0x40 MLOAD DUP1 SWAP2 SUB SWAP1 RETURN JUMPDEST PUSH2 0x396 PUSH2 0x8EF JUMP JUMPDEST PUSH1 0x40 MLOAD PUSH2 0x3A3 SWAP2 SWAP1 PUSH2 0x176D JUMP JUMPDEST PUSH1 0x40 MLOAD DUP1 SWAP2 SUB SWAP1 RETURN JUMPDEST PUSH2 0x3C6 PUSH1 0x4 DUP1 CALLDATASIZE SUB DUP2 ADD SWAP1 PUSH2 0x3C1 SWAP2 SWAP1 PUSH2 0x1815 JUMP JUMPDEST PUSH2 0x97F JUMP JUMPDEST PUSH1 0x40 MLOAD PUSH2 0x3D3 SWAP2 SWAP1 PUSH2 0x186D JUMP JUMPDEST PUSH1 0x40 MLOAD DUP1 SWAP2 SUB SWAP1 RETURN JUMPDEST PUSH2 0x3F6 PUSH1 0x4 DUP1 CALLDATASIZE SUB DUP2 ADD SWAP1 PUSH2 0x3F1 SWAP2 SWAP1 PUSH2 0x1886 JUMP JUMPDEST PUSH2 0x9A1 JUMP JUMPDEST STOP JUMPDEST PUSH2 0x412 PUSH1 0x4 DUP1 CALLDATASIZE SUB DUP2 ADD SWAP1 PUSH2 0x40D SWAP2 SWAP1 PUSH2 0x19FC JUMP JUMPDEST PUSH2 0xD5F JUMP JUMPDEST STOP JUMPDEST PUSH2 0x42E PUSH1 0x4 DUP1 CALLDATASIZE SUB DUP2 ADD SWAP1 PUSH2 0x429 SWAP2 SWAP1 PUSH2 0x1A64 JUMP JUMPDEST PUSH2 0xDC1 JUMP JUMPDEST STOP JUMPDEST PUSH2 0x438 PUSH2 0xE21 JUMP JUMPDEST PUSH1 0x40 MLOAD PUSH2 0x445 SWAP2 SWAP1 PUSH2 0x19B8 JUMP JUMPDEST PUSH1 0x40 MLOAD DUP1 SWAP2 SUB SWAP1 RETURN JUMPDEST PUSH2 0x468 PUSH1 0x4 DUP1 CALLDATASIZE SUB DUP2 ADD SWAP1 PUSH2 0x463 SWAP2 SWAP1 PUSH2 0x19D1 JUMP JUMPDEST PUSH2 0xE46 JUMP JUMPDEST PUSH1 0x40 MLOAD PUSH2 0x475 SWAP2 SWAP1 PUSH2 0x186D JUMP JUMPDEST PUSH1 0x40 MLOAD DUP1 SWAP2 SUB SWAP1 RETURN JUMPDEST PUSH2 0x486 PUSH2 0xE63 JUMP JUMPDEST PUSH1 0x40 MLOAD PUSH2 0x493 SWAP2 SWAP1 PUSH2 0x16E4 JUMP JUMPDEST PUSH1 0x40 MLOAD DUP1 SWAP2 SUB SWAP1 RETURN JUMPDEST PUSH2 0x4B6 PUSH1 0x4 DUP1 CALLDATASIZE SUB DUP2 ADD SWAP1 PUSH2 0x4B1 SWAP2 SWAP1 PUSH2 0x1AA2 JUMP JUMPDEST PUSH2 0xE69 JUMP JUMPDEST PUSH1 0x40 MLOAD PUSH2 0x4C3 SWAP2 SWAP1 PUSH2 0x16E4 JUMP JUMPDEST PUSH1 0x40 MLOAD DUP1 SWAP2 SUB SWAP1 RETURN JUMPDEST PUSH2 0x4E6 PUSH1 0x4 DUP1 CALLDATASIZE SUB DUP2 ADD SWAP1 PUSH2 0x4E1 SWAP2 SWAP1 PUSH2 0x19D1 JUMP JUMPDEST PUSH2 0xEEB JUMP JUMPDEST STOP JUMPDEST PUSH1 0x9 SLOAD DUP2 JUMP JUMPDEST PUSH1 0x60 PUSH1 0x3 DUP1 SLOAD PUSH2 0x4FD SWAP1 PUSH2 0x1B0D JUMP JUMPDEST DUP1 PUSH1 0x1F ADD PUSH1 0x20 DUP1 SWAP2 DIV MUL PUSH1 0x20 ADD PUSH1 0x40 MLOAD SWAP1 DUP2 ADD PUSH1 0x40 MSTORE DUP1 SWAP3 SWAP2 SWAP1 DUP2 DUP2 MSTORE PUSH1 0x20 ADD DUP3 DUP1 SLOAD PUSH2 0x529 SWAP1 PUSH2 0x1B0D JUMP JUMPDEST DUP1 ISZERO PUSH2 0x574 JUMPI DUP1 PUSH1 0x1F LT PUSH2 0x54B JUMPI PUSH2 0x100 DUP1 DUP4 SLOAD DIV MUL DUP4 MSTORE SWAP2 PUSH1 0x20 ADD SWAP2 PUSH2 0x574 JUMP JUMPDEST DUP3 ADD SWAP2 SWAP1 PUSH0 MSTORE PUSH1 0x20 PUSH0 KECCAK256 SWAP1 JUMPDEST DUP2 SLOAD DUP2 MSTORE SWAP1 PUSH1 0x1 ADD SWAP1 PUSH1 0x20 ADD DUP1 DUP4 GT PUSH2 0x557 JUMPI DUP3 SWAP1 SUB PUSH1 0x1F AND DUP3 ADD SWAP2 JUMPDEST POP POP POP POP POP SWAP1 POP SWAP1 JUMP JUMPDEST PUSH0 PUSH0 PUSH2 0x588 PUSH2 0xF6F JUMP JUMPDEST SWAP1 POP PUSH2 0x595 DUP2 DUP6 DUP6 PUSH2 0xF76 JUMP JUMPDEST PUSH1 0x1 SWAP2 POP POP SWAP3 SWAP2 POP POP JUMP JUMPDEST PUSH1 0x8 SLOAD DUP2 JUMP JUMPDEST PUSH0 PUSH1 0x2 SLOAD SWAP1 POP SWAP1 JUMP JUMPDEST PUSH0 PUSH0 PUSH2 0x5B9 PUSH2 0xF6F JUMP JUMPDEST SWAP1 POP PUSH2 0x5C6 DUP6 DUP3 DUP6 PUSH2 0xF88 JUMP JUMPDEST PUSH2 0x5D1 DUP6 DUP6 DUP6 PUSH2 0x101B JUMP JUMPDEST PUSH1 0x1 SWAP2 POP POP SWAP4 SWAP3 POP POP POP JUMP JUMPDEST PUSH1 0xB PUSH0 SWAP1 SLOAD SWAP1 PUSH2 0x100 EXP SWAP1 DIV PUSH20 0xFFFFFFFFFFFFFFFFFFFFFFFFFFFFFFFFFFFFFFFF AND DUP2 JUMP JUMPDEST PUSH2 0x60A PUSH2 0x110B JUMP JUMPDEST PUSH0 PUSH20 0xFFFFFFFFFFFFFFFFFFFFFFFFFFFFFFFFFFFFFFFF AND CALLER PUSH20 0xFFFFFFFFFFFFFFFFFFFFFFFFFFFFFFFFFFFFFFFF AND SUB PUSH2 0x66F JUMPI PUSH1 0x40 MLOAD PUSH32 0xA38CA3D900000000000000000000000000000000000000000000000000000000 DUP2 MSTORE PUSH1 0x4 ADD PUSH1 0x40 MLOAD DUP1 SWAP2 SUB SWAP1 REVERT JUMPDEST SELFBALANCE DUP2 GT ISZERO PUSH2 0x6A9 JUMPI PUSH1 0x40 MLOAD PUSH32 0x356680B700000000000000000000000000000000000000000000000000000000 DUP2 MSTORE PUSH1 0x4 ADD PUSH1 0x40 MLOAD DUP1 SWAP2 SUB SWAP1 REVERT JUMPDEST PUSH0 SELFBALANCE SWAP1 POP PUSH2 0x6B5 PUSH2 0x8C7 JUMP JUMPDEST PUSH20 0xFFFFFFFFFFFFFFFFFFFFFFFFFFFFFFFFFFFFFFFF AND PUSH2 0x8FC DUP3 SWAP1 DUP2 ISZERO MUL SWAP1 PUSH1 0x40 MLOAD PUSH0 PUSH1 0x40 MLOAD DUP1 DUP4 SUB DUP2 DUP6 DUP9 DUP9 CALL SWAP4 POP POP POP POP ISZERO DUP1 ISZERO PUSH2 0x6F7 JUMPI RETURNDATASIZE PUSH0 PUSH0 RETURNDATACOPY RETURNDATASIZE PUSH0 REVERT JUMPDEST POP POP POP JUMP JUMPDEST PUSH0 PUSH1 0x12 SWAP1 POP SWAP1 JUMP JUMPDEST PUSH1 0xA SLOAD DUP2 JUMP JUMPDEST PUSH2 0xDEAD DUP2 JUMP JUMPDEST PUSH1 0x6 SLOAD DUP2 JUMP JUMPDEST PUSH2 0x71E PUSH2 0x110B JUMP JUMPDEST PUSH0 DUP2 GT PUSH2 0x757 JUMPI PUSH1 0x40 MLOAD PUSH32 0x671D94D800000000000000000000000000000000000000000000000000000000 DUP2 MSTORE PUSH1 0x4 ADD PUSH1 0x40 MLOAD DUP1 SWAP2 SUB SWAP1 REVERT JUMPDEST PUSH2 0x783 ADDRESS PUSH1 0xB PUSH0 SWAP1 SLOAD SWAP1 PUSH2 0x100 EXP SWAP1 DIV PUSH20 0xFFFFFFFFFFFFFFFFFFFFFFFFFFFFFFFFFFFFFFFF AND DUP4 PUSH2 0xF76 JUMP JUMPDEST PUSH1 0xB PUSH0 SWAP1 SLOAD SWAP1 PUSH2 0x100 EXP SWAP1 DIV PUSH20 0xFFFFFFFFFFFFFFFFFFFFFFFFFFFFFFFFFFFFFFFF AND PUSH20 0xFFFFFFFFFFFFFFFFFFFFFFFFFFFFFFFFFFFFFFFF AND PUSH4 0xF305D719 SELFBALANCE ADDRESS DUP5 PUSH0 PUSH0 PUSH2 0x7CD PUSH2 0x8C7 JUMP JUMPDEST TIMESTAMP PUSH1 0x40 MLOAD DUP9 PUSH4 0xFFFFFFFF AND PUSH1 0xE0 SHL DUP2 MSTORE PUSH1 0x4 ADD PUSH2 0x7EF SWAP7 SWAP6 SWAP5 SWAP4 SWAP3 SWAP2 SWAP1 PUSH2 0x1B76 JUMP JUMPDEST PUSH1 0x60 PUSH1 0x40 MLOAD DUP1 DUP4 SUB DUP2 DUP6 DUP9 GAS CALL ISZERO DUP1 ISZERO PUSH2 0x80B JUMPI RETURNDATASIZE PUSH0 PUSH0 RETURNDATACOPY RETURNDATASIZE PUSH0 REVERT JUMPDEST POP POP POP POP POP PUSH1 0x40 MLOAD RETURNDATASIZE PUSH1 0x1F NOT PUSH1 0x1F DUP3 ADD AND DUP3 ADD DUP1 PUSH1 0x40 MSTORE POP DUP2 ADD SWAP1 PUSH2 0x830 SWAP2 SWAP1 PUSH2 0x1BE9 JUMP JUMPDEST POP POP POP PUSH32 0x38F8A0C92F4C5B0B6877F878CB4C0C8D348A47B76D716C8E78F425043DF9515B DUP2 SELFBALANCE PUSH1 0x40 MLOAD PUSH2 0x864 SWAP3 SWAP2 SWAP1 PUSH2 0x1C39 JUMP JUMPDEST PUSH1 0x40 MLOAD DUP1 SWAP2 SUB SWAP1 LOG1 POP JUMP JUMPDEST PUSH0 PUSH0 PUSH0 DUP4 PUSH20 0xFFFFFFFFFFFFFFFFFFFFFFFFFFFFFFFFFFFFFFFF AND PUSH20 0xFFFFFFFFFFFFFFFFFFFFFFFFFFFFFFFFFFFFFFFF AND DUP2 MSTORE PUSH1 0x20 ADD SWAP1 DUP2 MSTORE PUSH1 0x20 ADD PUSH0 KECCAK256 SLOAD SWAP1 POP SWAP2 SWAP1 POP JUMP JUMPDEST PUSH2 0x8BC PUSH2 0x110B JUMP JUMPDEST PUSH2 0x8C5 PUSH0 PUSH2 0x1192 JUMP JUMPDEST JUMP JUMPDEST PUSH0 PUSH1 0x5 PUSH0 SWAP1 SLOAD SWAP1 PUSH2 0x100 EXP SWAP1 DIV PUSH20 0xFFFFFFFFFFFFFFFFFFFFFFFFFFFFFFFFFFFFFFFF AND SWAP1 POP SWAP1 JUMP JUMPDEST PUSH1 0x60 PUSH1 0x4 DUP1 SLOAD PUSH2 0x8FE SWAP1 PUSH2 0x1B0D JUMP JUMPDEST DUP1 PUSH1 0x1F ADD PUSH1 0x20 DUP1 SWAP2 DIV MUL PUSH1 0x20 ADD PUSH1 0x40 MLOAD SWAP1 DUP2 ADD PUSH1 0x40 MSTORE DUP1 SWAP3 SWAP2 SWAP1 DUP2 DUP2 MSTORE PUSH1 0x20 ADD DUP3 DUP1 SLOAD PUSH2 0x92A SWAP1 PUSH2 0x1B0D JUMP JUMPDEST DUP1 ISZERO PUSH2 0x975 JUMPI DUP1 PUSH1 0x1F LT PUSH2 0x94C JUMPI PUSH2 0x100 DUP1 DUP4 SLOAD DIV MUL DUP4 MSTORE SWAP2 PUSH1 0x20 ADD SWAP2 PUSH2 0x975 JUMP JUMPDEST DUP3 ADD SWAP2 SWAP1 PUSH0 MSTORE PUSH1 0x20 PUSH0 KECCAK256 SWAP1 JUMPDEST DUP2 SLOAD DUP2 MSTORE SWAP1 PUSH1 0x1 ADD SWAP1 PUSH1 0x20 ADD DUP1 DUP4 GT PUSH2 0x958 JUMPI DUP3 SWAP1 SUB PUSH1 0x1F AND DUP3 ADD SWAP2 JUMPDEST POP POP POP POP POP SWAP1 POP SWAP1 JUMP JUMPDEST PUSH0 PUSH0 PUSH2 0x989 PUSH2 0xF6F JUMP JUMPDEST SWAP1 POP PUSH2 0x996 DUP2 DUP6 DUP6 PUSH2 0x101B JUMP JUMPDEST PUSH1 0x1 SWAP2 POP POP SWAP3 SWAP2 POP POP JUMP JUMPDEST PUSH0 PUSH20 0xFFFFFFFFFFFFFFFFFFFFFFFFFFFFFFFFFFFFFFFF AND DUP4 PUSH20 0xFFFFFFFFFFFFFFFFFFFFFFFFFFFFFFFFFFFFFFFF AND SUB PUSH2 0xA06 JUMPI PUSH1 0x40 MLOAD PUSH32 0xF38F85C300000000000000000000000000000000000000000000000000000000 DUP2 MSTORE PUSH1 0x4 ADD PUSH1 0x40 MLOAD DUP1 SWAP2 SUB SWAP1 REVERT JUMPDEST PUSH0 PUSH20 0xFFFFFFFFFFFFFFFFFFFFFFFFFFFFFFFFFFFFFFFF AND DUP3 PUSH20 0xFFFFFFFFFFFFFFFFFFFFFFFFFFFFFFFFFFFFFFFF AND SUB PUSH2 0xA6B JUMPI PUSH1 0x40 MLOAD PUSH32 0xA38CA3D900000000000000000000000000000000000000000000000000000000 DUP2 MSTORE PUSH1 0x4 ADD PUSH1 0x40 MLOAD DUP1 SWAP2 SUB SWAP1 REVERT JUMPDEST PUSH1 0xD PUSH0 DUP5 PUSH20 0xFFFFFFFFFFFFFFFFFFFFFFFFFFFFFFFFFFFFFFFF AND PUSH20 0xFFFFFFFFFFFFFFFFFFFFFFFFFFFFFFFFFFFFFFFF AND DUP2 MSTORE PUSH1 0x20 ADD SWAP1 DUP2 MSTORE PUSH1 0x20 ADD PUSH0 KECCAK256 PUSH0 SWAP1 SLOAD SWAP1 PUSH2 0x100 EXP SWAP1 DIV PUSH1 0xFF AND DUP1 PUSH2 0xB06 JUMPI POP PUSH1 0xD PUSH0 DUP4 PUSH20 0xFFFFFFFFFFFFFFFFFFFFFFFFFFFFFFFFFFFFFFFF AND PUSH20 0xFFFFFFFFFFFFFFFFFFFFFFFFFFFFFFFFFFFFFFFF AND DUP2 MSTORE PUSH1 0x20 ADD SWAP1 DUP2 MSTORE PUSH1 0x20 ADD PUSH0 KECCAK256 PUSH0 SWAP1 SLOAD SWAP1 PUSH2 0x100 EXP SWAP1 DIV PUSH1 0xFF AND JUMPDEST ISZERO PUSH2 0xB1B JUMPI PUSH2 0xB16 DUP4 DUP4 DUP4 PUSH2 0x101B JUMP JUMPDEST PUSH2 0xD5A JUMP JUMPDEST PUSH0 PUSH1 0xC PUSH0 SWAP1 SLOAD SWAP1 PUSH2 0x100 EXP SWAP1 DIV PUSH20 0xFFFFFFFFFFFFFFFFFFFFFFFFFFFFFFFFFFFFFFFF AND PUSH20 0xFFFFFFFFFFFFFFFFFFFFFFFFFFFFFFFFFFFFFFFF AND DUP4 PUSH20 0xFFFFFFFFFFFFFFFFFFFFFFFFFFFFFFFFFFFFFFFF AND EQ SWAP1 POP PUSH0 PUSH1 0xC PUSH0 SWAP1 SLOAD SWAP1 PUSH2 0x100 EXP SWAP1 DIV PUSH20 0xFFFFFFFFFFFFFFFFFFFFFFFFFFFFFFFFFFFFFFFF AND PUSH20 0xFFFFFFFFFFFFFFFFFFFFFFFFFFFFFFFFFFFFFFFF AND DUP6 PUSH20 0xFFFFFFFFFFFFFFFFFFFFFFFFFFFFFFFFFFFFFFFF AND EQ SWAP1 POP PUSH0 DUP3 ISZERO PUSH2 0xBE9 JUMPI PUSH1 0x64 PUSH1 0x6 SLOAD DUP6 PUSH2 0xBD8 SWAP2 SWAP1 PUSH2 0x1C8D JUMP JUMPDEST PUSH2 0xBE2 SWAP2 SWAP1 PUSH2 0x1CFB JUMP JUMPDEST SWAP1 POP PUSH2 0xC0D JUMP JUMPDEST DUP2 ISZERO PUSH2 0xC0C JUMPI PUSH1 0x64 PUSH1 0x7 SLOAD DUP6 PUSH2 0xBFF SWAP2 SWAP1 PUSH2 0x1C8D JUMP JUMPDEST PUSH2 0xC09 SWAP2 SWAP1 PUSH2 0x1CFB JUMP JUMPDEST SWAP1 POP JUMPDEST JUMPDEST PUSH0 DUP2 DUP6 PUSH2 0xC1A SWAP2 SWAP1 PUSH2 0x1D2B JUMP JUMPDEST SWAP1 POP DUP2 DUP2 PUSH2 0xC28 SWAP2 SWAP1 PUSH2 0x1D5E JUMP JUMPDEST DUP6 EQ PUSH2 0xC60 JUMPI PUSH1 0x40 MLOAD PUSH32 0x1F825C6A00000000000000000000000000000000000000000000000000000000 DUP2 MSTORE PUSH1 0x4 ADD PUSH1 0x40 MLOAD DUP1 SWAP2 SUB SWAP1 REVERT JUMPDEST PUSH0 DUP3 GT ISZERO PUSH2 0xD4A JUMPI PUSH2 0xC73 DUP8 ADDRESS DUP5 PUSH2 0x101B JUMP JUMPDEST PUSH32 0x92C6768BA45DFDC937F94A27A0C5BE8334952F1558BC7DD41B3E8707502E1B6 DUP3 PUSH1 0x40 MLOAD PUSH2 0xCA2 SWAP2 SWAP1 PUSH2 0x16E4 JUMP JUMPDEST PUSH1 0x40 MLOAD DUP1 SWAP2 SUB SWAP1 LOG1 PUSH0 PUSH1 0x64 PUSH1 0x8 SLOAD DUP5 PUSH2 0xCBB SWAP2 SWAP1 PUSH2 0x1C8D JUMP JUMPDEST PUSH2 0xCC5 SWAP2 SWAP1 PUSH2 0x1CFB JUMP JUMPDEST SWAP1 POP PUSH0 PUSH1 0x64 PUSH1 0x9 SLOAD DUP6 PUSH2 0xCD8 SWAP2 SWAP1 PUSH2 0x1C8D JUMP JUMPDEST PUSH2 0xCE2 SWAP2 SWAP1 PUSH2 0x1CFB JUMP JUMPDEST SWAP1 POP PUSH0 DUP2 DUP4 DUP7 PUSH2 0xCF2 SWAP2 SWAP1 PUSH2 0x1D2B JUMP JUMPDEST PUSH2 0xCFC SWAP2 SWAP1 PUSH2 0x1D2B JUMP JUMPDEST SWAP1 POP PUSH2 0xD2A ADDRESS PUSH1 0xC PUSH0 SWAP1 SLOAD SWAP1 PUSH2 0x100 EXP SWAP1 DIV PUSH20 0xFFFFFFFFFFFFFFFFFFFFFFFFFFFFFFFFFFFFFFFF AND DUP6 PUSH2 0x101B JUMP JUMPDEST PUSH2 0xD34 ADDRESS DUP4 PUSH2 0x1255 JUMP JUMPDEST PUSH2 0xD46 ADDRESS PUSH2 0xD40 PUSH2 0x8C7 JUMP JUMPDEST DUP4 PUSH2 0x101B JUMP JUMPDEST POP POP POP JUMPDEST PUSH2 0xD55 DUP8 DUP8 DUP4 PUSH2 0x101B JUMP JUMPDEST POP POP POP POP JUMPDEST POP POP POP JUMP JUMPDEST PUSH2 0xD67 PUSH2 0x110B JUMP JUMPDEST PUSH1 0xA DUP3 GT ISZERO DUP1 ISZERO PUSH2 0xD79 JUMPI POP PUSH1 0x14 DUP2 GT ISZERO JUMPDEST PUSH2 0xDAF JUMPI PUSH1 0x40 MLOAD PUSH32 0xAF1EE13400000000000000000000000000000000000000000000000000000000 DUP2 MSTORE PUSH1 0x4 ADD PUSH1 0x40 MLOAD DUP1 SWAP2 SUB SWAP1 REVERT JUMPDEST DUP2 PUSH1 0x6 DUP2 SWAP1 SSTORE POP DUP1 PUSH1 0x7 DUP2 SWAP1 SSTORE POP POP POP JUMP JUMPDEST PUSH2 0xDC9 PUSH2 0x110B JUMP JUMPDEST DUP1 PUSH1 0xD PUSH0 DUP5 PUSH20 0xFFFFFFFFFFFFFFFFFFFFFFFFFFFFFFFFFFFFFFFF AND PUSH20 0xFFFFFFFFFFFFFFFFFFFFFFFFFFFFFFFFFFFFFFFF AND DUP2 MSTORE PUSH1 0x20 ADD SWAP1 DUP2 MSTORE PUSH1 0x20 ADD PUSH0 KECCAK256 PUSH0 PUSH2 0x100 EXP DUP2 SLOAD DUP2 PUSH1 0xFF MUL NOT AND SWAP1 DUP4 ISZERO ISZERO MUL OR SWAP1 SSTORE POP POP POP JUMP JUMPDEST PUSH1 0xC PUSH0 SWAP1 SLOAD SWAP1 PUSH2 0x100 EXP SWAP1 DIV PUSH20 0xFFFFFFFFFFFFFFFFFFFFFFFFFFFFFFFFFFFFFFFF AND DUP2 JUMP JUMPDEST PUSH1 0xD PUSH1 0x20 MSTORE DUP1 PUSH0 MSTORE PUSH1 0x40 PUSH0 KECCAK256 PUSH0 SWAP2 POP SLOAD SWAP1 PUSH2 0x100 EXP SWAP1 DIV PUSH1 0xFF AND DUP2 JUMP JUMPDEST PUSH1 0x7 SLOAD DUP2 JUMP JUMPDEST PUSH0 PUSH1 0x1 PUSH0 DUP5 PUSH20 0xFFFFFFFFFFFFFFFFFFFFFFFFFFFFFFFFFFFFFFFF AND PUSH20 0xFFFFFFFFFFFFFFFFFFFFFFFFFFFFFFFFFFFFFFFF AND DUP2 MSTORE PUSH1 0x20 ADD SWAP1 DUP2 MSTORE PUSH1 0x20 ADD PUSH0 KECCAK256 PUSH0 DUP4 PUSH20 0xFFFFFFFFFFFFFFFFFFFFFFFFFFFFFFFFFFFFFFFF AND PUSH20 0xFFFFFFFFFFFFFFFFFFFFFFFFFFFFFFFFFFFFFFFF AND DUP2 MSTORE PUSH1 0x20 ADD SWAP1 DUP2 MSTORE PUSH1 0x20 ADD PUSH0 KECCAK256 SLOAD SWAP1 POP SWAP3 SWAP2 POP POP JUMP JUMPDEST PUSH2 0xEF3 PUSH2 0x110B JUMP JUMPDEST PUSH0 PUSH20 0xFFFFFFFFFFFFFFFFFFFFFFFFFFFFFFFFFFFFFFFF AND DUP2 PUSH20 0xFFFFFFFFFFFFFFFFFFFFFFFFFFFFFFFFFFFFFFFF AND SUB PUSH2 0xF63 JUMPI PUSH0 PUSH1 0x40 MLOAD PUSH32 0x1E4FBDF700000000000000000000000000000000000000000000000000000000 DUP2 MSTORE PUSH1 0x4 ADD PUSH2 0xF5A SWAP2 SWAP1 PUSH2 0x19B8 JUMP JUMPDEST PUSH1 0x40 MLOAD DUP1 SWAP2 SUB SWAP1 REVERT JUMPDEST PUSH2 0xF6C DUP2 PUSH2 0x1192 JUMP JUMPDEST POP JUMP JUMPDEST PUSH0 CALLER SWAP1 POP SWAP1 JUMP JUMPDEST PUSH2 0xF83 DUP4 DUP4 DUP4 PUSH1 0x1 PUSH2 0x12D4 JUMP JUMPDEST POP POP POP JUMP JUMPDEST PUSH0 PUSH2 0xF93 DUP5 DUP5 PUSH2 0xE69 JUMP JUMPDEST SWAP1 POP PUSH32 0xFFFFFFFFFFFFFFFFFFFFFFFFFFFFFFFFFFFFFFFFFFFFFFFFFFFFFFFFFFFFFFFF DUP2 LT ISZERO PUSH2 0x1015 JUMPI DUP2 DUP2 LT ISZERO PUSH2 0x1006 JUMPI DUP3 DUP2 DUP4 PUSH1 0x40 MLOAD PUSH32 0xFB8F41B200000000000000000000000000000000000000000000000000000000 DUP2 MSTORE PUSH1 0x4 ADD PUSH2 0xFFD SWAP4 SWAP3 SWAP2 SWAP1 PUSH2 0x1D91 JUMP JUMPDEST PUSH1 0x40 MLOAD DUP1 SWAP2 SUB SWAP1 REVERT JUMPDEST PUSH2 0x1014 DUP5 DUP5 DUP5 DUP5 SUB PUSH0 PUSH2 0x12D4 JUMP JUMPDEST JUMPDEST POP POP POP POP JUMP JUMPDEST PUSH0 PUSH20 0xFFFFFFFFFFFFFFFFFFFFFFFFFFFFFFFFFFFFFFFF AND DUP4 PUSH20 0xFFFFFFFFFFFFFFFFFFFFFFFFFFFFFFFFFFFFFFFF AND SUB PUSH2 0x108B JUMPI PUSH0 PUSH1 0x40 MLOAD PUSH32 0x96C6FD1E00000000000000000000000000000000000000000000000000000000 DUP2 MSTORE PUSH1 0x4 ADD PUSH2 0x1082 SWAP2 SWAP1 PUSH2 0x19B8 JUMP JUMPDEST PUSH1 0x40 MLOAD DUP1 SWAP2 SUB SWAP1 REVERT JUMPDEST PUSH0 PUSH20 0xFFFFFFFFFFFFFFFFFFFFFFFFFFFFFFFFFFFFFFFF AND DUP3 PUSH20 0xFFFFFFFFFFFFFFFFFFFFFFFFFFFFFFFFFFFFFFFF AND SUB PUSH2 0x10FB JUMPI PUSH0 PUSH1 0x40 MLOAD PUSH32 0xEC442F0500000000000000000000000000000000000000000000000000000000 DUP2 MSTORE PUSH1 0x4 ADD PUSH2 0x10F2 SWAP2 SWAP1 PUSH2 0x19B8 JUMP JUMPDEST PUSH1 0x40 MLOAD DUP1 SWAP2 SUB SWAP1 REVERT JUMPDEST PUSH2 0x1106 DUP4 DUP4 DUP4 PUSH2 0x14A3 JUMP JUMPDEST POP POP POP JUMP JUMPDEST PUSH2 0x1113 PUSH2 0xF6F JUMP JUMPDEST PUSH20 0xFFFFFFFFFFFFFFFFFFFFFFFFFFFFFFFFFFFFFFFF AND PUSH2 0x1131 PUSH2 0x8C7 JUMP JUMPDEST PUSH20 0xFFFFFFFFFFFFFFFFFFFFFFFFFFFFFFFFFFFFFFFF AND EQ PUSH2 0x1190 JUMPI PUSH2 0x1154 PUSH2 0xF6F JUMP JUMPDEST PUSH1 0x40 MLOAD PUSH32 0x118CDAA700000000000000000000000000000000000000000000000000000000 DUP2 MSTORE PUSH1 0x4 ADD PUSH2 0x1187 SWAP2 SWAP1 PUSH2 0x19B8 JUMP JUMPDEST PUSH1 0x40 MLOAD DUP1 SWAP2 SUB SWAP1 REVERT JUMPDEST JUMP JUMPDEST PUSH0 PUSH1 0x5 PUSH0 SWAP1 SLOAD SWAP1 PUSH2 0x100 EXP SWAP1 DIV PUSH20 0xFFFFFFFFFFFFFFFFFFFFFFFFFFFFFFFFFFFFFFFF AND SWAP1 POP DUP2 PUSH1 0x5 PUSH0 PUSH2 0x100 EXP DUP2 SLOAD DUP2 PUSH20 0xFFFFFFFFFFFFFFFFFFFFFFFFFFFFFFFFFFFFFFFF MUL NOT AND SWAP1 DUP4 PUSH20 0xFFFFFFFFFFFFFFFFFFFFFFFFFFFFFFFFFFFFFFFF AND MUL OR SWAP1 SSTORE POP DUP2 PUSH20 0xFFFFFFFFFFFFFFFFFFFFFFFFFFFFFFFFFFFFFFFF AND DUP2 PUSH20 0xFFFFFFFFFFFFFFFFFFFFFFFFFFFFFFFFFFFFFFFF AND PUSH32 0x8BE0079C531659141344CD1FD0A4F28419497F9722A3DAAFE3B4186F6B6457E0 PUSH1 0x40 MLOAD PUSH1 0x40 MLOAD DUP1 SWAP2 SUB SWAP1 LOG3 POP POP JUMP JUMPDEST PUSH0 PUSH20 0xFFFFFFFFFFFFFFFFFFFFFFFFFFFFFFFFFFFFFFFF AND DUP3 PUSH20 0xFFFFFFFFFFFFFFFFFFFFFFFFFFFFFFFFFFFFFFFF AND SUB PUSH2 0x12C5 JUMPI PUSH0 PUSH1 0x40 MLOAD PUSH32 0x96C6FD1E00000000000000000000000000000000000000000000000000000000 DUP2 MSTORE PUSH1 0x4 ADD PUSH2 0x12BC SWAP2 SWAP1 PUSH2 0x19B8 JUMP JUMPDEST PUSH1 0x40 MLOAD DUP1 SWAP2 SUB SWAP1 REVERT JUMPDEST PUSH2 0x12D0 DUP3 PUSH0 DUP4 PUSH2 0x14A3 JUMP JUMPDEST POP POP JUMP JUMPDEST PUSH0 PUSH20 0xFFFFFFFFFFFFFFFFFFFFFFFFFFFFFFFFFFFFFFFF AND DUP5 PUSH20 0xFFFFFFFFFFFFFFFFFFFFFFFFFFFFFFFFFFFFFFFF AND SUB PUSH2 0x1344 JUMPI PUSH0 PUSH1 0x40 MLOAD PUSH32 0xE602DF0500000000000000000000000000000000000000000000000000000000 DUP2 MSTORE PUSH1 0x4 ADD PUSH2 0x133B SWAP2 SWAP1 PUSH2 0x19B8 JUMP JUMPDEST PUSH1 0x40 MLOAD DUP1 SWAP2 SUB SWAP1 REVERT JUMPDEST PUSH0 PUSH20 0xFFFFFFFFFFFFFFFFFFFFFFFFFFFFFFFFFFFFFFFF AND DUP4 PUSH20 0xFFFFFFFFFFFFFFFFFFFFFFFFFFFFFFFFFFFFFFFF AND SUB PUSH2 0x13B4 JUMPI PUSH0 PUSH1 0x40 MLOAD PUSH32 0x94280D6200000000000000000000000000000000000000000000000000000000 DUP2 MSTORE PUSH1 0x4 ADD PUSH2 0x13AB SWAP2 SWAP1 PUSH2 0x19B8 JUMP JUMPDEST PUSH1 0x40 MLOAD DUP1 SWAP2 SUB SWAP1 REVERT JUMPDEST DUP2 PUSH1 0x1 PUSH0 DUP7 PUSH20 0xFFFFFFFFFFFFFFFFFFFFFFFFFFFFFFFFFFFFFFFF AND PUSH20 0xFFFFFFFFFFFFFFFFFFFFFFFFFFFFFFFFFFFFFFFF AND DUP2 MSTORE PUSH1 0x20 ADD SWAP1 DUP2 MSTORE PUSH1 0x20 ADD PUSH0 KECCAK256 PUSH0 DUP6 PUSH20 0xFFFFFFFFFFFFFFFFFFFFFFFFFFFFFFFFFFFFFFFF AND PUSH20 0xFFFFFFFFFFFFFFFFFFFFFFFFFFFFFFFFFFFFFFFF AND DUP2 MSTORE PUSH1 0x20 ADD SWAP1 DUP2 MSTORE PUSH1 0x20 ADD PUSH0 KECCAK256 DUP2 SWAP1 SSTORE POP DUP1 ISZERO PUSH2 0x149D JUMPI DUP3 PUSH20 0xFFFFFFFFFFFFFFFFFFFFFFFFFFFFFFFFFFFFFFFF AND DUP5 PUSH20 0xFFFFFFFFFFFFFFFFFFFFFFFFFFFFFFFFFFFFFFFF AND PUSH32 0x8C5BE1E5EBEC7D5BD14F71427D1E84F3DD0314C0F7B2291E5B200AC8C7C3B925 DUP5 PUSH1 0x40 MLOAD PUSH2 0x1494 SWAP2 SWAP1 PUSH2 0x16E4 JUMP JUMPDEST PUSH1 0x40 MLOAD DUP1 SWAP2 SUB SWAP1 LOG3 JUMPDEST POP POP POP POP JUMP JUMPDEST PUSH2 0x14AE DUP4 DUP4 DUP4 PUSH2 0x14B3 JUMP JUMPDEST POP POP POP JUMP JUMPDEST PUSH0 PUSH20 0xFFFFFFFFFFFFFFFFFFFFFFFFFFFFFFFFFFFFFFFF AND DUP4 PUSH20 0xFFFFFFFFFFFFFFFFFFFFFFFFFFFFFFFFFFFFFFFF AND SUB PUSH2 0x1503 JUMPI DUP1 PUSH1 0x2 PUSH0 DUP3 DUP3 SLOAD PUSH2 0x14F7 SWAP2 SWAP1 PUSH2 0x1D5E JUMP JUMPDEST SWAP3 POP POP DUP2 SWAP1 SSTORE POP PUSH2 0x15D1 JUMP JUMPDEST PUSH0 PUSH0 PUSH0 DUP6 PUSH20 0xFFFFFFFFFFFFFFFFFFFFFFFFFFFFFFFFFFFFFFFF AND PUSH20 0xFFFFFFFFFFFFFFFFFFFFFFFFFFFFFFFFFFFFFFFF AND DUP2 MSTORE PUSH1 0x20 ADD SWAP1 DUP2 MSTORE PUSH1 0x20 ADD PUSH0 KECCAK256 SLOAD SWAP1 POP DUP2 DUP2 LT ISZERO PUSH2 0x158C JUMPI DUP4 DUP2 DUP4 PUSH1 0x40 MLOAD PUSH32 0xE450D38C00000000000000000000000000000000000000000000000000000000 DUP2 MSTORE PUSH1 0x4 ADD PUSH2 0x1583 SWAP4 SWAP3 SWAP2 SWAP1 PUSH2 0x1D91 JUMP JUMPDEST PUSH1 0x40 MLOAD DUP1 SWAP2 SUB SWAP1 REVERT JUMPDEST DUP2 DUP2 SUB PUSH0 PUSH0 DUP7 PUSH20 0xFFFFFFFFFFFFFFFFFFFFFFFFFFFFFFFFFFFFFFFF AND PUSH20 0xFFFFFFFFFFFFFFFFFFFFFFFFFFFFFFFFFFFFFFFF AND DUP2 MSTORE PUSH1 0x20 ADD SWAP1 DUP2 MSTORE PUSH1 0x20 ADD PUSH0 KECCAK256 DUP2 SWAP1 SSTORE POP POP JUMPDEST PUSH0 PUSH20 0xFFFFFFFFFFFFFFFFFFFFFFFFFFFFFFFFFFFFFFFF AND DUP3 PUSH20 0xFFFFFFFFFFFFFFFFFFFFFFFFFFFFFFFFFFFFFFFF AND SUB PUSH2 0x1618 JUMPI DUP1 PUSH1 0x2 PUSH0 DUP3 DUP3 SLOAD SUB SWAP3 POP POP DUP2 SWAP1 SSTORE POP PUSH2 0x1662 JUMP JUMPDEST DUP1 PUSH0 PUSH0 DUP5 PUSH20 0xFFFFFFFFFFFFFFFFFFFFFFFFFFFFFFFFFFFFFFFF AND PUSH20 0xFFFFFFFFFFFFFFFFFFFFFFFFFFFFFFFFFFFFFFFF AND DUP2 MSTORE PUSH1 0x20 ADD SWAP1 DUP2 MSTORE PUSH1 0x20 ADD PUSH0 KECCAK256 PUSH0 DUP3 DUP3 SLOAD ADD SWAP3 POP POP DUP2 SWAP1 SSTORE POP JUMPDEST DUP2 PUSH20 0xFFFFFFFFFFFFFFFFFFFFFFFFFFFFFFFFFFFFFFFF AND DUP4 PUSH20 0xFFFFFFFFFFFFFFFFFFFFFFFFFFFFFFFFFFFFFFFF AND PUSH32 0xDDF252AD1BE2C89B69C2B068FC378DAA952BA7F163C4A11628F55A4DF523B3EF DUP4 PUSH1 0x40 MLOAD PUSH2 0x16BF SWAP2 SWAP1 PUSH2 0x16E4 JUMP JUMPDEST PUSH1 0x40 MLOAD DUP1 SWAP2 SUB SWAP1 LOG3 POP POP POP JUMP JUMPDEST PUSH0 DUP2 SWAP1 POP SWAP2 SWAP1 POP JUMP JUMPDEST PUSH2 0x16DE DUP2 PUSH2 0x16CC JUMP JUMPDEST DUP3 MSTORE POP POP JUMP JUMPDEST PUSH0 PUSH1 0x20 DUP3 ADD SWAP1 POP PUSH2 0x16F7 PUSH0 DUP4 ADD DUP5 PUSH2 0x16D5 JUMP JUMPDEST SWAP3 SWAP2 POP POP JUMP JUMPDEST PUSH0 DUP2 MLOAD SWAP1 POP SWAP2 SWAP1 POP JUMP JUMPDEST PUSH0 DUP3 DUP3 MSTORE PUSH1 0x20 DUP3 ADD SWAP1 POP SWAP3 SWAP2 POP POP JUMP JUMPDEST DUP3 DUP2 DUP4 MCOPY PUSH0 DUP4 DUP4 ADD MSTORE POP POP POP JUMP JUMPDEST PUSH0 PUSH1 0x1F NOT PUSH1 0x1F DUP4 ADD AND SWAP1 POP SWAP2 SWAP1 POP JUMP JUMPDEST PUSH0 PUSH2 0x173F DUP3 PUSH2 0x16FD JUMP JUMPDEST PUSH2 0x1749 DUP2 DUP6 PUSH2 0x1707 JUMP JUMPDEST SWAP4 POP PUSH2 0x1759 DUP2 DUP6 PUSH1 0x20 DUP7 ADD PUSH2 0x1717 JUMP JUMPDEST PUSH2 0x1762 DUP2 PUSH2 0x1725 JUMP JUMPDEST DUP5 ADD SWAP2 POP POP SWAP3 SWAP2 POP POP JUMP JUMPDEST PUSH0 PUSH1 0x20 DUP3 ADD SWAP1 POP DUP2 DUP2 SUB PUSH0 DUP4 ADD MSTORE PUSH2 0x1785 DUP2 DUP5 PUSH2 0x1735 JUMP JUMPDEST SWAP1 POP SWAP3 SWAP2 POP POP JUMP JUMPDEST PUSH0 PUSH0 REVERT JUMPDEST PUSH0 PUSH20 0xFFFFFFFFFFFFFFFFFFFFFFFFFFFFFFFFFFFFFFFF DUP3 AND SWAP1 POP SWAP2 SWAP1 POP JUMP JUMPDEST PUSH0 PUSH2 0x17BA DUP3 PUSH2 0x1791 JUMP JUMPDEST SWAP1 POP SWAP2 SWAP1 POP JUMP JUMPDEST PUSH2 0x17CA DUP2 PUSH2 0x17B0 JUMP JUMPDEST DUP2 EQ PUSH2 0x17D4 JUMPI PUSH0 PUSH0 REVERT JUMPDEST POP JUMP JUMPDEST PUSH0 DUP2 CALLDATALOAD SWAP1 POP PUSH2 0x17E5 DUP2 PUSH2 0x17C1 JUMP JUMPDEST SWAP3 SWAP2 POP POP JUMP JUMPDEST PUSH2 0x17F4 DUP2 PUSH2 0x16CC JUMP JUMPDEST DUP2 EQ PUSH2 0x17FE JUMPI PUSH0 PUSH0 REVERT JUMPDEST POP JUMP JUMPDEST PUSH0 DUP2 CALLDATALOAD SWAP1 POP PUSH2 0x180F DUP2 PUSH2 0x17EB JUMP JUMPDEST SWAP3 SWAP2 POP POP JUMP JUMPDEST PUSH0 PUSH0 PUSH1 0x40 DUP4 DUP6 SUB SLT ISZERO PUSH2 0x182B JUMPI PUSH2 0x182A PUSH2 0x178D JUMP JUMPDEST JUMPDEST PUSH0 PUSH2 0x1838 DUP6 DUP3 DUP7 ADD PUSH2 0x17D7 JUMP JUMPDEST SWAP3 POP POP PUSH1 0x20 PUSH2 0x1849 DUP6 DUP3 DUP7 ADD PUSH2 0x1801 JUMP JUMPDEST SWAP2 POP POP SWAP3 POP SWAP3 SWAP1 POP JUMP JUMPDEST PUSH0 DUP2 ISZERO ISZERO SWAP1 POP SWAP2 SWAP1 POP JUMP JUMPDEST PUSH2 0x1867 DUP2 PUSH2 0x1853 JUMP JUMPDEST DUP3 MSTORE POP POP JUMP JUMPDEST PUSH0 PUSH1 0x20 DUP3 ADD SWAP1 POP PUSH2 0x1880 PUSH0 DUP4 ADD DUP5 PUSH2 0x185E JUMP JUMPDEST SWAP3 SWAP2 POP POP JUMP JUMPDEST PUSH0 PUSH0 PUSH0 PUSH1 0x60 DUP5 DUP7 SUB SLT ISZERO PUSH2 0x189D JUMPI PUSH2 0x189C PUSH2 0x178D JUMP JUMPDEST JUMPDEST PUSH0 PUSH2 0x18AA DUP7 DUP3 DUP8 ADD PUSH2 0x17D7 JUMP JUMPDEST SWAP4 POP POP PUSH1 0x20 PUSH2 0x18BB DUP7 DUP3 DUP8 ADD PUSH2 0x17D7 JUMP JUMPDEST SWAP3 POP POP PUSH1 0x40 PUSH2 0x18CC DUP7 DUP3 DUP8 ADD PUSH2 0x1801 JUMP JUMPDEST SWAP2 POP POP SWAP3 POP SWAP3 POP SWAP3 JUMP JUMPDEST PUSH0 DUP2 SWAP1 POP SWAP2 SWAP1 POP JUMP JUMPDEST PUSH0 PUSH2 0x18F9 PUSH2 0x18F4 PUSH2 0x18EF DUP5 PUSH2 0x1791 JUMP JUMPDEST PUSH2 0x18D6 JUMP JUMPDEST PUSH2 0x1791 JUMP JUMPDEST SWAP1 POP SWAP2 SWAP1 POP JUMP JUMPDEST PUSH0 PUSH2 0x190A DUP3 PUSH2 0x18DF JUMP JUMPDEST SWAP1 POP SWAP2 SWAP1 POP JUMP JUMPDEST PUSH0 PUSH2 0x191B DUP3 PUSH2 0x1900 JUMP JUMPDEST SWAP1 POP SWAP2 SWAP1 POP JUMP JUMPDEST PUSH2 0x192B DUP2 PUSH2 0x1911 JUMP JUMPDEST DUP3 MSTORE POP POP JUMP JUMPDEST PUSH0 PUSH1 0x20 DUP3 ADD SWAP1 POP PUSH2 0x1944 PUSH0 DUP4 ADD DUP5 PUSH2 0x1922 JUMP JUMPDEST SWAP3 SWAP2 POP POP JUMP JUMPDEST PUSH0 PUSH1 0x20 DUP3 DUP5 SUB SLT ISZERO PUSH2 0x195F JUMPI PUSH2 0x195E PUSH2 0x178D JUMP JUMPDEST JUMPDEST PUSH0 PUSH2 0x196C DUP5 DUP3 DUP6 ADD PUSH2 0x1801 JUMP JUMPDEST SWAP2 POP POP SWAP3 SWAP2 POP POP JUMP JUMPDEST PUSH0 PUSH1 0xFF DUP3 AND SWAP1 POP SWAP2 SWAP1 POP JUMP JUMPDEST PUSH2 0x198A DUP2 PUSH2 0x1975 JUMP JUMPDEST DUP3 MSTORE POP POP JUMP JUMPDEST PUSH0 PUSH1 0x20 DUP3 ADD SWAP1 POP PUSH2 0x19A3 PUSH0 DUP4 ADD DUP5 PUSH2 0x1981 JUMP JUMPDEST SWAP3 SWAP2 POP POP JUMP JUMPDEST PUSH2 0x19B2 DUP2 PUSH2 0x17B0 JUMP JUMPDEST DUP3 MSTORE POP POP JUMP JUMPDEST PUSH0 PUSH1 0x20 DUP3 ADD SWAP1 POP PUSH2 0x19CB PUSH0 DUP4 ADD DUP5 PUSH2 0x19A9 JUMP JUMPDEST SWAP3 SWAP2 POP POP JUMP JUMPDEST PUSH0 PUSH1 0x20 DUP3 DUP5 SUB SLT ISZERO PUSH2 0x19E6 JUMPI PUSH2 0x19E5 PUSH2 0x178D JUMP JUMPDEST JUMPDEST PUSH0 PUSH2 0x19F3 DUP5 DUP3 DUP6 ADD PUSH2 0x17D7 JUMP JUMPDEST SWAP2 POP POP SWAP3 SWAP2 POP POP JUMP JUMPDEST PUSH0 PUSH0 PUSH1 0x40 DUP4 DUP6 SUB SLT ISZERO PUSH2 0x1A12 JUMPI PUSH2 0x1A11 PUSH2 0x178D JUMP JUMPDEST JUMPDEST PUSH0 PUSH2 0x1A1F DUP6 DUP3 DUP7 ADD PUSH2 0x1801 JUMP JUMPDEST SWAP3 POP POP PUSH1 0x20 PUSH2 0x1A30 DUP6 DUP3 DUP7 ADD PUSH2 0x1801 JUMP JUMPDEST SWAP2 POP POP SWAP3 POP SWAP3 SWAP1 POP JUMP JUMPDEST PUSH2 0x1A43 DUP2 PUSH2 0x1853 JUMP JUMPDEST DUP2 EQ PUSH2 0x1A4D JUMPI PUSH0 PUSH0 REVERT JUMPDEST POP JUMP JUMPDEST PUSH0 DUP2 CALLDATALOAD SWAP1 POP PUSH2 0x1A5E DUP2 PUSH2 0x1A3A JUMP JUMPDEST SWAP3 SWAP2 POP POP JUMP JUMPDEST PUSH0 PUSH0 PUSH1 0x40 DUP4 DUP6 SUB SLT ISZERO PUSH2 0x1A7A JUMPI PUSH2 0x1A79 PUSH2 0x178D JUMP JUMPDEST JUMPDEST PUSH0 PUSH2 0x1A87 DUP6 DUP3 DUP7 ADD PUSH2 0x17D7 JUMP JUMPDEST SWAP3 POP POP PUSH1 0x20 PUSH2 0x1A98 DUP6 DUP3 DUP7 ADD PUSH2 0x1A50 JUMP JUMPDEST SWAP2 POP POP SWAP3 POP SWAP3 SWAP1 POP JUMP JUMPDEST PUSH0 PUSH0 PUSH1 0x40 DUP4 DUP6 SUB SLT ISZERO PUSH2 0x1AB8 JUMPI PUSH2 0x1AB7 PUSH2 0x178D JUMP JUMPDEST JUMPDEST PUSH0 PUSH2 0x1AC5 DUP6 DUP3 DUP7 ADD PUSH2 0x17D7 JUMP JUMPDEST SWAP3 POP POP PUSH1 0x20 PUSH2 0x1AD6 DUP6 DUP3 DUP7 ADD PUSH2 0x17D7 JUMP JUMPDEST SWAP2 POP POP SWAP3 POP SWAP3 SWAP1 POP JUMP JUMPDEST PUSH32 0x4E487B7100000000000000000000000000000000000000000000000000000000 PUSH0 MSTORE PUSH1 0x22 PUSH1 0x4 MSTORE PUSH1 0x24 PUSH0 REVERT JUMPDEST PUSH0 PUSH1 0x2 DUP3 DIV SWAP1 POP PUSH1 0x1 DUP3 AND DUP1 PUSH2 0x1B24 JUMPI PUSH1 0x7F DUP3 AND SWAP2 POP JUMPDEST PUSH1 0x20 DUP3 LT DUP2 SUB PUSH2 0x1B37 JUMPI PUSH2 0x1B36 PUSH2 0x1AE0 JUMP JUMPDEST JUMPDEST POP SWAP2 SWAP1 POP JUMP JUMPDEST PUSH0 DUP2 SWAP1 POP SWAP2 SWAP1 POP JUMP JUMPDEST PUSH0 PUSH2 0x1B60 PUSH2 0x1B5B PUSH2 0x1B56 DUP5 PUSH2 0x1B3D JUMP JUMPDEST PUSH2 0x18D6 JUMP JUMPDEST PUSH2 0x16CC JUMP JUMPDEST SWAP1 POP SWAP2 SWAP1 POP JUMP JUMPDEST PUSH2 0x1B70 DUP2 PUSH2 0x1B46 JUMP JUMPDEST DUP3 MSTORE POP POP JUMP JUMPDEST PUSH0 PUSH1 0xC0 DUP3 ADD SWAP1 POP PUSH2 0x1B89 PUSH0 DUP4 ADD DUP10 PUSH2 0x19A9 JUMP JUMPDEST PUSH2 0x1B96 PUSH1 0x20 DUP4 ADD DUP9 PUSH2 0x16D5 JUMP JUMPDEST PUSH2 0x1BA3 PUSH1 0x40 DUP4 ADD DUP8 PUSH2 0x1B67 JUMP JUMPDEST PUSH2 0x1BB0 PUSH1 0x60 DUP4 ADD DUP7 PUSH2 0x1B67 JUMP JUMPDEST PUSH2 0x1BBD PUSH1 0x80 DUP4 ADD DUP6 PUSH2 0x19A9 JUMP JUMPDEST PUSH2 0x1BCA PUSH1 0xA0 DUP4 ADD DUP5 PUSH2 0x16D5 JUMP JUMPDEST SWAP8 SWAP7 POP POP POP POP POP POP POP JUMP JUMPDEST PUSH0 DUP2 MLOAD SWAP1 POP PUSH2 0x1BE3 DUP2 PUSH2 0x17EB JUMP JUMPDEST SWAP3 SWAP2 POP POP JUMP JUMPDEST PUSH0 PUSH0 PUSH0 PUSH1 0x60 DUP5 DUP7 SUB SLT ISZERO PUSH2 0x1C00 JUMPI PUSH2 0x1BFF PUSH2 0x178D JUMP JUMPDEST JUMPDEST PUSH0 PUSH2 0x1C0D DUP7 DUP3 DUP8 ADD PUSH2 0x1BD5 JUMP JUMPDEST SWAP4 POP POP PUSH1 0x20 PUSH2 0x1C1E DUP7 DUP3 DUP8 ADD PUSH2 0x1BD5 JUMP JUMPDEST SWAP3 POP POP PUSH1 0x40 PUSH2 0x1C2F DUP7 DUP3 DUP8 ADD PUSH2 0x1BD5 JUMP JUMPDEST SWAP2 POP POP SWAP3 POP SWAP3 POP SWAP3 JUMP JUMPDEST PUSH0 PUSH1 0x40 DUP3 ADD SWAP1 POP PUSH2 0x1C4C PUSH0 DUP4 ADD DUP6 PUSH2 0x16D5 JUMP JUMPDEST PUSH2 0x1C59 PUSH1 0x20 DUP4 ADD DUP5 PUSH2 0x16D5 JUMP JUMPDEST SWAP4 SWAP3 POP POP POP JUMP JUMPDEST PUSH32 0x4E487B7100000000000000000000000000000000000000000000000000000000 PUSH0 MSTORE PUSH1 0x11 PUSH1 0x4 MSTORE PUSH1 0x24 PUSH0 REVERT JUMPDEST PUSH0 PUSH2 0x1C97 DUP3 PUSH2 0x16CC JUMP JUMPDEST SWAP2 POP PUSH2 0x1CA2 DUP4 PUSH2 0x16CC JUMP JUMPDEST SWAP3 POP DUP3 DUP3 MUL PUSH2 0x1CB0 DUP2 PUSH2 0x16CC JUMP JUMPDEST SWAP2 POP DUP3 DUP3 DIV DUP5 EQ DUP4 ISZERO OR PUSH2 0x1CC7 JUMPI PUSH2 0x1CC6 PUSH2 0x1C60 JUMP JUMPDEST JUMPDEST POP SWAP3 SWAP2 POP POP JUMP JUMPDEST PUSH32 0x4E487B7100000000000000000000000000000000000000000000000000000000 PUSH0 MSTORE PUSH1 0x12 PUSH1 0x4 MSTORE PUSH1 0x24 PUSH0 REVERT JUMPDEST PUSH0 PUSH2 0x1D05 DUP3 PUSH2 0x16CC JUMP JUMPDEST SWAP2 POP PUSH2 0x1D10 DUP4 PUSH2 0x16CC JUMP JUMPDEST SWAP3 POP DUP3 PUSH2 0x1D20 JUMPI PUSH2 0x1D1F PUSH2 0x1CCE JUMP JUMPDEST JUMPDEST DUP3 DUP3 DIV SWAP1 POP SWAP3 SWAP2 POP POP JUMP JUMPDEST PUSH0 PUSH2 0x1D35 DUP3 PUSH2 0x16CC JUMP JUMPDEST SWAP2 POP PUSH2 0x1D40 DUP4 PUSH2 0x16CC JUMP JUMPDEST SWAP3 POP DUP3 DUP3 SUB SWAP1 POP DUP2 DUP2 GT ISZERO PUSH2 0x1D58 JUMPI PUSH2 0x1D57 PUSH2 0x1C60 JUMP JUMPDEST JUMPDEST SWAP3 SWAP2 POP POP JUMP JUMPDEST PUSH0 PUSH2 0x1D68 DUP3 PUSH2 0x16CC JUMP JUMPDEST SWAP2 POP PUSH2 0x1D73 DUP4 PUSH2 0x16CC JUMP JUMPDEST SWAP3 POP DUP3 DUP3 ADD SWAP1 POP DUP1 DUP3 GT ISZERO PUSH2 0x1D8B JUMPI PUSH2 0x1D8A PUSH2 0x1C60 JUMP JUMPDEST JUMPDEST SWAP3 SWAP2 POP POP JUMP JUMPDEST PUSH0 PUSH1 0x60 DUP3 ADD SWAP1 POP PUSH2 0x1DA4 PUSH0 DUP4 ADD DUP7 PUSH2 0x19A9 JUMP JUMPDEST PUSH2 0x1DB1 PUSH1 0x20 DUP4 ADD DUP6 PUSH2 0x16D5 JUMP JUMPDEST PUSH2 0x1DBE PUSH1 0x40 DUP4 ADD DUP5 PUSH2 0x16D5 JUMP JUMPDEST SWAP5 SWAP4 POP POP POP POP JUMP INVALID LOG2 PUSH5 0x6970667358 0x22 SLT KECCAK256 SWAP11 0xB0 PUSH8 0xF48BB8BA78F4EC9A CALLDATACOPY SSTORE 0xD5 0xD3 JUMP 0xDD 0xB4 CALL PUSH15 0xC80F68484FFB5D65FE12BBB64736F PUSH13 0x634300081C0033000000000000 "
				},
				"gasEstimates": {
					"creation": {
						"codeDepositCost": "1535200",
						"executionCost": "infinite",
						"totalCost": "infinite"
					},
					"external": {
						"DEAD_ADDRESS()": "440",
						"addLiquidity(uint256)": "infinite",
						"allowance(address,address)": "infinite",
						"approve(address,uint256)": "infinite",
						"balanceOf(address)": "2851",
						"burnShare()": "2449",
						"buyTax()": "2514",
						"decimals()": "428",
						"excludeFromTax(address,bool)": "infinite",
						"isExcludedFromTax(address)": "2877",
						"liquidityShare()": "2515",
						"name()": "infinite",
						"owner()": "2582",
						"renounceOwnership()": "infinite",
						"rewardsShare()": "2470",
						"sellTax()": "2491",
						"setTaxes(uint256,uint256)": "infinite",
						"symbol()": "infinite",
						"totalSupply()": "2544",
						"transfer(address,address,uint256)": "infinite",
						"transfer(address,uint256)": "infinite",
						"transferFrom(address,address,uint256)": "infinite",
						"transferOwnership(address)": "infinite",
						"uniswapPair()": "2597",
						"uniswaprouter()": "infinite",
						"withdraw(uint256)": "infinite"
					},
					"internal": {
						"_update(address,address,uint256)": "infinite"
					}
				},
				"methodIdentifiers": {
					"DEAD_ADDRESS()": "4e6fd6c4",
					"addLiquidity(uint256)": "51c6590a",
					"allowance(address,address)": "dd62ed3e",
					"approve(address,uint256)": "095ea7b3",
					"balanceOf(address)": "70a08231",
					"burnShare()": "05bf0a54",
					"buyTax()": "4f7041a5",
					"decimals()": "313ce567",
					"excludeFromTax(address,bool)": "c6a30647",
					"isExcludedFromTax(address)": "cb4ca631",
					"liquidityShare()": "15291cd4",
					"name()": "06fdde03",
					"owner()": "8da5cb5b",
					"renounceOwnership()": "715018a6",
					"rewardsShare()": "33727077",
					"sellTax()": "cc1776d3",
					"setTaxes(uint256,uint256)": "c647b20e",
					"symbol()": "95d89b41",
					"totalSupply()": "18160ddd",
					"transfer(address,address,uint256)": "beabacc8",
					"transfer(address,uint256)": "a9059cbb",
					"transferFrom(address,address,uint256)": "23b872dd",
					"transferOwnership(address)": "f2fde38b",
					"uniswapPair()": "c816841b",
					"uniswaprouter()": "2431ba73",
					"withdraw(uint256)": "2e1a7d4d"
				}
			},
			"storageLayout": {
				"storage": [
					{
						"astId": 766,
						"contract": "contracts/mem.sol:MemCoin",
						"label": "_balances",
						"offset": 0,
						"slot": "0",
						"type": "t_mapping(t_address,t_uint256)"
					},
					{
						"astId": 772,
						"contract": "contracts/mem.sol:MemCoin",
						"label": "_allowances",
						"offset": 0,
						"slot": "1",
						"type": "t_mapping(t_address,t_mapping(t_address,t_uint256))"
					},
					{
						"astId": 774,
						"contract": "contracts/mem.sol:MemCoin",
						"label": "_totalSupply",
						"offset": 0,
						"slot": "2",
						"type": "t_uint256"
					},
					{
						"astId": 776,
						"contract": "contracts/mem.sol:MemCoin",
						"label": "_name",
						"offset": 0,
						"slot": "3",
						"type": "t_string_storage"
					},
					{
						"astId": 778,
						"contract": "contracts/mem.sol:MemCoin",
						"label": "_symbol",
						"offset": 0,
						"slot": "4",
						"type": "t_string_storage"
					},
					{
						"astId": 467,
						"contract": "contracts/mem.sol:MemCoin",
						"label": "_owner",
						"offset": 0,
						"slot": "5",
						"type": "t_address"
					},
					{
						"astId": 1417,
						"contract": "contracts/mem.sol:MemCoin",
						"label": "buyTax",
						"offset": 0,
						"slot": "6",
						"type": "t_uint256"
					},
					{
						"astId": 1420,
						"contract": "contracts/mem.sol:MemCoin",
						"label": "sellTax",
						"offset": 0,
						"slot": "7",
						"type": "t_uint256"
					},
					{
						"astId": 1423,
						"contract": "contracts/mem.sol:MemCoin",
						"label": "liquidityShare",
						"offset": 0,
						"slot": "8",
						"type": "t_uint256"
					},
					{
						"astId": 1426,
						"contract": "contracts/mem.sol:MemCoin",
						"label": "burnShare",
						"offset": 0,
						"slot": "9",
						"type": "t_uint256"
					},
					{
						"astId": 1429,
						"contract": "contracts/mem.sol:MemCoin",
						"label": "rewardsShare",
						"offset": 0,
						"slot": "10",
						"type": "t_uint256"
					},
					{
						"astId": 1432,
						"contract": "contracts/mem.sol:MemCoin",
						"label": "uniswaprouter",
						"offset": 0,
						"slot": "11",
						"type": "t_contract(IUniswapV2Router02)458"
					},
					{
						"astId": 1434,
						"contract": "contracts/mem.sol:MemCoin",
						"label": "uniswapPair",
						"offset": 0,
						"slot": "12",
						"type": "t_address"
					},
					{
						"astId": 1441,
						"contract": "contracts/mem.sol:MemCoin",
						"label": "isExcludedFromTax",
						"offset": 0,
						"slot": "13",
						"type": "t_mapping(t_address,t_bool)"
					}
				],
				"types": {
					"t_address": {
						"encoding": "inplace",
						"label": "address",
						"numberOfBytes": "20"
					},
					"t_bool": {
						"encoding": "inplace",
						"label": "bool",
						"numberOfBytes": "1"
					},
					"t_contract(IUniswapV2Router02)458": {
						"encoding": "inplace",
						"label": "contract IUniswapV2Router02",
						"numberOfBytes": "20"
					},
					"t_mapping(t_address,t_bool)": {
						"encoding": "mapping",
						"key": "t_address",
						"label": "mapping(address => bool)",
						"numberOfBytes": "32",
						"value": "t_bool"
					},
					"t_mapping(t_address,t_mapping(t_address,t_uint256))": {
						"encoding": "mapping",
						"key": "t_address",
						"label": "mapping(address => mapping(address => uint256))",
						"numberOfBytes": "32",
						"value": "t_mapping(t_address,t_uint256)"
					},
					"t_mapping(t_address,t_uint256)": {
						"encoding": "mapping",
						"key": "t_address",
						"label": "mapping(address => uint256)",
						"numberOfBytes": "32",
						"value": "t_uint256"
					},
					"t_string_storage": {
						"encoding": "bytes",
						"label": "string",
						"numberOfBytes": "32"
					},
					"t_uint256": {
						"encoding": "inplace",
						"label": "uint256",
						"numberOfBytes": "32"
					}
				}
			},
			"userdoc": {
				"kind": "user",
				"methods": {},
				"version": 1
			}
		}
	}
}