{
	"smart-contract/contracts/mem.sol": {
		"MemCoin": {
			"abi": [
				{
					"inputs": [
						{
							"internalType": "string",
							"name": "_name",
							"type": "string"
						},
						{
							"internalType": "string",
							"name": "_symbol",
							"type": "string"
						},
						{
							"internalType": "address",
							"name": "routerAddress",
							"type": "address"
						},
						{
							"internalType": "address",
							"name": "owner",
							"type": "address"
						}
					],
					"stateMutability": "nonpayable",
					"type": "constructor"
				},
				{
					"inputs": [],
					"name": "ArithmeticError",
					"type": "error"
				},
				{
					"inputs": [
						{
							"internalType": "address",
							"name": "spender",
							"type": "address"
						},
						{
							"internalType": "uint256",
							"name": "allowance",
							"type": "uint256"
						},
						{
							"internalType": "uint256",
							"name": "needed",
							"type": "uint256"
						}
					],
					"name": "ERC20InsufficientAllowance",
					"type": "error"
				},
				{
					"inputs": [
						{
							"internalType": "address",
							"name": "sender",
							"type": "address"
						},
						{
							"internalType": "uint256",
							"name": "balance",
							"type": "uint256"
						},
						{
							"internalType": "uint256",
							"name": "needed",
							"type": "uint256"
						}
					],
					"name": "ERC20InsufficientBalance",
					"type": "error"
				},
				{
					"inputs": [
						{
							"internalType": "address",
							"name": "approver",
							"type": "address"
						}
					],
					"name": "ERC20InvalidApprover",
					"type": "error"
				},
				{
					"inputs": [
						{
							"internalType": "address",
							"name": "receiver",
							"type": "address"
						}
					],
					"name": "ERC20InvalidReceiver",
					"type": "error"
				},
				{
					"inputs": [
						{
							"internalType": "address",
							"name": "sender",
							"type": "address"
						}
					],
					"name": "ERC20InvalidSender",
					"type": "error"
				},
				{
					"inputs": [
						{
							"internalType": "address",
							"name": "spender",
							"type": "address"
						}
					],
					"name": "ERC20InvalidSpender",
					"type": "error"
				},
				{
					"inputs": [],
					"name": "EnforcedPause",
					"type": "error"
				},
				{
					"inputs": [],
					"name": "ExpectedPause",
					"type": "error"
				},
				{
					"inputs": [],
					"name": "InsufficientFunds",
					"type": "error"
				},
				{
					"inputs": [
						{
							"internalType": "address",
							"name": "owner",
							"type": "address"
						}
					],
					"name": "OwnableInvalidOwner",
					"type": "error"
				},
				{
					"inputs": [
						{
							"internalType": "address",
							"name": "account",
							"type": "address"
						}
					],
					"name": "OwnableUnauthorizedAccount",
					"type": "error"
				},
				{
					"inputs": [],
					"name": "ReentrancyGuardReentrantCall",
					"type": "error"
				},
				{
					"inputs": [],
					"name": "TaxTooHigh",
					"type": "error"
				},
				{
					"inputs": [],
					"name": "TokenAmountMustBePositive",
					"type": "error"
				},
				{
					"inputs": [],
					"name": "TransferFromZero",
					"type": "error"
				},
				{
					"inputs": [],
					"name": "TransferToZero",
					"type": "error"
				},
				{
					"anonymous": false,
					"inputs": [
						{
							"indexed": true,
							"internalType": "address",
							"name": "owner",
							"type": "address"
						},
						{
							"indexed": true,
							"internalType": "address",
							"name": "spender",
							"type": "address"
						},
						{
							"indexed": false,
							"internalType": "uint256",
							"name": "value",
							"type": "uint256"
						}
					],
					"name": "Approval",
					"type": "event"
				},
				{
					"anonymous": false,
					"inputs": [
						{
							"indexed": false,
							"internalType": "uint256",
							"name": "tokens",
							"type": "uint256"
						},
						{
							"indexed": false,
							"internalType": "uint256",
							"name": "eth",
							"type": "uint256"
						}
					],
					"name": "LiquidityAdded",
					"type": "event"
				},
				{
					"anonymous": false,
					"inputs": [
						{
							"indexed": true,
							"internalType": "address",
							"name": "previousOwner",
							"type": "address"
						},
						{
							"indexed": true,
							"internalType": "address",
							"name": "newOwner",
							"type": "address"
						}
					],
					"name": "OwnershipTransferred",
					"type": "event"
				},
				{
					"anonymous": false,
					"inputs": [
						{
							"indexed": false,
							"internalType": "address",
							"name": "account",
							"type": "address"
						}
					],
					"name": "Paused",
					"type": "event"
				},
				{
					"anonymous": false,
					"inputs": [
						{
							"indexed": false,
							"internalType": "uint256",
							"name": "amount",
							"type": "uint256"
						}
					],
					"name": "TaxCollected",
					"type": "event"
				},
				{
					"anonymous": false,
					"inputs": [
						{
							"indexed": true,
							"internalType": "address",
							"name": "to",
							"type": "address"
						},
						{
							"indexed": false,
							"internalType": "uint256",
							"name": "amount",
							"type": "uint256"
						}
					],
					"name": "TokensMinted",
					"type": "event"
				},
				{
					"anonymous": false,
					"inputs": [
						{
							"indexed": true,
							"internalType": "address",
							"name": "from",
							"type": "address"
						},
						{
							"indexed": true,
							"internalType": "address",
							"name": "to",
							"type": "address"
						},
						{
							"indexed": false,
							"internalType": "uint256",
							"name": "value",
							"type": "uint256"
						}
					],
					"name": "Transfer",
					"type": "event"
				},
				{
					"anonymous": false,
					"inputs": [
						{
							"indexed": false,
							"internalType": "address",
							"name": "account",
							"type": "address"
						}
					],
					"name": "Unpaused",
					"type": "event"
				},
				{
					"inputs": [],
					"name": "DEAD_ADDRESS",
					"outputs": [
						{
							"internalType": "address",
							"name": "",
							"type": "address"
						}
					],
					"stateMutability": "view",
					"type": "function"
				},
				{
					"inputs": [
						{
							"internalType": "uint256",
							"name": "tokenAmount",
							"type": "uint256"
						}
					],
					"name": "addLiquidity",
					"outputs": [],
					"stateMutability": "nonpayable",
					"type": "function"
				},
				{
					"inputs": [
						{
							"internalType": "address",
							"name": "owner",
							"type": "address"
						},
						{
							"internalType": "address",
							"name": "spender",
							"type": "address"
						}
					],
					"name": "allowance",
					"outputs": [
						{
							"internalType": "uint256",
							"name": "",
							"type": "uint256"
						}
					],
					"stateMutability": "view",
					"type": "function"
				},
				{
					"inputs": [
						{
							"internalType": "address",
							"name": "spender",
							"type": "address"
						},
						{
							"internalType": "uint256",
							"name": "value",
							"type": "uint256"
						}
					],
					"name": "approve",
					"outputs": [
						{
							"internalType": "bool",
							"name": "",
							"type": "bool"
						}
					],
					"stateMutability": "nonpayable",
					"type": "function"
				},
				{
					"inputs": [
						{
							"internalType": "address",
							"name": "account",
							"type": "address"
						}
					],
					"name": "balanceOf",
					"outputs": [
						{
							"internalType": "uint256",
							"name": "",
							"type": "uint256"
						}
					],
					"stateMutability": "view",
					"type": "function"
				},
				{
					"inputs": [],
					"name": "burnShare",
					"outputs": [
						{
							"internalType": "uint256",
							"name": "",
							"type": "uint256"
						}
					],
					"stateMutability": "view",
					"type": "function"
				},
				{
					"inputs": [],
					"name": "buyTax",
					"outputs": [
						{
							"internalType": "uint256",
							"name": "",
							"type": "uint256"
						}
					],
					"stateMutability": "view",
					"type": "function"
				},
				{
					"inputs": [],
					"name": "decimals",
					"outputs": [
						{
							"internalType": "uint8",
							"name": "",
							"type": "uint8"
						}
					],
					"stateMutability": "view",
					"type": "function"
				},
				{
					"inputs": [
						{
							"internalType": "address",
							"name": "account",
							"type": "address"
						},
						{
							"internalType": "bool",
							"name": "excluded",
							"type": "bool"
						}
					],
					"name": "excludeFromTax",
					"outputs": [],
					"stateMutability": "nonpayable",
					"type": "function"
				},
				{
					"inputs": [
						{
							"internalType": "address",
							"name": "",
							"type": "address"
						}
					],
					"name": "isExcludedFromTax",
					"outputs": [
						{
							"internalType": "bool",
							"name": "",
							"type": "bool"
						}
					],
					"stateMutability": "view",
					"type": "function"
				},
				{
					"inputs": [],
					"name": "liquidityShare",
					"outputs": [
						{
							"internalType": "uint256",
							"name": "",
							"type": "uint256"
						}
					],
					"stateMutability": "view",
					"type": "function"
				},
				{
					"inputs": [
						{
							"internalType": "address",
							"name": "to",
							"type": "address"
						},
						{
							"internalType": "uint256",
							"name": "amount",
							"type": "uint256"
						}
					],
					"name": "mint",
					"outputs": [],
					"stateMutability": "nonpayable",
					"type": "function"
				},
				{
					"inputs": [],
					"name": "name",
					"outputs": [
						{
							"internalType": "string",
							"name": "",
							"type": "string"
						}
					],
					"stateMutability": "view",
					"type": "function"
				},
				{
					"inputs": [],
					"name": "owner",
					"outputs": [
						{
							"internalType": "address",
							"name": "",
							"type": "address"
						}
					],
					"stateMutability": "view",
					"type": "function"
				},
				{
					"inputs": [],
					"name": "pause",
					"outputs": [],
					"stateMutability": "nonpayable",
					"type": "function"
				},
				{
					"inputs": [],
					"name": "paused",
					"outputs": [
						{
							"internalType": "bool",
							"name": "",
							"type": "bool"
						}
					],
					"stateMutability": "view",
					"type": "function"
				},
				{
					"inputs": [],
					"name": "renounceOwnership",
					"outputs": [],
					"stateMutability": "nonpayable",
					"type": "function"
				},
				{
					"inputs": [],
					"name": "rewardsShare",
					"outputs": [
						{
							"internalType": "uint256",
							"name": "",
							"type": "uint256"
						}
					],
					"stateMutability": "view",
					"type": "function"
				},
				{
					"inputs": [],
					"name": "sellTax",
					"outputs": [
						{
							"internalType": "uint256",
							"name": "",
							"type": "uint256"
						}
					],
					"stateMutability": "view",
					"type": "function"
				},
				{
					"inputs": [
						{
							"internalType": "uint256",
							"name": "_buyTax",
							"type": "uint256"
						},
						{
							"internalType": "uint256",
							"name": "_sellTax",
							"type": "uint256"
						}
					],
					"name": "setTaxes",
					"outputs": [],
					"stateMutability": "nonpayable",
					"type": "function"
				},
				{
					"inputs": [],
					"name": "symbol",
					"outputs": [
						{
							"internalType": "string",
							"name": "",
							"type": "string"
						}
					],
					"stateMutability": "view",
					"type": "function"
				},
				{
					"inputs": [],
					"name": "totalSupply",
					"outputs": [
						{
							"internalType": "uint256",
							"name": "",
							"type": "uint256"
						}
					],
					"stateMutability": "view",
					"type": "function"
				},
				{
					"inputs": [
						{
							"internalType": "address",
							"name": "to",
							"type": "address"
						},
						{
							"internalType": "uint256",
							"name": "value",
							"type": "uint256"
						}
					],
					"name": "transfer",
					"outputs": [
						{
							"internalType": "bool",
							"name": "",
							"type": "bool"
						}
					],
					"stateMutability": "nonpayable",
					"type": "function"
				},
				{
					"inputs": [
						{
							"internalType": "address",
							"name": "sender",
							"type": "address"
						},
						{
							"internalType": "address",
							"name": "recipient",
							"type": "address"
						},
						{
							"internalType": "uint256",
							"name": "amount",
							"type": "uint256"
						}
					],
					"name": "transfer",
					"outputs": [],
					"stateMutability": "nonpayable",
					"type": "function"
				},
				{
					"inputs": [
						{
							"internalType": "address",
							"name": "from",
							"type": "address"
						},
						{
							"internalType": "address",
							"name": "to",
							"type": "address"
						},
						{
							"internalType": "uint256",
							"name": "value",
							"type": "uint256"
						}
					],
					"name": "transferFrom",
					"outputs": [
						{
							"internalType": "bool",
							"name": "",
							"type": "bool"
						}
					],
					"stateMutability": "nonpayable",
					"type": "function"
				},
				{
					"inputs": [
						{
							"internalType": "address",
							"name": "newOwner",
							"type": "address"
						}
					],
					"name": "transferOwnership",
					"outputs": [],
					"stateMutability": "nonpayable",
					"type": "function"
				},
				{
					"inputs": [],
					"name": "uniswapPair",
					"outputs": [
						{
							"internalType": "address",
							"name": "",
							"type": "address"
						}
					],
					"stateMutability": "view",
					"type": "function"
				},
				{
					"inputs": [],
					"name": "uniswaprouter",
					"outputs": [
						{
							"internalType": "contract IUniswapV2Router02",
							"name": "",
							"type": "address"
						}
					],
					"stateMutability": "view",
					"type": "function"
				},
				{
					"inputs": [],
					"name": "unpause",
					"outputs": [],
					"stateMutability": "nonpayable",
					"type": "function"
				},
				{
					"inputs": [
						{
							"internalType": "uint256",
							"name": "amount",
							"type": "uint256"
						}
					],
					"name": "withdraw",
					"outputs": [],
					"stateMutability": "nonpayable",
					"type": "function"
				}
			],
			"devdoc": {
				"errors": {
					"ERC20InsufficientAllowance(address,uint256,uint256)": [
						{
							"details": "Indicates a failure with the `spender`’s `allowance`. Used in transfers.",
							"params": {
								"allowance": "Amount of tokens a `spender` is allowed to operate with.",
								"needed": "Minimum amount required to perform a transfer.",
								"spender": "Address that may be allowed to operate on tokens without being their owner."
							}
						}
					],
					"ERC20InsufficientBalance(address,uint256,uint256)": [
						{
							"details": "Indicates an error related to the current `balance` of a `sender`. Used in transfers.",
							"params": {
								"balance": "Current balance for the interacting account.",
								"needed": "Minimum amount required to perform a transfer.",
								"sender": "Address whose tokens are being transferred."
							}
						}
					],
					"ERC20InvalidApprover(address)": [
						{
							"details": "Indicates a failure with the `approver` of a token to be approved. Used in approvals.",
							"params": {
								"approver": "Address initiating an approval operation."
							}
						}
					],
					"ERC20InvalidReceiver(address)": [
						{
							"details": "Indicates a failure with the token `receiver`. Used in transfers.",
							"params": {
								"receiver": "Address to which tokens are being transferred."
							}
						}
					],
					"ERC20InvalidSender(address)": [
						{
							"details": "Indicates a failure with the token `sender`. Used in transfers.",
							"params": {
								"sender": "Address whose tokens are being transferred."
							}
						}
					],
					"ERC20InvalidSpender(address)": [
						{
							"details": "Indicates a failure with the `spender` to be approved. Used in approvals.",
							"params": {
								"spender": "Address that may be allowed to operate on tokens without being their owner."
							}
						}
					],
					"EnforcedPause()": [
						{
							"details": "The operation failed because the contract is paused."
						}
					],
					"ExpectedPause()": [
						{
							"details": "The operation failed because the contract is not paused."
						}
					],
					"OwnableInvalidOwner(address)": [
						{
							"details": "The owner is not a valid owner account. (eg. `address(0)`)"
						}
					],
					"OwnableUnauthorizedAccount(address)": [
						{
							"details": "The caller account is not authorized to perform an operation."
						}
					],
					"ReentrancyGuardReentrantCall()": [
						{
							"details": "Unauthorized reentrant call."
						}
					]
				},
				"events": {
					"Approval(address,address,uint256)": {
						"details": "Emitted when the allowance of a `spender` for an `owner` is set by a call to {approve}. `value` is the new allowance."
					},
					"Paused(address)": {
						"details": "Emitted when the pause is triggered by `account`."
					},
					"Transfer(address,address,uint256)": {
						"details": "Emitted when `value` tokens are moved from one account (`from`) to another (`to`). Note that `value` may be zero."
					},
					"Unpaused(address)": {
						"details": "Emitted when the pause is lifted by `account`."
					}
				},
				"kind": "dev",
				"methods": {
					"allowance(address,address)": {
						"details": "See {IERC20-allowance}."
					},
					"approve(address,uint256)": {
						"details": "See {IERC20-approve}. NOTE: If `value` is the maximum `uint256`, the allowance is not updated on `transferFrom`. This is semantically equivalent to an infinite approval. Requirements: - `spender` cannot be the zero address."
					},
					"balanceOf(address)": {
						"details": "See {IERC20-balanceOf}."
					},
					"decimals()": {
						"details": "Returns the number of decimals used to get its user representation. For example, if `decimals` equals `2`, a balance of `505` tokens should be displayed to a user as `5.05` (`505 / 10 ** 2`). Tokens usually opt for a value of 18, imitating the relationship between Ether and Wei. This is the default value returned by this function, unless it's overridden. NOTE: This information is only used for _display_ purposes: it in no way affects any of the arithmetic of the contract, including {IERC20-balanceOf} and {IERC20-transfer}."
					},
					"name()": {
						"details": "Returns the name of the token."
					},
					"owner()": {
						"details": "Returns the address of the current owner."
					},
					"paused()": {
						"details": "Returns true if the contract is paused, and false otherwise."
					},
					"renounceOwnership()": {
						"details": "Leaves the contract without owner. It will not be possible to call `onlyOwner` functions. Can only be called by the current owner. NOTE: Renouncing ownership will leave the contract without an owner, thereby disabling any functionality that is only available to the owner."
					},
					"symbol()": {
						"details": "Returns the symbol of the token, usually a shorter version of the name."
					},
					"totalSupply()": {
						"details": "See {IERC20-totalSupply}."
					},
					"transfer(address,uint256)": {
						"details": "See {IERC20-transfer}. Requirements: - `to` cannot be the zero address. - the caller must have a balance of at least `value`."
					},
					"transferFrom(address,address,uint256)": {
						"details": "See {IERC20-transferFrom}. Skips emitting an {Approval} event indicating an allowance update. This is not required by the ERC. See {xref-ERC20-_approve-address-address-uint256-bool-}[_approve]. NOTE: Does not update the allowance if the current allowance is the maximum `uint256`. Requirements: - `from` and `to` cannot be the zero address. - `from` must have a balance of at least `value`. - the caller must have allowance for ``from``'s tokens of at least `value`."
					},
					"transferOwnership(address)": {
						"details": "Transfers ownership of the contract to a new account (`newOwner`). Can only be called by the current owner."
					}
				},
				"version": 1
			},
			"evm": {
				"assembly": "    /* \"smart-contract/contracts/mem.sol\":463:4776  contract MemCoin is ERC20, Ownable, ReentrancyGuard, Pausable {... */\n  mstore(0x40, 0x80)\n    /* \"smart-contract/contracts/mem.sol\":745:746  5 */\n  0x05\n    /* \"smart-contract/contracts/mem.sol\":721:746  uint256 public buyTax = 5 */\n  0x08\n  sstore\n    /* \"smart-contract/contracts/mem.sol\":778:780  10 */\n  0x0a\n    /* \"smart-contract/contracts/mem.sol\":753:780  uint256 public sellTax = 10 */\n  0x09\n  sstore\n    /* \"smart-contract/contracts/mem.sol\":819:821  50 */\n  0x32\n    /* \"smart-contract/contracts/mem.sol\":787:821  uint256 public liquidityShare = 50 */\n  0x0a\n  sstore\n    /* \"smart-contract/contracts/mem.sol\":855:857  20 */\n  0x14\n    /* \"smart-contract/contracts/mem.sol\":828:857  uint256 public burnShare = 20 */\n  0x0b\n  sstore\n    /* \"smart-contract/contracts/mem.sol\":894:896  30 */\n  0x1e\n    /* \"smart-contract/contracts/mem.sol\":864:896  uint256 public rewardsShare = 30 */\n  0x0c\n  sstore\n    /* \"smart-contract/contracts/mem.sol\":1292:1745  constructor(... */\n  callvalue\n  dup1\n  iszero\n  tag_1\n  jumpi\n  revert(0x00, 0x00)\ntag_1:\n  pop\n  mload(0x40)\n  sub(codesize, bytecodeSize)\n  dup1\n  bytecodeSize\n  dup4\n  codecopy\n  dup2\n  dup2\n  add\n  0x40\n  mstore\n  dup2\n  add\n  swap1\n  tag_2\n  swap2\n  swap1\n  tag_3\n  jump\t// in\ntag_2:\n    /* \"smart-contract/contracts/mem.sol\":1461:1466  owner */\n  dup1\n    /* \"smart-contract/contracts/mem.sol\":1437:1442  _name */\n  dup5\n    /* \"smart-contract/contracts/mem.sol\":1444:1451  _symbol */\n  dup5\n    /* \"@openzeppelin/contracts/token/ERC20/ERC20.sol\":1675:1680  name_ */\n  dup2\n    /* \"@openzeppelin/contracts/token/ERC20/ERC20.sol\":1667:1672  _name */\n  0x03\n    /* \"@openzeppelin/contracts/token/ERC20/ERC20.sol\":1667:1680  _name = name_ */\n  swap1\n  dup2\n  tag_10\n  swap2\n  swap1\n  tag_11\n  jump\t// in\ntag_10:\n  pop\n    /* \"@openzeppelin/contracts/token/ERC20/ERC20.sol\":1700:1707  symbol_ */\n  dup1\n    /* \"@openzeppelin/contracts/token/ERC20/ERC20.sol\":1690:1697  _symbol */\n  0x04\n    /* \"@openzeppelin/contracts/token/ERC20/ERC20.sol\":1690:1707  _symbol = symbol_ */\n  swap1\n  dup2\n  tag_12\n  swap2\n  swap1\n  tag_11\n  jump\t// in\ntag_12:\n  pop\n    /* \"@openzeppelin/contracts/token/ERC20/ERC20.sol\":1601:1714  constructor(string memory name_, string memory symbol_) {... */\n  pop\n  pop\n    /* \"@openzeppelin/contracts/access/Ownable.sol\":1297:1298  0 */\n  0x00\n    /* \"@openzeppelin/contracts/access/Ownable.sol\":1273:1299  initialOwner == address(0) */\n  0xffffffffffffffffffffffffffffffffffffffff\n  and\n    /* \"@openzeppelin/contracts/access/Ownable.sol\":1273:1285  initialOwner */\n  dup2\n    /* \"@openzeppelin/contracts/access/Ownable.sol\":1273:1299  initialOwner == address(0) */\n  0xffffffffffffffffffffffffffffffffffffffff\n  and\n  sub\n    /* \"@openzeppelin/contracts/access/Ownable.sol\":1269:1364  if (initialOwner == address(0)) {... */\n  tag_14\n  jumpi\n    /* \"@openzeppelin/contracts/access/Ownable.sol\":1350:1351  0 */\n  0x00\n    /* \"@openzeppelin/contracts/access/Ownable.sol\":1322:1353  OwnableInvalidOwner(address(0)) */\n  mload(0x40)\n  0x1e4fbdf700000000000000000000000000000000000000000000000000000000\n  dup2\n  mstore\n  0x04\n  add\n  tag_15\n  swap2\n  swap1\n  tag_16\n  jump\t// in\ntag_15:\n  mload(0x40)\n  dup1\n  swap2\n  sub\n  swap1\n  revert\n    /* \"@openzeppelin/contracts/access/Ownable.sol\":1269:1364  if (initialOwner == address(0)) {... */\ntag_14:\n    /* \"@openzeppelin/contracts/access/Ownable.sol\":1373:1405  _transferOwnership(initialOwner) */\n  tag_17\n    /* \"@openzeppelin/contracts/access/Ownable.sol\":1392:1404  initialOwner */\n  dup2\n    /* \"@openzeppelin/contracts/access/Ownable.sol\":1373:1391  _transferOwnership */\n  shl(0x20, tag_18)\n    /* \"@openzeppelin/contracts/access/Ownable.sol\":1373:1405  _transferOwnership(initialOwner) */\n  0x20\n  shr\n  jump\t// in\ntag_17:\n    /* \"@openzeppelin/contracts/access/Ownable.sol\":1225:1412  constructor(address initialOwner) {... */\n  pop\n    /* \"@openzeppelin/contracts/utils/ReentrancyGuard.sol\":1857:1858  1 */\n  0x01\n    /* \"@openzeppelin/contracts/utils/ReentrancyGuard.sol\":2061:2068  _status */\n  0x06\n    /* \"@openzeppelin/contracts/utils/ReentrancyGuard.sol\":2061:2082  _status = NOT_ENTERED */\n  dup2\n  swap1\n  sstore\n  pop\n    /* \"@openzeppelin/contracts/utils/Pausable.sol\":1241:1246  false */\n  0x00\n    /* \"@openzeppelin/contracts/utils/Pausable.sol\":1231:1238  _paused */\n  0x07\n  0x00\n    /* \"@openzeppelin/contracts/utils/Pausable.sol\":1231:1246  _paused = false */\n  0x0100\n  exp\n  dup2\n  sload\n  dup2\n  0xff\n  mul\n  not\n  and\n  swap1\n  dup4\n  iszero\n  iszero\n  mul\n  or\n  swap1\n  sstore\n  pop\n    /* \"smart-contract/contracts/mem.sol\":1514:1527  routerAddress */\n  dup2\n    /* \"smart-contract/contracts/mem.sol\":1479:1492  uniswaprouter */\n  0x0d\n  0x00\n    /* \"smart-contract/contracts/mem.sol\":1479:1528  uniswaprouter = IUniswapV2Router02(routerAddress) */\n  0x0100\n  exp\n  dup2\n  sload\n  dup2\n  0xffffffffffffffffffffffffffffffffffffffff\n  mul\n  not\n  and\n  swap1\n  dup4\n  0xffffffffffffffffffffffffffffffffffffffff\n  and\n  mul\n  or\n  swap1\n  sstore\n  pop\n    /* \"smart-contract/contracts/mem.sol\":1571:1584  uniswaprouter */\n  0x0d\n  0x00\n  swap1\n  sload\n  swap1\n  0x0100\n  exp\n  swap1\n  div\n  0xffffffffffffffffffffffffffffffffffffffff\n  and\n    /* \"smart-contract/contracts/mem.sol\":1571:1592  uniswaprouter.factory */\n  0xffffffffffffffffffffffffffffffffffffffff\n  and\n  0xc45a0155\n    /* \"smart-contract/contracts/mem.sol\":1571:1594  uniswaprouter.factory() */\n  mload(0x40)\n  dup2\n  0xffffffff\n  and\n  0xe0\n  shl\n  dup2\n  mstore\n  0x04\n  add\n  0x20\n  mload(0x40)\n  dup1\n  dup4\n  sub\n  dup2\n  dup7\n  gas\n  staticcall\n  iszero\n  dup1\n  iszero\n  tag_23\n  jumpi\n  returndatacopy(0x00, 0x00, returndatasize)\n  revert(0x00, returndatasize)\ntag_23:\n  pop\n  pop\n  pop\n  pop\n  mload(0x40)\n  returndatasize\n  not(0x1f)\n  0x1f\n  dup3\n  add\n  and\n  dup3\n  add\n  dup1\n  0x40\n  mstore\n  pop\n  dup2\n  add\n  swap1\n  tag_24\n  swap2\n  swap1\n  tag_25\n  jump\t// in\ntag_24:\n    /* \"smart-contract/contracts/mem.sol\":1553:1606  IUniswapV2Factory(uniswaprouter.factory()).createPair */\n  0xffffffffffffffffffffffffffffffffffffffff\n  and\n  0xc9c65396\n    /* \"smart-contract/contracts/mem.sol\":1615:1619  this */\n  address\n    /* \"smart-contract/contracts/mem.sol\":1622:1635  uniswaprouter */\n  0x0d\n  0x00\n  swap1\n  sload\n  swap1\n  0x0100\n  exp\n  swap1\n  div\n  0xffffffffffffffffffffffffffffffffffffffff\n  and\n    /* \"smart-contract/contracts/mem.sol\":1622:1640  uniswaprouter.WETH */\n  0xffffffffffffffffffffffffffffffffffffffff\n  and\n  0xad5c4648\n    /* \"smart-contract/contracts/mem.sol\":1622:1642  uniswaprouter.WETH() */\n  mload(0x40)\n  dup2\n  0xffffffff\n  and\n  0xe0\n  shl\n  dup2\n  mstore\n  0x04\n  add\n  0x20\n  mload(0x40)\n  dup1\n  dup4\n  sub\n  dup2\n  dup7\n  gas\n  staticcall\n  iszero\n  dup1\n  iszero\n  tag_27\n  jumpi\n  returndatacopy(0x00, 0x00, returndatasize)\n  revert(0x00, returndatasize)\ntag_27:\n  pop\n  pop\n  pop\n  pop\n  mload(0x40)\n  returndatasize\n  not(0x1f)\n  0x1f\n  dup3\n  add\n  and\n  dup3\n  add\n  dup1\n  0x40\n  mstore\n  pop\n  dup2\n  add\n  swap1\n  tag_28\n  swap2\n  swap1\n  tag_25\n  jump\t// in\ntag_28:\n    /* \"smart-contract/contracts/mem.sol\":1553:1643  IUniswapV2Factory(uniswaprouter.factory()).createPair(address(this), uniswaprouter.WETH()) */\n  mload(0x40)\n  dup4\n  0xffffffff\n  and\n  0xe0\n  shl\n  dup2\n  mstore\n  0x04\n  add\n  tag_29\n  swap3\n  swap2\n  swap1\n  tag_30\n  jump\t// in\ntag_29:\n  0x20\n  mload(0x40)\n  dup1\n  dup4\n  sub\n  dup2\n  0x00\n  dup8\n  gas\n  call\n  iszero\n  dup1\n  iszero\n  tag_32\n  jumpi\n  returndatacopy(0x00, 0x00, returndatasize)\n  revert(0x00, returndatasize)\ntag_32:\n  pop\n  pop\n  pop\n  pop\n  mload(0x40)\n  returndatasize\n  not(0x1f)\n  0x1f\n  dup3\n  add\n  and\n  dup3\n  add\n  dup1\n  0x40\n  mstore\n  pop\n  dup2\n  add\n  swap1\n  tag_33\n  swap2\n  swap1\n  tag_25\n  jump\t// in\ntag_33:\n    /* \"smart-contract/contracts/mem.sol\":1539:1550  uniswapPair */\n  0x0e\n  0x00\n    /* \"smart-contract/contracts/mem.sol\":1539:1643  uniswapPair = IUniswapV2Factory(uniswaprouter.factory()).createPair(address(this), uniswaprouter.WETH()) */\n  0x0100\n  exp\n  dup2\n  sload\n  dup2\n  0xffffffffffffffffffffffffffffffffffffffff\n  mul\n  not\n  and\n  swap1\n  dup4\n  0xffffffffffffffffffffffffffffffffffffffff\n  and\n  mul\n  or\n  swap1\n  sstore\n  pop\n    /* \"smart-contract/contracts/mem.sol\":1683:1687  true */\n  0x01\n    /* \"smart-contract/contracts/mem.sol\":1656:1673  isExcludedFromTax */\n  0x0f\n    /* \"smart-contract/contracts/mem.sol\":1656:1680  isExcludedFromTax[owner] */\n  0x00\n    /* \"smart-contract/contracts/mem.sol\":1674:1679  owner */\n  dup4\n    /* \"smart-contract/contracts/mem.sol\":1656:1680  isExcludedFromTax[owner] */\n  0xffffffffffffffffffffffffffffffffffffffff\n  and\n  0xffffffffffffffffffffffffffffffffffffffff\n  and\n  dup2\n  mstore\n  0x20\n  add\n  swap1\n  dup2\n  mstore\n  0x20\n  add\n  0x00\n  keccak256\n  0x00\n    /* \"smart-contract/contracts/mem.sol\":1656:1687  isExcludedFromTax[owner] = true */\n  0x0100\n  exp\n  dup2\n  sload\n  dup2\n  0xff\n  mul\n  not\n  and\n  swap1\n  dup4\n  iszero\n  iszero\n  mul\n  or\n  swap1\n  sstore\n  pop\n    /* \"smart-contract/contracts/mem.sol\":1733:1737  true */\n  0x01\n    /* \"smart-contract/contracts/mem.sol\":1698:1715  isExcludedFromTax */\n  0x0f\n    /* \"smart-contract/contracts/mem.sol\":1698:1730  isExcludedFromTax[address(this)] */\n  0x00\n    /* \"smart-contract/contracts/mem.sol\":1724:1728  this */\n  address\n    /* \"smart-contract/contracts/mem.sol\":1698:1730  isExcludedFromTax[address(this)] */\n  0xffffffffffffffffffffffffffffffffffffffff\n  and\n  0xffffffffffffffffffffffffffffffffffffffff\n  and\n  dup2\n  mstore\n  0x20\n  add\n  swap1\n  dup2\n  mstore\n  0x20\n  add\n  0x00\n  keccak256\n  0x00\n    /* \"smart-contract/contracts/mem.sol\":1698:1737  isExcludedFromTax[address(this)] = true */\n  0x0100\n  exp\n  dup2\n  sload\n  dup2\n  0xff\n  mul\n  not\n  and\n  swap1\n  dup4\n  iszero\n  iszero\n  mul\n  or\n  swap1\n  sstore\n  pop\n    /* \"smart-contract/contracts/mem.sol\":1292:1745  constructor(... */\n  pop\n  pop\n  pop\n  pop\n    /* \"smart-contract/contracts/mem.sol\":463:4776  contract MemCoin is ERC20, Ownable, ReentrancyGuard, Pausable {... */\n  jump(tag_34)\n    /* \"@openzeppelin/contracts/access/Ownable.sol\":2912:3099  function _transferOwnership(address newOwner) internal virtual {... */\ntag_18:\n    /* \"@openzeppelin/contracts/access/Ownable.sol\":2985:3001  address oldOwner */\n  0x00\n    /* \"@openzeppelin/contracts/access/Ownable.sol\":3004:3010  _owner */\n  0x05\n  0x00\n  swap1\n  sload\n  swap1\n  0x0100\n  exp\n  swap1\n  div\n  0xffffffffffffffffffffffffffffffffffffffff\n  and\n    /* \"@openzeppelin/contracts/access/Ownable.sol\":2985:3010  address oldOwner = _owner */\n  swap1\n  pop\n    /* \"@openzeppelin/contracts/access/Ownable.sol\":3029:3037  newOwner */\n  dup2\n    /* \"@openzeppelin/contracts/access/Ownable.sol\":3020:3026  _owner */\n  0x05\n  0x00\n    /* \"@openzeppelin/contracts/access/Ownable.sol\":3020:3037  _owner = newOwner */\n  0x0100\n  exp\n  dup2\n  sload\n  dup2\n  0xffffffffffffffffffffffffffffffffffffffff\n  mul\n  not\n  and\n  swap1\n  dup4\n  0xffffffffffffffffffffffffffffffffffffffff\n  and\n  mul\n  or\n  swap1\n  sstore\n  pop\n    /* \"@openzeppelin/contracts/access/Ownable.sol\":3083:3091  newOwner */\n  dup2\n    /* \"@openzeppelin/contracts/access/Ownable.sol\":3052:3092  OwnershipTransferred(oldOwner, newOwner) */\n  0xffffffffffffffffffffffffffffffffffffffff\n  and\n    /* \"@openzeppelin/contracts/access/Ownable.sol\":3073:3081  oldOwner */\n  dup2\n    /* \"@openzeppelin/contracts/access/Ownable.sol\":3052:3092  OwnershipTransferred(oldOwner, newOwner) */\n  0xffffffffffffffffffffffffffffffffffffffff\n  and\n  0x8be0079c531659141344cd1fd0a4f28419497f9722a3daafe3b4186f6b6457e0\n  mload(0x40)\n  mload(0x40)\n  dup1\n  swap2\n  sub\n  swap1\n  log3\n    /* \"@openzeppelin/contracts/access/Ownable.sol\":2975:3099  {... */\n  pop\n    /* \"@openzeppelin/contracts/access/Ownable.sol\":2912:3099  function _transferOwnership(address newOwner) internal virtual {... */\n  pop\n  jump\t// out\n    /* \"#utility.yul\":7:82   */\ntag_36:\n    /* \"#utility.yul\":40:46   */\n  0x00\n    /* \"#utility.yul\":73:75   */\n  0x40\n    /* \"#utility.yul\":67:76   */\n  mload\n    /* \"#utility.yul\":57:76   */\n  swap1\n  pop\n    /* \"#utility.yul\":7:82   */\n  swap1\n  jump\t// out\n    /* \"#utility.yul\":88:205   */\ntag_37:\n    /* \"#utility.yul\":197:198   */\n  0x00\n    /* \"#utility.yul\":194:195   */\n  0x00\n    /* \"#utility.yul\":187:199   */\n  revert\n    /* \"#utility.yul\":211:328   */\ntag_38:\n    /* \"#utility.yul\":320:321   */\n  0x00\n    /* \"#utility.yul\":317:318   */\n  0x00\n    /* \"#utility.yul\":310:322   */\n  revert\n    /* \"#utility.yul\":334:451   */\ntag_39:\n    /* \"#utility.yul\":443:444   */\n  0x00\n    /* \"#utility.yul\":440:441   */\n  0x00\n    /* \"#utility.yul\":433:445   */\n  revert\n    /* \"#utility.yul\":457:574   */\ntag_40:\n    /* \"#utility.yul\":566:567   */\n  0x00\n    /* \"#utility.yul\":563:564   */\n  0x00\n    /* \"#utility.yul\":556:568   */\n  revert\n    /* \"#utility.yul\":580:682   */\ntag_41:\n    /* \"#utility.yul\":621:627   */\n  0x00\n    /* \"#utility.yul\":672:674   */\n  0x1f\n    /* \"#utility.yul\":668:675   */\n  not\n    /* \"#utility.yul\":663:665   */\n  0x1f\n    /* \"#utility.yul\":656:661   */\n  dup4\n    /* \"#utility.yul\":652:666   */\n  add\n    /* \"#utility.yul\":648:676   */\n  and\n    /* \"#utility.yul\":638:676   */\n  swap1\n  pop\n    /* \"#utility.yul\":580:682   */\n  swap2\n  swap1\n  pop\n  jump\t// out\n    /* \"#utility.yul\":688:868   */\ntag_42:\n    /* \"#utility.yul\":736:813   */\n  0x4e487b7100000000000000000000000000000000000000000000000000000000\n    /* \"#utility.yul\":733:734   */\n  0x00\n    /* \"#utility.yul\":726:814   */\n  mstore\n    /* \"#utility.yul\":833:837   */\n  0x41\n    /* \"#utility.yul\":830:831   */\n  0x04\n    /* \"#utility.yul\":823:838   */\n  mstore\n    /* \"#utility.yul\":857:861   */\n  0x24\n    /* \"#utility.yul\":854:855   */\n  0x00\n    /* \"#utility.yul\":847:862   */\n  revert\n    /* \"#utility.yul\":874:1155   */\ntag_43:\n    /* \"#utility.yul\":957:984   */\n  tag_82\n    /* \"#utility.yul\":979:983   */\n  dup3\n    /* \"#utility.yul\":957:984   */\n  tag_41\n  jump\t// in\ntag_82:\n    /* \"#utility.yul\":949:955   */\n  dup2\n    /* \"#utility.yul\":945:985   */\n  add\n    /* \"#utility.yul\":1087:1093   */\n  dup2\n    /* \"#utility.yul\":1075:1085   */\n  dup2\n    /* \"#utility.yul\":1072:1094   */\n  lt\n    /* \"#utility.yul\":1051:1069   */\n  0xffffffffffffffff\n    /* \"#utility.yul\":1039:1049   */\n  dup3\n    /* \"#utility.yul\":1036:1070   */\n  gt\n    /* \"#utility.yul\":1033:1095   */\n  or\n    /* \"#utility.yul\":1030:1118   */\n  iszero\n  tag_83\n  jumpi\n    /* \"#utility.yul\":1098:1116   */\n  tag_84\n  tag_42\n  jump\t// in\ntag_84:\n    /* \"#utility.yul\":1030:1118   */\ntag_83:\n    /* \"#utility.yul\":1138:1148   */\n  dup1\n    /* \"#utility.yul\":1134:1136   */\n  0x40\n    /* \"#utility.yul\":1127:1149   */\n  mstore\n    /* \"#utility.yul\":917:1155   */\n  pop\n    /* \"#utility.yul\":874:1155   */\n  pop\n  pop\n  jump\t// out\n    /* \"#utility.yul\":1161:1290   */\ntag_44:\n    /* \"#utility.yul\":1195:1201   */\n  0x00\n    /* \"#utility.yul\":1222:1242   */\n  tag_86\n  tag_36\n  jump\t// in\ntag_86:\n    /* \"#utility.yul\":1212:1242   */\n  swap1\n  pop\n    /* \"#utility.yul\":1251:1284   */\n  tag_87\n    /* \"#utility.yul\":1279:1283   */\n  dup3\n    /* \"#utility.yul\":1271:1277   */\n  dup3\n    /* \"#utility.yul\":1251:1284   */\n  tag_43\n  jump\t// in\ntag_87:\n    /* \"#utility.yul\":1161:1290   */\n  swap2\n  swap1\n  pop\n  jump\t// out\n    /* \"#utility.yul\":1296:1604   */\ntag_45:\n    /* \"#utility.yul\":1358:1362   */\n  0x00\n    /* \"#utility.yul\":1448:1466   */\n  0xffffffffffffffff\n    /* \"#utility.yul\":1440:1446   */\n  dup3\n    /* \"#utility.yul\":1437:1467   */\n  gt\n    /* \"#utility.yul\":1434:1490   */\n  iszero\n  tag_89\n  jumpi\n    /* \"#utility.yul\":1470:1488   */\n  tag_90\n  tag_42\n  jump\t// in\ntag_90:\n    /* \"#utility.yul\":1434:1490   */\ntag_89:\n    /* \"#utility.yul\":1508:1537   */\n  tag_91\n    /* \"#utility.yul\":1530:1536   */\n  dup3\n    /* \"#utility.yul\":1508:1537   */\n  tag_41\n  jump\t// in\ntag_91:\n    /* \"#utility.yul\":1500:1537   */\n  swap1\n  pop\n    /* \"#utility.yul\":1592:1596   */\n  0x20\n    /* \"#utility.yul\":1586:1590   */\n  dup2\n    /* \"#utility.yul\":1582:1597   */\n  add\n    /* \"#utility.yul\":1574:1597   */\n  swap1\n  pop\n    /* \"#utility.yul\":1296:1604   */\n  swap2\n  swap1\n  pop\n  jump\t// out\n    /* \"#utility.yul\":1610:1749   */\ntag_46:\n    /* \"#utility.yul\":1699:1705   */\n  dup3\n    /* \"#utility.yul\":1694:1697   */\n  dup2\n    /* \"#utility.yul\":1689:1692   */\n  dup4\n    /* \"#utility.yul\":1683:1706   */\n  mcopy\n    /* \"#utility.yul\":1740:1741   */\n  0x00\n    /* \"#utility.yul\":1731:1737   */\n  dup4\n    /* \"#utility.yul\":1726:1729   */\n  dup4\n    /* \"#utility.yul\":1722:1738   */\n  add\n    /* \"#utility.yul\":1715:1742   */\n  mstore\n    /* \"#utility.yul\":1610:1749   */\n  pop\n  pop\n  pop\n  jump\t// out\n    /* \"#utility.yul\":1755:2189   */\ntag_47:\n    /* \"#utility.yul\":1844:1849   */\n  0x00\n    /* \"#utility.yul\":1869:1935   */\n  tag_94\n    /* \"#utility.yul\":1885:1934   */\n  tag_95\n    /* \"#utility.yul\":1927:1933   */\n  dup5\n    /* \"#utility.yul\":1885:1934   */\n  tag_45\n  jump\t// in\ntag_95:\n    /* \"#utility.yul\":1869:1935   */\n  tag_44\n  jump\t// in\ntag_94:\n    /* \"#utility.yul\":1860:1935   */\n  swap1\n  pop\n    /* \"#utility.yul\":1958:1964   */\n  dup3\n    /* \"#utility.yul\":1951:1956   */\n  dup2\n    /* \"#utility.yul\":1944:1965   */\n  mstore\n    /* \"#utility.yul\":1996:2000   */\n  0x20\n    /* \"#utility.yul\":1989:1994   */\n  dup2\n    /* \"#utility.yul\":1985:2001   */\n  add\n    /* \"#utility.yul\":2034:2037   */\n  dup5\n    /* \"#utility.yul\":2025:2031   */\n  dup5\n    /* \"#utility.yul\":2020:2023   */\n  dup5\n    /* \"#utility.yul\":2016:2032   */\n  add\n    /* \"#utility.yul\":2013:2038   */\n  gt\n    /* \"#utility.yul\":2010:2122   */\n  iszero\n  tag_96\n  jumpi\n    /* \"#utility.yul\":2041:2120   */\n  tag_97\n  tag_40\n  jump\t// in\ntag_97:\n    /* \"#utility.yul\":2010:2122   */\ntag_96:\n    /* \"#utility.yul\":2131:2183   */\n  tag_98\n    /* \"#utility.yul\":2176:2182   */\n  dup5\n    /* \"#utility.yul\":2171:2174   */\n  dup3\n    /* \"#utility.yul\":2166:2169   */\n  dup6\n    /* \"#utility.yul\":2131:2183   */\n  tag_46\n  jump\t// in\ntag_98:\n    /* \"#utility.yul\":1850:2189   */\n  pop\n    /* \"#utility.yul\":1755:2189   */\n  swap4\n  swap3\n  pop\n  pop\n  pop\n  jump\t// out\n    /* \"#utility.yul\":2209:2564   */\ntag_48:\n    /* \"#utility.yul\":2276:2281   */\n  0x00\n    /* \"#utility.yul\":2325:2328   */\n  dup3\n    /* \"#utility.yul\":2318:2322   */\n  0x1f\n    /* \"#utility.yul\":2310:2316   */\n  dup4\n    /* \"#utility.yul\":2306:2323   */\n  add\n    /* \"#utility.yul\":2302:2329   */\n  slt\n    /* \"#utility.yul\":2292:2414   */\n  tag_100\n  jumpi\n    /* \"#utility.yul\":2333:2412   */\n  tag_101\n  tag_39\n  jump\t// in\ntag_101:\n    /* \"#utility.yul\":2292:2414   */\ntag_100:\n    /* \"#utility.yul\":2443:2449   */\n  dup2\n    /* \"#utility.yul\":2437:2450   */\n  mload\n    /* \"#utility.yul\":2468:2558   */\n  tag_102\n    /* \"#utility.yul\":2554:2557   */\n  dup5\n    /* \"#utility.yul\":2546:2552   */\n  dup3\n    /* \"#utility.yul\":2539:2543   */\n  0x20\n    /* \"#utility.yul\":2531:2537   */\n  dup7\n    /* \"#utility.yul\":2527:2544   */\n  add\n    /* \"#utility.yul\":2468:2558   */\n  tag_47\n  jump\t// in\ntag_102:\n    /* \"#utility.yul\":2459:2558   */\n  swap2\n  pop\n    /* \"#utility.yul\":2282:2564   */\n  pop\n    /* \"#utility.yul\":2209:2564   */\n  swap3\n  swap2\n  pop\n  pop\n  jump\t// out\n    /* \"#utility.yul\":2570:2696   */\ntag_49:\n    /* \"#utility.yul\":2607:2614   */\n  0x00\n    /* \"#utility.yul\":2647:2689   */\n  0xffffffffffffffffffffffffffffffffffffffff\n    /* \"#utility.yul\":2640:2645   */\n  dup3\n    /* \"#utility.yul\":2636:2690   */\n  and\n    /* \"#utility.yul\":2625:2690   */\n  swap1\n  pop\n    /* \"#utility.yul\":2570:2696   */\n  swap2\n  swap1\n  pop\n  jump\t// out\n    /* \"#utility.yul\":2702:2798   */\ntag_50:\n    /* \"#utility.yul\":2739:2746   */\n  0x00\n    /* \"#utility.yul\":2768:2792   */\n  tag_105\n    /* \"#utility.yul\":2786:2791   */\n  dup3\n    /* \"#utility.yul\":2768:2792   */\n  tag_49\n  jump\t// in\ntag_105:\n    /* \"#utility.yul\":2757:2792   */\n  swap1\n  pop\n    /* \"#utility.yul\":2702:2798   */\n  swap2\n  swap1\n  pop\n  jump\t// out\n    /* \"#utility.yul\":2804:2926   */\ntag_51:\n    /* \"#utility.yul\":2877:2901   */\n  tag_107\n    /* \"#utility.yul\":2895:2900   */\n  dup2\n    /* \"#utility.yul\":2877:2901   */\n  tag_50\n  jump\t// in\ntag_107:\n    /* \"#utility.yul\":2870:2875   */\n  dup2\n    /* \"#utility.yul\":2867:2902   */\n  eq\n    /* \"#utility.yul\":2857:2920   */\n  tag_108\n  jumpi\n    /* \"#utility.yul\":2916:2917   */\n  0x00\n    /* \"#utility.yul\":2913:2914   */\n  0x00\n    /* \"#utility.yul\":2906:2918   */\n  revert\n    /* \"#utility.yul\":2857:2920   */\ntag_108:\n    /* \"#utility.yul\":2804:2926   */\n  pop\n  jump\t// out\n    /* \"#utility.yul\":2932:3075   */\ntag_52:\n    /* \"#utility.yul\":2989:2994   */\n  0x00\n    /* \"#utility.yul\":3020:3026   */\n  dup2\n    /* \"#utility.yul\":3014:3027   */\n  mload\n    /* \"#utility.yul\":3005:3027   */\n  swap1\n  pop\n    /* \"#utility.yul\":3036:3069   */\n  tag_110\n    /* \"#utility.yul\":3063:3068   */\n  dup2\n    /* \"#utility.yul\":3036:3069   */\n  tag_51\n  jump\t// in\ntag_110:\n    /* \"#utility.yul\":2932:3075   */\n  swap3\n  swap2\n  pop\n  pop\n  jump\t// out\n    /* \"#utility.yul\":3081:4247   */\ntag_3:\n    /* \"#utility.yul\":3198:3204   */\n  0x00\n    /* \"#utility.yul\":3206:3212   */\n  0x00\n    /* \"#utility.yul\":3214:3220   */\n  0x00\n    /* \"#utility.yul\":3222:3228   */\n  0x00\n    /* \"#utility.yul\":3271:3274   */\n  0x80\n    /* \"#utility.yul\":3259:3268   */\n  dup6\n    /* \"#utility.yul\":3250:3257   */\n  dup8\n    /* \"#utility.yul\":3246:3269   */\n  sub\n    /* \"#utility.yul\":3242:3275   */\n  slt\n    /* \"#utility.yul\":3239:3359   */\n  iszero\n  tag_112\n  jumpi\n    /* \"#utility.yul\":3278:3357   */\n  tag_113\n  tag_37\n  jump\t// in\ntag_113:\n    /* \"#utility.yul\":3239:3359   */\ntag_112:\n    /* \"#utility.yul\":3419:3420   */\n  0x00\n    /* \"#utility.yul\":3408:3417   */\n  dup6\n    /* \"#utility.yul\":3404:3421   */\n  add\n    /* \"#utility.yul\":3398:3422   */\n  mload\n    /* \"#utility.yul\":3449:3467   */\n  0xffffffffffffffff\n    /* \"#utility.yul\":3441:3447   */\n  dup2\n    /* \"#utility.yul\":3438:3468   */\n  gt\n    /* \"#utility.yul\":3435:3552   */\n  iszero\n  tag_114\n  jumpi\n    /* \"#utility.yul\":3471:3550   */\n  tag_115\n  tag_38\n  jump\t// in\ntag_115:\n    /* \"#utility.yul\":3435:3552   */\ntag_114:\n    /* \"#utility.yul\":3576:3650   */\n  tag_116\n    /* \"#utility.yul\":3642:3649   */\n  dup8\n    /* \"#utility.yul\":3633:3639   */\n  dup3\n    /* \"#utility.yul\":3622:3631   */\n  dup9\n    /* \"#utility.yul\":3618:3640   */\n  add\n    /* \"#utility.yul\":3576:3650   */\n  tag_48\n  jump\t// in\ntag_116:\n    /* \"#utility.yul\":3566:3650   */\n  swap5\n  pop\n    /* \"#utility.yul\":3369:3660   */\n  pop\n    /* \"#utility.yul\":3720:3722   */\n  0x20\n    /* \"#utility.yul\":3709:3718   */\n  dup6\n    /* \"#utility.yul\":3705:3723   */\n  add\n    /* \"#utility.yul\":3699:3724   */\n  mload\n    /* \"#utility.yul\":3751:3769   */\n  0xffffffffffffffff\n    /* \"#utility.yul\":3743:3749   */\n  dup2\n    /* \"#utility.yul\":3740:3770   */\n  gt\n    /* \"#utility.yul\":3737:3854   */\n  iszero\n  tag_117\n  jumpi\n    /* \"#utility.yul\":3773:3852   */\n  tag_118\n  tag_38\n  jump\t// in\ntag_118:\n    /* \"#utility.yul\":3737:3854   */\ntag_117:\n    /* \"#utility.yul\":3878:3952   */\n  tag_119\n    /* \"#utility.yul\":3944:3951   */\n  dup8\n    /* \"#utility.yul\":3935:3941   */\n  dup3\n    /* \"#utility.yul\":3924:3933   */\n  dup9\n    /* \"#utility.yul\":3920:3942   */\n  add\n    /* \"#utility.yul\":3878:3952   */\n  tag_48\n  jump\t// in\ntag_119:\n    /* \"#utility.yul\":3868:3952   */\n  swap4\n  pop\n    /* \"#utility.yul\":3670:3962   */\n  pop\n    /* \"#utility.yul\":4001:4003   */\n  0x40\n    /* \"#utility.yul\":4027:4091   */\n  tag_120\n    /* \"#utility.yul\":4083:4090   */\n  dup8\n    /* \"#utility.yul\":4074:4080   */\n  dup3\n    /* \"#utility.yul\":4063:4072   */\n  dup9\n    /* \"#utility.yul\":4059:4081   */\n  add\n    /* \"#utility.yul\":4027:4091   */\n  tag_52\n  jump\t// in\ntag_120:\n    /* \"#utility.yul\":4017:4091   */\n  swap3\n  pop\n    /* \"#utility.yul\":3972:4101   */\n  pop\n    /* \"#utility.yul\":4140:4142   */\n  0x60\n    /* \"#utility.yul\":4166:4230   */\n  tag_121\n    /* \"#utility.yul\":4222:4229   */\n  dup8\n    /* \"#utility.yul\":4213:4219   */\n  dup3\n    /* \"#utility.yul\":4202:4211   */\n  dup9\n    /* \"#utility.yul\":4198:4220   */\n  add\n    /* \"#utility.yul\":4166:4230   */\n  tag_52\n  jump\t// in\ntag_121:\n    /* \"#utility.yul\":4156:4230   */\n  swap2\n  pop\n    /* \"#utility.yul\":4111:4240   */\n  pop\n    /* \"#utility.yul\":3081:4247   */\n  swap3\n  swap6\n  swap2\n  swap5\n  pop\n  swap3\n  pop\n  jump\t// out\n    /* \"#utility.yul\":4253:4352   */\ntag_53:\n    /* \"#utility.yul\":4305:4311   */\n  0x00\n    /* \"#utility.yul\":4339:4344   */\n  dup2\n    /* \"#utility.yul\":4333:4345   */\n  mload\n    /* \"#utility.yul\":4323:4345   */\n  swap1\n  pop\n    /* \"#utility.yul\":4253:4352   */\n  swap2\n  swap1\n  pop\n  jump\t// out\n    /* \"#utility.yul\":4358:4538   */\ntag_54:\n    /* \"#utility.yul\":4406:4483   */\n  0x4e487b7100000000000000000000000000000000000000000000000000000000\n    /* \"#utility.yul\":4403:4404   */\n  0x00\n    /* \"#utility.yul\":4396:4484   */\n  mstore\n    /* \"#utility.yul\":4503:4507   */\n  0x22\n    /* \"#utility.yul\":4500:4501   */\n  0x04\n    /* \"#utility.yul\":4493:4508   */\n  mstore\n    /* \"#utility.yul\":4527:4531   */\n  0x24\n    /* \"#utility.yul\":4524:4525   */\n  0x00\n    /* \"#utility.yul\":4517:4532   */\n  revert\n    /* \"#utility.yul\":4544:4864   */\ntag_55:\n    /* \"#utility.yul\":4588:4594   */\n  0x00\n    /* \"#utility.yul\":4625:4626   */\n  0x02\n    /* \"#utility.yul\":4619:4623   */\n  dup3\n    /* \"#utility.yul\":4615:4627   */\n  div\n    /* \"#utility.yul\":4605:4627   */\n  swap1\n  pop\n    /* \"#utility.yul\":4672:4673   */\n  0x01\n    /* \"#utility.yul\":4666:4670   */\n  dup3\n    /* \"#utility.yul\":4662:4674   */\n  and\n    /* \"#utility.yul\":4693:4711   */\n  dup1\n    /* \"#utility.yul\":4683:4764   */\n  tag_125\n  jumpi\n    /* \"#utility.yul\":4749:4753   */\n  0x7f\n    /* \"#utility.yul\":4741:4747   */\n  dup3\n    /* \"#utility.yul\":4737:4754   */\n  and\n    /* \"#utility.yul\":4727:4754   */\n  swap2\n  pop\n    /* \"#utility.yul\":4683:4764   */\ntag_125:\n    /* \"#utility.yul\":4811:4813   */\n  0x20\n    /* \"#utility.yul\":4803:4809   */\n  dup3\n    /* \"#utility.yul\":4800:4814   */\n  lt\n    /* \"#utility.yul\":4780:4798   */\n  dup2\n    /* \"#utility.yul\":4777:4815   */\n  sub\n    /* \"#utility.yul\":4774:4858   */\n  tag_126\n  jumpi\n    /* \"#utility.yul\":4830:4848   */\n  tag_127\n  tag_54\n  jump\t// in\ntag_127:\n    /* \"#utility.yul\":4774:4858   */\ntag_126:\n    /* \"#utility.yul\":4595:4864   */\n  pop\n    /* \"#utility.yul\":4544:4864   */\n  swap2\n  swap1\n  pop\n  jump\t// out\n    /* \"#utility.yul\":4870:5011   */\ntag_56:\n    /* \"#utility.yul\":4919:4923   */\n  0x00\n    /* \"#utility.yul\":4942:4945   */\n  dup2\n    /* \"#utility.yul\":4934:4945   */\n  swap1\n  pop\n    /* \"#utility.yul\":4965:4968   */\n  dup2\n    /* \"#utility.yul\":4962:4963   */\n  0x00\n    /* \"#utility.yul\":4955:4969   */\n  mstore\n    /* \"#utility.yul\":4999:5003   */\n  0x20\n    /* \"#utility.yul\":4996:4997   */\n  0x00\n    /* \"#utility.yul\":4986:5004   */\n  keccak256\n    /* \"#utility.yul\":4978:5004   */\n  swap1\n  pop\n    /* \"#utility.yul\":4870:5011   */\n  swap2\n  swap1\n  pop\n  jump\t// out\n    /* \"#utility.yul\":5017:5110   */\ntag_57:\n    /* \"#utility.yul\":5054:5060   */\n  0x00\n    /* \"#utility.yul\":5101:5103   */\n  0x20\n    /* \"#utility.yul\":5096:5098   */\n  0x1f\n    /* \"#utility.yul\":5089:5094   */\n  dup4\n    /* \"#utility.yul\":5085:5099   */\n  add\n    /* \"#utility.yul\":5081:5104   */\n  div\n    /* \"#utility.yul\":5071:5104   */\n  swap1\n  pop\n    /* \"#utility.yul\":5017:5110   */\n  swap2\n  swap1\n  pop\n  jump\t// out\n    /* \"#utility.yul\":5116:5223   */\ntag_58:\n    /* \"#utility.yul\":5160:5168   */\n  0x00\n    /* \"#utility.yul\":5210:5215   */\n  dup3\n    /* \"#utility.yul\":5204:5208   */\n  dup3\n    /* \"#utility.yul\":5200:5216   */\n  shl\n    /* \"#utility.yul\":5179:5216   */\n  swap1\n  pop\n    /* \"#utility.yul\":5116:5223   */\n  swap3\n  swap2\n  pop\n  pop\n  jump\t// out\n    /* \"#utility.yul\":5229:5622   */\ntag_59:\n    /* \"#utility.yul\":5298:5304   */\n  0x00\n    /* \"#utility.yul\":5348:5349   */\n  0x08\n    /* \"#utility.yul\":5336:5346   */\n  dup4\n    /* \"#utility.yul\":5332:5350   */\n  mul\n    /* \"#utility.yul\":5371:5468   */\n  tag_132\n    /* \"#utility.yul\":5401:5467   */\n  0xffffffffffffffffffffffffffffffffffffffffffffffffffffffffffffffff\n    /* \"#utility.yul\":5390:5399   */\n  dup3\n    /* \"#utility.yul\":5371:5468   */\n  tag_58\n  jump\t// in\ntag_132:\n    /* \"#utility.yul\":5489:5528   */\n  tag_133\n    /* \"#utility.yul\":5519:5527   */\n  dup7\n    /* \"#utility.yul\":5508:5517   */\n  dup4\n    /* \"#utility.yul\":5489:5528   */\n  tag_58\n  jump\t// in\ntag_133:\n    /* \"#utility.yul\":5477:5528   */\n  swap6\n  pop\n    /* \"#utility.yul\":5561:5565   */\n  dup1\n    /* \"#utility.yul\":5557:5566   */\n  not\n    /* \"#utility.yul\":5550:5555   */\n  dup5\n    /* \"#utility.yul\":5546:5567   */\n  and\n    /* \"#utility.yul\":5537:5567   */\n  swap4\n  pop\n    /* \"#utility.yul\":5610:5614   */\n  dup1\n    /* \"#utility.yul\":5600:5608   */\n  dup7\n    /* \"#utility.yul\":5596:5615   */\n  and\n    /* \"#utility.yul\":5589:5594   */\n  dup5\n    /* \"#utility.yul\":5586:5616   */\n  or\n    /* \"#utility.yul\":5576:5616   */\n  swap3\n  pop\n    /* \"#utility.yul\":5305:5622   */\n  pop\n  pop\n    /* \"#utility.yul\":5229:5622   */\n  swap4\n  swap3\n  pop\n  pop\n  pop\n  jump\t// out\n    /* \"#utility.yul\":5628:5705   */\ntag_60:\n    /* \"#utility.yul\":5665:5672   */\n  0x00\n    /* \"#utility.yul\":5694:5699   */\n  dup2\n    /* \"#utility.yul\":5683:5699   */\n  swap1\n  pop\n    /* \"#utility.yul\":5628:5705   */\n  swap2\n  swap1\n  pop\n  jump\t// out\n    /* \"#utility.yul\":5711:5771   */\ntag_61:\n    /* \"#utility.yul\":5739:5742   */\n  0x00\n    /* \"#utility.yul\":5760:5765   */\n  dup2\n    /* \"#utility.yul\":5753:5765   */\n  swap1\n  pop\n    /* \"#utility.yul\":5711:5771   */\n  swap2\n  swap1\n  pop\n  jump\t// out\n    /* \"#utility.yul\":5777:5919   */\ntag_62:\n    /* \"#utility.yul\":5827:5836   */\n  0x00\n    /* \"#utility.yul\":5860:5913   */\n  tag_137\n    /* \"#utility.yul\":5878:5912   */\n  tag_138\n    /* \"#utility.yul\":5887:5911   */\n  tag_139\n    /* \"#utility.yul\":5905:5910   */\n  dup5\n    /* \"#utility.yul\":5887:5911   */\n  tag_60\n  jump\t// in\ntag_139:\n    /* \"#utility.yul\":5878:5912   */\n  tag_61\n  jump\t// in\ntag_138:\n    /* \"#utility.yul\":5860:5913   */\n  tag_60\n  jump\t// in\ntag_137:\n    /* \"#utility.yul\":5847:5913   */\n  swap1\n  pop\n    /* \"#utility.yul\":5777:5919   */\n  swap2\n  swap1\n  pop\n  jump\t// out\n    /* \"#utility.yul\":5925:6000   */\ntag_63:\n    /* \"#utility.yul\":5968:5971   */\n  0x00\n    /* \"#utility.yul\":5989:5994   */\n  dup2\n    /* \"#utility.yul\":5982:5994   */\n  swap1\n  pop\n    /* \"#utility.yul\":5925:6000   */\n  swap2\n  swap1\n  pop\n  jump\t// out\n    /* \"#utility.yul\":6006:6275   */\ntag_64:\n    /* \"#utility.yul\":6116:6155   */\n  tag_142\n    /* \"#utility.yul\":6147:6154   */\n  dup4\n    /* \"#utility.yul\":6116:6155   */\n  tag_62\n  jump\t// in\ntag_142:\n    /* \"#utility.yul\":6177:6268   */\n  tag_143\n    /* \"#utility.yul\":6226:6267   */\n  tag_144\n    /* \"#utility.yul\":6250:6266   */\n  dup3\n    /* \"#utility.yul\":6226:6267   */\n  tag_63\n  jump\t// in\ntag_144:\n    /* \"#utility.yul\":6218:6224   */\n  dup5\n    /* \"#utility.yul\":6211:6215   */\n  dup5\n    /* \"#utility.yul\":6205:6216   */\n  sload\n    /* \"#utility.yul\":6177:6268   */\n  tag_59\n  jump\t// in\ntag_143:\n    /* \"#utility.yul\":6171:6175   */\n  dup3\n    /* \"#utility.yul\":6164:6269   */\n  sstore\n    /* \"#utility.yul\":6082:6275   */\n  pop\n    /* \"#utility.yul\":6006:6275   */\n  pop\n  pop\n  pop\n  jump\t// out\n    /* \"#utility.yul\":6281:6354   */\ntag_65:\n    /* \"#utility.yul\":6326:6329   */\n  0x00\n    /* \"#utility.yul\":6347:6348   */\n  0x00\n    /* \"#utility.yul\":6340:6348   */\n  swap1\n  pop\n    /* \"#utility.yul\":6281:6354   */\n  swap1\n  jump\t// out\n    /* \"#utility.yul\":6360:6549   */\ntag_66:\n    /* \"#utility.yul\":6437:6469   */\n  tag_147\n  tag_65\n  jump\t// in\ntag_147:\n    /* \"#utility.yul\":6478:6543   */\n  tag_148\n    /* \"#utility.yul\":6536:6542   */\n  dup2\n    /* \"#utility.yul\":6528:6534   */\n  dup5\n    /* \"#utility.yul\":6522:6526   */\n  dup5\n    /* \"#utility.yul\":6478:6543   */\n  tag_64\n  jump\t// in\ntag_148:\n    /* \"#utility.yul\":6413:6549   */\n  pop\n    /* \"#utility.yul\":6360:6549   */\n  pop\n  pop\n  jump\t// out\n    /* \"#utility.yul\":6555:6741   */\ntag_67:\n    /* \"#utility.yul\":6615:6735   */\ntag_150:\n    /* \"#utility.yul\":6632:6635   */\n  dup2\n    /* \"#utility.yul\":6625:6630   */\n  dup2\n    /* \"#utility.yul\":6622:6636   */\n  lt\n    /* \"#utility.yul\":6615:6735   */\n  iszero\n  tag_152\n  jumpi\n    /* \"#utility.yul\":6686:6725   */\n  tag_153\n    /* \"#utility.yul\":6723:6724   */\n  0x00\n    /* \"#utility.yul\":6716:6721   */\n  dup3\n    /* \"#utility.yul\":6686:6725   */\n  tag_66\n  jump\t// in\ntag_153:\n    /* \"#utility.yul\":6659:6660   */\n  0x01\n    /* \"#utility.yul\":6652:6657   */\n  dup2\n    /* \"#utility.yul\":6648:6661   */\n  add\n    /* \"#utility.yul\":6639:6661   */\n  swap1\n  pop\n    /* \"#utility.yul\":6615:6735   */\n  jump(tag_150)\ntag_152:\n    /* \"#utility.yul\":6555:6741   */\n  pop\n  pop\n  jump\t// out\n    /* \"#utility.yul\":6747:7290   */\ntag_68:\n    /* \"#utility.yul\":6848:6850   */\n  0x1f\n    /* \"#utility.yul\":6843:6846   */\n  dup3\n    /* \"#utility.yul\":6840:6851   */\n  gt\n    /* \"#utility.yul\":6837:7283   */\n  iszero\n  tag_155\n  jumpi\n    /* \"#utility.yul\":6882:6920   */\n  tag_156\n    /* \"#utility.yul\":6914:6919   */\n  dup2\n    /* \"#utility.yul\":6882:6920   */\n  tag_56\n  jump\t// in\ntag_156:\n    /* \"#utility.yul\":6966:6995   */\n  tag_157\n    /* \"#utility.yul\":6984:6994   */\n  dup5\n    /* \"#utility.yul\":6966:6995   */\n  tag_57\n  jump\t// in\ntag_157:\n    /* \"#utility.yul\":6956:6964   */\n  dup2\n    /* \"#utility.yul\":6952:6996   */\n  add\n    /* \"#utility.yul\":7149:7151   */\n  0x20\n    /* \"#utility.yul\":7137:7147   */\n  dup6\n    /* \"#utility.yul\":7134:7152   */\n  lt\n    /* \"#utility.yul\":7131:7180   */\n  iszero\n  tag_158\n  jumpi\n    /* \"#utility.yul\":7170:7178   */\n  dup2\n    /* \"#utility.yul\":7155:7178   */\n  swap1\n  pop\n    /* \"#utility.yul\":7131:7180   */\ntag_158:\n    /* \"#utility.yul\":7193:7273   */\n  tag_159\n    /* \"#utility.yul\":7249:7271   */\n  tag_160\n    /* \"#utility.yul\":7267:7270   */\n  dup6\n    /* \"#utility.yul\":7249:7271   */\n  tag_57\n  jump\t// in\ntag_160:\n    /* \"#utility.yul\":7239:7247   */\n  dup4\n    /* \"#utility.yul\":7235:7272   */\n  add\n    /* \"#utility.yul\":7222:7233   */\n  dup3\n    /* \"#utility.yul\":7193:7273   */\n  tag_67\n  jump\t// in\ntag_159:\n    /* \"#utility.yul\":6852:7283   */\n  pop\n  pop\n    /* \"#utility.yul\":6837:7283   */\ntag_155:\n    /* \"#utility.yul\":6747:7290   */\n  pop\n  pop\n  pop\n  jump\t// out\n    /* \"#utility.yul\":7296:7413   */\ntag_69:\n    /* \"#utility.yul\":7350:7358   */\n  0x00\n    /* \"#utility.yul\":7400:7405   */\n  dup3\n    /* \"#utility.yul\":7394:7398   */\n  dup3\n    /* \"#utility.yul\":7390:7406   */\n  shr\n    /* \"#utility.yul\":7369:7406   */\n  swap1\n  pop\n    /* \"#utility.yul\":7296:7413   */\n  swap3\n  swap2\n  pop\n  pop\n  jump\t// out\n    /* \"#utility.yul\":7419:7588   */\ntag_70:\n    /* \"#utility.yul\":7463:7469   */\n  0x00\n    /* \"#utility.yul\":7496:7547   */\n  tag_163\n    /* \"#utility.yul\":7544:7545   */\n  0x00\n    /* \"#utility.yul\":7540:7546   */\n  not\n    /* \"#utility.yul\":7532:7537   */\n  dup5\n    /* \"#utility.yul\":7529:7530   */\n  0x08\n    /* \"#utility.yul\":7525:7538   */\n  mul\n    /* \"#utility.yul\":7496:7547   */\n  tag_69\n  jump\t// in\ntag_163:\n    /* \"#utility.yul\":7492:7548   */\n  not\n    /* \"#utility.yul\":7577:7581   */\n  dup1\n    /* \"#utility.yul\":7571:7575   */\n  dup4\n    /* \"#utility.yul\":7567:7582   */\n  and\n    /* \"#utility.yul\":7557:7582   */\n  swap2\n  pop\n    /* \"#utility.yul\":7470:7588   */\n  pop\n    /* \"#utility.yul\":7419:7588   */\n  swap3\n  swap2\n  pop\n  pop\n  jump\t// out\n    /* \"#utility.yul\":7593:7888   */\ntag_71:\n    /* \"#utility.yul\":7669:7673   */\n  0x00\n    /* \"#utility.yul\":7815:7844   */\n  tag_165\n    /* \"#utility.yul\":7840:7843   */\n  dup4\n    /* \"#utility.yul\":7834:7838   */\n  dup4\n    /* \"#utility.yul\":7815:7844   */\n  tag_70\n  jump\t// in\ntag_165:\n    /* \"#utility.yul\":7807:7844   */\n  swap2\n  pop\n    /* \"#utility.yul\":7877:7880   */\n  dup3\n    /* \"#utility.yul\":7874:7875   */\n  0x02\n    /* \"#utility.yul\":7870:7881   */\n  mul\n    /* \"#utility.yul\":7864:7868   */\n  dup3\n    /* \"#utility.yul\":7861:7882   */\n  or\n    /* \"#utility.yul\":7853:7882   */\n  swap1\n  pop\n    /* \"#utility.yul\":7593:7888   */\n  swap3\n  swap2\n  pop\n  pop\n  jump\t// out\n    /* \"#utility.yul\":7893:9288   */\ntag_11:\n    /* \"#utility.yul\":8010:8047   */\n  tag_167\n    /* \"#utility.yul\":8043:8046   */\n  dup3\n    /* \"#utility.yul\":8010:8047   */\n  tag_53\n  jump\t// in\ntag_167:\n    /* \"#utility.yul\":8112:8130   */\n  0xffffffffffffffff\n    /* \"#utility.yul\":8104:8110   */\n  dup2\n    /* \"#utility.yul\":8101:8131   */\n  gt\n    /* \"#utility.yul\":8098:8154   */\n  iszero\n  tag_168\n  jumpi\n    /* \"#utility.yul\":8134:8152   */\n  tag_169\n  tag_42\n  jump\t// in\ntag_169:\n    /* \"#utility.yul\":8098:8154   */\ntag_168:\n    /* \"#utility.yul\":8178:8216   */\n  tag_170\n    /* \"#utility.yul\":8210:8214   */\n  dup3\n    /* \"#utility.yul\":8204:8215   */\n  sload\n    /* \"#utility.yul\":8178:8216   */\n  tag_55\n  jump\t// in\ntag_170:\n    /* \"#utility.yul\":8263:8330   */\n  tag_171\n    /* \"#utility.yul\":8323:8329   */\n  dup3\n    /* \"#utility.yul\":8315:8321   */\n  dup3\n    /* \"#utility.yul\":8309:8313   */\n  dup6\n    /* \"#utility.yul\":8263:8330   */\n  tag_68\n  jump\t// in\ntag_171:\n    /* \"#utility.yul\":8357:8358   */\n  0x00\n    /* \"#utility.yul\":8381:8385   */\n  0x20\n    /* \"#utility.yul\":8368:8385   */\n  swap1\n  pop\n    /* \"#utility.yul\":8413:8415   */\n  0x1f\n    /* \"#utility.yul\":8405:8411   */\n  dup4\n    /* \"#utility.yul\":8402:8416   */\n  gt\n    /* \"#utility.yul\":8430:8431   */\n  0x01\n    /* \"#utility.yul\":8425:9043   */\n  dup2\n  eq\n  tag_173\n  jumpi\n    /* \"#utility.yul\":9087:9088   */\n  0x00\n    /* \"#utility.yul\":9104:9110   */\n  dup5\n    /* \"#utility.yul\":9101:9178   */\n  iszero\n  tag_174\n  jumpi\n    /* \"#utility.yul\":9153:9162   */\n  dup3\n    /* \"#utility.yul\":9148:9151   */\n  dup8\n    /* \"#utility.yul\":9144:9163   */\n  add\n    /* \"#utility.yul\":9138:9164   */\n  mload\n    /* \"#utility.yul\":9129:9164   */\n  swap1\n  pop\n    /* \"#utility.yul\":9101:9178   */\ntag_174:\n    /* \"#utility.yul\":9204:9271   */\n  tag_175\n    /* \"#utility.yul\":9264:9270   */\n  dup6\n    /* \"#utility.yul\":9257:9262   */\n  dup3\n    /* \"#utility.yul\":9204:9271   */\n  tag_71\n  jump\t// in\ntag_175:\n    /* \"#utility.yul\":9198:9202   */\n  dup7\n    /* \"#utility.yul\":9191:9272   */\n  sstore\n    /* \"#utility.yul\":9060:9282   */\n  pop\n    /* \"#utility.yul\":8395:9282   */\n  jump(tag_172)\n    /* \"#utility.yul\":8425:9043   */\ntag_173:\n    /* \"#utility.yul\":8477:8481   */\n  0x1f\n    /* \"#utility.yul\":8473:8482   */\n  not\n    /* \"#utility.yul\":8465:8471   */\n  dup5\n    /* \"#utility.yul\":8461:8483   */\n  and\n    /* \"#utility.yul\":8511:8548   */\n  tag_176\n    /* \"#utility.yul\":8543:8547   */\n  dup7\n    /* \"#utility.yul\":8511:8548   */\n  tag_56\n  jump\t// in\ntag_176:\n    /* \"#utility.yul\":8570:8571   */\n  0x00\n    /* \"#utility.yul\":8584:8792   */\ntag_177:\n    /* \"#utility.yul\":8598:8605   */\n  dup3\n    /* \"#utility.yul\":8595:8596   */\n  dup2\n    /* \"#utility.yul\":8592:8606   */\n  lt\n    /* \"#utility.yul\":8584:8792   */\n  iszero\n  tag_179\n  jumpi\n    /* \"#utility.yul\":8677:8686   */\n  dup5\n    /* \"#utility.yul\":8672:8675   */\n  dup10\n    /* \"#utility.yul\":8668:8687   */\n  add\n    /* \"#utility.yul\":8662:8688   */\n  mload\n    /* \"#utility.yul\":8654:8660   */\n  dup3\n    /* \"#utility.yul\":8647:8689   */\n  sstore\n    /* \"#utility.yul\":8728:8729   */\n  0x01\n    /* \"#utility.yul\":8720:8726   */\n  dup3\n    /* \"#utility.yul\":8716:8730   */\n  add\n    /* \"#utility.yul\":8706:8730   */\n  swap2\n  pop\n    /* \"#utility.yul\":8775:8777   */\n  0x20\n    /* \"#utility.yul\":8764:8773   */\n  dup6\n    /* \"#utility.yul\":8760:8778   */\n  add\n    /* \"#utility.yul\":8747:8778   */\n  swap5\n  pop\n    /* \"#utility.yul\":8621:8625   */\n  0x20\n    /* \"#utility.yul\":8618:8619   */\n  dup2\n    /* \"#utility.yul\":8614:8626   */\n  add\n    /* \"#utility.yul\":8609:8626   */\n  swap1\n  pop\n    /* \"#utility.yul\":8584:8792   */\n  jump(tag_177)\ntag_179:\n    /* \"#utility.yul\":8820:8826   */\n  dup7\n    /* \"#utility.yul\":8811:8818   */\n  dup4\n    /* \"#utility.yul\":8808:8827   */\n  lt\n    /* \"#utility.yul\":8805:8984   */\n  iszero\n  tag_180\n  jumpi\n    /* \"#utility.yul\":8878:8887   */\n  dup5\n    /* \"#utility.yul\":8873:8876   */\n  dup10\n    /* \"#utility.yul\":8869:8888   */\n  add\n    /* \"#utility.yul\":8863:8889   */\n  mload\n    /* \"#utility.yul\":8921:8969   */\n  tag_181\n    /* \"#utility.yul\":8963:8967   */\n  0x1f\n    /* \"#utility.yul\":8955:8961   */\n  dup10\n    /* \"#utility.yul\":8951:8968   */\n  and\n    /* \"#utility.yul\":8940:8949   */\n  dup3\n    /* \"#utility.yul\":8921:8969   */\n  tag_70\n  jump\t// in\ntag_181:\n    /* \"#utility.yul\":8913:8919   */\n  dup4\n    /* \"#utility.yul\":8906:8970   */\n  sstore\n    /* \"#utility.yul\":8828:8984   */\n  pop\n    /* \"#utility.yul\":8805:8984   */\ntag_180:\n    /* \"#utility.yul\":9030:9031   */\n  0x01\n    /* \"#utility.yul\":9026:9027   */\n  0x02\n    /* \"#utility.yul\":9018:9024   */\n  dup9\n    /* \"#utility.yul\":9014:9028   */\n  mul\n    /* \"#utility.yul\":9010:9032   */\n  add\n    /* \"#utility.yul\":9004:9008   */\n  dup9\n    /* \"#utility.yul\":8997:9033   */\n  sstore\n    /* \"#utility.yul\":8432:9043   */\n  pop\n  pop\n  pop\n    /* \"#utility.yul\":8395:9282   */\ntag_172:\n  pop\n    /* \"#utility.yul\":7985:9288   */\n  pop\n  pop\n  pop\n    /* \"#utility.yul\":7893:9288   */\n  pop\n  pop\n  jump\t// out\n    /* \"#utility.yul\":9294:9412   */\ntag_72:\n    /* \"#utility.yul\":9381:9405   */\n  tag_183\n    /* \"#utility.yul\":9399:9404   */\n  dup2\n    /* \"#utility.yul\":9381:9405   */\n  tag_50\n  jump\t// in\ntag_183:\n    /* \"#utility.yul\":9376:9379   */\n  dup3\n    /* \"#utility.yul\":9369:9406   */\n  mstore\n    /* \"#utility.yul\":9294:9412   */\n  pop\n  pop\n  jump\t// out\n    /* \"#utility.yul\":9418:9640   */\ntag_16:\n    /* \"#utility.yul\":9511:9515   */\n  0x00\n    /* \"#utility.yul\":9549:9551   */\n  0x20\n    /* \"#utility.yul\":9538:9547   */\n  dup3\n    /* \"#utility.yul\":9534:9552   */\n  add\n    /* \"#utility.yul\":9526:9552   */\n  swap1\n  pop\n    /* \"#utility.yul\":9562:9633   */\n  tag_185\n    /* \"#utility.yul\":9630:9631   */\n  0x00\n    /* \"#utility.yul\":9619:9628   */\n  dup4\n    /* \"#utility.yul\":9615:9632   */\n  add\n    /* \"#utility.yul\":9606:9612   */\n  dup5\n    /* \"#utility.yul\":9562:9633   */\n  tag_72\n  jump\t// in\ntag_185:\n    /* \"#utility.yul\":9418:9640   */\n  swap3\n  swap2\n  pop\n  pop\n  jump\t// out\n    /* \"#utility.yul\":9646:9997   */\ntag_25:\n    /* \"#utility.yul\":9716:9722   */\n  0x00\n    /* \"#utility.yul\":9765:9767   */\n  0x20\n    /* \"#utility.yul\":9753:9762   */\n  dup3\n    /* \"#utility.yul\":9744:9751   */\n  dup5\n    /* \"#utility.yul\":9740:9763   */\n  sub\n    /* \"#utility.yul\":9736:9768   */\n  slt\n    /* \"#utility.yul\":9733:9852   */\n  iszero\n  tag_187\n  jumpi\n    /* \"#utility.yul\":9771:9850   */\n  tag_188\n  tag_37\n  jump\t// in\ntag_188:\n    /* \"#utility.yul\":9733:9852   */\ntag_187:\n    /* \"#utility.yul\":9891:9892   */\n  0x00\n    /* \"#utility.yul\":9916:9980   */\n  tag_189\n    /* \"#utility.yul\":9972:9979   */\n  dup5\n    /* \"#utility.yul\":9963:9969   */\n  dup3\n    /* \"#utility.yul\":9952:9961   */\n  dup6\n    /* \"#utility.yul\":9948:9970   */\n  add\n    /* \"#utility.yul\":9916:9980   */\n  tag_52\n  jump\t// in\ntag_189:\n    /* \"#utility.yul\":9906:9980   */\n  swap2\n  pop\n    /* \"#utility.yul\":9862:9990   */\n  pop\n    /* \"#utility.yul\":9646:9997   */\n  swap3\n  swap2\n  pop\n  pop\n  jump\t// out\n    /* \"#utility.yul\":10003:10335   */\ntag_30:\n    /* \"#utility.yul\":10124:10128   */\n  0x00\n    /* \"#utility.yul\":10162:10164   */\n  0x40\n    /* \"#utility.yul\":10151:10160   */\n  dup3\n    /* \"#utility.yul\":10147:10165   */\n  add\n    /* \"#utility.yul\":10139:10165   */\n  swap1\n  pop\n    /* \"#utility.yul\":10175:10246   */\n  tag_191\n    /* \"#utility.yul\":10243:10244   */\n  0x00\n    /* \"#utility.yul\":10232:10241   */\n  dup4\n    /* \"#utility.yul\":10228:10245   */\n  add\n    /* \"#utility.yul\":10219:10225   */\n  dup6\n    /* \"#utility.yul\":10175:10246   */\n  tag_72\n  jump\t// in\ntag_191:\n    /* \"#utility.yul\":10256:10328   */\n  tag_192\n    /* \"#utility.yul\":10324:10326   */\n  0x20\n    /* \"#utility.yul\":10313:10322   */\n  dup4\n    /* \"#utility.yul\":10309:10327   */\n  add\n    /* \"#utility.yul\":10300:10306   */\n  dup5\n    /* \"#utility.yul\":10256:10328   */\n  tag_72\n  jump\t// in\ntag_192:\n    /* \"#utility.yul\":10003:10335   */\n  swap4\n  swap3\n  pop\n  pop\n  pop\n  jump\t// out\n    /* \"smart-contract/contracts/mem.sol\":463:4776  contract MemCoin is ERC20, Ownable, ReentrancyGuard, Pausable {... */\ntag_34:\n  dataSize(sub_0)\n  dup1\n  dataOffset(sub_0)\n  0x00\n  codecopy\n  0x00\n  return\nstop\n\nsub_0: assembly {\n        /* \"smart-contract/contracts/mem.sol\":463:4776  contract MemCoin is ERC20, Ownable, ReentrancyGuard, Pausable {... */\n      mstore(0x40, 0x80)\n      callvalue\n      dup1\n      iszero\n      tag_1\n      jumpi\n      revert(0x00, 0x00)\n    tag_1:\n      pop\n      jumpi(tag_2, lt(calldatasize, 0x04))\n      shr(0xe0, calldataload(0x00))\n      dup1\n      0x5c975abb\n      gt\n      tag_33\n      jumpi\n      dup1\n      0xbeabacc8\n      gt\n      tag_34\n      jumpi\n      dup1\n      0xcb4ca631\n      gt\n      tag_35\n      jumpi\n      dup1\n      0xcb4ca631\n      eq\n      tag_29\n      jumpi\n      dup1\n      0xcc1776d3\n      eq\n      tag_30\n      jumpi\n      dup1\n      0xdd62ed3e\n      eq\n      tag_31\n      jumpi\n      dup1\n      0xf2fde38b\n      eq\n      tag_32\n      jumpi\n      jump(tag_2)\n    tag_35:\n      dup1\n      0xbeabacc8\n      eq\n      tag_25\n      jumpi\n      dup1\n      0xc647b20e\n      eq\n      tag_26\n      jumpi\n      dup1\n      0xc6a30647\n      eq\n      tag_27\n      jumpi\n      dup1\n      0xc816841b\n      eq\n      tag_28\n      jumpi\n      jump(tag_2)\n    tag_34:\n      dup1\n      0x8456cb59\n      gt\n      tag_36\n      jumpi\n      dup1\n      0x8456cb59\n      eq\n      tag_21\n      jumpi\n      dup1\n      0x8da5cb5b\n      eq\n      tag_22\n      jumpi\n      dup1\n      0x95d89b41\n      eq\n      tag_23\n      jumpi\n      dup1\n      0xa9059cbb\n      eq\n      tag_24\n      jumpi\n      jump(tag_2)\n    tag_36:\n      dup1\n      0x5c975abb\n      eq\n      tag_18\n      jumpi\n      dup1\n      0x70a08231\n      eq\n      tag_19\n      jumpi\n      dup1\n      0x715018a6\n      eq\n      tag_20\n      jumpi\n      jump(tag_2)\n    tag_33:\n      dup1\n      0x2e1a7d4d\n      gt\n      tag_37\n      jumpi\n      dup1\n      0x40c10f19\n      gt\n      tag_38\n      jumpi\n      dup1\n      0x40c10f19\n      eq\n      tag_14\n      jumpi\n      dup1\n      0x4e6fd6c4\n      eq\n      tag_15\n      jumpi\n      dup1\n      0x4f7041a5\n      eq\n      tag_16\n      jumpi\n      dup1\n      0x51c6590a\n      eq\n      tag_17\n      jumpi\n      jump(tag_2)\n    tag_38:\n      dup1\n      0x2e1a7d4d\n      eq\n      tag_10\n      jumpi\n      dup1\n      0x313ce567\n      eq\n      tag_11\n      jumpi\n      dup1\n      0x33727077\n      eq\n      tag_12\n      jumpi\n      dup1\n      0x3f4ba83a\n      eq\n      tag_13\n      jumpi\n      jump(tag_2)\n    tag_37:\n      dup1\n      0x15291cd4\n      gt\n      tag_39\n      jumpi\n      dup1\n      0x15291cd4\n      eq\n      tag_6\n      jumpi\n      dup1\n      0x18160ddd\n      eq\n      tag_7\n      jumpi\n      dup1\n      0x23b872dd\n      eq\n      tag_8\n      jumpi\n      dup1\n      0x2431ba73\n      eq\n      tag_9\n      jumpi\n      jump(tag_2)\n    tag_39:\n      dup1\n      0x05bf0a54\n      eq\n      tag_3\n      jumpi\n      dup1\n      0x06fdde03\n      eq\n      tag_4\n      jumpi\n      dup1\n      0x095ea7b3\n      eq\n      tag_5\n      jumpi\n    tag_2:\n      revert(0x00, 0x00)\n        /* \"smart-contract/contracts/mem.sol\":828:857  uint256 public burnShare = 20 */\n    tag_3:\n      tag_40\n      tag_41\n      jump\t// in\n    tag_40:\n      mload(0x40)\n      tag_42\n      swap2\n      swap1\n      tag_43\n      jump\t// in\n    tag_42:\n      mload(0x40)\n      dup1\n      swap2\n      sub\n      swap1\n      return\n        /* \"@openzeppelin/contracts/token/ERC20/ERC20.sol\":1779:1868  function name() public view virtual returns (string memory) {... */\n    tag_4:\n      tag_44\n      tag_45\n      jump\t// in\n    tag_44:\n      mload(0x40)\n      tag_46\n      swap2\n      swap1\n      tag_47\n      jump\t// in\n    tag_46:\n      mload(0x40)\n      dup1\n      swap2\n      sub\n      swap1\n      return\n        /* \"@openzeppelin/contracts/token/ERC20/ERC20.sol\":3998:4184  function approve(address spender, uint256 value) public virtual returns (bool) {... */\n    tag_5:\n      tag_48\n      0x04\n      dup1\n      calldatasize\n      sub\n      dup2\n      add\n      swap1\n      tag_49\n      swap2\n      swap1\n      tag_50\n      jump\t// in\n    tag_49:\n      tag_51\n      jump\t// in\n    tag_48:\n      mload(0x40)\n      tag_52\n      swap2\n      swap1\n      tag_53\n      jump\t// in\n    tag_52:\n      mload(0x40)\n      dup1\n      swap2\n      sub\n      swap1\n      return\n        /* \"smart-contract/contracts/mem.sol\":787:821  uint256 public liquidityShare = 50 */\n    tag_6:\n      tag_54\n      tag_55\n      jump\t// in\n    tag_54:\n      mload(0x40)\n      tag_56\n      swap2\n      swap1\n      tag_43\n      jump\t// in\n    tag_56:\n      mload(0x40)\n      dup1\n      swap2\n      sub\n      swap1\n      return\n        /* \"@openzeppelin/contracts/token/ERC20/ERC20.sol\":2849:2946  function totalSupply() public view virtual returns (uint256) {... */\n    tag_7:\n      tag_57\n      tag_58\n      jump\t// in\n    tag_57:\n      mload(0x40)\n      tag_59\n      swap2\n      swap1\n      tag_43\n      jump\t// in\n    tag_59:\n      mload(0x40)\n      dup1\n      swap2\n      sub\n      swap1\n      return\n        /* \"@openzeppelin/contracts/token/ERC20/ERC20.sol\":4776:5020  function transferFrom(address from, address to, uint256 value) public virtual returns (bool) {... */\n    tag_8:\n      tag_60\n      0x04\n      dup1\n      calldatasize\n      sub\n      dup2\n      add\n      swap1\n      tag_61\n      swap2\n      swap1\n      tag_62\n      jump\t// in\n    tag_61:\n      tag_63\n      jump\t// in\n    tag_60:\n      mload(0x40)\n      tag_64\n      swap2\n      swap1\n      tag_53\n      jump\t// in\n    tag_64:\n      mload(0x40)\n      dup1\n      swap2\n      sub\n      swap1\n      return\n        /* \"smart-contract/contracts/mem.sol\":905:944  IUniswapV2Router02 public uniswaprouter */\n    tag_9:\n      tag_65\n      tag_66\n      jump\t// in\n    tag_65:\n      mload(0x40)\n      tag_67\n      swap2\n      swap1\n      tag_68\n      jump\t// in\n    tag_67:\n      mload(0x40)\n      dup1\n      swap2\n      sub\n      swap1\n      return\n        /* \"smart-contract/contracts/mem.sol\":3864:4171  function withdraw(uint256 amount) external onlyOwner nonReentrant {... */\n    tag_10:\n      tag_69\n      0x04\n      dup1\n      calldatasize\n      sub\n      dup2\n      add\n      swap1\n      tag_70\n      swap2\n      swap1\n      tag_71\n      jump\t// in\n    tag_70:\n      tag_72\n      jump\t// in\n    tag_69:\n      stop\n        /* \"@openzeppelin/contracts/token/ERC20/ERC20.sol\":2707:2789  function decimals() public view virtual returns (uint8) {... */\n    tag_11:\n      tag_73\n      tag_74\n      jump\t// in\n    tag_73:\n      mload(0x40)\n      tag_75\n      swap2\n      swap1\n      tag_76\n      jump\t// in\n    tag_75:\n      mload(0x40)\n      dup1\n      swap2\n      sub\n      swap1\n      return\n        /* \"smart-contract/contracts/mem.sol\":864:896  uint256 public rewardsShare = 30 */\n    tag_12:\n      tag_77\n      tag_78\n      jump\t// in\n    tag_77:\n      mload(0x40)\n      tag_79\n      swap2\n      swap1\n      tag_43\n      jump\t// in\n    tag_79:\n      mload(0x40)\n      dup1\n      swap2\n      sub\n      swap1\n      return\n        /* \"smart-contract/contracts/mem.sol\":4706:4773  function unpause() external onlyOwner {... */\n    tag_13:\n      tag_80\n      tag_81\n      jump\t// in\n    tag_80:\n      stop\n        /* \"smart-contract/contracts/mem.sol\":4318:4415  function mint(address to, uint256 amount) external onlyOwner {... */\n    tag_14:\n      tag_82\n      0x04\n      dup1\n      calldatasize\n      sub\n      dup2\n      add\n      swap1\n      tag_83\n      swap2\n      swap1\n      tag_50\n      jump\t// in\n    tag_83:\n      tag_84\n      jump\t// in\n    tag_82:\n      stop\n        /* \"smart-contract/contracts/mem.sol\":984:1065  address public constant DEAD_ADDRESS = 0x000000000000000000000000000000000000dEaD */\n    tag_15:\n      tag_85\n      tag_86\n      jump\t// in\n    tag_85:\n      mload(0x40)\n      tag_87\n      swap2\n      swap1\n      tag_88\n      jump\t// in\n    tag_87:\n      mload(0x40)\n      dup1\n      swap2\n      sub\n      swap1\n      return\n        /* \"smart-contract/contracts/mem.sol\":721:746  uint256 public buyTax = 5 */\n    tag_16:\n      tag_89\n      tag_90\n      jump\t// in\n    tag_89:\n      mload(0x40)\n      tag_91\n      swap2\n      swap1\n      tag_43\n      jump\t// in\n    tag_91:\n      mload(0x40)\n      dup1\n      swap2\n      sub\n      swap1\n      return\n        /* \"smart-contract/contracts/mem.sol\":3347:3856  function addLiquidity(uint256 tokenAmount) external onlyOwner nonReentrant {... */\n    tag_17:\n      tag_92\n      0x04\n      dup1\n      calldatasize\n      sub\n      dup2\n      add\n      swap1\n      tag_93\n      swap2\n      swap1\n      tag_71\n      jump\t// in\n    tag_93:\n      tag_94\n      jump\t// in\n    tag_92:\n      stop\n        /* \"@openzeppelin/contracts/utils/Pausable.sol\":1850:1934  function paused() public view virtual returns (bool) {... */\n    tag_18:\n      tag_95\n      tag_96\n      jump\t// in\n    tag_95:\n      mload(0x40)\n      tag_97\n      swap2\n      swap1\n      tag_53\n      jump\t// in\n    tag_97:\n      mload(0x40)\n      dup1\n      swap2\n      sub\n      swap1\n      return\n        /* \"@openzeppelin/contracts/token/ERC20/ERC20.sol\":3004:3120  function balanceOf(address account) public view virtual returns (uint256) {... */\n    tag_19:\n      tag_98\n      0x04\n      dup1\n      calldatasize\n      sub\n      dup2\n      add\n      swap1\n      tag_99\n      swap2\n      swap1\n      tag_100\n      jump\t// in\n    tag_99:\n      tag_101\n      jump\t// in\n    tag_98:\n      mload(0x40)\n      tag_102\n      swap2\n      swap1\n      tag_43\n      jump\t// in\n    tag_102:\n      mload(0x40)\n      dup1\n      swap2\n      sub\n      swap1\n      return\n        /* \"@openzeppelin/contracts/access/Ownable.sol\":2293:2394  function renounceOwnership() public virtual onlyOwner {... */\n    tag_20:\n      tag_103\n      tag_104\n      jump\t// in\n    tag_103:\n      stop\n        /* \"smart-contract/contracts/mem.sol\":4632:4698  function pause() external onlyOwner {... */\n    tag_21:\n      tag_105\n      tag_106\n      jump\t// in\n    tag_105:\n      stop\n        /* \"@openzeppelin/contracts/access/Ownable.sol\":1638:1723  function owner() public view virtual returns (address) {... */\n    tag_22:\n      tag_107\n      tag_108\n      jump\t// in\n    tag_107:\n      mload(0x40)\n      tag_109\n      swap2\n      swap1\n      tag_88\n      jump\t// in\n    tag_109:\n      mload(0x40)\n      dup1\n      swap2\n      sub\n      swap1\n      return\n        /* \"@openzeppelin/contracts/token/ERC20/ERC20.sol\":1981:2074  function symbol() public view virtual returns (string memory) {... */\n    tag_23:\n      tag_110\n      tag_111\n      jump\t// in\n    tag_110:\n      mload(0x40)\n      tag_112\n      swap2\n      swap1\n      tag_47\n      jump\t// in\n    tag_112:\n      mload(0x40)\n      dup1\n      swap2\n      sub\n      swap1\n      return\n        /* \"@openzeppelin/contracts/token/ERC20/ERC20.sol\":3315:3493  function transfer(address to, uint256 value) public virtual returns (bool) {... */\n    tag_24:\n      tag_113\n      0x04\n      dup1\n      calldatasize\n      sub\n      dup2\n      add\n      swap1\n      tag_114\n      swap2\n      swap1\n      tag_50\n      jump\t// in\n    tag_114:\n      tag_115\n      jump\t// in\n    tag_113:\n      mload(0x40)\n      tag_116\n      swap2\n      swap1\n      tag_53\n      jump\t// in\n    tag_116:\n      mload(0x40)\n      dup1\n      swap2\n      sub\n      swap1\n      return\n        /* \"smart-contract/contracts/mem.sol\":1753:3176  function transfer(address sender, address recipient, uint256 amount) external{... */\n    tag_25:\n      tag_117\n      0x04\n      dup1\n      calldatasize\n      sub\n      dup2\n      add\n      swap1\n      tag_118\n      swap2\n      swap1\n      tag_62\n      jump\t// in\n    tag_118:\n      tag_119\n      jump\t// in\n    tag_117:\n      stop\n        /* \"smart-contract/contracts/mem.sol\":4423:4624  function setTaxes(uint256 _buyTax, uint256 _sellTax) external onlyOwner {... */\n    tag_26:\n      tag_120\n      0x04\n      dup1\n      calldatasize\n      sub\n      dup2\n      add\n      swap1\n      tag_121\n      swap2\n      swap1\n      tag_122\n      jump\t// in\n    tag_121:\n      tag_123\n      jump\t// in\n    tag_120:\n      stop\n        /* \"smart-contract/contracts/mem.sol\":4179:4310  function excludeFromTax(address account, bool excluded) external onlyOwner {... */\n    tag_27:\n      tag_124\n      0x04\n      dup1\n      calldatasize\n      sub\n      dup2\n      add\n      swap1\n      tag_125\n      swap2\n      swap1\n      tag_126\n      jump\t// in\n    tag_125:\n      tag_127\n      jump\t// in\n    tag_124:\n      stop\n        /* \"smart-contract/contracts/mem.sol\":951:977  address public uniswapPair */\n    tag_28:\n      tag_128\n      tag_129\n      jump\t// in\n    tag_128:\n      mload(0x40)\n      tag_130\n      swap2\n      swap1\n      tag_88\n      jump\t// in\n    tag_130:\n      mload(0x40)\n      dup1\n      swap2\n      sub\n      swap1\n      return\n        /* \"smart-contract/contracts/mem.sol\":1074:1123  mapping(address => bool) public isExcludedFromTax */\n    tag_29:\n      tag_131\n      0x04\n      dup1\n      calldatasize\n      sub\n      dup2\n      add\n      swap1\n      tag_132\n      swap2\n      swap1\n      tag_100\n      jump\t// in\n    tag_132:\n      tag_133\n      jump\t// in\n    tag_131:\n      mload(0x40)\n      tag_134\n      swap2\n      swap1\n      tag_53\n      jump\t// in\n    tag_134:\n      mload(0x40)\n      dup1\n      swap2\n      sub\n      swap1\n      return\n        /* \"smart-contract/contracts/mem.sol\":753:780  uint256 public sellTax = 10 */\n    tag_30:\n      tag_135\n      tag_136\n      jump\t// in\n    tag_135:\n      mload(0x40)\n      tag_137\n      swap2\n      swap1\n      tag_43\n      jump\t// in\n    tag_137:\n      mload(0x40)\n      dup1\n      swap2\n      sub\n      swap1\n      return\n        /* \"@openzeppelin/contracts/token/ERC20/ERC20.sol\":3551:3691  function allowance(address owner, address spender) public view virtual returns (uint256) {... */\n    tag_31:\n      tag_138\n      0x04\n      dup1\n      calldatasize\n      sub\n      dup2\n      add\n      swap1\n      tag_139\n      swap2\n      swap1\n      tag_140\n      jump\t// in\n    tag_139:\n      tag_141\n      jump\t// in\n    tag_138:\n      mload(0x40)\n      tag_142\n      swap2\n      swap1\n      tag_43\n      jump\t// in\n    tag_142:\n      mload(0x40)\n      dup1\n      swap2\n      sub\n      swap1\n      return\n        /* \"@openzeppelin/contracts/access/Ownable.sol\":2543:2758  function transferOwnership(address newOwner) public virtual onlyOwner {... */\n    tag_32:\n      tag_143\n      0x04\n      dup1\n      calldatasize\n      sub\n      dup2\n      add\n      swap1\n      tag_144\n      swap2\n      swap1\n      tag_100\n      jump\t// in\n    tag_144:\n      tag_145\n      jump\t// in\n    tag_143:\n      stop\n        /* \"smart-contract/contracts/mem.sol\":828:857  uint256 public burnShare = 20 */\n    tag_41:\n      sload(0x0b)\n      dup2\n      jump\t// out\n        /* \"@openzeppelin/contracts/token/ERC20/ERC20.sol\":1779:1868  function name() public view virtual returns (string memory) {... */\n    tag_45:\n        /* \"@openzeppelin/contracts/token/ERC20/ERC20.sol\":1824:1837  string memory */\n      0x60\n        /* \"@openzeppelin/contracts/token/ERC20/ERC20.sol\":1856:1861  _name */\n      0x03\n        /* \"@openzeppelin/contracts/token/ERC20/ERC20.sol\":1849:1861  return _name */\n      dup1\n      sload\n      tag_147\n      swap1\n      tag_148\n      jump\t// in\n    tag_147:\n      dup1\n      0x1f\n      add\n      0x20\n      dup1\n      swap2\n      div\n      mul\n      0x20\n      add\n      mload(0x40)\n      swap1\n      dup2\n      add\n      0x40\n      mstore\n      dup1\n      swap3\n      swap2\n      swap1\n      dup2\n      dup2\n      mstore\n      0x20\n      add\n      dup3\n      dup1\n      sload\n      tag_149\n      swap1\n      tag_148\n      jump\t// in\n    tag_149:\n      dup1\n      iszero\n      tag_150\n      jumpi\n      dup1\n      0x1f\n      lt\n      tag_151\n      jumpi\n      0x0100\n      dup1\n      dup4\n      sload\n      div\n      mul\n      dup4\n      mstore\n      swap2\n      0x20\n      add\n      swap2\n      jump(tag_150)\n    tag_151:\n      dup3\n      add\n      swap2\n      swap1\n      0x00\n      mstore\n      keccak256(0x00, 0x20)\n      swap1\n    tag_152:\n      dup2\n      sload\n      dup2\n      mstore\n      swap1\n      0x01\n      add\n      swap1\n      0x20\n      add\n      dup1\n      dup4\n      gt\n      tag_152\n      jumpi\n      dup3\n      swap1\n      sub\n      0x1f\n      and\n      dup3\n      add\n      swap2\n    tag_150:\n      pop\n      pop\n      pop\n      pop\n      pop\n      swap1\n      pop\n        /* \"@openzeppelin/contracts/token/ERC20/ERC20.sol\":1779:1868  function name() public view virtual returns (string memory) {... */\n      swap1\n      jump\t// out\n        /* \"@openzeppelin/contracts/token/ERC20/ERC20.sol\":3998:4184  function approve(address spender, uint256 value) public virtual returns (bool) {... */\n    tag_51:\n        /* \"@openzeppelin/contracts/token/ERC20/ERC20.sol\":4071:4075  bool */\n      0x00\n        /* \"@openzeppelin/contracts/token/ERC20/ERC20.sol\":4087:4100  address owner */\n      0x00\n        /* \"@openzeppelin/contracts/token/ERC20/ERC20.sol\":4103:4115  _msgSender() */\n      tag_154\n        /* \"@openzeppelin/contracts/token/ERC20/ERC20.sol\":4103:4113  _msgSender */\n      tag_155\n        /* \"@openzeppelin/contracts/token/ERC20/ERC20.sol\":4103:4115  _msgSender() */\n      jump\t// in\n    tag_154:\n        /* \"@openzeppelin/contracts/token/ERC20/ERC20.sol\":4087:4115  address owner = _msgSender() */\n      swap1\n      pop\n        /* \"@openzeppelin/contracts/token/ERC20/ERC20.sol\":4125:4156  _approve(owner, spender, value) */\n      tag_156\n        /* \"@openzeppelin/contracts/token/ERC20/ERC20.sol\":4134:4139  owner */\n      dup2\n        /* \"@openzeppelin/contracts/token/ERC20/ERC20.sol\":4141:4148  spender */\n      dup6\n        /* \"@openzeppelin/contracts/token/ERC20/ERC20.sol\":4150:4155  value */\n      dup6\n        /* \"@openzeppelin/contracts/token/ERC20/ERC20.sol\":4125:4133  _approve */\n      tag_157\n        /* \"@openzeppelin/contracts/token/ERC20/ERC20.sol\":4125:4156  _approve(owner, spender, value) */\n      jump\t// in\n    tag_156:\n        /* \"@openzeppelin/contracts/token/ERC20/ERC20.sol\":4173:4177  true */\n      0x01\n        /* \"@openzeppelin/contracts/token/ERC20/ERC20.sol\":4166:4177  return true */\n      swap2\n      pop\n      pop\n        /* \"@openzeppelin/contracts/token/ERC20/ERC20.sol\":3998:4184  function approve(address spender, uint256 value) public virtual returns (bool) {... */\n      swap3\n      swap2\n      pop\n      pop\n      jump\t// out\n        /* \"smart-contract/contracts/mem.sol\":787:821  uint256 public liquidityShare = 50 */\n    tag_55:\n      sload(0x0a)\n      dup2\n      jump\t// out\n        /* \"@openzeppelin/contracts/token/ERC20/ERC20.sol\":2849:2946  function totalSupply() public view virtual returns (uint256) {... */\n    tag_58:\n        /* \"@openzeppelin/contracts/token/ERC20/ERC20.sol\":2901:2908  uint256 */\n      0x00\n        /* \"@openzeppelin/contracts/token/ERC20/ERC20.sol\":2927:2939  _totalSupply */\n      sload(0x02)\n        /* \"@openzeppelin/contracts/token/ERC20/ERC20.sol\":2920:2939  return _totalSupply */\n      swap1\n      pop\n        /* \"@openzeppelin/contracts/token/ERC20/ERC20.sol\":2849:2946  function totalSupply() public view virtual returns (uint256) {... */\n      swap1\n      jump\t// out\n        /* \"@openzeppelin/contracts/token/ERC20/ERC20.sol\":4776:5020  function transferFrom(address from, address to, uint256 value) public virtual returns (bool) {... */\n    tag_63:\n        /* \"@openzeppelin/contracts/token/ERC20/ERC20.sol\":4863:4867  bool */\n      0x00\n        /* \"@openzeppelin/contracts/token/ERC20/ERC20.sol\":4879:4894  address spender */\n      0x00\n        /* \"@openzeppelin/contracts/token/ERC20/ERC20.sol\":4897:4909  _msgSender() */\n      tag_160\n        /* \"@openzeppelin/contracts/token/ERC20/ERC20.sol\":4897:4907  _msgSender */\n      tag_155\n        /* \"@openzeppelin/contracts/token/ERC20/ERC20.sol\":4897:4909  _msgSender() */\n      jump\t// in\n    tag_160:\n        /* \"@openzeppelin/contracts/token/ERC20/ERC20.sol\":4879:4909  address spender = _msgSender() */\n      swap1\n      pop\n        /* \"@openzeppelin/contracts/token/ERC20/ERC20.sol\":4919:4956  _spendAllowance(from, spender, value) */\n      tag_161\n        /* \"@openzeppelin/contracts/token/ERC20/ERC20.sol\":4935:4939  from */\n      dup6\n        /* \"@openzeppelin/contracts/token/ERC20/ERC20.sol\":4941:4948  spender */\n      dup3\n        /* \"@openzeppelin/contracts/token/ERC20/ERC20.sol\":4950:4955  value */\n      dup6\n        /* \"@openzeppelin/contracts/token/ERC20/ERC20.sol\":4919:4934  _spendAllowance */\n      tag_162\n        /* \"@openzeppelin/contracts/token/ERC20/ERC20.sol\":4919:4956  _spendAllowance(from, spender, value) */\n      jump\t// in\n    tag_161:\n        /* \"@openzeppelin/contracts/token/ERC20/ERC20.sol\":4966:4992  _transfer(from, to, value) */\n      tag_163\n        /* \"@openzeppelin/contracts/token/ERC20/ERC20.sol\":4976:4980  from */\n      dup6\n        /* \"@openzeppelin/contracts/token/ERC20/ERC20.sol\":4982:4984  to */\n      dup6\n        /* \"@openzeppelin/contracts/token/ERC20/ERC20.sol\":4986:4991  value */\n      dup6\n        /* \"@openzeppelin/contracts/token/ERC20/ERC20.sol\":4966:4975  _transfer */\n      tag_164\n        /* \"@openzeppelin/contracts/token/ERC20/ERC20.sol\":4966:4992  _transfer(from, to, value) */\n      jump\t// in\n    tag_163:\n        /* \"@openzeppelin/contracts/token/ERC20/ERC20.sol\":5009:5013  true */\n      0x01\n        /* \"@openzeppelin/contracts/token/ERC20/ERC20.sol\":5002:5013  return true */\n      swap2\n      pop\n      pop\n        /* \"@openzeppelin/contracts/token/ERC20/ERC20.sol\":4776:5020  function transferFrom(address from, address to, uint256 value) public virtual returns (bool) {... */\n      swap4\n      swap3\n      pop\n      pop\n      pop\n      jump\t// out\n        /* \"smart-contract/contracts/mem.sol\":905:944  IUniswapV2Router02 public uniswaprouter */\n    tag_66:\n      0x0d\n      0x00\n      swap1\n      sload\n      swap1\n      0x0100\n      exp\n      swap1\n      div\n      0xffffffffffffffffffffffffffffffffffffffff\n      and\n      dup2\n      jump\t// out\n        /* \"smart-contract/contracts/mem.sol\":3864:4171  function withdraw(uint256 amount) external onlyOwner nonReentrant {... */\n    tag_72:\n        /* \"@openzeppelin/contracts/access/Ownable.sol\":1531:1544  _checkOwner() */\n      tag_166\n        /* \"@openzeppelin/contracts/access/Ownable.sol\":1531:1542  _checkOwner */\n      tag_167\n        /* \"@openzeppelin/contracts/access/Ownable.sol\":1531:1544  _checkOwner() */\n      jump\t// in\n    tag_166:\n        /* \"@openzeppelin/contracts/utils/ReentrancyGuard.sol\":2500:2521  _nonReentrantBefore() */\n      tag_169\n        /* \"@openzeppelin/contracts/utils/ReentrancyGuard.sol\":2500:2519  _nonReentrantBefore */\n      tag_170\n        /* \"@openzeppelin/contracts/utils/ReentrancyGuard.sol\":2500:2521  _nonReentrantBefore() */\n      jump\t// in\n    tag_169:\n        /* \"smart-contract/contracts/mem.sol\":3971:3972  0 */\n      0x00\n        /* \"smart-contract/contracts/mem.sol\":3949:3973  msg.sender != address(0) */\n      0xffffffffffffffffffffffffffffffffffffffff\n      and\n        /* \"smart-contract/contracts/mem.sol\":3949:3959  msg.sender */\n      caller\n        /* \"smart-contract/contracts/mem.sol\":3949:3973  msg.sender != address(0) */\n      0xffffffffffffffffffffffffffffffffffffffff\n      and\n      sub\n        /* \"smart-contract/contracts/mem.sol\":3941:3992  require(msg.sender != address(0), TransferToZero()) */\n      tag_172\n      jumpi\n      mload(0x40)\n      0xa38ca3d900000000000000000000000000000000000000000000000000000000\n      dup2\n      mstore\n      0x04\n      add\n      mload(0x40)\n      dup1\n      swap2\n      sub\n      swap1\n      revert\n    tag_172:\n        /* \"smart-contract/contracts/mem.sol\":4021:4042  address(this).balance */\n      selfbalance\n        /* \"smart-contract/contracts/mem.sol\":4011:4017  amount */\n      dup2\n        /* \"smart-contract/contracts/mem.sol\":4011:4042  amount <= address(this).balance */\n      gt\n      iszero\n        /* \"smart-contract/contracts/mem.sol\":4003:4064  require(amount <= address(this).balance, InsufficientFunds()) */\n      tag_173\n      jumpi\n      mload(0x40)\n      0x356680b700000000000000000000000000000000000000000000000000000000\n      dup2\n      mstore\n      0x04\n      add\n      mload(0x40)\n      dup1\n      swap2\n      sub\n      swap1\n      revert\n    tag_173:\n        /* \"smart-contract/contracts/mem.sol\":4077:4092  uint256 balance */\n      0x00\n        /* \"smart-contract/contracts/mem.sol\":4095:4116  address(this).balance */\n      selfbalance\n        /* \"smart-contract/contracts/mem.sol\":4077:4116  uint256 balance = address(this).balance */\n      swap1\n      pop\n        /* \"smart-contract/contracts/mem.sol\":4137:4144  owner() */\n      tag_174\n        /* \"smart-contract/contracts/mem.sol\":4137:4142  owner */\n      tag_108\n        /* \"smart-contract/contracts/mem.sol\":4137:4144  owner() */\n      jump\t// in\n    tag_174:\n        /* \"smart-contract/contracts/mem.sol\":4129:4154  payable(owner()).transfer */\n      0xffffffffffffffffffffffffffffffffffffffff\n      and\n        /* \"smart-contract/contracts/mem.sol\":4129:4163  payable(owner()).transfer(balance) */\n      0x08fc\n        /* \"smart-contract/contracts/mem.sol\":4155:4162  balance */\n      dup3\n        /* \"smart-contract/contracts/mem.sol\":4129:4163  payable(owner()).transfer(balance) */\n      swap1\n      dup2\n      iszero\n      mul\n      swap1\n      mload(0x40)\n      0x00\n      mload(0x40)\n      dup1\n      dup4\n      sub\n      dup2\n      dup6\n      dup9\n      dup9\n      call\n      swap4\n      pop\n      pop\n      pop\n      pop\n      iszero\n      dup1\n      iszero\n      tag_176\n      jumpi\n      returndatacopy(0x00, 0x00, returndatasize)\n      revert(0x00, returndatasize)\n    tag_176:\n      pop\n        /* \"smart-contract/contracts/mem.sol\":3930:4171  {... */\n      pop\n        /* \"@openzeppelin/contracts/utils/ReentrancyGuard.sol\":2542:2562  _nonReentrantAfter() */\n      tag_177\n        /* \"@openzeppelin/contracts/utils/ReentrancyGuard.sol\":2542:2560  _nonReentrantAfter */\n      tag_178\n        /* \"@openzeppelin/contracts/utils/ReentrancyGuard.sol\":2542:2562  _nonReentrantAfter() */\n      jump\t// in\n    tag_177:\n        /* \"smart-contract/contracts/mem.sol\":3864:4171  function withdraw(uint256 amount) external onlyOwner nonReentrant {... */\n      pop\n      jump\t// out\n        /* \"@openzeppelin/contracts/token/ERC20/ERC20.sol\":2707:2789  function decimals() public view virtual returns (uint8) {... */\n    tag_74:\n        /* \"@openzeppelin/contracts/token/ERC20/ERC20.sol\":2756:2761  uint8 */\n      0x00\n        /* \"@openzeppelin/contracts/token/ERC20/ERC20.sol\":2780:2782  18 */\n      0x12\n        /* \"@openzeppelin/contracts/token/ERC20/ERC20.sol\":2773:2782  return 18 */\n      swap1\n      pop\n        /* \"@openzeppelin/contracts/token/ERC20/ERC20.sol\":2707:2789  function decimals() public view virtual returns (uint8) {... */\n      swap1\n      jump\t// out\n        /* \"smart-contract/contracts/mem.sol\":864:896  uint256 public rewardsShare = 30 */\n    tag_78:\n      sload(0x0c)\n      dup2\n      jump\t// out\n        /* \"smart-contract/contracts/mem.sol\":4706:4773  function unpause() external onlyOwner {... */\n    tag_81:\n        /* \"@openzeppelin/contracts/access/Ownable.sol\":1531:1544  _checkOwner() */\n      tag_181\n        /* \"@openzeppelin/contracts/access/Ownable.sol\":1531:1542  _checkOwner */\n      tag_167\n        /* \"@openzeppelin/contracts/access/Ownable.sol\":1531:1544  _checkOwner() */\n      jump\t// in\n    tag_181:\n        /* \"smart-contract/contracts/mem.sol\":4755:4765  _unpause() */\n      tag_183\n        /* \"smart-contract/contracts/mem.sol\":4755:4763  _unpause */\n      tag_184\n        /* \"smart-contract/contracts/mem.sol\":4755:4765  _unpause() */\n      jump\t// in\n    tag_183:\n        /* \"smart-contract/contracts/mem.sol\":4706:4773  function unpause() external onlyOwner {... */\n      jump\t// out\n        /* \"smart-contract/contracts/mem.sol\":4318:4415  function mint(address to, uint256 amount) external onlyOwner {... */\n    tag_84:\n        /* \"@openzeppelin/contracts/access/Ownable.sol\":1531:1544  _checkOwner() */\n      tag_186\n        /* \"@openzeppelin/contracts/access/Ownable.sol\":1531:1542  _checkOwner */\n      tag_167\n        /* \"@openzeppelin/contracts/access/Ownable.sol\":1531:1544  _checkOwner() */\n      jump\t// in\n    tag_186:\n        /* \"smart-contract/contracts/mem.sol\":4390:4407  _mint(to, amount) */\n      tag_188\n        /* \"smart-contract/contracts/mem.sol\":4396:4398  to */\n      dup3\n        /* \"smart-contract/contracts/mem.sol\":4400:4406  amount */\n      dup3\n        /* \"smart-contract/contracts/mem.sol\":4390:4395  _mint */\n      tag_189\n        /* \"smart-contract/contracts/mem.sol\":4390:4407  _mint(to, amount) */\n      jump\t// in\n    tag_188:\n        /* \"smart-contract/contracts/mem.sol\":4318:4415  function mint(address to, uint256 amount) external onlyOwner {... */\n      pop\n      pop\n      jump\t// out\n        /* \"smart-contract/contracts/mem.sol\":984:1065  address public constant DEAD_ADDRESS = 0x000000000000000000000000000000000000dEaD */\n    tag_86:\n        /* \"smart-contract/contracts/mem.sol\":1023:1065  0x000000000000000000000000000000000000dEaD */\n      0xdead\n        /* \"smart-contract/contracts/mem.sol\":984:1065  address public constant DEAD_ADDRESS = 0x000000000000000000000000000000000000dEaD */\n      dup2\n      jump\t// out\n        /* \"smart-contract/contracts/mem.sol\":721:746  uint256 public buyTax = 5 */\n    tag_90:\n      sload(0x08)\n      dup2\n      jump\t// out\n        /* \"smart-contract/contracts/mem.sol\":3347:3856  function addLiquidity(uint256 tokenAmount) external onlyOwner nonReentrant {... */\n    tag_94:\n        /* \"@openzeppelin/contracts/access/Ownable.sol\":1531:1544  _checkOwner() */\n      tag_191\n        /* \"@openzeppelin/contracts/access/Ownable.sol\":1531:1542  _checkOwner */\n      tag_167\n        /* \"@openzeppelin/contracts/access/Ownable.sol\":1531:1544  _checkOwner() */\n      jump\t// in\n    tag_191:\n        /* \"@openzeppelin/contracts/utils/ReentrancyGuard.sol\":2500:2521  _nonReentrantBefore() */\n      tag_193\n        /* \"@openzeppelin/contracts/utils/ReentrancyGuard.sol\":2500:2519  _nonReentrantBefore */\n      tag_170\n        /* \"@openzeppelin/contracts/utils/ReentrancyGuard.sol\":2500:2521  _nonReentrantBefore() */\n      jump\t// in\n    tag_193:\n        /* \"smart-contract/contracts/mem.sol\":3455:3456  0 */\n      0x00\n        /* \"smart-contract/contracts/mem.sol\":3441:3452  tokenAmount */\n      dup2\n        /* \"smart-contract/contracts/mem.sol\":3441:3456  tokenAmount > 0 */\n      gt\n        /* \"smart-contract/contracts/mem.sol\":3433:3486  require(tokenAmount > 0, TokenAmountMustBePositive()) */\n      tag_195\n      jumpi\n      mload(0x40)\n      0x671d94d800000000000000000000000000000000000000000000000000000000\n      dup2\n      mstore\n      0x04\n      add\n      mload(0x40)\n      dup1\n      swap2\n      sub\n      swap1\n      revert\n    tag_195:\n        /* \"smart-contract/contracts/mem.sol\":3499:3559  _approve(address(this), address(uniswaprouter), tokenAmount) */\n      tag_196\n        /* \"smart-contract/contracts/mem.sol\":3516:3520  this */\n      address\n        /* \"smart-contract/contracts/mem.sol\":3531:3544  uniswaprouter */\n      0x0d\n      0x00\n      swap1\n      sload\n      swap1\n      0x0100\n      exp\n      swap1\n      div\n      0xffffffffffffffffffffffffffffffffffffffff\n      and\n        /* \"smart-contract/contracts/mem.sol\":3547:3558  tokenAmount */\n      dup4\n        /* \"smart-contract/contracts/mem.sol\":3499:3507  _approve */\n      tag_157\n        /* \"smart-contract/contracts/mem.sol\":3499:3559  _approve(address(this), address(uniswaprouter), tokenAmount) */\n      jump\t// in\n    tag_196:\n        /* \"smart-contract/contracts/mem.sol\":3572:3585  uniswaprouter */\n      0x0d\n      0x00\n      swap1\n      sload\n      swap1\n      0x0100\n      exp\n      swap1\n      div\n      0xffffffffffffffffffffffffffffffffffffffff\n      and\n        /* \"smart-contract/contracts/mem.sol\":3572:3601  uniswaprouter.addLiquidityETH */\n      0xffffffffffffffffffffffffffffffffffffffff\n      and\n      0xf305d719\n        /* \"smart-contract/contracts/mem.sol\":3609:3630  address(this).balance */\n      selfbalance\n        /* \"smart-contract/contracts/mem.sol\":3654:3658  this */\n      address\n        /* \"smart-contract/contracts/mem.sol\":3674:3685  tokenAmount */\n      dup5\n        /* \"smart-contract/contracts/mem.sol\":3700:3701  0 */\n      0x00\n        /* \"smart-contract/contracts/mem.sol\":3716:3717  0 */\n      0x00\n        /* \"smart-contract/contracts/mem.sol\":3732:3739  owner() */\n      tag_197\n        /* \"smart-contract/contracts/mem.sol\":3732:3737  owner */\n      tag_108\n        /* \"smart-contract/contracts/mem.sol\":3732:3739  owner() */\n      jump\t// in\n    tag_197:\n        /* \"smart-contract/contracts/mem.sol\":3754:3769  block.timestamp */\n      timestamp\n        /* \"smart-contract/contracts/mem.sol\":3572:3780  uniswaprouter.addLiquidityETH{value: address(this).balance}(... */\n      mload(0x40)\n      dup9\n      0xffffffff\n      and\n      0xe0\n      shl\n      dup2\n      mstore\n      0x04\n      add\n      tag_198\n      swap7\n      swap6\n      swap5\n      swap4\n      swap3\n      swap2\n      swap1\n      tag_199\n      jump\t// in\n    tag_198:\n      0x60\n      mload(0x40)\n      dup1\n      dup4\n      sub\n      dup2\n      dup6\n      dup9\n      gas\n      call\n      iszero\n      dup1\n      iszero\n      tag_201\n      jumpi\n      returndatacopy(0x00, 0x00, returndatasize)\n      revert(0x00, returndatasize)\n    tag_201:\n      pop\n      pop\n      pop\n      pop\n      pop\n      mload(0x40)\n      returndatasize\n      not(0x1f)\n      0x1f\n      dup3\n      add\n      and\n      dup3\n      add\n      dup1\n      0x40\n      mstore\n      pop\n      dup2\n      add\n      swap1\n      tag_202\n      swap2\n      swap1\n      tag_203\n      jump\t// in\n    tag_202:\n      pop\n      pop\n      pop\n        /* \"smart-contract/contracts/mem.sol\":3798:3848  LiquidityAdded(tokenAmount, address(this).balance) */\n      0x38f8a0c92f4c5b0b6877f878cb4c0c8d348a47b76d716c8e78f425043df9515b\n        /* \"smart-contract/contracts/mem.sol\":3813:3824  tokenAmount */\n      dup2\n        /* \"smart-contract/contracts/mem.sol\":3826:3847  address(this).balance */\n      selfbalance\n        /* \"smart-contract/contracts/mem.sol\":3798:3848  LiquidityAdded(tokenAmount, address(this).balance) */\n      mload(0x40)\n      tag_204\n      swap3\n      swap2\n      swap1\n      tag_205\n      jump\t// in\n    tag_204:\n      mload(0x40)\n      dup1\n      swap2\n      sub\n      swap1\n      log1\n        /* \"@openzeppelin/contracts/utils/ReentrancyGuard.sol\":2542:2562  _nonReentrantAfter() */\n      tag_206\n        /* \"@openzeppelin/contracts/utils/ReentrancyGuard.sol\":2542:2560  _nonReentrantAfter */\n      tag_178\n        /* \"@openzeppelin/contracts/utils/ReentrancyGuard.sol\":2542:2562  _nonReentrantAfter() */\n      jump\t// in\n    tag_206:\n        /* \"smart-contract/contracts/mem.sol\":3347:3856  function addLiquidity(uint256 tokenAmount) external onlyOwner nonReentrant {... */\n      pop\n      jump\t// out\n        /* \"@openzeppelin/contracts/utils/Pausable.sol\":1850:1934  function paused() public view virtual returns (bool) {... */\n    tag_96:\n        /* \"@openzeppelin/contracts/utils/Pausable.sol\":1897:1901  bool */\n      0x00\n        /* \"@openzeppelin/contracts/utils/Pausable.sol\":1920:1927  _paused */\n      0x07\n      0x00\n      swap1\n      sload\n      swap1\n      0x0100\n      exp\n      swap1\n      div\n      0xff\n      and\n        /* \"@openzeppelin/contracts/utils/Pausable.sol\":1913:1927  return _paused */\n      swap1\n      pop\n        /* \"@openzeppelin/contracts/utils/Pausable.sol\":1850:1934  function paused() public view virtual returns (bool) {... */\n      swap1\n      jump\t// out\n        /* \"@openzeppelin/contracts/token/ERC20/ERC20.sol\":3004:3120  function balanceOf(address account) public view virtual returns (uint256) {... */\n    tag_101:\n        /* \"@openzeppelin/contracts/token/ERC20/ERC20.sol\":3069:3076  uint256 */\n      0x00\n        /* \"@openzeppelin/contracts/token/ERC20/ERC20.sol\":3095:3104  _balances */\n      0x00\n        /* \"@openzeppelin/contracts/token/ERC20/ERC20.sol\":3095:3113  _balances[account] */\n      0x00\n        /* \"@openzeppelin/contracts/token/ERC20/ERC20.sol\":3105:3112  account */\n      dup4\n        /* \"@openzeppelin/contracts/token/ERC20/ERC20.sol\":3095:3113  _balances[account] */\n      0xffffffffffffffffffffffffffffffffffffffff\n      and\n      0xffffffffffffffffffffffffffffffffffffffff\n      and\n      dup2\n      mstore\n      0x20\n      add\n      swap1\n      dup2\n      mstore\n      0x20\n      add\n      0x00\n      keccak256\n      sload\n        /* \"@openzeppelin/contracts/token/ERC20/ERC20.sol\":3088:3113  return _balances[account] */\n      swap1\n      pop\n        /* \"@openzeppelin/contracts/token/ERC20/ERC20.sol\":3004:3120  function balanceOf(address account) public view virtual returns (uint256) {... */\n      swap2\n      swap1\n      pop\n      jump\t// out\n        /* \"@openzeppelin/contracts/access/Ownable.sol\":2293:2394  function renounceOwnership() public virtual onlyOwner {... */\n    tag_104:\n        /* \"@openzeppelin/contracts/access/Ownable.sol\":1531:1544  _checkOwner() */\n      tag_210\n        /* \"@openzeppelin/contracts/access/Ownable.sol\":1531:1542  _checkOwner */\n      tag_167\n        /* \"@openzeppelin/contracts/access/Ownable.sol\":1531:1544  _checkOwner() */\n      jump\t// in\n    tag_210:\n        /* \"@openzeppelin/contracts/access/Ownable.sol\":2357:2387  _transferOwnership(address(0)) */\n      tag_212\n        /* \"@openzeppelin/contracts/access/Ownable.sol\":2384:2385  0 */\n      0x00\n        /* \"@openzeppelin/contracts/access/Ownable.sol\":2357:2375  _transferOwnership */\n      tag_213\n        /* \"@openzeppelin/contracts/access/Ownable.sol\":2357:2387  _transferOwnership(address(0)) */\n      jump\t// in\n    tag_212:\n        /* \"@openzeppelin/contracts/access/Ownable.sol\":2293:2394  function renounceOwnership() public virtual onlyOwner {... */\n      jump\t// out\n        /* \"smart-contract/contracts/mem.sol\":4632:4698  function pause() external onlyOwner {... */\n    tag_106:\n        /* \"@openzeppelin/contracts/access/Ownable.sol\":1531:1544  _checkOwner() */\n      tag_215\n        /* \"@openzeppelin/contracts/access/Ownable.sol\":1531:1542  _checkOwner */\n      tag_167\n        /* \"@openzeppelin/contracts/access/Ownable.sol\":1531:1544  _checkOwner() */\n      jump\t// in\n    tag_215:\n        /* \"smart-contract/contracts/mem.sol\":4679:4687  _pause() */\n      tag_217\n        /* \"smart-contract/contracts/mem.sol\":4679:4685  _pause */\n      tag_218\n        /* \"smart-contract/contracts/mem.sol\":4679:4687  _pause() */\n      jump\t// in\n    tag_217:\n        /* \"smart-contract/contracts/mem.sol\":4632:4698  function pause() external onlyOwner {... */\n      jump\t// out\n        /* \"@openzeppelin/contracts/access/Ownable.sol\":1638:1723  function owner() public view virtual returns (address) {... */\n    tag_108:\n        /* \"@openzeppelin/contracts/access/Ownable.sol\":1684:1691  address */\n      0x00\n        /* \"@openzeppelin/contracts/access/Ownable.sol\":1710:1716  _owner */\n      0x05\n      0x00\n      swap1\n      sload\n      swap1\n      0x0100\n      exp\n      swap1\n      div\n      0xffffffffffffffffffffffffffffffffffffffff\n      and\n        /* \"@openzeppelin/contracts/access/Ownable.sol\":1703:1716  return _owner */\n      swap1\n      pop\n        /* \"@openzeppelin/contracts/access/Ownable.sol\":1638:1723  function owner() public view virtual returns (address) {... */\n      swap1\n      jump\t// out\n        /* \"@openzeppelin/contracts/token/ERC20/ERC20.sol\":1981:2074  function symbol() public view virtual returns (string memory) {... */\n    tag_111:\n        /* \"@openzeppelin/contracts/token/ERC20/ERC20.sol\":2028:2041  string memory */\n      0x60\n        /* \"@openzeppelin/contracts/token/ERC20/ERC20.sol\":2060:2067  _symbol */\n      0x04\n        /* \"@openzeppelin/contracts/token/ERC20/ERC20.sol\":2053:2067  return _symbol */\n      dup1\n      sload\n      tag_221\n      swap1\n      tag_148\n      jump\t// in\n    tag_221:\n      dup1\n      0x1f\n      add\n      0x20\n      dup1\n      swap2\n      div\n      mul\n      0x20\n      add\n      mload(0x40)\n      swap1\n      dup2\n      add\n      0x40\n      mstore\n      dup1\n      swap3\n      swap2\n      swap1\n      dup2\n      dup2\n      mstore\n      0x20\n      add\n      dup3\n      dup1\n      sload\n      tag_222\n      swap1\n      tag_148\n      jump\t// in\n    tag_222:\n      dup1\n      iszero\n      tag_223\n      jumpi\n      dup1\n      0x1f\n      lt\n      tag_224\n      jumpi\n      0x0100\n      dup1\n      dup4\n      sload\n      div\n      mul\n      dup4\n      mstore\n      swap2\n      0x20\n      add\n      swap2\n      jump(tag_223)\n    tag_224:\n      dup3\n      add\n      swap2\n      swap1\n      0x00\n      mstore\n      keccak256(0x00, 0x20)\n      swap1\n    tag_225:\n      dup2\n      sload\n      dup2\n      mstore\n      swap1\n      0x01\n      add\n      swap1\n      0x20\n      add\n      dup1\n      dup4\n      gt\n      tag_225\n      jumpi\n      dup3\n      swap1\n      sub\n      0x1f\n      and\n      dup3\n      add\n      swap2\n    tag_223:\n      pop\n      pop\n      pop\n      pop\n      pop\n      swap1\n      pop\n        /* \"@openzeppelin/contracts/token/ERC20/ERC20.sol\":1981:2074  function symbol() public view virtual returns (string memory) {... */\n      swap1\n      jump\t// out\n        /* \"@openzeppelin/contracts/token/ERC20/ERC20.sol\":3315:3493  function transfer(address to, uint256 value) public virtual returns (bool) {... */\n    tag_115:\n        /* \"@openzeppelin/contracts/token/ERC20/ERC20.sol\":3384:3388  bool */\n      0x00\n        /* \"@openzeppelin/contracts/token/ERC20/ERC20.sol\":3400:3413  address owner */\n      0x00\n        /* \"@openzeppelin/contracts/token/ERC20/ERC20.sol\":3416:3428  _msgSender() */\n      tag_227\n        /* \"@openzeppelin/contracts/token/ERC20/ERC20.sol\":3416:3426  _msgSender */\n      tag_155\n        /* \"@openzeppelin/contracts/token/ERC20/ERC20.sol\":3416:3428  _msgSender() */\n      jump\t// in\n    tag_227:\n        /* \"@openzeppelin/contracts/token/ERC20/ERC20.sol\":3400:3428  address owner = _msgSender() */\n      swap1\n      pop\n        /* \"@openzeppelin/contracts/token/ERC20/ERC20.sol\":3438:3465  _transfer(owner, to, value) */\n      tag_228\n        /* \"@openzeppelin/contracts/token/ERC20/ERC20.sol\":3448:3453  owner */\n      dup2\n        /* \"@openzeppelin/contracts/token/ERC20/ERC20.sol\":3455:3457  to */\n      dup6\n        /* \"@openzeppelin/contracts/token/ERC20/ERC20.sol\":3459:3464  value */\n      dup6\n        /* \"@openzeppelin/contracts/token/ERC20/ERC20.sol\":3438:3447  _transfer */\n      tag_164\n        /* \"@openzeppelin/contracts/token/ERC20/ERC20.sol\":3438:3465  _transfer(owner, to, value) */\n      jump\t// in\n    tag_228:\n        /* \"@openzeppelin/contracts/token/ERC20/ERC20.sol\":3482:3486  true */\n      0x01\n        /* \"@openzeppelin/contracts/token/ERC20/ERC20.sol\":3475:3486  return true */\n      swap2\n      pop\n      pop\n        /* \"@openzeppelin/contracts/token/ERC20/ERC20.sol\":3315:3493  function transfer(address to, uint256 value) public virtual returns (bool) {... */\n      swap3\n      swap2\n      pop\n      pop\n      jump\t// out\n        /* \"smart-contract/contracts/mem.sol\":1753:3176  function transfer(address sender, address recipient, uint256 amount) external{... */\n    tag_119:\n        /* \"smart-contract/contracts/mem.sol\":1867:1868  0 */\n      0x00\n        /* \"smart-contract/contracts/mem.sol\":1849:1869  sender != address(0) */\n      0xffffffffffffffffffffffffffffffffffffffff\n      and\n        /* \"smart-contract/contracts/mem.sol\":1849:1855  sender */\n      dup4\n        /* \"smart-contract/contracts/mem.sol\":1849:1869  sender != address(0) */\n      0xffffffffffffffffffffffffffffffffffffffff\n      and\n      sub\n        /* \"smart-contract/contracts/mem.sol\":1841:1890  require(sender != address(0), TransferFromZero()) */\n      tag_230\n      jumpi\n      mload(0x40)\n      0xf38f85c300000000000000000000000000000000000000000000000000000000\n      dup2\n      mstore\n      0x04\n      add\n      mload(0x40)\n      dup1\n      swap2\n      sub\n      swap1\n      revert\n    tag_230:\n        /* \"smart-contract/contracts/mem.sol\":1930:1931  0 */\n      0x00\n        /* \"smart-contract/contracts/mem.sol\":1909:1932  recipient != address(0) */\n      0xffffffffffffffffffffffffffffffffffffffff\n      and\n        /* \"smart-contract/contracts/mem.sol\":1909:1918  recipient */\n      dup3\n        /* \"smart-contract/contracts/mem.sol\":1909:1932  recipient != address(0) */\n      0xffffffffffffffffffffffffffffffffffffffff\n      and\n      sub\n        /* \"smart-contract/contracts/mem.sol\":1901:1951  require(recipient != address(0), TransferToZero()) */\n      tag_231\n      jumpi\n      mload(0x40)\n      0xa38ca3d900000000000000000000000000000000000000000000000000000000\n      dup2\n      mstore\n      0x04\n      add\n      mload(0x40)\n      dup1\n      swap2\n      sub\n      swap1\n      revert\n    tag_231:\n        /* \"smart-contract/contracts/mem.sol\":1968:1985  isExcludedFromTax */\n      0x0f\n        /* \"smart-contract/contracts/mem.sol\":1968:1993  isExcludedFromTax[sender] */\n      0x00\n        /* \"smart-contract/contracts/mem.sol\":1986:1992  sender */\n      dup5\n        /* \"smart-contract/contracts/mem.sol\":1968:1993  isExcludedFromTax[sender] */\n      0xffffffffffffffffffffffffffffffffffffffff\n      and\n      0xffffffffffffffffffffffffffffffffffffffff\n      and\n      dup2\n      mstore\n      0x20\n      add\n      swap1\n      dup2\n      mstore\n      0x20\n      add\n      0x00\n      keccak256\n      0x00\n      swap1\n      sload\n      swap1\n      0x0100\n      exp\n      swap1\n      div\n      0xff\n      and\n        /* \"smart-contract/contracts/mem.sol\":1968:2025  isExcludedFromTax[sender] || isExcludedFromTax[recipient] */\n      dup1\n      tag_232\n      jumpi\n      pop\n        /* \"smart-contract/contracts/mem.sol\":1997:2014  isExcludedFromTax */\n      0x0f\n        /* \"smart-contract/contracts/mem.sol\":1997:2025  isExcludedFromTax[recipient] */\n      0x00\n        /* \"smart-contract/contracts/mem.sol\":2015:2024  recipient */\n      dup4\n        /* \"smart-contract/contracts/mem.sol\":1997:2025  isExcludedFromTax[recipient] */\n      0xffffffffffffffffffffffffffffffffffffffff\n      and\n      0xffffffffffffffffffffffffffffffffffffffff\n      and\n      dup2\n      mstore\n      0x20\n      add\n      swap1\n      dup2\n      mstore\n      0x20\n      add\n      0x00\n      keccak256\n      0x00\n      swap1\n      sload\n      swap1\n      0x0100\n      exp\n      swap1\n      div\n      0xff\n      and\n        /* \"smart-contract/contracts/mem.sol\":1968:2025  isExcludedFromTax[sender] || isExcludedFromTax[recipient] */\n    tag_232:\n        /* \"smart-contract/contracts/mem.sol\":1964:2117  if (isExcludedFromTax[sender] || isExcludedFromTax[recipient]) {... */\n      iszero\n      tag_233\n      jumpi\n        /* \"smart-contract/contracts/mem.sol\":2042:2084  super._transfer(sender, recipient, amount) */\n      tag_234\n        /* \"smart-contract/contracts/mem.sol\":2058:2064  sender */\n      dup4\n        /* \"smart-contract/contracts/mem.sol\":2066:2075  recipient */\n      dup4\n        /* \"smart-contract/contracts/mem.sol\":2077:2083  amount */\n      dup4\n        /* \"smart-contract/contracts/mem.sol\":2042:2057  super._transfer */\n      tag_164\n        /* \"smart-contract/contracts/mem.sol\":2042:2084  super._transfer(sender, recipient, amount) */\n      jump\t// in\n    tag_234:\n        /* \"smart-contract/contracts/mem.sol\":2099:2106  return; */\n      jump(tag_229)\n        /* \"smart-contract/contracts/mem.sol\":1964:2117  if (isExcludedFromTax[sender] || isExcludedFromTax[recipient]) {... */\n    tag_233:\n        /* \"smart-contract/contracts/mem.sol\":2129:2139  bool isBuy */\n      0x00\n        /* \"smart-contract/contracts/mem.sol\":2155:2166  uniswapPair */\n      0x0e\n      0x00\n      swap1\n      sload\n      swap1\n      0x0100\n      exp\n      swap1\n      div\n      0xffffffffffffffffffffffffffffffffffffffff\n      and\n        /* \"smart-contract/contracts/mem.sol\":2142:2166  recipient == uniswapPair */\n      0xffffffffffffffffffffffffffffffffffffffff\n      and\n        /* \"smart-contract/contracts/mem.sol\":2142:2151  recipient */\n      dup4\n        /* \"smart-contract/contracts/mem.sol\":2142:2166  recipient == uniswapPair */\n      0xffffffffffffffffffffffffffffffffffffffff\n      and\n      eq\n        /* \"smart-contract/contracts/mem.sol\":2129:2166  bool isBuy = recipient == uniswapPair */\n      swap1\n      pop\n        /* \"smart-contract/contracts/mem.sol\":2177:2188  bool isSell */\n      0x00\n        /* \"smart-contract/contracts/mem.sol\":2201:2212  uniswapPair */\n      0x0e\n      0x00\n      swap1\n      sload\n      swap1\n      0x0100\n      exp\n      swap1\n      div\n      0xffffffffffffffffffffffffffffffffffffffff\n      and\n        /* \"smart-contract/contracts/mem.sol\":2191:2212  sender == uniswapPair */\n      0xffffffffffffffffffffffffffffffffffffffff\n      and\n        /* \"smart-contract/contracts/mem.sol\":2191:2197  sender */\n      dup6\n        /* \"smart-contract/contracts/mem.sol\":2191:2212  sender == uniswapPair */\n      0xffffffffffffffffffffffffffffffffffffffff\n      and\n      eq\n        /* \"smart-contract/contracts/mem.sol\":2177:2212  bool isSell = sender == uniswapPair */\n      swap1\n      pop\n        /* \"smart-contract/contracts/mem.sol\":2225:2242  uint256 taxAmount */\n      0x00\n        /* \"smart-contract/contracts/mem.sol\":2256:2261  isBuy */\n      dup3\n        /* \"smart-contract/contracts/mem.sol\":2253:2404  if(isBuy) {... */\n      iszero\n      tag_235\n      jumpi\n        /* \"smart-contract/contracts/mem.sol\":2310:2313  100 */\n      0x64\n        /* \"smart-contract/contracts/mem.sol\":2300:2306  buyTax */\n      sload(0x08)\n        /* \"smart-contract/contracts/mem.sol\":2291:2297  amount */\n      dup6\n        /* \"smart-contract/contracts/mem.sol\":2291:2306  amount * buyTax */\n      tag_236\n      swap2\n      swap1\n      tag_237\n      jump\t// in\n    tag_236:\n        /* \"smart-contract/contracts/mem.sol\":2290:2313  (amount * buyTax) / 100 */\n      tag_238\n      swap2\n      swap1\n      tag_239\n      jump\t// in\n    tag_238:\n        /* \"smart-contract/contracts/mem.sol\":2278:2313  taxAmount = (amount * buyTax) / 100 */\n      swap1\n      pop\n        /* \"smart-contract/contracts/mem.sol\":2253:2404  if(isBuy) {... */\n      jump(tag_240)\n    tag_235:\n        /* \"smart-contract/contracts/mem.sol\":2333:2339  isSell */\n      dup2\n        /* \"smart-contract/contracts/mem.sol\":2330:2404  if(isSell) {... */\n      iszero\n      tag_241\n      jumpi\n        /* \"smart-contract/contracts/mem.sol\":2389:2392  100 */\n      0x64\n        /* \"smart-contract/contracts/mem.sol\":2378:2385  sellTax */\n      sload(0x09)\n        /* \"smart-contract/contracts/mem.sol\":2369:2375  amount */\n      dup6\n        /* \"smart-contract/contracts/mem.sol\":2369:2385  amount * sellTax */\n      tag_242\n      swap2\n      swap1\n      tag_237\n      jump\t// in\n    tag_242:\n        /* \"smart-contract/contracts/mem.sol\":2368:2392  (amount * sellTax) / 100 */\n      tag_243\n      swap2\n      swap1\n      tag_239\n      jump\t// in\n    tag_243:\n        /* \"smart-contract/contracts/mem.sol\":2356:2392  taxAmount = (amount * sellTax) / 100 */\n      swap1\n      pop\n        /* \"smart-contract/contracts/mem.sol\":2330:2404  if(isSell) {... */\n    tag_241:\n        /* \"smart-contract/contracts/mem.sol\":2253:2404  if(isBuy) {... */\n    tag_240:\n        /* \"smart-contract/contracts/mem.sol\":2416:2433  uint256 netAmount */\n      0x00\n        /* \"smart-contract/contracts/mem.sol\":2445:2454  taxAmount */\n      dup2\n        /* \"smart-contract/contracts/mem.sol\":2436:2442  amount */\n      dup6\n        /* \"smart-contract/contracts/mem.sol\":2436:2454  amount - taxAmount */\n      tag_244\n      swap2\n      swap1\n      tag_245\n      jump\t// in\n    tag_244:\n        /* \"smart-contract/contracts/mem.sol\":2416:2454  uint256 netAmount = amount - taxAmount */\n      swap1\n      pop\n        /* \"smart-contract/contracts/mem.sol\":2495:2504  taxAmount */\n      dup2\n        /* \"smart-contract/contracts/mem.sol\":2483:2492  netAmount */\n      dup2\n        /* \"smart-contract/contracts/mem.sol\":2483:2504  netAmount + taxAmount */\n      tag_246\n      swap2\n      swap1\n      tag_247\n      jump\t// in\n    tag_246:\n        /* \"smart-contract/contracts/mem.sol\":2473:2479  amount */\n      dup6\n        /* \"smart-contract/contracts/mem.sol\":2473:2504  amount == netAmount + taxAmount */\n      eq\n        /* \"smart-contract/contracts/mem.sol\":2465:2524  require(amount == netAmount + taxAmount, ArithmeticError()) */\n      tag_248\n      jumpi\n      mload(0x40)\n      0x1f825c6a00000000000000000000000000000000000000000000000000000000\n      dup2\n      mstore\n      0x04\n      add\n      mload(0x40)\n      dup1\n      swap2\n      sub\n      swap1\n      revert\n    tag_248:\n        /* \"smart-contract/contracts/mem.sol\":2553:2554  0 */\n      0x00\n        /* \"smart-contract/contracts/mem.sol\":2541:2550  taxAmount */\n      dup3\n        /* \"smart-contract/contracts/mem.sol\":2541:2554  taxAmount > 0 */\n      gt\n        /* \"smart-contract/contracts/mem.sol\":2537:3111  if (taxAmount > 0) {... */\n      iszero\n      tag_249\n      jumpi\n        /* \"smart-contract/contracts/mem.sol\":2571:2620  super._transfer(sender, address(this), taxAmount) */\n      tag_250\n        /* \"smart-contract/contracts/mem.sol\":2587:2593  sender */\n      dup8\n        /* \"smart-contract/contracts/mem.sol\":2603:2607  this */\n      address\n        /* \"smart-contract/contracts/mem.sol\":2610:2619  taxAmount */\n      dup5\n        /* \"smart-contract/contracts/mem.sol\":2571:2586  super._transfer */\n      tag_164\n        /* \"smart-contract/contracts/mem.sol\":2571:2620  super._transfer(sender, address(this), taxAmount) */\n      jump\t// in\n    tag_250:\n        /* \"smart-contract/contracts/mem.sol\":2640:2663  TaxCollected(taxAmount) */\n      0x092c6768ba45dfdc937f94a27a0c5be8334952f1558bc7dd41b3e8707502e1b6\n        /* \"smart-contract/contracts/mem.sol\":2653:2662  taxAmount */\n      dup3\n        /* \"smart-contract/contracts/mem.sol\":2640:2663  TaxCollected(taxAmount) */\n      mload(0x40)\n      tag_251\n      swap2\n      swap1\n      tag_43\n      jump\t// in\n    tag_251:\n      mload(0x40)\n      dup1\n      swap2\n      sub\n      swap1\n      log1\n        /* \"smart-contract/contracts/mem.sol\":2680:2703  uint256 liquidityTokens */\n      0x00\n        /* \"smart-contract/contracts/mem.sol\":2737:2740  100 */\n      0x64\n        /* \"smart-contract/contracts/mem.sol\":2719:2733  liquidityShare */\n      sload(0x0a)\n        /* \"smart-contract/contracts/mem.sol\":2707:2716  taxAmount */\n      dup5\n        /* \"smart-contract/contracts/mem.sol\":2707:2733  taxAmount * liquidityShare */\n      tag_252\n      swap2\n      swap1\n      tag_237\n      jump\t// in\n    tag_252:\n        /* \"smart-contract/contracts/mem.sol\":2706:2740  (taxAmount * liquidityShare) / 100 */\n      tag_253\n      swap2\n      swap1\n      tag_239\n      jump\t// in\n    tag_253:\n        /* \"smart-contract/contracts/mem.sol\":2680:2740  uint256 liquidityTokens = (taxAmount * liquidityShare) / 100 */\n      swap1\n      pop\n        /* \"smart-contract/contracts/mem.sol\":2755:2773  uint256 burnTokens */\n      0x00\n        /* \"smart-contract/contracts/mem.sol\":2802:2805  100 */\n      0x64\n        /* \"smart-contract/contracts/mem.sol\":2789:2798  burnShare */\n      sload(0x0b)\n        /* \"smart-contract/contracts/mem.sol\":2777:2786  taxAmount */\n      dup6\n        /* \"smart-contract/contracts/mem.sol\":2777:2798  taxAmount * burnShare */\n      tag_254\n      swap2\n      swap1\n      tag_237\n      jump\t// in\n    tag_254:\n        /* \"smart-contract/contracts/mem.sol\":2776:2805  (taxAmount * burnShare) / 100 */\n      tag_255\n      swap2\n      swap1\n      tag_239\n      jump\t// in\n    tag_255:\n        /* \"smart-contract/contracts/mem.sol\":2755:2805  uint256 burnTokens = (taxAmount * burnShare) / 100 */\n      swap1\n      pop\n        /* \"smart-contract/contracts/mem.sol\":2820:2841  uint256 rewardsTokens */\n      0x00\n        /* \"smart-contract/contracts/mem.sol\":2874:2884  burnTokens */\n      dup2\n        /* \"smart-contract/contracts/mem.sol\":2856:2871  liquidityTokens */\n      dup4\n        /* \"smart-contract/contracts/mem.sol\":2844:2853  taxAmount */\n      dup7\n        /* \"smart-contract/contracts/mem.sol\":2844:2871  taxAmount - liquidityTokens */\n      tag_256\n      swap2\n      swap1\n      tag_245\n      jump\t// in\n    tag_256:\n        /* \"smart-contract/contracts/mem.sol\":2844:2884  taxAmount - liquidityTokens - burnTokens */\n      tag_257\n      swap2\n      swap1\n      tag_245\n      jump\t// in\n    tag_257:\n        /* \"smart-contract/contracts/mem.sol\":2820:2884  uint256 rewardsTokens = taxAmount - liquidityTokens - burnTokens */\n      swap1\n      pop\n        /* \"smart-contract/contracts/mem.sol\":2901:2961  super._transfer(address(this), uniswapPair, liquidityTokens) */\n      tag_258\n        /* \"smart-contract/contracts/mem.sol\":2925:2929  this */\n      address\n        /* \"smart-contract/contracts/mem.sol\":2932:2943  uniswapPair */\n      0x0e\n      0x00\n      swap1\n      sload\n      swap1\n      0x0100\n      exp\n      swap1\n      div\n      0xffffffffffffffffffffffffffffffffffffffff\n      and\n        /* \"smart-contract/contracts/mem.sol\":2945:2960  liquidityTokens */\n      dup6\n        /* \"smart-contract/contracts/mem.sol\":2901:2916  super._transfer */\n      tag_164\n        /* \"smart-contract/contracts/mem.sol\":2901:2961  super._transfer(address(this), uniswapPair, liquidityTokens) */\n      jump\t// in\n    tag_258:\n        /* \"smart-contract/contracts/mem.sol\":2990:3028  super._burn(address(this), burnTokens) */\n      tag_259\n        /* \"smart-contract/contracts/mem.sol\":3010:3014  this */\n      address\n        /* \"smart-contract/contracts/mem.sol\":3017:3027  burnTokens */\n      dup4\n        /* \"smart-contract/contracts/mem.sol\":2990:3001  super._burn */\n      tag_260\n        /* \"smart-contract/contracts/mem.sol\":2990:3028  super._burn(address(this), burnTokens) */\n      jump\t// in\n    tag_259:\n        /* \"smart-contract/contracts/mem.sol\":3045:3099  super._transfer(address(this), owner(), rewardsTokens) */\n      tag_261\n        /* \"smart-contract/contracts/mem.sol\":3069:3073  this */\n      address\n        /* \"smart-contract/contracts/mem.sol\":3076:3083  owner() */\n      tag_262\n        /* \"smart-contract/contracts/mem.sol\":3076:3081  owner */\n      tag_108\n        /* \"smart-contract/contracts/mem.sol\":3076:3083  owner() */\n      jump\t// in\n    tag_262:\n        /* \"smart-contract/contracts/mem.sol\":3085:3098  rewardsTokens */\n      dup4\n        /* \"smart-contract/contracts/mem.sol\":3045:3060  super._transfer */\n      tag_164\n        /* \"smart-contract/contracts/mem.sol\":3045:3099  super._transfer(address(this), owner(), rewardsTokens) */\n      jump\t// in\n    tag_261:\n        /* \"smart-contract/contracts/mem.sol\":2556:3111  {... */\n      pop\n      pop\n      pop\n        /* \"smart-contract/contracts/mem.sol\":2537:3111  if (taxAmount > 0) {... */\n    tag_249:\n        /* \"smart-contract/contracts/mem.sol\":3123:3168  super._transfer(sender, recipient, netAmount) */\n      tag_263\n        /* \"smart-contract/contracts/mem.sol\":3139:3145  sender */\n      dup8\n        /* \"smart-contract/contracts/mem.sol\":3147:3156  recipient */\n      dup8\n        /* \"smart-contract/contracts/mem.sol\":3158:3167  netAmount */\n      dup4\n        /* \"smart-contract/contracts/mem.sol\":3123:3138  super._transfer */\n      tag_164\n        /* \"smart-contract/contracts/mem.sol\":3123:3168  super._transfer(sender, recipient, netAmount) */\n      jump\t// in\n    tag_263:\n        /* \"smart-contract/contracts/mem.sol\":1830:3176  {... */\n      pop\n      pop\n      pop\n      pop\n        /* \"smart-contract/contracts/mem.sol\":1753:3176  function transfer(address sender, address recipient, uint256 amount) external{... */\n    tag_229:\n      pop\n      pop\n      pop\n      jump\t// out\n        /* \"smart-contract/contracts/mem.sol\":4423:4624  function setTaxes(uint256 _buyTax, uint256 _sellTax) external onlyOwner {... */\n    tag_123:\n        /* \"@openzeppelin/contracts/access/Ownable.sol\":1531:1544  _checkOwner() */\n      tag_265\n        /* \"@openzeppelin/contracts/access/Ownable.sol\":1531:1542  _checkOwner */\n      tag_167\n        /* \"@openzeppelin/contracts/access/Ownable.sol\":1531:1544  _checkOwner() */\n      jump\t// in\n    tag_265:\n        /* \"smart-contract/contracts/mem.sol\":4525:4527  10 */\n      0x0a\n        /* \"smart-contract/contracts/mem.sol\":4514:4521  _buyTax */\n      dup3\n        /* \"smart-contract/contracts/mem.sol\":4514:4527  _buyTax <= 10 */\n      gt\n      iszero\n        /* \"smart-contract/contracts/mem.sol\":4514:4545  _buyTax <= 10 && _sellTax <= 20 */\n      dup1\n      iszero\n      tag_267\n      jumpi\n      pop\n        /* \"smart-contract/contracts/mem.sol\":4543:4545  20 */\n      0x14\n        /* \"smart-contract/contracts/mem.sol\":4531:4539  _sellTax */\n      dup2\n        /* \"smart-contract/contracts/mem.sol\":4531:4545  _sellTax <= 20 */\n      gt\n      iszero\n        /* \"smart-contract/contracts/mem.sol\":4514:4545  _buyTax <= 10 && _sellTax <= 20 */\n    tag_267:\n        /* \"smart-contract/contracts/mem.sol\":4506:4560  require(_buyTax <= 10 && _sellTax <= 20, TaxTooHigh()) */\n      tag_268\n      jumpi\n      mload(0x40)\n      0xaf1ee13400000000000000000000000000000000000000000000000000000000\n      dup2\n      mstore\n      0x04\n      add\n      mload(0x40)\n      dup1\n      swap2\n      sub\n      swap1\n      revert\n    tag_268:\n        /* \"smart-contract/contracts/mem.sol\":4580:4587  _buyTax */\n      dup2\n        /* \"smart-contract/contracts/mem.sol\":4571:4577  buyTax */\n      0x08\n        /* \"smart-contract/contracts/mem.sol\":4571:4587  buyTax = _buyTax */\n      dup2\n      swap1\n      sstore\n      pop\n        /* \"smart-contract/contracts/mem.sol\":4608:4616  _sellTax */\n      dup1\n        /* \"smart-contract/contracts/mem.sol\":4598:4605  sellTax */\n      0x09\n        /* \"smart-contract/contracts/mem.sol\":4598:4616  sellTax = _sellTax */\n      dup2\n      swap1\n      sstore\n      pop\n        /* \"smart-contract/contracts/mem.sol\":4423:4624  function setTaxes(uint256 _buyTax, uint256 _sellTax) external onlyOwner {... */\n      pop\n      pop\n      jump\t// out\n        /* \"smart-contract/contracts/mem.sol\":4179:4310  function excludeFromTax(address account, bool excluded) external onlyOwner {... */\n    tag_127:\n        /* \"@openzeppelin/contracts/access/Ownable.sol\":1531:1544  _checkOwner() */\n      tag_270\n        /* \"@openzeppelin/contracts/access/Ownable.sol\":1531:1542  _checkOwner */\n      tag_167\n        /* \"@openzeppelin/contracts/access/Ownable.sol\":1531:1544  _checkOwner() */\n      jump\t// in\n    tag_270:\n        /* \"smart-contract/contracts/mem.sol\":4294:4302  excluded */\n      dup1\n        /* \"smart-contract/contracts/mem.sol\":4265:4282  isExcludedFromTax */\n      0x0f\n        /* \"smart-contract/contracts/mem.sol\":4265:4291  isExcludedFromTax[account] */\n      0x00\n        /* \"smart-contract/contracts/mem.sol\":4283:4290  account */\n      dup5\n        /* \"smart-contract/contracts/mem.sol\":4265:4291  isExcludedFromTax[account] */\n      0xffffffffffffffffffffffffffffffffffffffff\n      and\n      0xffffffffffffffffffffffffffffffffffffffff\n      and\n      dup2\n      mstore\n      0x20\n      add\n      swap1\n      dup2\n      mstore\n      0x20\n      add\n      0x00\n      keccak256\n      0x00\n        /* \"smart-contract/contracts/mem.sol\":4265:4302  isExcludedFromTax[account] = excluded */\n      0x0100\n      exp\n      dup2\n      sload\n      dup2\n      0xff\n      mul\n      not\n      and\n      swap1\n      dup4\n      iszero\n      iszero\n      mul\n      or\n      swap1\n      sstore\n      pop\n        /* \"smart-contract/contracts/mem.sol\":4179:4310  function excludeFromTax(address account, bool excluded) external onlyOwner {... */\n      pop\n      pop\n      jump\t// out\n        /* \"smart-contract/contracts/mem.sol\":951:977  address public uniswapPair */\n    tag_129:\n      0x0e\n      0x00\n      swap1\n      sload\n      swap1\n      0x0100\n      exp\n      swap1\n      div\n      0xffffffffffffffffffffffffffffffffffffffff\n      and\n      dup2\n      jump\t// out\n        /* \"smart-contract/contracts/mem.sol\":1074:1123  mapping(address => bool) public isExcludedFromTax */\n    tag_133:\n      mstore(0x20, 0x0f)\n      dup1\n      0x00\n      mstore\n      keccak256(0x00, 0x40)\n      0x00\n      swap2\n      pop\n      sload\n      swap1\n      0x0100\n      exp\n      swap1\n      div\n      0xff\n      and\n      dup2\n      jump\t// out\n        /* \"smart-contract/contracts/mem.sol\":753:780  uint256 public sellTax = 10 */\n    tag_136:\n      sload(0x09)\n      dup2\n      jump\t// out\n        /* \"@openzeppelin/contracts/token/ERC20/ERC20.sol\":3551:3691  function allowance(address owner, address spender) public view virtual returns (uint256) {... */\n    tag_141:\n        /* \"@openzeppelin/contracts/token/ERC20/ERC20.sol\":3631:3638  uint256 */\n      0x00\n        /* \"@openzeppelin/contracts/token/ERC20/ERC20.sol\":3657:3668  _allowances */\n      0x01\n        /* \"@openzeppelin/contracts/token/ERC20/ERC20.sol\":3657:3675  _allowances[owner] */\n      0x00\n        /* \"@openzeppelin/contracts/token/ERC20/ERC20.sol\":3669:3674  owner */\n      dup5\n        /* \"@openzeppelin/contracts/token/ERC20/ERC20.sol\":3657:3675  _allowances[owner] */\n      0xffffffffffffffffffffffffffffffffffffffff\n      and\n      0xffffffffffffffffffffffffffffffffffffffff\n      and\n      dup2\n      mstore\n      0x20\n      add\n      swap1\n      dup2\n      mstore\n      0x20\n      add\n      0x00\n      keccak256\n        /* \"@openzeppelin/contracts/token/ERC20/ERC20.sol\":3657:3684  _allowances[owner][spender] */\n      0x00\n        /* \"@openzeppelin/contracts/token/ERC20/ERC20.sol\":3676:3683  spender */\n      dup4\n        /* \"@openzeppelin/contracts/token/ERC20/ERC20.sol\":3657:3684  _allowances[owner][spender] */\n      0xffffffffffffffffffffffffffffffffffffffff\n      and\n      0xffffffffffffffffffffffffffffffffffffffff\n      and\n      dup2\n      mstore\n      0x20\n      add\n      swap1\n      dup2\n      mstore\n      0x20\n      add\n      0x00\n      keccak256\n      sload\n        /* \"@openzeppelin/contracts/token/ERC20/ERC20.sol\":3650:3684  return _allowances[owner][spender] */\n      swap1\n      pop\n        /* \"@openzeppelin/contracts/token/ERC20/ERC20.sol\":3551:3691  function allowance(address owner, address spender) public view virtual returns (uint256) {... */\n      swap3\n      swap2\n      pop\n      pop\n      jump\t// out\n        /* \"@openzeppelin/contracts/access/Ownable.sol\":2543:2758  function transferOwnership(address newOwner) public virtual onlyOwner {... */\n    tag_145:\n        /* \"@openzeppelin/contracts/access/Ownable.sol\":1531:1544  _checkOwner() */\n      tag_274\n        /* \"@openzeppelin/contracts/access/Ownable.sol\":1531:1542  _checkOwner */\n      tag_167\n        /* \"@openzeppelin/contracts/access/Ownable.sol\":1531:1544  _checkOwner() */\n      jump\t// in\n    tag_274:\n        /* \"@openzeppelin/contracts/access/Ownable.sol\":2647:2648  0 */\n      0x00\n        /* \"@openzeppelin/contracts/access/Ownable.sol\":2627:2649  newOwner == address(0) */\n      0xffffffffffffffffffffffffffffffffffffffff\n      and\n        /* \"@openzeppelin/contracts/access/Ownable.sol\":2627:2635  newOwner */\n      dup2\n        /* \"@openzeppelin/contracts/access/Ownable.sol\":2627:2649  newOwner == address(0) */\n      0xffffffffffffffffffffffffffffffffffffffff\n      and\n      sub\n        /* \"@openzeppelin/contracts/access/Ownable.sol\":2623:2714  if (newOwner == address(0)) {... */\n      tag_276\n      jumpi\n        /* \"@openzeppelin/contracts/access/Ownable.sol\":2700:2701  0 */\n      0x00\n        /* \"@openzeppelin/contracts/access/Ownable.sol\":2672:2703  OwnableInvalidOwner(address(0)) */\n      mload(0x40)\n      0x1e4fbdf700000000000000000000000000000000000000000000000000000000\n      dup2\n      mstore\n      0x04\n      add\n      tag_277\n      swap2\n      swap1\n      tag_88\n      jump\t// in\n    tag_277:\n      mload(0x40)\n      dup1\n      swap2\n      sub\n      swap1\n      revert\n        /* \"@openzeppelin/contracts/access/Ownable.sol\":2623:2714  if (newOwner == address(0)) {... */\n    tag_276:\n        /* \"@openzeppelin/contracts/access/Ownable.sol\":2723:2751  _transferOwnership(newOwner) */\n      tag_278\n        /* \"@openzeppelin/contracts/access/Ownable.sol\":2742:2750  newOwner */\n      dup2\n        /* \"@openzeppelin/contracts/access/Ownable.sol\":2723:2741  _transferOwnership */\n      tag_213\n        /* \"@openzeppelin/contracts/access/Ownable.sol\":2723:2751  _transferOwnership(newOwner) */\n      jump\t// in\n    tag_278:\n        /* \"@openzeppelin/contracts/access/Ownable.sol\":2543:2758  function transferOwnership(address newOwner) public virtual onlyOwner {... */\n      pop\n      jump\t// out\n        /* \"@openzeppelin/contracts/utils/Context.sol\":656:752  function _msgSender() internal view virtual returns (address) {... */\n    tag_155:\n        /* \"@openzeppelin/contracts/utils/Context.sol\":709:716  address */\n      0x00\n        /* \"@openzeppelin/contracts/utils/Context.sol\":735:745  msg.sender */\n      caller\n        /* \"@openzeppelin/contracts/utils/Context.sol\":728:745  return msg.sender */\n      swap1\n      pop\n        /* \"@openzeppelin/contracts/utils/Context.sol\":656:752  function _msgSender() internal view virtual returns (address) {... */\n      swap1\n      jump\t// out\n        /* \"@openzeppelin/contracts/token/ERC20/ERC20.sol\":8726:8854  function _approve(address owner, address spender, uint256 value) internal {... */\n    tag_157:\n        /* \"@openzeppelin/contracts/token/ERC20/ERC20.sol\":8810:8847  _approve(owner, spender, value, true) */\n      tag_281\n        /* \"@openzeppelin/contracts/token/ERC20/ERC20.sol\":8819:8824  owner */\n      dup4\n        /* \"@openzeppelin/contracts/token/ERC20/ERC20.sol\":8826:8833  spender */\n      dup4\n        /* \"@openzeppelin/contracts/token/ERC20/ERC20.sol\":8835:8840  value */\n      dup4\n        /* \"@openzeppelin/contracts/token/ERC20/ERC20.sol\":8842:8846  true */\n      0x01\n        /* \"@openzeppelin/contracts/token/ERC20/ERC20.sol\":8810:8818  _approve */\n      tag_282\n        /* \"@openzeppelin/contracts/token/ERC20/ERC20.sol\":8810:8847  _approve(owner, spender, value, true) */\n      jump\t// in\n    tag_281:\n        /* \"@openzeppelin/contracts/token/ERC20/ERC20.sol\":8726:8854  function _approve(address owner, address spender, uint256 value) internal {... */\n      pop\n      pop\n      pop\n      jump\t// out\n        /* \"@openzeppelin/contracts/token/ERC20/ERC20.sol\":10415:10891  function _spendAllowance(address owner, address spender, uint256 value) internal virtual {... */\n    tag_162:\n        /* \"@openzeppelin/contracts/token/ERC20/ERC20.sol\":10514:10538  uint256 currentAllowance */\n      0x00\n        /* \"@openzeppelin/contracts/token/ERC20/ERC20.sol\":10541:10566  allowance(owner, spender) */\n      tag_284\n        /* \"@openzeppelin/contracts/token/ERC20/ERC20.sol\":10551:10556  owner */\n      dup5\n        /* \"@openzeppelin/contracts/token/ERC20/ERC20.sol\":10558:10565  spender */\n      dup5\n        /* \"@openzeppelin/contracts/token/ERC20/ERC20.sol\":10541:10550  allowance */\n      tag_141\n        /* \"@openzeppelin/contracts/token/ERC20/ERC20.sol\":10541:10566  allowance(owner, spender) */\n      jump\t// in\n    tag_284:\n        /* \"@openzeppelin/contracts/token/ERC20/ERC20.sol\":10514:10566  uint256 currentAllowance = allowance(owner, spender) */\n      swap1\n      pop\n        /* \"@openzeppelin/contracts/token/ERC20/ERC20.sol\":10599:10616  type(uint256).max */\n      0xffffffffffffffffffffffffffffffffffffffffffffffffffffffffffffffff\n        /* \"@openzeppelin/contracts/token/ERC20/ERC20.sol\":10580:10596  currentAllowance */\n      dup2\n        /* \"@openzeppelin/contracts/token/ERC20/ERC20.sol\":10580:10616  currentAllowance < type(uint256).max */\n      lt\n        /* \"@openzeppelin/contracts/token/ERC20/ERC20.sol\":10576:10885  if (currentAllowance < type(uint256).max) {... */\n      iszero\n      tag_285\n      jumpi\n        /* \"@openzeppelin/contracts/token/ERC20/ERC20.sol\":10655:10660  value */\n      dup2\n        /* \"@openzeppelin/contracts/token/ERC20/ERC20.sol\":10636:10652  currentAllowance */\n      dup2\n        /* \"@openzeppelin/contracts/token/ERC20/ERC20.sol\":10636:10660  currentAllowance < value */\n      lt\n        /* \"@openzeppelin/contracts/token/ERC20/ERC20.sol\":10632:10762  if (currentAllowance < value) {... */\n      iszero\n      tag_286\n      jumpi\n        /* \"@openzeppelin/contracts/token/ERC20/ERC20.sol\":10714:10721  spender */\n      dup3\n        /* \"@openzeppelin/contracts/token/ERC20/ERC20.sol\":10723:10739  currentAllowance */\n      dup2\n        /* \"@openzeppelin/contracts/token/ERC20/ERC20.sol\":10741:10746  value */\n      dup4\n        /* \"@openzeppelin/contracts/token/ERC20/ERC20.sol\":10687:10747  ERC20InsufficientAllowance(spender, currentAllowance, value) */\n      mload(0x40)\n      0xfb8f41b200000000000000000000000000000000000000000000000000000000\n      dup2\n      mstore\n      0x04\n      add\n      tag_287\n      swap4\n      swap3\n      swap2\n      swap1\n      tag_288\n      jump\t// in\n    tag_287:\n      mload(0x40)\n      dup1\n      swap2\n      sub\n      swap1\n      revert\n        /* \"@openzeppelin/contracts/token/ERC20/ERC20.sol\":10632:10762  if (currentAllowance < value) {... */\n    tag_286:\n        /* \"@openzeppelin/contracts/token/ERC20/ERC20.sol\":10803:10860  _approve(owner, spender, currentAllowance - value, false) */\n      tag_289\n        /* \"@openzeppelin/contracts/token/ERC20/ERC20.sol\":10812:10817  owner */\n      dup5\n        /* \"@openzeppelin/contracts/token/ERC20/ERC20.sol\":10819:10826  spender */\n      dup5\n        /* \"@openzeppelin/contracts/token/ERC20/ERC20.sol\":10847:10852  value */\n      dup5\n        /* \"@openzeppelin/contracts/token/ERC20/ERC20.sol\":10828:10844  currentAllowance */\n      dup5\n        /* \"@openzeppelin/contracts/token/ERC20/ERC20.sol\":10828:10852  currentAllowance - value */\n      sub\n        /* \"@openzeppelin/contracts/token/ERC20/ERC20.sol\":10854:10859  false */\n      0x00\n        /* \"@openzeppelin/contracts/token/ERC20/ERC20.sol\":10803:10811  _approve */\n      tag_282\n        /* \"@openzeppelin/contracts/token/ERC20/ERC20.sol\":10803:10860  _approve(owner, spender, currentAllowance - value, false) */\n      jump\t// in\n    tag_289:\n        /* \"@openzeppelin/contracts/token/ERC20/ERC20.sol\":10576:10885  if (currentAllowance < type(uint256).max) {... */\n    tag_285:\n        /* \"@openzeppelin/contracts/token/ERC20/ERC20.sol\":10504:10891  {... */\n      pop\n        /* \"@openzeppelin/contracts/token/ERC20/ERC20.sol\":10415:10891  function _spendAllowance(address owner, address spender, uint256 value) internal virtual {... */\n      pop\n      pop\n      pop\n      jump\t// out\n        /* \"@openzeppelin/contracts/token/ERC20/ERC20.sol\":5393:5693  function _transfer(address from, address to, uint256 value) internal {... */\n    tag_164:\n        /* \"@openzeppelin/contracts/token/ERC20/ERC20.sol\":5492:5493  0 */\n      0x00\n        /* \"@openzeppelin/contracts/token/ERC20/ERC20.sol\":5476:5494  from == address(0) */\n      0xffffffffffffffffffffffffffffffffffffffff\n      and\n        /* \"@openzeppelin/contracts/token/ERC20/ERC20.sol\":5476:5480  from */\n      dup4\n        /* \"@openzeppelin/contracts/token/ERC20/ERC20.sol\":5476:5494  from == address(0) */\n      0xffffffffffffffffffffffffffffffffffffffff\n      and\n      sub\n        /* \"@openzeppelin/contracts/token/ERC20/ERC20.sol\":5472:5558  if (from == address(0)) {... */\n      tag_291\n      jumpi\n        /* \"@openzeppelin/contracts/token/ERC20/ERC20.sol\":5544:5545  0 */\n      0x00\n        /* \"@openzeppelin/contracts/token/ERC20/ERC20.sol\":5517:5547  ERC20InvalidSender(address(0)) */\n      mload(0x40)\n      0x96c6fd1e00000000000000000000000000000000000000000000000000000000\n      dup2\n      mstore\n      0x04\n      add\n      tag_292\n      swap2\n      swap1\n      tag_88\n      jump\t// in\n    tag_292:\n      mload(0x40)\n      dup1\n      swap2\n      sub\n      swap1\n      revert\n        /* \"@openzeppelin/contracts/token/ERC20/ERC20.sol\":5472:5558  if (from == address(0)) {... */\n    tag_291:\n        /* \"@openzeppelin/contracts/token/ERC20/ERC20.sol\":5585:5586  0 */\n      0x00\n        /* \"@openzeppelin/contracts/token/ERC20/ERC20.sol\":5571:5587  to == address(0) */\n      0xffffffffffffffffffffffffffffffffffffffff\n      and\n        /* \"@openzeppelin/contracts/token/ERC20/ERC20.sol\":5571:5573  to */\n      dup3\n        /* \"@openzeppelin/contracts/token/ERC20/ERC20.sol\":5571:5587  to == address(0) */\n      0xffffffffffffffffffffffffffffffffffffffff\n      and\n      sub\n        /* \"@openzeppelin/contracts/token/ERC20/ERC20.sol\":5567:5653  if (to == address(0)) {... */\n      tag_293\n      jumpi\n        /* \"@openzeppelin/contracts/token/ERC20/ERC20.sol\":5639:5640  0 */\n      0x00\n        /* \"@openzeppelin/contracts/token/ERC20/ERC20.sol\":5610:5642  ERC20InvalidReceiver(address(0)) */\n      mload(0x40)\n      0xec442f0500000000000000000000000000000000000000000000000000000000\n      dup2\n      mstore\n      0x04\n      add\n      tag_294\n      swap2\n      swap1\n      tag_88\n      jump\t// in\n    tag_294:\n      mload(0x40)\n      dup1\n      swap2\n      sub\n      swap1\n      revert\n        /* \"@openzeppelin/contracts/token/ERC20/ERC20.sol\":5567:5653  if (to == address(0)) {... */\n    tag_293:\n        /* \"@openzeppelin/contracts/token/ERC20/ERC20.sol\":5662:5686  _update(from, to, value) */\n      tag_295\n        /* \"@openzeppelin/contracts/token/ERC20/ERC20.sol\":5670:5674  from */\n      dup4\n        /* \"@openzeppelin/contracts/token/ERC20/ERC20.sol\":5676:5678  to */\n      dup4\n        /* \"@openzeppelin/contracts/token/ERC20/ERC20.sol\":5680:5685  value */\n      dup4\n        /* \"@openzeppelin/contracts/token/ERC20/ERC20.sol\":5662:5669  _update */\n      tag_296\n        /* \"@openzeppelin/contracts/token/ERC20/ERC20.sol\":5662:5686  _update(from, to, value) */\n      jump\t// in\n    tag_295:\n        /* \"@openzeppelin/contracts/token/ERC20/ERC20.sol\":5393:5693  function _transfer(address from, address to, uint256 value) internal {... */\n      pop\n      pop\n      pop\n      jump\t// out\n        /* \"@openzeppelin/contracts/access/Ownable.sol\":1796:1958  function _checkOwner() internal view virtual {... */\n    tag_167:\n        /* \"@openzeppelin/contracts/access/Ownable.sol\":1866:1878  _msgSender() */\n      tag_298\n        /* \"@openzeppelin/contracts/access/Ownable.sol\":1866:1876  _msgSender */\n      tag_155\n        /* \"@openzeppelin/contracts/access/Ownable.sol\":1866:1878  _msgSender() */\n      jump\t// in\n    tag_298:\n        /* \"@openzeppelin/contracts/access/Ownable.sol\":1855:1878  owner() != _msgSender() */\n      0xffffffffffffffffffffffffffffffffffffffff\n      and\n        /* \"@openzeppelin/contracts/access/Ownable.sol\":1855:1862  owner() */\n      tag_299\n        /* \"@openzeppelin/contracts/access/Ownable.sol\":1855:1860  owner */\n      tag_108\n        /* \"@openzeppelin/contracts/access/Ownable.sol\":1855:1862  owner() */\n      jump\t// in\n    tag_299:\n        /* \"@openzeppelin/contracts/access/Ownable.sol\":1855:1878  owner() != _msgSender() */\n      0xffffffffffffffffffffffffffffffffffffffff\n      and\n      eq\n        /* \"@openzeppelin/contracts/access/Ownable.sol\":1851:1952  if (owner() != _msgSender()) {... */\n      tag_300\n      jumpi\n        /* \"@openzeppelin/contracts/access/Ownable.sol\":1928:1940  _msgSender() */\n      tag_301\n        /* \"@openzeppelin/contracts/access/Ownable.sol\":1928:1938  _msgSender */\n      tag_155\n        /* \"@openzeppelin/contracts/access/Ownable.sol\":1928:1940  _msgSender() */\n      jump\t// in\n    tag_301:\n        /* \"@openzeppelin/contracts/access/Ownable.sol\":1901:1941  OwnableUnauthorizedAccount(_msgSender()) */\n      mload(0x40)\n      0x118cdaa700000000000000000000000000000000000000000000000000000000\n      dup2\n      mstore\n      0x04\n      add\n      tag_302\n      swap2\n      swap1\n      tag_88\n      jump\t// in\n    tag_302:\n      mload(0x40)\n      dup1\n      swap2\n      sub\n      swap1\n      revert\n        /* \"@openzeppelin/contracts/access/Ownable.sol\":1851:1952  if (owner() != _msgSender()) {... */\n    tag_300:\n        /* \"@openzeppelin/contracts/access/Ownable.sol\":1796:1958  function _checkOwner() internal view virtual {... */\n      jump\t// out\n        /* \"@openzeppelin/contracts/utils/ReentrancyGuard.sol\":2575:2882  function _nonReentrantBefore() private {... */\n    tag_170:\n        /* \"@openzeppelin/contracts/utils/ReentrancyGuard.sol\":1899:1900  2 */\n      0x02\n        /* \"@openzeppelin/contracts/utils/ReentrancyGuard.sol\":2702:2709  _status */\n      sload(0x06)\n        /* \"@openzeppelin/contracts/utils/ReentrancyGuard.sol\":2702:2720  _status == ENTERED */\n      sub\n        /* \"@openzeppelin/contracts/utils/ReentrancyGuard.sol\":2698:2784  if (_status == ENTERED) {... */\n      tag_304\n      jumpi\n        /* \"@openzeppelin/contracts/utils/ReentrancyGuard.sol\":2743:2773  ReentrancyGuardReentrantCall() */\n      mload(0x40)\n      0x3ee5aeb500000000000000000000000000000000000000000000000000000000\n      dup2\n      mstore\n      0x04\n      add\n      mload(0x40)\n      dup1\n      swap2\n      sub\n      swap1\n      revert\n        /* \"@openzeppelin/contracts/utils/ReentrancyGuard.sol\":2698:2784  if (_status == ENTERED) {... */\n    tag_304:\n        /* \"@openzeppelin/contracts/utils/ReentrancyGuard.sol\":1899:1900  2 */\n      0x02\n        /* \"@openzeppelin/contracts/utils/ReentrancyGuard.sol\":2858:2865  _status */\n      0x06\n        /* \"@openzeppelin/contracts/utils/ReentrancyGuard.sol\":2858:2875  _status = ENTERED */\n      dup2\n      swap1\n      sstore\n      pop\n        /* \"@openzeppelin/contracts/utils/ReentrancyGuard.sol\":2575:2882  function _nonReentrantBefore() private {... */\n      jump\t// out\n        /* \"@openzeppelin/contracts/utils/ReentrancyGuard.sol\":2888:3096  function _nonReentrantAfter() private {... */\n    tag_178:\n        /* \"@openzeppelin/contracts/utils/ReentrancyGuard.sol\":1857:1858  1 */\n      0x01\n        /* \"@openzeppelin/contracts/utils/ReentrancyGuard.sol\":3068:3075  _status */\n      0x06\n        /* \"@openzeppelin/contracts/utils/ReentrancyGuard.sol\":3068:3089  _status = NOT_ENTERED */\n      dup2\n      swap1\n      sstore\n      pop\n        /* \"@openzeppelin/contracts/utils/ReentrancyGuard.sol\":2888:3096  function _nonReentrantAfter() private {... */\n      jump\t// out\n        /* \"@openzeppelin/contracts/utils/Pausable.sol\":2710:2827  function _unpause() internal virtual whenPaused {... */\n    tag_184:\n        /* \"@openzeppelin/contracts/utils/Pausable.sol\":1721:1737  _requirePaused() */\n      tag_307\n        /* \"@openzeppelin/contracts/utils/Pausable.sol\":1721:1735  _requirePaused */\n      tag_308\n        /* \"@openzeppelin/contracts/utils/Pausable.sol\":1721:1737  _requirePaused() */\n      jump\t// in\n    tag_307:\n        /* \"@openzeppelin/contracts/utils/Pausable.sol\":2778:2783  false */\n      0x00\n        /* \"@openzeppelin/contracts/utils/Pausable.sol\":2768:2775  _paused */\n      0x07\n      0x00\n        /* \"@openzeppelin/contracts/utils/Pausable.sol\":2768:2783  _paused = false */\n      0x0100\n      exp\n      dup2\n      sload\n      dup2\n      0xff\n      mul\n      not\n      and\n      swap1\n      dup4\n      iszero\n      iszero\n      mul\n      or\n      swap1\n      sstore\n      pop\n        /* \"@openzeppelin/contracts/utils/Pausable.sol\":2798:2820  Unpaused(_msgSender()) */\n      0x5db9ee0a495bf2e6ff9c91a7834c1ba4fdd244a5e8aa4e537bd38aeae4b073aa\n        /* \"@openzeppelin/contracts/utils/Pausable.sol\":2807:2819  _msgSender() */\n      tag_310\n        /* \"@openzeppelin/contracts/utils/Pausable.sol\":2807:2817  _msgSender */\n      tag_155\n        /* \"@openzeppelin/contracts/utils/Pausable.sol\":2807:2819  _msgSender() */\n      jump\t// in\n    tag_310:\n        /* \"@openzeppelin/contracts/utils/Pausable.sol\":2798:2820  Unpaused(_msgSender()) */\n      mload(0x40)\n      tag_311\n      swap2\n      swap1\n      tag_88\n      jump\t// in\n    tag_311:\n      mload(0x40)\n      dup1\n      swap2\n      sub\n      swap1\n      log1\n        /* \"@openzeppelin/contracts/utils/Pausable.sol\":2710:2827  function _unpause() internal virtual whenPaused {... */\n      jump\t// out\n        /* \"@openzeppelin/contracts/token/ERC20/ERC20.sol\":7458:7666  function _mint(address account, uint256 value) internal {... */\n    tag_189:\n        /* \"@openzeppelin/contracts/token/ERC20/ERC20.sol\":7547:7548  0 */\n      0x00\n        /* \"@openzeppelin/contracts/token/ERC20/ERC20.sol\":7528:7549  account == address(0) */\n      0xffffffffffffffffffffffffffffffffffffffff\n      and\n        /* \"@openzeppelin/contracts/token/ERC20/ERC20.sol\":7528:7535  account */\n      dup3\n        /* \"@openzeppelin/contracts/token/ERC20/ERC20.sol\":7528:7549  account == address(0) */\n      0xffffffffffffffffffffffffffffffffffffffff\n      and\n      sub\n        /* \"@openzeppelin/contracts/token/ERC20/ERC20.sol\":7524:7615  if (account == address(0)) {... */\n      tag_313\n      jumpi\n        /* \"@openzeppelin/contracts/token/ERC20/ERC20.sol\":7601:7602  0 */\n      0x00\n        /* \"@openzeppelin/contracts/token/ERC20/ERC20.sol\":7572:7604  ERC20InvalidReceiver(address(0)) */\n      mload(0x40)\n      0xec442f0500000000000000000000000000000000000000000000000000000000\n      dup2\n      mstore\n      0x04\n      add\n      tag_314\n      swap2\n      swap1\n      tag_88\n      jump\t// in\n    tag_314:\n      mload(0x40)\n      dup1\n      swap2\n      sub\n      swap1\n      revert\n        /* \"@openzeppelin/contracts/token/ERC20/ERC20.sol\":7524:7615  if (account == address(0)) {... */\n    tag_313:\n        /* \"@openzeppelin/contracts/token/ERC20/ERC20.sol\":7624:7659  _update(address(0), account, value) */\n      tag_315\n        /* \"@openzeppelin/contracts/token/ERC20/ERC20.sol\":7640:7641  0 */\n      0x00\n        /* \"@openzeppelin/contracts/token/ERC20/ERC20.sol\":7644:7651  account */\n      dup4\n        /* \"@openzeppelin/contracts/token/ERC20/ERC20.sol\":7653:7658  value */\n      dup4\n        /* \"@openzeppelin/contracts/token/ERC20/ERC20.sol\":7624:7631  _update */\n      tag_296\n        /* \"@openzeppelin/contracts/token/ERC20/ERC20.sol\":7624:7659  _update(address(0), account, value) */\n      jump\t// in\n    tag_315:\n        /* \"@openzeppelin/contracts/token/ERC20/ERC20.sol\":7458:7666  function _mint(address account, uint256 value) internal {... */\n      pop\n      pop\n      jump\t// out\n        /* \"@openzeppelin/contracts/access/Ownable.sol\":2912:3099  function _transferOwnership(address newOwner) internal virtual {... */\n    tag_213:\n        /* \"@openzeppelin/contracts/access/Ownable.sol\":2985:3001  address oldOwner */\n      0x00\n        /* \"@openzeppelin/contracts/access/Ownable.sol\":3004:3010  _owner */\n      0x05\n      0x00\n      swap1\n      sload\n      swap1\n      0x0100\n      exp\n      swap1\n      div\n      0xffffffffffffffffffffffffffffffffffffffff\n      and\n        /* \"@openzeppelin/contracts/access/Ownable.sol\":2985:3010  address oldOwner = _owner */\n      swap1\n      pop\n        /* \"@openzeppelin/contracts/access/Ownable.sol\":3029:3037  newOwner */\n      dup2\n        /* \"@openzeppelin/contracts/access/Ownable.sol\":3020:3026  _owner */\n      0x05\n      0x00\n        /* \"@openzeppelin/contracts/access/Ownable.sol\":3020:3037  _owner = newOwner */\n      0x0100\n      exp\n      dup2\n      sload\n      dup2\n      0xffffffffffffffffffffffffffffffffffffffff\n      mul\n      not\n      and\n      swap1\n      dup4\n      0xffffffffffffffffffffffffffffffffffffffff\n      and\n      mul\n      or\n      swap1\n      sstore\n      pop\n        /* \"@openzeppelin/contracts/access/Ownable.sol\":3083:3091  newOwner */\n      dup2\n        /* \"@openzeppelin/contracts/access/Ownable.sol\":3052:3092  OwnershipTransferred(oldOwner, newOwner) */\n      0xffffffffffffffffffffffffffffffffffffffff\n      and\n        /* \"@openzeppelin/contracts/access/Ownable.sol\":3073:3081  oldOwner */\n      dup2\n        /* \"@openzeppelin/contracts/access/Ownable.sol\":3052:3092  OwnershipTransferred(oldOwner, newOwner) */\n      0xffffffffffffffffffffffffffffffffffffffff\n      and\n      0x8be0079c531659141344cd1fd0a4f28419497f9722a3daafe3b4186f6b6457e0\n      mload(0x40)\n      mload(0x40)\n      dup1\n      swap2\n      sub\n      swap1\n      log3\n        /* \"@openzeppelin/contracts/access/Ownable.sol\":2975:3099  {... */\n      pop\n        /* \"@openzeppelin/contracts/access/Ownable.sol\":2912:3099  function _transferOwnership(address newOwner) internal virtual {... */\n      pop\n      jump\t// out\n        /* \"@openzeppelin/contracts/utils/Pausable.sol\":2463:2578  function _pause() internal virtual whenNotPaused {... */\n    tag_218:\n        /* \"@openzeppelin/contracts/utils/Pausable.sol\":1474:1493  _requireNotPaused() */\n      tag_318\n        /* \"@openzeppelin/contracts/utils/Pausable.sol\":1474:1491  _requireNotPaused */\n      tag_319\n        /* \"@openzeppelin/contracts/utils/Pausable.sol\":1474:1493  _requireNotPaused() */\n      jump\t// in\n    tag_318:\n        /* \"@openzeppelin/contracts/utils/Pausable.sol\":2532:2536  true */\n      0x01\n        /* \"@openzeppelin/contracts/utils/Pausable.sol\":2522:2529  _paused */\n      0x07\n      0x00\n        /* \"@openzeppelin/contracts/utils/Pausable.sol\":2522:2536  _paused = true */\n      0x0100\n      exp\n      dup2\n      sload\n      dup2\n      0xff\n      mul\n      not\n      and\n      swap1\n      dup4\n      iszero\n      iszero\n      mul\n      or\n      swap1\n      sstore\n      pop\n        /* \"@openzeppelin/contracts/utils/Pausable.sol\":2551:2571  Paused(_msgSender()) */\n      0x62e78cea01bee320cd4e420270b5ea74000d11b0c9f74754ebdbfc544b05a258\n        /* \"@openzeppelin/contracts/utils/Pausable.sol\":2558:2570  _msgSender() */\n      tag_321\n        /* \"@openzeppelin/contracts/utils/Pausable.sol\":2558:2568  _msgSender */\n      tag_155\n        /* \"@openzeppelin/contracts/utils/Pausable.sol\":2558:2570  _msgSender() */\n      jump\t// in\n    tag_321:\n        /* \"@openzeppelin/contracts/utils/Pausable.sol\":2551:2571  Paused(_msgSender()) */\n      mload(0x40)\n      tag_322\n      swap2\n      swap1\n      tag_88\n      jump\t// in\n    tag_322:\n      mload(0x40)\n      dup1\n      swap2\n      sub\n      swap1\n      log1\n        /* \"@openzeppelin/contracts/utils/Pausable.sol\":2463:2578  function _pause() internal virtual whenNotPaused {... */\n      jump\t// out\n        /* \"@openzeppelin/contracts/token/ERC20/ERC20.sol\":7984:8190  function _burn(address account, uint256 value) internal {... */\n    tag_260:\n        /* \"@openzeppelin/contracts/token/ERC20/ERC20.sol\":8073:8074  0 */\n      0x00\n        /* \"@openzeppelin/contracts/token/ERC20/ERC20.sol\":8054:8075  account == address(0) */\n      0xffffffffffffffffffffffffffffffffffffffff\n      and\n        /* \"@openzeppelin/contracts/token/ERC20/ERC20.sol\":8054:8061  account */\n      dup3\n        /* \"@openzeppelin/contracts/token/ERC20/ERC20.sol\":8054:8075  account == address(0) */\n      0xffffffffffffffffffffffffffffffffffffffff\n      and\n      sub\n        /* \"@openzeppelin/contracts/token/ERC20/ERC20.sol\":8050:8139  if (account == address(0)) {... */\n      tag_324\n      jumpi\n        /* \"@openzeppelin/contracts/token/ERC20/ERC20.sol\":8125:8126  0 */\n      0x00\n        /* \"@openzeppelin/contracts/token/ERC20/ERC20.sol\":8098:8128  ERC20InvalidSender(address(0)) */\n      mload(0x40)\n      0x96c6fd1e00000000000000000000000000000000000000000000000000000000\n      dup2\n      mstore\n      0x04\n      add\n      tag_325\n      swap2\n      swap1\n      tag_88\n      jump\t// in\n    tag_325:\n      mload(0x40)\n      dup1\n      swap2\n      sub\n      swap1\n      revert\n        /* \"@openzeppelin/contracts/token/ERC20/ERC20.sol\":8050:8139  if (account == address(0)) {... */\n    tag_324:\n        /* \"@openzeppelin/contracts/token/ERC20/ERC20.sol\":8148:8183  _update(account, address(0), value) */\n      tag_326\n        /* \"@openzeppelin/contracts/token/ERC20/ERC20.sol\":8156:8163  account */\n      dup3\n        /* \"@openzeppelin/contracts/token/ERC20/ERC20.sol\":8173:8174  0 */\n      0x00\n        /* \"@openzeppelin/contracts/token/ERC20/ERC20.sol\":8177:8182  value */\n      dup4\n        /* \"@openzeppelin/contracts/token/ERC20/ERC20.sol\":8148:8155  _update */\n      tag_296\n        /* \"@openzeppelin/contracts/token/ERC20/ERC20.sol\":8148:8183  _update(account, address(0), value) */\n      jump\t// in\n    tag_326:\n        /* \"@openzeppelin/contracts/token/ERC20/ERC20.sol\":7984:8190  function _burn(address account, uint256 value) internal {... */\n      pop\n      pop\n      jump\t// out\n        /* \"@openzeppelin/contracts/token/ERC20/ERC20.sol\":9701:10133  function _approve(address owner, address spender, uint256 value, bool emitEvent) internal virtual {... */\n    tag_282:\n        /* \"@openzeppelin/contracts/token/ERC20/ERC20.sol\":9830:9831  0 */\n      0x00\n        /* \"@openzeppelin/contracts/token/ERC20/ERC20.sol\":9813:9832  owner == address(0) */\n      0xffffffffffffffffffffffffffffffffffffffff\n      and\n        /* \"@openzeppelin/contracts/token/ERC20/ERC20.sol\":9813:9818  owner */\n      dup5\n        /* \"@openzeppelin/contracts/token/ERC20/ERC20.sol\":9813:9832  owner == address(0) */\n      0xffffffffffffffffffffffffffffffffffffffff\n      and\n      sub\n        /* \"@openzeppelin/contracts/token/ERC20/ERC20.sol\":9809:9898  if (owner == address(0)) {... */\n      tag_328\n      jumpi\n        /* \"@openzeppelin/contracts/token/ERC20/ERC20.sol\":9884:9885  0 */\n      0x00\n        /* \"@openzeppelin/contracts/token/ERC20/ERC20.sol\":9855:9887  ERC20InvalidApprover(address(0)) */\n      mload(0x40)\n      0xe602df0500000000000000000000000000000000000000000000000000000000\n      dup2\n      mstore\n      0x04\n      add\n      tag_329\n      swap2\n      swap1\n      tag_88\n      jump\t// in\n    tag_329:\n      mload(0x40)\n      dup1\n      swap2\n      sub\n      swap1\n      revert\n        /* \"@openzeppelin/contracts/token/ERC20/ERC20.sol\":9809:9898  if (owner == address(0)) {... */\n    tag_328:\n        /* \"@openzeppelin/contracts/token/ERC20/ERC20.sol\":9930:9931  0 */\n      0x00\n        /* \"@openzeppelin/contracts/token/ERC20/ERC20.sol\":9911:9932  spender == address(0) */\n      0xffffffffffffffffffffffffffffffffffffffff\n      and\n        /* \"@openzeppelin/contracts/token/ERC20/ERC20.sol\":9911:9918  spender */\n      dup4\n        /* \"@openzeppelin/contracts/token/ERC20/ERC20.sol\":9911:9932  spender == address(0) */\n      0xffffffffffffffffffffffffffffffffffffffff\n      and\n      sub\n        /* \"@openzeppelin/contracts/token/ERC20/ERC20.sol\":9907:9997  if (spender == address(0)) {... */\n      tag_330\n      jumpi\n        /* \"@openzeppelin/contracts/token/ERC20/ERC20.sol\":9983:9984  0 */\n      0x00\n        /* \"@openzeppelin/contracts/token/ERC20/ERC20.sol\":9955:9986  ERC20InvalidSpender(address(0)) */\n      mload(0x40)\n      0x94280d6200000000000000000000000000000000000000000000000000000000\n      dup2\n      mstore\n      0x04\n      add\n      tag_331\n      swap2\n      swap1\n      tag_88\n      jump\t// in\n    tag_331:\n      mload(0x40)\n      dup1\n      swap2\n      sub\n      swap1\n      revert\n        /* \"@openzeppelin/contracts/token/ERC20/ERC20.sol\":9907:9997  if (spender == address(0)) {... */\n    tag_330:\n        /* \"@openzeppelin/contracts/token/ERC20/ERC20.sol\":10036:10041  value */\n      dup2\n        /* \"@openzeppelin/contracts/token/ERC20/ERC20.sol\":10006:10017  _allowances */\n      0x01\n        /* \"@openzeppelin/contracts/token/ERC20/ERC20.sol\":10006:10024  _allowances[owner] */\n      0x00\n        /* \"@openzeppelin/contracts/token/ERC20/ERC20.sol\":10018:10023  owner */\n      dup7\n        /* \"@openzeppelin/contracts/token/ERC20/ERC20.sol\":10006:10024  _allowances[owner] */\n      0xffffffffffffffffffffffffffffffffffffffff\n      and\n      0xffffffffffffffffffffffffffffffffffffffff\n      and\n      dup2\n      mstore\n      0x20\n      add\n      swap1\n      dup2\n      mstore\n      0x20\n      add\n      0x00\n      keccak256\n        /* \"@openzeppelin/contracts/token/ERC20/ERC20.sol\":10006:10033  _allowances[owner][spender] */\n      0x00\n        /* \"@openzeppelin/contracts/token/ERC20/ERC20.sol\":10025:10032  spender */\n      dup6\n        /* \"@openzeppelin/contracts/token/ERC20/ERC20.sol\":10006:10033  _allowances[owner][spender] */\n      0xffffffffffffffffffffffffffffffffffffffff\n      and\n      0xffffffffffffffffffffffffffffffffffffffff\n      and\n      dup2\n      mstore\n      0x20\n      add\n      swap1\n      dup2\n      mstore\n      0x20\n      add\n      0x00\n      keccak256\n        /* \"@openzeppelin/contracts/token/ERC20/ERC20.sol\":10006:10041  _allowances[owner][spender] = value */\n      dup2\n      swap1\n      sstore\n      pop\n        /* \"@openzeppelin/contracts/token/ERC20/ERC20.sol\":10055:10064  emitEvent */\n      dup1\n        /* \"@openzeppelin/contracts/token/ERC20/ERC20.sol\":10051:10127  if (emitEvent) {... */\n      iszero\n      tag_332\n      jumpi\n        /* \"@openzeppelin/contracts/token/ERC20/ERC20.sol\":10101:10108  spender */\n      dup3\n        /* \"@openzeppelin/contracts/token/ERC20/ERC20.sol\":10085:10116  Approval(owner, spender, value) */\n      0xffffffffffffffffffffffffffffffffffffffff\n      and\n        /* \"@openzeppelin/contracts/token/ERC20/ERC20.sol\":10094:10099  owner */\n      dup5\n        /* \"@openzeppelin/contracts/token/ERC20/ERC20.sol\":10085:10116  Approval(owner, spender, value) */\n      0xffffffffffffffffffffffffffffffffffffffff\n      and\n      0x8c5be1e5ebec7d5bd14f71427d1e84f3dd0314c0f7b2291e5b200ac8c7c3b925\n        /* \"@openzeppelin/contracts/token/ERC20/ERC20.sol\":10110:10115  value */\n      dup5\n        /* \"@openzeppelin/contracts/token/ERC20/ERC20.sol\":10085:10116  Approval(owner, spender, value) */\n      mload(0x40)\n      tag_333\n      swap2\n      swap1\n      tag_43\n      jump\t// in\n    tag_333:\n      mload(0x40)\n      dup1\n      swap2\n      sub\n      swap1\n      log3\n        /* \"@openzeppelin/contracts/token/ERC20/ERC20.sol\":10051:10127  if (emitEvent) {... */\n    tag_332:\n        /* \"@openzeppelin/contracts/token/ERC20/ERC20.sol\":9701:10133  function _approve(address owner, address spender, uint256 value, bool emitEvent) internal virtual {... */\n      pop\n      pop\n      pop\n      pop\n      jump\t// out\n        /* \"smart-contract/contracts/mem.sol\":3184:3337  function _update(address sender, address recipient, uint256 amount) internal virtual override {... */\n    tag_296:\n        /* \"smart-contract/contracts/mem.sol\":3289:3329  super._update(sender, recipient, amount) */\n      tag_335\n        /* \"smart-contract/contracts/mem.sol\":3303:3309  sender */\n      dup4\n        /* \"smart-contract/contracts/mem.sol\":3311:3320  recipient */\n      dup4\n        /* \"smart-contract/contracts/mem.sol\":3322:3328  amount */\n      dup4\n        /* \"smart-contract/contracts/mem.sol\":3289:3302  super._update */\n      tag_336\n        /* \"smart-contract/contracts/mem.sol\":3289:3329  super._update(sender, recipient, amount) */\n      jump\t// in\n    tag_335:\n        /* \"smart-contract/contracts/mem.sol\":3184:3337  function _update(address sender, address recipient, uint256 amount) internal virtual override {... */\n      pop\n      pop\n      pop\n      jump\t// out\n        /* \"@openzeppelin/contracts/utils/Pausable.sol\":2202:2328  function _requirePaused() internal view virtual {... */\n    tag_308:\n        /* \"@openzeppelin/contracts/utils/Pausable.sol\":2265:2273  paused() */\n      tag_338\n        /* \"@openzeppelin/contracts/utils/Pausable.sol\":2265:2271  paused */\n      tag_96\n        /* \"@openzeppelin/contracts/utils/Pausable.sol\":2265:2273  paused() */\n      jump\t// in\n    tag_338:\n        /* \"@openzeppelin/contracts/utils/Pausable.sol\":2260:2322  if (!paused()) {... */\n      tag_339\n      jumpi\n        /* \"@openzeppelin/contracts/utils/Pausable.sol\":2296:2311  ExpectedPause() */\n      mload(0x40)\n      0x8dfc202b00000000000000000000000000000000000000000000000000000000\n      dup2\n      mstore\n      0x04\n      add\n      mload(0x40)\n      dup1\n      swap2\n      sub\n      swap1\n      revert\n        /* \"@openzeppelin/contracts/utils/Pausable.sol\":2260:2322  if (!paused()) {... */\n    tag_339:\n        /* \"@openzeppelin/contracts/utils/Pausable.sol\":2202:2328  function _requirePaused() internal view virtual {... */\n      jump\t// out\n        /* \"@openzeppelin/contracts/utils/Pausable.sol\":2002:2130  function _requireNotPaused() internal view virtual {... */\n    tag_319:\n        /* \"@openzeppelin/contracts/utils/Pausable.sol\":2067:2075  paused() */\n      tag_341\n        /* \"@openzeppelin/contracts/utils/Pausable.sol\":2067:2073  paused */\n      tag_96\n        /* \"@openzeppelin/contracts/utils/Pausable.sol\":2067:2075  paused() */\n      jump\t// in\n    tag_341:\n        /* \"@openzeppelin/contracts/utils/Pausable.sol\":2063:2124  if (paused()) {... */\n      iszero\n      tag_342\n      jumpi\n        /* \"@openzeppelin/contracts/utils/Pausable.sol\":2098:2113  EnforcedPause() */\n      mload(0x40)\n      0xd93c066500000000000000000000000000000000000000000000000000000000\n      dup2\n      mstore\n      0x04\n      add\n      mload(0x40)\n      dup1\n      swap2\n      sub\n      swap1\n      revert\n        /* \"@openzeppelin/contracts/utils/Pausable.sol\":2063:2124  if (paused()) {... */\n    tag_342:\n        /* \"@openzeppelin/contracts/utils/Pausable.sol\":2002:2130  function _requireNotPaused() internal view virtual {... */\n      jump\t// out\n        /* \"@openzeppelin/contracts/token/ERC20/ERC20.sol\":6008:7115  function _update(address from, address to, uint256 value) internal virtual {... */\n    tag_336:\n        /* \"@openzeppelin/contracts/token/ERC20/ERC20.sol\":6113:6114  0 */\n      0x00\n        /* \"@openzeppelin/contracts/token/ERC20/ERC20.sol\":6097:6115  from == address(0) */\n      0xffffffffffffffffffffffffffffffffffffffff\n      and\n        /* \"@openzeppelin/contracts/token/ERC20/ERC20.sol\":6097:6101  from */\n      dup4\n        /* \"@openzeppelin/contracts/token/ERC20/ERC20.sol\":6097:6115  from == address(0) */\n      0xffffffffffffffffffffffffffffffffffffffff\n      and\n      sub\n        /* \"@openzeppelin/contracts/token/ERC20/ERC20.sol\":6093:6633  if (from == address(0)) {... */\n      tag_344\n      jumpi\n        /* \"@openzeppelin/contracts/token/ERC20/ERC20.sol\":6249:6254  value */\n      dup1\n        /* \"@openzeppelin/contracts/token/ERC20/ERC20.sol\":6233:6245  _totalSupply */\n      0x02\n      0x00\n        /* \"@openzeppelin/contracts/token/ERC20/ERC20.sol\":6233:6254  _totalSupply += value */\n      dup3\n      dup3\n      sload\n      tag_345\n      swap2\n      swap1\n      tag_247\n      jump\t// in\n    tag_345:\n      swap3\n      pop\n      pop\n      dup2\n      swap1\n      sstore\n      pop\n        /* \"@openzeppelin/contracts/token/ERC20/ERC20.sol\":6093:6633  if (from == address(0)) {... */\n      jump(tag_346)\n    tag_344:\n        /* \"@openzeppelin/contracts/token/ERC20/ERC20.sol\":6285:6304  uint256 fromBalance */\n      0x00\n        /* \"@openzeppelin/contracts/token/ERC20/ERC20.sol\":6307:6316  _balances */\n      0x00\n        /* \"@openzeppelin/contracts/token/ERC20/ERC20.sol\":6307:6322  _balances[from] */\n      0x00\n        /* \"@openzeppelin/contracts/token/ERC20/ERC20.sol\":6317:6321  from */\n      dup6\n        /* \"@openzeppelin/contracts/token/ERC20/ERC20.sol\":6307:6322  _balances[from] */\n      0xffffffffffffffffffffffffffffffffffffffff\n      and\n      0xffffffffffffffffffffffffffffffffffffffff\n      and\n      dup2\n      mstore\n      0x20\n      add\n      swap1\n      dup2\n      mstore\n      0x20\n      add\n      0x00\n      keccak256\n      sload\n        /* \"@openzeppelin/contracts/token/ERC20/ERC20.sol\":6285:6322  uint256 fromBalance = _balances[from] */\n      swap1\n      pop\n        /* \"@openzeppelin/contracts/token/ERC20/ERC20.sol\":6354:6359  value */\n      dup2\n        /* \"@openzeppelin/contracts/token/ERC20/ERC20.sol\":6340:6351  fromBalance */\n      dup2\n        /* \"@openzeppelin/contracts/token/ERC20/ERC20.sol\":6340:6359  fromBalance < value */\n      lt\n        /* \"@openzeppelin/contracts/token/ERC20/ERC20.sol\":6336:6451  if (fromBalance < value) {... */\n      iszero\n      tag_347\n      jumpi\n        /* \"@openzeppelin/contracts/token/ERC20/ERC20.sol\":6411:6415  from */\n      dup4\n        /* \"@openzeppelin/contracts/token/ERC20/ERC20.sol\":6417:6428  fromBalance */\n      dup2\n        /* \"@openzeppelin/contracts/token/ERC20/ERC20.sol\":6430:6435  value */\n      dup4\n        /* \"@openzeppelin/contracts/token/ERC20/ERC20.sol\":6386:6436  ERC20InsufficientBalance(from, fromBalance, value) */\n      mload(0x40)\n      0xe450d38c00000000000000000000000000000000000000000000000000000000\n      dup2\n      mstore\n      0x04\n      add\n      tag_348\n      swap4\n      swap3\n      swap2\n      swap1\n      tag_288\n      jump\t// in\n    tag_348:\n      mload(0x40)\n      dup1\n      swap2\n      sub\n      swap1\n      revert\n        /* \"@openzeppelin/contracts/token/ERC20/ERC20.sol\":6336:6451  if (fromBalance < value) {... */\n    tag_347:\n        /* \"@openzeppelin/contracts/token/ERC20/ERC20.sol\":6603:6608  value */\n      dup2\n        /* \"@openzeppelin/contracts/token/ERC20/ERC20.sol\":6589:6600  fromBalance */\n      dup2\n        /* \"@openzeppelin/contracts/token/ERC20/ERC20.sol\":6589:6608  fromBalance - value */\n      sub\n        /* \"@openzeppelin/contracts/token/ERC20/ERC20.sol\":6571:6580  _balances */\n      0x00\n        /* \"@openzeppelin/contracts/token/ERC20/ERC20.sol\":6571:6586  _balances[from] */\n      0x00\n        /* \"@openzeppelin/contracts/token/ERC20/ERC20.sol\":6581:6585  from */\n      dup7\n        /* \"@openzeppelin/contracts/token/ERC20/ERC20.sol\":6571:6586  _balances[from] */\n      0xffffffffffffffffffffffffffffffffffffffff\n      and\n      0xffffffffffffffffffffffffffffffffffffffff\n      and\n      dup2\n      mstore\n      0x20\n      add\n      swap1\n      dup2\n      mstore\n      0x20\n      add\n      0x00\n      keccak256\n        /* \"@openzeppelin/contracts/token/ERC20/ERC20.sol\":6571:6608  _balances[from] = fromBalance - value */\n      dup2\n      swap1\n      sstore\n      pop\n        /* \"@openzeppelin/contracts/token/ERC20/ERC20.sol\":6271:6633  {... */\n      pop\n        /* \"@openzeppelin/contracts/token/ERC20/ERC20.sol\":6093:6633  if (from == address(0)) {... */\n    tag_346:\n        /* \"@openzeppelin/contracts/token/ERC20/ERC20.sol\":6661:6662  0 */\n      0x00\n        /* \"@openzeppelin/contracts/token/ERC20/ERC20.sol\":6647:6663  to == address(0) */\n      0xffffffffffffffffffffffffffffffffffffffff\n      and\n        /* \"@openzeppelin/contracts/token/ERC20/ERC20.sol\":6647:6649  to */\n      dup3\n        /* \"@openzeppelin/contracts/token/ERC20/ERC20.sol\":6647:6663  to == address(0) */\n      0xffffffffffffffffffffffffffffffffffffffff\n      and\n      sub\n        /* \"@openzeppelin/contracts/token/ERC20/ERC20.sol\":6643:7068  if (to == address(0)) {... */\n      tag_349\n      jumpi\n        /* \"@openzeppelin/contracts/token/ERC20/ERC20.sol\":6826:6831  value */\n      dup1\n        /* \"@openzeppelin/contracts/token/ERC20/ERC20.sol\":6810:6822  _totalSupply */\n      0x02\n      0x00\n        /* \"@openzeppelin/contracts/token/ERC20/ERC20.sol\":6810:6831  _totalSupply -= value */\n      dup3\n      dup3\n      sload\n      sub\n      swap3\n      pop\n      pop\n      dup2\n      swap1\n      sstore\n      pop\n        /* \"@openzeppelin/contracts/token/ERC20/ERC20.sol\":6643:7068  if (to == address(0)) {... */\n      jump(tag_350)\n    tag_349:\n        /* \"@openzeppelin/contracts/token/ERC20/ERC20.sol\":7038:7043  value */\n      dup1\n        /* \"@openzeppelin/contracts/token/ERC20/ERC20.sol\":7021:7030  _balances */\n      0x00\n        /* \"@openzeppelin/contracts/token/ERC20/ERC20.sol\":7021:7034  _balances[to] */\n      0x00\n        /* \"@openzeppelin/contracts/token/ERC20/ERC20.sol\":7031:7033  to */\n      dup5\n        /* \"@openzeppelin/contracts/token/ERC20/ERC20.sol\":7021:7034  _balances[to] */\n      0xffffffffffffffffffffffffffffffffffffffff\n      and\n      0xffffffffffffffffffffffffffffffffffffffff\n      and\n      dup2\n      mstore\n      0x20\n      add\n      swap1\n      dup2\n      mstore\n      0x20\n      add\n      0x00\n      keccak256\n      0x00\n        /* \"@openzeppelin/contracts/token/ERC20/ERC20.sol\":7021:7043  _balances[to] += value */\n      dup3\n      dup3\n      sload\n      add\n      swap3\n      pop\n      pop\n      dup2\n      swap1\n      sstore\n      pop\n        /* \"@openzeppelin/contracts/token/ERC20/ERC20.sol\":6643:7068  if (to == address(0)) {... */\n    tag_350:\n        /* \"@openzeppelin/contracts/token/ERC20/ERC20.sol\":7098:7100  to */\n      dup2\n        /* \"@openzeppelin/contracts/token/ERC20/ERC20.sol\":7083:7108  Transfer(from, to, value) */\n      0xffffffffffffffffffffffffffffffffffffffff\n      and\n        /* \"@openzeppelin/contracts/token/ERC20/ERC20.sol\":7092:7096  from */\n      dup4\n        /* \"@openzeppelin/contracts/token/ERC20/ERC20.sol\":7083:7108  Transfer(from, to, value) */\n      0xffffffffffffffffffffffffffffffffffffffff\n      and\n      0xddf252ad1be2c89b69c2b068fc378daa952ba7f163c4a11628f55a4df523b3ef\n        /* \"@openzeppelin/contracts/token/ERC20/ERC20.sol\":7102:7107  value */\n      dup4\n        /* \"@openzeppelin/contracts/token/ERC20/ERC20.sol\":7083:7108  Transfer(from, to, value) */\n      mload(0x40)\n      tag_351\n      swap2\n      swap1\n      tag_43\n      jump\t// in\n    tag_351:\n      mload(0x40)\n      dup1\n      swap2\n      sub\n      swap1\n      log3\n        /* \"@openzeppelin/contracts/token/ERC20/ERC20.sol\":6008:7115  function _update(address from, address to, uint256 value) internal virtual {... */\n      pop\n      pop\n      pop\n      jump\t// out\n        /* \"#utility.yul\":7:84   */\n    tag_352:\n        /* \"#utility.yul\":44:51   */\n      0x00\n        /* \"#utility.yul\":73:78   */\n      dup2\n        /* \"#utility.yul\":62:78   */\n      swap1\n      pop\n        /* \"#utility.yul\":7:84   */\n      swap2\n      swap1\n      pop\n      jump\t// out\n        /* \"#utility.yul\":90:208   */\n    tag_353:\n        /* \"#utility.yul\":177:201   */\n      tag_390\n        /* \"#utility.yul\":195:200   */\n      dup2\n        /* \"#utility.yul\":177:201   */\n      tag_352\n      jump\t// in\n    tag_390:\n        /* \"#utility.yul\":172:175   */\n      dup3\n        /* \"#utility.yul\":165:202   */\n      mstore\n        /* \"#utility.yul\":90:208   */\n      pop\n      pop\n      jump\t// out\n        /* \"#utility.yul\":214:436   */\n    tag_43:\n        /* \"#utility.yul\":307:311   */\n      0x00\n        /* \"#utility.yul\":345:347   */\n      0x20\n        /* \"#utility.yul\":334:343   */\n      dup3\n        /* \"#utility.yul\":330:348   */\n      add\n        /* \"#utility.yul\":322:348   */\n      swap1\n      pop\n        /* \"#utility.yul\":358:429   */\n      tag_392\n        /* \"#utility.yul\":426:427   */\n      0x00\n        /* \"#utility.yul\":415:424   */\n      dup4\n        /* \"#utility.yul\":411:428   */\n      add\n        /* \"#utility.yul\":402:408   */\n      dup5\n        /* \"#utility.yul\":358:429   */\n      tag_353\n      jump\t// in\n    tag_392:\n        /* \"#utility.yul\":214:436   */\n      swap3\n      swap2\n      pop\n      pop\n      jump\t// out\n        /* \"#utility.yul\":442:541   */\n    tag_354:\n        /* \"#utility.yul\":494:500   */\n      0x00\n        /* \"#utility.yul\":528:533   */\n      dup2\n        /* \"#utility.yul\":522:534   */\n      mload\n        /* \"#utility.yul\":512:534   */\n      swap1\n      pop\n        /* \"#utility.yul\":442:541   */\n      swap2\n      swap1\n      pop\n      jump\t// out\n        /* \"#utility.yul\":547:716   */\n    tag_355:\n        /* \"#utility.yul\":631:642   */\n      0x00\n        /* \"#utility.yul\":665:671   */\n      dup3\n        /* \"#utility.yul\":660:663   */\n      dup3\n        /* \"#utility.yul\":653:672   */\n      mstore\n        /* \"#utility.yul\":705:709   */\n      0x20\n        /* \"#utility.yul\":700:703   */\n      dup3\n        /* \"#utility.yul\":696:710   */\n      add\n        /* \"#utility.yul\":681:710   */\n      swap1\n      pop\n        /* \"#utility.yul\":547:716   */\n      swap3\n      swap2\n      pop\n      pop\n      jump\t// out\n        /* \"#utility.yul\":722:861   */\n    tag_356:\n        /* \"#utility.yul\":811:817   */\n      dup3\n        /* \"#utility.yul\":806:809   */\n      dup2\n        /* \"#utility.yul\":801:804   */\n      dup4\n        /* \"#utility.yul\":795:818   */\n      mcopy\n        /* \"#utility.yul\":852:853   */\n      0x00\n        /* \"#utility.yul\":843:849   */\n      dup4\n        /* \"#utility.yul\":838:841   */\n      dup4\n        /* \"#utility.yul\":834:850   */\n      add\n        /* \"#utility.yul\":827:854   */\n      mstore\n        /* \"#utility.yul\":722:861   */\n      pop\n      pop\n      pop\n      jump\t// out\n        /* \"#utility.yul\":867:969   */\n    tag_357:\n        /* \"#utility.yul\":908:914   */\n      0x00\n        /* \"#utility.yul\":959:961   */\n      0x1f\n        /* \"#utility.yul\":955:962   */\n      not\n        /* \"#utility.yul\":950:952   */\n      0x1f\n        /* \"#utility.yul\":943:948   */\n      dup4\n        /* \"#utility.yul\":939:953   */\n      add\n        /* \"#utility.yul\":935:963   */\n      and\n        /* \"#utility.yul\":925:963   */\n      swap1\n      pop\n        /* \"#utility.yul\":867:969   */\n      swap2\n      swap1\n      pop\n      jump\t// out\n        /* \"#utility.yul\":975:1352   */\n    tag_358:\n        /* \"#utility.yul\":1063:1066   */\n      0x00\n        /* \"#utility.yul\":1091:1130   */\n      tag_398\n        /* \"#utility.yul\":1124:1129   */\n      dup3\n        /* \"#utility.yul\":1091:1130   */\n      tag_354\n      jump\t// in\n    tag_398:\n        /* \"#utility.yul\":1146:1217   */\n      tag_399\n        /* \"#utility.yul\":1210:1216   */\n      dup2\n        /* \"#utility.yul\":1205:1208   */\n      dup6\n        /* \"#utility.yul\":1146:1217   */\n      tag_355\n      jump\t// in\n    tag_399:\n        /* \"#utility.yul\":1139:1217   */\n      swap4\n      pop\n        /* \"#utility.yul\":1226:1291   */\n      tag_400\n        /* \"#utility.yul\":1284:1290   */\n      dup2\n        /* \"#utility.yul\":1279:1282   */\n      dup6\n        /* \"#utility.yul\":1272:1276   */\n      0x20\n        /* \"#utility.yul\":1265:1270   */\n      dup7\n        /* \"#utility.yul\":1261:1277   */\n      add\n        /* \"#utility.yul\":1226:1291   */\n      tag_356\n      jump\t// in\n    tag_400:\n        /* \"#utility.yul\":1316:1345   */\n      tag_401\n        /* \"#utility.yul\":1338:1344   */\n      dup2\n        /* \"#utility.yul\":1316:1345   */\n      tag_357\n      jump\t// in\n    tag_401:\n        /* \"#utility.yul\":1311:1314   */\n      dup5\n        /* \"#utility.yul\":1307:1346   */\n      add\n        /* \"#utility.yul\":1300:1346   */\n      swap2\n      pop\n        /* \"#utility.yul\":1067:1352   */\n      pop\n        /* \"#utility.yul\":975:1352   */\n      swap3\n      swap2\n      pop\n      pop\n      jump\t// out\n        /* \"#utility.yul\":1358:1671   */\n    tag_47:\n        /* \"#utility.yul\":1471:1475   */\n      0x00\n        /* \"#utility.yul\":1509:1511   */\n      0x20\n        /* \"#utility.yul\":1498:1507   */\n      dup3\n        /* \"#utility.yul\":1494:1512   */\n      add\n        /* \"#utility.yul\":1486:1512   */\n      swap1\n      pop\n        /* \"#utility.yul\":1558:1567   */\n      dup2\n        /* \"#utility.yul\":1552:1556   */\n      dup2\n        /* \"#utility.yul\":1548:1568   */\n      sub\n        /* \"#utility.yul\":1544:1545   */\n      0x00\n        /* \"#utility.yul\":1533:1542   */\n      dup4\n        /* \"#utility.yul\":1529:1546   */\n      add\n        /* \"#utility.yul\":1522:1569   */\n      mstore\n        /* \"#utility.yul\":1586:1664   */\n      tag_403\n        /* \"#utility.yul\":1659:1663   */\n      dup2\n        /* \"#utility.yul\":1650:1656   */\n      dup5\n        /* \"#utility.yul\":1586:1664   */\n      tag_358\n      jump\t// in\n    tag_403:\n        /* \"#utility.yul\":1578:1664   */\n      swap1\n      pop\n        /* \"#utility.yul\":1358:1671   */\n      swap3\n      swap2\n      pop\n      pop\n      jump\t// out\n        /* \"#utility.yul\":1758:1875   */\n    tag_360:\n        /* \"#utility.yul\":1867:1868   */\n      0x00\n        /* \"#utility.yul\":1864:1865   */\n      0x00\n        /* \"#utility.yul\":1857:1869   */\n      revert\n        /* \"#utility.yul\":2004:2130   */\n    tag_362:\n        /* \"#utility.yul\":2041:2048   */\n      0x00\n        /* \"#utility.yul\":2081:2123   */\n      0xffffffffffffffffffffffffffffffffffffffff\n        /* \"#utility.yul\":2074:2079   */\n      dup3\n        /* \"#utility.yul\":2070:2124   */\n      and\n        /* \"#utility.yul\":2059:2124   */\n      swap1\n      pop\n        /* \"#utility.yul\":2004:2130   */\n      swap2\n      swap1\n      pop\n      jump\t// out\n        /* \"#utility.yul\":2136:2232   */\n    tag_363:\n        /* \"#utility.yul\":2173:2180   */\n      0x00\n        /* \"#utility.yul\":2202:2226   */\n      tag_409\n        /* \"#utility.yul\":2220:2225   */\n      dup3\n        /* \"#utility.yul\":2202:2226   */\n      tag_362\n      jump\t// in\n    tag_409:\n        /* \"#utility.yul\":2191:2226   */\n      swap1\n      pop\n        /* \"#utility.yul\":2136:2232   */\n      swap2\n      swap1\n      pop\n      jump\t// out\n        /* \"#utility.yul\":2238:2360   */\n    tag_364:\n        /* \"#utility.yul\":2311:2335   */\n      tag_411\n        /* \"#utility.yul\":2329:2334   */\n      dup2\n        /* \"#utility.yul\":2311:2335   */\n      tag_363\n      jump\t// in\n    tag_411:\n        /* \"#utility.yul\":2304:2309   */\n      dup2\n        /* \"#utility.yul\":2301:2336   */\n      eq\n        /* \"#utility.yul\":2291:2354   */\n      tag_412\n      jumpi\n        /* \"#utility.yul\":2350:2351   */\n      0x00\n        /* \"#utility.yul\":2347:2348   */\n      0x00\n        /* \"#utility.yul\":2340:2352   */\n      revert\n        /* \"#utility.yul\":2291:2354   */\n    tag_412:\n        /* \"#utility.yul\":2238:2360   */\n      pop\n      jump\t// out\n        /* \"#utility.yul\":2366:2505   */\n    tag_365:\n        /* \"#utility.yul\":2412:2417   */\n      0x00\n        /* \"#utility.yul\":2450:2456   */\n      dup2\n        /* \"#utility.yul\":2437:2457   */\n      calldataload\n        /* \"#utility.yul\":2428:2457   */\n      swap1\n      pop\n        /* \"#utility.yul\":2466:2499   */\n      tag_414\n        /* \"#utility.yul\":2493:2498   */\n      dup2\n        /* \"#utility.yul\":2466:2499   */\n      tag_364\n      jump\t// in\n    tag_414:\n        /* \"#utility.yul\":2366:2505   */\n      swap3\n      swap2\n      pop\n      pop\n      jump\t// out\n        /* \"#utility.yul\":2511:2633   */\n    tag_366:\n        /* \"#utility.yul\":2584:2608   */\n      tag_416\n        /* \"#utility.yul\":2602:2607   */\n      dup2\n        /* \"#utility.yul\":2584:2608   */\n      tag_352\n      jump\t// in\n    tag_416:\n        /* \"#utility.yul\":2577:2582   */\n      dup2\n        /* \"#utility.yul\":2574:2609   */\n      eq\n        /* \"#utility.yul\":2564:2627   */\n      tag_417\n      jumpi\n        /* \"#utility.yul\":2623:2624   */\n      0x00\n        /* \"#utility.yul\":2620:2621   */\n      0x00\n        /* \"#utility.yul\":2613:2625   */\n      revert\n        /* \"#utility.yul\":2564:2627   */\n    tag_417:\n        /* \"#utility.yul\":2511:2633   */\n      pop\n      jump\t// out\n        /* \"#utility.yul\":2639:2778   */\n    tag_367:\n        /* \"#utility.yul\":2685:2690   */\n      0x00\n        /* \"#utility.yul\":2723:2729   */\n      dup2\n        /* \"#utility.yul\":2710:2730   */\n      calldataload\n        /* \"#utility.yul\":2701:2730   */\n      swap1\n      pop\n        /* \"#utility.yul\":2739:2772   */\n      tag_419\n        /* \"#utility.yul\":2766:2771   */\n      dup2\n        /* \"#utility.yul\":2739:2772   */\n      tag_366\n      jump\t// in\n    tag_419:\n        /* \"#utility.yul\":2639:2778   */\n      swap3\n      swap2\n      pop\n      pop\n      jump\t// out\n        /* \"#utility.yul\":2784:3258   */\n    tag_50:\n        /* \"#utility.yul\":2852:2858   */\n      0x00\n        /* \"#utility.yul\":2860:2866   */\n      0x00\n        /* \"#utility.yul\":2909:2911   */\n      0x40\n        /* \"#utility.yul\":2897:2906   */\n      dup4\n        /* \"#utility.yul\":2888:2895   */\n      dup6\n        /* \"#utility.yul\":2884:2907   */\n      sub\n        /* \"#utility.yul\":2880:2912   */\n      slt\n        /* \"#utility.yul\":2877:2996   */\n      iszero\n      tag_421\n      jumpi\n        /* \"#utility.yul\":2915:2994   */\n      tag_422\n      tag_360\n      jump\t// in\n    tag_422:\n        /* \"#utility.yul\":2877:2996   */\n    tag_421:\n        /* \"#utility.yul\":3035:3036   */\n      0x00\n        /* \"#utility.yul\":3060:3113   */\n      tag_423\n        /* \"#utility.yul\":3105:3112   */\n      dup6\n        /* \"#utility.yul\":3096:3102   */\n      dup3\n        /* \"#utility.yul\":3085:3094   */\n      dup7\n        /* \"#utility.yul\":3081:3103   */\n      add\n        /* \"#utility.yul\":3060:3113   */\n      tag_365\n      jump\t// in\n    tag_423:\n        /* \"#utility.yul\":3050:3113   */\n      swap3\n      pop\n        /* \"#utility.yul\":3006:3123   */\n      pop\n        /* \"#utility.yul\":3162:3164   */\n      0x20\n        /* \"#utility.yul\":3188:3241   */\n      tag_424\n        /* \"#utility.yul\":3233:3240   */\n      dup6\n        /* \"#utility.yul\":3224:3230   */\n      dup3\n        /* \"#utility.yul\":3213:3222   */\n      dup7\n        /* \"#utility.yul\":3209:3231   */\n      add\n        /* \"#utility.yul\":3188:3241   */\n      tag_367\n      jump\t// in\n    tag_424:\n        /* \"#utility.yul\":3178:3241   */\n      swap2\n      pop\n        /* \"#utility.yul\":3133:3251   */\n      pop\n        /* \"#utility.yul\":2784:3258   */\n      swap3\n      pop\n      swap3\n      swap1\n      pop\n      jump\t// out\n        /* \"#utility.yul\":3264:3354   */\n    tag_368:\n        /* \"#utility.yul\":3298:3305   */\n      0x00\n        /* \"#utility.yul\":3341:3346   */\n      dup2\n        /* \"#utility.yul\":3334:3347   */\n      iszero\n        /* \"#utility.yul\":3327:3348   */\n      iszero\n        /* \"#utility.yul\":3316:3348   */\n      swap1\n      pop\n        /* \"#utility.yul\":3264:3354   */\n      swap2\n      swap1\n      pop\n      jump\t// out\n        /* \"#utility.yul\":3360:3469   */\n    tag_369:\n        /* \"#utility.yul\":3441:3462   */\n      tag_427\n        /* \"#utility.yul\":3456:3461   */\n      dup2\n        /* \"#utility.yul\":3441:3462   */\n      tag_368\n      jump\t// in\n    tag_427:\n        /* \"#utility.yul\":3436:3439   */\n      dup3\n        /* \"#utility.yul\":3429:3463   */\n      mstore\n        /* \"#utility.yul\":3360:3469   */\n      pop\n      pop\n      jump\t// out\n        /* \"#utility.yul\":3475:3685   */\n    tag_53:\n        /* \"#utility.yul\":3562:3566   */\n      0x00\n        /* \"#utility.yul\":3600:3602   */\n      0x20\n        /* \"#utility.yul\":3589:3598   */\n      dup3\n        /* \"#utility.yul\":3585:3603   */\n      add\n        /* \"#utility.yul\":3577:3603   */\n      swap1\n      pop\n        /* \"#utility.yul\":3613:3678   */\n      tag_429\n        /* \"#utility.yul\":3675:3676   */\n      0x00\n        /* \"#utility.yul\":3664:3673   */\n      dup4\n        /* \"#utility.yul\":3660:3677   */\n      add\n        /* \"#utility.yul\":3651:3657   */\n      dup5\n        /* \"#utility.yul\":3613:3678   */\n      tag_369\n      jump\t// in\n    tag_429:\n        /* \"#utility.yul\":3475:3685   */\n      swap3\n      swap2\n      pop\n      pop\n      jump\t// out\n        /* \"#utility.yul\":3691:4310   */\n    tag_62:\n        /* \"#utility.yul\":3768:3774   */\n      0x00\n        /* \"#utility.yul\":3776:3782   */\n      0x00\n        /* \"#utility.yul\":3784:3790   */\n      0x00\n        /* \"#utility.yul\":3833:3835   */\n      0x60\n        /* \"#utility.yul\":3821:3830   */\n      dup5\n        /* \"#utility.yul\":3812:3819   */\n      dup7\n        /* \"#utility.yul\":3808:3831   */\n      sub\n        /* \"#utility.yul\":3804:3836   */\n      slt\n        /* \"#utility.yul\":3801:3920   */\n      iszero\n      tag_431\n      jumpi\n        /* \"#utility.yul\":3839:3918   */\n      tag_432\n      tag_360\n      jump\t// in\n    tag_432:\n        /* \"#utility.yul\":3801:3920   */\n    tag_431:\n        /* \"#utility.yul\":3959:3960   */\n      0x00\n        /* \"#utility.yul\":3984:4037   */\n      tag_433\n        /* \"#utility.yul\":4029:4036   */\n      dup7\n        /* \"#utility.yul\":4020:4026   */\n      dup3\n        /* \"#utility.yul\":4009:4018   */\n      dup8\n        /* \"#utility.yul\":4005:4027   */\n      add\n        /* \"#utility.yul\":3984:4037   */\n      tag_365\n      jump\t// in\n    tag_433:\n        /* \"#utility.yul\":3974:4037   */\n      swap4\n      pop\n        /* \"#utility.yul\":3930:4047   */\n      pop\n        /* \"#utility.yul\":4086:4088   */\n      0x20\n        /* \"#utility.yul\":4112:4165   */\n      tag_434\n        /* \"#utility.yul\":4157:4164   */\n      dup7\n        /* \"#utility.yul\":4148:4154   */\n      dup3\n        /* \"#utility.yul\":4137:4146   */\n      dup8\n        /* \"#utility.yul\":4133:4155   */\n      add\n        /* \"#utility.yul\":4112:4165   */\n      tag_365\n      jump\t// in\n    tag_434:\n        /* \"#utility.yul\":4102:4165   */\n      swap3\n      pop\n        /* \"#utility.yul\":4057:4175   */\n      pop\n        /* \"#utility.yul\":4214:4216   */\n      0x40\n        /* \"#utility.yul\":4240:4293   */\n      tag_435\n        /* \"#utility.yul\":4285:4292   */\n      dup7\n        /* \"#utility.yul\":4276:4282   */\n      dup3\n        /* \"#utility.yul\":4265:4274   */\n      dup8\n        /* \"#utility.yul\":4261:4283   */\n      add\n        /* \"#utility.yul\":4240:4293   */\n      tag_367\n      jump\t// in\n    tag_435:\n        /* \"#utility.yul\":4230:4293   */\n      swap2\n      pop\n        /* \"#utility.yul\":4185:4303   */\n      pop\n        /* \"#utility.yul\":3691:4310   */\n      swap3\n      pop\n      swap3\n      pop\n      swap3\n      jump\t// out\n        /* \"#utility.yul\":4316:4376   */\n    tag_370:\n        /* \"#utility.yul\":4344:4347   */\n      0x00\n        /* \"#utility.yul\":4365:4370   */\n      dup2\n        /* \"#utility.yul\":4358:4370   */\n      swap1\n      pop\n        /* \"#utility.yul\":4316:4376   */\n      swap2\n      swap1\n      pop\n      jump\t// out\n        /* \"#utility.yul\":4382:4524   */\n    tag_371:\n        /* \"#utility.yul\":4432:4441   */\n      0x00\n        /* \"#utility.yul\":4465:4518   */\n      tag_438\n        /* \"#utility.yul\":4483:4517   */\n      tag_439\n        /* \"#utility.yul\":4492:4516   */\n      tag_440\n        /* \"#utility.yul\":4510:4515   */\n      dup5\n        /* \"#utility.yul\":4492:4516   */\n      tag_362\n      jump\t// in\n    tag_440:\n        /* \"#utility.yul\":4483:4517   */\n      tag_370\n      jump\t// in\n    tag_439:\n        /* \"#utility.yul\":4465:4518   */\n      tag_362\n      jump\t// in\n    tag_438:\n        /* \"#utility.yul\":4452:4518   */\n      swap1\n      pop\n        /* \"#utility.yul\":4382:4524   */\n      swap2\n      swap1\n      pop\n      jump\t// out\n        /* \"#utility.yul\":4530:4656   */\n    tag_372:\n        /* \"#utility.yul\":4580:4589   */\n      0x00\n        /* \"#utility.yul\":4613:4650   */\n      tag_442\n        /* \"#utility.yul\":4644:4649   */\n      dup3\n        /* \"#utility.yul\":4613:4650   */\n      tag_371\n      jump\t// in\n    tag_442:\n        /* \"#utility.yul\":4600:4650   */\n      swap1\n      pop\n        /* \"#utility.yul\":4530:4656   */\n      swap2\n      swap1\n      pop\n      jump\t// out\n        /* \"#utility.yul\":4662:4815   */\n    tag_373:\n        /* \"#utility.yul\":4739:4748   */\n      0x00\n        /* \"#utility.yul\":4772:4809   */\n      tag_444\n        /* \"#utility.yul\":4803:4808   */\n      dup3\n        /* \"#utility.yul\":4772:4809   */\n      tag_372\n      jump\t// in\n    tag_444:\n        /* \"#utility.yul\":4759:4809   */\n      swap1\n      pop\n        /* \"#utility.yul\":4662:4815   */\n      swap2\n      swap1\n      pop\n      jump\t// out\n        /* \"#utility.yul\":4821:5006   */\n    tag_374:\n        /* \"#utility.yul\":4935:4999   */\n      tag_446\n        /* \"#utility.yul\":4993:4998   */\n      dup2\n        /* \"#utility.yul\":4935:4999   */\n      tag_373\n      jump\t// in\n    tag_446:\n        /* \"#utility.yul\":4930:4933   */\n      dup3\n        /* \"#utility.yul\":4923:5000   */\n      mstore\n        /* \"#utility.yul\":4821:5006   */\n      pop\n      pop\n      jump\t// out\n        /* \"#utility.yul\":5012:5288   */\n    tag_68:\n        /* \"#utility.yul\":5132:5136   */\n      0x00\n        /* \"#utility.yul\":5170:5172   */\n      0x20\n        /* \"#utility.yul\":5159:5168   */\n      dup3\n        /* \"#utility.yul\":5155:5173   */\n      add\n        /* \"#utility.yul\":5147:5173   */\n      swap1\n      pop\n        /* \"#utility.yul\":5183:5281   */\n      tag_448\n        /* \"#utility.yul\":5278:5279   */\n      0x00\n        /* \"#utility.yul\":5267:5276   */\n      dup4\n        /* \"#utility.yul\":5263:5280   */\n      add\n        /* \"#utility.yul\":5254:5260   */\n      dup5\n        /* \"#utility.yul\":5183:5281   */\n      tag_374\n      jump\t// in\n    tag_448:\n        /* \"#utility.yul\":5012:5288   */\n      swap3\n      swap2\n      pop\n      pop\n      jump\t// out\n        /* \"#utility.yul\":5294:5623   */\n    tag_71:\n        /* \"#utility.yul\":5353:5359   */\n      0x00\n        /* \"#utility.yul\":5402:5404   */\n      0x20\n        /* \"#utility.yul\":5390:5399   */\n      dup3\n        /* \"#utility.yul\":5381:5388   */\n      dup5\n        /* \"#utility.yul\":5377:5400   */\n      sub\n        /* \"#utility.yul\":5373:5405   */\n      slt\n        /* \"#utility.yul\":5370:5489   */\n      iszero\n      tag_450\n      jumpi\n        /* \"#utility.yul\":5408:5487   */\n      tag_451\n      tag_360\n      jump\t// in\n    tag_451:\n        /* \"#utility.yul\":5370:5489   */\n    tag_450:\n        /* \"#utility.yul\":5528:5529   */\n      0x00\n        /* \"#utility.yul\":5553:5606   */\n      tag_452\n        /* \"#utility.yul\":5598:5605   */\n      dup5\n        /* \"#utility.yul\":5589:5595   */\n      dup3\n        /* \"#utility.yul\":5578:5587   */\n      dup6\n        /* \"#utility.yul\":5574:5596   */\n      add\n        /* \"#utility.yul\":5553:5606   */\n      tag_367\n      jump\t// in\n    tag_452:\n        /* \"#utility.yul\":5543:5606   */\n      swap2\n      pop\n        /* \"#utility.yul\":5499:5616   */\n      pop\n        /* \"#utility.yul\":5294:5623   */\n      swap3\n      swap2\n      pop\n      pop\n      jump\t// out\n        /* \"#utility.yul\":5629:5715   */\n    tag_375:\n        /* \"#utility.yul\":5664:5671   */\n      0x00\n        /* \"#utility.yul\":5704:5708   */\n      0xff\n        /* \"#utility.yul\":5697:5702   */\n      dup3\n        /* \"#utility.yul\":5693:5709   */\n      and\n        /* \"#utility.yul\":5682:5709   */\n      swap1\n      pop\n        /* \"#utility.yul\":5629:5715   */\n      swap2\n      swap1\n      pop\n      jump\t// out\n        /* \"#utility.yul\":5721:5833   */\n    tag_376:\n        /* \"#utility.yul\":5804:5826   */\n      tag_455\n        /* \"#utility.yul\":5820:5825   */\n      dup2\n        /* \"#utility.yul\":5804:5826   */\n      tag_375\n      jump\t// in\n    tag_455:\n        /* \"#utility.yul\":5799:5802   */\n      dup3\n        /* \"#utility.yul\":5792:5827   */\n      mstore\n        /* \"#utility.yul\":5721:5833   */\n      pop\n      pop\n      jump\t// out\n        /* \"#utility.yul\":5839:6053   */\n    tag_76:\n        /* \"#utility.yul\":5928:5932   */\n      0x00\n        /* \"#utility.yul\":5966:5968   */\n      0x20\n        /* \"#utility.yul\":5955:5964   */\n      dup3\n        /* \"#utility.yul\":5951:5969   */\n      add\n        /* \"#utility.yul\":5943:5969   */\n      swap1\n      pop\n        /* \"#utility.yul\":5979:6046   */\n      tag_457\n        /* \"#utility.yul\":6043:6044   */\n      0x00\n        /* \"#utility.yul\":6032:6041   */\n      dup4\n        /* \"#utility.yul\":6028:6045   */\n      add\n        /* \"#utility.yul\":6019:6025   */\n      dup5\n        /* \"#utility.yul\":5979:6046   */\n      tag_376\n      jump\t// in\n    tag_457:\n        /* \"#utility.yul\":5839:6053   */\n      swap3\n      swap2\n      pop\n      pop\n      jump\t// out\n        /* \"#utility.yul\":6059:6177   */\n    tag_377:\n        /* \"#utility.yul\":6146:6170   */\n      tag_459\n        /* \"#utility.yul\":6164:6169   */\n      dup2\n        /* \"#utility.yul\":6146:6170   */\n      tag_363\n      jump\t// in\n    tag_459:\n        /* \"#utility.yul\":6141:6144   */\n      dup3\n        /* \"#utility.yul\":6134:6171   */\n      mstore\n        /* \"#utility.yul\":6059:6177   */\n      pop\n      pop\n      jump\t// out\n        /* \"#utility.yul\":6183:6405   */\n    tag_88:\n        /* \"#utility.yul\":6276:6280   */\n      0x00\n        /* \"#utility.yul\":6314:6316   */\n      0x20\n        /* \"#utility.yul\":6303:6312   */\n      dup3\n        /* \"#utility.yul\":6299:6317   */\n      add\n        /* \"#utility.yul\":6291:6317   */\n      swap1\n      pop\n        /* \"#utility.yul\":6327:6398   */\n      tag_461\n        /* \"#utility.yul\":6395:6396   */\n      0x00\n        /* \"#utility.yul\":6384:6393   */\n      dup4\n        /* \"#utility.yul\":6380:6397   */\n      add\n        /* \"#utility.yul\":6371:6377   */\n      dup5\n        /* \"#utility.yul\":6327:6398   */\n      tag_377\n      jump\t// in\n    tag_461:\n        /* \"#utility.yul\":6183:6405   */\n      swap3\n      swap2\n      pop\n      pop\n      jump\t// out\n        /* \"#utility.yul\":6411:6740   */\n    tag_100:\n        /* \"#utility.yul\":6470:6476   */\n      0x00\n        /* \"#utility.yul\":6519:6521   */\n      0x20\n        /* \"#utility.yul\":6507:6516   */\n      dup3\n        /* \"#utility.yul\":6498:6505   */\n      dup5\n        /* \"#utility.yul\":6494:6517   */\n      sub\n        /* \"#utility.yul\":6490:6522   */\n      slt\n        /* \"#utility.yul\":6487:6606   */\n      iszero\n      tag_463\n      jumpi\n        /* \"#utility.yul\":6525:6604   */\n      tag_464\n      tag_360\n      jump\t// in\n    tag_464:\n        /* \"#utility.yul\":6487:6606   */\n    tag_463:\n        /* \"#utility.yul\":6645:6646   */\n      0x00\n        /* \"#utility.yul\":6670:6723   */\n      tag_465\n        /* \"#utility.yul\":6715:6722   */\n      dup5\n        /* \"#utility.yul\":6706:6712   */\n      dup3\n        /* \"#utility.yul\":6695:6704   */\n      dup6\n        /* \"#utility.yul\":6691:6713   */\n      add\n        /* \"#utility.yul\":6670:6723   */\n      tag_365\n      jump\t// in\n    tag_465:\n        /* \"#utility.yul\":6660:6723   */\n      swap2\n      pop\n        /* \"#utility.yul\":6616:6733   */\n      pop\n        /* \"#utility.yul\":6411:6740   */\n      swap3\n      swap2\n      pop\n      pop\n      jump\t// out\n        /* \"#utility.yul\":6746:7220   */\n    tag_122:\n        /* \"#utility.yul\":6814:6820   */\n      0x00\n        /* \"#utility.yul\":6822:6828   */\n      0x00\n        /* \"#utility.yul\":6871:6873   */\n      0x40\n        /* \"#utility.yul\":6859:6868   */\n      dup4\n        /* \"#utility.yul\":6850:6857   */\n      dup6\n        /* \"#utility.yul\":6846:6869   */\n      sub\n        /* \"#utility.yul\":6842:6874   */\n      slt\n        /* \"#utility.yul\":6839:6958   */\n      iszero\n      tag_467\n      jumpi\n        /* \"#utility.yul\":6877:6956   */\n      tag_468\n      tag_360\n      jump\t// in\n    tag_468:\n        /* \"#utility.yul\":6839:6958   */\n    tag_467:\n        /* \"#utility.yul\":6997:6998   */\n      0x00\n        /* \"#utility.yul\":7022:7075   */\n      tag_469\n        /* \"#utility.yul\":7067:7074   */\n      dup6\n        /* \"#utility.yul\":7058:7064   */\n      dup3\n        /* \"#utility.yul\":7047:7056   */\n      dup7\n        /* \"#utility.yul\":7043:7065   */\n      add\n        /* \"#utility.yul\":7022:7075   */\n      tag_367\n      jump\t// in\n    tag_469:\n        /* \"#utility.yul\":7012:7075   */\n      swap3\n      pop\n        /* \"#utility.yul\":6968:7085   */\n      pop\n        /* \"#utility.yul\":7124:7126   */\n      0x20\n        /* \"#utility.yul\":7150:7203   */\n      tag_470\n        /* \"#utility.yul\":7195:7202   */\n      dup6\n        /* \"#utility.yul\":7186:7192   */\n      dup3\n        /* \"#utility.yul\":7175:7184   */\n      dup7\n        /* \"#utility.yul\":7171:7193   */\n      add\n        /* \"#utility.yul\":7150:7203   */\n      tag_367\n      jump\t// in\n    tag_470:\n        /* \"#utility.yul\":7140:7203   */\n      swap2\n      pop\n        /* \"#utility.yul\":7095:7213   */\n      pop\n        /* \"#utility.yul\":6746:7220   */\n      swap3\n      pop\n      swap3\n      swap1\n      pop\n      jump\t// out\n        /* \"#utility.yul\":7226:7342   */\n    tag_378:\n        /* \"#utility.yul\":7296:7317   */\n      tag_472\n        /* \"#utility.yul\":7311:7316   */\n      dup2\n        /* \"#utility.yul\":7296:7317   */\n      tag_368\n      jump\t// in\n    tag_472:\n        /* \"#utility.yul\":7289:7294   */\n      dup2\n        /* \"#utility.yul\":7286:7318   */\n      eq\n        /* \"#utility.yul\":7276:7336   */\n      tag_473\n      jumpi\n        /* \"#utility.yul\":7332:7333   */\n      0x00\n        /* \"#utility.yul\":7329:7330   */\n      0x00\n        /* \"#utility.yul\":7322:7334   */\n      revert\n        /* \"#utility.yul\":7276:7336   */\n    tag_473:\n        /* \"#utility.yul\":7226:7342   */\n      pop\n      jump\t// out\n        /* \"#utility.yul\":7348:7481   */\n    tag_379:\n        /* \"#utility.yul\":7391:7396   */\n      0x00\n        /* \"#utility.yul\":7429:7435   */\n      dup2\n        /* \"#utility.yul\":7416:7436   */\n      calldataload\n        /* \"#utility.yul\":7407:7436   */\n      swap1\n      pop\n        /* \"#utility.yul\":7445:7475   */\n      tag_475\n        /* \"#utility.yul\":7469:7474   */\n      dup2\n        /* \"#utility.yul\":7445:7475   */\n      tag_378\n      jump\t// in\n    tag_475:\n        /* \"#utility.yul\":7348:7481   */\n      swap3\n      swap2\n      pop\n      pop\n      jump\t// out\n        /* \"#utility.yul\":7487:7955   */\n    tag_126:\n        /* \"#utility.yul\":7552:7558   */\n      0x00\n        /* \"#utility.yul\":7560:7566   */\n      0x00\n        /* \"#utility.yul\":7609:7611   */\n      0x40\n        /* \"#utility.yul\":7597:7606   */\n      dup4\n        /* \"#utility.yul\":7588:7595   */\n      dup6\n        /* \"#utility.yul\":7584:7607   */\n      sub\n        /* \"#utility.yul\":7580:7612   */\n      slt\n        /* \"#utility.yul\":7577:7696   */\n      iszero\n      tag_477\n      jumpi\n        /* \"#utility.yul\":7615:7694   */\n      tag_478\n      tag_360\n      jump\t// in\n    tag_478:\n        /* \"#utility.yul\":7577:7696   */\n    tag_477:\n        /* \"#utility.yul\":7735:7736   */\n      0x00\n        /* \"#utility.yul\":7760:7813   */\n      tag_479\n        /* \"#utility.yul\":7805:7812   */\n      dup6\n        /* \"#utility.yul\":7796:7802   */\n      dup3\n        /* \"#utility.yul\":7785:7794   */\n      dup7\n        /* \"#utility.yul\":7781:7803   */\n      add\n        /* \"#utility.yul\":7760:7813   */\n      tag_365\n      jump\t// in\n    tag_479:\n        /* \"#utility.yul\":7750:7813   */\n      swap3\n      pop\n        /* \"#utility.yul\":7706:7823   */\n      pop\n        /* \"#utility.yul\":7862:7864   */\n      0x20\n        /* \"#utility.yul\":7888:7938   */\n      tag_480\n        /* \"#utility.yul\":7930:7937   */\n      dup6\n        /* \"#utility.yul\":7921:7927   */\n      dup3\n        /* \"#utility.yul\":7910:7919   */\n      dup7\n        /* \"#utility.yul\":7906:7928   */\n      add\n        /* \"#utility.yul\":7888:7938   */\n      tag_379\n      jump\t// in\n    tag_480:\n        /* \"#utility.yul\":7878:7938   */\n      swap2\n      pop\n        /* \"#utility.yul\":7833:7948   */\n      pop\n        /* \"#utility.yul\":7487:7955   */\n      swap3\n      pop\n      swap3\n      swap1\n      pop\n      jump\t// out\n        /* \"#utility.yul\":7961:8435   */\n    tag_140:\n        /* \"#utility.yul\":8029:8035   */\n      0x00\n        /* \"#utility.yul\":8037:8043   */\n      0x00\n        /* \"#utility.yul\":8086:8088   */\n      0x40\n        /* \"#utility.yul\":8074:8083   */\n      dup4\n        /* \"#utility.yul\":8065:8072   */\n      dup6\n        /* \"#utility.yul\":8061:8084   */\n      sub\n        /* \"#utility.yul\":8057:8089   */\n      slt\n        /* \"#utility.yul\":8054:8173   */\n      iszero\n      tag_482\n      jumpi\n        /* \"#utility.yul\":8092:8171   */\n      tag_483\n      tag_360\n      jump\t// in\n    tag_483:\n        /* \"#utility.yul\":8054:8173   */\n    tag_482:\n        /* \"#utility.yul\":8212:8213   */\n      0x00\n        /* \"#utility.yul\":8237:8290   */\n      tag_484\n        /* \"#utility.yul\":8282:8289   */\n      dup6\n        /* \"#utility.yul\":8273:8279   */\n      dup3\n        /* \"#utility.yul\":8262:8271   */\n      dup7\n        /* \"#utility.yul\":8258:8280   */\n      add\n        /* \"#utility.yul\":8237:8290   */\n      tag_365\n      jump\t// in\n    tag_484:\n        /* \"#utility.yul\":8227:8290   */\n      swap3\n      pop\n        /* \"#utility.yul\":8183:8300   */\n      pop\n        /* \"#utility.yul\":8339:8341   */\n      0x20\n        /* \"#utility.yul\":8365:8418   */\n      tag_485\n        /* \"#utility.yul\":8410:8417   */\n      dup6\n        /* \"#utility.yul\":8401:8407   */\n      dup3\n        /* \"#utility.yul\":8390:8399   */\n      dup7\n        /* \"#utility.yul\":8386:8408   */\n      add\n        /* \"#utility.yul\":8365:8418   */\n      tag_365\n      jump\t// in\n    tag_485:\n        /* \"#utility.yul\":8355:8418   */\n      swap2\n      pop\n        /* \"#utility.yul\":8310:8428   */\n      pop\n        /* \"#utility.yul\":7961:8435   */\n      swap3\n      pop\n      swap3\n      swap1\n      pop\n      jump\t// out\n        /* \"#utility.yul\":8441:8621   */\n    tag_380:\n        /* \"#utility.yul\":8489:8566   */\n      0x4e487b7100000000000000000000000000000000000000000000000000000000\n        /* \"#utility.yul\":8486:8487   */\n      0x00\n        /* \"#utility.yul\":8479:8567   */\n      mstore\n        /* \"#utility.yul\":8586:8590   */\n      0x22\n        /* \"#utility.yul\":8583:8584   */\n      0x04\n        /* \"#utility.yul\":8576:8591   */\n      mstore\n        /* \"#utility.yul\":8610:8614   */\n      0x24\n        /* \"#utility.yul\":8607:8608   */\n      0x00\n        /* \"#utility.yul\":8600:8615   */\n      revert\n        /* \"#utility.yul\":8627:8947   */\n    tag_148:\n        /* \"#utility.yul\":8671:8677   */\n      0x00\n        /* \"#utility.yul\":8708:8709   */\n      0x02\n        /* \"#utility.yul\":8702:8706   */\n      dup3\n        /* \"#utility.yul\":8698:8710   */\n      div\n        /* \"#utility.yul\":8688:8710   */\n      swap1\n      pop\n        /* \"#utility.yul\":8755:8756   */\n      0x01\n        /* \"#utility.yul\":8749:8753   */\n      dup3\n        /* \"#utility.yul\":8745:8757   */\n      and\n        /* \"#utility.yul\":8776:8794   */\n      dup1\n        /* \"#utility.yul\":8766:8847   */\n      tag_488\n      jumpi\n        /* \"#utility.yul\":8832:8836   */\n      0x7f\n        /* \"#utility.yul\":8824:8830   */\n      dup3\n        /* \"#utility.yul\":8820:8837   */\n      and\n        /* \"#utility.yul\":8810:8837   */\n      swap2\n      pop\n        /* \"#utility.yul\":8766:8847   */\n    tag_488:\n        /* \"#utility.yul\":8894:8896   */\n      0x20\n        /* \"#utility.yul\":8886:8892   */\n      dup3\n        /* \"#utility.yul\":8883:8897   */\n      lt\n        /* \"#utility.yul\":8863:8881   */\n      dup2\n        /* \"#utility.yul\":8860:8898   */\n      sub\n        /* \"#utility.yul\":8857:8941   */\n      tag_489\n      jumpi\n        /* \"#utility.yul\":8913:8931   */\n      tag_490\n      tag_380\n      jump\t// in\n    tag_490:\n        /* \"#utility.yul\":8857:8941   */\n    tag_489:\n        /* \"#utility.yul\":8678:8947   */\n      pop\n        /* \"#utility.yul\":8627:8947   */\n      swap2\n      swap1\n      pop\n      jump\t// out\n        /* \"#utility.yul\":8953:9038   */\n    tag_381:\n        /* \"#utility.yul\":8998:9005   */\n      0x00\n        /* \"#utility.yul\":9027:9032   */\n      dup2\n        /* \"#utility.yul\":9016:9032   */\n      swap1\n      pop\n        /* \"#utility.yul\":8953:9038   */\n      swap2\n      swap1\n      pop\n      jump\t// out\n        /* \"#utility.yul\":9044:9202   */\n    tag_382:\n        /* \"#utility.yul\":9102:9111   */\n      0x00\n        /* \"#utility.yul\":9135:9196   */\n      tag_493\n        /* \"#utility.yul\":9153:9195   */\n      tag_494\n        /* \"#utility.yul\":9162:9194   */\n      tag_495\n        /* \"#utility.yul\":9188:9193   */\n      dup5\n        /* \"#utility.yul\":9162:9194   */\n      tag_381\n      jump\t// in\n    tag_495:\n        /* \"#utility.yul\":9153:9195   */\n      tag_370\n      jump\t// in\n    tag_494:\n        /* \"#utility.yul\":9135:9196   */\n      tag_352\n      jump\t// in\n    tag_493:\n        /* \"#utility.yul\":9122:9196   */\n      swap1\n      pop\n        /* \"#utility.yul\":9044:9202   */\n      swap2\n      swap1\n      pop\n      jump\t// out\n        /* \"#utility.yul\":9208:9355   */\n    tag_383:\n        /* \"#utility.yul\":9303:9348   */\n      tag_497\n        /* \"#utility.yul\":9342:9347   */\n      dup2\n        /* \"#utility.yul\":9303:9348   */\n      tag_382\n      jump\t// in\n    tag_497:\n        /* \"#utility.yul\":9298:9301   */\n      dup3\n        /* \"#utility.yul\":9291:9349   */\n      mstore\n        /* \"#utility.yul\":9208:9355   */\n      pop\n      pop\n      jump\t// out\n        /* \"#utility.yul\":9361:10168   */\n    tag_199:\n        /* \"#utility.yul\":9610:9614   */\n      0x00\n        /* \"#utility.yul\":9648:9651   */\n      0xc0\n        /* \"#utility.yul\":9637:9646   */\n      dup3\n        /* \"#utility.yul\":9633:9652   */\n      add\n        /* \"#utility.yul\":9625:9652   */\n      swap1\n      pop\n        /* \"#utility.yul\":9662:9733   */\n      tag_499\n        /* \"#utility.yul\":9730:9731   */\n      0x00\n        /* \"#utility.yul\":9719:9728   */\n      dup4\n        /* \"#utility.yul\":9715:9732   */\n      add\n        /* \"#utility.yul\":9706:9712   */\n      dup10\n        /* \"#utility.yul\":9662:9733   */\n      tag_377\n      jump\t// in\n    tag_499:\n        /* \"#utility.yul\":9743:9815   */\n      tag_500\n        /* \"#utility.yul\":9811:9813   */\n      0x20\n        /* \"#utility.yul\":9800:9809   */\n      dup4\n        /* \"#utility.yul\":9796:9814   */\n      add\n        /* \"#utility.yul\":9787:9793   */\n      dup9\n        /* \"#utility.yul\":9743:9815   */\n      tag_353\n      jump\t// in\n    tag_500:\n        /* \"#utility.yul\":9825:9905   */\n      tag_501\n        /* \"#utility.yul\":9901:9903   */\n      0x40\n        /* \"#utility.yul\":9890:9899   */\n      dup4\n        /* \"#utility.yul\":9886:9904   */\n      add\n        /* \"#utility.yul\":9877:9883   */\n      dup8\n        /* \"#utility.yul\":9825:9905   */\n      tag_383\n      jump\t// in\n    tag_501:\n        /* \"#utility.yul\":9915:9995   */\n      tag_502\n        /* \"#utility.yul\":9991:9993   */\n      0x60\n        /* \"#utility.yul\":9980:9989   */\n      dup4\n        /* \"#utility.yul\":9976:9994   */\n      add\n        /* \"#utility.yul\":9967:9973   */\n      dup7\n        /* \"#utility.yul\":9915:9995   */\n      tag_383\n      jump\t// in\n    tag_502:\n        /* \"#utility.yul\":10005:10078   */\n      tag_503\n        /* \"#utility.yul\":10073:10076   */\n      0x80\n        /* \"#utility.yul\":10062:10071   */\n      dup4\n        /* \"#utility.yul\":10058:10077   */\n      add\n        /* \"#utility.yul\":10049:10055   */\n      dup6\n        /* \"#utility.yul\":10005:10078   */\n      tag_377\n      jump\t// in\n    tag_503:\n        /* \"#utility.yul\":10088:10161   */\n      tag_504\n        /* \"#utility.yul\":10156:10159   */\n      0xa0\n        /* \"#utility.yul\":10145:10154   */\n      dup4\n        /* \"#utility.yul\":10141:10160   */\n      add\n        /* \"#utility.yul\":10132:10138   */\n      dup5\n        /* \"#utility.yul\":10088:10161   */\n      tag_353\n      jump\t// in\n    tag_504:\n        /* \"#utility.yul\":9361:10168   */\n      swap8\n      swap7\n      pop\n      pop\n      pop\n      pop\n      pop\n      pop\n      pop\n      jump\t// out\n        /* \"#utility.yul\":10174:10317   */\n    tag_384:\n        /* \"#utility.yul\":10231:10236   */\n      0x00\n        /* \"#utility.yul\":10262:10268   */\n      dup2\n        /* \"#utility.yul\":10256:10269   */\n      mload\n        /* \"#utility.yul\":10247:10269   */\n      swap1\n      pop\n        /* \"#utility.yul\":10278:10311   */\n      tag_506\n        /* \"#utility.yul\":10305:10310   */\n      dup2\n        /* \"#utility.yul\":10278:10311   */\n      tag_366\n      jump\t// in\n    tag_506:\n        /* \"#utility.yul\":10174:10317   */\n      swap3\n      swap2\n      pop\n      pop\n      jump\t// out\n        /* \"#utility.yul\":10323:10986   */\n    tag_203:\n        /* \"#utility.yul\":10411:10417   */\n      0x00\n        /* \"#utility.yul\":10419:10425   */\n      0x00\n        /* \"#utility.yul\":10427:10433   */\n      0x00\n        /* \"#utility.yul\":10476:10478   */\n      0x60\n        /* \"#utility.yul\":10464:10473   */\n      dup5\n        /* \"#utility.yul\":10455:10462   */\n      dup7\n        /* \"#utility.yul\":10451:10474   */\n      sub\n        /* \"#utility.yul\":10447:10479   */\n      slt\n        /* \"#utility.yul\":10444:10563   */\n      iszero\n      tag_508\n      jumpi\n        /* \"#utility.yul\":10482:10561   */\n      tag_509\n      tag_360\n      jump\t// in\n    tag_509:\n        /* \"#utility.yul\":10444:10563   */\n    tag_508:\n        /* \"#utility.yul\":10602:10603   */\n      0x00\n        /* \"#utility.yul\":10627:10691   */\n      tag_510\n        /* \"#utility.yul\":10683:10690   */\n      dup7\n        /* \"#utility.yul\":10674:10680   */\n      dup3\n        /* \"#utility.yul\":10663:10672   */\n      dup8\n        /* \"#utility.yul\":10659:10681   */\n      add\n        /* \"#utility.yul\":10627:10691   */\n      tag_384\n      jump\t// in\n    tag_510:\n        /* \"#utility.yul\":10617:10691   */\n      swap4\n      pop\n        /* \"#utility.yul\":10573:10701   */\n      pop\n        /* \"#utility.yul\":10740:10742   */\n      0x20\n        /* \"#utility.yul\":10766:10830   */\n      tag_511\n        /* \"#utility.yul\":10822:10829   */\n      dup7\n        /* \"#utility.yul\":10813:10819   */\n      dup3\n        /* \"#utility.yul\":10802:10811   */\n      dup8\n        /* \"#utility.yul\":10798:10820   */\n      add\n        /* \"#utility.yul\":10766:10830   */\n      tag_384\n      jump\t// in\n    tag_511:\n        /* \"#utility.yul\":10756:10830   */\n      swap3\n      pop\n        /* \"#utility.yul\":10711:10840   */\n      pop\n        /* \"#utility.yul\":10879:10881   */\n      0x40\n        /* \"#utility.yul\":10905:10969   */\n      tag_512\n        /* \"#utility.yul\":10961:10968   */\n      dup7\n        /* \"#utility.yul\":10952:10958   */\n      dup3\n        /* \"#utility.yul\":10941:10950   */\n      dup8\n        /* \"#utility.yul\":10937:10959   */\n      add\n        /* \"#utility.yul\":10905:10969   */\n      tag_384\n      jump\t// in\n    tag_512:\n        /* \"#utility.yul\":10895:10969   */\n      swap2\n      pop\n        /* \"#utility.yul\":10850:10979   */\n      pop\n        /* \"#utility.yul\":10323:10986   */\n      swap3\n      pop\n      swap3\n      pop\n      swap3\n      jump\t// out\n        /* \"#utility.yul\":10992:11324   */\n    tag_205:\n        /* \"#utility.yul\":11113:11117   */\n      0x00\n        /* \"#utility.yul\":11151:11153   */\n      0x40\n        /* \"#utility.yul\":11140:11149   */\n      dup3\n        /* \"#utility.yul\":11136:11154   */\n      add\n        /* \"#utility.yul\":11128:11154   */\n      swap1\n      pop\n        /* \"#utility.yul\":11164:11235   */\n      tag_514\n        /* \"#utility.yul\":11232:11233   */\n      0x00\n        /* \"#utility.yul\":11221:11230   */\n      dup4\n        /* \"#utility.yul\":11217:11234   */\n      add\n        /* \"#utility.yul\":11208:11214   */\n      dup6\n        /* \"#utility.yul\":11164:11235   */\n      tag_353\n      jump\t// in\n    tag_514:\n        /* \"#utility.yul\":11245:11317   */\n      tag_515\n        /* \"#utility.yul\":11313:11315   */\n      0x20\n        /* \"#utility.yul\":11302:11311   */\n      dup4\n        /* \"#utility.yul\":11298:11316   */\n      add\n        /* \"#utility.yul\":11289:11295   */\n      dup5\n        /* \"#utility.yul\":11245:11317   */\n      tag_353\n      jump\t// in\n    tag_515:\n        /* \"#utility.yul\":10992:11324   */\n      swap4\n      swap3\n      pop\n      pop\n      pop\n      jump\t// out\n        /* \"#utility.yul\":11330:11510   */\n    tag_385:\n        /* \"#utility.yul\":11378:11455   */\n      0x4e487b7100000000000000000000000000000000000000000000000000000000\n        /* \"#utility.yul\":11375:11376   */\n      0x00\n        /* \"#utility.yul\":11368:11456   */\n      mstore\n        /* \"#utility.yul\":11475:11479   */\n      0x11\n        /* \"#utility.yul\":11472:11473   */\n      0x04\n        /* \"#utility.yul\":11465:11480   */\n      mstore\n        /* \"#utility.yul\":11499:11503   */\n      0x24\n        /* \"#utility.yul\":11496:11497   */\n      0x00\n        /* \"#utility.yul\":11489:11504   */\n      revert\n        /* \"#utility.yul\":11516:11926   */\n    tag_237:\n        /* \"#utility.yul\":11556:11563   */\n      0x00\n        /* \"#utility.yul\":11579:11599   */\n      tag_518\n        /* \"#utility.yul\":11597:11598   */\n      dup3\n        /* \"#utility.yul\":11579:11599   */\n      tag_352\n      jump\t// in\n    tag_518:\n        /* \"#utility.yul\":11574:11599   */\n      swap2\n      pop\n        /* \"#utility.yul\":11613:11633   */\n      tag_519\n        /* \"#utility.yul\":11631:11632   */\n      dup4\n        /* \"#utility.yul\":11613:11633   */\n      tag_352\n      jump\t// in\n    tag_519:\n        /* \"#utility.yul\":11608:11633   */\n      swap3\n      pop\n        /* \"#utility.yul\":11668:11669   */\n      dup3\n        /* \"#utility.yul\":11665:11666   */\n      dup3\n        /* \"#utility.yul\":11661:11670   */\n      mul\n        /* \"#utility.yul\":11690:11720   */\n      tag_520\n        /* \"#utility.yul\":11708:11719   */\n      dup2\n        /* \"#utility.yul\":11690:11720   */\n      tag_352\n      jump\t// in\n    tag_520:\n        /* \"#utility.yul\":11679:11720   */\n      swap2\n      pop\n        /* \"#utility.yul\":11869:11870   */\n      dup3\n        /* \"#utility.yul\":11860:11867   */\n      dup3\n        /* \"#utility.yul\":11856:11871   */\n      div\n        /* \"#utility.yul\":11853:11854   */\n      dup5\n        /* \"#utility.yul\":11850:11872   */\n      eq\n        /* \"#utility.yul\":11830:11831   */\n      dup4\n        /* \"#utility.yul\":11823:11832   */\n      iszero\n        /* \"#utility.yul\":11803:11886   */\n      or\n        /* \"#utility.yul\":11780:11919   */\n      tag_521\n      jumpi\n        /* \"#utility.yul\":11899:11917   */\n      tag_522\n      tag_385\n      jump\t// in\n    tag_522:\n        /* \"#utility.yul\":11780:11919   */\n    tag_521:\n        /* \"#utility.yul\":11564:11926   */\n      pop\n        /* \"#utility.yul\":11516:11926   */\n      swap3\n      swap2\n      pop\n      pop\n      jump\t// out\n        /* \"#utility.yul\":11932:12112   */\n    tag_386:\n        /* \"#utility.yul\":11980:12057   */\n      0x4e487b7100000000000000000000000000000000000000000000000000000000\n        /* \"#utility.yul\":11977:11978   */\n      0x00\n        /* \"#utility.yul\":11970:12058   */\n      mstore\n        /* \"#utility.yul\":12077:12081   */\n      0x12\n        /* \"#utility.yul\":12074:12075   */\n      0x04\n        /* \"#utility.yul\":12067:12082   */\n      mstore\n        /* \"#utility.yul\":12101:12105   */\n      0x24\n        /* \"#utility.yul\":12098:12099   */\n      0x00\n        /* \"#utility.yul\":12091:12106   */\n      revert\n        /* \"#utility.yul\":12118:12303   */\n    tag_239:\n        /* \"#utility.yul\":12158:12159   */\n      0x00\n        /* \"#utility.yul\":12175:12195   */\n      tag_525\n        /* \"#utility.yul\":12193:12194   */\n      dup3\n        /* \"#utility.yul\":12175:12195   */\n      tag_352\n      jump\t// in\n    tag_525:\n        /* \"#utility.yul\":12170:12195   */\n      swap2\n      pop\n        /* \"#utility.yul\":12209:12229   */\n      tag_526\n        /* \"#utility.yul\":12227:12228   */\n      dup4\n        /* \"#utility.yul\":12209:12229   */\n      tag_352\n      jump\t// in\n    tag_526:\n        /* \"#utility.yul\":12204:12229   */\n      swap3\n      pop\n        /* \"#utility.yul\":12248:12249   */\n      dup3\n        /* \"#utility.yul\":12238:12273   */\n      tag_527\n      jumpi\n        /* \"#utility.yul\":12253:12271   */\n      tag_528\n      tag_386\n      jump\t// in\n    tag_528:\n        /* \"#utility.yul\":12238:12273   */\n    tag_527:\n        /* \"#utility.yul\":12295:12296   */\n      dup3\n        /* \"#utility.yul\":12292:12293   */\n      dup3\n        /* \"#utility.yul\":12288:12297   */\n      div\n        /* \"#utility.yul\":12283:12297   */\n      swap1\n      pop\n        /* \"#utility.yul\":12118:12303   */\n      swap3\n      swap2\n      pop\n      pop\n      jump\t// out\n        /* \"#utility.yul\":12309:12503   */\n    tag_245:\n        /* \"#utility.yul\":12349:12353   */\n      0x00\n        /* \"#utility.yul\":12369:12389   */\n      tag_530\n        /* \"#utility.yul\":12387:12388   */\n      dup3\n        /* \"#utility.yul\":12369:12389   */\n      tag_352\n      jump\t// in\n    tag_530:\n        /* \"#utility.yul\":12364:12389   */\n      swap2\n      pop\n        /* \"#utility.yul\":12403:12423   */\n      tag_531\n        /* \"#utility.yul\":12421:12422   */\n      dup4\n        /* \"#utility.yul\":12403:12423   */\n      tag_352\n      jump\t// in\n    tag_531:\n        /* \"#utility.yul\":12398:12423   */\n      swap3\n      pop\n        /* \"#utility.yul\":12447:12448   */\n      dup3\n        /* \"#utility.yul\":12444:12445   */\n      dup3\n        /* \"#utility.yul\":12440:12449   */\n      sub\n        /* \"#utility.yul\":12432:12449   */\n      swap1\n      pop\n        /* \"#utility.yul\":12471:12472   */\n      dup2\n        /* \"#utility.yul\":12465:12469   */\n      dup2\n        /* \"#utility.yul\":12462:12473   */\n      gt\n        /* \"#utility.yul\":12459:12496   */\n      iszero\n      tag_532\n      jumpi\n        /* \"#utility.yul\":12476:12494   */\n      tag_533\n      tag_385\n      jump\t// in\n    tag_533:\n        /* \"#utility.yul\":12459:12496   */\n    tag_532:\n        /* \"#utility.yul\":12309:12503   */\n      swap3\n      swap2\n      pop\n      pop\n      jump\t// out\n        /* \"#utility.yul\":12509:12700   */\n    tag_247:\n        /* \"#utility.yul\":12549:12552   */\n      0x00\n        /* \"#utility.yul\":12568:12588   */\n      tag_535\n        /* \"#utility.yul\":12586:12587   */\n      dup3\n        /* \"#utility.yul\":12568:12588   */\n      tag_352\n      jump\t// in\n    tag_535:\n        /* \"#utility.yul\":12563:12588   */\n      swap2\n      pop\n        /* \"#utility.yul\":12602:12622   */\n      tag_536\n        /* \"#utility.yul\":12620:12621   */\n      dup4\n        /* \"#utility.yul\":12602:12622   */\n      tag_352\n      jump\t// in\n    tag_536:\n        /* \"#utility.yul\":12597:12622   */\n      swap3\n      pop\n        /* \"#utility.yul\":12645:12646   */\n      dup3\n        /* \"#utility.yul\":12642:12643   */\n      dup3\n        /* \"#utility.yul\":12638:12647   */\n      add\n        /* \"#utility.yul\":12631:12647   */\n      swap1\n      pop\n        /* \"#utility.yul\":12666:12669   */\n      dup1\n        /* \"#utility.yul\":12663:12664   */\n      dup3\n        /* \"#utility.yul\":12660:12670   */\n      gt\n        /* \"#utility.yul\":12657:12693   */\n      iszero\n      tag_537\n      jumpi\n        /* \"#utility.yul\":12673:12691   */\n      tag_538\n      tag_385\n      jump\t// in\n    tag_538:\n        /* \"#utility.yul\":12657:12693   */\n    tag_537:\n        /* \"#utility.yul\":12509:12700   */\n      swap3\n      swap2\n      pop\n      pop\n      jump\t// out\n        /* \"#utility.yul\":12706:13148   */\n    tag_288:\n        /* \"#utility.yul\":12855:12859   */\n      0x00\n        /* \"#utility.yul\":12893:12895   */\n      0x60\n        /* \"#utility.yul\":12882:12891   */\n      dup3\n        /* \"#utility.yul\":12878:12896   */\n      add\n        /* \"#utility.yul\":12870:12896   */\n      swap1\n      pop\n        /* \"#utility.yul\":12906:12977   */\n      tag_540\n        /* \"#utility.yul\":12974:12975   */\n      0x00\n        /* \"#utility.yul\":12963:12972   */\n      dup4\n        /* \"#utility.yul\":12959:12976   */\n      add\n        /* \"#utility.yul\":12950:12956   */\n      dup7\n        /* \"#utility.yul\":12906:12977   */\n      tag_377\n      jump\t// in\n    tag_540:\n        /* \"#utility.yul\":12987:13059   */\n      tag_541\n        /* \"#utility.yul\":13055:13057   */\n      0x20\n        /* \"#utility.yul\":13044:13053   */\n      dup4\n        /* \"#utility.yul\":13040:13058   */\n      add\n        /* \"#utility.yul\":13031:13037   */\n      dup6\n        /* \"#utility.yul\":12987:13059   */\n      tag_353\n      jump\t// in\n    tag_541:\n        /* \"#utility.yul\":13069:13141   */\n      tag_542\n        /* \"#utility.yul\":13137:13139   */\n      0x40\n        /* \"#utility.yul\":13126:13135   */\n      dup4\n        /* \"#utility.yul\":13122:13140   */\n      add\n        /* \"#utility.yul\":13113:13119   */\n      dup5\n        /* \"#utility.yul\":13069:13141   */\n      tag_353\n      jump\t// in\n    tag_542:\n        /* \"#utility.yul\":12706:13148   */\n      swap5\n      swap4\n      pop\n      pop\n      pop\n      pop\n      jump\t// out\n\n    auxdata: 0xa2646970667358221220a144c185d6e246104ffa5a6effc8c3a7b3409669ad038e2c837dff866026213964736f6c634300081d0033\n}\n",
				"bytecode": {
					"linkReferences": {},
					"object": "60806040526005600855600a6009556032600a556014600b55601e600c55348015610028575f5ffd5b50604051612b5b380380612b5b833981810160405281019061004a9190610641565b808484816003908161005c91906108ed565b50806004908161006c91906108ed565b5050505f73ffffffffffffffffffffffffffffffffffffffff168173ffffffffffffffffffffffffffffffffffffffff16036100df575f6040517f1e4fbdf70000000000000000000000000000000000000000000000000000000081526004016100d691906109cb565b60405180910390fd5b6100ee816103d760201b60201c565b5060016006819055505f60075f6101000a81548160ff02191690831515021790555081600d5f6101000a81548173ffffffffffffffffffffffffffffffffffffffff021916908373ffffffffffffffffffffffffffffffffffffffff160217905550600d5f9054906101000a900473ffffffffffffffffffffffffffffffffffffffff1673ffffffffffffffffffffffffffffffffffffffff1663c45a01556040518163ffffffff1660e01b8152600401602060405180830381865afa1580156101ba573d5f5f3e3d5ffd5b505050506040513d601f19601f820116820180604052508101906101de91906109e4565b73ffffffffffffffffffffffffffffffffffffffff1663c9c6539630600d5f9054906101000a900473ffffffffffffffffffffffffffffffffffffffff1673ffffffffffffffffffffffffffffffffffffffff1663ad5c46486040518163ffffffff1660e01b8152600401602060405180830381865afa158015610264573d5f5f3e3d5ffd5b505050506040513d601f19601f8201168201806040525081019061028891906109e4565b6040518363ffffffff1660e01b81526004016102a5929190610a0f565b6020604051808303815f875af11580156102c1573d5f5f3e3d5ffd5b505050506040513d601f19601f820116820180604052508101906102e591906109e4565b600e5f6101000a81548173ffffffffffffffffffffffffffffffffffffffff021916908373ffffffffffffffffffffffffffffffffffffffff1602179055506001600f5f8373ffffffffffffffffffffffffffffffffffffffff1673ffffffffffffffffffffffffffffffffffffffff1681526020019081526020015f205f6101000a81548160ff0219169083151502179055506001600f5f3073ffffffffffffffffffffffffffffffffffffffff1673ffffffffffffffffffffffffffffffffffffffff1681526020019081526020015f205f6101000a81548160ff02191690831515021790555050505050610a36565b5f60055f9054906101000a900473ffffffffffffffffffffffffffffffffffffffff1690508160055f6101000a81548173ffffffffffffffffffffffffffffffffffffffff021916908373ffffffffffffffffffffffffffffffffffffffff1602179055508173ffffffffffffffffffffffffffffffffffffffff168173ffffffffffffffffffffffffffffffffffffffff167f8be0079c531659141344cd1fd0a4f28419497f9722a3daafe3b4186f6b6457e060405160405180910390a35050565b5f604051905090565b5f5ffd5b5f5ffd5b5f5ffd5b5f5ffd5b5f601f19601f8301169050919050565b7f4e487b71000000000000000000000000000000000000000000000000000000005f52604160045260245ffd5b6104f9826104b3565b810181811067ffffffffffffffff82111715610518576105176104c3565b5b80604052505050565b5f61052a61049a565b905061053682826104f0565b919050565b5f67ffffffffffffffff821115610555576105546104c3565b5b61055e826104b3565b9050602081019050919050565b8281835e5f83830152505050565b5f61058b6105868461053b565b610521565b9050828152602081018484840111156105a7576105a66104af565b5b6105b284828561056b565b509392505050565b5f82601f8301126105ce576105cd6104ab565b5b81516105de848260208601610579565b91505092915050565b5f73ffffffffffffffffffffffffffffffffffffffff82169050919050565b5f610610826105e7565b9050919050565b61062081610606565b811461062a575f5ffd5b50565b5f8151905061063b81610617565b92915050565b5f5f5f5f60808587031215610659576106586104a3565b5b5f85015167ffffffffffffffff811115610676576106756104a7565b5b610682878288016105ba565b945050602085015167ffffffffffffffff8111156106a3576106a26104a7565b5b6106af878288016105ba565b93505060406106c08782880161062d565b92505060606106d18782880161062d565b91505092959194509250565b5f81519050919050565b7f4e487b71000000000000000000000000000000000000000000000000000000005f52602260045260245ffd5b5f600282049050600182168061072b57607f821691505b60208210810361073e5761073d6106e7565b5b50919050565b5f819050815f5260205f209050919050565b5f6020601f8301049050919050565b5f82821b905092915050565b5f600883026107a07fffffffffffffffffffffffffffffffffffffffffffffffffffffffffffffffff82610765565b6107aa8683610765565b95508019841693508086168417925050509392505050565b5f819050919050565b5f819050919050565b5f6107ee6107e96107e4846107c2565b6107cb565b6107c2565b9050919050565b5f819050919050565b610807836107d4565b61081b610813826107f5565b848454610771565b825550505050565b5f5f905090565b610832610823565b61083d8184846107fe565b505050565b5b81811015610860576108555f8261082a565b600181019050610843565b5050565b601f8211156108a55761087681610744565b61087f84610756565b8101602085101561088e578190505b6108a261089a85610756565b830182610842565b50505b505050565b5f82821c905092915050565b5f6108c55f19846008026108aa565b1980831691505092915050565b5f6108dd83836108b6565b9150826002028217905092915050565b6108f6826106dd565b67ffffffffffffffff81111561090f5761090e6104c3565b5b6109198254610714565b610924828285610864565b5f60209050601f831160018114610955575f8415610943578287015190505b61094d85826108d2565b8655506109b4565b601f19841661096386610744565b5f5b8281101561098a57848901518255600182019150602085019450602081019050610965565b868310156109a757848901516109a3601f8916826108b6565b8355505b6001600288020188555050505b505050505050565b6109c581610606565b82525050565b5f6020820190506109de5f8301846109bc565b92915050565b5f602082840312156109f9576109f86104a3565b5b5f610a068482850161062d565b91505092915050565b5f604082019050610a225f8301856109bc565b610a2f60208301846109bc565b9392505050565b61211880610a435f395ff3fe608060405234801561000f575f5ffd5b50600436106101d8575f3560e01c80635c975abb11610102578063beabacc8116100a0578063cb4ca6311161006f578063cb4ca631146104e8578063cc1776d314610518578063dd62ed3e14610536578063f2fde38b14610566576101d8565b8063beabacc814610476578063c647b20e14610492578063c6a30647146104ae578063c816841b146104ca576101d8565b80638456cb59116100dc5780638456cb59146104005780638da5cb5b1461040a57806395d89b4114610428578063a9059cbb14610446576101d8565b80635c975abb146103a857806370a08231146103c6578063715018a6146103f6576101d8565b80632e1a7d4d1161017a57806340c10f191161014957806340c10f19146103345780634e6fd6c4146103505780634f7041a51461036e57806351c6590a1461038c576101d8565b80632e1a7d4d146102d2578063313ce567146102ee578063337270771461030c5780633f4ba83a1461032a576101d8565b806315291cd4116101b657806315291cd41461024857806318160ddd1461026657806323b872dd146102845780632431ba73146102b4576101d8565b806305bf0a54146101dc57806306fdde03146101fa578063095ea7b314610218575b5f5ffd5b6101e4610582565b6040516101f19190611a00565b60405180910390f35b610202610588565b60405161020f9190611a89565b60405180910390f35b610232600480360381019061022d9190611b31565b610618565b60405161023f9190611b89565b60405180910390f35b61025061063a565b60405161025d9190611a00565b60405180910390f35b61026e610640565b60405161027b9190611a00565b60405180910390f35b61029e60048036038101906102999190611ba2565b610649565b6040516102ab9190611b89565b60405180910390f35b6102bc610677565b6040516102c99190611c4d565b60405180910390f35b6102ec60048036038101906102e79190611c66565b61069c565b005b6102f66107a6565b6040516103039190611cac565b60405180910390f35b6103146107ae565b6040516103219190611a00565b60405180910390f35b6103326107b4565b005b61034e60048036038101906103499190611b31565b6107c6565b005b6103586107dc565b6040516103659190611cd4565b60405180910390f35b6103766107e2565b6040516103839190611a00565b60405180910390f35b6103a660048036038101906103a19190611c66565b6107e8565b005b6103b0610951565b6040516103bd9190611b89565b60405180910390f35b6103e060048036038101906103db9190611ced565b610966565b6040516103ed9190611a00565b60405180910390f35b6103fe6109ab565b005b6104086109be565b005b6104126109d0565b60405161041f9190611cd4565b60405180910390f35b6104306109f8565b60405161043d9190611a89565b60405180910390f35b610460600480360381019061045b9190611b31565b610a88565b60405161046d9190611b89565b60405180910390f35b610490600480360381019061048b9190611ba2565b610aaa565b005b6104ac60048036038101906104a79190611d18565b610e68565b005b6104c860048036038101906104c39190611d80565b610eca565b005b6104d2610f2a565b6040516104df9190611cd4565b60405180910390f35b61050260048036038101906104fd9190611ced565b610f4f565b60405161050f9190611b89565b60405180910390f35b610520610f6c565b60405161052d9190611a00565b60405180910390f35b610550600480360381019061054b9190611dbe565b610f72565b60405161055d9190611a00565b60405180910390f35b610580600480360381019061057b9190611ced565b610ff4565b005b600b5481565b60606003805461059790611e29565b80601f01602080910402602001604051908101604052809291908181526020018280546105c390611e29565b801561060e5780601f106105e55761010080835404028352916020019161060e565b820191905f5260205f20905b8154815290600101906020018083116105f157829003601f168201915b5050505050905090565b5f5f610622611078565b905061062f81858561107f565b600191505092915050565b600a5481565b5f600254905090565b5f5f610653611078565b9050610660858285611091565b61066b858585611124565b60019150509392505050565b600d5f9054906101000a900473ffffffffffffffffffffffffffffffffffffffff1681565b6106a4611214565b6106ac61129b565b5f73ffffffffffffffffffffffffffffffffffffffff163373ffffffffffffffffffffffffffffffffffffffff1603610711576040517fa38ca3d900000000000000000000000000000000000000000000000000000000815260040160405180910390fd5b4781111561074b576040517f356680b700000000000000000000000000000000000000000000000000000000815260040160405180910390fd5b5f4790506107576109d0565b73ffffffffffffffffffffffffffffffffffffffff166108fc8290811502906040515f60405180830381858888f19350505050158015610799573d5f5f3e3d5ffd5b50506107a36112e1565b50565b5f6012905090565b600c5481565b6107bc611214565b6107c46112eb565b565b6107ce611214565b6107d8828261134c565b5050565b61dead81565b60085481565b6107f0611214565b6107f861129b565b5f8111610831576040517f671d94d800000000000000000000000000000000000000000000000000000000815260040160405180910390fd5b61085d30600d5f9054906101000a900473ffffffffffffffffffffffffffffffffffffffff168361107f565b600d5f9054906101000a900473ffffffffffffffffffffffffffffffffffffffff1673ffffffffffffffffffffffffffffffffffffffff1663f305d7194730845f5f6108a76109d0565b426040518863ffffffff1660e01b81526004016108c996959493929190611e92565b60606040518083038185885af11580156108e5573d5f5f3e3d5ffd5b50505050506040513d601f19601f8201168201806040525081019061090a9190611f05565b5050507f38f8a0c92f4c5b0b6877f878cb4c0c8d348a47b76d716c8e78f425043df9515b814760405161093e929190611f55565b60405180910390a161094e6112e1565b50565b5f60075f9054906101000a900460ff16905090565b5f5f5f8373ffffffffffffffffffffffffffffffffffffffff1673ffffffffffffffffffffffffffffffffffffffff1681526020019081526020015f20549050919050565b6109b3611214565b6109bc5f6113cb565b565b6109c6611214565b6109ce61148e565b565b5f60055f9054906101000a900473ffffffffffffffffffffffffffffffffffffffff16905090565b606060048054610a0790611e29565b80601f0160208091040260200160405190810160405280929190818152602001828054610a3390611e29565b8015610a7e5780601f10610a5557610100808354040283529160200191610a7e565b820191905f5260205f20905b815481529060010190602001808311610a6157829003601f168201915b5050505050905090565b5f5f610a92611078565b9050610a9f818585611124565b600191505092915050565b5f73ffffffffffffffffffffffffffffffffffffffff168373ffffffffffffffffffffffffffffffffffffffff1603610b0f576040517ff38f85c300000000000000000000000000000000000000000000000000000000815260040160405180910390fd5b5f73ffffffffffffffffffffffffffffffffffffffff168273ffffffffffffffffffffffffffffffffffffffff1603610b74576040517fa38ca3d900000000000000000000000000000000000000000000000000000000815260040160405180910390fd5b600f5f8473ffffffffffffffffffffffffffffffffffffffff1673ffffffffffffffffffffffffffffffffffffffff1681526020019081526020015f205f9054906101000a900460ff1680610c0f5750600f5f8373ffffffffffffffffffffffffffffffffffffffff1673ffffffffffffffffffffffffffffffffffffffff1681526020019081526020015f205f9054906101000a900460ff165b15610c2457610c1f838383611124565b610e63565b5f600e5f9054906101000a900473ffffffffffffffffffffffffffffffffffffffff1673ffffffffffffffffffffffffffffffffffffffff168373ffffffffffffffffffffffffffffffffffffffff161490505f600e5f9054906101000a900473ffffffffffffffffffffffffffffffffffffffff1673ffffffffffffffffffffffffffffffffffffffff168573ffffffffffffffffffffffffffffffffffffffff161490505f8215610cf257606460085485610ce19190611fa9565b610ceb9190612017565b9050610d16565b8115610d1557606460095485610d089190611fa9565b610d129190612017565b90505b5b5f8185610d239190612047565b90508181610d31919061207a565b8514610d69576040517f1f825c6a00000000000000000000000000000000000000000000000000000000815260040160405180910390fd5b5f821115610e5357610d7c873084611124565b7f092c6768ba45dfdc937f94a27a0c5be8334952f1558bc7dd41b3e8707502e1b682604051610dab9190611a00565b60405180910390a15f6064600a5484610dc49190611fa9565b610dce9190612017565b90505f6064600b5485610de19190611fa9565b610deb9190612017565b90505f818386610dfb9190612047565b610e059190612047565b9050610e3330600e5f9054906101000a900473ffffffffffffffffffffffffffffffffffffffff1685611124565b610e3d30836114f0565b610e4f30610e496109d0565b83611124565b5050505b610e5e878783611124565b505050505b505050565b610e70611214565b600a8211158015610e82575060148111155b610eb8576040517faf1ee13400000000000000000000000000000000000000000000000000000000815260040160405180910390fd5b81600881905550806009819055505050565b610ed2611214565b80600f5f8473ffffffffffffffffffffffffffffffffffffffff1673ffffffffffffffffffffffffffffffffffffffff1681526020019081526020015f205f6101000a81548160ff0219169083151502179055505050565b600e5f9054906101000a900473ffffffffffffffffffffffffffffffffffffffff1681565b600f602052805f5260405f205f915054906101000a900460ff1681565b60095481565b5f60015f8473ffffffffffffffffffffffffffffffffffffffff1673ffffffffffffffffffffffffffffffffffffffff1681526020019081526020015f205f8373ffffffffffffffffffffffffffffffffffffffff1673ffffffffffffffffffffffffffffffffffffffff1681526020019081526020015f2054905092915050565b610ffc611214565b5f73ffffffffffffffffffffffffffffffffffffffff168173ffffffffffffffffffffffffffffffffffffffff160361106c575f6040517f1e4fbdf70000000000000000000000000000000000000000000000000000000081526004016110639190611cd4565b60405180910390fd5b611075816113cb565b50565b5f33905090565b61108c838383600161156f565b505050565b5f61109c8484610f72565b90507fffffffffffffffffffffffffffffffffffffffffffffffffffffffffffffffff81101561111e578181101561110f578281836040517ffb8f41b2000000000000000000000000000000000000000000000000000000008152600401611106939291906120ad565b60405180910390fd5b61111d84848484035f61156f565b5b50505050565b5f73ffffffffffffffffffffffffffffffffffffffff168373ffffffffffffffffffffffffffffffffffffffff1603611194575f6040517f96c6fd1e00000000000000000000000000000000000000000000000000000000815260040161118b9190611cd4565b60405180910390fd5b5f73ffffffffffffffffffffffffffffffffffffffff168273ffffffffffffffffffffffffffffffffffffffff1603611204575f6040517fec442f050000000000000000000000000000000000000000000000000000000081526004016111fb9190611cd4565b60405180910390fd5b61120f83838361173e565b505050565b61121c611078565b73ffffffffffffffffffffffffffffffffffffffff1661123a6109d0565b73ffffffffffffffffffffffffffffffffffffffff16146112995761125d611078565b6040517f118cdaa70000000000000000000000000000000000000000000000000000000081526004016112909190611cd4565b60405180910390fd5b565b6002600654036112d7576040517f3ee5aeb500000000000000000000000000000000000000000000000000000000815260040160405180910390fd5b6002600681905550565b6001600681905550565b6112f361174e565b5f60075f6101000a81548160ff0219169083151502179055507f5db9ee0a495bf2e6ff9c91a7834c1ba4fdd244a5e8aa4e537bd38aeae4b073aa611335611078565b6040516113429190611cd4565b60405180910390a1565b5f73ffffffffffffffffffffffffffffffffffffffff168273ffffffffffffffffffffffffffffffffffffffff16036113bc575f6040517fec442f050000000000000000000000000000000000000000000000000000000081526004016113b39190611cd4565b60405180910390fd5b6113c75f838361173e565b5050565b5f60055f9054906101000a900473ffffffffffffffffffffffffffffffffffffffff1690508160055f6101000a81548173ffffffffffffffffffffffffffffffffffffffff021916908373ffffffffffffffffffffffffffffffffffffffff1602179055508173ffffffffffffffffffffffffffffffffffffffff168173ffffffffffffffffffffffffffffffffffffffff167f8be0079c531659141344cd1fd0a4f28419497f9722a3daafe3b4186f6b6457e060405160405180910390a35050565b61149661178e565b600160075f6101000a81548160ff0219169083151502179055507f62e78cea01bee320cd4e420270b5ea74000d11b0c9f74754ebdbfc544b05a2586114d9611078565b6040516114e69190611cd4565b60405180910390a1565b5f73ffffffffffffffffffffffffffffffffffffffff168273ffffffffffffffffffffffffffffffffffffffff1603611560575f6040517f96c6fd1e0000000000000000000000000000000000000000000000000000000081526004016115579190611cd4565b60405180910390fd5b61156b825f8361173e565b5050565b5f73ffffffffffffffffffffffffffffffffffffffff168473ffffffffffffffffffffffffffffffffffffffff16036115df575f6040517fe602df050000000000000000000000000000000000000000000000000000000081526004016115d69190611cd4565b60405180910390fd5b5f73ffffffffffffffffffffffffffffffffffffffff168373ffffffffffffffffffffffffffffffffffffffff160361164f575f6040517f94280d620000000000000000000000000000000000000000000000000000000081526004016116469190611cd4565b60405180910390fd5b8160015f8673ffffffffffffffffffffffffffffffffffffffff1673ffffffffffffffffffffffffffffffffffffffff1681526020019081526020015f205f8573ffffffffffffffffffffffffffffffffffffffff1673ffffffffffffffffffffffffffffffffffffffff1681526020019081526020015f20819055508015611738578273ffffffffffffffffffffffffffffffffffffffff168473ffffffffffffffffffffffffffffffffffffffff167f8c5be1e5ebec7d5bd14f71427d1e84f3dd0314c0f7b2291e5b200ac8c7c3b9258460405161172f9190611a00565b60405180910390a35b50505050565b6117498383836117cf565b505050565b611756610951565b61178c576040517f8dfc202b00000000000000000000000000000000000000000000000000000000815260040160405180910390fd5b565b611796610951565b156117cd576040517fd93c066500000000000000000000000000000000000000000000000000000000815260040160405180910390fd5b565b5f73ffffffffffffffffffffffffffffffffffffffff168373ffffffffffffffffffffffffffffffffffffffff160361181f578060025f828254611813919061207a565b925050819055506118ed565b5f5f5f8573ffffffffffffffffffffffffffffffffffffffff1673ffffffffffffffffffffffffffffffffffffffff1681526020019081526020015f20549050818110156118a8578381836040517fe450d38c00000000000000000000000000000000000000000000000000000000815260040161189f939291906120ad565b60405180910390fd5b8181035f5f8673ffffffffffffffffffffffffffffffffffffffff1673ffffffffffffffffffffffffffffffffffffffff1681526020019081526020015f2081905550505b5f73ffffffffffffffffffffffffffffffffffffffff168273ffffffffffffffffffffffffffffffffffffffff1603611934578060025f828254039250508190555061197e565b805f5f8473ffffffffffffffffffffffffffffffffffffffff1673ffffffffffffffffffffffffffffffffffffffff1681526020019081526020015f205f82825401925050819055505b8173ffffffffffffffffffffffffffffffffffffffff168373ffffffffffffffffffffffffffffffffffffffff167fddf252ad1be2c89b69c2b068fc378daa952ba7f163c4a11628f55a4df523b3ef836040516119db9190611a00565b60405180910390a3505050565b5f819050919050565b6119fa816119e8565b82525050565b5f602082019050611a135f8301846119f1565b92915050565b5f81519050919050565b5f82825260208201905092915050565b8281835e5f83830152505050565b5f601f19601f8301169050919050565b5f611a5b82611a19565b611a658185611a23565b9350611a75818560208601611a33565b611a7e81611a41565b840191505092915050565b5f6020820190508181035f830152611aa18184611a51565b905092915050565b5f5ffd5b5f73ffffffffffffffffffffffffffffffffffffffff82169050919050565b5f611ad682611aad565b9050919050565b611ae681611acc565b8114611af0575f5ffd5b50565b5f81359050611b0181611add565b92915050565b611b10816119e8565b8114611b1a575f5ffd5b50565b5f81359050611b2b81611b07565b92915050565b5f5f60408385031215611b4757611b46611aa9565b5b5f611b5485828601611af3565b9250506020611b6585828601611b1d565b9150509250929050565b5f8115159050919050565b611b8381611b6f565b82525050565b5f602082019050611b9c5f830184611b7a565b92915050565b5f5f5f60608486031215611bb957611bb8611aa9565b5b5f611bc686828701611af3565b9350506020611bd786828701611af3565b9250506040611be886828701611b1d565b9150509250925092565b5f819050919050565b5f611c15611c10611c0b84611aad565b611bf2565b611aad565b9050919050565b5f611c2682611bfb565b9050919050565b5f611c3782611c1c565b9050919050565b611c4781611c2d565b82525050565b5f602082019050611c605f830184611c3e565b92915050565b5f60208284031215611c7b57611c7a611aa9565b5b5f611c8884828501611b1d565b91505092915050565b5f60ff82169050919050565b611ca681611c91565b82525050565b5f602082019050611cbf5f830184611c9d565b92915050565b611cce81611acc565b82525050565b5f602082019050611ce75f830184611cc5565b92915050565b5f60208284031215611d0257611d01611aa9565b5b5f611d0f84828501611af3565b91505092915050565b5f5f60408385031215611d2e57611d2d611aa9565b5b5f611d3b85828601611b1d565b9250506020611d4c85828601611b1d565b9150509250929050565b611d5f81611b6f565b8114611d69575f5ffd5b50565b5f81359050611d7a81611d56565b92915050565b5f5f60408385031215611d9657611d95611aa9565b5b5f611da385828601611af3565b9250506020611db485828601611d6c565b9150509250929050565b5f5f60408385031215611dd457611dd3611aa9565b5b5f611de185828601611af3565b9250506020611df285828601611af3565b9150509250929050565b7f4e487b71000000000000000000000000000000000000000000000000000000005f52602260045260245ffd5b5f6002820490506001821680611e4057607f821691505b602082108103611e5357611e52611dfc565b5b50919050565b5f819050919050565b5f611e7c611e77611e7284611e59565b611bf2565b6119e8565b9050919050565b611e8c81611e62565b82525050565b5f60c082019050611ea55f830189611cc5565b611eb260208301886119f1565b611ebf6040830187611e83565b611ecc6060830186611e83565b611ed96080830185611cc5565b611ee660a08301846119f1565b979650505050505050565b5f81519050611eff81611b07565b92915050565b5f5f5f60608486031215611f1c57611f1b611aa9565b5b5f611f2986828701611ef1565b9350506020611f3a86828701611ef1565b9250506040611f4b86828701611ef1565b9150509250925092565b5f604082019050611f685f8301856119f1565b611f7560208301846119f1565b9392505050565b7f4e487b71000000000000000000000000000000000000000000000000000000005f52601160045260245ffd5b5f611fb3826119e8565b9150611fbe836119e8565b9250828202611fcc816119e8565b91508282048414831517611fe357611fe2611f7c565b5b5092915050565b7f4e487b71000000000000000000000000000000000000000000000000000000005f52601260045260245ffd5b5f612021826119e8565b915061202c836119e8565b92508261203c5761203b611fea565b5b828204905092915050565b5f612051826119e8565b915061205c836119e8565b925082820390508181111561207457612073611f7c565b5b92915050565b5f612084826119e8565b915061208f836119e8565b92508282019050808211156120a7576120a6611f7c565b5b92915050565b5f6060820190506120c05f830186611cc5565b6120cd60208301856119f1565b6120da60408301846119f1565b94935050505056fea2646970667358221220a144c185d6e246104ffa5a6effc8c3a7b3409669ad038e2c837dff866026213964736f6c634300081d0033",
					"opcodes": "PUSH1 0x80 PUSH1 0x40 MSTORE PUSH1 0x5 PUSH1 0x8 SSTORE PUSH1 0xA PUSH1 0x9 SSTORE PUSH1 0x32 PUSH1 0xA SSTORE PUSH1 0x14 PUSH1 0xB SSTORE PUSH1 0x1E PUSH1 0xC SSTORE CALLVALUE DUP1 ISZERO PUSH2 0x28 JUMPI PUSH0 PUSH0 REVERT JUMPDEST POP PUSH1 0x40 MLOAD PUSH2 0x2B5B CODESIZE SUB DUP1 PUSH2 0x2B5B DUP4 CODECOPY DUP2 DUP2 ADD PUSH1 0x40 MSTORE DUP2 ADD SWAP1 PUSH2 0x4A SWAP2 SWAP1 PUSH2 0x641 JUMP JUMPDEST DUP1 DUP5 DUP5 DUP2 PUSH1 0x3 SWAP1 DUP2 PUSH2 0x5C SWAP2 SWAP1 PUSH2 0x8ED JUMP JUMPDEST POP DUP1 PUSH1 0x4 SWAP1 DUP2 PUSH2 0x6C SWAP2 SWAP1 PUSH2 0x8ED JUMP JUMPDEST POP POP POP PUSH0 PUSH20 0xFFFFFFFFFFFFFFFFFFFFFFFFFFFFFFFFFFFFFFFF AND DUP2 PUSH20 0xFFFFFFFFFFFFFFFFFFFFFFFFFFFFFFFFFFFFFFFF AND SUB PUSH2 0xDF JUMPI PUSH0 PUSH1 0x40 MLOAD PUSH32 0x1E4FBDF700000000000000000000000000000000000000000000000000000000 DUP2 MSTORE PUSH1 0x4 ADD PUSH2 0xD6 SWAP2 SWAP1 PUSH2 0x9CB JUMP JUMPDEST PUSH1 0x40 MLOAD DUP1 SWAP2 SUB SWAP1 REVERT JUMPDEST PUSH2 0xEE DUP2 PUSH2 0x3D7 PUSH1 0x20 SHL PUSH1 0x20 SHR JUMP JUMPDEST POP PUSH1 0x1 PUSH1 0x6 DUP2 SWAP1 SSTORE POP PUSH0 PUSH1 0x7 PUSH0 PUSH2 0x100 EXP DUP2 SLOAD DUP2 PUSH1 0xFF MUL NOT AND SWAP1 DUP4 ISZERO ISZERO MUL OR SWAP1 SSTORE POP DUP2 PUSH1 0xD PUSH0 PUSH2 0x100 EXP DUP2 SLOAD DUP2 PUSH20 0xFFFFFFFFFFFFFFFFFFFFFFFFFFFFFFFFFFFFFFFF MUL NOT AND SWAP1 DUP4 PUSH20 0xFFFFFFFFFFFFFFFFFFFFFFFFFFFFFFFFFFFFFFFF AND MUL OR SWAP1 SSTORE POP PUSH1 0xD PUSH0 SWAP1 SLOAD SWAP1 PUSH2 0x100 EXP SWAP1 DIV PUSH20 0xFFFFFFFFFFFFFFFFFFFFFFFFFFFFFFFFFFFFFFFF AND PUSH20 0xFFFFFFFFFFFFFFFFFFFFFFFFFFFFFFFFFFFFFFFF AND PUSH4 0xC45A0155 PUSH1 0x40 MLOAD DUP2 PUSH4 0xFFFFFFFF AND PUSH1 0xE0 SHL DUP2 MSTORE PUSH1 0x4 ADD PUSH1 0x20 PUSH1 0x40 MLOAD DUP1 DUP4 SUB DUP2 DUP7 GAS STATICCALL ISZERO DUP1 ISZERO PUSH2 0x1BA JUMPI RETURNDATASIZE PUSH0 PUSH0 RETURNDATACOPY RETURNDATASIZE PUSH0 REVERT JUMPDEST POP POP POP POP PUSH1 0x40 MLOAD RETURNDATASIZE PUSH1 0x1F NOT PUSH1 0x1F DUP3 ADD AND DUP3 ADD DUP1 PUSH1 0x40 MSTORE POP DUP2 ADD SWAP1 PUSH2 0x1DE SWAP2 SWAP1 PUSH2 0x9E4 JUMP JUMPDEST PUSH20 0xFFFFFFFFFFFFFFFFFFFFFFFFFFFFFFFFFFFFFFFF AND PUSH4 0xC9C65396 ADDRESS PUSH1 0xD PUSH0 SWAP1 SLOAD SWAP1 PUSH2 0x100 EXP SWAP1 DIV PUSH20 0xFFFFFFFFFFFFFFFFFFFFFFFFFFFFFFFFFFFFFFFF AND PUSH20 0xFFFFFFFFFFFFFFFFFFFFFFFFFFFFFFFFFFFFFFFF AND PUSH4 0xAD5C4648 PUSH1 0x40 MLOAD DUP2 PUSH4 0xFFFFFFFF AND PUSH1 0xE0 SHL DUP2 MSTORE PUSH1 0x4 ADD PUSH1 0x20 PUSH1 0x40 MLOAD DUP1 DUP4 SUB DUP2 DUP7 GAS STATICCALL ISZERO DUP1 ISZERO PUSH2 0x264 JUMPI RETURNDATASIZE PUSH0 PUSH0 RETURNDATACOPY RETURNDATASIZE PUSH0 REVERT JUMPDEST POP POP POP POP PUSH1 0x40 MLOAD RETURNDATASIZE PUSH1 0x1F NOT PUSH1 0x1F DUP3 ADD AND DUP3 ADD DUP1 PUSH1 0x40 MSTORE POP DUP2 ADD SWAP1 PUSH2 0x288 SWAP2 SWAP1 PUSH2 0x9E4 JUMP JUMPDEST PUSH1 0x40 MLOAD DUP4 PUSH4 0xFFFFFFFF AND PUSH1 0xE0 SHL DUP2 MSTORE PUSH1 0x4 ADD PUSH2 0x2A5 SWAP3 SWAP2 SWAP1 PUSH2 0xA0F JUMP JUMPDEST PUSH1 0x20 PUSH1 0x40 MLOAD DUP1 DUP4 SUB DUP2 PUSH0 DUP8 GAS CALL ISZERO DUP1 ISZERO PUSH2 0x2C1 JUMPI RETURNDATASIZE PUSH0 PUSH0 RETURNDATACOPY RETURNDATASIZE PUSH0 REVERT JUMPDEST POP POP POP POP PUSH1 0x40 MLOAD RETURNDATASIZE PUSH1 0x1F NOT PUSH1 0x1F DUP3 ADD AND DUP3 ADD DUP1 PUSH1 0x40 MSTORE POP DUP2 ADD SWAP1 PUSH2 0x2E5 SWAP2 SWAP1 PUSH2 0x9E4 JUMP JUMPDEST PUSH1 0xE PUSH0 PUSH2 0x100 EXP DUP2 SLOAD DUP2 PUSH20 0xFFFFFFFFFFFFFFFFFFFFFFFFFFFFFFFFFFFFFFFF MUL NOT AND SWAP1 DUP4 PUSH20 0xFFFFFFFFFFFFFFFFFFFFFFFFFFFFFFFFFFFFFFFF AND MUL OR SWAP1 SSTORE POP PUSH1 0x1 PUSH1 0xF PUSH0 DUP4 PUSH20 0xFFFFFFFFFFFFFFFFFFFFFFFFFFFFFFFFFFFFFFFF AND PUSH20 0xFFFFFFFFFFFFFFFFFFFFFFFFFFFFFFFFFFFFFFFF AND DUP2 MSTORE PUSH1 0x20 ADD SWAP1 DUP2 MSTORE PUSH1 0x20 ADD PUSH0 KECCAK256 PUSH0 PUSH2 0x100 EXP DUP2 SLOAD DUP2 PUSH1 0xFF MUL NOT AND SWAP1 DUP4 ISZERO ISZERO MUL OR SWAP1 SSTORE POP PUSH1 0x1 PUSH1 0xF PUSH0 ADDRESS PUSH20 0xFFFFFFFFFFFFFFFFFFFFFFFFFFFFFFFFFFFFFFFF AND PUSH20 0xFFFFFFFFFFFFFFFFFFFFFFFFFFFFFFFFFFFFFFFF AND DUP2 MSTORE PUSH1 0x20 ADD SWAP1 DUP2 MSTORE PUSH1 0x20 ADD PUSH0 KECCAK256 PUSH0 PUSH2 0x100 EXP DUP2 SLOAD DUP2 PUSH1 0xFF MUL NOT AND SWAP1 DUP4 ISZERO ISZERO MUL OR SWAP1 SSTORE POP POP POP POP POP PUSH2 0xA36 JUMP JUMPDEST PUSH0 PUSH1 0x5 PUSH0 SWAP1 SLOAD SWAP1 PUSH2 0x100 EXP SWAP1 DIV PUSH20 0xFFFFFFFFFFFFFFFFFFFFFFFFFFFFFFFFFFFFFFFF AND SWAP1 POP DUP2 PUSH1 0x5 PUSH0 PUSH2 0x100 EXP DUP2 SLOAD DUP2 PUSH20 0xFFFFFFFFFFFFFFFFFFFFFFFFFFFFFFFFFFFFFFFF MUL NOT AND SWAP1 DUP4 PUSH20 0xFFFFFFFFFFFFFFFFFFFFFFFFFFFFFFFFFFFFFFFF AND MUL OR SWAP1 SSTORE POP DUP2 PUSH20 0xFFFFFFFFFFFFFFFFFFFFFFFFFFFFFFFFFFFFFFFF AND DUP2 PUSH20 0xFFFFFFFFFFFFFFFFFFFFFFFFFFFFFFFFFFFFFFFF AND PUSH32 0x8BE0079C531659141344CD1FD0A4F28419497F9722A3DAAFE3B4186F6B6457E0 PUSH1 0x40 MLOAD PUSH1 0x40 MLOAD DUP1 SWAP2 SUB SWAP1 LOG3 POP POP JUMP JUMPDEST PUSH0 PUSH1 0x40 MLOAD SWAP1 POP SWAP1 JUMP JUMPDEST PUSH0 PUSH0 REVERT JUMPDEST PUSH0 PUSH0 REVERT JUMPDEST PUSH0 PUSH0 REVERT JUMPDEST PUSH0 PUSH0 REVERT JUMPDEST PUSH0 PUSH1 0x1F NOT PUSH1 0x1F DUP4 ADD AND SWAP1 POP SWAP2 SWAP1 POP JUMP JUMPDEST PUSH32 0x4E487B7100000000000000000000000000000000000000000000000000000000 PUSH0 MSTORE PUSH1 0x41 PUSH1 0x4 MSTORE PUSH1 0x24 PUSH0 REVERT JUMPDEST PUSH2 0x4F9 DUP3 PUSH2 0x4B3 JUMP JUMPDEST DUP2 ADD DUP2 DUP2 LT PUSH8 0xFFFFFFFFFFFFFFFF DUP3 GT OR ISZERO PUSH2 0x518 JUMPI PUSH2 0x517 PUSH2 0x4C3 JUMP JUMPDEST JUMPDEST DUP1 PUSH1 0x40 MSTORE POP POP POP JUMP JUMPDEST PUSH0 PUSH2 0x52A PUSH2 0x49A JUMP JUMPDEST SWAP1 POP PUSH2 0x536 DUP3 DUP3 PUSH2 0x4F0 JUMP JUMPDEST SWAP2 SWAP1 POP JUMP JUMPDEST PUSH0 PUSH8 0xFFFFFFFFFFFFFFFF DUP3 GT ISZERO PUSH2 0x555 JUMPI PUSH2 0x554 PUSH2 0x4C3 JUMP JUMPDEST JUMPDEST PUSH2 0x55E DUP3 PUSH2 0x4B3 JUMP JUMPDEST SWAP1 POP PUSH1 0x20 DUP2 ADD SWAP1 POP SWAP2 SWAP1 POP JUMP JUMPDEST DUP3 DUP2 DUP4 MCOPY PUSH0 DUP4 DUP4 ADD MSTORE POP POP POP JUMP JUMPDEST PUSH0 PUSH2 0x58B PUSH2 0x586 DUP5 PUSH2 0x53B JUMP JUMPDEST PUSH2 0x521 JUMP JUMPDEST SWAP1 POP DUP3 DUP2 MSTORE PUSH1 0x20 DUP2 ADD DUP5 DUP5 DUP5 ADD GT ISZERO PUSH2 0x5A7 JUMPI PUSH2 0x5A6 PUSH2 0x4AF JUMP JUMPDEST JUMPDEST PUSH2 0x5B2 DUP5 DUP3 DUP6 PUSH2 0x56B JUMP JUMPDEST POP SWAP4 SWAP3 POP POP POP JUMP JUMPDEST PUSH0 DUP3 PUSH1 0x1F DUP4 ADD SLT PUSH2 0x5CE JUMPI PUSH2 0x5CD PUSH2 0x4AB JUMP JUMPDEST JUMPDEST DUP2 MLOAD PUSH2 0x5DE DUP5 DUP3 PUSH1 0x20 DUP7 ADD PUSH2 0x579 JUMP JUMPDEST SWAP2 POP POP SWAP3 SWAP2 POP POP JUMP JUMPDEST PUSH0 PUSH20 0xFFFFFFFFFFFFFFFFFFFFFFFFFFFFFFFFFFFFFFFF DUP3 AND SWAP1 POP SWAP2 SWAP1 POP JUMP JUMPDEST PUSH0 PUSH2 0x610 DUP3 PUSH2 0x5E7 JUMP JUMPDEST SWAP1 POP SWAP2 SWAP1 POP JUMP JUMPDEST PUSH2 0x620 DUP2 PUSH2 0x606 JUMP JUMPDEST DUP2 EQ PUSH2 0x62A JUMPI PUSH0 PUSH0 REVERT JUMPDEST POP JUMP JUMPDEST PUSH0 DUP2 MLOAD SWAP1 POP PUSH2 0x63B DUP2 PUSH2 0x617 JUMP JUMPDEST SWAP3 SWAP2 POP POP JUMP JUMPDEST PUSH0 PUSH0 PUSH0 PUSH0 PUSH1 0x80 DUP6 DUP8 SUB SLT ISZERO PUSH2 0x659 JUMPI PUSH2 0x658 PUSH2 0x4A3 JUMP JUMPDEST JUMPDEST PUSH0 DUP6 ADD MLOAD PUSH8 0xFFFFFFFFFFFFFFFF DUP2 GT ISZERO PUSH2 0x676 JUMPI PUSH2 0x675 PUSH2 0x4A7 JUMP JUMPDEST JUMPDEST PUSH2 0x682 DUP8 DUP3 DUP9 ADD PUSH2 0x5BA JUMP JUMPDEST SWAP5 POP POP PUSH1 0x20 DUP6 ADD MLOAD PUSH8 0xFFFFFFFFFFFFFFFF DUP2 GT ISZERO PUSH2 0x6A3 JUMPI PUSH2 0x6A2 PUSH2 0x4A7 JUMP JUMPDEST JUMPDEST PUSH2 0x6AF DUP8 DUP3 DUP9 ADD PUSH2 0x5BA JUMP JUMPDEST SWAP4 POP POP PUSH1 0x40 PUSH2 0x6C0 DUP8 DUP3 DUP9 ADD PUSH2 0x62D JUMP JUMPDEST SWAP3 POP POP PUSH1 0x60 PUSH2 0x6D1 DUP8 DUP3 DUP9 ADD PUSH2 0x62D JUMP JUMPDEST SWAP2 POP POP SWAP3 SWAP6 SWAP2 SWAP5 POP SWAP3 POP JUMP JUMPDEST PUSH0 DUP2 MLOAD SWAP1 POP SWAP2 SWAP1 POP JUMP JUMPDEST PUSH32 0x4E487B7100000000000000000000000000000000000000000000000000000000 PUSH0 MSTORE PUSH1 0x22 PUSH1 0x4 MSTORE PUSH1 0x24 PUSH0 REVERT JUMPDEST PUSH0 PUSH1 0x2 DUP3 DIV SWAP1 POP PUSH1 0x1 DUP3 AND DUP1 PUSH2 0x72B JUMPI PUSH1 0x7F DUP3 AND SWAP2 POP JUMPDEST PUSH1 0x20 DUP3 LT DUP2 SUB PUSH2 0x73E JUMPI PUSH2 0x73D PUSH2 0x6E7 JUMP JUMPDEST JUMPDEST POP SWAP2 SWAP1 POP JUMP JUMPDEST PUSH0 DUP2 SWAP1 POP DUP2 PUSH0 MSTORE PUSH1 0x20 PUSH0 KECCAK256 SWAP1 POP SWAP2 SWAP1 POP JUMP JUMPDEST PUSH0 PUSH1 0x20 PUSH1 0x1F DUP4 ADD DIV SWAP1 POP SWAP2 SWAP1 POP JUMP JUMPDEST PUSH0 DUP3 DUP3 SHL SWAP1 POP SWAP3 SWAP2 POP POP JUMP JUMPDEST PUSH0 PUSH1 0x8 DUP4 MUL PUSH2 0x7A0 PUSH32 0xFFFFFFFFFFFFFFFFFFFFFFFFFFFFFFFFFFFFFFFFFFFFFFFFFFFFFFFFFFFFFFFF DUP3 PUSH2 0x765 JUMP JUMPDEST PUSH2 0x7AA DUP7 DUP4 PUSH2 0x765 JUMP JUMPDEST SWAP6 POP DUP1 NOT DUP5 AND SWAP4 POP DUP1 DUP7 AND DUP5 OR SWAP3 POP POP POP SWAP4 SWAP3 POP POP POP JUMP JUMPDEST PUSH0 DUP2 SWAP1 POP SWAP2 SWAP1 POP JUMP JUMPDEST PUSH0 DUP2 SWAP1 POP SWAP2 SWAP1 POP JUMP JUMPDEST PUSH0 PUSH2 0x7EE PUSH2 0x7E9 PUSH2 0x7E4 DUP5 PUSH2 0x7C2 JUMP JUMPDEST PUSH2 0x7CB JUMP JUMPDEST PUSH2 0x7C2 JUMP JUMPDEST SWAP1 POP SWAP2 SWAP1 POP JUMP JUMPDEST PUSH0 DUP2 SWAP1 POP SWAP2 SWAP1 POP JUMP JUMPDEST PUSH2 0x807 DUP4 PUSH2 0x7D4 JUMP JUMPDEST PUSH2 0x81B PUSH2 0x813 DUP3 PUSH2 0x7F5 JUMP JUMPDEST DUP5 DUP5 SLOAD PUSH2 0x771 JUMP JUMPDEST DUP3 SSTORE POP POP POP POP JUMP JUMPDEST PUSH0 PUSH0 SWAP1 POP SWAP1 JUMP JUMPDEST PUSH2 0x832 PUSH2 0x823 JUMP JUMPDEST PUSH2 0x83D DUP2 DUP5 DUP5 PUSH2 0x7FE JUMP JUMPDEST POP POP POP JUMP JUMPDEST JUMPDEST DUP2 DUP2 LT ISZERO PUSH2 0x860 JUMPI PUSH2 0x855 PUSH0 DUP3 PUSH2 0x82A JUMP JUMPDEST PUSH1 0x1 DUP2 ADD SWAP1 POP PUSH2 0x843 JUMP JUMPDEST POP POP JUMP JUMPDEST PUSH1 0x1F DUP3 GT ISZERO PUSH2 0x8A5 JUMPI PUSH2 0x876 DUP2 PUSH2 0x744 JUMP JUMPDEST PUSH2 0x87F DUP5 PUSH2 0x756 JUMP JUMPDEST DUP2 ADD PUSH1 0x20 DUP6 LT ISZERO PUSH2 0x88E JUMPI DUP2 SWAP1 POP JUMPDEST PUSH2 0x8A2 PUSH2 0x89A DUP6 PUSH2 0x756 JUMP JUMPDEST DUP4 ADD DUP3 PUSH2 0x842 JUMP JUMPDEST POP POP JUMPDEST POP POP POP JUMP JUMPDEST PUSH0 DUP3 DUP3 SHR SWAP1 POP SWAP3 SWAP2 POP POP JUMP JUMPDEST PUSH0 PUSH2 0x8C5 PUSH0 NOT DUP5 PUSH1 0x8 MUL PUSH2 0x8AA JUMP JUMPDEST NOT DUP1 DUP4 AND SWAP2 POP POP SWAP3 SWAP2 POP POP JUMP JUMPDEST PUSH0 PUSH2 0x8DD DUP4 DUP4 PUSH2 0x8B6 JUMP JUMPDEST SWAP2 POP DUP3 PUSH1 0x2 MUL DUP3 OR SWAP1 POP SWAP3 SWAP2 POP POP JUMP JUMPDEST PUSH2 0x8F6 DUP3 PUSH2 0x6DD JUMP JUMPDEST PUSH8 0xFFFFFFFFFFFFFFFF DUP2 GT ISZERO PUSH2 0x90F JUMPI PUSH2 0x90E PUSH2 0x4C3 JUMP JUMPDEST JUMPDEST PUSH2 0x919 DUP3 SLOAD PUSH2 0x714 JUMP JUMPDEST PUSH2 0x924 DUP3 DUP3 DUP6 PUSH2 0x864 JUMP JUMPDEST PUSH0 PUSH1 0x20 SWAP1 POP PUSH1 0x1F DUP4 GT PUSH1 0x1 DUP2 EQ PUSH2 0x955 JUMPI PUSH0 DUP5 ISZERO PUSH2 0x943 JUMPI DUP3 DUP8 ADD MLOAD SWAP1 POP JUMPDEST PUSH2 0x94D DUP6 DUP3 PUSH2 0x8D2 JUMP JUMPDEST DUP7 SSTORE POP PUSH2 0x9B4 JUMP JUMPDEST PUSH1 0x1F NOT DUP5 AND PUSH2 0x963 DUP7 PUSH2 0x744 JUMP JUMPDEST PUSH0 JUMPDEST DUP3 DUP2 LT ISZERO PUSH2 0x98A JUMPI DUP5 DUP10 ADD MLOAD DUP3 SSTORE PUSH1 0x1 DUP3 ADD SWAP2 POP PUSH1 0x20 DUP6 ADD SWAP5 POP PUSH1 0x20 DUP2 ADD SWAP1 POP PUSH2 0x965 JUMP JUMPDEST DUP7 DUP4 LT ISZERO PUSH2 0x9A7 JUMPI DUP5 DUP10 ADD MLOAD PUSH2 0x9A3 PUSH1 0x1F DUP10 AND DUP3 PUSH2 0x8B6 JUMP JUMPDEST DUP4 SSTORE POP JUMPDEST PUSH1 0x1 PUSH1 0x2 DUP9 MUL ADD DUP9 SSTORE POP POP POP JUMPDEST POP POP POP POP POP POP JUMP JUMPDEST PUSH2 0x9C5 DUP2 PUSH2 0x606 JUMP JUMPDEST DUP3 MSTORE POP POP JUMP JUMPDEST PUSH0 PUSH1 0x20 DUP3 ADD SWAP1 POP PUSH2 0x9DE PUSH0 DUP4 ADD DUP5 PUSH2 0x9BC JUMP JUMPDEST SWAP3 SWAP2 POP POP JUMP JUMPDEST PUSH0 PUSH1 0x20 DUP3 DUP5 SUB SLT ISZERO PUSH2 0x9F9 JUMPI PUSH2 0x9F8 PUSH2 0x4A3 JUMP JUMPDEST JUMPDEST PUSH0 PUSH2 0xA06 DUP5 DUP3 DUP6 ADD PUSH2 0x62D JUMP JUMPDEST SWAP2 POP POP SWAP3 SWAP2 POP POP JUMP JUMPDEST PUSH0 PUSH1 0x40 DUP3 ADD SWAP1 POP PUSH2 0xA22 PUSH0 DUP4 ADD DUP6 PUSH2 0x9BC JUMP JUMPDEST PUSH2 0xA2F PUSH1 0x20 DUP4 ADD DUP5 PUSH2 0x9BC JUMP JUMPDEST SWAP4 SWAP3 POP POP POP JUMP JUMPDEST PUSH2 0x2118 DUP1 PUSH2 0xA43 PUSH0 CODECOPY PUSH0 RETURN INVALID PUSH1 0x80 PUSH1 0x40 MSTORE CALLVALUE DUP1 ISZERO PUSH2 0xF JUMPI PUSH0 PUSH0 REVERT JUMPDEST POP PUSH1 0x4 CALLDATASIZE LT PUSH2 0x1D8 JUMPI PUSH0 CALLDATALOAD PUSH1 0xE0 SHR DUP1 PUSH4 0x5C975ABB GT PUSH2 0x102 JUMPI DUP1 PUSH4 0xBEABACC8 GT PUSH2 0xA0 JUMPI DUP1 PUSH4 0xCB4CA631 GT PUSH2 0x6F JUMPI DUP1 PUSH4 0xCB4CA631 EQ PUSH2 0x4E8 JUMPI DUP1 PUSH4 0xCC1776D3 EQ PUSH2 0x518 JUMPI DUP1 PUSH4 0xDD62ED3E EQ PUSH2 0x536 JUMPI DUP1 PUSH4 0xF2FDE38B EQ PUSH2 0x566 JUMPI PUSH2 0x1D8 JUMP JUMPDEST DUP1 PUSH4 0xBEABACC8 EQ PUSH2 0x476 JUMPI DUP1 PUSH4 0xC647B20E EQ PUSH2 0x492 JUMPI DUP1 PUSH4 0xC6A30647 EQ PUSH2 0x4AE JUMPI DUP1 PUSH4 0xC816841B EQ PUSH2 0x4CA JUMPI PUSH2 0x1D8 JUMP JUMPDEST DUP1 PUSH4 0x8456CB59 GT PUSH2 0xDC JUMPI DUP1 PUSH4 0x8456CB59 EQ PUSH2 0x400 JUMPI DUP1 PUSH4 0x8DA5CB5B EQ PUSH2 0x40A JUMPI DUP1 PUSH4 0x95D89B41 EQ PUSH2 0x428 JUMPI DUP1 PUSH4 0xA9059CBB EQ PUSH2 0x446 JUMPI PUSH2 0x1D8 JUMP JUMPDEST DUP1 PUSH4 0x5C975ABB EQ PUSH2 0x3A8 JUMPI DUP1 PUSH4 0x70A08231 EQ PUSH2 0x3C6 JUMPI DUP1 PUSH4 0x715018A6 EQ PUSH2 0x3F6 JUMPI PUSH2 0x1D8 JUMP JUMPDEST DUP1 PUSH4 0x2E1A7D4D GT PUSH2 0x17A JUMPI DUP1 PUSH4 0x40C10F19 GT PUSH2 0x149 JUMPI DUP1 PUSH4 0x40C10F19 EQ PUSH2 0x334 JUMPI DUP1 PUSH4 0x4E6FD6C4 EQ PUSH2 0x350 JUMPI DUP1 PUSH4 0x4F7041A5 EQ PUSH2 0x36E JUMPI DUP1 PUSH4 0x51C6590A EQ PUSH2 0x38C JUMPI PUSH2 0x1D8 JUMP JUMPDEST DUP1 PUSH4 0x2E1A7D4D EQ PUSH2 0x2D2 JUMPI DUP1 PUSH4 0x313CE567 EQ PUSH2 0x2EE JUMPI DUP1 PUSH4 0x33727077 EQ PUSH2 0x30C JUMPI DUP1 PUSH4 0x3F4BA83A EQ PUSH2 0x32A JUMPI PUSH2 0x1D8 JUMP JUMPDEST DUP1 PUSH4 0x15291CD4 GT PUSH2 0x1B6 JUMPI DUP1 PUSH4 0x15291CD4 EQ PUSH2 0x248 JUMPI DUP1 PUSH4 0x18160DDD EQ PUSH2 0x266 JUMPI DUP1 PUSH4 0x23B872DD EQ PUSH2 0x284 JUMPI DUP1 PUSH4 0x2431BA73 EQ PUSH2 0x2B4 JUMPI PUSH2 0x1D8 JUMP JUMPDEST DUP1 PUSH4 0x5BF0A54 EQ PUSH2 0x1DC JUMPI DUP1 PUSH4 0x6FDDE03 EQ PUSH2 0x1FA JUMPI DUP1 PUSH4 0x95EA7B3 EQ PUSH2 0x218 JUMPI JUMPDEST PUSH0 PUSH0 REVERT JUMPDEST PUSH2 0x1E4 PUSH2 0x582 JUMP JUMPDEST PUSH1 0x40 MLOAD PUSH2 0x1F1 SWAP2 SWAP1 PUSH2 0x1A00 JUMP JUMPDEST PUSH1 0x40 MLOAD DUP1 SWAP2 SUB SWAP1 RETURN JUMPDEST PUSH2 0x202 PUSH2 0x588 JUMP JUMPDEST PUSH1 0x40 MLOAD PUSH2 0x20F SWAP2 SWAP1 PUSH2 0x1A89 JUMP JUMPDEST PUSH1 0x40 MLOAD DUP1 SWAP2 SUB SWAP1 RETURN JUMPDEST PUSH2 0x232 PUSH1 0x4 DUP1 CALLDATASIZE SUB DUP2 ADD SWAP1 PUSH2 0x22D SWAP2 SWAP1 PUSH2 0x1B31 JUMP JUMPDEST PUSH2 0x618 JUMP JUMPDEST PUSH1 0x40 MLOAD PUSH2 0x23F SWAP2 SWAP1 PUSH2 0x1B89 JUMP JUMPDEST PUSH1 0x40 MLOAD DUP1 SWAP2 SUB SWAP1 RETURN JUMPDEST PUSH2 0x250 PUSH2 0x63A JUMP JUMPDEST PUSH1 0x40 MLOAD PUSH2 0x25D SWAP2 SWAP1 PUSH2 0x1A00 JUMP JUMPDEST PUSH1 0x40 MLOAD DUP1 SWAP2 SUB SWAP1 RETURN JUMPDEST PUSH2 0x26E PUSH2 0x640 JUMP JUMPDEST PUSH1 0x40 MLOAD PUSH2 0x27B SWAP2 SWAP1 PUSH2 0x1A00 JUMP JUMPDEST PUSH1 0x40 MLOAD DUP1 SWAP2 SUB SWAP1 RETURN JUMPDEST PUSH2 0x29E PUSH1 0x4 DUP1 CALLDATASIZE SUB DUP2 ADD SWAP1 PUSH2 0x299 SWAP2 SWAP1 PUSH2 0x1BA2 JUMP JUMPDEST PUSH2 0x649 JUMP JUMPDEST PUSH1 0x40 MLOAD PUSH2 0x2AB SWAP2 SWAP1 PUSH2 0x1B89 JUMP JUMPDEST PUSH1 0x40 MLOAD DUP1 SWAP2 SUB SWAP1 RETURN JUMPDEST PUSH2 0x2BC PUSH2 0x677 JUMP JUMPDEST PUSH1 0x40 MLOAD PUSH2 0x2C9 SWAP2 SWAP1 PUSH2 0x1C4D JUMP JUMPDEST PUSH1 0x40 MLOAD DUP1 SWAP2 SUB SWAP1 RETURN JUMPDEST PUSH2 0x2EC PUSH1 0x4 DUP1 CALLDATASIZE SUB DUP2 ADD SWAP1 PUSH2 0x2E7 SWAP2 SWAP1 PUSH2 0x1C66 JUMP JUMPDEST PUSH2 0x69C JUMP JUMPDEST STOP JUMPDEST PUSH2 0x2F6 PUSH2 0x7A6 JUMP JUMPDEST PUSH1 0x40 MLOAD PUSH2 0x303 SWAP2 SWAP1 PUSH2 0x1CAC JUMP JUMPDEST PUSH1 0x40 MLOAD DUP1 SWAP2 SUB SWAP1 RETURN JUMPDEST PUSH2 0x314 PUSH2 0x7AE JUMP JUMPDEST PUSH1 0x40 MLOAD PUSH2 0x321 SWAP2 SWAP1 PUSH2 0x1A00 JUMP JUMPDEST PUSH1 0x40 MLOAD DUP1 SWAP2 SUB SWAP1 RETURN JUMPDEST PUSH2 0x332 PUSH2 0x7B4 JUMP JUMPDEST STOP JUMPDEST PUSH2 0x34E PUSH1 0x4 DUP1 CALLDATASIZE SUB DUP2 ADD SWAP1 PUSH2 0x349 SWAP2 SWAP1 PUSH2 0x1B31 JUMP JUMPDEST PUSH2 0x7C6 JUMP JUMPDEST STOP JUMPDEST PUSH2 0x358 PUSH2 0x7DC JUMP JUMPDEST PUSH1 0x40 MLOAD PUSH2 0x365 SWAP2 SWAP1 PUSH2 0x1CD4 JUMP JUMPDEST PUSH1 0x40 MLOAD DUP1 SWAP2 SUB SWAP1 RETURN JUMPDEST PUSH2 0x376 PUSH2 0x7E2 JUMP JUMPDEST PUSH1 0x40 MLOAD PUSH2 0x383 SWAP2 SWAP1 PUSH2 0x1A00 JUMP JUMPDEST PUSH1 0x40 MLOAD DUP1 SWAP2 SUB SWAP1 RETURN JUMPDEST PUSH2 0x3A6 PUSH1 0x4 DUP1 CALLDATASIZE SUB DUP2 ADD SWAP1 PUSH2 0x3A1 SWAP2 SWAP1 PUSH2 0x1C66 JUMP JUMPDEST PUSH2 0x7E8 JUMP JUMPDEST STOP JUMPDEST PUSH2 0x3B0 PUSH2 0x951 JUMP JUMPDEST PUSH1 0x40 MLOAD PUSH2 0x3BD SWAP2 SWAP1 PUSH2 0x1B89 JUMP JUMPDEST PUSH1 0x40 MLOAD DUP1 SWAP2 SUB SWAP1 RETURN JUMPDEST PUSH2 0x3E0 PUSH1 0x4 DUP1 CALLDATASIZE SUB DUP2 ADD SWAP1 PUSH2 0x3DB SWAP2 SWAP1 PUSH2 0x1CED JUMP JUMPDEST PUSH2 0x966 JUMP JUMPDEST PUSH1 0x40 MLOAD PUSH2 0x3ED SWAP2 SWAP1 PUSH2 0x1A00 JUMP JUMPDEST PUSH1 0x40 MLOAD DUP1 SWAP2 SUB SWAP1 RETURN JUMPDEST PUSH2 0x3FE PUSH2 0x9AB JUMP JUMPDEST STOP JUMPDEST PUSH2 0x408 PUSH2 0x9BE JUMP JUMPDEST STOP JUMPDEST PUSH2 0x412 PUSH2 0x9D0 JUMP JUMPDEST PUSH1 0x40 MLOAD PUSH2 0x41F SWAP2 SWAP1 PUSH2 0x1CD4 JUMP JUMPDEST PUSH1 0x40 MLOAD DUP1 SWAP2 SUB SWAP1 RETURN JUMPDEST PUSH2 0x430 PUSH2 0x9F8 JUMP JUMPDEST PUSH1 0x40 MLOAD PUSH2 0x43D SWAP2 SWAP1 PUSH2 0x1A89 JUMP JUMPDEST PUSH1 0x40 MLOAD DUP1 SWAP2 SUB SWAP1 RETURN JUMPDEST PUSH2 0x460 PUSH1 0x4 DUP1 CALLDATASIZE SUB DUP2 ADD SWAP1 PUSH2 0x45B SWAP2 SWAP1 PUSH2 0x1B31 JUMP JUMPDEST PUSH2 0xA88 JUMP JUMPDEST PUSH1 0x40 MLOAD PUSH2 0x46D SWAP2 SWAP1 PUSH2 0x1B89 JUMP JUMPDEST PUSH1 0x40 MLOAD DUP1 SWAP2 SUB SWAP1 RETURN JUMPDEST PUSH2 0x490 PUSH1 0x4 DUP1 CALLDATASIZE SUB DUP2 ADD SWAP1 PUSH2 0x48B SWAP2 SWAP1 PUSH2 0x1BA2 JUMP JUMPDEST PUSH2 0xAAA JUMP JUMPDEST STOP JUMPDEST PUSH2 0x4AC PUSH1 0x4 DUP1 CALLDATASIZE SUB DUP2 ADD SWAP1 PUSH2 0x4A7 SWAP2 SWAP1 PUSH2 0x1D18 JUMP JUMPDEST PUSH2 0xE68 JUMP JUMPDEST STOP JUMPDEST PUSH2 0x4C8 PUSH1 0x4 DUP1 CALLDATASIZE SUB DUP2 ADD SWAP1 PUSH2 0x4C3 SWAP2 SWAP1 PUSH2 0x1D80 JUMP JUMPDEST PUSH2 0xECA JUMP JUMPDEST STOP JUMPDEST PUSH2 0x4D2 PUSH2 0xF2A JUMP JUMPDEST PUSH1 0x40 MLOAD PUSH2 0x4DF SWAP2 SWAP1 PUSH2 0x1CD4 JUMP JUMPDEST PUSH1 0x40 MLOAD DUP1 SWAP2 SUB SWAP1 RETURN JUMPDEST PUSH2 0x502 PUSH1 0x4 DUP1 CALLDATASIZE SUB DUP2 ADD SWAP1 PUSH2 0x4FD SWAP2 SWAP1 PUSH2 0x1CED JUMP JUMPDEST PUSH2 0xF4F JUMP JUMPDEST PUSH1 0x40 MLOAD PUSH2 0x50F SWAP2 SWAP1 PUSH2 0x1B89 JUMP JUMPDEST PUSH1 0x40 MLOAD DUP1 SWAP2 SUB SWAP1 RETURN JUMPDEST PUSH2 0x520 PUSH2 0xF6C JUMP JUMPDEST PUSH1 0x40 MLOAD PUSH2 0x52D SWAP2 SWAP1 PUSH2 0x1A00 JUMP JUMPDEST PUSH1 0x40 MLOAD DUP1 SWAP2 SUB SWAP1 RETURN JUMPDEST PUSH2 0x550 PUSH1 0x4 DUP1 CALLDATASIZE SUB DUP2 ADD SWAP1 PUSH2 0x54B SWAP2 SWAP1 PUSH2 0x1DBE JUMP JUMPDEST PUSH2 0xF72 JUMP JUMPDEST PUSH1 0x40 MLOAD PUSH2 0x55D SWAP2 SWAP1 PUSH2 0x1A00 JUMP JUMPDEST PUSH1 0x40 MLOAD DUP1 SWAP2 SUB SWAP1 RETURN JUMPDEST PUSH2 0x580 PUSH1 0x4 DUP1 CALLDATASIZE SUB DUP2 ADD SWAP1 PUSH2 0x57B SWAP2 SWAP1 PUSH2 0x1CED JUMP JUMPDEST PUSH2 0xFF4 JUMP JUMPDEST STOP JUMPDEST PUSH1 0xB SLOAD DUP2 JUMP JUMPDEST PUSH1 0x60 PUSH1 0x3 DUP1 SLOAD PUSH2 0x597 SWAP1 PUSH2 0x1E29 JUMP JUMPDEST DUP1 PUSH1 0x1F ADD PUSH1 0x20 DUP1 SWAP2 DIV MUL PUSH1 0x20 ADD PUSH1 0x40 MLOAD SWAP1 DUP2 ADD PUSH1 0x40 MSTORE DUP1 SWAP3 SWAP2 SWAP1 DUP2 DUP2 MSTORE PUSH1 0x20 ADD DUP3 DUP1 SLOAD PUSH2 0x5C3 SWAP1 PUSH2 0x1E29 JUMP JUMPDEST DUP1 ISZERO PUSH2 0x60E JUMPI DUP1 PUSH1 0x1F LT PUSH2 0x5E5 JUMPI PUSH2 0x100 DUP1 DUP4 SLOAD DIV MUL DUP4 MSTORE SWAP2 PUSH1 0x20 ADD SWAP2 PUSH2 0x60E JUMP JUMPDEST DUP3 ADD SWAP2 SWAP1 PUSH0 MSTORE PUSH1 0x20 PUSH0 KECCAK256 SWAP1 JUMPDEST DUP2 SLOAD DUP2 MSTORE SWAP1 PUSH1 0x1 ADD SWAP1 PUSH1 0x20 ADD DUP1 DUP4 GT PUSH2 0x5F1 JUMPI DUP3 SWAP1 SUB PUSH1 0x1F AND DUP3 ADD SWAP2 JUMPDEST POP POP POP POP POP SWAP1 POP SWAP1 JUMP JUMPDEST PUSH0 PUSH0 PUSH2 0x622 PUSH2 0x1078 JUMP JUMPDEST SWAP1 POP PUSH2 0x62F DUP2 DUP6 DUP6 PUSH2 0x107F JUMP JUMPDEST PUSH1 0x1 SWAP2 POP POP SWAP3 SWAP2 POP POP JUMP JUMPDEST PUSH1 0xA SLOAD DUP2 JUMP JUMPDEST PUSH0 PUSH1 0x2 SLOAD SWAP1 POP SWAP1 JUMP JUMPDEST PUSH0 PUSH0 PUSH2 0x653 PUSH2 0x1078 JUMP JUMPDEST SWAP1 POP PUSH2 0x660 DUP6 DUP3 DUP6 PUSH2 0x1091 JUMP JUMPDEST PUSH2 0x66B DUP6 DUP6 DUP6 PUSH2 0x1124 JUMP JUMPDEST PUSH1 0x1 SWAP2 POP POP SWAP4 SWAP3 POP POP POP JUMP JUMPDEST PUSH1 0xD PUSH0 SWAP1 SLOAD SWAP1 PUSH2 0x100 EXP SWAP1 DIV PUSH20 0xFFFFFFFFFFFFFFFFFFFFFFFFFFFFFFFFFFFFFFFF AND DUP2 JUMP JUMPDEST PUSH2 0x6A4 PUSH2 0x1214 JUMP JUMPDEST PUSH2 0x6AC PUSH2 0x129B JUMP JUMPDEST PUSH0 PUSH20 0xFFFFFFFFFFFFFFFFFFFFFFFFFFFFFFFFFFFFFFFF AND CALLER PUSH20 0xFFFFFFFFFFFFFFFFFFFFFFFFFFFFFFFFFFFFFFFF AND SUB PUSH2 0x711 JUMPI PUSH1 0x40 MLOAD PUSH32 0xA38CA3D900000000000000000000000000000000000000000000000000000000 DUP2 MSTORE PUSH1 0x4 ADD PUSH1 0x40 MLOAD DUP1 SWAP2 SUB SWAP1 REVERT JUMPDEST SELFBALANCE DUP2 GT ISZERO PUSH2 0x74B JUMPI PUSH1 0x40 MLOAD PUSH32 0x356680B700000000000000000000000000000000000000000000000000000000 DUP2 MSTORE PUSH1 0x4 ADD PUSH1 0x40 MLOAD DUP1 SWAP2 SUB SWAP1 REVERT JUMPDEST PUSH0 SELFBALANCE SWAP1 POP PUSH2 0x757 PUSH2 0x9D0 JUMP JUMPDEST PUSH20 0xFFFFFFFFFFFFFFFFFFFFFFFFFFFFFFFFFFFFFFFF AND PUSH2 0x8FC DUP3 SWAP1 DUP2 ISZERO MUL SWAP1 PUSH1 0x40 MLOAD PUSH0 PUSH1 0x40 MLOAD DUP1 DUP4 SUB DUP2 DUP6 DUP9 DUP9 CALL SWAP4 POP POP POP POP ISZERO DUP1 ISZERO PUSH2 0x799 JUMPI RETURNDATASIZE PUSH0 PUSH0 RETURNDATACOPY RETURNDATASIZE PUSH0 REVERT JUMPDEST POP POP PUSH2 0x7A3 PUSH2 0x12E1 JUMP JUMPDEST POP JUMP JUMPDEST PUSH0 PUSH1 0x12 SWAP1 POP SWAP1 JUMP JUMPDEST PUSH1 0xC SLOAD DUP2 JUMP JUMPDEST PUSH2 0x7BC PUSH2 0x1214 JUMP JUMPDEST PUSH2 0x7C4 PUSH2 0x12EB JUMP JUMPDEST JUMP JUMPDEST PUSH2 0x7CE PUSH2 0x1214 JUMP JUMPDEST PUSH2 0x7D8 DUP3 DUP3 PUSH2 0x134C JUMP JUMPDEST POP POP JUMP JUMPDEST PUSH2 0xDEAD DUP2 JUMP JUMPDEST PUSH1 0x8 SLOAD DUP2 JUMP JUMPDEST PUSH2 0x7F0 PUSH2 0x1214 JUMP JUMPDEST PUSH2 0x7F8 PUSH2 0x129B JUMP JUMPDEST PUSH0 DUP2 GT PUSH2 0x831 JUMPI PUSH1 0x40 MLOAD PUSH32 0x671D94D800000000000000000000000000000000000000000000000000000000 DUP2 MSTORE PUSH1 0x4 ADD PUSH1 0x40 MLOAD DUP1 SWAP2 SUB SWAP1 REVERT JUMPDEST PUSH2 0x85D ADDRESS PUSH1 0xD PUSH0 SWAP1 SLOAD SWAP1 PUSH2 0x100 EXP SWAP1 DIV PUSH20 0xFFFFFFFFFFFFFFFFFFFFFFFFFFFFFFFFFFFFFFFF AND DUP4 PUSH2 0x107F JUMP JUMPDEST PUSH1 0xD PUSH0 SWAP1 SLOAD SWAP1 PUSH2 0x100 EXP SWAP1 DIV PUSH20 0xFFFFFFFFFFFFFFFFFFFFFFFFFFFFFFFFFFFFFFFF AND PUSH20 0xFFFFFFFFFFFFFFFFFFFFFFFFFFFFFFFFFFFFFFFF AND PUSH4 0xF305D719 SELFBALANCE ADDRESS DUP5 PUSH0 PUSH0 PUSH2 0x8A7 PUSH2 0x9D0 JUMP JUMPDEST TIMESTAMP PUSH1 0x40 MLOAD DUP9 PUSH4 0xFFFFFFFF AND PUSH1 0xE0 SHL DUP2 MSTORE PUSH1 0x4 ADD PUSH2 0x8C9 SWAP7 SWAP6 SWAP5 SWAP4 SWAP3 SWAP2 SWAP1 PUSH2 0x1E92 JUMP JUMPDEST PUSH1 0x60 PUSH1 0x40 MLOAD DUP1 DUP4 SUB DUP2 DUP6 DUP9 GAS CALL ISZERO DUP1 ISZERO PUSH2 0x8E5 JUMPI RETURNDATASIZE PUSH0 PUSH0 RETURNDATACOPY RETURNDATASIZE PUSH0 REVERT JUMPDEST POP POP POP POP POP PUSH1 0x40 MLOAD RETURNDATASIZE PUSH1 0x1F NOT PUSH1 0x1F DUP3 ADD AND DUP3 ADD DUP1 PUSH1 0x40 MSTORE POP DUP2 ADD SWAP1 PUSH2 0x90A SWAP2 SWAP1 PUSH2 0x1F05 JUMP JUMPDEST POP POP POP PUSH32 0x38F8A0C92F4C5B0B6877F878CB4C0C8D348A47B76D716C8E78F425043DF9515B DUP2 SELFBALANCE PUSH1 0x40 MLOAD PUSH2 0x93E SWAP3 SWAP2 SWAP1 PUSH2 0x1F55 JUMP JUMPDEST PUSH1 0x40 MLOAD DUP1 SWAP2 SUB SWAP1 LOG1 PUSH2 0x94E PUSH2 0x12E1 JUMP JUMPDEST POP JUMP JUMPDEST PUSH0 PUSH1 0x7 PUSH0 SWAP1 SLOAD SWAP1 PUSH2 0x100 EXP SWAP1 DIV PUSH1 0xFF AND SWAP1 POP SWAP1 JUMP JUMPDEST PUSH0 PUSH0 PUSH0 DUP4 PUSH20 0xFFFFFFFFFFFFFFFFFFFFFFFFFFFFFFFFFFFFFFFF AND PUSH20 0xFFFFFFFFFFFFFFFFFFFFFFFFFFFFFFFFFFFFFFFF AND DUP2 MSTORE PUSH1 0x20 ADD SWAP1 DUP2 MSTORE PUSH1 0x20 ADD PUSH0 KECCAK256 SLOAD SWAP1 POP SWAP2 SWAP1 POP JUMP JUMPDEST PUSH2 0x9B3 PUSH2 0x1214 JUMP JUMPDEST PUSH2 0x9BC PUSH0 PUSH2 0x13CB JUMP JUMPDEST JUMP JUMPDEST PUSH2 0x9C6 PUSH2 0x1214 JUMP JUMPDEST PUSH2 0x9CE PUSH2 0x148E JUMP JUMPDEST JUMP JUMPDEST PUSH0 PUSH1 0x5 PUSH0 SWAP1 SLOAD SWAP1 PUSH2 0x100 EXP SWAP1 DIV PUSH20 0xFFFFFFFFFFFFFFFFFFFFFFFFFFFFFFFFFFFFFFFF AND SWAP1 POP SWAP1 JUMP JUMPDEST PUSH1 0x60 PUSH1 0x4 DUP1 SLOAD PUSH2 0xA07 SWAP1 PUSH2 0x1E29 JUMP JUMPDEST DUP1 PUSH1 0x1F ADD PUSH1 0x20 DUP1 SWAP2 DIV MUL PUSH1 0x20 ADD PUSH1 0x40 MLOAD SWAP1 DUP2 ADD PUSH1 0x40 MSTORE DUP1 SWAP3 SWAP2 SWAP1 DUP2 DUP2 MSTORE PUSH1 0x20 ADD DUP3 DUP1 SLOAD PUSH2 0xA33 SWAP1 PUSH2 0x1E29 JUMP JUMPDEST DUP1 ISZERO PUSH2 0xA7E JUMPI DUP1 PUSH1 0x1F LT PUSH2 0xA55 JUMPI PUSH2 0x100 DUP1 DUP4 SLOAD DIV MUL DUP4 MSTORE SWAP2 PUSH1 0x20 ADD SWAP2 PUSH2 0xA7E JUMP JUMPDEST DUP3 ADD SWAP2 SWAP1 PUSH0 MSTORE PUSH1 0x20 PUSH0 KECCAK256 SWAP1 JUMPDEST DUP2 SLOAD DUP2 MSTORE SWAP1 PUSH1 0x1 ADD SWAP1 PUSH1 0x20 ADD DUP1 DUP4 GT PUSH2 0xA61 JUMPI DUP3 SWAP1 SUB PUSH1 0x1F AND DUP3 ADD SWAP2 JUMPDEST POP POP POP POP POP SWAP1 POP SWAP1 JUMP JUMPDEST PUSH0 PUSH0 PUSH2 0xA92 PUSH2 0x1078 JUMP JUMPDEST SWAP1 POP PUSH2 0xA9F DUP2 DUP6 DUP6 PUSH2 0x1124 JUMP JUMPDEST PUSH1 0x1 SWAP2 POP POP SWAP3 SWAP2 POP POP JUMP JUMPDEST PUSH0 PUSH20 0xFFFFFFFFFFFFFFFFFFFFFFFFFFFFFFFFFFFFFFFF AND DUP4 PUSH20 0xFFFFFFFFFFFFFFFFFFFFFFFFFFFFFFFFFFFFFFFF AND SUB PUSH2 0xB0F JUMPI PUSH1 0x40 MLOAD PUSH32 0xF38F85C300000000000000000000000000000000000000000000000000000000 DUP2 MSTORE PUSH1 0x4 ADD PUSH1 0x40 MLOAD DUP1 SWAP2 SUB SWAP1 REVERT JUMPDEST PUSH0 PUSH20 0xFFFFFFFFFFFFFFFFFFFFFFFFFFFFFFFFFFFFFFFF AND DUP3 PUSH20 0xFFFFFFFFFFFFFFFFFFFFFFFFFFFFFFFFFFFFFFFF AND SUB PUSH2 0xB74 JUMPI PUSH1 0x40 MLOAD PUSH32 0xA38CA3D900000000000000000000000000000000000000000000000000000000 DUP2 MSTORE PUSH1 0x4 ADD PUSH1 0x40 MLOAD DUP1 SWAP2 SUB SWAP1 REVERT JUMPDEST PUSH1 0xF PUSH0 DUP5 PUSH20 0xFFFFFFFFFFFFFFFFFFFFFFFFFFFFFFFFFFFFFFFF AND PUSH20 0xFFFFFFFFFFFFFFFFFFFFFFFFFFFFFFFFFFFFFFFF AND DUP2 MSTORE PUSH1 0x20 ADD SWAP1 DUP2 MSTORE PUSH1 0x20 ADD PUSH0 KECCAK256 PUSH0 SWAP1 SLOAD SWAP1 PUSH2 0x100 EXP SWAP1 DIV PUSH1 0xFF AND DUP1 PUSH2 0xC0F JUMPI POP PUSH1 0xF PUSH0 DUP4 PUSH20 0xFFFFFFFFFFFFFFFFFFFFFFFFFFFFFFFFFFFFFFFF AND PUSH20 0xFFFFFFFFFFFFFFFFFFFFFFFFFFFFFFFFFFFFFFFF AND DUP2 MSTORE PUSH1 0x20 ADD SWAP1 DUP2 MSTORE PUSH1 0x20 ADD PUSH0 KECCAK256 PUSH0 SWAP1 SLOAD SWAP1 PUSH2 0x100 EXP SWAP1 DIV PUSH1 0xFF AND JUMPDEST ISZERO PUSH2 0xC24 JUMPI PUSH2 0xC1F DUP4 DUP4 DUP4 PUSH2 0x1124 JUMP JUMPDEST PUSH2 0xE63 JUMP JUMPDEST PUSH0 PUSH1 0xE PUSH0 SWAP1 SLOAD SWAP1 PUSH2 0x100 EXP SWAP1 DIV PUSH20 0xFFFFFFFFFFFFFFFFFFFFFFFFFFFFFFFFFFFFFFFF AND PUSH20 0xFFFFFFFFFFFFFFFFFFFFFFFFFFFFFFFFFFFFFFFF AND DUP4 PUSH20 0xFFFFFFFFFFFFFFFFFFFFFFFFFFFFFFFFFFFFFFFF AND EQ SWAP1 POP PUSH0 PUSH1 0xE PUSH0 SWAP1 SLOAD SWAP1 PUSH2 0x100 EXP SWAP1 DIV PUSH20 0xFFFFFFFFFFFFFFFFFFFFFFFFFFFFFFFFFFFFFFFF AND PUSH20 0xFFFFFFFFFFFFFFFFFFFFFFFFFFFFFFFFFFFFFFFF AND DUP6 PUSH20 0xFFFFFFFFFFFFFFFFFFFFFFFFFFFFFFFFFFFFFFFF AND EQ SWAP1 POP PUSH0 DUP3 ISZERO PUSH2 0xCF2 JUMPI PUSH1 0x64 PUSH1 0x8 SLOAD DUP6 PUSH2 0xCE1 SWAP2 SWAP1 PUSH2 0x1FA9 JUMP JUMPDEST PUSH2 0xCEB SWAP2 SWAP1 PUSH2 0x2017 JUMP JUMPDEST SWAP1 POP PUSH2 0xD16 JUMP JUMPDEST DUP2 ISZERO PUSH2 0xD15 JUMPI PUSH1 0x64 PUSH1 0x9 SLOAD DUP6 PUSH2 0xD08 SWAP2 SWAP1 PUSH2 0x1FA9 JUMP JUMPDEST PUSH2 0xD12 SWAP2 SWAP1 PUSH2 0x2017 JUMP JUMPDEST SWAP1 POP JUMPDEST JUMPDEST PUSH0 DUP2 DUP6 PUSH2 0xD23 SWAP2 SWAP1 PUSH2 0x2047 JUMP JUMPDEST SWAP1 POP DUP2 DUP2 PUSH2 0xD31 SWAP2 SWAP1 PUSH2 0x207A JUMP JUMPDEST DUP6 EQ PUSH2 0xD69 JUMPI PUSH1 0x40 MLOAD PUSH32 0x1F825C6A00000000000000000000000000000000000000000000000000000000 DUP2 MSTORE PUSH1 0x4 ADD PUSH1 0x40 MLOAD DUP1 SWAP2 SUB SWAP1 REVERT JUMPDEST PUSH0 DUP3 GT ISZERO PUSH2 0xE53 JUMPI PUSH2 0xD7C DUP8 ADDRESS DUP5 PUSH2 0x1124 JUMP JUMPDEST PUSH32 0x92C6768BA45DFDC937F94A27A0C5BE8334952F1558BC7DD41B3E8707502E1B6 DUP3 PUSH1 0x40 MLOAD PUSH2 0xDAB SWAP2 SWAP1 PUSH2 0x1A00 JUMP JUMPDEST PUSH1 0x40 MLOAD DUP1 SWAP2 SUB SWAP1 LOG1 PUSH0 PUSH1 0x64 PUSH1 0xA SLOAD DUP5 PUSH2 0xDC4 SWAP2 SWAP1 PUSH2 0x1FA9 JUMP JUMPDEST PUSH2 0xDCE SWAP2 SWAP1 PUSH2 0x2017 JUMP JUMPDEST SWAP1 POP PUSH0 PUSH1 0x64 PUSH1 0xB SLOAD DUP6 PUSH2 0xDE1 SWAP2 SWAP1 PUSH2 0x1FA9 JUMP JUMPDEST PUSH2 0xDEB SWAP2 SWAP1 PUSH2 0x2017 JUMP JUMPDEST SWAP1 POP PUSH0 DUP2 DUP4 DUP7 PUSH2 0xDFB SWAP2 SWAP1 PUSH2 0x2047 JUMP JUMPDEST PUSH2 0xE05 SWAP2 SWAP1 PUSH2 0x2047 JUMP JUMPDEST SWAP1 POP PUSH2 0xE33 ADDRESS PUSH1 0xE PUSH0 SWAP1 SLOAD SWAP1 PUSH2 0x100 EXP SWAP1 DIV PUSH20 0xFFFFFFFFFFFFFFFFFFFFFFFFFFFFFFFFFFFFFFFF AND DUP6 PUSH2 0x1124 JUMP JUMPDEST PUSH2 0xE3D ADDRESS DUP4 PUSH2 0x14F0 JUMP JUMPDEST PUSH2 0xE4F ADDRESS PUSH2 0xE49 PUSH2 0x9D0 JUMP JUMPDEST DUP4 PUSH2 0x1124 JUMP JUMPDEST POP POP POP JUMPDEST PUSH2 0xE5E DUP8 DUP8 DUP4 PUSH2 0x1124 JUMP JUMPDEST POP POP POP POP JUMPDEST POP POP POP JUMP JUMPDEST PUSH2 0xE70 PUSH2 0x1214 JUMP JUMPDEST PUSH1 0xA DUP3 GT ISZERO DUP1 ISZERO PUSH2 0xE82 JUMPI POP PUSH1 0x14 DUP2 GT ISZERO JUMPDEST PUSH2 0xEB8 JUMPI PUSH1 0x40 MLOAD PUSH32 0xAF1EE13400000000000000000000000000000000000000000000000000000000 DUP2 MSTORE PUSH1 0x4 ADD PUSH1 0x40 MLOAD DUP1 SWAP2 SUB SWAP1 REVERT JUMPDEST DUP2 PUSH1 0x8 DUP2 SWAP1 SSTORE POP DUP1 PUSH1 0x9 DUP2 SWAP1 SSTORE POP POP POP JUMP JUMPDEST PUSH2 0xED2 PUSH2 0x1214 JUMP JUMPDEST DUP1 PUSH1 0xF PUSH0 DUP5 PUSH20 0xFFFFFFFFFFFFFFFFFFFFFFFFFFFFFFFFFFFFFFFF AND PUSH20 0xFFFFFFFFFFFFFFFFFFFFFFFFFFFFFFFFFFFFFFFF AND DUP2 MSTORE PUSH1 0x20 ADD SWAP1 DUP2 MSTORE PUSH1 0x20 ADD PUSH0 KECCAK256 PUSH0 PUSH2 0x100 EXP DUP2 SLOAD DUP2 PUSH1 0xFF MUL NOT AND SWAP1 DUP4 ISZERO ISZERO MUL OR SWAP1 SSTORE POP POP POP JUMP JUMPDEST PUSH1 0xE PUSH0 SWAP1 SLOAD SWAP1 PUSH2 0x100 EXP SWAP1 DIV PUSH20 0xFFFFFFFFFFFFFFFFFFFFFFFFFFFFFFFFFFFFFFFF AND DUP2 JUMP JUMPDEST PUSH1 0xF PUSH1 0x20 MSTORE DUP1 PUSH0 MSTORE PUSH1 0x40 PUSH0 KECCAK256 PUSH0 SWAP2 POP SLOAD SWAP1 PUSH2 0x100 EXP SWAP1 DIV PUSH1 0xFF AND DUP2 JUMP JUMPDEST PUSH1 0x9 SLOAD DUP2 JUMP JUMPDEST PUSH0 PUSH1 0x1 PUSH0 DUP5 PUSH20 0xFFFFFFFFFFFFFFFFFFFFFFFFFFFFFFFFFFFFFFFF AND PUSH20 0xFFFFFFFFFFFFFFFFFFFFFFFFFFFFFFFFFFFFFFFF AND DUP2 MSTORE PUSH1 0x20 ADD SWAP1 DUP2 MSTORE PUSH1 0x20 ADD PUSH0 KECCAK256 PUSH0 DUP4 PUSH20 0xFFFFFFFFFFFFFFFFFFFFFFFFFFFFFFFFFFFFFFFF AND PUSH20 0xFFFFFFFFFFFFFFFFFFFFFFFFFFFFFFFFFFFFFFFF AND DUP2 MSTORE PUSH1 0x20 ADD SWAP1 DUP2 MSTORE PUSH1 0x20 ADD PUSH0 KECCAK256 SLOAD SWAP1 POP SWAP3 SWAP2 POP POP JUMP JUMPDEST PUSH2 0xFFC PUSH2 0x1214 JUMP JUMPDEST PUSH0 PUSH20 0xFFFFFFFFFFFFFFFFFFFFFFFFFFFFFFFFFFFFFFFF AND DUP2 PUSH20 0xFFFFFFFFFFFFFFFFFFFFFFFFFFFFFFFFFFFFFFFF AND SUB PUSH2 0x106C JUMPI PUSH0 PUSH1 0x40 MLOAD PUSH32 0x1E4FBDF700000000000000000000000000000000000000000000000000000000 DUP2 MSTORE PUSH1 0x4 ADD PUSH2 0x1063 SWAP2 SWAP1 PUSH2 0x1CD4 JUMP JUMPDEST PUSH1 0x40 MLOAD DUP1 SWAP2 SUB SWAP1 REVERT JUMPDEST PUSH2 0x1075 DUP2 PUSH2 0x13CB JUMP JUMPDEST POP JUMP JUMPDEST PUSH0 CALLER SWAP1 POP SWAP1 JUMP JUMPDEST PUSH2 0x108C DUP4 DUP4 DUP4 PUSH1 0x1 PUSH2 0x156F JUMP JUMPDEST POP POP POP JUMP JUMPDEST PUSH0 PUSH2 0x109C DUP5 DUP5 PUSH2 0xF72 JUMP JUMPDEST SWAP1 POP PUSH32 0xFFFFFFFFFFFFFFFFFFFFFFFFFFFFFFFFFFFFFFFFFFFFFFFFFFFFFFFFFFFFFFFF DUP2 LT ISZERO PUSH2 0x111E JUMPI DUP2 DUP2 LT ISZERO PUSH2 0x110F JUMPI DUP3 DUP2 DUP4 PUSH1 0x40 MLOAD PUSH32 0xFB8F41B200000000000000000000000000000000000000000000000000000000 DUP2 MSTORE PUSH1 0x4 ADD PUSH2 0x1106 SWAP4 SWAP3 SWAP2 SWAP1 PUSH2 0x20AD JUMP JUMPDEST PUSH1 0x40 MLOAD DUP1 SWAP2 SUB SWAP1 REVERT JUMPDEST PUSH2 0x111D DUP5 DUP5 DUP5 DUP5 SUB PUSH0 PUSH2 0x156F JUMP JUMPDEST JUMPDEST POP POP POP POP JUMP JUMPDEST PUSH0 PUSH20 0xFFFFFFFFFFFFFFFFFFFFFFFFFFFFFFFFFFFFFFFF AND DUP4 PUSH20 0xFFFFFFFFFFFFFFFFFFFFFFFFFFFFFFFFFFFFFFFF AND SUB PUSH2 0x1194 JUMPI PUSH0 PUSH1 0x40 MLOAD PUSH32 0x96C6FD1E00000000000000000000000000000000000000000000000000000000 DUP2 MSTORE PUSH1 0x4 ADD PUSH2 0x118B SWAP2 SWAP1 PUSH2 0x1CD4 JUMP JUMPDEST PUSH1 0x40 MLOAD DUP1 SWAP2 SUB SWAP1 REVERT JUMPDEST PUSH0 PUSH20 0xFFFFFFFFFFFFFFFFFFFFFFFFFFFFFFFFFFFFFFFF AND DUP3 PUSH20 0xFFFFFFFFFFFFFFFFFFFFFFFFFFFFFFFFFFFFFFFF AND SUB PUSH2 0x1204 JUMPI PUSH0 PUSH1 0x40 MLOAD PUSH32 0xEC442F0500000000000000000000000000000000000000000000000000000000 DUP2 MSTORE PUSH1 0x4 ADD PUSH2 0x11FB SWAP2 SWAP1 PUSH2 0x1CD4 JUMP JUMPDEST PUSH1 0x40 MLOAD DUP1 SWAP2 SUB SWAP1 REVERT JUMPDEST PUSH2 0x120F DUP4 DUP4 DUP4 PUSH2 0x173E JUMP JUMPDEST POP POP POP JUMP JUMPDEST PUSH2 0x121C PUSH2 0x1078 JUMP JUMPDEST PUSH20 0xFFFFFFFFFFFFFFFFFFFFFFFFFFFFFFFFFFFFFFFF AND PUSH2 0x123A PUSH2 0x9D0 JUMP JUMPDEST PUSH20 0xFFFFFFFFFFFFFFFFFFFFFFFFFFFFFFFFFFFFFFFF AND EQ PUSH2 0x1299 JUMPI PUSH2 0x125D PUSH2 0x1078 JUMP JUMPDEST PUSH1 0x40 MLOAD PUSH32 0x118CDAA700000000000000000000000000000000000000000000000000000000 DUP2 MSTORE PUSH1 0x4 ADD PUSH2 0x1290 SWAP2 SWAP1 PUSH2 0x1CD4 JUMP JUMPDEST PUSH1 0x40 MLOAD DUP1 SWAP2 SUB SWAP1 REVERT JUMPDEST JUMP JUMPDEST PUSH1 0x2 PUSH1 0x6 SLOAD SUB PUSH2 0x12D7 JUMPI PUSH1 0x40 MLOAD PUSH32 0x3EE5AEB500000000000000000000000000000000000000000000000000000000 DUP2 MSTORE PUSH1 0x4 ADD PUSH1 0x40 MLOAD DUP1 SWAP2 SUB SWAP1 REVERT JUMPDEST PUSH1 0x2 PUSH1 0x6 DUP2 SWAP1 SSTORE POP JUMP JUMPDEST PUSH1 0x1 PUSH1 0x6 DUP2 SWAP1 SSTORE POP JUMP JUMPDEST PUSH2 0x12F3 PUSH2 0x174E JUMP JUMPDEST PUSH0 PUSH1 0x7 PUSH0 PUSH2 0x100 EXP DUP2 SLOAD DUP2 PUSH1 0xFF MUL NOT AND SWAP1 DUP4 ISZERO ISZERO MUL OR SWAP1 SSTORE POP PUSH32 0x5DB9EE0A495BF2E6FF9C91A7834C1BA4FDD244A5E8AA4E537BD38AEAE4B073AA PUSH2 0x1335 PUSH2 0x1078 JUMP JUMPDEST PUSH1 0x40 MLOAD PUSH2 0x1342 SWAP2 SWAP1 PUSH2 0x1CD4 JUMP JUMPDEST PUSH1 0x40 MLOAD DUP1 SWAP2 SUB SWAP1 LOG1 JUMP JUMPDEST PUSH0 PUSH20 0xFFFFFFFFFFFFFFFFFFFFFFFFFFFFFFFFFFFFFFFF AND DUP3 PUSH20 0xFFFFFFFFFFFFFFFFFFFFFFFFFFFFFFFFFFFFFFFF AND SUB PUSH2 0x13BC JUMPI PUSH0 PUSH1 0x40 MLOAD PUSH32 0xEC442F0500000000000000000000000000000000000000000000000000000000 DUP2 MSTORE PUSH1 0x4 ADD PUSH2 0x13B3 SWAP2 SWAP1 PUSH2 0x1CD4 JUMP JUMPDEST PUSH1 0x40 MLOAD DUP1 SWAP2 SUB SWAP1 REVERT JUMPDEST PUSH2 0x13C7 PUSH0 DUP4 DUP4 PUSH2 0x173E JUMP JUMPDEST POP POP JUMP JUMPDEST PUSH0 PUSH1 0x5 PUSH0 SWAP1 SLOAD SWAP1 PUSH2 0x100 EXP SWAP1 DIV PUSH20 0xFFFFFFFFFFFFFFFFFFFFFFFFFFFFFFFFFFFFFFFF AND SWAP1 POP DUP2 PUSH1 0x5 PUSH0 PUSH2 0x100 EXP DUP2 SLOAD DUP2 PUSH20 0xFFFFFFFFFFFFFFFFFFFFFFFFFFFFFFFFFFFFFFFF MUL NOT AND SWAP1 DUP4 PUSH20 0xFFFFFFFFFFFFFFFFFFFFFFFFFFFFFFFFFFFFFFFF AND MUL OR SWAP1 SSTORE POP DUP2 PUSH20 0xFFFFFFFFFFFFFFFFFFFFFFFFFFFFFFFFFFFFFFFF AND DUP2 PUSH20 0xFFFFFFFFFFFFFFFFFFFFFFFFFFFFFFFFFFFFFFFF AND PUSH32 0x8BE0079C531659141344CD1FD0A4F28419497F9722A3DAAFE3B4186F6B6457E0 PUSH1 0x40 MLOAD PUSH1 0x40 MLOAD DUP1 SWAP2 SUB SWAP1 LOG3 POP POP JUMP JUMPDEST PUSH2 0x1496 PUSH2 0x178E JUMP JUMPDEST PUSH1 0x1 PUSH1 0x7 PUSH0 PUSH2 0x100 EXP DUP2 SLOAD DUP2 PUSH1 0xFF MUL NOT AND SWAP1 DUP4 ISZERO ISZERO MUL OR SWAP1 SSTORE POP PUSH32 0x62E78CEA01BEE320CD4E420270B5EA74000D11B0C9F74754EBDBFC544B05A258 PUSH2 0x14D9 PUSH2 0x1078 JUMP JUMPDEST PUSH1 0x40 MLOAD PUSH2 0x14E6 SWAP2 SWAP1 PUSH2 0x1CD4 JUMP JUMPDEST PUSH1 0x40 MLOAD DUP1 SWAP2 SUB SWAP1 LOG1 JUMP JUMPDEST PUSH0 PUSH20 0xFFFFFFFFFFFFFFFFFFFFFFFFFFFFFFFFFFFFFFFF AND DUP3 PUSH20 0xFFFFFFFFFFFFFFFFFFFFFFFFFFFFFFFFFFFFFFFF AND SUB PUSH2 0x1560 JUMPI PUSH0 PUSH1 0x40 MLOAD PUSH32 0x96C6FD1E00000000000000000000000000000000000000000000000000000000 DUP2 MSTORE PUSH1 0x4 ADD PUSH2 0x1557 SWAP2 SWAP1 PUSH2 0x1CD4 JUMP JUMPDEST PUSH1 0x40 MLOAD DUP1 SWAP2 SUB SWAP1 REVERT JUMPDEST PUSH2 0x156B DUP3 PUSH0 DUP4 PUSH2 0x173E JUMP JUMPDEST POP POP JUMP JUMPDEST PUSH0 PUSH20 0xFFFFFFFFFFFFFFFFFFFFFFFFFFFFFFFFFFFFFFFF AND DUP5 PUSH20 0xFFFFFFFFFFFFFFFFFFFFFFFFFFFFFFFFFFFFFFFF AND SUB PUSH2 0x15DF JUMPI PUSH0 PUSH1 0x40 MLOAD PUSH32 0xE602DF0500000000000000000000000000000000000000000000000000000000 DUP2 MSTORE PUSH1 0x4 ADD PUSH2 0x15D6 SWAP2 SWAP1 PUSH2 0x1CD4 JUMP JUMPDEST PUSH1 0x40 MLOAD DUP1 SWAP2 SUB SWAP1 REVERT JUMPDEST PUSH0 PUSH20 0xFFFFFFFFFFFFFFFFFFFFFFFFFFFFFFFFFFFFFFFF AND DUP4 PUSH20 0xFFFFFFFFFFFFFFFFFFFFFFFFFFFFFFFFFFFFFFFF AND SUB PUSH2 0x164F JUMPI PUSH0 PUSH1 0x40 MLOAD PUSH32 0x94280D6200000000000000000000000000000000000000000000000000000000 DUP2 MSTORE PUSH1 0x4 ADD PUSH2 0x1646 SWAP2 SWAP1 PUSH2 0x1CD4 JUMP JUMPDEST PUSH1 0x40 MLOAD DUP1 SWAP2 SUB SWAP1 REVERT JUMPDEST DUP2 PUSH1 0x1 PUSH0 DUP7 PUSH20 0xFFFFFFFFFFFFFFFFFFFFFFFFFFFFFFFFFFFFFFFF AND PUSH20 0xFFFFFFFFFFFFFFFFFFFFFFFFFFFFFFFFFFFFFFFF AND DUP2 MSTORE PUSH1 0x20 ADD SWAP1 DUP2 MSTORE PUSH1 0x20 ADD PUSH0 KECCAK256 PUSH0 DUP6 PUSH20 0xFFFFFFFFFFFFFFFFFFFFFFFFFFFFFFFFFFFFFFFF AND PUSH20 0xFFFFFFFFFFFFFFFFFFFFFFFFFFFFFFFFFFFFFFFF AND DUP2 MSTORE PUSH1 0x20 ADD SWAP1 DUP2 MSTORE PUSH1 0x20 ADD PUSH0 KECCAK256 DUP2 SWAP1 SSTORE POP DUP1 ISZERO PUSH2 0x1738 JUMPI DUP3 PUSH20 0xFFFFFFFFFFFFFFFFFFFFFFFFFFFFFFFFFFFFFFFF AND DUP5 PUSH20 0xFFFFFFFFFFFFFFFFFFFFFFFFFFFFFFFFFFFFFFFF AND PUSH32 0x8C5BE1E5EBEC7D5BD14F71427D1E84F3DD0314C0F7B2291E5B200AC8C7C3B925 DUP5 PUSH1 0x40 MLOAD PUSH2 0x172F SWAP2 SWAP1 PUSH2 0x1A00 JUMP JUMPDEST PUSH1 0x40 MLOAD DUP1 SWAP2 SUB SWAP1 LOG3 JUMPDEST POP POP POP POP JUMP JUMPDEST PUSH2 0x1749 DUP4 DUP4 DUP4 PUSH2 0x17CF JUMP JUMPDEST POP POP POP JUMP JUMPDEST PUSH2 0x1756 PUSH2 0x951 JUMP JUMPDEST PUSH2 0x178C JUMPI PUSH1 0x40 MLOAD PUSH32 0x8DFC202B00000000000000000000000000000000000000000000000000000000 DUP2 MSTORE PUSH1 0x4 ADD PUSH1 0x40 MLOAD DUP1 SWAP2 SUB SWAP1 REVERT JUMPDEST JUMP JUMPDEST PUSH2 0x1796 PUSH2 0x951 JUMP JUMPDEST ISZERO PUSH2 0x17CD JUMPI PUSH1 0x40 MLOAD PUSH32 0xD93C066500000000000000000000000000000000000000000000000000000000 DUP2 MSTORE PUSH1 0x4 ADD PUSH1 0x40 MLOAD DUP1 SWAP2 SUB SWAP1 REVERT JUMPDEST JUMP JUMPDEST PUSH0 PUSH20 0xFFFFFFFFFFFFFFFFFFFFFFFFFFFFFFFFFFFFFFFF AND DUP4 PUSH20 0xFFFFFFFFFFFFFFFFFFFFFFFFFFFFFFFFFFFFFFFF AND SUB PUSH2 0x181F JUMPI DUP1 PUSH1 0x2 PUSH0 DUP3 DUP3 SLOAD PUSH2 0x1813 SWAP2 SWAP1 PUSH2 0x207A JUMP JUMPDEST SWAP3 POP POP DUP2 SWAP1 SSTORE POP PUSH2 0x18ED JUMP JUMPDEST PUSH0 PUSH0 PUSH0 DUP6 PUSH20 0xFFFFFFFFFFFFFFFFFFFFFFFFFFFFFFFFFFFFFFFF AND PUSH20 0xFFFFFFFFFFFFFFFFFFFFFFFFFFFFFFFFFFFFFFFF AND DUP2 MSTORE PUSH1 0x20 ADD SWAP1 DUP2 MSTORE PUSH1 0x20 ADD PUSH0 KECCAK256 SLOAD SWAP1 POP DUP2 DUP2 LT ISZERO PUSH2 0x18A8 JUMPI DUP4 DUP2 DUP4 PUSH1 0x40 MLOAD PUSH32 0xE450D38C00000000000000000000000000000000000000000000000000000000 DUP2 MSTORE PUSH1 0x4 ADD PUSH2 0x189F SWAP4 SWAP3 SWAP2 SWAP1 PUSH2 0x20AD JUMP JUMPDEST PUSH1 0x40 MLOAD DUP1 SWAP2 SUB SWAP1 REVERT JUMPDEST DUP2 DUP2 SUB PUSH0 PUSH0 DUP7 PUSH20 0xFFFFFFFFFFFFFFFFFFFFFFFFFFFFFFFFFFFFFFFF AND PUSH20 0xFFFFFFFFFFFFFFFFFFFFFFFFFFFFFFFFFFFFFFFF AND DUP2 MSTORE PUSH1 0x20 ADD SWAP1 DUP2 MSTORE PUSH1 0x20 ADD PUSH0 KECCAK256 DUP2 SWAP1 SSTORE POP POP JUMPDEST PUSH0 PUSH20 0xFFFFFFFFFFFFFFFFFFFFFFFFFFFFFFFFFFFFFFFF AND DUP3 PUSH20 0xFFFFFFFFFFFFFFFFFFFFFFFFFFFFFFFFFFFFFFFF AND SUB PUSH2 0x1934 JUMPI DUP1 PUSH1 0x2 PUSH0 DUP3 DUP3 SLOAD SUB SWAP3 POP POP DUP2 SWAP1 SSTORE POP PUSH2 0x197E JUMP JUMPDEST DUP1 PUSH0 PUSH0 DUP5 PUSH20 0xFFFFFFFFFFFFFFFFFFFFFFFFFFFFFFFFFFFFFFFF AND PUSH20 0xFFFFFFFFFFFFFFFFFFFFFFFFFFFFFFFFFFFFFFFF AND DUP2 MSTORE PUSH1 0x20 ADD SWAP1 DUP2 MSTORE PUSH1 0x20 ADD PUSH0 KECCAK256 PUSH0 DUP3 DUP3 SLOAD ADD SWAP3 POP POP DUP2 SWAP1 SSTORE POP JUMPDEST DUP2 PUSH20 0xFFFFFFFFFFFFFFFFFFFFFFFFFFFFFFFFFFFFFFFF AND DUP4 PUSH20 0xFFFFFFFFFFFFFFFFFFFFFFFFFFFFFFFFFFFFFFFF AND PUSH32 0xDDF252AD1BE2C89B69C2B068FC378DAA952BA7F163C4A11628F55A4DF523B3EF DUP4 PUSH1 0x40 MLOAD PUSH2 0x19DB SWAP2 SWAP1 PUSH2 0x1A00 JUMP JUMPDEST PUSH1 0x40 MLOAD DUP1 SWAP2 SUB SWAP1 LOG3 POP POP POP JUMP JUMPDEST PUSH0 DUP2 SWAP1 POP SWAP2 SWAP1 POP JUMP JUMPDEST PUSH2 0x19FA DUP2 PUSH2 0x19E8 JUMP JUMPDEST DUP3 MSTORE POP POP JUMP JUMPDEST PUSH0 PUSH1 0x20 DUP3 ADD SWAP1 POP PUSH2 0x1A13 PUSH0 DUP4 ADD DUP5 PUSH2 0x19F1 JUMP JUMPDEST SWAP3 SWAP2 POP POP JUMP JUMPDEST PUSH0 DUP2 MLOAD SWAP1 POP SWAP2 SWAP1 POP JUMP JUMPDEST PUSH0 DUP3 DUP3 MSTORE PUSH1 0x20 DUP3 ADD SWAP1 POP SWAP3 SWAP2 POP POP JUMP JUMPDEST DUP3 DUP2 DUP4 MCOPY PUSH0 DUP4 DUP4 ADD MSTORE POP POP POP JUMP JUMPDEST PUSH0 PUSH1 0x1F NOT PUSH1 0x1F DUP4 ADD AND SWAP1 POP SWAP2 SWAP1 POP JUMP JUMPDEST PUSH0 PUSH2 0x1A5B DUP3 PUSH2 0x1A19 JUMP JUMPDEST PUSH2 0x1A65 DUP2 DUP6 PUSH2 0x1A23 JUMP JUMPDEST SWAP4 POP PUSH2 0x1A75 DUP2 DUP6 PUSH1 0x20 DUP7 ADD PUSH2 0x1A33 JUMP JUMPDEST PUSH2 0x1A7E DUP2 PUSH2 0x1A41 JUMP JUMPDEST DUP5 ADD SWAP2 POP POP SWAP3 SWAP2 POP POP JUMP JUMPDEST PUSH0 PUSH1 0x20 DUP3 ADD SWAP1 POP DUP2 DUP2 SUB PUSH0 DUP4 ADD MSTORE PUSH2 0x1AA1 DUP2 DUP5 PUSH2 0x1A51 JUMP JUMPDEST SWAP1 POP SWAP3 SWAP2 POP POP JUMP JUMPDEST PUSH0 PUSH0 REVERT JUMPDEST PUSH0 PUSH20 0xFFFFFFFFFFFFFFFFFFFFFFFFFFFFFFFFFFFFFFFF DUP3 AND SWAP1 POP SWAP2 SWAP1 POP JUMP JUMPDEST PUSH0 PUSH2 0x1AD6 DUP3 PUSH2 0x1AAD JUMP JUMPDEST SWAP1 POP SWAP2 SWAP1 POP JUMP JUMPDEST PUSH2 0x1AE6 DUP2 PUSH2 0x1ACC JUMP JUMPDEST DUP2 EQ PUSH2 0x1AF0 JUMPI PUSH0 PUSH0 REVERT JUMPDEST POP JUMP JUMPDEST PUSH0 DUP2 CALLDATALOAD SWAP1 POP PUSH2 0x1B01 DUP2 PUSH2 0x1ADD JUMP JUMPDEST SWAP3 SWAP2 POP POP JUMP JUMPDEST PUSH2 0x1B10 DUP2 PUSH2 0x19E8 JUMP JUMPDEST DUP2 EQ PUSH2 0x1B1A JUMPI PUSH0 PUSH0 REVERT JUMPDEST POP JUMP JUMPDEST PUSH0 DUP2 CALLDATALOAD SWAP1 POP PUSH2 0x1B2B DUP2 PUSH2 0x1B07 JUMP JUMPDEST SWAP3 SWAP2 POP POP JUMP JUMPDEST PUSH0 PUSH0 PUSH1 0x40 DUP4 DUP6 SUB SLT ISZERO PUSH2 0x1B47 JUMPI PUSH2 0x1B46 PUSH2 0x1AA9 JUMP JUMPDEST JUMPDEST PUSH0 PUSH2 0x1B54 DUP6 DUP3 DUP7 ADD PUSH2 0x1AF3 JUMP JUMPDEST SWAP3 POP POP PUSH1 0x20 PUSH2 0x1B65 DUP6 DUP3 DUP7 ADD PUSH2 0x1B1D JUMP JUMPDEST SWAP2 POP POP SWAP3 POP SWAP3 SWAP1 POP JUMP JUMPDEST PUSH0 DUP2 ISZERO ISZERO SWAP1 POP SWAP2 SWAP1 POP JUMP JUMPDEST PUSH2 0x1B83 DUP2 PUSH2 0x1B6F JUMP JUMPDEST DUP3 MSTORE POP POP JUMP JUMPDEST PUSH0 PUSH1 0x20 DUP3 ADD SWAP1 POP PUSH2 0x1B9C PUSH0 DUP4 ADD DUP5 PUSH2 0x1B7A JUMP JUMPDEST SWAP3 SWAP2 POP POP JUMP JUMPDEST PUSH0 PUSH0 PUSH0 PUSH1 0x60 DUP5 DUP7 SUB SLT ISZERO PUSH2 0x1BB9 JUMPI PUSH2 0x1BB8 PUSH2 0x1AA9 JUMP JUMPDEST JUMPDEST PUSH0 PUSH2 0x1BC6 DUP7 DUP3 DUP8 ADD PUSH2 0x1AF3 JUMP JUMPDEST SWAP4 POP POP PUSH1 0x20 PUSH2 0x1BD7 DUP7 DUP3 DUP8 ADD PUSH2 0x1AF3 JUMP JUMPDEST SWAP3 POP POP PUSH1 0x40 PUSH2 0x1BE8 DUP7 DUP3 DUP8 ADD PUSH2 0x1B1D JUMP JUMPDEST SWAP2 POP POP SWAP3 POP SWAP3 POP SWAP3 JUMP JUMPDEST PUSH0 DUP2 SWAP1 POP SWAP2 SWAP1 POP JUMP JUMPDEST PUSH0 PUSH2 0x1C15 PUSH2 0x1C10 PUSH2 0x1C0B DUP5 PUSH2 0x1AAD JUMP JUMPDEST PUSH2 0x1BF2 JUMP JUMPDEST PUSH2 0x1AAD JUMP JUMPDEST SWAP1 POP SWAP2 SWAP1 POP JUMP JUMPDEST PUSH0 PUSH2 0x1C26 DUP3 PUSH2 0x1BFB JUMP JUMPDEST SWAP1 POP SWAP2 SWAP1 POP JUMP JUMPDEST PUSH0 PUSH2 0x1C37 DUP3 PUSH2 0x1C1C JUMP JUMPDEST SWAP1 POP SWAP2 SWAP1 POP JUMP JUMPDEST PUSH2 0x1C47 DUP2 PUSH2 0x1C2D JUMP JUMPDEST DUP3 MSTORE POP POP JUMP JUMPDEST PUSH0 PUSH1 0x20 DUP3 ADD SWAP1 POP PUSH2 0x1C60 PUSH0 DUP4 ADD DUP5 PUSH2 0x1C3E JUMP JUMPDEST SWAP3 SWAP2 POP POP JUMP JUMPDEST PUSH0 PUSH1 0x20 DUP3 DUP5 SUB SLT ISZERO PUSH2 0x1C7B JUMPI PUSH2 0x1C7A PUSH2 0x1AA9 JUMP JUMPDEST JUMPDEST PUSH0 PUSH2 0x1C88 DUP5 DUP3 DUP6 ADD PUSH2 0x1B1D JUMP JUMPDEST SWAP2 POP POP SWAP3 SWAP2 POP POP JUMP JUMPDEST PUSH0 PUSH1 0xFF DUP3 AND SWAP1 POP SWAP2 SWAP1 POP JUMP JUMPDEST PUSH2 0x1CA6 DUP2 PUSH2 0x1C91 JUMP JUMPDEST DUP3 MSTORE POP POP JUMP JUMPDEST PUSH0 PUSH1 0x20 DUP3 ADD SWAP1 POP PUSH2 0x1CBF PUSH0 DUP4 ADD DUP5 PUSH2 0x1C9D JUMP JUMPDEST SWAP3 SWAP2 POP POP JUMP JUMPDEST PUSH2 0x1CCE DUP2 PUSH2 0x1ACC JUMP JUMPDEST DUP3 MSTORE POP POP JUMP JUMPDEST PUSH0 PUSH1 0x20 DUP3 ADD SWAP1 POP PUSH2 0x1CE7 PUSH0 DUP4 ADD DUP5 PUSH2 0x1CC5 JUMP JUMPDEST SWAP3 SWAP2 POP POP JUMP JUMPDEST PUSH0 PUSH1 0x20 DUP3 DUP5 SUB SLT ISZERO PUSH2 0x1D02 JUMPI PUSH2 0x1D01 PUSH2 0x1AA9 JUMP JUMPDEST JUMPDEST PUSH0 PUSH2 0x1D0F DUP5 DUP3 DUP6 ADD PUSH2 0x1AF3 JUMP JUMPDEST SWAP2 POP POP SWAP3 SWAP2 POP POP JUMP JUMPDEST PUSH0 PUSH0 PUSH1 0x40 DUP4 DUP6 SUB SLT ISZERO PUSH2 0x1D2E JUMPI PUSH2 0x1D2D PUSH2 0x1AA9 JUMP JUMPDEST JUMPDEST PUSH0 PUSH2 0x1D3B DUP6 DUP3 DUP7 ADD PUSH2 0x1B1D JUMP JUMPDEST SWAP3 POP POP PUSH1 0x20 PUSH2 0x1D4C DUP6 DUP3 DUP7 ADD PUSH2 0x1B1D JUMP JUMPDEST SWAP2 POP POP SWAP3 POP SWAP3 SWAP1 POP JUMP JUMPDEST PUSH2 0x1D5F DUP2 PUSH2 0x1B6F JUMP JUMPDEST DUP2 EQ PUSH2 0x1D69 JUMPI PUSH0 PUSH0 REVERT JUMPDEST POP JUMP JUMPDEST PUSH0 DUP2 CALLDATALOAD SWAP1 POP PUSH2 0x1D7A DUP2 PUSH2 0x1D56 JUMP JUMPDEST SWAP3 SWAP2 POP POP JUMP JUMPDEST PUSH0 PUSH0 PUSH1 0x40 DUP4 DUP6 SUB SLT ISZERO PUSH2 0x1D96 JUMPI PUSH2 0x1D95 PUSH2 0x1AA9 JUMP JUMPDEST JUMPDEST PUSH0 PUSH2 0x1DA3 DUP6 DUP3 DUP7 ADD PUSH2 0x1AF3 JUMP JUMPDEST SWAP3 POP POP PUSH1 0x20 PUSH2 0x1DB4 DUP6 DUP3 DUP7 ADD PUSH2 0x1D6C JUMP JUMPDEST SWAP2 POP POP SWAP3 POP SWAP3 SWAP1 POP JUMP JUMPDEST PUSH0 PUSH0 PUSH1 0x40 DUP4 DUP6 SUB SLT ISZERO PUSH2 0x1DD4 JUMPI PUSH2 0x1DD3 PUSH2 0x1AA9 JUMP JUMPDEST JUMPDEST PUSH0 PUSH2 0x1DE1 DUP6 DUP3 DUP7 ADD PUSH2 0x1AF3 JUMP JUMPDEST SWAP3 POP POP PUSH1 0x20 PUSH2 0x1DF2 DUP6 DUP3 DUP7 ADD PUSH2 0x1AF3 JUMP JUMPDEST SWAP2 POP POP SWAP3 POP SWAP3 SWAP1 POP JUMP JUMPDEST PUSH32 0x4E487B7100000000000000000000000000000000000000000000000000000000 PUSH0 MSTORE PUSH1 0x22 PUSH1 0x4 MSTORE PUSH1 0x24 PUSH0 REVERT JUMPDEST PUSH0 PUSH1 0x2 DUP3 DIV SWAP1 POP PUSH1 0x1 DUP3 AND DUP1 PUSH2 0x1E40 JUMPI PUSH1 0x7F DUP3 AND SWAP2 POP JUMPDEST PUSH1 0x20 DUP3 LT DUP2 SUB PUSH2 0x1E53 JUMPI PUSH2 0x1E52 PUSH2 0x1DFC JUMP JUMPDEST JUMPDEST POP SWAP2 SWAP1 POP JUMP JUMPDEST PUSH0 DUP2 SWAP1 POP SWAP2 SWAP1 POP JUMP JUMPDEST PUSH0 PUSH2 0x1E7C PUSH2 0x1E77 PUSH2 0x1E72 DUP5 PUSH2 0x1E59 JUMP JUMPDEST PUSH2 0x1BF2 JUMP JUMPDEST PUSH2 0x19E8 JUMP JUMPDEST SWAP1 POP SWAP2 SWAP1 POP JUMP JUMPDEST PUSH2 0x1E8C DUP2 PUSH2 0x1E62 JUMP JUMPDEST DUP3 MSTORE POP POP JUMP JUMPDEST PUSH0 PUSH1 0xC0 DUP3 ADD SWAP1 POP PUSH2 0x1EA5 PUSH0 DUP4 ADD DUP10 PUSH2 0x1CC5 JUMP JUMPDEST PUSH2 0x1EB2 PUSH1 0x20 DUP4 ADD DUP9 PUSH2 0x19F1 JUMP JUMPDEST PUSH2 0x1EBF PUSH1 0x40 DUP4 ADD DUP8 PUSH2 0x1E83 JUMP JUMPDEST PUSH2 0x1ECC PUSH1 0x60 DUP4 ADD DUP7 PUSH2 0x1E83 JUMP JUMPDEST PUSH2 0x1ED9 PUSH1 0x80 DUP4 ADD DUP6 PUSH2 0x1CC5 JUMP JUMPDEST PUSH2 0x1EE6 PUSH1 0xA0 DUP4 ADD DUP5 PUSH2 0x19F1 JUMP JUMPDEST SWAP8 SWAP7 POP POP POP POP POP POP POP JUMP JUMPDEST PUSH0 DUP2 MLOAD SWAP1 POP PUSH2 0x1EFF DUP2 PUSH2 0x1B07 JUMP JUMPDEST SWAP3 SWAP2 POP POP JUMP JUMPDEST PUSH0 PUSH0 PUSH0 PUSH1 0x60 DUP5 DUP7 SUB SLT ISZERO PUSH2 0x1F1C JUMPI PUSH2 0x1F1B PUSH2 0x1AA9 JUMP JUMPDEST JUMPDEST PUSH0 PUSH2 0x1F29 DUP7 DUP3 DUP8 ADD PUSH2 0x1EF1 JUMP JUMPDEST SWAP4 POP POP PUSH1 0x20 PUSH2 0x1F3A DUP7 DUP3 DUP8 ADD PUSH2 0x1EF1 JUMP JUMPDEST SWAP3 POP POP PUSH1 0x40 PUSH2 0x1F4B DUP7 DUP3 DUP8 ADD PUSH2 0x1EF1 JUMP JUMPDEST SWAP2 POP POP SWAP3 POP SWAP3 POP SWAP3 JUMP JUMPDEST PUSH0 PUSH1 0x40 DUP3 ADD SWAP1 POP PUSH2 0x1F68 PUSH0 DUP4 ADD DUP6 PUSH2 0x19F1 JUMP JUMPDEST PUSH2 0x1F75 PUSH1 0x20 DUP4 ADD DUP5 PUSH2 0x19F1 JUMP JUMPDEST SWAP4 SWAP3 POP POP POP JUMP JUMPDEST PUSH32 0x4E487B7100000000000000000000000000000000000000000000000000000000 PUSH0 MSTORE PUSH1 0x11 PUSH1 0x4 MSTORE PUSH1 0x24 PUSH0 REVERT JUMPDEST PUSH0 PUSH2 0x1FB3 DUP3 PUSH2 0x19E8 JUMP JUMPDEST SWAP2 POP PUSH2 0x1FBE DUP4 PUSH2 0x19E8 JUMP JUMPDEST SWAP3 POP DUP3 DUP3 MUL PUSH2 0x1FCC DUP2 PUSH2 0x19E8 JUMP JUMPDEST SWAP2 POP DUP3 DUP3 DIV DUP5 EQ DUP4 ISZERO OR PUSH2 0x1FE3 JUMPI PUSH2 0x1FE2 PUSH2 0x1F7C JUMP JUMPDEST JUMPDEST POP SWAP3 SWAP2 POP POP JUMP JUMPDEST PUSH32 0x4E487B7100000000000000000000000000000000000000000000000000000000 PUSH0 MSTORE PUSH1 0x12 PUSH1 0x4 MSTORE PUSH1 0x24 PUSH0 REVERT JUMPDEST PUSH0 PUSH2 0x2021 DUP3 PUSH2 0x19E8 JUMP JUMPDEST SWAP2 POP PUSH2 0x202C DUP4 PUSH2 0x19E8 JUMP JUMPDEST SWAP3 POP DUP3 PUSH2 0x203C JUMPI PUSH2 0x203B PUSH2 0x1FEA JUMP JUMPDEST JUMPDEST DUP3 DUP3 DIV SWAP1 POP SWAP3 SWAP2 POP POP JUMP JUMPDEST PUSH0 PUSH2 0x2051 DUP3 PUSH2 0x19E8 JUMP JUMPDEST SWAP2 POP PUSH2 0x205C DUP4 PUSH2 0x19E8 JUMP JUMPDEST SWAP3 POP DUP3 DUP3 SUB SWAP1 POP DUP2 DUP2 GT ISZERO PUSH2 0x2074 JUMPI PUSH2 0x2073 PUSH2 0x1F7C JUMP JUMPDEST JUMPDEST SWAP3 SWAP2 POP POP JUMP JUMPDEST PUSH0 PUSH2 0x2084 DUP3 PUSH2 0x19E8 JUMP JUMPDEST SWAP2 POP PUSH2 0x208F DUP4 PUSH2 0x19E8 JUMP JUMPDEST SWAP3 POP DUP3 DUP3 ADD SWAP1 POP DUP1 DUP3 GT ISZERO PUSH2 0x20A7 JUMPI PUSH2 0x20A6 PUSH2 0x1F7C JUMP JUMPDEST JUMPDEST SWAP3 SWAP2 POP POP JUMP JUMPDEST PUSH0 PUSH1 0x60 DUP3 ADD SWAP1 POP PUSH2 0x20C0 PUSH0 DUP4 ADD DUP7 PUSH2 0x1CC5 JUMP JUMPDEST PUSH2 0x20CD PUSH1 0x20 DUP4 ADD DUP6 PUSH2 0x19F1 JUMP JUMPDEST PUSH2 0x20DA PUSH1 0x40 DUP4 ADD DUP5 PUSH2 0x19F1 JUMP JUMPDEST SWAP5 SWAP4 POP POP POP POP JUMP INVALID LOG2 PUSH5 0x6970667358 0x22 SLT KECCAK256 LOG1 PREVRANDAO 0xC1 DUP6 0xD6 0xE2 CHAINID LT 0x4F STATICCALL GAS PUSH15 0xFFC8C3A7B3409669AD038E2C837DFF DUP7 PUSH1 0x26 0x21 CODECOPY PUSH5 0x736F6C6343 STOP ADDMOD SAR STOP CALLER "
				},
				"gasEstimates": {
					"creation": {
						"codeDepositCost": "1694400",
						"executionCost": "infinite",
						"totalCost": "infinite"
					},
					"external": {
						"DEAD_ADDRESS()": "440",
						"addLiquidity(uint256)": "infinite",
						"allowance(address,address)": "infinite",
						"approve(address,uint256)": "infinite",
						"balanceOf(address)": "2896",
						"burnShare()": "2472",
						"buyTax()": "2514",
						"decimals()": "406",
						"excludeFromTax(address,bool)": "infinite",
						"isExcludedFromTax(address)": "2877",
						"liquidityShare()": "2471",
						"mint(address,uint256)": "infinite",
						"name()": "infinite",
						"owner()": "2582",
						"pause()": "infinite",
						"paused()": "2519",
						"renounceOwnership()": "infinite",
						"rewardsShare()": "2515",
						"sellTax()": "2491",
						"setTaxes(uint256,uint256)": "infinite",
						"symbol()": "infinite",
						"totalSupply()": "2500",
						"transfer(address,address,uint256)": "infinite",
						"transfer(address,uint256)": "infinite",
						"transferFrom(address,address,uint256)": "infinite",
						"transferOwnership(address)": "infinite",
						"uniswapPair()": "2619",
						"uniswaprouter()": "infinite",
						"unpause()": "infinite",
						"withdraw(uint256)": "infinite"
					},
					"internal": {
						"_update(address,address,uint256)": "infinite"
					}
				},
				"methodIdentifiers": {
					"DEAD_ADDRESS()": "4e6fd6c4",
					"addLiquidity(uint256)": "51c6590a",
					"allowance(address,address)": "dd62ed3e",
					"approve(address,uint256)": "095ea7b3",
					"balanceOf(address)": "70a08231",
					"burnShare()": "05bf0a54",
					"buyTax()": "4f7041a5",
					"decimals()": "313ce567",
					"excludeFromTax(address,bool)": "c6a30647",
					"isExcludedFromTax(address)": "cb4ca631",
					"liquidityShare()": "15291cd4",
					"mint(address,uint256)": "40c10f19",
					"name()": "06fdde03",
					"owner()": "8da5cb5b",
					"pause()": "8456cb59",
					"paused()": "5c975abb",
					"renounceOwnership()": "715018a6",
					"rewardsShare()": "33727077",
					"sellTax()": "cc1776d3",
					"setTaxes(uint256,uint256)": "c647b20e",
					"symbol()": "95d89b41",
					"totalSupply()": "18160ddd",
					"transfer(address,address,uint256)": "beabacc8",
					"transfer(address,uint256)": "a9059cbb",
					"transferFrom(address,address,uint256)": "23b872dd",
					"transferOwnership(address)": "f2fde38b",
					"uniswapPair()": "c816841b",
					"uniswaprouter()": "2431ba73",
					"unpause()": "3f4ba83a",
					"withdraw(uint256)": "2e1a7d4d"
				}
			},
			"storageLayout": {
				"storage": [
					{
						"astId": 307,
						"contract": "smart-contract/contracts/mem.sol:MemCoin",
						"label": "_balances",
						"offset": 0,
						"slot": "0",
						"type": "t_mapping(t_address,t_uint256)"
					},
					{
						"astId": 313,
						"contract": "smart-contract/contracts/mem.sol:MemCoin",
						"label": "_allowances",
						"offset": 0,
						"slot": "1",
						"type": "t_mapping(t_address,t_mapping(t_address,t_uint256))"
					},
					{
						"astId": 315,
						"contract": "smart-contract/contracts/mem.sol:MemCoin",
						"label": "_totalSupply",
						"offset": 0,
						"slot": "2",
						"type": "t_uint256"
					},
					{
						"astId": 317,
						"contract": "smart-contract/contracts/mem.sol:MemCoin",
						"label": "_name",
						"offset": 0,
						"slot": "3",
						"type": "t_string_storage"
					},
					{
						"astId": 319,
						"contract": "smart-contract/contracts/mem.sol:MemCoin",
						"label": "_symbol",
						"offset": 0,
						"slot": "4",
						"type": "t_string_storage"
					},
					{
						"astId": 8,
						"contract": "smart-contract/contracts/mem.sol:MemCoin",
						"label": "_owner",
						"offset": 0,
						"slot": "5",
						"type": "t_address"
					},
					{
						"astId": 1061,
						"contract": "smart-contract/contracts/mem.sol:MemCoin",
						"label": "_status",
						"offset": 0,
						"slot": "6",
						"type": "t_uint256"
					},
					{
						"astId": 942,
						"contract": "smart-contract/contracts/mem.sol:MemCoin",
						"label": "_paused",
						"offset": 0,
						"slot": "7",
						"type": "t_bool"
					},
					{
						"astId": 1609,
						"contract": "smart-contract/contracts/mem.sol:MemCoin",
						"label": "buyTax",
						"offset": 0,
						"slot": "8",
						"type": "t_uint256"
					},
					{
						"astId": 1612,
						"contract": "smart-contract/contracts/mem.sol:MemCoin",
						"label": "sellTax",
						"offset": 0,
						"slot": "9",
						"type": "t_uint256"
					},
					{
						"astId": 1615,
						"contract": "smart-contract/contracts/mem.sol:MemCoin",
						"label": "liquidityShare",
						"offset": 0,
						"slot": "10",
						"type": "t_uint256"
					},
					{
						"astId": 1618,
						"contract": "smart-contract/contracts/mem.sol:MemCoin",
						"label": "burnShare",
						"offset": 0,
						"slot": "11",
						"type": "t_uint256"
					},
					{
						"astId": 1621,
						"contract": "smart-contract/contracts/mem.sol:MemCoin",
						"label": "rewardsShare",
						"offset": 0,
						"slot": "12",
						"type": "t_uint256"
					},
					{
						"astId": 1624,
						"contract": "smart-contract/contracts/mem.sol:MemCoin",
						"label": "uniswaprouter",
						"offset": 0,
						"slot": "13",
						"type": "t_contract(IUniswapV2Router02)1578"
					},
					{
						"astId": 1626,
						"contract": "smart-contract/contracts/mem.sol:MemCoin",
						"label": "uniswapPair",
						"offset": 0,
						"slot": "14",
						"type": "t_address"
					},
					{
						"astId": 1633,
						"contract": "smart-contract/contracts/mem.sol:MemCoin",
						"label": "isExcludedFromTax",
						"offset": 0,
						"slot": "15",
						"type": "t_mapping(t_address,t_bool)"
					}
				],
				"types": {
					"t_address": {
						"encoding": "inplace",
						"label": "address",
						"numberOfBytes": "20"
					},
					"t_bool": {
						"encoding": "inplace",
						"label": "bool",
						"numberOfBytes": "1"
					},
					"t_contract(IUniswapV2Router02)1578": {
						"encoding": "inplace",
						"label": "contract IUniswapV2Router02",
						"numberOfBytes": "20"
					},
					"t_mapping(t_address,t_bool)": {
						"encoding": "mapping",
						"key": "t_address",
						"label": "mapping(address => bool)",
						"numberOfBytes": "32",
						"value": "t_bool"
					},
					"t_mapping(t_address,t_mapping(t_address,t_uint256))": {
						"encoding": "mapping",
						"key": "t_address",
						"label": "mapping(address => mapping(address => uint256))",
						"numberOfBytes": "32",
						"value": "t_mapping(t_address,t_uint256)"
					},
					"t_mapping(t_address,t_uint256)": {
						"encoding": "mapping",
						"key": "t_address",
						"label": "mapping(address => uint256)",
						"numberOfBytes": "32",
						"value": "t_uint256"
					},
					"t_string_storage": {
						"encoding": "bytes",
						"label": "string",
						"numberOfBytes": "32"
					},
					"t_uint256": {
						"encoding": "inplace",
						"label": "uint256",
						"numberOfBytes": "32"
					}
				}
			},
			"userdoc": {
				"kind": "user",
				"methods": {},
				"version": 1
			}
		}
	}
}