{
	"contracts/mem_flattened.sol": {
		"MemCoin": {
			"abi": [
				{
					"inputs": [
						{
							"internalType": "string",
							"name": "_name",
							"type": "string"
						},
						{
							"internalType": "string",
							"name": "_symbol",
							"type": "string"
						},
						{
							"internalType": "address",
							"name": "routerAddress",
							"type": "address"
						}
					],
					"stateMutability": "nonpayable",
					"type": "constructor"
				},
				{
					"inputs": [],
					"name": "ArithmeticError",
					"type": "error"
				},
				{
					"inputs": [
						{
							"internalType": "address",
							"name": "spender",
							"type": "address"
						},
						{
							"internalType": "uint256",
							"name": "allowance",
							"type": "uint256"
						},
						{
							"internalType": "uint256",
							"name": "needed",
							"type": "uint256"
						}
					],
					"name": "ERC20InsufficientAllowance",
					"type": "error"
				},
				{
					"inputs": [
						{
							"internalType": "address",
							"name": "sender",
							"type": "address"
						},
						{
							"internalType": "uint256",
							"name": "balance",
							"type": "uint256"
						},
						{
							"internalType": "uint256",
							"name": "needed",
							"type": "uint256"
						}
					],
					"name": "ERC20InsufficientBalance",
					"type": "error"
				},
				{
					"inputs": [
						{
							"internalType": "address",
							"name": "approver",
							"type": "address"
						}
					],
					"name": "ERC20InvalidApprover",
					"type": "error"
				},
				{
					"inputs": [
						{
							"internalType": "address",
							"name": "receiver",
							"type": "address"
						}
					],
					"name": "ERC20InvalidReceiver",
					"type": "error"
				},
				{
					"inputs": [
						{
							"internalType": "address",
							"name": "sender",
							"type": "address"
						}
					],
					"name": "ERC20InvalidSender",
					"type": "error"
				},
				{
					"inputs": [
						{
							"internalType": "address",
							"name": "spender",
							"type": "address"
						}
					],
					"name": "ERC20InvalidSpender",
					"type": "error"
				},
				{
					"inputs": [],
					"name": "InsufficientFunds",
					"type": "error"
				},
				{
					"inputs": [
						{
							"internalType": "address",
							"name": "owner",
							"type": "address"
						}
					],
					"name": "OwnableInvalidOwner",
					"type": "error"
				},
				{
					"inputs": [
						{
							"internalType": "address",
							"name": "account",
							"type": "address"
						}
					],
					"name": "OwnableUnauthorizedAccount",
					"type": "error"
				},
				{
					"inputs": [],
					"name": "TaxTooHigh",
					"type": "error"
				},
				{
					"inputs": [],
					"name": "TokenAmountMustBePositive",
					"type": "error"
				},
				{
					"inputs": [],
					"name": "TransferFromZero",
					"type": "error"
				},
				{
					"inputs": [],
					"name": "TransferToZero",
					"type": "error"
				},
				{
					"anonymous": false,
					"inputs": [
						{
							"indexed": true,
							"internalType": "address",
							"name": "owner",
							"type": "address"
						},
						{
							"indexed": true,
							"internalType": "address",
							"name": "spender",
							"type": "address"
						},
						{
							"indexed": false,
							"internalType": "uint256",
							"name": "value",
							"type": "uint256"
						}
					],
					"name": "Approval",
					"type": "event"
				},
				{
					"anonymous": false,
					"inputs": [
						{
							"indexed": false,
							"internalType": "uint256",
							"name": "tokens",
							"type": "uint256"
						},
						{
							"indexed": false,
							"internalType": "uint256",
							"name": "eth",
							"type": "uint256"
						}
					],
					"name": "LiquidityAdded",
					"type": "event"
				},
				{
					"anonymous": false,
					"inputs": [
						{
							"indexed": true,
							"internalType": "address",
							"name": "previousOwner",
							"type": "address"
						},
						{
							"indexed": true,
							"internalType": "address",
							"name": "newOwner",
							"type": "address"
						}
					],
					"name": "OwnershipTransferred",
					"type": "event"
				},
				{
					"anonymous": false,
					"inputs": [
						{
							"indexed": false,
							"internalType": "uint256",
							"name": "amount",
							"type": "uint256"
						}
					],
					"name": "TaxCollected",
					"type": "event"
				},
				{
					"anonymous": false,
					"inputs": [
						{
							"indexed": true,
							"internalType": "address",
							"name": "from",
							"type": "address"
						},
						{
							"indexed": true,
							"internalType": "address",
							"name": "to",
							"type": "address"
						},
						{
							"indexed": false,
							"internalType": "uint256",
							"name": "value",
							"type": "uint256"
						}
					],
					"name": "Transfer",
					"type": "event"
				},
				{
					"inputs": [],
					"name": "DEAD_ADDRESS",
					"outputs": [
						{
							"internalType": "address",
							"name": "",
							"type": "address"
						}
					],
					"stateMutability": "view",
					"type": "function"
				},
				{
					"inputs": [
						{
							"internalType": "uint256",
							"name": "tokenAmount",
							"type": "uint256"
						}
					],
					"name": "addLiquidity",
					"outputs": [],
					"stateMutability": "nonpayable",
					"type": "function"
				},
				{
					"inputs": [
						{
							"internalType": "address",
							"name": "owner",
							"type": "address"
						},
						{
							"internalType": "address",
							"name": "spender",
							"type": "address"
						}
					],
					"name": "allowance",
					"outputs": [
						{
							"internalType": "uint256",
							"name": "",
							"type": "uint256"
						}
					],
					"stateMutability": "view",
					"type": "function"
				},
				{
					"inputs": [
						{
							"internalType": "address",
							"name": "spender",
							"type": "address"
						},
						{
							"internalType": "uint256",
							"name": "value",
							"type": "uint256"
						}
					],
					"name": "approve",
					"outputs": [
						{
							"internalType": "bool",
							"name": "",
							"type": "bool"
						}
					],
					"stateMutability": "nonpayable",
					"type": "function"
				},
				{
					"inputs": [
						{
							"internalType": "address",
							"name": "account",
							"type": "address"
						}
					],
					"name": "balanceOf",
					"outputs": [
						{
							"internalType": "uint256",
							"name": "",
							"type": "uint256"
						}
					],
					"stateMutability": "view",
					"type": "function"
				},
				{
					"inputs": [],
					"name": "burnShare",
					"outputs": [
						{
							"internalType": "uint256",
							"name": "",
							"type": "uint256"
						}
					],
					"stateMutability": "view",
					"type": "function"
				},
				{
					"inputs": [],
					"name": "buyTax",
					"outputs": [
						{
							"internalType": "uint256",
							"name": "",
							"type": "uint256"
						}
					],
					"stateMutability": "view",
					"type": "function"
				},
				{
					"inputs": [],
					"name": "decimals",
					"outputs": [
						{
							"internalType": "uint8",
							"name": "",
							"type": "uint8"
						}
					],
					"stateMutability": "view",
					"type": "function"
				},
				{
					"inputs": [
						{
							"internalType": "address",
							"name": "account",
							"type": "address"
						},
						{
							"internalType": "bool",
							"name": "excluded",
							"type": "bool"
						}
					],
					"name": "excludeFromTax",
					"outputs": [],
					"stateMutability": "nonpayable",
					"type": "function"
				},
				{
					"inputs": [
						{
							"internalType": "address",
							"name": "",
							"type": "address"
						}
					],
					"name": "isExcludedFromTax",
					"outputs": [
						{
							"internalType": "bool",
							"name": "",
							"type": "bool"
						}
					],
					"stateMutability": "view",
					"type": "function"
				},
				{
					"inputs": [],
					"name": "liquidityShare",
					"outputs": [
						{
							"internalType": "uint256",
							"name": "",
							"type": "uint256"
						}
					],
					"stateMutability": "view",
					"type": "function"
				},
				{
					"inputs": [],
					"name": "name",
					"outputs": [
						{
							"internalType": "string",
							"name": "",
							"type": "string"
						}
					],
					"stateMutability": "view",
					"type": "function"
				},
				{
					"inputs": [],
					"name": "owner",
					"outputs": [
						{
							"internalType": "address",
							"name": "",
							"type": "address"
						}
					],
					"stateMutability": "view",
					"type": "function"
				},
				{
					"inputs": [],
					"name": "renounceOwnership",
					"outputs": [],
					"stateMutability": "nonpayable",
					"type": "function"
				},
				{
					"inputs": [],
					"name": "rewardsShare",
					"outputs": [
						{
							"internalType": "uint256",
							"name": "",
							"type": "uint256"
						}
					],
					"stateMutability": "view",
					"type": "function"
				},
				{
					"inputs": [],
					"name": "sellTax",
					"outputs": [
						{
							"internalType": "uint256",
							"name": "",
							"type": "uint256"
						}
					],
					"stateMutability": "view",
					"type": "function"
				},
				{
					"inputs": [
						{
							"internalType": "uint256",
							"name": "_buyTax",
							"type": "uint256"
						},
						{
							"internalType": "uint256",
							"name": "_sellTax",
							"type": "uint256"
						}
					],
					"name": "setTaxes",
					"outputs": [],
					"stateMutability": "nonpayable",
					"type": "function"
				},
				{
					"inputs": [],
					"name": "symbol",
					"outputs": [
						{
							"internalType": "string",
							"name": "",
							"type": "string"
						}
					],
					"stateMutability": "view",
					"type": "function"
				},
				{
					"inputs": [],
					"name": "totalSupply",
					"outputs": [
						{
							"internalType": "uint256",
							"name": "",
							"type": "uint256"
						}
					],
					"stateMutability": "view",
					"type": "function"
				},
				{
					"inputs": [
						{
							"internalType": "address",
							"name": "to",
							"type": "address"
						},
						{
							"internalType": "uint256",
							"name": "value",
							"type": "uint256"
						}
					],
					"name": "transfer",
					"outputs": [
						{
							"internalType": "bool",
							"name": "",
							"type": "bool"
						}
					],
					"stateMutability": "nonpayable",
					"type": "function"
				},
				{
					"inputs": [
						{
							"internalType": "address",
							"name": "sender",
							"type": "address"
						},
						{
							"internalType": "address",
							"name": "recipient",
							"type": "address"
						},
						{
							"internalType": "uint256",
							"name": "amount",
							"type": "uint256"
						}
					],
					"name": "transfer",
					"outputs": [],
					"stateMutability": "nonpayable",
					"type": "function"
				},
				{
					"inputs": [
						{
							"internalType": "address",
							"name": "from",
							"type": "address"
						},
						{
							"internalType": "address",
							"name": "to",
							"type": "address"
						},
						{
							"internalType": "uint256",
							"name": "value",
							"type": "uint256"
						}
					],
					"name": "transferFrom",
					"outputs": [
						{
							"internalType": "bool",
							"name": "",
							"type": "bool"
						}
					],
					"stateMutability": "nonpayable",
					"type": "function"
				},
				{
					"inputs": [
						{
							"internalType": "address",
							"name": "newOwner",
							"type": "address"
						}
					],
					"name": "transferOwnership",
					"outputs": [],
					"stateMutability": "nonpayable",
					"type": "function"
				},
				{
					"inputs": [],
					"name": "uniswapPair",
					"outputs": [
						{
							"internalType": "address",
							"name": "",
							"type": "address"
						}
					],
					"stateMutability": "view",
					"type": "function"
				},
				{
					"inputs": [],
					"name": "uniswaprouter",
					"outputs": [
						{
							"internalType": "contract IUniswapV2Router02",
							"name": "",
							"type": "address"
						}
					],
					"stateMutability": "view",
					"type": "function"
				},
				{
					"inputs": [
						{
							"internalType": "uint256",
							"name": "amount",
							"type": "uint256"
						}
					],
					"name": "withdraw",
					"outputs": [],
					"stateMutability": "nonpayable",
					"type": "function"
				}
			],
			"devdoc": {
				"errors": {
					"ERC20InsufficientAllowance(address,uint256,uint256)": [
						{
							"details": "Indicates a failure with the `spender`’s `allowance`. Used in transfers.",
							"params": {
								"allowance": "Amount of tokens a `spender` is allowed to operate with.",
								"needed": "Minimum amount required to perform a transfer.",
								"spender": "Address that may be allowed to operate on tokens without being their owner."
							}
						}
					],
					"ERC20InsufficientBalance(address,uint256,uint256)": [
						{
							"details": "Indicates an error related to the current `balance` of a `sender`. Used in transfers.",
							"params": {
								"balance": "Current balance for the interacting account.",
								"needed": "Minimum amount required to perform a transfer.",
								"sender": "Address whose tokens are being transferred."
							}
						}
					],
					"ERC20InvalidApprover(address)": [
						{
							"details": "Indicates a failure with the `approver` of a token to be approved. Used in approvals.",
							"params": {
								"approver": "Address initiating an approval operation."
							}
						}
					],
					"ERC20InvalidReceiver(address)": [
						{
							"details": "Indicates a failure with the token `receiver`. Used in transfers.",
							"params": {
								"receiver": "Address to which tokens are being transferred."
							}
						}
					],
					"ERC20InvalidSender(address)": [
						{
							"details": "Indicates a failure with the token `sender`. Used in transfers.",
							"params": {
								"sender": "Address whose tokens are being transferred."
							}
						}
					],
					"ERC20InvalidSpender(address)": [
						{
							"details": "Indicates a failure with the `spender` to be approved. Used in approvals.",
							"params": {
								"spender": "Address that may be allowed to operate on tokens without being their owner."
							}
						}
					],
					"OwnableInvalidOwner(address)": [
						{
							"details": "The owner is not a valid owner account. (eg. `address(0)`)"
						}
					],
					"OwnableUnauthorizedAccount(address)": [
						{
							"details": "The caller account is not authorized to perform an operation."
						}
					]
				},
				"events": {
					"Approval(address,address,uint256)": {
						"details": "Emitted when the allowance of a `spender` for an `owner` is set by a call to {approve}. `value` is the new allowance."
					},
					"Transfer(address,address,uint256)": {
						"details": "Emitted when `value` tokens are moved from one account (`from`) to another (`to`). Note that `value` may be zero."
					}
				},
				"kind": "dev",
				"methods": {
					"allowance(address,address)": {
						"details": "See {IERC20-allowance}."
					},
					"approve(address,uint256)": {
						"details": "See {IERC20-approve}. NOTE: If `value` is the maximum `uint256`, the allowance is not updated on `transferFrom`. This is semantically equivalent to an infinite approval. Requirements: - `spender` cannot be the zero address."
					},
					"balanceOf(address)": {
						"details": "See {IERC20-balanceOf}."
					},
					"decimals()": {
						"details": "Returns the number of decimals used to get its user representation. For example, if `decimals` equals `2`, a balance of `505` tokens should be displayed to a user as `5.05` (`505 / 10 ** 2`). Tokens usually opt for a value of 18, imitating the relationship between Ether and Wei. This is the default value returned by this function, unless it's overridden. NOTE: This information is only used for _display_ purposes: it in no way affects any of the arithmetic of the contract, including {IERC20-balanceOf} and {IERC20-transfer}."
					},
					"name()": {
						"details": "Returns the name of the token."
					},
					"owner()": {
						"details": "Returns the address of the current owner."
					},
					"renounceOwnership()": {
						"details": "Leaves the contract without owner. It will not be possible to call `onlyOwner` functions. Can only be called by the current owner. NOTE: Renouncing ownership will leave the contract without an owner, thereby disabling any functionality that is only available to the owner."
					},
					"symbol()": {
						"details": "Returns the symbol of the token, usually a shorter version of the name."
					},
					"totalSupply()": {
						"details": "See {IERC20-totalSupply}."
					},
					"transfer(address,uint256)": {
						"details": "See {IERC20-transfer}. Requirements: - `to` cannot be the zero address. - the caller must have a balance of at least `value`."
					},
					"transferFrom(address,address,uint256)": {
						"details": "See {IERC20-transferFrom}. Skips emitting an {Approval} event indicating an allowance update. This is not required by the ERC. See {xref-ERC20-_approve-address-address-uint256-bool-}[_approve]. NOTE: Does not update the allowance if the current allowance is the maximum `uint256`. Requirements: - `from` and `to` cannot be the zero address. - `from` must have a balance of at least `value`. - the caller must have allowance for ``from``'s tokens of at least `value`."
					},
					"transferOwnership(address)": {
						"details": "Transfers ownership of the contract to a new account (`newOwner`). Can only be called by the current owner."
					}
				},
				"version": 1
			},
			"evm": {
				"assembly": "    /* \"contracts/mem_flattened.sol\":30633:34249  contract MemCoin is ERC20, Ownable {... */\n  mstore(0x40, 0x80)\n    /* \"contracts/mem_flattened.sol\":30880:30881  5 */\n  0x05\n    /* \"contracts/mem_flattened.sol\":30856:30881  uint256 public buyTax = 5 */\n  0x06\n  sstore\n    /* \"contracts/mem_flattened.sol\":30912:30914  10 */\n  0x0a\n    /* \"contracts/mem_flattened.sol\":30887:30914  uint256 public sellTax = 10 */\n  0x07\n  sstore\n    /* \"contracts/mem_flattened.sol\":30952:30954  50 */\n  0x32\n    /* \"contracts/mem_flattened.sol\":30920:30954  uint256 public liquidityShare = 50 */\n  0x08\n  sstore\n    /* \"contracts/mem_flattened.sol\":30987:30989  20 */\n  0x14\n    /* \"contracts/mem_flattened.sol\":30960:30989  uint256 public burnShare = 20 */\n  0x09\n  sstore\n    /* \"contracts/mem_flattened.sol\":31025:31027  30 */\n  0x1e\n    /* \"contracts/mem_flattened.sol\":30995:31027  uint256 public rewardsShare = 30 */\n  0x0a\n  sstore\n    /* \"contracts/mem_flattened.sol\":31351:31840  constructor(... */\n  callvalue\n  dup1\n  iszero\n  tag_1\n  jumpi\n  revert(0x00, 0x00)\ntag_1:\n  pop\n  mload(0x40)\n  sub(codesize, bytecodeSize)\n  dup1\n  bytecodeSize\n  dup4\n  codecopy\n  dup2\n  dup2\n  add\n  0x40\n  mstore\n  dup2\n  add\n  swap1\n  tag_2\n  swap2\n  swap1\n  tag_3\n  jump\t// in\ntag_2:\n    /* \"contracts/mem_flattened.sol\":31492:31502  msg.sender */\n  caller\n    /* \"contracts/mem_flattened.sol\":31468:31473  _name */\n  dup4\n    /* \"contracts/mem_flattened.sol\":31475:31482  _symbol */\n  dup4\n    /* \"contracts/mem_flattened.sol\":21354:21359  name_ */\n  dup2\n    /* \"contracts/mem_flattened.sol\":21346:21351  _name */\n  0x03\n    /* \"contracts/mem_flattened.sol\":21346:21359  _name = name_ */\n  swap1\n  dup2\n  tag_8\n  swap2\n  swap1\n  tag_9\n  jump\t// in\ntag_8:\n  pop\n    /* \"contracts/mem_flattened.sol\":21379:21386  symbol_ */\n  dup1\n    /* \"contracts/mem_flattened.sol\":21369:21376  _symbol */\n  0x04\n    /* \"contracts/mem_flattened.sol\":21369:21386  _symbol = symbol_ */\n  swap1\n  dup2\n  tag_10\n  swap2\n  swap1\n  tag_9\n  jump\t// in\ntag_10:\n  pop\n    /* \"contracts/mem_flattened.sol\":21280:21393  constructor(string memory name_, string memory symbol_) {... */\n  pop\n  pop\n    /* \"contracts/mem_flattened.sol\":14562:14563  0 */\n  0x00\n    /* \"contracts/mem_flattened.sol\":14538:14564  initialOwner == address(0) */\n  0xffffffffffffffffffffffffffffffffffffffff\n  and\n    /* \"contracts/mem_flattened.sol\":14538:14550  initialOwner */\n  dup2\n    /* \"contracts/mem_flattened.sol\":14538:14564  initialOwner == address(0) */\n  0xffffffffffffffffffffffffffffffffffffffff\n  and\n  sub\n    /* \"contracts/mem_flattened.sol\":14534:14629  if (initialOwner == address(0)) {... */\n  tag_12\n  jumpi\n    /* \"contracts/mem_flattened.sol\":14615:14616  0 */\n  0x00\n    /* \"contracts/mem_flattened.sol\":14587:14618  OwnableInvalidOwner(address(0)) */\n  mload(0x40)\n  0x1e4fbdf700000000000000000000000000000000000000000000000000000000\n  dup2\n  mstore\n  0x04\n  add\n  tag_13\n  swap2\n  swap1\n  tag_14\n  jump\t// in\ntag_13:\n  mload(0x40)\n  dup1\n  swap2\n  sub\n  swap1\n  revert\n    /* \"contracts/mem_flattened.sol\":14534:14629  if (initialOwner == address(0)) {... */\ntag_12:\n    /* \"contracts/mem_flattened.sol\":14638:14670  _transferOwnership(initialOwner) */\n  tag_15\n    /* \"contracts/mem_flattened.sol\":14657:14669  initialOwner */\n  dup2\n    /* \"contracts/mem_flattened.sol\":14638:14656  _transferOwnership */\n  shl(0x20, tag_16)\n    /* \"contracts/mem_flattened.sol\":14638:14670  _transferOwnership(initialOwner) */\n  0x20\n  shr\n  jump\t// in\ntag_15:\n    /* \"contracts/mem_flattened.sol\":14490:14677  constructor(address initialOwner) {... */\n  pop\n    /* \"contracts/mem_flattened.sol\":31549:31562  routerAddress */\n  dup1\n    /* \"contracts/mem_flattened.sol\":31514:31527  uniswaprouter */\n  0x0b\n  0x00\n    /* \"contracts/mem_flattened.sol\":31514:31563  uniswaprouter = IUniswapV2Router02(routerAddress) */\n  0x0100\n  exp\n  dup2\n  sload\n  dup2\n  0xffffffffffffffffffffffffffffffffffffffff\n  mul\n  not\n  and\n  swap1\n  dup4\n  0xffffffffffffffffffffffffffffffffffffffff\n  and\n  mul\n  or\n  swap1\n  sstore\n  pop\n    /* \"contracts/mem_flattened.sol\":31605:31618  uniswaprouter */\n  0x0b\n  0x00\n  swap1\n  sload\n  swap1\n  0x0100\n  exp\n  swap1\n  div\n  0xffffffffffffffffffffffffffffffffffffffff\n  and\n    /* \"contracts/mem_flattened.sol\":31605:31626  uniswaprouter.factory */\n  0xffffffffffffffffffffffffffffffffffffffff\n  and\n  0xc45a0155\n    /* \"contracts/mem_flattened.sol\":31605:31628  uniswaprouter.factory() */\n  mload(0x40)\n  dup2\n  0xffffffff\n  and\n  0xe0\n  shl\n  dup2\n  mstore\n  0x04\n  add\n  0x20\n  mload(0x40)\n  dup1\n  dup4\n  sub\n  dup2\n  dup7\n  gas\n  staticcall\n  iszero\n  dup1\n  iszero\n  tag_19\n  jumpi\n  returndatacopy(0x00, 0x00, returndatasize)\n  revert(0x00, returndatasize)\ntag_19:\n  pop\n  pop\n  pop\n  pop\n  mload(0x40)\n  returndatasize\n  not(0x1f)\n  0x1f\n  dup3\n  add\n  and\n  dup3\n  add\n  dup1\n  0x40\n  mstore\n  pop\n  dup2\n  add\n  swap1\n  tag_20\n  swap2\n  swap1\n  tag_21\n  jump\t// in\ntag_20:\n    /* \"contracts/mem_flattened.sol\":31587:31640  IUniswapV2Factory(uniswaprouter.factory()).createPair */\n  0xffffffffffffffffffffffffffffffffffffffff\n  and\n  0xc9c65396\n    /* \"contracts/mem_flattened.sol\":31649:31653  this */\n  address\n    /* \"contracts/mem_flattened.sol\":31656:31669  uniswaprouter */\n  0x0b\n  0x00\n  swap1\n  sload\n  swap1\n  0x0100\n  exp\n  swap1\n  div\n  0xffffffffffffffffffffffffffffffffffffffff\n  and\n    /* \"contracts/mem_flattened.sol\":31656:31674  uniswaprouter.WETH */\n  0xffffffffffffffffffffffffffffffffffffffff\n  and\n  0xad5c4648\n    /* \"contracts/mem_flattened.sol\":31656:31676  uniswaprouter.WETH() */\n  mload(0x40)\n  dup2\n  0xffffffff\n  and\n  0xe0\n  shl\n  dup2\n  mstore\n  0x04\n  add\n  0x20\n  mload(0x40)\n  dup1\n  dup4\n  sub\n  dup2\n  dup7\n  gas\n  staticcall\n  iszero\n  dup1\n  iszero\n  tag_23\n  jumpi\n  returndatacopy(0x00, 0x00, returndatasize)\n  revert(0x00, returndatasize)\ntag_23:\n  pop\n  pop\n  pop\n  pop\n  mload(0x40)\n  returndatasize\n  not(0x1f)\n  0x1f\n  dup3\n  add\n  and\n  dup3\n  add\n  dup1\n  0x40\n  mstore\n  pop\n  dup2\n  add\n  swap1\n  tag_24\n  swap2\n  swap1\n  tag_21\n  jump\t// in\ntag_24:\n    /* \"contracts/mem_flattened.sol\":31587:31677  IUniswapV2Factory(uniswaprouter.factory()).createPair(address(this), uniswaprouter.WETH()) */\n  mload(0x40)\n  dup4\n  0xffffffff\n  and\n  0xe0\n  shl\n  dup2\n  mstore\n  0x04\n  add\n  tag_25\n  swap3\n  swap2\n  swap1\n  tag_26\n  jump\t// in\ntag_25:\n  0x20\n  mload(0x40)\n  dup1\n  dup4\n  sub\n  dup2\n  0x00\n  dup8\n  gas\n  call\n  iszero\n  dup1\n  iszero\n  tag_28\n  jumpi\n  returndatacopy(0x00, 0x00, returndatasize)\n  revert(0x00, returndatasize)\ntag_28:\n  pop\n  pop\n  pop\n  pop\n  mload(0x40)\n  returndatasize\n  not(0x1f)\n  0x1f\n  dup3\n  add\n  and\n  dup3\n  add\n  dup1\n  0x40\n  mstore\n  pop\n  dup2\n  add\n  swap1\n  tag_29\n  swap2\n  swap1\n  tag_21\n  jump\t// in\ntag_29:\n    /* \"contracts/mem_flattened.sol\":31573:31584  uniswapPair */\n  0x0c\n  0x00\n    /* \"contracts/mem_flattened.sol\":31573:31677  uniswapPair = IUniswapV2Factory(uniswaprouter.factory()).createPair(address(this), uniswaprouter.WETH()) */\n  0x0100\n  exp\n  dup2\n  sload\n  dup2\n  0xffffffffffffffffffffffffffffffffffffffff\n  mul\n  not\n  and\n  swap1\n  dup4\n  0xffffffffffffffffffffffffffffffffffffffff\n  and\n  mul\n  or\n  swap1\n  sstore\n  pop\n    /* \"contracts/mem_flattened.sol\":31720:31724  true */\n  0x01\n    /* \"contracts/mem_flattened.sol\":31688:31705  isExcludedFromTax */\n  0x0d\n    /* \"contracts/mem_flattened.sol\":31688:31717  isExcludedFromTax[msg.sender] */\n  0x00\n    /* \"contracts/mem_flattened.sol\":31706:31716  msg.sender */\n  caller\n    /* \"contracts/mem_flattened.sol\":31688:31717  isExcludedFromTax[msg.sender] */\n  0xffffffffffffffffffffffffffffffffffffffff\n  and\n  0xffffffffffffffffffffffffffffffffffffffff\n  and\n  dup2\n  mstore\n  0x20\n  add\n  swap1\n  dup2\n  mstore\n  0x20\n  add\n  0x00\n  keccak256\n  0x00\n    /* \"contracts/mem_flattened.sol\":31688:31724  isExcludedFromTax[msg.sender] = true */\n  0x0100\n  exp\n  dup2\n  sload\n  dup2\n  0xff\n  mul\n  not\n  and\n  swap1\n  dup4\n  iszero\n  iszero\n  mul\n  or\n  swap1\n  sstore\n  pop\n    /* \"contracts/mem_flattened.sol\":31769:31773  true */\n  0x01\n    /* \"contracts/mem_flattened.sol\":31734:31751  isExcludedFromTax */\n  0x0d\n    /* \"contracts/mem_flattened.sol\":31734:31766  isExcludedFromTax[address(this)] */\n  0x00\n    /* \"contracts/mem_flattened.sol\":31760:31764  this */\n  address\n    /* \"contracts/mem_flattened.sol\":31734:31766  isExcludedFromTax[address(this)] */\n  0xffffffffffffffffffffffffffffffffffffffff\n  and\n  0xffffffffffffffffffffffffffffffffffffffff\n  and\n  dup2\n  mstore\n  0x20\n  add\n  swap1\n  dup2\n  mstore\n  0x20\n  add\n  0x00\n  keccak256\n  0x00\n    /* \"contracts/mem_flattened.sol\":31734:31773  isExcludedFromTax[address(this)] = true */\n  0x0100\n  exp\n  dup2\n  sload\n  dup2\n  0xff\n  mul\n  not\n  and\n  swap1\n  dup4\n  iszero\n  iszero\n  mul\n  or\n  swap1\n  sstore\n  pop\n    /* \"contracts/mem_flattened.sol\":31784:31833  _mint(msg.sender, 1_000_000_000 * 10**decimals()) */\n  tag_30\n    /* \"contracts/mem_flattened.sol\":31790:31800  msg.sender */\n  caller\n    /* \"contracts/mem_flattened.sol\":31822:31832  decimals() */\n  tag_31\n    /* \"contracts/mem_flattened.sol\":31822:31830  decimals */\n  shl(0x20, tag_32)\n    /* \"contracts/mem_flattened.sol\":31822:31832  decimals() */\n  0x20\n  shr\n  jump\t// in\ntag_31:\n    /* \"contracts/mem_flattened.sol\":31818:31820  10 */\n  0x0a\n    /* \"contracts/mem_flattened.sol\":31818:31832  10**decimals() */\n  tag_33\n  swap2\n  swap1\n  tag_34\n  jump\t// in\ntag_33:\n    /* \"contracts/mem_flattened.sol\":31802:31815  1_000_000_000 */\n  0x3b9aca00\n    /* \"contracts/mem_flattened.sol\":31802:31832  1_000_000_000 * 10**decimals() */\n  tag_35\n  swap2\n  swap1\n  tag_36\n  jump\t// in\ntag_35:\n    /* \"contracts/mem_flattened.sol\":31784:31789  _mint */\n  shl(0x20, tag_37)\n    /* \"contracts/mem_flattened.sol\":31784:31833  _mint(msg.sender, 1_000_000_000 * 10**decimals()) */\n  0x20\n  shr\n  jump\t// in\ntag_30:\n    /* \"contracts/mem_flattened.sol\":31351:31840  constructor(... */\n  pop\n  pop\n  pop\n    /* \"contracts/mem_flattened.sol\":30633:34249  contract MemCoin is ERC20, Ownable {... */\n  jump(tag_38)\n    /* \"contracts/mem_flattened.sol\":16177:16364  function _transferOwnership(address newOwner) internal virtual {... */\ntag_16:\n    /* \"contracts/mem_flattened.sol\":16250:16266  address oldOwner */\n  0x00\n    /* \"contracts/mem_flattened.sol\":16269:16275  _owner */\n  0x05\n  0x00\n  swap1\n  sload\n  swap1\n  0x0100\n  exp\n  swap1\n  div\n  0xffffffffffffffffffffffffffffffffffffffff\n  and\n    /* \"contracts/mem_flattened.sol\":16250:16275  address oldOwner = _owner */\n  swap1\n  pop\n    /* \"contracts/mem_flattened.sol\":16294:16302  newOwner */\n  dup2\n    /* \"contracts/mem_flattened.sol\":16285:16291  _owner */\n  0x05\n  0x00\n    /* \"contracts/mem_flattened.sol\":16285:16302  _owner = newOwner */\n  0x0100\n  exp\n  dup2\n  sload\n  dup2\n  0xffffffffffffffffffffffffffffffffffffffff\n  mul\n  not\n  and\n  swap1\n  dup4\n  0xffffffffffffffffffffffffffffffffffffffff\n  and\n  mul\n  or\n  swap1\n  sstore\n  pop\n    /* \"contracts/mem_flattened.sol\":16348:16356  newOwner */\n  dup2\n    /* \"contracts/mem_flattened.sol\":16317:16357  OwnershipTransferred(oldOwner, newOwner) */\n  0xffffffffffffffffffffffffffffffffffffffff\n  and\n    /* \"contracts/mem_flattened.sol\":16338:16346  oldOwner */\n  dup2\n    /* \"contracts/mem_flattened.sol\":16317:16357  OwnershipTransferred(oldOwner, newOwner) */\n  0xffffffffffffffffffffffffffffffffffffffff\n  and\n  0x8be0079c531659141344cd1fd0a4f28419497f9722a3daafe3b4186f6b6457e0\n  mload(0x40)\n  mload(0x40)\n  dup1\n  swap2\n  sub\n  swap1\n  log3\n    /* \"contracts/mem_flattened.sol\":16240:16364  {... */\n  pop\n    /* \"contracts/mem_flattened.sol\":16177:16364  function _transferOwnership(address newOwner) internal virtual {... */\n  pop\n  jump\t// out\n    /* \"contracts/mem_flattened.sol\":22386:22468  function decimals() public view virtual returns (uint8) {... */\ntag_32:\n    /* \"contracts/mem_flattened.sol\":22435:22440  uint8 */\n  0x00\n    /* \"contracts/mem_flattened.sol\":22459:22461  18 */\n  0x12\n    /* \"contracts/mem_flattened.sol\":22452:22461  return 18 */\n  swap1\n  pop\n    /* \"contracts/mem_flattened.sol\":22386:22468  function decimals() public view virtual returns (uint8) {... */\n  swap1\n  jump\t// out\n    /* \"contracts/mem_flattened.sol\":27137:27345  function _mint(address account, uint256 value) internal {... */\ntag_37:\n    /* \"contracts/mem_flattened.sol\":27226:27227  0 */\n  0x00\n    /* \"contracts/mem_flattened.sol\":27207:27228  account == address(0) */\n  0xffffffffffffffffffffffffffffffffffffffff\n  and\n    /* \"contracts/mem_flattened.sol\":27207:27214  account */\n  dup3\n    /* \"contracts/mem_flattened.sol\":27207:27228  account == address(0) */\n  0xffffffffffffffffffffffffffffffffffffffff\n  and\n  sub\n    /* \"contracts/mem_flattened.sol\":27203:27294  if (account == address(0)) {... */\n  tag_42\n  jumpi\n    /* \"contracts/mem_flattened.sol\":27280:27281  0 */\n  0x00\n    /* \"contracts/mem_flattened.sol\":27251:27283  ERC20InvalidReceiver(address(0)) */\n  mload(0x40)\n  0xec442f0500000000000000000000000000000000000000000000000000000000\n  dup2\n  mstore\n  0x04\n  add\n  tag_43\n  swap2\n  swap1\n  tag_14\n  jump\t// in\ntag_43:\n  mload(0x40)\n  dup1\n  swap2\n  sub\n  swap1\n  revert\n    /* \"contracts/mem_flattened.sol\":27203:27294  if (account == address(0)) {... */\ntag_42:\n    /* \"contracts/mem_flattened.sol\":27303:27338  _update(address(0), account, value) */\n  tag_44\n    /* \"contracts/mem_flattened.sol\":27319:27320  0 */\n  0x00\n    /* \"contracts/mem_flattened.sol\":27323:27330  account */\n  dup4\n    /* \"contracts/mem_flattened.sol\":27332:27337  value */\n  dup4\n    /* \"contracts/mem_flattened.sol\":27303:27310  _update */\n  shl(0x20, tag_45)\n    /* \"contracts/mem_flattened.sol\":27303:27338  _update(address(0), account, value) */\n  0x20\n  shr\n  jump\t// in\ntag_44:\n    /* \"contracts/mem_flattened.sol\":27137:27345  function _mint(address account, uint256 value) internal {... */\n  pop\n  pop\n  jump\t// out\n    /* \"contracts/mem_flattened.sol\":25687:26794  function _update(address from, address to, uint256 value) internal virtual {... */\ntag_45:\n    /* \"contracts/mem_flattened.sol\":25792:25793  0 */\n  0x00\n    /* \"contracts/mem_flattened.sol\":25776:25794  from == address(0) */\n  0xffffffffffffffffffffffffffffffffffffffff\n  and\n    /* \"contracts/mem_flattened.sol\":25776:25780  from */\n  dup4\n    /* \"contracts/mem_flattened.sol\":25776:25794  from == address(0) */\n  0xffffffffffffffffffffffffffffffffffffffff\n  and\n  sub\n    /* \"contracts/mem_flattened.sol\":25772:26312  if (from == address(0)) {... */\n  tag_47\n  jumpi\n    /* \"contracts/mem_flattened.sol\":25928:25933  value */\n  dup1\n    /* \"contracts/mem_flattened.sol\":25912:25924  _totalSupply */\n  0x02\n  0x00\n    /* \"contracts/mem_flattened.sol\":25912:25933  _totalSupply += value */\n  dup3\n  dup3\n  sload\n  tag_48\n  swap2\n  swap1\n  tag_49\n  jump\t// in\ntag_48:\n  swap3\n  pop\n  pop\n  dup2\n  swap1\n  sstore\n  pop\n    /* \"contracts/mem_flattened.sol\":25772:26312  if (from == address(0)) {... */\n  jump(tag_50)\ntag_47:\n    /* \"contracts/mem_flattened.sol\":25964:25983  uint256 fromBalance */\n  0x00\n    /* \"contracts/mem_flattened.sol\":25986:25995  _balances */\n  0x00\n    /* \"contracts/mem_flattened.sol\":25986:26001  _balances[from] */\n  0x00\n    /* \"contracts/mem_flattened.sol\":25996:26000  from */\n  dup6\n    /* \"contracts/mem_flattened.sol\":25986:26001  _balances[from] */\n  0xffffffffffffffffffffffffffffffffffffffff\n  and\n  0xffffffffffffffffffffffffffffffffffffffff\n  and\n  dup2\n  mstore\n  0x20\n  add\n  swap1\n  dup2\n  mstore\n  0x20\n  add\n  0x00\n  keccak256\n  sload\n    /* \"contracts/mem_flattened.sol\":25964:26001  uint256 fromBalance = _balances[from] */\n  swap1\n  pop\n    /* \"contracts/mem_flattened.sol\":26033:26038  value */\n  dup2\n    /* \"contracts/mem_flattened.sol\":26019:26030  fromBalance */\n  dup2\n    /* \"contracts/mem_flattened.sol\":26019:26038  fromBalance < value */\n  lt\n    /* \"contracts/mem_flattened.sol\":26015:26130  if (fromBalance < value) {... */\n  iszero\n  tag_51\n  jumpi\n    /* \"contracts/mem_flattened.sol\":26090:26094  from */\n  dup4\n    /* \"contracts/mem_flattened.sol\":26096:26107  fromBalance */\n  dup2\n    /* \"contracts/mem_flattened.sol\":26109:26114  value */\n  dup4\n    /* \"contracts/mem_flattened.sol\":26065:26115  ERC20InsufficientBalance(from, fromBalance, value) */\n  mload(0x40)\n  0xe450d38c00000000000000000000000000000000000000000000000000000000\n  dup2\n  mstore\n  0x04\n  add\n  tag_52\n  swap4\n  swap3\n  swap2\n  swap1\n  tag_53\n  jump\t// in\ntag_52:\n  mload(0x40)\n  dup1\n  swap2\n  sub\n  swap1\n  revert\n    /* \"contracts/mem_flattened.sol\":26015:26130  if (fromBalance < value) {... */\ntag_51:\n    /* \"contracts/mem_flattened.sol\":26282:26287  value */\n  dup2\n    /* \"contracts/mem_flattened.sol\":26268:26279  fromBalance */\n  dup2\n    /* \"contracts/mem_flattened.sol\":26268:26287  fromBalance - value */\n  sub\n    /* \"contracts/mem_flattened.sol\":26250:26259  _balances */\n  0x00\n    /* \"contracts/mem_flattened.sol\":26250:26265  _balances[from] */\n  0x00\n    /* \"contracts/mem_flattened.sol\":26260:26264  from */\n  dup7\n    /* \"contracts/mem_flattened.sol\":26250:26265  _balances[from] */\n  0xffffffffffffffffffffffffffffffffffffffff\n  and\n  0xffffffffffffffffffffffffffffffffffffffff\n  and\n  dup2\n  mstore\n  0x20\n  add\n  swap1\n  dup2\n  mstore\n  0x20\n  add\n  0x00\n  keccak256\n    /* \"contracts/mem_flattened.sol\":26250:26287  _balances[from] = fromBalance - value */\n  dup2\n  swap1\n  sstore\n  pop\n    /* \"contracts/mem_flattened.sol\":25950:26312  {... */\n  pop\n    /* \"contracts/mem_flattened.sol\":25772:26312  if (from == address(0)) {... */\ntag_50:\n    /* \"contracts/mem_flattened.sol\":26340:26341  0 */\n  0x00\n    /* \"contracts/mem_flattened.sol\":26326:26342  to == address(0) */\n  0xffffffffffffffffffffffffffffffffffffffff\n  and\n    /* \"contracts/mem_flattened.sol\":26326:26328  to */\n  dup3\n    /* \"contracts/mem_flattened.sol\":26326:26342  to == address(0) */\n  0xffffffffffffffffffffffffffffffffffffffff\n  and\n  sub\n    /* \"contracts/mem_flattened.sol\":26322:26747  if (to == address(0)) {... */\n  tag_54\n  jumpi\n    /* \"contracts/mem_flattened.sol\":26505:26510  value */\n  dup1\n    /* \"contracts/mem_flattened.sol\":26489:26501  _totalSupply */\n  0x02\n  0x00\n    /* \"contracts/mem_flattened.sol\":26489:26510  _totalSupply -= value */\n  dup3\n  dup3\n  sload\n  sub\n  swap3\n  pop\n  pop\n  dup2\n  swap1\n  sstore\n  pop\n    /* \"contracts/mem_flattened.sol\":26322:26747  if (to == address(0)) {... */\n  jump(tag_55)\ntag_54:\n    /* \"contracts/mem_flattened.sol\":26717:26722  value */\n  dup1\n    /* \"contracts/mem_flattened.sol\":26700:26709  _balances */\n  0x00\n    /* \"contracts/mem_flattened.sol\":26700:26713  _balances[to] */\n  0x00\n    /* \"contracts/mem_flattened.sol\":26710:26712  to */\n  dup5\n    /* \"contracts/mem_flattened.sol\":26700:26713  _balances[to] */\n  0xffffffffffffffffffffffffffffffffffffffff\n  and\n  0xffffffffffffffffffffffffffffffffffffffff\n  and\n  dup2\n  mstore\n  0x20\n  add\n  swap1\n  dup2\n  mstore\n  0x20\n  add\n  0x00\n  keccak256\n  0x00\n    /* \"contracts/mem_flattened.sol\":26700:26722  _balances[to] += value */\n  dup3\n  dup3\n  sload\n  add\n  swap3\n  pop\n  pop\n  dup2\n  swap1\n  sstore\n  pop\n    /* \"contracts/mem_flattened.sol\":26322:26747  if (to == address(0)) {... */\ntag_55:\n    /* \"contracts/mem_flattened.sol\":26777:26779  to */\n  dup2\n    /* \"contracts/mem_flattened.sol\":26762:26787  Transfer(from, to, value) */\n  0xffffffffffffffffffffffffffffffffffffffff\n  and\n    /* \"contracts/mem_flattened.sol\":26771:26775  from */\n  dup4\n    /* \"contracts/mem_flattened.sol\":26762:26787  Transfer(from, to, value) */\n  0xffffffffffffffffffffffffffffffffffffffff\n  and\n  0xddf252ad1be2c89b69c2b068fc378daa952ba7f163c4a11628f55a4df523b3ef\n    /* \"contracts/mem_flattened.sol\":26781:26786  value */\n  dup4\n    /* \"contracts/mem_flattened.sol\":26762:26787  Transfer(from, to, value) */\n  mload(0x40)\n  tag_56\n  swap2\n  swap1\n  tag_57\n  jump\t// in\ntag_56:\n  mload(0x40)\n  dup1\n  swap2\n  sub\n  swap1\n  log3\n    /* \"contracts/mem_flattened.sol\":25687:26794  function _update(address from, address to, uint256 value) internal virtual {... */\n  pop\n  pop\n  pop\n  jump\t// out\n    /* \"#utility.yul\":7:82   */\ntag_58:\n    /* \"#utility.yul\":40:46   */\n  0x00\n    /* \"#utility.yul\":73:75   */\n  0x40\n    /* \"#utility.yul\":67:76   */\n  mload\n    /* \"#utility.yul\":57:76   */\n  swap1\n  pop\n    /* \"#utility.yul\":7:82   */\n  swap1\n  jump\t// out\n    /* \"#utility.yul\":88:205   */\ntag_59:\n    /* \"#utility.yul\":197:198   */\n  0x00\n    /* \"#utility.yul\":194:195   */\n  0x00\n    /* \"#utility.yul\":187:199   */\n  revert\n    /* \"#utility.yul\":211:328   */\ntag_60:\n    /* \"#utility.yul\":320:321   */\n  0x00\n    /* \"#utility.yul\":317:318   */\n  0x00\n    /* \"#utility.yul\":310:322   */\n  revert\n    /* \"#utility.yul\":334:451   */\ntag_61:\n    /* \"#utility.yul\":443:444   */\n  0x00\n    /* \"#utility.yul\":440:441   */\n  0x00\n    /* \"#utility.yul\":433:445   */\n  revert\n    /* \"#utility.yul\":457:574   */\ntag_62:\n    /* \"#utility.yul\":566:567   */\n  0x00\n    /* \"#utility.yul\":563:564   */\n  0x00\n    /* \"#utility.yul\":556:568   */\n  revert\n    /* \"#utility.yul\":580:682   */\ntag_63:\n    /* \"#utility.yul\":621:627   */\n  0x00\n    /* \"#utility.yul\":672:674   */\n  0x1f\n    /* \"#utility.yul\":668:675   */\n  not\n    /* \"#utility.yul\":663:665   */\n  0x1f\n    /* \"#utility.yul\":656:661   */\n  dup4\n    /* \"#utility.yul\":652:666   */\n  add\n    /* \"#utility.yul\":648:676   */\n  and\n    /* \"#utility.yul\":638:676   */\n  swap1\n  pop\n    /* \"#utility.yul\":580:682   */\n  swap2\n  swap1\n  pop\n  jump\t// out\n    /* \"#utility.yul\":688:868   */\ntag_64:\n    /* \"#utility.yul\":736:813   */\n  0x4e487b7100000000000000000000000000000000000000000000000000000000\n    /* \"#utility.yul\":733:734   */\n  0x00\n    /* \"#utility.yul\":726:814   */\n  mstore\n    /* \"#utility.yul\":833:837   */\n  0x41\n    /* \"#utility.yul\":830:831   */\n  0x04\n    /* \"#utility.yul\":823:838   */\n  mstore\n    /* \"#utility.yul\":857:861   */\n  0x24\n    /* \"#utility.yul\":854:855   */\n  0x00\n    /* \"#utility.yul\":847:862   */\n  revert\n    /* \"#utility.yul\":874:1155   */\ntag_65:\n    /* \"#utility.yul\":957:984   */\n  tag_110\n    /* \"#utility.yul\":979:983   */\n  dup3\n    /* \"#utility.yul\":957:984   */\n  tag_63\n  jump\t// in\ntag_110:\n    /* \"#utility.yul\":949:955   */\n  dup2\n    /* \"#utility.yul\":945:985   */\n  add\n    /* \"#utility.yul\":1087:1093   */\n  dup2\n    /* \"#utility.yul\":1075:1085   */\n  dup2\n    /* \"#utility.yul\":1072:1094   */\n  lt\n    /* \"#utility.yul\":1051:1069   */\n  0xffffffffffffffff\n    /* \"#utility.yul\":1039:1049   */\n  dup3\n    /* \"#utility.yul\":1036:1070   */\n  gt\n    /* \"#utility.yul\":1033:1095   */\n  or\n    /* \"#utility.yul\":1030:1118   */\n  iszero\n  tag_111\n  jumpi\n    /* \"#utility.yul\":1098:1116   */\n  tag_112\n  tag_64\n  jump\t// in\ntag_112:\n    /* \"#utility.yul\":1030:1118   */\ntag_111:\n    /* \"#utility.yul\":1138:1148   */\n  dup1\n    /* \"#utility.yul\":1134:1136   */\n  0x40\n    /* \"#utility.yul\":1127:1149   */\n  mstore\n    /* \"#utility.yul\":917:1155   */\n  pop\n    /* \"#utility.yul\":874:1155   */\n  pop\n  pop\n  jump\t// out\n    /* \"#utility.yul\":1161:1290   */\ntag_66:\n    /* \"#utility.yul\":1195:1201   */\n  0x00\n    /* \"#utility.yul\":1222:1242   */\n  tag_114\n  tag_58\n  jump\t// in\ntag_114:\n    /* \"#utility.yul\":1212:1242   */\n  swap1\n  pop\n    /* \"#utility.yul\":1251:1284   */\n  tag_115\n    /* \"#utility.yul\":1279:1283   */\n  dup3\n    /* \"#utility.yul\":1271:1277   */\n  dup3\n    /* \"#utility.yul\":1251:1284   */\n  tag_65\n  jump\t// in\ntag_115:\n    /* \"#utility.yul\":1161:1290   */\n  swap2\n  swap1\n  pop\n  jump\t// out\n    /* \"#utility.yul\":1296:1604   */\ntag_67:\n    /* \"#utility.yul\":1358:1362   */\n  0x00\n    /* \"#utility.yul\":1448:1466   */\n  0xffffffffffffffff\n    /* \"#utility.yul\":1440:1446   */\n  dup3\n    /* \"#utility.yul\":1437:1467   */\n  gt\n    /* \"#utility.yul\":1434:1490   */\n  iszero\n  tag_117\n  jumpi\n    /* \"#utility.yul\":1470:1488   */\n  tag_118\n  tag_64\n  jump\t// in\ntag_118:\n    /* \"#utility.yul\":1434:1490   */\ntag_117:\n    /* \"#utility.yul\":1508:1537   */\n  tag_119\n    /* \"#utility.yul\":1530:1536   */\n  dup3\n    /* \"#utility.yul\":1508:1537   */\n  tag_63\n  jump\t// in\ntag_119:\n    /* \"#utility.yul\":1500:1537   */\n  swap1\n  pop\n    /* \"#utility.yul\":1592:1596   */\n  0x20\n    /* \"#utility.yul\":1586:1590   */\n  dup2\n    /* \"#utility.yul\":1582:1597   */\n  add\n    /* \"#utility.yul\":1574:1597   */\n  swap1\n  pop\n    /* \"#utility.yul\":1296:1604   */\n  swap2\n  swap1\n  pop\n  jump\t// out\n    /* \"#utility.yul\":1610:1749   */\ntag_68:\n    /* \"#utility.yul\":1699:1705   */\n  dup3\n    /* \"#utility.yul\":1694:1697   */\n  dup2\n    /* \"#utility.yul\":1689:1692   */\n  dup4\n    /* \"#utility.yul\":1683:1706   */\n  mcopy\n    /* \"#utility.yul\":1740:1741   */\n  0x00\n    /* \"#utility.yul\":1731:1737   */\n  dup4\n    /* \"#utility.yul\":1726:1729   */\n  dup4\n    /* \"#utility.yul\":1722:1738   */\n  add\n    /* \"#utility.yul\":1715:1742   */\n  mstore\n    /* \"#utility.yul\":1610:1749   */\n  pop\n  pop\n  pop\n  jump\t// out\n    /* \"#utility.yul\":1755:2189   */\ntag_69:\n    /* \"#utility.yul\":1844:1849   */\n  0x00\n    /* \"#utility.yul\":1869:1935   */\n  tag_122\n    /* \"#utility.yul\":1885:1934   */\n  tag_123\n    /* \"#utility.yul\":1927:1933   */\n  dup5\n    /* \"#utility.yul\":1885:1934   */\n  tag_67\n  jump\t// in\ntag_123:\n    /* \"#utility.yul\":1869:1935   */\n  tag_66\n  jump\t// in\ntag_122:\n    /* \"#utility.yul\":1860:1935   */\n  swap1\n  pop\n    /* \"#utility.yul\":1958:1964   */\n  dup3\n    /* \"#utility.yul\":1951:1956   */\n  dup2\n    /* \"#utility.yul\":1944:1965   */\n  mstore\n    /* \"#utility.yul\":1996:2000   */\n  0x20\n    /* \"#utility.yul\":1989:1994   */\n  dup2\n    /* \"#utility.yul\":1985:2001   */\n  add\n    /* \"#utility.yul\":2034:2037   */\n  dup5\n    /* \"#utility.yul\":2025:2031   */\n  dup5\n    /* \"#utility.yul\":2020:2023   */\n  dup5\n    /* \"#utility.yul\":2016:2032   */\n  add\n    /* \"#utility.yul\":2013:2038   */\n  gt\n    /* \"#utility.yul\":2010:2122   */\n  iszero\n  tag_124\n  jumpi\n    /* \"#utility.yul\":2041:2120   */\n  tag_125\n  tag_62\n  jump\t// in\ntag_125:\n    /* \"#utility.yul\":2010:2122   */\ntag_124:\n    /* \"#utility.yul\":2131:2183   */\n  tag_126\n    /* \"#utility.yul\":2176:2182   */\n  dup5\n    /* \"#utility.yul\":2171:2174   */\n  dup3\n    /* \"#utility.yul\":2166:2169   */\n  dup6\n    /* \"#utility.yul\":2131:2183   */\n  tag_68\n  jump\t// in\ntag_126:\n    /* \"#utility.yul\":1850:2189   */\n  pop\n    /* \"#utility.yul\":1755:2189   */\n  swap4\n  swap3\n  pop\n  pop\n  pop\n  jump\t// out\n    /* \"#utility.yul\":2209:2564   */\ntag_70:\n    /* \"#utility.yul\":2276:2281   */\n  0x00\n    /* \"#utility.yul\":2325:2328   */\n  dup3\n    /* \"#utility.yul\":2318:2322   */\n  0x1f\n    /* \"#utility.yul\":2310:2316   */\n  dup4\n    /* \"#utility.yul\":2306:2323   */\n  add\n    /* \"#utility.yul\":2302:2329   */\n  slt\n    /* \"#utility.yul\":2292:2414   */\n  tag_128\n  jumpi\n    /* \"#utility.yul\":2333:2412   */\n  tag_129\n  tag_61\n  jump\t// in\ntag_129:\n    /* \"#utility.yul\":2292:2414   */\ntag_128:\n    /* \"#utility.yul\":2443:2449   */\n  dup2\n    /* \"#utility.yul\":2437:2450   */\n  mload\n    /* \"#utility.yul\":2468:2558   */\n  tag_130\n    /* \"#utility.yul\":2554:2557   */\n  dup5\n    /* \"#utility.yul\":2546:2552   */\n  dup3\n    /* \"#utility.yul\":2539:2543   */\n  0x20\n    /* \"#utility.yul\":2531:2537   */\n  dup7\n    /* \"#utility.yul\":2527:2544   */\n  add\n    /* \"#utility.yul\":2468:2558   */\n  tag_69\n  jump\t// in\ntag_130:\n    /* \"#utility.yul\":2459:2558   */\n  swap2\n  pop\n    /* \"#utility.yul\":2282:2564   */\n  pop\n    /* \"#utility.yul\":2209:2564   */\n  swap3\n  swap2\n  pop\n  pop\n  jump\t// out\n    /* \"#utility.yul\":2570:2696   */\ntag_71:\n    /* \"#utility.yul\":2607:2614   */\n  0x00\n    /* \"#utility.yul\":2647:2689   */\n  0xffffffffffffffffffffffffffffffffffffffff\n    /* \"#utility.yul\":2640:2645   */\n  dup3\n    /* \"#utility.yul\":2636:2690   */\n  and\n    /* \"#utility.yul\":2625:2690   */\n  swap1\n  pop\n    /* \"#utility.yul\":2570:2696   */\n  swap2\n  swap1\n  pop\n  jump\t// out\n    /* \"#utility.yul\":2702:2798   */\ntag_72:\n    /* \"#utility.yul\":2739:2746   */\n  0x00\n    /* \"#utility.yul\":2768:2792   */\n  tag_133\n    /* \"#utility.yul\":2786:2791   */\n  dup3\n    /* \"#utility.yul\":2768:2792   */\n  tag_71\n  jump\t// in\ntag_133:\n    /* \"#utility.yul\":2757:2792   */\n  swap1\n  pop\n    /* \"#utility.yul\":2702:2798   */\n  swap2\n  swap1\n  pop\n  jump\t// out\n    /* \"#utility.yul\":2804:2926   */\ntag_73:\n    /* \"#utility.yul\":2877:2901   */\n  tag_135\n    /* \"#utility.yul\":2895:2900   */\n  dup2\n    /* \"#utility.yul\":2877:2901   */\n  tag_72\n  jump\t// in\ntag_135:\n    /* \"#utility.yul\":2870:2875   */\n  dup2\n    /* \"#utility.yul\":2867:2902   */\n  eq\n    /* \"#utility.yul\":2857:2920   */\n  tag_136\n  jumpi\n    /* \"#utility.yul\":2916:2917   */\n  0x00\n    /* \"#utility.yul\":2913:2914   */\n  0x00\n    /* \"#utility.yul\":2906:2918   */\n  revert\n    /* \"#utility.yul\":2857:2920   */\ntag_136:\n    /* \"#utility.yul\":2804:2926   */\n  pop\n  jump\t// out\n    /* \"#utility.yul\":2932:3075   */\ntag_74:\n    /* \"#utility.yul\":2989:2994   */\n  0x00\n    /* \"#utility.yul\":3020:3026   */\n  dup2\n    /* \"#utility.yul\":3014:3027   */\n  mload\n    /* \"#utility.yul\":3005:3027   */\n  swap1\n  pop\n    /* \"#utility.yul\":3036:3069   */\n  tag_138\n    /* \"#utility.yul\":3063:3068   */\n  dup2\n    /* \"#utility.yul\":3036:3069   */\n  tag_73\n  jump\t// in\ntag_138:\n    /* \"#utility.yul\":2932:3075   */\n  swap3\n  swap2\n  pop\n  pop\n  jump\t// out\n    /* \"#utility.yul\":3081:4090   */\ntag_3:\n    /* \"#utility.yul\":3189:3195   */\n  0x00\n    /* \"#utility.yul\":3197:3203   */\n  0x00\n    /* \"#utility.yul\":3205:3211   */\n  0x00\n    /* \"#utility.yul\":3254:3256   */\n  0x60\n    /* \"#utility.yul\":3242:3251   */\n  dup5\n    /* \"#utility.yul\":3233:3240   */\n  dup7\n    /* \"#utility.yul\":3229:3252   */\n  sub\n    /* \"#utility.yul\":3225:3257   */\n  slt\n    /* \"#utility.yul\":3222:3341   */\n  iszero\n  tag_140\n  jumpi\n    /* \"#utility.yul\":3260:3339   */\n  tag_141\n  tag_59\n  jump\t// in\ntag_141:\n    /* \"#utility.yul\":3222:3341   */\ntag_140:\n    /* \"#utility.yul\":3401:3402   */\n  0x00\n    /* \"#utility.yul\":3390:3399   */\n  dup5\n    /* \"#utility.yul\":3386:3403   */\n  add\n    /* \"#utility.yul\":3380:3404   */\n  mload\n    /* \"#utility.yul\":3431:3449   */\n  0xffffffffffffffff\n    /* \"#utility.yul\":3423:3429   */\n  dup2\n    /* \"#utility.yul\":3420:3450   */\n  gt\n    /* \"#utility.yul\":3417:3534   */\n  iszero\n  tag_142\n  jumpi\n    /* \"#utility.yul\":3453:3532   */\n  tag_143\n  tag_60\n  jump\t// in\ntag_143:\n    /* \"#utility.yul\":3417:3534   */\ntag_142:\n    /* \"#utility.yul\":3558:3632   */\n  tag_144\n    /* \"#utility.yul\":3624:3631   */\n  dup7\n    /* \"#utility.yul\":3615:3621   */\n  dup3\n    /* \"#utility.yul\":3604:3613   */\n  dup8\n    /* \"#utility.yul\":3600:3622   */\n  add\n    /* \"#utility.yul\":3558:3632   */\n  tag_70\n  jump\t// in\ntag_144:\n    /* \"#utility.yul\":3548:3632   */\n  swap4\n  pop\n    /* \"#utility.yul\":3351:3642   */\n  pop\n    /* \"#utility.yul\":3702:3704   */\n  0x20\n    /* \"#utility.yul\":3691:3700   */\n  dup5\n    /* \"#utility.yul\":3687:3705   */\n  add\n    /* \"#utility.yul\":3681:3706   */\n  mload\n    /* \"#utility.yul\":3733:3751   */\n  0xffffffffffffffff\n    /* \"#utility.yul\":3725:3731   */\n  dup2\n    /* \"#utility.yul\":3722:3752   */\n  gt\n    /* \"#utility.yul\":3719:3836   */\n  iszero\n  tag_145\n  jumpi\n    /* \"#utility.yul\":3755:3834   */\n  tag_146\n  tag_60\n  jump\t// in\ntag_146:\n    /* \"#utility.yul\":3719:3836   */\ntag_145:\n    /* \"#utility.yul\":3860:3934   */\n  tag_147\n    /* \"#utility.yul\":3926:3933   */\n  dup7\n    /* \"#utility.yul\":3917:3923   */\n  dup3\n    /* \"#utility.yul\":3906:3915   */\n  dup8\n    /* \"#utility.yul\":3902:3924   */\n  add\n    /* \"#utility.yul\":3860:3934   */\n  tag_70\n  jump\t// in\ntag_147:\n    /* \"#utility.yul\":3850:3934   */\n  swap3\n  pop\n    /* \"#utility.yul\":3652:3944   */\n  pop\n    /* \"#utility.yul\":3983:3985   */\n  0x40\n    /* \"#utility.yul\":4009:4073   */\n  tag_148\n    /* \"#utility.yul\":4065:4072   */\n  dup7\n    /* \"#utility.yul\":4056:4062   */\n  dup3\n    /* \"#utility.yul\":4045:4054   */\n  dup8\n    /* \"#utility.yul\":4041:4063   */\n  add\n    /* \"#utility.yul\":4009:4073   */\n  tag_74\n  jump\t// in\ntag_148:\n    /* \"#utility.yul\":3999:4073   */\n  swap2\n  pop\n    /* \"#utility.yul\":3954:4083   */\n  pop\n    /* \"#utility.yul\":3081:4090   */\n  swap3\n  pop\n  swap3\n  pop\n  swap3\n  jump\t// out\n    /* \"#utility.yul\":4096:4195   */\ntag_75:\n    /* \"#utility.yul\":4148:4154   */\n  0x00\n    /* \"#utility.yul\":4182:4187   */\n  dup2\n    /* \"#utility.yul\":4176:4188   */\n  mload\n    /* \"#utility.yul\":4166:4188   */\n  swap1\n  pop\n    /* \"#utility.yul\":4096:4195   */\n  swap2\n  swap1\n  pop\n  jump\t// out\n    /* \"#utility.yul\":4201:4381   */\ntag_76:\n    /* \"#utility.yul\":4249:4326   */\n  0x4e487b7100000000000000000000000000000000000000000000000000000000\n    /* \"#utility.yul\":4246:4247   */\n  0x00\n    /* \"#utility.yul\":4239:4327   */\n  mstore\n    /* \"#utility.yul\":4346:4350   */\n  0x22\n    /* \"#utility.yul\":4343:4344   */\n  0x04\n    /* \"#utility.yul\":4336:4351   */\n  mstore\n    /* \"#utility.yul\":4370:4374   */\n  0x24\n    /* \"#utility.yul\":4367:4368   */\n  0x00\n    /* \"#utility.yul\":4360:4375   */\n  revert\n    /* \"#utility.yul\":4387:4707   */\ntag_77:\n    /* \"#utility.yul\":4431:4437   */\n  0x00\n    /* \"#utility.yul\":4468:4469   */\n  0x02\n    /* \"#utility.yul\":4462:4466   */\n  dup3\n    /* \"#utility.yul\":4458:4470   */\n  div\n    /* \"#utility.yul\":4448:4470   */\n  swap1\n  pop\n    /* \"#utility.yul\":4515:4516   */\n  0x01\n    /* \"#utility.yul\":4509:4513   */\n  dup3\n    /* \"#utility.yul\":4505:4517   */\n  and\n    /* \"#utility.yul\":4536:4554   */\n  dup1\n    /* \"#utility.yul\":4526:4607   */\n  tag_152\n  jumpi\n    /* \"#utility.yul\":4592:4596   */\n  0x7f\n    /* \"#utility.yul\":4584:4590   */\n  dup3\n    /* \"#utility.yul\":4580:4597   */\n  and\n    /* \"#utility.yul\":4570:4597   */\n  swap2\n  pop\n    /* \"#utility.yul\":4526:4607   */\ntag_152:\n    /* \"#utility.yul\":4654:4656   */\n  0x20\n    /* \"#utility.yul\":4646:4652   */\n  dup3\n    /* \"#utility.yul\":4643:4657   */\n  lt\n    /* \"#utility.yul\":4623:4641   */\n  dup2\n    /* \"#utility.yul\":4620:4658   */\n  sub\n    /* \"#utility.yul\":4617:4701   */\n  tag_153\n  jumpi\n    /* \"#utility.yul\":4673:4691   */\n  tag_154\n  tag_76\n  jump\t// in\ntag_154:\n    /* \"#utility.yul\":4617:4701   */\ntag_153:\n    /* \"#utility.yul\":4438:4707   */\n  pop\n    /* \"#utility.yul\":4387:4707   */\n  swap2\n  swap1\n  pop\n  jump\t// out\n    /* \"#utility.yul\":4713:4854   */\ntag_78:\n    /* \"#utility.yul\":4762:4766   */\n  0x00\n    /* \"#utility.yul\":4785:4788   */\n  dup2\n    /* \"#utility.yul\":4777:4788   */\n  swap1\n  pop\n    /* \"#utility.yul\":4808:4811   */\n  dup2\n    /* \"#utility.yul\":4805:4806   */\n  0x00\n    /* \"#utility.yul\":4798:4812   */\n  mstore\n    /* \"#utility.yul\":4842:4846   */\n  0x20\n    /* \"#utility.yul\":4839:4840   */\n  0x00\n    /* \"#utility.yul\":4829:4847   */\n  keccak256\n    /* \"#utility.yul\":4821:4847   */\n  swap1\n  pop\n    /* \"#utility.yul\":4713:4854   */\n  swap2\n  swap1\n  pop\n  jump\t// out\n    /* \"#utility.yul\":4860:4953   */\ntag_79:\n    /* \"#utility.yul\":4897:4903   */\n  0x00\n    /* \"#utility.yul\":4944:4946   */\n  0x20\n    /* \"#utility.yul\":4939:4941   */\n  0x1f\n    /* \"#utility.yul\":4932:4937   */\n  dup4\n    /* \"#utility.yul\":4928:4942   */\n  add\n    /* \"#utility.yul\":4924:4947   */\n  div\n    /* \"#utility.yul\":4914:4947   */\n  swap1\n  pop\n    /* \"#utility.yul\":4860:4953   */\n  swap2\n  swap1\n  pop\n  jump\t// out\n    /* \"#utility.yul\":4959:5066   */\ntag_80:\n    /* \"#utility.yul\":5003:5011   */\n  0x00\n    /* \"#utility.yul\":5053:5058   */\n  dup3\n    /* \"#utility.yul\":5047:5051   */\n  dup3\n    /* \"#utility.yul\":5043:5059   */\n  shl\n    /* \"#utility.yul\":5022:5059   */\n  swap1\n  pop\n    /* \"#utility.yul\":4959:5066   */\n  swap3\n  swap2\n  pop\n  pop\n  jump\t// out\n    /* \"#utility.yul\":5072:5465   */\ntag_81:\n    /* \"#utility.yul\":5141:5147   */\n  0x00\n    /* \"#utility.yul\":5191:5192   */\n  0x08\n    /* \"#utility.yul\":5179:5189   */\n  dup4\n    /* \"#utility.yul\":5175:5193   */\n  mul\n    /* \"#utility.yul\":5214:5311   */\n  tag_159\n    /* \"#utility.yul\":5244:5310   */\n  0xffffffffffffffffffffffffffffffffffffffffffffffffffffffffffffffff\n    /* \"#utility.yul\":5233:5242   */\n  dup3\n    /* \"#utility.yul\":5214:5311   */\n  tag_80\n  jump\t// in\ntag_159:\n    /* \"#utility.yul\":5332:5371   */\n  tag_160\n    /* \"#utility.yul\":5362:5370   */\n  dup7\n    /* \"#utility.yul\":5351:5360   */\n  dup4\n    /* \"#utility.yul\":5332:5371   */\n  tag_80\n  jump\t// in\ntag_160:\n    /* \"#utility.yul\":5320:5371   */\n  swap6\n  pop\n    /* \"#utility.yul\":5404:5408   */\n  dup1\n    /* \"#utility.yul\":5400:5409   */\n  not\n    /* \"#utility.yul\":5393:5398   */\n  dup5\n    /* \"#utility.yul\":5389:5410   */\n  and\n    /* \"#utility.yul\":5380:5410   */\n  swap4\n  pop\n    /* \"#utility.yul\":5453:5457   */\n  dup1\n    /* \"#utility.yul\":5443:5451   */\n  dup7\n    /* \"#utility.yul\":5439:5458   */\n  and\n    /* \"#utility.yul\":5432:5437   */\n  dup5\n    /* \"#utility.yul\":5429:5459   */\n  or\n    /* \"#utility.yul\":5419:5459   */\n  swap3\n  pop\n    /* \"#utility.yul\":5148:5465   */\n  pop\n  pop\n    /* \"#utility.yul\":5072:5465   */\n  swap4\n  swap3\n  pop\n  pop\n  pop\n  jump\t// out\n    /* \"#utility.yul\":5471:5548   */\ntag_82:\n    /* \"#utility.yul\":5508:5515   */\n  0x00\n    /* \"#utility.yul\":5537:5542   */\n  dup2\n    /* \"#utility.yul\":5526:5542   */\n  swap1\n  pop\n    /* \"#utility.yul\":5471:5548   */\n  swap2\n  swap1\n  pop\n  jump\t// out\n    /* \"#utility.yul\":5554:5614   */\ntag_83:\n    /* \"#utility.yul\":5582:5585   */\n  0x00\n    /* \"#utility.yul\":5603:5608   */\n  dup2\n    /* \"#utility.yul\":5596:5608   */\n  swap1\n  pop\n    /* \"#utility.yul\":5554:5614   */\n  swap2\n  swap1\n  pop\n  jump\t// out\n    /* \"#utility.yul\":5620:5762   */\ntag_84:\n    /* \"#utility.yul\":5670:5679   */\n  0x00\n    /* \"#utility.yul\":5703:5756   */\n  tag_164\n    /* \"#utility.yul\":5721:5755   */\n  tag_165\n    /* \"#utility.yul\":5730:5754   */\n  tag_166\n    /* \"#utility.yul\":5748:5753   */\n  dup5\n    /* \"#utility.yul\":5730:5754   */\n  tag_82\n  jump\t// in\ntag_166:\n    /* \"#utility.yul\":5721:5755   */\n  tag_83\n  jump\t// in\ntag_165:\n    /* \"#utility.yul\":5703:5756   */\n  tag_82\n  jump\t// in\ntag_164:\n    /* \"#utility.yul\":5690:5756   */\n  swap1\n  pop\n    /* \"#utility.yul\":5620:5762   */\n  swap2\n  swap1\n  pop\n  jump\t// out\n    /* \"#utility.yul\":5768:5843   */\ntag_85:\n    /* \"#utility.yul\":5811:5814   */\n  0x00\n    /* \"#utility.yul\":5832:5837   */\n  dup2\n    /* \"#utility.yul\":5825:5837   */\n  swap1\n  pop\n    /* \"#utility.yul\":5768:5843   */\n  swap2\n  swap1\n  pop\n  jump\t// out\n    /* \"#utility.yul\":5849:6118   */\ntag_86:\n    /* \"#utility.yul\":5959:5998   */\n  tag_169\n    /* \"#utility.yul\":5990:5997   */\n  dup4\n    /* \"#utility.yul\":5959:5998   */\n  tag_84\n  jump\t// in\ntag_169:\n    /* \"#utility.yul\":6020:6111   */\n  tag_170\n    /* \"#utility.yul\":6069:6110   */\n  tag_171\n    /* \"#utility.yul\":6093:6109   */\n  dup3\n    /* \"#utility.yul\":6069:6110   */\n  tag_85\n  jump\t// in\ntag_171:\n    /* \"#utility.yul\":6061:6067   */\n  dup5\n    /* \"#utility.yul\":6054:6058   */\n  dup5\n    /* \"#utility.yul\":6048:6059   */\n  sload\n    /* \"#utility.yul\":6020:6111   */\n  tag_81\n  jump\t// in\ntag_170:\n    /* \"#utility.yul\":6014:6018   */\n  dup3\n    /* \"#utility.yul\":6007:6112   */\n  sstore\n    /* \"#utility.yul\":5925:6118   */\n  pop\n    /* \"#utility.yul\":5849:6118   */\n  pop\n  pop\n  pop\n  jump\t// out\n    /* \"#utility.yul\":6124:6197   */\ntag_87:\n    /* \"#utility.yul\":6169:6172   */\n  0x00\n    /* \"#utility.yul\":6190:6191   */\n  0x00\n    /* \"#utility.yul\":6183:6191   */\n  swap1\n  pop\n    /* \"#utility.yul\":6124:6197   */\n  swap1\n  jump\t// out\n    /* \"#utility.yul\":6203:6392   */\ntag_88:\n    /* \"#utility.yul\":6280:6312   */\n  tag_174\n  tag_87\n  jump\t// in\ntag_174:\n    /* \"#utility.yul\":6321:6386   */\n  tag_175\n    /* \"#utility.yul\":6379:6385   */\n  dup2\n    /* \"#utility.yul\":6371:6377   */\n  dup5\n    /* \"#utility.yul\":6365:6369   */\n  dup5\n    /* \"#utility.yul\":6321:6386   */\n  tag_86\n  jump\t// in\ntag_175:\n    /* \"#utility.yul\":6256:6392   */\n  pop\n    /* \"#utility.yul\":6203:6392   */\n  pop\n  pop\n  jump\t// out\n    /* \"#utility.yul\":6398:6584   */\ntag_89:\n    /* \"#utility.yul\":6458:6578   */\ntag_177:\n    /* \"#utility.yul\":6475:6478   */\n  dup2\n    /* \"#utility.yul\":6468:6473   */\n  dup2\n    /* \"#utility.yul\":6465:6479   */\n  lt\n    /* \"#utility.yul\":6458:6578   */\n  iszero\n  tag_179\n  jumpi\n    /* \"#utility.yul\":6529:6568   */\n  tag_180\n    /* \"#utility.yul\":6566:6567   */\n  0x00\n    /* \"#utility.yul\":6559:6564   */\n  dup3\n    /* \"#utility.yul\":6529:6568   */\n  tag_88\n  jump\t// in\ntag_180:\n    /* \"#utility.yul\":6502:6503   */\n  0x01\n    /* \"#utility.yul\":6495:6500   */\n  dup2\n    /* \"#utility.yul\":6491:6504   */\n  add\n    /* \"#utility.yul\":6482:6504   */\n  swap1\n  pop\n    /* \"#utility.yul\":6458:6578   */\n  jump(tag_177)\ntag_179:\n    /* \"#utility.yul\":6398:6584   */\n  pop\n  pop\n  jump\t// out\n    /* \"#utility.yul\":6590:7133   */\ntag_90:\n    /* \"#utility.yul\":6691:6693   */\n  0x1f\n    /* \"#utility.yul\":6686:6689   */\n  dup3\n    /* \"#utility.yul\":6683:6694   */\n  gt\n    /* \"#utility.yul\":6680:7126   */\n  iszero\n  tag_182\n  jumpi\n    /* \"#utility.yul\":6725:6763   */\n  tag_183\n    /* \"#utility.yul\":6757:6762   */\n  dup2\n    /* \"#utility.yul\":6725:6763   */\n  tag_78\n  jump\t// in\ntag_183:\n    /* \"#utility.yul\":6809:6838   */\n  tag_184\n    /* \"#utility.yul\":6827:6837   */\n  dup5\n    /* \"#utility.yul\":6809:6838   */\n  tag_79\n  jump\t// in\ntag_184:\n    /* \"#utility.yul\":6799:6807   */\n  dup2\n    /* \"#utility.yul\":6795:6839   */\n  add\n    /* \"#utility.yul\":6992:6994   */\n  0x20\n    /* \"#utility.yul\":6980:6990   */\n  dup6\n    /* \"#utility.yul\":6977:6995   */\n  lt\n    /* \"#utility.yul\":6974:7023   */\n  iszero\n  tag_185\n  jumpi\n    /* \"#utility.yul\":7013:7021   */\n  dup2\n    /* \"#utility.yul\":6998:7021   */\n  swap1\n  pop\n    /* \"#utility.yul\":6974:7023   */\ntag_185:\n    /* \"#utility.yul\":7036:7116   */\n  tag_186\n    /* \"#utility.yul\":7092:7114   */\n  tag_187\n    /* \"#utility.yul\":7110:7113   */\n  dup6\n    /* \"#utility.yul\":7092:7114   */\n  tag_79\n  jump\t// in\ntag_187:\n    /* \"#utility.yul\":7082:7090   */\n  dup4\n    /* \"#utility.yul\":7078:7115   */\n  add\n    /* \"#utility.yul\":7065:7076   */\n  dup3\n    /* \"#utility.yul\":7036:7116   */\n  tag_89\n  jump\t// in\ntag_186:\n    /* \"#utility.yul\":6695:7126   */\n  pop\n  pop\n    /* \"#utility.yul\":6680:7126   */\ntag_182:\n    /* \"#utility.yul\":6590:7133   */\n  pop\n  pop\n  pop\n  jump\t// out\n    /* \"#utility.yul\":7139:7256   */\ntag_91:\n    /* \"#utility.yul\":7193:7201   */\n  0x00\n    /* \"#utility.yul\":7243:7248   */\n  dup3\n    /* \"#utility.yul\":7237:7241   */\n  dup3\n    /* \"#utility.yul\":7233:7249   */\n  shr\n    /* \"#utility.yul\":7212:7249   */\n  swap1\n  pop\n    /* \"#utility.yul\":7139:7256   */\n  swap3\n  swap2\n  pop\n  pop\n  jump\t// out\n    /* \"#utility.yul\":7262:7431   */\ntag_92:\n    /* \"#utility.yul\":7306:7312   */\n  0x00\n    /* \"#utility.yul\":7339:7390   */\n  tag_190\n    /* \"#utility.yul\":7387:7388   */\n  0x00\n    /* \"#utility.yul\":7383:7389   */\n  not\n    /* \"#utility.yul\":7375:7380   */\n  dup5\n    /* \"#utility.yul\":7372:7373   */\n  0x08\n    /* \"#utility.yul\":7368:7381   */\n  mul\n    /* \"#utility.yul\":7339:7390   */\n  tag_91\n  jump\t// in\ntag_190:\n    /* \"#utility.yul\":7335:7391   */\n  not\n    /* \"#utility.yul\":7420:7424   */\n  dup1\n    /* \"#utility.yul\":7414:7418   */\n  dup4\n    /* \"#utility.yul\":7410:7425   */\n  and\n    /* \"#utility.yul\":7400:7425   */\n  swap2\n  pop\n    /* \"#utility.yul\":7313:7431   */\n  pop\n    /* \"#utility.yul\":7262:7431   */\n  swap3\n  swap2\n  pop\n  pop\n  jump\t// out\n    /* \"#utility.yul\":7436:7731   */\ntag_93:\n    /* \"#utility.yul\":7512:7516   */\n  0x00\n    /* \"#utility.yul\":7658:7687   */\n  tag_192\n    /* \"#utility.yul\":7683:7686   */\n  dup4\n    /* \"#utility.yul\":7677:7681   */\n  dup4\n    /* \"#utility.yul\":7658:7687   */\n  tag_92\n  jump\t// in\ntag_192:\n    /* \"#utility.yul\":7650:7687   */\n  swap2\n  pop\n    /* \"#utility.yul\":7720:7723   */\n  dup3\n    /* \"#utility.yul\":7717:7718   */\n  0x02\n    /* \"#utility.yul\":7713:7724   */\n  mul\n    /* \"#utility.yul\":7707:7711   */\n  dup3\n    /* \"#utility.yul\":7704:7725   */\n  or\n    /* \"#utility.yul\":7696:7725   */\n  swap1\n  pop\n    /* \"#utility.yul\":7436:7731   */\n  swap3\n  swap2\n  pop\n  pop\n  jump\t// out\n    /* \"#utility.yul\":7736:9131   */\ntag_9:\n    /* \"#utility.yul\":7853:7890   */\n  tag_194\n    /* \"#utility.yul\":7886:7889   */\n  dup3\n    /* \"#utility.yul\":7853:7890   */\n  tag_75\n  jump\t// in\ntag_194:\n    /* \"#utility.yul\":7955:7973   */\n  0xffffffffffffffff\n    /* \"#utility.yul\":7947:7953   */\n  dup2\n    /* \"#utility.yul\":7944:7974   */\n  gt\n    /* \"#utility.yul\":7941:7997   */\n  iszero\n  tag_195\n  jumpi\n    /* \"#utility.yul\":7977:7995   */\n  tag_196\n  tag_64\n  jump\t// in\ntag_196:\n    /* \"#utility.yul\":7941:7997   */\ntag_195:\n    /* \"#utility.yul\":8021:8059   */\n  tag_197\n    /* \"#utility.yul\":8053:8057   */\n  dup3\n    /* \"#utility.yul\":8047:8058   */\n  sload\n    /* \"#utility.yul\":8021:8059   */\n  tag_77\n  jump\t// in\ntag_197:\n    /* \"#utility.yul\":8106:8173   */\n  tag_198\n    /* \"#utility.yul\":8166:8172   */\n  dup3\n    /* \"#utility.yul\":8158:8164   */\n  dup3\n    /* \"#utility.yul\":8152:8156   */\n  dup6\n    /* \"#utility.yul\":8106:8173   */\n  tag_90\n  jump\t// in\ntag_198:\n    /* \"#utility.yul\":8200:8201   */\n  0x00\n    /* \"#utility.yul\":8224:8228   */\n  0x20\n    /* \"#utility.yul\":8211:8228   */\n  swap1\n  pop\n    /* \"#utility.yul\":8256:8258   */\n  0x1f\n    /* \"#utility.yul\":8248:8254   */\n  dup4\n    /* \"#utility.yul\":8245:8259   */\n  gt\n    /* \"#utility.yul\":8273:8274   */\n  0x01\n    /* \"#utility.yul\":8268:8886   */\n  dup2\n  eq\n  tag_200\n  jumpi\n    /* \"#utility.yul\":8930:8931   */\n  0x00\n    /* \"#utility.yul\":8947:8953   */\n  dup5\n    /* \"#utility.yul\":8944:9021   */\n  iszero\n  tag_201\n  jumpi\n    /* \"#utility.yul\":8996:9005   */\n  dup3\n    /* \"#utility.yul\":8991:8994   */\n  dup8\n    /* \"#utility.yul\":8987:9006   */\n  add\n    /* \"#utility.yul\":8981:9007   */\n  mload\n    /* \"#utility.yul\":8972:9007   */\n  swap1\n  pop\n    /* \"#utility.yul\":8944:9021   */\ntag_201:\n    /* \"#utility.yul\":9047:9114   */\n  tag_202\n    /* \"#utility.yul\":9107:9113   */\n  dup6\n    /* \"#utility.yul\":9100:9105   */\n  dup3\n    /* \"#utility.yul\":9047:9114   */\n  tag_93\n  jump\t// in\ntag_202:\n    /* \"#utility.yul\":9041:9045   */\n  dup7\n    /* \"#utility.yul\":9034:9115   */\n  sstore\n    /* \"#utility.yul\":8903:9125   */\n  pop\n    /* \"#utility.yul\":8238:9125   */\n  jump(tag_199)\n    /* \"#utility.yul\":8268:8886   */\ntag_200:\n    /* \"#utility.yul\":8320:8324   */\n  0x1f\n    /* \"#utility.yul\":8316:8325   */\n  not\n    /* \"#utility.yul\":8308:8314   */\n  dup5\n    /* \"#utility.yul\":8304:8326   */\n  and\n    /* \"#utility.yul\":8354:8391   */\n  tag_203\n    /* \"#utility.yul\":8386:8390   */\n  dup7\n    /* \"#utility.yul\":8354:8391   */\n  tag_78\n  jump\t// in\ntag_203:\n    /* \"#utility.yul\":8413:8414   */\n  0x00\n    /* \"#utility.yul\":8427:8635   */\ntag_204:\n    /* \"#utility.yul\":8441:8448   */\n  dup3\n    /* \"#utility.yul\":8438:8439   */\n  dup2\n    /* \"#utility.yul\":8435:8449   */\n  lt\n    /* \"#utility.yul\":8427:8635   */\n  iszero\n  tag_206\n  jumpi\n    /* \"#utility.yul\":8520:8529   */\n  dup5\n    /* \"#utility.yul\":8515:8518   */\n  dup10\n    /* \"#utility.yul\":8511:8530   */\n  add\n    /* \"#utility.yul\":8505:8531   */\n  mload\n    /* \"#utility.yul\":8497:8503   */\n  dup3\n    /* \"#utility.yul\":8490:8532   */\n  sstore\n    /* \"#utility.yul\":8571:8572   */\n  0x01\n    /* \"#utility.yul\":8563:8569   */\n  dup3\n    /* \"#utility.yul\":8559:8573   */\n  add\n    /* \"#utility.yul\":8549:8573   */\n  swap2\n  pop\n    /* \"#utility.yul\":8618:8620   */\n  0x20\n    /* \"#utility.yul\":8607:8616   */\n  dup6\n    /* \"#utility.yul\":8603:8621   */\n  add\n    /* \"#utility.yul\":8590:8621   */\n  swap5\n  pop\n    /* \"#utility.yul\":8464:8468   */\n  0x20\n    /* \"#utility.yul\":8461:8462   */\n  dup2\n    /* \"#utility.yul\":8457:8469   */\n  add\n    /* \"#utility.yul\":8452:8469   */\n  swap1\n  pop\n    /* \"#utility.yul\":8427:8635   */\n  jump(tag_204)\ntag_206:\n    /* \"#utility.yul\":8663:8669   */\n  dup7\n    /* \"#utility.yul\":8654:8661   */\n  dup4\n    /* \"#utility.yul\":8651:8670   */\n  lt\n    /* \"#utility.yul\":8648:8827   */\n  iszero\n  tag_207\n  jumpi\n    /* \"#utility.yul\":8721:8730   */\n  dup5\n    /* \"#utility.yul\":8716:8719   */\n  dup10\n    /* \"#utility.yul\":8712:8731   */\n  add\n    /* \"#utility.yul\":8706:8732   */\n  mload\n    /* \"#utility.yul\":8764:8812   */\n  tag_208\n    /* \"#utility.yul\":8806:8810   */\n  0x1f\n    /* \"#utility.yul\":8798:8804   */\n  dup10\n    /* \"#utility.yul\":8794:8811   */\n  and\n    /* \"#utility.yul\":8783:8792   */\n  dup3\n    /* \"#utility.yul\":8764:8812   */\n  tag_92\n  jump\t// in\ntag_208:\n    /* \"#utility.yul\":8756:8762   */\n  dup4\n    /* \"#utility.yul\":8749:8813   */\n  sstore\n    /* \"#utility.yul\":8671:8827   */\n  pop\n    /* \"#utility.yul\":8648:8827   */\ntag_207:\n    /* \"#utility.yul\":8873:8874   */\n  0x01\n    /* \"#utility.yul\":8869:8870   */\n  0x02\n    /* \"#utility.yul\":8861:8867   */\n  dup9\n    /* \"#utility.yul\":8857:8871   */\n  mul\n    /* \"#utility.yul\":8853:8875   */\n  add\n    /* \"#utility.yul\":8847:8851   */\n  dup9\n    /* \"#utility.yul\":8840:8876   */\n  sstore\n    /* \"#utility.yul\":8275:8886   */\n  pop\n  pop\n  pop\n    /* \"#utility.yul\":8238:9125   */\ntag_199:\n  pop\n    /* \"#utility.yul\":7828:9131   */\n  pop\n  pop\n  pop\n    /* \"#utility.yul\":7736:9131   */\n  pop\n  pop\n  jump\t// out\n    /* \"#utility.yul\":9137:9255   */\ntag_94:\n    /* \"#utility.yul\":9224:9248   */\n  tag_210\n    /* \"#utility.yul\":9242:9247   */\n  dup2\n    /* \"#utility.yul\":9224:9248   */\n  tag_72\n  jump\t// in\ntag_210:\n    /* \"#utility.yul\":9219:9222   */\n  dup3\n    /* \"#utility.yul\":9212:9249   */\n  mstore\n    /* \"#utility.yul\":9137:9255   */\n  pop\n  pop\n  jump\t// out\n    /* \"#utility.yul\":9261:9483   */\ntag_14:\n    /* \"#utility.yul\":9354:9358   */\n  0x00\n    /* \"#utility.yul\":9392:9394   */\n  0x20\n    /* \"#utility.yul\":9381:9390   */\n  dup3\n    /* \"#utility.yul\":9377:9395   */\n  add\n    /* \"#utility.yul\":9369:9395   */\n  swap1\n  pop\n    /* \"#utility.yul\":9405:9476   */\n  tag_212\n    /* \"#utility.yul\":9473:9474   */\n  0x00\n    /* \"#utility.yul\":9462:9471   */\n  dup4\n    /* \"#utility.yul\":9458:9475   */\n  add\n    /* \"#utility.yul\":9449:9455   */\n  dup5\n    /* \"#utility.yul\":9405:9476   */\n  tag_94\n  jump\t// in\ntag_212:\n    /* \"#utility.yul\":9261:9483   */\n  swap3\n  swap2\n  pop\n  pop\n  jump\t// out\n    /* \"#utility.yul\":9489:9840   */\ntag_21:\n    /* \"#utility.yul\":9559:9565   */\n  0x00\n    /* \"#utility.yul\":9608:9610   */\n  0x20\n    /* \"#utility.yul\":9596:9605   */\n  dup3\n    /* \"#utility.yul\":9587:9594   */\n  dup5\n    /* \"#utility.yul\":9583:9606   */\n  sub\n    /* \"#utility.yul\":9579:9611   */\n  slt\n    /* \"#utility.yul\":9576:9695   */\n  iszero\n  tag_214\n  jumpi\n    /* \"#utility.yul\":9614:9693   */\n  tag_215\n  tag_59\n  jump\t// in\ntag_215:\n    /* \"#utility.yul\":9576:9695   */\ntag_214:\n    /* \"#utility.yul\":9734:9735   */\n  0x00\n    /* \"#utility.yul\":9759:9823   */\n  tag_216\n    /* \"#utility.yul\":9815:9822   */\n  dup5\n    /* \"#utility.yul\":9806:9812   */\n  dup3\n    /* \"#utility.yul\":9795:9804   */\n  dup6\n    /* \"#utility.yul\":9791:9813   */\n  add\n    /* \"#utility.yul\":9759:9823   */\n  tag_74\n  jump\t// in\ntag_216:\n    /* \"#utility.yul\":9749:9823   */\n  swap2\n  pop\n    /* \"#utility.yul\":9705:9833   */\n  pop\n    /* \"#utility.yul\":9489:9840   */\n  swap3\n  swap2\n  pop\n  pop\n  jump\t// out\n    /* \"#utility.yul\":9846:10178   */\ntag_26:\n    /* \"#utility.yul\":9967:9971   */\n  0x00\n    /* \"#utility.yul\":10005:10007   */\n  0x40\n    /* \"#utility.yul\":9994:10003   */\n  dup3\n    /* \"#utility.yul\":9990:10008   */\n  add\n    /* \"#utility.yul\":9982:10008   */\n  swap1\n  pop\n    /* \"#utility.yul\":10018:10089   */\n  tag_218\n    /* \"#utility.yul\":10086:10087   */\n  0x00\n    /* \"#utility.yul\":10075:10084   */\n  dup4\n    /* \"#utility.yul\":10071:10088   */\n  add\n    /* \"#utility.yul\":10062:10068   */\n  dup6\n    /* \"#utility.yul\":10018:10089   */\n  tag_94\n  jump\t// in\ntag_218:\n    /* \"#utility.yul\":10099:10171   */\n  tag_219\n    /* \"#utility.yul\":10167:10169   */\n  0x20\n    /* \"#utility.yul\":10156:10165   */\n  dup4\n    /* \"#utility.yul\":10152:10170   */\n  add\n    /* \"#utility.yul\":10143:10149   */\n  dup5\n    /* \"#utility.yul\":10099:10171   */\n  tag_94\n  jump\t// in\ntag_219:\n    /* \"#utility.yul\":9846:10178   */\n  swap4\n  swap3\n  pop\n  pop\n  pop\n  jump\t// out\n    /* \"#utility.yul\":10184:10364   */\ntag_95:\n    /* \"#utility.yul\":10232:10309   */\n  0x4e487b7100000000000000000000000000000000000000000000000000000000\n    /* \"#utility.yul\":10229:10230   */\n  0x00\n    /* \"#utility.yul\":10222:10310   */\n  mstore\n    /* \"#utility.yul\":10329:10333   */\n  0x11\n    /* \"#utility.yul\":10326:10327   */\n  0x04\n    /* \"#utility.yul\":10319:10334   */\n  mstore\n    /* \"#utility.yul\":10353:10357   */\n  0x24\n    /* \"#utility.yul\":10350:10351   */\n  0x00\n    /* \"#utility.yul\":10343:10358   */\n  revert\n    /* \"#utility.yul\":10370:10472   */\ntag_96:\n    /* \"#utility.yul\":10412:10420   */\n  0x00\n    /* \"#utility.yul\":10459:10464   */\n  dup2\n    /* \"#utility.yul\":10456:10457   */\n  0x01\n    /* \"#utility.yul\":10452:10465   */\n  shr\n    /* \"#utility.yul\":10431:10465   */\n  swap1\n  pop\n    /* \"#utility.yul\":10370:10472   */\n  swap2\n  swap1\n  pop\n  jump\t// out\n    /* \"#utility.yul\":10478:11326   */\ntag_97:\n    /* \"#utility.yul\":10539:10544   */\n  0x00\n    /* \"#utility.yul\":10546:10550   */\n  0x00\n    /* \"#utility.yul\":10570:10576   */\n  dup3\n    /* \"#utility.yul\":10561:10576   */\n  swap2\n  pop\n    /* \"#utility.yul\":10594:10599   */\n  dup4\n    /* \"#utility.yul\":10585:10599   */\n  swap1\n  pop\n    /* \"#utility.yul\":10608:11320   */\ntag_223:\n    /* \"#utility.yul\":10629:10630   */\n  0x01\n    /* \"#utility.yul\":10619:10627   */\n  dup6\n    /* \"#utility.yul\":10616:10631   */\n  gt\n    /* \"#utility.yul\":10608:11320   */\n  iszero\n  tag_225\n  jumpi\n    /* \"#utility.yul\":10724:10728   */\n  dup1\n    /* \"#utility.yul\":10719:10722   */\n  dup7\n    /* \"#utility.yul\":10715:10729   */\n  div\n    /* \"#utility.yul\":10709:10713   */\n  dup2\n    /* \"#utility.yul\":10706:10730   */\n  gt\n    /* \"#utility.yul\":10703:10753   */\n  iszero\n  tag_226\n  jumpi\n    /* \"#utility.yul\":10733:10751   */\n  tag_227\n  tag_95\n  jump\t// in\ntag_227:\n    /* \"#utility.yul\":10703:10753   */\ntag_226:\n    /* \"#utility.yul\":10783:10784   */\n  0x01\n    /* \"#utility.yul\":10773:10781   */\n  dup6\n    /* \"#utility.yul\":10769:10785   */\n  and\n    /* \"#utility.yul\":10766:11217   */\n  iszero\n  tag_228\n  jumpi\n    /* \"#utility.yul\":11198:11202   */\n  dup1\n    /* \"#utility.yul\":11191:11196   */\n  dup3\n    /* \"#utility.yul\":11187:11203   */\n  mul\n    /* \"#utility.yul\":11178:11203   */\n  swap2\n  pop\n    /* \"#utility.yul\":10766:11217   */\ntag_228:\n    /* \"#utility.yul\":11248:11252   */\n  dup1\n    /* \"#utility.yul\":11242:11246   */\n  dup2\n    /* \"#utility.yul\":11238:11253   */\n  mul\n    /* \"#utility.yul\":11230:11253   */\n  swap1\n  pop\n    /* \"#utility.yul\":11278:11310   */\n  tag_229\n    /* \"#utility.yul\":11301:11309   */\n  dup6\n    /* \"#utility.yul\":11278:11310   */\n  tag_96\n  jump\t// in\ntag_229:\n    /* \"#utility.yul\":11266:11310   */\n  swap5\n  pop\n    /* \"#utility.yul\":10608:11320   */\n  jump(tag_223)\ntag_225:\n    /* \"#utility.yul\":10478:11326   */\n  swap5\n  pop\n  swap5\n  swap3\n  pop\n  pop\n  pop\n  jump\t// out\n    /* \"#utility.yul\":11332:12405   */\ntag_98:\n    /* \"#utility.yul\":11386:11391   */\n  0x00\n    /* \"#utility.yul\":11577:11585   */\n  dup3\n    /* \"#utility.yul\":11567:11607   */\n  tag_231\n  jumpi\n    /* \"#utility.yul\":11598:11599   */\n  0x01\n    /* \"#utility.yul\":11589:11599   */\n  swap1\n  pop\n    /* \"#utility.yul\":11600:11605   */\n  jump(tag_230)\n    /* \"#utility.yul\":11567:11607   */\ntag_231:\n    /* \"#utility.yul\":11626:11630   */\n  dup2\n    /* \"#utility.yul\":11616:11652   */\n  tag_232\n  jumpi\n    /* \"#utility.yul\":11643:11644   */\n  0x00\n    /* \"#utility.yul\":11634:11644   */\n  swap1\n  pop\n    /* \"#utility.yul\":11645:11650   */\n  jump(tag_230)\n    /* \"#utility.yul\":11616:11652   */\ntag_232:\n    /* \"#utility.yul\":11712:11716   */\n  dup2\n    /* \"#utility.yul\":11760:11761   */\n  0x01\n    /* \"#utility.yul\":11755:11782   */\n  dup2\n  eq\n  tag_234\n  jumpi\n    /* \"#utility.yul\":11796:11797   */\n  0x02\n    /* \"#utility.yul\":11791:11982   */\n  dup2\n  eq\n  tag_235\n  jumpi\n    /* \"#utility.yul\":11705:11982   */\n  jump(tag_233)\n    /* \"#utility.yul\":11755:11782   */\ntag_234:\n    /* \"#utility.yul\":11773:11774   */\n  0x01\n    /* \"#utility.yul\":11764:11774   */\n  swap2\n  pop\n    /* \"#utility.yul\":11775:11780   */\n  pop\n  jump(tag_230)\n    /* \"#utility.yul\":11791:11982   */\ntag_235:\n    /* \"#utility.yul\":11836:11839   */\n  0xff\n    /* \"#utility.yul\":11826:11834   */\n  dup5\n    /* \"#utility.yul\":11823:11840   */\n  gt\n    /* \"#utility.yul\":11820:11863   */\n  iszero\n  tag_236\n  jumpi\n    /* \"#utility.yul\":11843:11861   */\n  tag_237\n  tag_95\n  jump\t// in\ntag_237:\n    /* \"#utility.yul\":11820:11863   */\ntag_236:\n    /* \"#utility.yul\":11892:11900   */\n  dup4\n    /* \"#utility.yul\":11889:11890   */\n  0x02\n    /* \"#utility.yul\":11885:11901   */\n  exp\n    /* \"#utility.yul\":11876:11901   */\n  swap2\n  pop\n    /* \"#utility.yul\":11927:11930   */\n  dup5\n    /* \"#utility.yul\":11920:11925   */\n  dup3\n    /* \"#utility.yul\":11917:11931   */\n  gt\n    /* \"#utility.yul\":11914:11954   */\n  iszero\n  tag_238\n  jumpi\n    /* \"#utility.yul\":11934:11952   */\n  tag_239\n  tag_95\n  jump\t// in\ntag_239:\n    /* \"#utility.yul\":11914:11954   */\ntag_238:\n    /* \"#utility.yul\":11967:11972   */\n  pop\n  jump(tag_230)\n    /* \"#utility.yul\":11705:11982   */\ntag_233:\n  pop\n    /* \"#utility.yul\":12091:12093   */\n  0x20\n    /* \"#utility.yul\":12081:12089   */\n  dup4\n    /* \"#utility.yul\":12078:12094   */\n  lt\n    /* \"#utility.yul\":12072:12075   */\n  0x0133\n    /* \"#utility.yul\":12066:12070   */\n  dup4\n    /* \"#utility.yul\":12063:12076   */\n  lt\n    /* \"#utility.yul\":12059:12095   */\n  and\n    /* \"#utility.yul\":12041:12043   */\n  0x4e\n    /* \"#utility.yul\":12031:12039   */\n  dup5\n    /* \"#utility.yul\":12028:12044   */\n  lt\n    /* \"#utility.yul\":12023:12025   */\n  0x0b\n    /* \"#utility.yul\":12017:12021   */\n  dup5\n    /* \"#utility.yul\":12014:12026   */\n  lt\n    /* \"#utility.yul\":12010:12045   */\n  and\n    /* \"#utility.yul\":11994:12105   */\n  or\n    /* \"#utility.yul\":11991:12237   */\n  iszero\n  tag_240\n  jumpi\n    /* \"#utility.yul\":12147:12155   */\n  dup3\n    /* \"#utility.yul\":12141:12145   */\n  dup3\n    /* \"#utility.yul\":12137:12156   */\n  exp\n    /* \"#utility.yul\":12128:12156   */\n  swap1\n  pop\n    /* \"#utility.yul\":12182:12185   */\n  dup4\n    /* \"#utility.yul\":12175:12180   */\n  dup2\n    /* \"#utility.yul\":12172:12186   */\n  gt\n    /* \"#utility.yul\":12169:12209   */\n  iszero\n  tag_241\n  jumpi\n    /* \"#utility.yul\":12189:12207   */\n  tag_242\n  tag_95\n  jump\t// in\ntag_242:\n    /* \"#utility.yul\":12169:12209   */\ntag_241:\n    /* \"#utility.yul\":12222:12227   */\n  jump(tag_230)\n    /* \"#utility.yul\":11991:12237   */\ntag_240:\n    /* \"#utility.yul\":12262:12304   */\n  tag_243\n    /* \"#utility.yul\":12300:12303   */\n  dup5\n    /* \"#utility.yul\":12290:12298   */\n  dup5\n    /* \"#utility.yul\":12284:12288   */\n  dup5\n    /* \"#utility.yul\":12281:12282   */\n  0x01\n    /* \"#utility.yul\":12262:12304   */\n  tag_97\n  jump\t// in\ntag_243:\n    /* \"#utility.yul\":12247:12304   */\n  swap3\n  pop\n  swap1\n  pop\n    /* \"#utility.yul\":12336:12340   */\n  dup2\n    /* \"#utility.yul\":12331:12334   */\n  dup5\n    /* \"#utility.yul\":12327:12341   */\n  div\n    /* \"#utility.yul\":12320:12325   */\n  dup2\n    /* \"#utility.yul\":12317:12342   */\n  gt\n    /* \"#utility.yul\":12314:12365   */\n  iszero\n  tag_244\n  jumpi\n    /* \"#utility.yul\":12345:12363   */\n  tag_245\n  tag_95\n  jump\t// in\ntag_245:\n    /* \"#utility.yul\":12314:12365   */\ntag_244:\n    /* \"#utility.yul\":12394:12398   */\n  dup2\n    /* \"#utility.yul\":12387:12392   */\n  dup2\n    /* \"#utility.yul\":12383:12399   */\n  mul\n    /* \"#utility.yul\":12374:12399   */\n  swap1\n  pop\n    /* \"#utility.yul\":11332:12405   */\ntag_230:\n  swap4\n  swap3\n  pop\n  pop\n  pop\n  jump\t// out\n    /* \"#utility.yul\":12411:12497   */\ntag_99:\n    /* \"#utility.yul\":12446:12453   */\n  0x00\n    /* \"#utility.yul\":12486:12490   */\n  0xff\n    /* \"#utility.yul\":12479:12484   */\n  dup3\n    /* \"#utility.yul\":12475:12491   */\n  and\n    /* \"#utility.yul\":12464:12491   */\n  swap1\n  pop\n    /* \"#utility.yul\":12411:12497   */\n  swap2\n  swap1\n  pop\n  jump\t// out\n    /* \"#utility.yul\":12503:12784   */\ntag_34:\n    /* \"#utility.yul\":12561:12566   */\n  0x00\n    /* \"#utility.yul\":12585:12608   */\n  tag_248\n    /* \"#utility.yul\":12603:12607   */\n  dup3\n    /* \"#utility.yul\":12585:12608   */\n  tag_82\n  jump\t// in\ntag_248:\n    /* \"#utility.yul\":12577:12608   */\n  swap2\n  pop\n    /* \"#utility.yul\":12629:12654   */\n  tag_249\n    /* \"#utility.yul\":12645:12653   */\n  dup4\n    /* \"#utility.yul\":12629:12654   */\n  tag_99\n  jump\t// in\ntag_249:\n    /* \"#utility.yul\":12617:12654   */\n  swap3\n  pop\n    /* \"#utility.yul\":12673:12777   */\n  tag_250\n    /* \"#utility.yul\":12710:12776   */\n  0xffffffffffffffffffffffffffffffffffffffffffffffffffffffffffffffff\n    /* \"#utility.yul\":12700:12708   */\n  dup5\n    /* \"#utility.yul\":12694:12698   */\n  dup5\n    /* \"#utility.yul\":12673:12777   */\n  tag_98\n  jump\t// in\ntag_250:\n    /* \"#utility.yul\":12664:12777   */\n  swap1\n  pop\n    /* \"#utility.yul\":12503:12784   */\n  swap3\n  swap2\n  pop\n  pop\n  jump\t// out\n    /* \"#utility.yul\":12790:13200   */\ntag_36:\n    /* \"#utility.yul\":12830:12837   */\n  0x00\n    /* \"#utility.yul\":12853:12873   */\n  tag_252\n    /* \"#utility.yul\":12871:12872   */\n  dup3\n    /* \"#utility.yul\":12853:12873   */\n  tag_82\n  jump\t// in\ntag_252:\n    /* \"#utility.yul\":12848:12873   */\n  swap2\n  pop\n    /* \"#utility.yul\":12887:12907   */\n  tag_253\n    /* \"#utility.yul\":12905:12906   */\n  dup4\n    /* \"#utility.yul\":12887:12907   */\n  tag_82\n  jump\t// in\ntag_253:\n    /* \"#utility.yul\":12882:12907   */\n  swap3\n  pop\n    /* \"#utility.yul\":12942:12943   */\n  dup3\n    /* \"#utility.yul\":12939:12940   */\n  dup3\n    /* \"#utility.yul\":12935:12944   */\n  mul\n    /* \"#utility.yul\":12964:12994   */\n  tag_254\n    /* \"#utility.yul\":12982:12993   */\n  dup2\n    /* \"#utility.yul\":12964:12994   */\n  tag_82\n  jump\t// in\ntag_254:\n    /* \"#utility.yul\":12953:12994   */\n  swap2\n  pop\n    /* \"#utility.yul\":13143:13144   */\n  dup3\n    /* \"#utility.yul\":13134:13141   */\n  dup3\n    /* \"#utility.yul\":13130:13145   */\n  div\n    /* \"#utility.yul\":13127:13128   */\n  dup5\n    /* \"#utility.yul\":13124:13146   */\n  eq\n    /* \"#utility.yul\":13104:13105   */\n  dup4\n    /* \"#utility.yul\":13097:13106   */\n  iszero\n    /* \"#utility.yul\":13077:13160   */\n  or\n    /* \"#utility.yul\":13054:13193   */\n  tag_255\n  jumpi\n    /* \"#utility.yul\":13173:13191   */\n  tag_256\n  tag_95\n  jump\t// in\ntag_256:\n    /* \"#utility.yul\":13054:13193   */\ntag_255:\n    /* \"#utility.yul\":12838:13200   */\n  pop\n    /* \"#utility.yul\":12790:13200   */\n  swap3\n  swap2\n  pop\n  pop\n  jump\t// out\n    /* \"#utility.yul\":13206:13397   */\ntag_49:\n    /* \"#utility.yul\":13246:13249   */\n  0x00\n    /* \"#utility.yul\":13265:13285   */\n  tag_258\n    /* \"#utility.yul\":13283:13284   */\n  dup3\n    /* \"#utility.yul\":13265:13285   */\n  tag_82\n  jump\t// in\ntag_258:\n    /* \"#utility.yul\":13260:13285   */\n  swap2\n  pop\n    /* \"#utility.yul\":13299:13319   */\n  tag_259\n    /* \"#utility.yul\":13317:13318   */\n  dup4\n    /* \"#utility.yul\":13299:13319   */\n  tag_82\n  jump\t// in\ntag_259:\n    /* \"#utility.yul\":13294:13319   */\n  swap3\n  pop\n    /* \"#utility.yul\":13342:13343   */\n  dup3\n    /* \"#utility.yul\":13339:13340   */\n  dup3\n    /* \"#utility.yul\":13335:13344   */\n  add\n    /* \"#utility.yul\":13328:13344   */\n  swap1\n  pop\n    /* \"#utility.yul\":13363:13366   */\n  dup1\n    /* \"#utility.yul\":13360:13361   */\n  dup3\n    /* \"#utility.yul\":13357:13367   */\n  gt\n    /* \"#utility.yul\":13354:13390   */\n  iszero\n  tag_260\n  jumpi\n    /* \"#utility.yul\":13370:13388   */\n  tag_261\n  tag_95\n  jump\t// in\ntag_261:\n    /* \"#utility.yul\":13354:13390   */\ntag_260:\n    /* \"#utility.yul\":13206:13397   */\n  swap3\n  swap2\n  pop\n  pop\n  jump\t// out\n    /* \"#utility.yul\":13403:13521   */\ntag_100:\n    /* \"#utility.yul\":13490:13514   */\n  tag_263\n    /* \"#utility.yul\":13508:13513   */\n  dup2\n    /* \"#utility.yul\":13490:13514   */\n  tag_82\n  jump\t// in\ntag_263:\n    /* \"#utility.yul\":13485:13488   */\n  dup3\n    /* \"#utility.yul\":13478:13515   */\n  mstore\n    /* \"#utility.yul\":13403:13521   */\n  pop\n  pop\n  jump\t// out\n    /* \"#utility.yul\":13527:13969   */\ntag_53:\n    /* \"#utility.yul\":13676:13680   */\n  0x00\n    /* \"#utility.yul\":13714:13716   */\n  0x60\n    /* \"#utility.yul\":13703:13712   */\n  dup3\n    /* \"#utility.yul\":13699:13717   */\n  add\n    /* \"#utility.yul\":13691:13717   */\n  swap1\n  pop\n    /* \"#utility.yul\":13727:13798   */\n  tag_265\n    /* \"#utility.yul\":13795:13796   */\n  0x00\n    /* \"#utility.yul\":13784:13793   */\n  dup4\n    /* \"#utility.yul\":13780:13797   */\n  add\n    /* \"#utility.yul\":13771:13777   */\n  dup7\n    /* \"#utility.yul\":13727:13798   */\n  tag_94\n  jump\t// in\ntag_265:\n    /* \"#utility.yul\":13808:13880   */\n  tag_266\n    /* \"#utility.yul\":13876:13878   */\n  0x20\n    /* \"#utility.yul\":13865:13874   */\n  dup4\n    /* \"#utility.yul\":13861:13879   */\n  add\n    /* \"#utility.yul\":13852:13858   */\n  dup6\n    /* \"#utility.yul\":13808:13880   */\n  tag_100\n  jump\t// in\ntag_266:\n    /* \"#utility.yul\":13890:13962   */\n  tag_267\n    /* \"#utility.yul\":13958:13960   */\n  0x40\n    /* \"#utility.yul\":13947:13956   */\n  dup4\n    /* \"#utility.yul\":13943:13961   */\n  add\n    /* \"#utility.yul\":13934:13940   */\n  dup5\n    /* \"#utility.yul\":13890:13962   */\n  tag_100\n  jump\t// in\ntag_267:\n    /* \"#utility.yul\":13527:13969   */\n  swap5\n  swap4\n  pop\n  pop\n  pop\n  pop\n  jump\t// out\n    /* \"#utility.yul\":13975:14197   */\ntag_57:\n    /* \"#utility.yul\":14068:14072   */\n  0x00\n    /* \"#utility.yul\":14106:14108   */\n  0x20\n    /* \"#utility.yul\":14095:14104   */\n  dup3\n    /* \"#utility.yul\":14091:14109   */\n  add\n    /* \"#utility.yul\":14083:14109   */\n  swap1\n  pop\n    /* \"#utility.yul\":14119:14190   */\n  tag_269\n    /* \"#utility.yul\":14187:14188   */\n  0x00\n    /* \"#utility.yul\":14176:14185   */\n  dup4\n    /* \"#utility.yul\":14172:14189   */\n  add\n    /* \"#utility.yul\":14163:14169   */\n  dup5\n    /* \"#utility.yul\":14119:14190   */\n  tag_100\n  jump\t// in\ntag_269:\n    /* \"#utility.yul\":13975:14197   */\n  swap3\n  swap2\n  pop\n  pop\n  jump\t// out\n    /* \"contracts/mem_flattened.sol\":30633:34249  contract MemCoin is ERC20, Ownable {... */\ntag_38:\n  dataSize(sub_0)\n  dup1\n  dataOffset(sub_0)\n  0x00\n  codecopy\n  0x00\n  return\nstop\n\nsub_0: assembly {\n        /* \"contracts/mem_flattened.sol\":30633:34249  contract MemCoin is ERC20, Ownable {... */\n      mstore(0x40, 0x80)\n      callvalue\n      dup1\n      iszero\n      tag_1\n      jumpi\n      revert(0x00, 0x00)\n    tag_1:\n      pop\n      jumpi(tag_2, lt(calldatasize, 0x04))\n      shr(0xe0, calldataload(0x00))\n      dup1\n      0x70a08231\n      gt\n      tag_29\n      jumpi\n      dup1\n      0xc647b20e\n      gt\n      tag_30\n      jumpi\n      dup1\n      0xcb4ca631\n      gt\n      tag_31\n      jumpi\n      dup1\n      0xcb4ca631\n      eq\n      tag_25\n      jumpi\n      dup1\n      0xcc1776d3\n      eq\n      tag_26\n      jumpi\n      dup1\n      0xdd62ed3e\n      eq\n      tag_27\n      jumpi\n      dup1\n      0xf2fde38b\n      eq\n      tag_28\n      jumpi\n      jump(tag_2)\n    tag_31:\n      dup1\n      0xc647b20e\n      eq\n      tag_22\n      jumpi\n      dup1\n      0xc6a30647\n      eq\n      tag_23\n      jumpi\n      dup1\n      0xc816841b\n      eq\n      tag_24\n      jumpi\n      jump(tag_2)\n    tag_30:\n      dup1\n      0x70a08231\n      eq\n      tag_16\n      jumpi\n      dup1\n      0x715018a6\n      eq\n      tag_17\n      jumpi\n      dup1\n      0x8da5cb5b\n      eq\n      tag_18\n      jumpi\n      dup1\n      0x95d89b41\n      eq\n      tag_19\n      jumpi\n      dup1\n      0xa9059cbb\n      eq\n      tag_20\n      jumpi\n      dup1\n      0xbeabacc8\n      eq\n      tag_21\n      jumpi\n      jump(tag_2)\n    tag_29:\n      dup1\n      0x2431ba73\n      gt\n      tag_32\n      jumpi\n      dup1\n      0x33727077\n      gt\n      tag_33\n      jumpi\n      dup1\n      0x33727077\n      eq\n      tag_12\n      jumpi\n      dup1\n      0x4e6fd6c4\n      eq\n      tag_13\n      jumpi\n      dup1\n      0x4f7041a5\n      eq\n      tag_14\n      jumpi\n      dup1\n      0x51c6590a\n      eq\n      tag_15\n      jumpi\n      jump(tag_2)\n    tag_33:\n      dup1\n      0x2431ba73\n      eq\n      tag_9\n      jumpi\n      dup1\n      0x2e1a7d4d\n      eq\n      tag_10\n      jumpi\n      dup1\n      0x313ce567\n      eq\n      tag_11\n      jumpi\n      jump(tag_2)\n    tag_32:\n      dup1\n      0x05bf0a54\n      eq\n      tag_3\n      jumpi\n      dup1\n      0x06fdde03\n      eq\n      tag_4\n      jumpi\n      dup1\n      0x095ea7b3\n      eq\n      tag_5\n      jumpi\n      dup1\n      0x15291cd4\n      eq\n      tag_6\n      jumpi\n      dup1\n      0x18160ddd\n      eq\n      tag_7\n      jumpi\n      dup1\n      0x23b872dd\n      eq\n      tag_8\n      jumpi\n    tag_2:\n      revert(0x00, 0x00)\n        /* \"contracts/mem_flattened.sol\":30960:30989  uint256 public burnShare = 20 */\n    tag_3:\n      tag_34\n      tag_35\n      jump\t// in\n    tag_34:\n      mload(0x40)\n      tag_36\n      swap2\n      swap1\n      tag_37\n      jump\t// in\n    tag_36:\n      mload(0x40)\n      dup1\n      swap2\n      sub\n      swap1\n      return\n        /* \"contracts/mem_flattened.sol\":21458:21547  function name() public view virtual returns (string memory) {... */\n    tag_4:\n      tag_38\n      tag_39\n      jump\t// in\n    tag_38:\n      mload(0x40)\n      tag_40\n      swap2\n      swap1\n      tag_41\n      jump\t// in\n    tag_40:\n      mload(0x40)\n      dup1\n      swap2\n      sub\n      swap1\n      return\n        /* \"contracts/mem_flattened.sol\":23677:23863  function approve(address spender, uint256 value) public virtual returns (bool) {... */\n    tag_5:\n      tag_42\n      0x04\n      dup1\n      calldatasize\n      sub\n      dup2\n      add\n      swap1\n      tag_43\n      swap2\n      swap1\n      tag_44\n      jump\t// in\n    tag_43:\n      tag_45\n      jump\t// in\n    tag_42:\n      mload(0x40)\n      tag_46\n      swap2\n      swap1\n      tag_47\n      jump\t// in\n    tag_46:\n      mload(0x40)\n      dup1\n      swap2\n      sub\n      swap1\n      return\n        /* \"contracts/mem_flattened.sol\":30920:30954  uint256 public liquidityShare = 50 */\n    tag_6:\n      tag_48\n      tag_49\n      jump\t// in\n    tag_48:\n      mload(0x40)\n      tag_50\n      swap2\n      swap1\n      tag_37\n      jump\t// in\n    tag_50:\n      mload(0x40)\n      dup1\n      swap2\n      sub\n      swap1\n      return\n        /* \"contracts/mem_flattened.sol\":22528:22625  function totalSupply() public view virtual returns (uint256) {... */\n    tag_7:\n      tag_51\n      tag_52\n      jump\t// in\n    tag_51:\n      mload(0x40)\n      tag_53\n      swap2\n      swap1\n      tag_37\n      jump\t// in\n    tag_53:\n      mload(0x40)\n      dup1\n      swap2\n      sub\n      swap1\n      return\n        /* \"contracts/mem_flattened.sol\":24455:24699  function transferFrom(address from, address to, uint256 value) public virtual returns (bool) {... */\n    tag_8:\n      tag_54\n      0x04\n      dup1\n      calldatasize\n      sub\n      dup2\n      add\n      swap1\n      tag_55\n      swap2\n      swap1\n      tag_56\n      jump\t// in\n    tag_55:\n      tag_57\n      jump\t// in\n    tag_54:\n      mload(0x40)\n      tag_58\n      swap2\n      swap1\n      tag_47\n      jump\t// in\n    tag_58:\n      mload(0x40)\n      dup1\n      swap2\n      sub\n      swap1\n      return\n        /* \"contracts/mem_flattened.sol\":31034:31073  IUniswapV2Router02 public uniswaprouter */\n    tag_9:\n      tag_59\n      tag_60\n      jump\t// in\n    tag_59:\n      mload(0x40)\n      tag_61\n      swap2\n      swap1\n      tag_62\n      jump\t// in\n    tag_61:\n      mload(0x40)\n      dup1\n      swap2\n      sub\n      swap1\n      return\n        /* \"contracts/mem_flattened.sol\":33623:33909  function withdraw(uint256 amount) external onlyOwner {... */\n    tag_10:\n      tag_63\n      0x04\n      dup1\n      calldatasize\n      sub\n      dup2\n      add\n      swap1\n      tag_64\n      swap2\n      swap1\n      tag_65\n      jump\t// in\n    tag_64:\n      tag_66\n      jump\t// in\n    tag_63:\n      stop\n        /* \"contracts/mem_flattened.sol\":22386:22468  function decimals() public view virtual returns (uint8) {... */\n    tag_11:\n      tag_67\n      tag_68\n      jump\t// in\n    tag_67:\n      mload(0x40)\n      tag_69\n      swap2\n      swap1\n      tag_70\n      jump\t// in\n    tag_69:\n      mload(0x40)\n      dup1\n      swap2\n      sub\n      swap1\n      return\n        /* \"contracts/mem_flattened.sol\":30995:31027  uint256 public rewardsShare = 30 */\n    tag_12:\n      tag_71\n      tag_72\n      jump\t// in\n    tag_71:\n      mload(0x40)\n      tag_73\n      swap2\n      swap1\n      tag_37\n      jump\t// in\n    tag_73:\n      mload(0x40)\n      dup1\n      swap2\n      sub\n      swap1\n      return\n        /* \"contracts/mem_flattened.sol\":31111:31192  address public constant DEAD_ADDRESS = 0x000000000000000000000000000000000000dEaD */\n    tag_13:\n      tag_74\n      tag_75\n      jump\t// in\n    tag_74:\n      mload(0x40)\n      tag_76\n      swap2\n      swap1\n      tag_77\n      jump\t// in\n    tag_76:\n      mload(0x40)\n      dup1\n      swap2\n      sub\n      swap1\n      return\n        /* \"contracts/mem_flattened.sol\":30856:30881  uint256 public buyTax = 5 */\n    tag_14:\n      tag_78\n      tag_79\n      jump\t// in\n    tag_78:\n      mload(0x40)\n      tag_80\n      swap2\n      swap1\n      tag_37\n      jump\t// in\n    tag_80:\n      mload(0x40)\n      dup1\n      swap2\n      sub\n      swap1\n      return\n        /* \"contracts/mem_flattened.sol\":33136:33617  function addLiquidity(uint256 tokenAmount) external onlyOwner {... */\n    tag_15:\n      tag_81\n      0x04\n      dup1\n      calldatasize\n      sub\n      dup2\n      add\n      swap1\n      tag_82\n      swap2\n      swap1\n      tag_65\n      jump\t// in\n    tag_82:\n      tag_83\n      jump\t// in\n    tag_81:\n      stop\n        /* \"contracts/mem_flattened.sol\":22683:22799  function balanceOf(address account) public view virtual returns (uint256) {... */\n    tag_16:\n      tag_84\n      0x04\n      dup1\n      calldatasize\n      sub\n      dup2\n      add\n      swap1\n      tag_85\n      swap2\n      swap1\n      tag_86\n      jump\t// in\n    tag_85:\n      tag_87\n      jump\t// in\n    tag_84:\n      mload(0x40)\n      tag_88\n      swap2\n      swap1\n      tag_37\n      jump\t// in\n    tag_88:\n      mload(0x40)\n      dup1\n      swap2\n      sub\n      swap1\n      return\n        /* \"contracts/mem_flattened.sol\":15558:15659  function renounceOwnership() public virtual onlyOwner {... */\n    tag_17:\n      tag_89\n      tag_90\n      jump\t// in\n    tag_89:\n      stop\n        /* \"contracts/mem_flattened.sol\":14903:14988  function owner() public view virtual returns (address) {... */\n    tag_18:\n      tag_91\n      tag_92\n      jump\t// in\n    tag_91:\n      mload(0x40)\n      tag_93\n      swap2\n      swap1\n      tag_77\n      jump\t// in\n    tag_93:\n      mload(0x40)\n      dup1\n      swap2\n      sub\n      swap1\n      return\n        /* \"contracts/mem_flattened.sol\":21660:21753  function symbol() public view virtual returns (string memory) {... */\n    tag_19:\n      tag_94\n      tag_95\n      jump\t// in\n    tag_94:\n      mload(0x40)\n      tag_96\n      swap2\n      swap1\n      tag_41\n      jump\t// in\n    tag_96:\n      mload(0x40)\n      dup1\n      swap2\n      sub\n      swap1\n      return\n        /* \"contracts/mem_flattened.sol\":22994:23172  function transfer(address to, uint256 value) public virtual returns (bool) {... */\n    tag_20:\n      tag_97\n      0x04\n      dup1\n      calldatasize\n      sub\n      dup2\n      add\n      swap1\n      tag_98\n      swap2\n      swap1\n      tag_44\n      jump\t// in\n    tag_98:\n      tag_99\n      jump\t// in\n    tag_97:\n      mload(0x40)\n      tag_100\n      swap2\n      swap1\n      tag_47\n      jump\t// in\n    tag_100:\n      mload(0x40)\n      dup1\n      swap2\n      sub\n      swap1\n      return\n        /* \"contracts/mem_flattened.sol\":31846:33130  function transfer(address sender, address recipient, uint256 amount) external{... */\n    tag_21:\n      tag_101\n      0x04\n      dup1\n      calldatasize\n      sub\n      dup2\n      add\n      swap1\n      tag_102\n      swap2\n      swap1\n      tag_56\n      jump\t// in\n    tag_102:\n      tag_103\n      jump\t// in\n    tag_101:\n      stop\n        /* \"contracts/mem_flattened.sol\":34050:34247  function setTaxes(uint256 _buyTax, uint256 _sellTax) external onlyOwner {... */\n    tag_22:\n      tag_104\n      0x04\n      dup1\n      calldatasize\n      sub\n      dup2\n      add\n      swap1\n      tag_105\n      swap2\n      swap1\n      tag_106\n      jump\t// in\n    tag_105:\n      tag_107\n      jump\t// in\n    tag_104:\n      stop\n        /* \"contracts/mem_flattened.sol\":33915:34044  function excludeFromTax(address account, bool excluded) external onlyOwner {... */\n    tag_23:\n      tag_108\n      0x04\n      dup1\n      calldatasize\n      sub\n      dup2\n      add\n      swap1\n      tag_109\n      swap2\n      swap1\n      tag_110\n      jump\t// in\n    tag_109:\n      tag_111\n      jump\t// in\n    tag_108:\n      stop\n        /* \"contracts/mem_flattened.sol\":31079:31105  address public uniswapPair */\n    tag_24:\n      tag_112\n      tag_113\n      jump\t// in\n    tag_112:\n      mload(0x40)\n      tag_114\n      swap2\n      swap1\n      tag_77\n      jump\t// in\n    tag_114:\n      mload(0x40)\n      dup1\n      swap2\n      sub\n      swap1\n      return\n        /* \"contracts/mem_flattened.sol\":31199:31248  mapping(address => bool) public isExcludedFromTax */\n    tag_25:\n      tag_115\n      0x04\n      dup1\n      calldatasize\n      sub\n      dup2\n      add\n      swap1\n      tag_116\n      swap2\n      swap1\n      tag_86\n      jump\t// in\n    tag_116:\n      tag_117\n      jump\t// in\n    tag_115:\n      mload(0x40)\n      tag_118\n      swap2\n      swap1\n      tag_47\n      jump\t// in\n    tag_118:\n      mload(0x40)\n      dup1\n      swap2\n      sub\n      swap1\n      return\n        /* \"contracts/mem_flattened.sol\":30887:30914  uint256 public sellTax = 10 */\n    tag_26:\n      tag_119\n      tag_120\n      jump\t// in\n    tag_119:\n      mload(0x40)\n      tag_121\n      swap2\n      swap1\n      tag_37\n      jump\t// in\n    tag_121:\n      mload(0x40)\n      dup1\n      swap2\n      sub\n      swap1\n      return\n        /* \"contracts/mem_flattened.sol\":23230:23370  function allowance(address owner, address spender) public view virtual returns (uint256) {... */\n    tag_27:\n      tag_122\n      0x04\n      dup1\n      calldatasize\n      sub\n      dup2\n      add\n      swap1\n      tag_123\n      swap2\n      swap1\n      tag_124\n      jump\t// in\n    tag_123:\n      tag_125\n      jump\t// in\n    tag_122:\n      mload(0x40)\n      tag_126\n      swap2\n      swap1\n      tag_37\n      jump\t// in\n    tag_126:\n      mload(0x40)\n      dup1\n      swap2\n      sub\n      swap1\n      return\n        /* \"contracts/mem_flattened.sol\":15808:16023  function transferOwnership(address newOwner) public virtual onlyOwner {... */\n    tag_28:\n      tag_127\n      0x04\n      dup1\n      calldatasize\n      sub\n      dup2\n      add\n      swap1\n      tag_128\n      swap2\n      swap1\n      tag_86\n      jump\t// in\n    tag_128:\n      tag_129\n      jump\t// in\n    tag_127:\n      stop\n        /* \"contracts/mem_flattened.sol\":30960:30989  uint256 public burnShare = 20 */\n    tag_35:\n      sload(0x09)\n      dup2\n      jump\t// out\n        /* \"contracts/mem_flattened.sol\":21458:21547  function name() public view virtual returns (string memory) {... */\n    tag_39:\n        /* \"contracts/mem_flattened.sol\":21503:21516  string memory */\n      0x60\n        /* \"contracts/mem_flattened.sol\":21535:21540  _name */\n      0x03\n        /* \"contracts/mem_flattened.sol\":21528:21540  return _name */\n      dup1\n      sload\n      tag_131\n      swap1\n      tag_132\n      jump\t// in\n    tag_131:\n      dup1\n      0x1f\n      add\n      0x20\n      dup1\n      swap2\n      div\n      mul\n      0x20\n      add\n      mload(0x40)\n      swap1\n      dup2\n      add\n      0x40\n      mstore\n      dup1\n      swap3\n      swap2\n      swap1\n      dup2\n      dup2\n      mstore\n      0x20\n      add\n      dup3\n      dup1\n      sload\n      tag_133\n      swap1\n      tag_132\n      jump\t// in\n    tag_133:\n      dup1\n      iszero\n      tag_134\n      jumpi\n      dup1\n      0x1f\n      lt\n      tag_135\n      jumpi\n      0x0100\n      dup1\n      dup4\n      sload\n      div\n      mul\n      dup4\n      mstore\n      swap2\n      0x20\n      add\n      swap2\n      jump(tag_134)\n    tag_135:\n      dup3\n      add\n      swap2\n      swap1\n      0x00\n      mstore\n      keccak256(0x00, 0x20)\n      swap1\n    tag_136:\n      dup2\n      sload\n      dup2\n      mstore\n      swap1\n      0x01\n      add\n      swap1\n      0x20\n      add\n      dup1\n      dup4\n      gt\n      tag_136\n      jumpi\n      dup3\n      swap1\n      sub\n      0x1f\n      and\n      dup3\n      add\n      swap2\n    tag_134:\n      pop\n      pop\n      pop\n      pop\n      pop\n      swap1\n      pop\n        /* \"contracts/mem_flattened.sol\":21458:21547  function name() public view virtual returns (string memory) {... */\n      swap1\n      jump\t// out\n        /* \"contracts/mem_flattened.sol\":23677:23863  function approve(address spender, uint256 value) public virtual returns (bool) {... */\n    tag_45:\n        /* \"contracts/mem_flattened.sol\":23750:23754  bool */\n      0x00\n        /* \"contracts/mem_flattened.sol\":23766:23779  address owner */\n      0x00\n        /* \"contracts/mem_flattened.sol\":23782:23794  _msgSender() */\n      tag_138\n        /* \"contracts/mem_flattened.sol\":23782:23792  _msgSender */\n      tag_139\n        /* \"contracts/mem_flattened.sol\":23782:23794  _msgSender() */\n      jump\t// in\n    tag_138:\n        /* \"contracts/mem_flattened.sol\":23766:23794  address owner = _msgSender() */\n      swap1\n      pop\n        /* \"contracts/mem_flattened.sol\":23804:23835  _approve(owner, spender, value) */\n      tag_140\n        /* \"contracts/mem_flattened.sol\":23813:23818  owner */\n      dup2\n        /* \"contracts/mem_flattened.sol\":23820:23827  spender */\n      dup6\n        /* \"contracts/mem_flattened.sol\":23829:23834  value */\n      dup6\n        /* \"contracts/mem_flattened.sol\":23804:23812  _approve */\n      tag_141\n        /* \"contracts/mem_flattened.sol\":23804:23835  _approve(owner, spender, value) */\n      jump\t// in\n    tag_140:\n        /* \"contracts/mem_flattened.sol\":23852:23856  true */\n      0x01\n        /* \"contracts/mem_flattened.sol\":23845:23856  return true */\n      swap2\n      pop\n      pop\n        /* \"contracts/mem_flattened.sol\":23677:23863  function approve(address spender, uint256 value) public virtual returns (bool) {... */\n      swap3\n      swap2\n      pop\n      pop\n      jump\t// out\n        /* \"contracts/mem_flattened.sol\":30920:30954  uint256 public liquidityShare = 50 */\n    tag_49:\n      sload(0x08)\n      dup2\n      jump\t// out\n        /* \"contracts/mem_flattened.sol\":22528:22625  function totalSupply() public view virtual returns (uint256) {... */\n    tag_52:\n        /* \"contracts/mem_flattened.sol\":22580:22587  uint256 */\n      0x00\n        /* \"contracts/mem_flattened.sol\":22606:22618  _totalSupply */\n      sload(0x02)\n        /* \"contracts/mem_flattened.sol\":22599:22618  return _totalSupply */\n      swap1\n      pop\n        /* \"contracts/mem_flattened.sol\":22528:22625  function totalSupply() public view virtual returns (uint256) {... */\n      swap1\n      jump\t// out\n        /* \"contracts/mem_flattened.sol\":24455:24699  function transferFrom(address from, address to, uint256 value) public virtual returns (bool) {... */\n    tag_57:\n        /* \"contracts/mem_flattened.sol\":24542:24546  bool */\n      0x00\n        /* \"contracts/mem_flattened.sol\":24558:24573  address spender */\n      0x00\n        /* \"contracts/mem_flattened.sol\":24576:24588  _msgSender() */\n      tag_144\n        /* \"contracts/mem_flattened.sol\":24576:24586  _msgSender */\n      tag_139\n        /* \"contracts/mem_flattened.sol\":24576:24588  _msgSender() */\n      jump\t// in\n    tag_144:\n        /* \"contracts/mem_flattened.sol\":24558:24588  address spender = _msgSender() */\n      swap1\n      pop\n        /* \"contracts/mem_flattened.sol\":24598:24635  _spendAllowance(from, spender, value) */\n      tag_145\n        /* \"contracts/mem_flattened.sol\":24614:24618  from */\n      dup6\n        /* \"contracts/mem_flattened.sol\":24620:24627  spender */\n      dup3\n        /* \"contracts/mem_flattened.sol\":24629:24634  value */\n      dup6\n        /* \"contracts/mem_flattened.sol\":24598:24613  _spendAllowance */\n      tag_146\n        /* \"contracts/mem_flattened.sol\":24598:24635  _spendAllowance(from, spender, value) */\n      jump\t// in\n    tag_145:\n        /* \"contracts/mem_flattened.sol\":24645:24671  _transfer(from, to, value) */\n      tag_147\n        /* \"contracts/mem_flattened.sol\":24655:24659  from */\n      dup6\n        /* \"contracts/mem_flattened.sol\":24661:24663  to */\n      dup6\n        /* \"contracts/mem_flattened.sol\":24665:24670  value */\n      dup6\n        /* \"contracts/mem_flattened.sol\":24645:24654  _transfer */\n      tag_148\n        /* \"contracts/mem_flattened.sol\":24645:24671  _transfer(from, to, value) */\n      jump\t// in\n    tag_147:\n        /* \"contracts/mem_flattened.sol\":24688:24692  true */\n      0x01\n        /* \"contracts/mem_flattened.sol\":24681:24692  return true */\n      swap2\n      pop\n      pop\n        /* \"contracts/mem_flattened.sol\":24455:24699  function transferFrom(address from, address to, uint256 value) public virtual returns (bool) {... */\n      swap4\n      swap3\n      pop\n      pop\n      pop\n      jump\t// out\n        /* \"contracts/mem_flattened.sol\":31034:31073  IUniswapV2Router02 public uniswaprouter */\n    tag_60:\n      0x0b\n      0x00\n      swap1\n      sload\n      swap1\n      0x0100\n      exp\n      swap1\n      div\n      0xffffffffffffffffffffffffffffffffffffffff\n      and\n      dup2\n      jump\t// out\n        /* \"contracts/mem_flattened.sol\":33623:33909  function withdraw(uint256 amount) external onlyOwner {... */\n    tag_66:\n        /* \"contracts/mem_flattened.sol\":14796:14809  _checkOwner() */\n      tag_150\n        /* \"contracts/mem_flattened.sol\":14796:14807  _checkOwner */\n      tag_151\n        /* \"contracts/mem_flattened.sol\":14796:14809  _checkOwner() */\n      jump\t// in\n    tag_150:\n        /* \"contracts/mem_flattened.sol\":33716:33717  0 */\n      0x00\n        /* \"contracts/mem_flattened.sol\":33694:33718  msg.sender != address(0) */\n      0xffffffffffffffffffffffffffffffffffffffff\n      and\n        /* \"contracts/mem_flattened.sol\":33694:33704  msg.sender */\n      caller\n        /* \"contracts/mem_flattened.sol\":33694:33718  msg.sender != address(0) */\n      0xffffffffffffffffffffffffffffffffffffffff\n      and\n      sub\n        /* \"contracts/mem_flattened.sol\":33686:33737  require(msg.sender != address(0), TransferToZero()) */\n      tag_153\n      jumpi\n      mload(0x40)\n      0xa38ca3d900000000000000000000000000000000000000000000000000000000\n      dup2\n      mstore\n      0x04\n      add\n      mload(0x40)\n      dup1\n      swap2\n      sub\n      swap1\n      revert\n    tag_153:\n        /* \"contracts/mem_flattened.sol\":33764:33785  address(this).balance */\n      selfbalance\n        /* \"contracts/mem_flattened.sol\":33755:33761  amount */\n      dup2\n        /* \"contracts/mem_flattened.sol\":33755:33785  amount > address(this).balance */\n      gt\n        /* \"contracts/mem_flattened.sol\":33747:33807  require(amount > address(this).balance, InsufficientFunds()) */\n      tag_154\n      jumpi\n      mload(0x40)\n      0x356680b700000000000000000000000000000000000000000000000000000000\n      dup2\n      mstore\n      0x04\n      add\n      mload(0x40)\n      dup1\n      swap2\n      sub\n      swap1\n      revert\n    tag_154:\n        /* \"contracts/mem_flattened.sol\":33818:33833  uint256 balance */\n      0x00\n        /* \"contracts/mem_flattened.sol\":33836:33857  address(this).balance */\n      selfbalance\n        /* \"contracts/mem_flattened.sol\":33818:33857  uint256 balance = address(this).balance */\n      swap1\n      pop\n        /* \"contracts/mem_flattened.sol\":33876:33883  owner() */\n      tag_155\n        /* \"contracts/mem_flattened.sol\":33876:33881  owner */\n      tag_92\n        /* \"contracts/mem_flattened.sol\":33876:33883  owner() */\n      jump\t// in\n    tag_155:\n        /* \"contracts/mem_flattened.sol\":33868:33893  payable(owner()).transfer */\n      0xffffffffffffffffffffffffffffffffffffffff\n      and\n        /* \"contracts/mem_flattened.sol\":33868:33902  payable(owner()).transfer(balance) */\n      0x08fc\n        /* \"contracts/mem_flattened.sol\":33894:33901  balance */\n      dup3\n        /* \"contracts/mem_flattened.sol\":33868:33902  payable(owner()).transfer(balance) */\n      swap1\n      dup2\n      iszero\n      mul\n      swap1\n      mload(0x40)\n      0x00\n      mload(0x40)\n      dup1\n      dup4\n      sub\n      dup2\n      dup6\n      dup9\n      dup9\n      call\n      swap4\n      pop\n      pop\n      pop\n      pop\n      iszero\n      dup1\n      iszero\n      tag_157\n      jumpi\n      returndatacopy(0x00, 0x00, returndatasize)\n      revert(0x00, returndatasize)\n    tag_157:\n      pop\n        /* \"contracts/mem_flattened.sol\":33676:33909  {... */\n      pop\n        /* \"contracts/mem_flattened.sol\":33623:33909  function withdraw(uint256 amount) external onlyOwner {... */\n      pop\n      jump\t// out\n        /* \"contracts/mem_flattened.sol\":22386:22468  function decimals() public view virtual returns (uint8) {... */\n    tag_68:\n        /* \"contracts/mem_flattened.sol\":22435:22440  uint8 */\n      0x00\n        /* \"contracts/mem_flattened.sol\":22459:22461  18 */\n      0x12\n        /* \"contracts/mem_flattened.sol\":22452:22461  return 18 */\n      swap1\n      pop\n        /* \"contracts/mem_flattened.sol\":22386:22468  function decimals() public view virtual returns (uint8) {... */\n      swap1\n      jump\t// out\n        /* \"contracts/mem_flattened.sol\":30995:31027  uint256 public rewardsShare = 30 */\n    tag_72:\n      sload(0x0a)\n      dup2\n      jump\t// out\n        /* \"contracts/mem_flattened.sol\":31111:31192  address public constant DEAD_ADDRESS = 0x000000000000000000000000000000000000dEaD */\n    tag_75:\n        /* \"contracts/mem_flattened.sol\":31150:31192  0x000000000000000000000000000000000000dEaD */\n      0xdead\n        /* \"contracts/mem_flattened.sol\":31111:31192  address public constant DEAD_ADDRESS = 0x000000000000000000000000000000000000dEaD */\n      dup2\n      jump\t// out\n        /* \"contracts/mem_flattened.sol\":30856:30881  uint256 public buyTax = 5 */\n    tag_79:\n      sload(0x06)\n      dup2\n      jump\t// out\n        /* \"contracts/mem_flattened.sol\":33136:33617  function addLiquidity(uint256 tokenAmount) external onlyOwner {... */\n    tag_83:\n        /* \"contracts/mem_flattened.sol\":14796:14809  _checkOwner() */\n      tag_160\n        /* \"contracts/mem_flattened.sol\":14796:14807  _checkOwner */\n      tag_151\n        /* \"contracts/mem_flattened.sol\":14796:14809  _checkOwner() */\n      jump\t// in\n    tag_160:\n        /* \"contracts/mem_flattened.sol\":33230:33231  0 */\n      0x00\n        /* \"contracts/mem_flattened.sol\":33216:33227  tokenAmount */\n      dup2\n        /* \"contracts/mem_flattened.sol\":33216:33231  tokenAmount > 0 */\n      gt\n        /* \"contracts/mem_flattened.sol\":33208:33261  require(tokenAmount > 0, TokenAmountMustBePositive()) */\n      tag_162\n      jumpi\n      mload(0x40)\n      0x671d94d800000000000000000000000000000000000000000000000000000000\n      dup2\n      mstore\n      0x04\n      add\n      mload(0x40)\n      dup1\n      swap2\n      sub\n      swap1\n      revert\n    tag_162:\n        /* \"contracts/mem_flattened.sol\":33272:33332  _approve(address(this), address(uniswaprouter), tokenAmount) */\n      tag_163\n        /* \"contracts/mem_flattened.sol\":33289:33293  this */\n      address\n        /* \"contracts/mem_flattened.sol\":33304:33317  uniswaprouter */\n      0x0b\n      0x00\n      swap1\n      sload\n      swap1\n      0x0100\n      exp\n      swap1\n      div\n      0xffffffffffffffffffffffffffffffffffffffff\n      and\n        /* \"contracts/mem_flattened.sol\":33320:33331  tokenAmount */\n      dup4\n        /* \"contracts/mem_flattened.sol\":33272:33280  _approve */\n      tag_141\n        /* \"contracts/mem_flattened.sol\":33272:33332  _approve(address(this), address(uniswaprouter), tokenAmount) */\n      jump\t// in\n    tag_163:\n        /* \"contracts/mem_flattened.sol\":33343:33356  uniswaprouter */\n      0x0b\n      0x00\n      swap1\n      sload\n      swap1\n      0x0100\n      exp\n      swap1\n      div\n      0xffffffffffffffffffffffffffffffffffffffff\n      and\n        /* \"contracts/mem_flattened.sol\":33343:33372  uniswaprouter.addLiquidityETH */\n      0xffffffffffffffffffffffffffffffffffffffff\n      and\n      0xf305d719\n        /* \"contracts/mem_flattened.sol\":33380:33401  address(this).balance */\n      selfbalance\n        /* \"contracts/mem_flattened.sol\":33424:33428  this */\n      address\n        /* \"contracts/mem_flattened.sol\":33443:33454  tokenAmount */\n      dup5\n        /* \"contracts/mem_flattened.sol\":33468:33469  0 */\n      0x00\n        /* \"contracts/mem_flattened.sol\":33483:33484  0 */\n      0x00\n        /* \"contracts/mem_flattened.sol\":33498:33505  owner() */\n      tag_164\n        /* \"contracts/mem_flattened.sol\":33498:33503  owner */\n      tag_92\n        /* \"contracts/mem_flattened.sol\":33498:33505  owner() */\n      jump\t// in\n    tag_164:\n        /* \"contracts/mem_flattened.sol\":33519:33534  block.timestamp */\n      timestamp\n        /* \"contracts/mem_flattened.sol\":33343:33544  uniswaprouter.addLiquidityETH{value: address(this).balance}(... */\n      mload(0x40)\n      dup9\n      0xffffffff\n      and\n      0xe0\n      shl\n      dup2\n      mstore\n      0x04\n      add\n      tag_165\n      swap7\n      swap6\n      swap5\n      swap4\n      swap3\n      swap2\n      swap1\n      tag_166\n      jump\t// in\n    tag_165:\n      0x60\n      mload(0x40)\n      dup1\n      dup4\n      sub\n      dup2\n      dup6\n      dup9\n      gas\n      call\n      iszero\n      dup1\n      iszero\n      tag_168\n      jumpi\n      returndatacopy(0x00, 0x00, returndatasize)\n      revert(0x00, returndatasize)\n    tag_168:\n      pop\n      pop\n      pop\n      pop\n      pop\n      mload(0x40)\n      returndatasize\n      not(0x1f)\n      0x1f\n      dup3\n      add\n      and\n      dup3\n      add\n      dup1\n      0x40\n      mstore\n      pop\n      dup2\n      add\n      swap1\n      tag_169\n      swap2\n      swap1\n      tag_170\n      jump\t// in\n    tag_169:\n      pop\n      pop\n      pop\n        /* \"contracts/mem_flattened.sol\":33560:33610  LiquidityAdded(tokenAmount, address(this).balance) */\n      0x38f8a0c92f4c5b0b6877f878cb4c0c8d348a47b76d716c8e78f425043df9515b\n        /* \"contracts/mem_flattened.sol\":33575:33586  tokenAmount */\n      dup2\n        /* \"contracts/mem_flattened.sol\":33588:33609  address(this).balance */\n      selfbalance\n        /* \"contracts/mem_flattened.sol\":33560:33610  LiquidityAdded(tokenAmount, address(this).balance) */\n      mload(0x40)\n      tag_171\n      swap3\n      swap2\n      swap1\n      tag_172\n      jump\t// in\n    tag_171:\n      mload(0x40)\n      dup1\n      swap2\n      sub\n      swap1\n      log1\n        /* \"contracts/mem_flattened.sol\":33136:33617  function addLiquidity(uint256 tokenAmount) external onlyOwner {... */\n      pop\n      jump\t// out\n        /* \"contracts/mem_flattened.sol\":22683:22799  function balanceOf(address account) public view virtual returns (uint256) {... */\n    tag_87:\n        /* \"contracts/mem_flattened.sol\":22748:22755  uint256 */\n      0x00\n        /* \"contracts/mem_flattened.sol\":22774:22783  _balances */\n      0x00\n        /* \"contracts/mem_flattened.sol\":22774:22792  _balances[account] */\n      0x00\n        /* \"contracts/mem_flattened.sol\":22784:22791  account */\n      dup4\n        /* \"contracts/mem_flattened.sol\":22774:22792  _balances[account] */\n      0xffffffffffffffffffffffffffffffffffffffff\n      and\n      0xffffffffffffffffffffffffffffffffffffffff\n      and\n      dup2\n      mstore\n      0x20\n      add\n      swap1\n      dup2\n      mstore\n      0x20\n      add\n      0x00\n      keccak256\n      sload\n        /* \"contracts/mem_flattened.sol\":22767:22792  return _balances[account] */\n      swap1\n      pop\n        /* \"contracts/mem_flattened.sol\":22683:22799  function balanceOf(address account) public view virtual returns (uint256) {... */\n      swap2\n      swap1\n      pop\n      jump\t// out\n        /* \"contracts/mem_flattened.sol\":15558:15659  function renounceOwnership() public virtual onlyOwner {... */\n    tag_90:\n        /* \"contracts/mem_flattened.sol\":14796:14809  _checkOwner() */\n      tag_175\n        /* \"contracts/mem_flattened.sol\":14796:14807  _checkOwner */\n      tag_151\n        /* \"contracts/mem_flattened.sol\":14796:14809  _checkOwner() */\n      jump\t// in\n    tag_175:\n        /* \"contracts/mem_flattened.sol\":15622:15652  _transferOwnership(address(0)) */\n      tag_177\n        /* \"contracts/mem_flattened.sol\":15649:15650  0 */\n      0x00\n        /* \"contracts/mem_flattened.sol\":15622:15640  _transferOwnership */\n      tag_178\n        /* \"contracts/mem_flattened.sol\":15622:15652  _transferOwnership(address(0)) */\n      jump\t// in\n    tag_177:\n        /* \"contracts/mem_flattened.sol\":15558:15659  function renounceOwnership() public virtual onlyOwner {... */\n      jump\t// out\n        /* \"contracts/mem_flattened.sol\":14903:14988  function owner() public view virtual returns (address) {... */\n    tag_92:\n        /* \"contracts/mem_flattened.sol\":14949:14956  address */\n      0x00\n        /* \"contracts/mem_flattened.sol\":14975:14981  _owner */\n      0x05\n      0x00\n      swap1\n      sload\n      swap1\n      0x0100\n      exp\n      swap1\n      div\n      0xffffffffffffffffffffffffffffffffffffffff\n      and\n        /* \"contracts/mem_flattened.sol\":14968:14981  return _owner */\n      swap1\n      pop\n        /* \"contracts/mem_flattened.sol\":14903:14988  function owner() public view virtual returns (address) {... */\n      swap1\n      jump\t// out\n        /* \"contracts/mem_flattened.sol\":21660:21753  function symbol() public view virtual returns (string memory) {... */\n    tag_95:\n        /* \"contracts/mem_flattened.sol\":21707:21720  string memory */\n      0x60\n        /* \"contracts/mem_flattened.sol\":21739:21746  _symbol */\n      0x04\n        /* \"contracts/mem_flattened.sol\":21732:21746  return _symbol */\n      dup1\n      sload\n      tag_181\n      swap1\n      tag_132\n      jump\t// in\n    tag_181:\n      dup1\n      0x1f\n      add\n      0x20\n      dup1\n      swap2\n      div\n      mul\n      0x20\n      add\n      mload(0x40)\n      swap1\n      dup2\n      add\n      0x40\n      mstore\n      dup1\n      swap3\n      swap2\n      swap1\n      dup2\n      dup2\n      mstore\n      0x20\n      add\n      dup3\n      dup1\n      sload\n      tag_182\n      swap1\n      tag_132\n      jump\t// in\n    tag_182:\n      dup1\n      iszero\n      tag_183\n      jumpi\n      dup1\n      0x1f\n      lt\n      tag_184\n      jumpi\n      0x0100\n      dup1\n      dup4\n      sload\n      div\n      mul\n      dup4\n      mstore\n      swap2\n      0x20\n      add\n      swap2\n      jump(tag_183)\n    tag_184:\n      dup3\n      add\n      swap2\n      swap1\n      0x00\n      mstore\n      keccak256(0x00, 0x20)\n      swap1\n    tag_185:\n      dup2\n      sload\n      dup2\n      mstore\n      swap1\n      0x01\n      add\n      swap1\n      0x20\n      add\n      dup1\n      dup4\n      gt\n      tag_185\n      jumpi\n      dup3\n      swap1\n      sub\n      0x1f\n      and\n      dup3\n      add\n      swap2\n    tag_183:\n      pop\n      pop\n      pop\n      pop\n      pop\n      swap1\n      pop\n        /* \"contracts/mem_flattened.sol\":21660:21753  function symbol() public view virtual returns (string memory) {... */\n      swap1\n      jump\t// out\n        /* \"contracts/mem_flattened.sol\":22994:23172  function transfer(address to, uint256 value) public virtual returns (bool) {... */\n    tag_99:\n        /* \"contracts/mem_flattened.sol\":23063:23067  bool */\n      0x00\n        /* \"contracts/mem_flattened.sol\":23079:23092  address owner */\n      0x00\n        /* \"contracts/mem_flattened.sol\":23095:23107  _msgSender() */\n      tag_187\n        /* \"contracts/mem_flattened.sol\":23095:23105  _msgSender */\n      tag_139\n        /* \"contracts/mem_flattened.sol\":23095:23107  _msgSender() */\n      jump\t// in\n    tag_187:\n        /* \"contracts/mem_flattened.sol\":23079:23107  address owner = _msgSender() */\n      swap1\n      pop\n        /* \"contracts/mem_flattened.sol\":23117:23144  _transfer(owner, to, value) */\n      tag_188\n        /* \"contracts/mem_flattened.sol\":23127:23132  owner */\n      dup2\n        /* \"contracts/mem_flattened.sol\":23134:23136  to */\n      dup6\n        /* \"contracts/mem_flattened.sol\":23138:23143  value */\n      dup6\n        /* \"contracts/mem_flattened.sol\":23117:23126  _transfer */\n      tag_148\n        /* \"contracts/mem_flattened.sol\":23117:23144  _transfer(owner, to, value) */\n      jump\t// in\n    tag_188:\n        /* \"contracts/mem_flattened.sol\":23161:23165  true */\n      0x01\n        /* \"contracts/mem_flattened.sol\":23154:23165  return true */\n      swap2\n      pop\n      pop\n        /* \"contracts/mem_flattened.sol\":22994:23172  function transfer(address to, uint256 value) public virtual returns (bool) {... */\n      swap3\n      swap2\n      pop\n      pop\n      jump\t// out\n        /* \"contracts/mem_flattened.sol\":31846:33130  function transfer(address sender, address recipient, uint256 amount) external{... */\n    tag_103:\n        /* \"contracts/mem_flattened.sol\":31959:31960  0 */\n      0x00\n        /* \"contracts/mem_flattened.sol\":31941:31961  sender != address(0) */\n      0xffffffffffffffffffffffffffffffffffffffff\n      and\n        /* \"contracts/mem_flattened.sol\":31941:31947  sender */\n      dup4\n        /* \"contracts/mem_flattened.sol\":31941:31961  sender != address(0) */\n      0xffffffffffffffffffffffffffffffffffffffff\n      and\n      sub\n        /* \"contracts/mem_flattened.sol\":31933:31982  require(sender != address(0), TransferFromZero()) */\n      tag_190\n      jumpi\n      mload(0x40)\n      0xf38f85c300000000000000000000000000000000000000000000000000000000\n      dup2\n      mstore\n      0x04\n      add\n      mload(0x40)\n      dup1\n      swap2\n      sub\n      swap1\n      revert\n    tag_190:\n        /* \"contracts/mem_flattened.sol\":32021:32022  0 */\n      0x00\n        /* \"contracts/mem_flattened.sol\":32000:32023  recipient != address(0) */\n      0xffffffffffffffffffffffffffffffffffffffff\n      and\n        /* \"contracts/mem_flattened.sol\":32000:32009  recipient */\n      dup3\n        /* \"contracts/mem_flattened.sol\":32000:32023  recipient != address(0) */\n      0xffffffffffffffffffffffffffffffffffffffff\n      and\n      sub\n        /* \"contracts/mem_flattened.sol\":31992:32042  require(recipient != address(0), TransferToZero()) */\n      tag_191\n      jumpi\n      mload(0x40)\n      0xa38ca3d900000000000000000000000000000000000000000000000000000000\n      dup2\n      mstore\n      0x04\n      add\n      mload(0x40)\n      dup1\n      swap2\n      sub\n      swap1\n      revert\n    tag_191:\n        /* \"contracts/mem_flattened.sol\":32057:32074  isExcludedFromTax */\n      0x0d\n        /* \"contracts/mem_flattened.sol\":32057:32082  isExcludedFromTax[sender] */\n      0x00\n        /* \"contracts/mem_flattened.sol\":32075:32081  sender */\n      dup5\n        /* \"contracts/mem_flattened.sol\":32057:32082  isExcludedFromTax[sender] */\n      0xffffffffffffffffffffffffffffffffffffffff\n      and\n      0xffffffffffffffffffffffffffffffffffffffff\n      and\n      dup2\n      mstore\n      0x20\n      add\n      swap1\n      dup2\n      mstore\n      0x20\n      add\n      0x00\n      keccak256\n      0x00\n      swap1\n      sload\n      swap1\n      0x0100\n      exp\n      swap1\n      div\n      0xff\n      and\n        /* \"contracts/mem_flattened.sol\":32057:32114  isExcludedFromTax[sender] || isExcludedFromTax[recipient] */\n      dup1\n      tag_192\n      jumpi\n      pop\n        /* \"contracts/mem_flattened.sol\":32086:32103  isExcludedFromTax */\n      0x0d\n        /* \"contracts/mem_flattened.sol\":32086:32114  isExcludedFromTax[recipient] */\n      0x00\n        /* \"contracts/mem_flattened.sol\":32104:32113  recipient */\n      dup4\n        /* \"contracts/mem_flattened.sol\":32086:32114  isExcludedFromTax[recipient] */\n      0xffffffffffffffffffffffffffffffffffffffff\n      and\n      0xffffffffffffffffffffffffffffffffffffffff\n      and\n      dup2\n      mstore\n      0x20\n      add\n      swap1\n      dup2\n      mstore\n      0x20\n      add\n      0x00\n      keccak256\n      0x00\n      swap1\n      sload\n      swap1\n      0x0100\n      exp\n      swap1\n      div\n      0xff\n      and\n        /* \"contracts/mem_flattened.sol\":32057:32114  isExcludedFromTax[sender] || isExcludedFromTax[recipient] */\n    tag_192:\n        /* \"contracts/mem_flattened.sol\":32053:32203  if (isExcludedFromTax[sender] || isExcludedFromTax[recipient]) {... */\n      iszero\n      tag_193\n      jumpi\n        /* \"contracts/mem_flattened.sol\":32130:32172  super._transfer(sender, recipient, amount) */\n      tag_194\n        /* \"contracts/mem_flattened.sol\":32146:32152  sender */\n      dup4\n        /* \"contracts/mem_flattened.sol\":32154:32163  recipient */\n      dup4\n        /* \"contracts/mem_flattened.sol\":32165:32171  amount */\n      dup4\n        /* \"contracts/mem_flattened.sol\":32130:32145  super._transfer */\n      tag_148\n        /* \"contracts/mem_flattened.sol\":32130:32172  super._transfer(sender, recipient, amount) */\n      jump\t// in\n    tag_194:\n        /* \"contracts/mem_flattened.sol\":32186:32193  return; */\n      jump(tag_189)\n        /* \"contracts/mem_flattened.sol\":32053:32203  if (isExcludedFromTax[sender] || isExcludedFromTax[recipient]) {... */\n    tag_193:\n        /* \"contracts/mem_flattened.sol\":32213:32223  bool isBuy */\n      0x00\n        /* \"contracts/mem_flattened.sol\":32239:32250  uniswapPair */\n      0x0c\n      0x00\n      swap1\n      sload\n      swap1\n      0x0100\n      exp\n      swap1\n      div\n      0xffffffffffffffffffffffffffffffffffffffff\n      and\n        /* \"contracts/mem_flattened.sol\":32226:32250  recipient == uniswapPair */\n      0xffffffffffffffffffffffffffffffffffffffff\n      and\n        /* \"contracts/mem_flattened.sol\":32226:32235  recipient */\n      dup4\n        /* \"contracts/mem_flattened.sol\":32226:32250  recipient == uniswapPair */\n      0xffffffffffffffffffffffffffffffffffffffff\n      and\n      eq\n        /* \"contracts/mem_flattened.sol\":32213:32250  bool isBuy = recipient == uniswapPair */\n      swap1\n      pop\n        /* \"contracts/mem_flattened.sol\":32260:32271  bool isSell */\n      0x00\n        /* \"contracts/mem_flattened.sol\":32284:32295  uniswapPair */\n      0x0c\n      0x00\n      swap1\n      sload\n      swap1\n      0x0100\n      exp\n      swap1\n      div\n      0xffffffffffffffffffffffffffffffffffffffff\n      and\n        /* \"contracts/mem_flattened.sol\":32274:32295  sender == uniswapPair */\n      0xffffffffffffffffffffffffffffffffffffffff\n      and\n        /* \"contracts/mem_flattened.sol\":32274:32280  sender */\n      dup6\n        /* \"contracts/mem_flattened.sol\":32274:32295  sender == uniswapPair */\n      0xffffffffffffffffffffffffffffffffffffffff\n      and\n      eq\n        /* \"contracts/mem_flattened.sol\":32260:32295  bool isSell = sender == uniswapPair */\n      swap1\n      pop\n        /* \"contracts/mem_flattened.sol\":32306:32323  uint256 taxAmount */\n      0x00\n        /* \"contracts/mem_flattened.sol\":32336:32341  isBuy */\n      dup3\n        /* \"contracts/mem_flattened.sol\":32333:32480  if(isBuy) {... */\n      iszero\n      tag_195\n      jumpi\n        /* \"contracts/mem_flattened.sol\":32389:32392  100 */\n      0x64\n        /* \"contracts/mem_flattened.sol\":32379:32385  buyTax */\n      sload(0x06)\n        /* \"contracts/mem_flattened.sol\":32370:32376  amount */\n      dup6\n        /* \"contracts/mem_flattened.sol\":32370:32385  amount * buyTax */\n      tag_196\n      swap2\n      swap1\n      tag_197\n      jump\t// in\n    tag_196:\n        /* \"contracts/mem_flattened.sol\":32369:32392  (amount * buyTax) / 100 */\n      tag_198\n      swap2\n      swap1\n      tag_199\n      jump\t// in\n    tag_198:\n        /* \"contracts/mem_flattened.sol\":32357:32392  taxAmount = (amount * buyTax) / 100 */\n      swap1\n      pop\n        /* \"contracts/mem_flattened.sol\":32333:32480  if(isBuy) {... */\n      jump(tag_200)\n    tag_195:\n        /* \"contracts/mem_flattened.sol\":32411:32417  isSell */\n      dup2\n        /* \"contracts/mem_flattened.sol\":32408:32480  if(isSell) {... */\n      iszero\n      tag_201\n      jumpi\n        /* \"contracts/mem_flattened.sol\":32466:32469  100 */\n      0x64\n        /* \"contracts/mem_flattened.sol\":32455:32462  sellTax */\n      sload(0x07)\n        /* \"contracts/mem_flattened.sol\":32446:32452  amount */\n      dup6\n        /* \"contracts/mem_flattened.sol\":32446:32462  amount * sellTax */\n      tag_202\n      swap2\n      swap1\n      tag_197\n      jump\t// in\n    tag_202:\n        /* \"contracts/mem_flattened.sol\":32445:32469  (amount * sellTax) / 100 */\n      tag_203\n      swap2\n      swap1\n      tag_199\n      jump\t// in\n    tag_203:\n        /* \"contracts/mem_flattened.sol\":32433:32469  taxAmount = (amount * sellTax) / 100 */\n      swap1\n      pop\n        /* \"contracts/mem_flattened.sol\":32408:32480  if(isSell) {... */\n    tag_201:\n        /* \"contracts/mem_flattened.sol\":32333:32480  if(isBuy) {... */\n    tag_200:\n        /* \"contracts/mem_flattened.sol\":32490:32507  uint256 netAmount */\n      0x00\n        /* \"contracts/mem_flattened.sol\":32519:32528  taxAmount */\n      dup2\n        /* \"contracts/mem_flattened.sol\":32510:32516  amount */\n      dup6\n        /* \"contracts/mem_flattened.sol\":32510:32528  amount - taxAmount */\n      tag_204\n      swap2\n      swap1\n      tag_205\n      jump\t// in\n    tag_204:\n        /* \"contracts/mem_flattened.sol\":32490:32528  uint256 netAmount = amount - taxAmount */\n      swap1\n      pop\n        /* \"contracts/mem_flattened.sol\":32568:32577  taxAmount */\n      dup2\n        /* \"contracts/mem_flattened.sol\":32556:32565  netAmount */\n      dup2\n        /* \"contracts/mem_flattened.sol\":32556:32577  netAmount + taxAmount */\n      tag_206\n      swap2\n      swap1\n      tag_207\n      jump\t// in\n    tag_206:\n        /* \"contracts/mem_flattened.sol\":32546:32552  amount */\n      dup6\n        /* \"contracts/mem_flattened.sol\":32546:32577  amount == netAmount + taxAmount */\n      eq\n        /* \"contracts/mem_flattened.sol\":32538:32597  require(amount == netAmount + taxAmount, ArithmeticError()) */\n      tag_208\n      jumpi\n      mload(0x40)\n      0x1f825c6a00000000000000000000000000000000000000000000000000000000\n      dup2\n      mstore\n      0x04\n      add\n      mload(0x40)\n      dup1\n      swap2\n      sub\n      swap1\n      revert\n    tag_208:\n        /* \"contracts/mem_flattened.sol\":32624:32625  0 */\n      0x00\n        /* \"contracts/mem_flattened.sol\":32612:32621  taxAmount */\n      dup3\n        /* \"contracts/mem_flattened.sol\":32612:32625  taxAmount > 0 */\n      gt\n        /* \"contracts/mem_flattened.sol\":32608:33068  if (taxAmount > 0) {... */\n      iszero\n      tag_209\n      jumpi\n        /* \"contracts/mem_flattened.sol\":32641:32690  super._transfer(sender, address(this), taxAmount) */\n      tag_210\n        /* \"contracts/mem_flattened.sol\":32657:32663  sender */\n      dup8\n        /* \"contracts/mem_flattened.sol\":32673:32677  this */\n      address\n        /* \"contracts/mem_flattened.sol\":32680:32689  taxAmount */\n      dup5\n        /* \"contracts/mem_flattened.sol\":32641:32656  super._transfer */\n      tag_148\n        /* \"contracts/mem_flattened.sol\":32641:32690  super._transfer(sender, address(this), taxAmount) */\n      jump\t// in\n    tag_210:\n        /* \"contracts/mem_flattened.sol\":32709:32732  TaxCollected(taxAmount) */\n      0x092c6768ba45dfdc937f94a27a0c5be8334952f1558bc7dd41b3e8707502e1b6\n        /* \"contracts/mem_flattened.sol\":32722:32731  taxAmount */\n      dup3\n        /* \"contracts/mem_flattened.sol\":32709:32732  TaxCollected(taxAmount) */\n      mload(0x40)\n      tag_211\n      swap2\n      swap1\n      tag_37\n      jump\t// in\n    tag_211:\n      mload(0x40)\n      dup1\n      swap2\n      sub\n      swap1\n      log1\n        /* \"contracts/mem_flattened.sol\":32822:32840  uint256 burnTokens */\n      0x00\n        /* \"contracts/mem_flattened.sol\":32869:32872  100 */\n      0x64\n        /* \"contracts/mem_flattened.sol\":32856:32865  burnShare */\n      sload(0x09)\n        /* \"contracts/mem_flattened.sol\":32844:32853  taxAmount */\n      dup5\n        /* \"contracts/mem_flattened.sol\":32844:32865  taxAmount * burnShare */\n      tag_212\n      swap2\n      swap1\n      tag_197\n      jump\t// in\n    tag_212:\n        /* \"contracts/mem_flattened.sol\":32843:32872  (taxAmount * burnShare) / 100 */\n      tag_213\n      swap2\n      swap1\n      tag_199\n      jump\t// in\n    tag_213:\n        /* \"contracts/mem_flattened.sol\":32822:32872  uint256 burnTokens = (taxAmount * burnShare) / 100 */\n      swap1\n      pop\n        /* \"contracts/mem_flattened.sol\":32984:32985  0 */\n      0x00\n        /* \"contracts/mem_flattened.sol\":32971:32981  burnTokens */\n      dup2\n        /* \"contracts/mem_flattened.sol\":32971:32985  burnTokens > 0 */\n      gt\n        /* \"contracts/mem_flattened.sol\":32967:33058  if (burnTokens > 0) {... */\n      iszero\n      tag_214\n      jumpi\n        /* \"contracts/mem_flattened.sol\":33005:33043  super._burn(address(this), burnTokens) */\n      tag_215\n        /* \"contracts/mem_flattened.sol\":33025:33029  this */\n      address\n        /* \"contracts/mem_flattened.sol\":33032:33042  burnTokens */\n      dup3\n        /* \"contracts/mem_flattened.sol\":33005:33016  super._burn */\n      tag_216\n        /* \"contracts/mem_flattened.sol\":33005:33043  super._burn(address(this), burnTokens) */\n      jump\t// in\n    tag_215:\n        /* \"contracts/mem_flattened.sol\":32967:33058  if (burnTokens > 0) {... */\n    tag_214:\n        /* \"contracts/mem_flattened.sol\":32627:33068  {... */\n      pop\n        /* \"contracts/mem_flattened.sol\":32608:33068  if (taxAmount > 0) {... */\n    tag_209:\n        /* \"contracts/mem_flattened.sol\":33078:33123  super._transfer(sender, recipient, netAmount) */\n      tag_217\n        /* \"contracts/mem_flattened.sol\":33094:33100  sender */\n      dup8\n        /* \"contracts/mem_flattened.sol\":33102:33111  recipient */\n      dup8\n        /* \"contracts/mem_flattened.sol\":33113:33122  netAmount */\n      dup4\n        /* \"contracts/mem_flattened.sol\":33078:33093  super._transfer */\n      tag_148\n        /* \"contracts/mem_flattened.sol\":33078:33123  super._transfer(sender, recipient, netAmount) */\n      jump\t// in\n    tag_217:\n        /* \"contracts/mem_flattened.sol\":31923:33130  {... */\n      pop\n      pop\n      pop\n      pop\n        /* \"contracts/mem_flattened.sol\":31846:33130  function transfer(address sender, address recipient, uint256 amount) external{... */\n    tag_189:\n      pop\n      pop\n      pop\n      jump\t// out\n        /* \"contracts/mem_flattened.sol\":34050:34247  function setTaxes(uint256 _buyTax, uint256 _sellTax) external onlyOwner {... */\n    tag_107:\n        /* \"contracts/mem_flattened.sol\":14796:14809  _checkOwner() */\n      tag_219\n        /* \"contracts/mem_flattened.sol\":14796:14807  _checkOwner */\n      tag_151\n        /* \"contracts/mem_flattened.sol\":14796:14809  _checkOwner() */\n      jump\t// in\n    tag_219:\n        /* \"contracts/mem_flattened.sol\":34151:34153  10 */\n      0x0a\n        /* \"contracts/mem_flattened.sol\":34140:34147  _buyTax */\n      dup3\n        /* \"contracts/mem_flattened.sol\":34140:34153  _buyTax <= 10 */\n      gt\n      iszero\n        /* \"contracts/mem_flattened.sol\":34140:34171  _buyTax <= 10 && _sellTax <= 20 */\n      dup1\n      iszero\n      tag_221\n      jumpi\n      pop\n        /* \"contracts/mem_flattened.sol\":34169:34171  20 */\n      0x14\n        /* \"contracts/mem_flattened.sol\":34157:34165  _sellTax */\n      dup2\n        /* \"contracts/mem_flattened.sol\":34157:34171  _sellTax <= 20 */\n      gt\n      iszero\n        /* \"contracts/mem_flattened.sol\":34140:34171  _buyTax <= 10 && _sellTax <= 20 */\n    tag_221:\n        /* \"contracts/mem_flattened.sol\":34132:34186  require(_buyTax <= 10 && _sellTax <= 20, TaxTooHigh()) */\n      tag_222\n      jumpi\n      mload(0x40)\n      0xaf1ee13400000000000000000000000000000000000000000000000000000000\n      dup2\n      mstore\n      0x04\n      add\n      mload(0x40)\n      dup1\n      swap2\n      sub\n      swap1\n      revert\n    tag_222:\n        /* \"contracts/mem_flattened.sol\":34205:34212  _buyTax */\n      dup2\n        /* \"contracts/mem_flattened.sol\":34196:34202  buyTax */\n      0x06\n        /* \"contracts/mem_flattened.sol\":34196:34212  buyTax = _buyTax */\n      dup2\n      swap1\n      sstore\n      pop\n        /* \"contracts/mem_flattened.sol\":34232:34240  _sellTax */\n      dup1\n        /* \"contracts/mem_flattened.sol\":34222:34229  sellTax */\n      0x07\n        /* \"contracts/mem_flattened.sol\":34222:34240  sellTax = _sellTax */\n      dup2\n      swap1\n      sstore\n      pop\n        /* \"contracts/mem_flattened.sol\":34050:34247  function setTaxes(uint256 _buyTax, uint256 _sellTax) external onlyOwner {... */\n      pop\n      pop\n      jump\t// out\n        /* \"contracts/mem_flattened.sol\":33915:34044  function excludeFromTax(address account, bool excluded) external onlyOwner {... */\n    tag_111:\n        /* \"contracts/mem_flattened.sol\":14796:14809  _checkOwner() */\n      tag_224\n        /* \"contracts/mem_flattened.sol\":14796:14807  _checkOwner */\n      tag_151\n        /* \"contracts/mem_flattened.sol\":14796:14809  _checkOwner() */\n      jump\t// in\n    tag_224:\n        /* \"contracts/mem_flattened.sol\":34029:34037  excluded */\n      dup1\n        /* \"contracts/mem_flattened.sol\":34000:34017  isExcludedFromTax */\n      0x0d\n        /* \"contracts/mem_flattened.sol\":34000:34026  isExcludedFromTax[account] */\n      0x00\n        /* \"contracts/mem_flattened.sol\":34018:34025  account */\n      dup5\n        /* \"contracts/mem_flattened.sol\":34000:34026  isExcludedFromTax[account] */\n      0xffffffffffffffffffffffffffffffffffffffff\n      and\n      0xffffffffffffffffffffffffffffffffffffffff\n      and\n      dup2\n      mstore\n      0x20\n      add\n      swap1\n      dup2\n      mstore\n      0x20\n      add\n      0x00\n      keccak256\n      0x00\n        /* \"contracts/mem_flattened.sol\":34000:34037  isExcludedFromTax[account] = excluded */\n      0x0100\n      exp\n      dup2\n      sload\n      dup2\n      0xff\n      mul\n      not\n      and\n      swap1\n      dup4\n      iszero\n      iszero\n      mul\n      or\n      swap1\n      sstore\n      pop\n        /* \"contracts/mem_flattened.sol\":33915:34044  function excludeFromTax(address account, bool excluded) external onlyOwner {... */\n      pop\n      pop\n      jump\t// out\n        /* \"contracts/mem_flattened.sol\":31079:31105  address public uniswapPair */\n    tag_113:\n      0x0c\n      0x00\n      swap1\n      sload\n      swap1\n      0x0100\n      exp\n      swap1\n      div\n      0xffffffffffffffffffffffffffffffffffffffff\n      and\n      dup2\n      jump\t// out\n        /* \"contracts/mem_flattened.sol\":31199:31248  mapping(address => bool) public isExcludedFromTax */\n    tag_117:\n      mstore(0x20, 0x0d)\n      dup1\n      0x00\n      mstore\n      keccak256(0x00, 0x40)\n      0x00\n      swap2\n      pop\n      sload\n      swap1\n      0x0100\n      exp\n      swap1\n      div\n      0xff\n      and\n      dup2\n      jump\t// out\n        /* \"contracts/mem_flattened.sol\":30887:30914  uint256 public sellTax = 10 */\n    tag_120:\n      sload(0x07)\n      dup2\n      jump\t// out\n        /* \"contracts/mem_flattened.sol\":23230:23370  function allowance(address owner, address spender) public view virtual returns (uint256) {... */\n    tag_125:\n        /* \"contracts/mem_flattened.sol\":23310:23317  uint256 */\n      0x00\n        /* \"contracts/mem_flattened.sol\":23336:23347  _allowances */\n      0x01\n        /* \"contracts/mem_flattened.sol\":23336:23354  _allowances[owner] */\n      0x00\n        /* \"contracts/mem_flattened.sol\":23348:23353  owner */\n      dup5\n        /* \"contracts/mem_flattened.sol\":23336:23354  _allowances[owner] */\n      0xffffffffffffffffffffffffffffffffffffffff\n      and\n      0xffffffffffffffffffffffffffffffffffffffff\n      and\n      dup2\n      mstore\n      0x20\n      add\n      swap1\n      dup2\n      mstore\n      0x20\n      add\n      0x00\n      keccak256\n        /* \"contracts/mem_flattened.sol\":23336:23363  _allowances[owner][spender] */\n      0x00\n        /* \"contracts/mem_flattened.sol\":23355:23362  spender */\n      dup4\n        /* \"contracts/mem_flattened.sol\":23336:23363  _allowances[owner][spender] */\n      0xffffffffffffffffffffffffffffffffffffffff\n      and\n      0xffffffffffffffffffffffffffffffffffffffff\n      and\n      dup2\n      mstore\n      0x20\n      add\n      swap1\n      dup2\n      mstore\n      0x20\n      add\n      0x00\n      keccak256\n      sload\n        /* \"contracts/mem_flattened.sol\":23329:23363  return _allowances[owner][spender] */\n      swap1\n      pop\n        /* \"contracts/mem_flattened.sol\":23230:23370  function allowance(address owner, address spender) public view virtual returns (uint256) {... */\n      swap3\n      swap2\n      pop\n      pop\n      jump\t// out\n        /* \"contracts/mem_flattened.sol\":15808:16023  function transferOwnership(address newOwner) public virtual onlyOwner {... */\n    tag_129:\n        /* \"contracts/mem_flattened.sol\":14796:14809  _checkOwner() */\n      tag_228\n        /* \"contracts/mem_flattened.sol\":14796:14807  _checkOwner */\n      tag_151\n        /* \"contracts/mem_flattened.sol\":14796:14809  _checkOwner() */\n      jump\t// in\n    tag_228:\n        /* \"contracts/mem_flattened.sol\":15912:15913  0 */\n      0x00\n        /* \"contracts/mem_flattened.sol\":15892:15914  newOwner == address(0) */\n      0xffffffffffffffffffffffffffffffffffffffff\n      and\n        /* \"contracts/mem_flattened.sol\":15892:15900  newOwner */\n      dup2\n        /* \"contracts/mem_flattened.sol\":15892:15914  newOwner == address(0) */\n      0xffffffffffffffffffffffffffffffffffffffff\n      and\n      sub\n        /* \"contracts/mem_flattened.sol\":15888:15979  if (newOwner == address(0)) {... */\n      tag_230\n      jumpi\n        /* \"contracts/mem_flattened.sol\":15965:15966  0 */\n      0x00\n        /* \"contracts/mem_flattened.sol\":15937:15968  OwnableInvalidOwner(address(0)) */\n      mload(0x40)\n      0x1e4fbdf700000000000000000000000000000000000000000000000000000000\n      dup2\n      mstore\n      0x04\n      add\n      tag_231\n      swap2\n      swap1\n      tag_77\n      jump\t// in\n    tag_231:\n      mload(0x40)\n      dup1\n      swap2\n      sub\n      swap1\n      revert\n        /* \"contracts/mem_flattened.sol\":15888:15979  if (newOwner == address(0)) {... */\n    tag_230:\n        /* \"contracts/mem_flattened.sol\":15988:16016  _transferOwnership(newOwner) */\n      tag_232\n        /* \"contracts/mem_flattened.sol\":16007:16015  newOwner */\n      dup2\n        /* \"contracts/mem_flattened.sol\":15988:16006  _transferOwnership */\n      tag_178\n        /* \"contracts/mem_flattened.sol\":15988:16016  _transferOwnership(newOwner) */\n      jump\t// in\n    tag_232:\n        /* \"contracts/mem_flattened.sol\":15808:16023  function transferOwnership(address newOwner) public virtual onlyOwner {... */\n      pop\n      jump\t// out\n        /* \"contracts/mem_flattened.sol\":12981:13077  function _msgSender() internal view virtual returns (address) {... */\n    tag_139:\n        /* \"contracts/mem_flattened.sol\":13034:13041  address */\n      0x00\n        /* \"contracts/mem_flattened.sol\":13060:13070  msg.sender */\n      caller\n        /* \"contracts/mem_flattened.sol\":13053:13070  return msg.sender */\n      swap1\n      pop\n        /* \"contracts/mem_flattened.sol\":12981:13077  function _msgSender() internal view virtual returns (address) {... */\n      swap1\n      jump\t// out\n        /* \"contracts/mem_flattened.sol\":28405:28533  function _approve(address owner, address spender, uint256 value) internal {... */\n    tag_141:\n        /* \"contracts/mem_flattened.sol\":28489:28526  _approve(owner, spender, value, true) */\n      tag_235\n        /* \"contracts/mem_flattened.sol\":28498:28503  owner */\n      dup4\n        /* \"contracts/mem_flattened.sol\":28505:28512  spender */\n      dup4\n        /* \"contracts/mem_flattened.sol\":28514:28519  value */\n      dup4\n        /* \"contracts/mem_flattened.sol\":28521:28525  true */\n      0x01\n        /* \"contracts/mem_flattened.sol\":28489:28497  _approve */\n      tag_236\n        /* \"contracts/mem_flattened.sol\":28489:28526  _approve(owner, spender, value, true) */\n      jump\t// in\n    tag_235:\n        /* \"contracts/mem_flattened.sol\":28405:28533  function _approve(address owner, address spender, uint256 value) internal {... */\n      pop\n      pop\n      pop\n      jump\t// out\n        /* \"contracts/mem_flattened.sol\":30094:30570  function _spendAllowance(address owner, address spender, uint256 value) internal virtual {... */\n    tag_146:\n        /* \"contracts/mem_flattened.sol\":30193:30217  uint256 currentAllowance */\n      0x00\n        /* \"contracts/mem_flattened.sol\":30220:30245  allowance(owner, spender) */\n      tag_238\n        /* \"contracts/mem_flattened.sol\":30230:30235  owner */\n      dup5\n        /* \"contracts/mem_flattened.sol\":30237:30244  spender */\n      dup5\n        /* \"contracts/mem_flattened.sol\":30220:30229  allowance */\n      tag_125\n        /* \"contracts/mem_flattened.sol\":30220:30245  allowance(owner, spender) */\n      jump\t// in\n    tag_238:\n        /* \"contracts/mem_flattened.sol\":30193:30245  uint256 currentAllowance = allowance(owner, spender) */\n      swap1\n      pop\n        /* \"contracts/mem_flattened.sol\":30278:30295  type(uint256).max */\n      0xffffffffffffffffffffffffffffffffffffffffffffffffffffffffffffffff\n        /* \"contracts/mem_flattened.sol\":30259:30275  currentAllowance */\n      dup2\n        /* \"contracts/mem_flattened.sol\":30259:30295  currentAllowance < type(uint256).max */\n      lt\n        /* \"contracts/mem_flattened.sol\":30255:30564  if (currentAllowance < type(uint256).max) {... */\n      iszero\n      tag_239\n      jumpi\n        /* \"contracts/mem_flattened.sol\":30334:30339  value */\n      dup2\n        /* \"contracts/mem_flattened.sol\":30315:30331  currentAllowance */\n      dup2\n        /* \"contracts/mem_flattened.sol\":30315:30339  currentAllowance < value */\n      lt\n        /* \"contracts/mem_flattened.sol\":30311:30441  if (currentAllowance < value) {... */\n      iszero\n      tag_240\n      jumpi\n        /* \"contracts/mem_flattened.sol\":30393:30400  spender */\n      dup3\n        /* \"contracts/mem_flattened.sol\":30402:30418  currentAllowance */\n      dup2\n        /* \"contracts/mem_flattened.sol\":30420:30425  value */\n      dup4\n        /* \"contracts/mem_flattened.sol\":30366:30426  ERC20InsufficientAllowance(spender, currentAllowance, value) */\n      mload(0x40)\n      0xfb8f41b200000000000000000000000000000000000000000000000000000000\n      dup2\n      mstore\n      0x04\n      add\n      tag_241\n      swap4\n      swap3\n      swap2\n      swap1\n      tag_242\n      jump\t// in\n    tag_241:\n      mload(0x40)\n      dup1\n      swap2\n      sub\n      swap1\n      revert\n        /* \"contracts/mem_flattened.sol\":30311:30441  if (currentAllowance < value) {... */\n    tag_240:\n        /* \"contracts/mem_flattened.sol\":30482:30539  _approve(owner, spender, currentAllowance - value, false) */\n      tag_243\n        /* \"contracts/mem_flattened.sol\":30491:30496  owner */\n      dup5\n        /* \"contracts/mem_flattened.sol\":30498:30505  spender */\n      dup5\n        /* \"contracts/mem_flattened.sol\":30526:30531  value */\n      dup5\n        /* \"contracts/mem_flattened.sol\":30507:30523  currentAllowance */\n      dup5\n        /* \"contracts/mem_flattened.sol\":30507:30531  currentAllowance - value */\n      sub\n        /* \"contracts/mem_flattened.sol\":30533:30538  false */\n      0x00\n        /* \"contracts/mem_flattened.sol\":30482:30490  _approve */\n      tag_236\n        /* \"contracts/mem_flattened.sol\":30482:30539  _approve(owner, spender, currentAllowance - value, false) */\n      jump\t// in\n    tag_243:\n        /* \"contracts/mem_flattened.sol\":30255:30564  if (currentAllowance < type(uint256).max) {... */\n    tag_239:\n        /* \"contracts/mem_flattened.sol\":30183:30570  {... */\n      pop\n        /* \"contracts/mem_flattened.sol\":30094:30570  function _spendAllowance(address owner, address spender, uint256 value) internal virtual {... */\n      pop\n      pop\n      pop\n      jump\t// out\n        /* \"contracts/mem_flattened.sol\":25072:25372  function _transfer(address from, address to, uint256 value) internal {... */\n    tag_148:\n        /* \"contracts/mem_flattened.sol\":25171:25172  0 */\n      0x00\n        /* \"contracts/mem_flattened.sol\":25155:25173  from == address(0) */\n      0xffffffffffffffffffffffffffffffffffffffff\n      and\n        /* \"contracts/mem_flattened.sol\":25155:25159  from */\n      dup4\n        /* \"contracts/mem_flattened.sol\":25155:25173  from == address(0) */\n      0xffffffffffffffffffffffffffffffffffffffff\n      and\n      sub\n        /* \"contracts/mem_flattened.sol\":25151:25237  if (from == address(0)) {... */\n      tag_245\n      jumpi\n        /* \"contracts/mem_flattened.sol\":25223:25224  0 */\n      0x00\n        /* \"contracts/mem_flattened.sol\":25196:25226  ERC20InvalidSender(address(0)) */\n      mload(0x40)\n      0x96c6fd1e00000000000000000000000000000000000000000000000000000000\n      dup2\n      mstore\n      0x04\n      add\n      tag_246\n      swap2\n      swap1\n      tag_77\n      jump\t// in\n    tag_246:\n      mload(0x40)\n      dup1\n      swap2\n      sub\n      swap1\n      revert\n        /* \"contracts/mem_flattened.sol\":25151:25237  if (from == address(0)) {... */\n    tag_245:\n        /* \"contracts/mem_flattened.sol\":25264:25265  0 */\n      0x00\n        /* \"contracts/mem_flattened.sol\":25250:25266  to == address(0) */\n      0xffffffffffffffffffffffffffffffffffffffff\n      and\n        /* \"contracts/mem_flattened.sol\":25250:25252  to */\n      dup3\n        /* \"contracts/mem_flattened.sol\":25250:25266  to == address(0) */\n      0xffffffffffffffffffffffffffffffffffffffff\n      and\n      sub\n        /* \"contracts/mem_flattened.sol\":25246:25332  if (to == address(0)) {... */\n      tag_247\n      jumpi\n        /* \"contracts/mem_flattened.sol\":25318:25319  0 */\n      0x00\n        /* \"contracts/mem_flattened.sol\":25289:25321  ERC20InvalidReceiver(address(0)) */\n      mload(0x40)\n      0xec442f0500000000000000000000000000000000000000000000000000000000\n      dup2\n      mstore\n      0x04\n      add\n      tag_248\n      swap2\n      swap1\n      tag_77\n      jump\t// in\n    tag_248:\n      mload(0x40)\n      dup1\n      swap2\n      sub\n      swap1\n      revert\n        /* \"contracts/mem_flattened.sol\":25246:25332  if (to == address(0)) {... */\n    tag_247:\n        /* \"contracts/mem_flattened.sol\":25341:25365  _update(from, to, value) */\n      tag_249\n        /* \"contracts/mem_flattened.sol\":25349:25353  from */\n      dup4\n        /* \"contracts/mem_flattened.sol\":25355:25357  to */\n      dup4\n        /* \"contracts/mem_flattened.sol\":25359:25364  value */\n      dup4\n        /* \"contracts/mem_flattened.sol\":25341:25348  _update */\n      tag_250\n        /* \"contracts/mem_flattened.sol\":25341:25365  _update(from, to, value) */\n      jump\t// in\n    tag_249:\n        /* \"contracts/mem_flattened.sol\":25072:25372  function _transfer(address from, address to, uint256 value) internal {... */\n      pop\n      pop\n      pop\n      jump\t// out\n        /* \"contracts/mem_flattened.sol\":15061:15223  function _checkOwner() internal view virtual {... */\n    tag_151:\n        /* \"contracts/mem_flattened.sol\":15131:15143  _msgSender() */\n      tag_252\n        /* \"contracts/mem_flattened.sol\":15131:15141  _msgSender */\n      tag_139\n        /* \"contracts/mem_flattened.sol\":15131:15143  _msgSender() */\n      jump\t// in\n    tag_252:\n        /* \"contracts/mem_flattened.sol\":15120:15143  owner() != _msgSender() */\n      0xffffffffffffffffffffffffffffffffffffffff\n      and\n        /* \"contracts/mem_flattened.sol\":15120:15127  owner() */\n      tag_253\n        /* \"contracts/mem_flattened.sol\":15120:15125  owner */\n      tag_92\n        /* \"contracts/mem_flattened.sol\":15120:15127  owner() */\n      jump\t// in\n    tag_253:\n        /* \"contracts/mem_flattened.sol\":15120:15143  owner() != _msgSender() */\n      0xffffffffffffffffffffffffffffffffffffffff\n      and\n      eq\n        /* \"contracts/mem_flattened.sol\":15116:15217  if (owner() != _msgSender()) {... */\n      tag_254\n      jumpi\n        /* \"contracts/mem_flattened.sol\":15193:15205  _msgSender() */\n      tag_255\n        /* \"contracts/mem_flattened.sol\":15193:15203  _msgSender */\n      tag_139\n        /* \"contracts/mem_flattened.sol\":15193:15205  _msgSender() */\n      jump\t// in\n    tag_255:\n        /* \"contracts/mem_flattened.sol\":15166:15206  OwnableUnauthorizedAccount(_msgSender()) */\n      mload(0x40)\n      0x118cdaa700000000000000000000000000000000000000000000000000000000\n      dup2\n      mstore\n      0x04\n      add\n      tag_256\n      swap2\n      swap1\n      tag_77\n      jump\t// in\n    tag_256:\n      mload(0x40)\n      dup1\n      swap2\n      sub\n      swap1\n      revert\n        /* \"contracts/mem_flattened.sol\":15116:15217  if (owner() != _msgSender()) {... */\n    tag_254:\n        /* \"contracts/mem_flattened.sol\":15061:15223  function _checkOwner() internal view virtual {... */\n      jump\t// out\n        /* \"contracts/mem_flattened.sol\":16177:16364  function _transferOwnership(address newOwner) internal virtual {... */\n    tag_178:\n        /* \"contracts/mem_flattened.sol\":16250:16266  address oldOwner */\n      0x00\n        /* \"contracts/mem_flattened.sol\":16269:16275  _owner */\n      0x05\n      0x00\n      swap1\n      sload\n      swap1\n      0x0100\n      exp\n      swap1\n      div\n      0xffffffffffffffffffffffffffffffffffffffff\n      and\n        /* \"contracts/mem_flattened.sol\":16250:16275  address oldOwner = _owner */\n      swap1\n      pop\n        /* \"contracts/mem_flattened.sol\":16294:16302  newOwner */\n      dup2\n        /* \"contracts/mem_flattened.sol\":16285:16291  _owner */\n      0x05\n      0x00\n        /* \"contracts/mem_flattened.sol\":16285:16302  _owner = newOwner */\n      0x0100\n      exp\n      dup2\n      sload\n      dup2\n      0xffffffffffffffffffffffffffffffffffffffff\n      mul\n      not\n      and\n      swap1\n      dup4\n      0xffffffffffffffffffffffffffffffffffffffff\n      and\n      mul\n      or\n      swap1\n      sstore\n      pop\n        /* \"contracts/mem_flattened.sol\":16348:16356  newOwner */\n      dup2\n        /* \"contracts/mem_flattened.sol\":16317:16357  OwnershipTransferred(oldOwner, newOwner) */\n      0xffffffffffffffffffffffffffffffffffffffff\n      and\n        /* \"contracts/mem_flattened.sol\":16338:16346  oldOwner */\n      dup2\n        /* \"contracts/mem_flattened.sol\":16317:16357  OwnershipTransferred(oldOwner, newOwner) */\n      0xffffffffffffffffffffffffffffffffffffffff\n      and\n      0x8be0079c531659141344cd1fd0a4f28419497f9722a3daafe3b4186f6b6457e0\n      mload(0x40)\n      mload(0x40)\n      dup1\n      swap2\n      sub\n      swap1\n      log3\n        /* \"contracts/mem_flattened.sol\":16240:16364  {... */\n      pop\n        /* \"contracts/mem_flattened.sol\":16177:16364  function _transferOwnership(address newOwner) internal virtual {... */\n      pop\n      jump\t// out\n        /* \"contracts/mem_flattened.sol\":27663:27869  function _burn(address account, uint256 value) internal {... */\n    tag_216:\n        /* \"contracts/mem_flattened.sol\":27752:27753  0 */\n      0x00\n        /* \"contracts/mem_flattened.sol\":27733:27754  account == address(0) */\n      0xffffffffffffffffffffffffffffffffffffffff\n      and\n        /* \"contracts/mem_flattened.sol\":27733:27740  account */\n      dup3\n        /* \"contracts/mem_flattened.sol\":27733:27754  account == address(0) */\n      0xffffffffffffffffffffffffffffffffffffffff\n      and\n      sub\n        /* \"contracts/mem_flattened.sol\":27729:27818  if (account == address(0)) {... */\n      tag_259\n      jumpi\n        /* \"contracts/mem_flattened.sol\":27804:27805  0 */\n      0x00\n        /* \"contracts/mem_flattened.sol\":27777:27807  ERC20InvalidSender(address(0)) */\n      mload(0x40)\n      0x96c6fd1e00000000000000000000000000000000000000000000000000000000\n      dup2\n      mstore\n      0x04\n      add\n      tag_260\n      swap2\n      swap1\n      tag_77\n      jump\t// in\n    tag_260:\n      mload(0x40)\n      dup1\n      swap2\n      sub\n      swap1\n      revert\n        /* \"contracts/mem_flattened.sol\":27729:27818  if (account == address(0)) {... */\n    tag_259:\n        /* \"contracts/mem_flattened.sol\":27827:27862  _update(account, address(0), value) */\n      tag_261\n        /* \"contracts/mem_flattened.sol\":27835:27842  account */\n      dup3\n        /* \"contracts/mem_flattened.sol\":27852:27853  0 */\n      0x00\n        /* \"contracts/mem_flattened.sol\":27856:27861  value */\n      dup4\n        /* \"contracts/mem_flattened.sol\":27827:27834  _update */\n      tag_250\n        /* \"contracts/mem_flattened.sol\":27827:27862  _update(account, address(0), value) */\n      jump\t// in\n    tag_261:\n        /* \"contracts/mem_flattened.sol\":27663:27869  function _burn(address account, uint256 value) internal {... */\n      pop\n      pop\n      jump\t// out\n        /* \"contracts/mem_flattened.sol\":29380:29812  function _approve(address owner, address spender, uint256 value, bool emitEvent) internal virtual {... */\n    tag_236:\n        /* \"contracts/mem_flattened.sol\":29509:29510  0 */\n      0x00\n        /* \"contracts/mem_flattened.sol\":29492:29511  owner == address(0) */\n      0xffffffffffffffffffffffffffffffffffffffff\n      and\n        /* \"contracts/mem_flattened.sol\":29492:29497  owner */\n      dup5\n        /* \"contracts/mem_flattened.sol\":29492:29511  owner == address(0) */\n      0xffffffffffffffffffffffffffffffffffffffff\n      and\n      sub\n        /* \"contracts/mem_flattened.sol\":29488:29577  if (owner == address(0)) {... */\n      tag_263\n      jumpi\n        /* \"contracts/mem_flattened.sol\":29563:29564  0 */\n      0x00\n        /* \"contracts/mem_flattened.sol\":29534:29566  ERC20InvalidApprover(address(0)) */\n      mload(0x40)\n      0xe602df0500000000000000000000000000000000000000000000000000000000\n      dup2\n      mstore\n      0x04\n      add\n      tag_264\n      swap2\n      swap1\n      tag_77\n      jump\t// in\n    tag_264:\n      mload(0x40)\n      dup1\n      swap2\n      sub\n      swap1\n      revert\n        /* \"contracts/mem_flattened.sol\":29488:29577  if (owner == address(0)) {... */\n    tag_263:\n        /* \"contracts/mem_flattened.sol\":29609:29610  0 */\n      0x00\n        /* \"contracts/mem_flattened.sol\":29590:29611  spender == address(0) */\n      0xffffffffffffffffffffffffffffffffffffffff\n      and\n        /* \"contracts/mem_flattened.sol\":29590:29597  spender */\n      dup4\n        /* \"contracts/mem_flattened.sol\":29590:29611  spender == address(0) */\n      0xffffffffffffffffffffffffffffffffffffffff\n      and\n      sub\n        /* \"contracts/mem_flattened.sol\":29586:29676  if (spender == address(0)) {... */\n      tag_265\n      jumpi\n        /* \"contracts/mem_flattened.sol\":29662:29663  0 */\n      0x00\n        /* \"contracts/mem_flattened.sol\":29634:29665  ERC20InvalidSpender(address(0)) */\n      mload(0x40)\n      0x94280d6200000000000000000000000000000000000000000000000000000000\n      dup2\n      mstore\n      0x04\n      add\n      tag_266\n      swap2\n      swap1\n      tag_77\n      jump\t// in\n    tag_266:\n      mload(0x40)\n      dup1\n      swap2\n      sub\n      swap1\n      revert\n        /* \"contracts/mem_flattened.sol\":29586:29676  if (spender == address(0)) {... */\n    tag_265:\n        /* \"contracts/mem_flattened.sol\":29715:29720  value */\n      dup2\n        /* \"contracts/mem_flattened.sol\":29685:29696  _allowances */\n      0x01\n        /* \"contracts/mem_flattened.sol\":29685:29703  _allowances[owner] */\n      0x00\n        /* \"contracts/mem_flattened.sol\":29697:29702  owner */\n      dup7\n        /* \"contracts/mem_flattened.sol\":29685:29703  _allowances[owner] */\n      0xffffffffffffffffffffffffffffffffffffffff\n      and\n      0xffffffffffffffffffffffffffffffffffffffff\n      and\n      dup2\n      mstore\n      0x20\n      add\n      swap1\n      dup2\n      mstore\n      0x20\n      add\n      0x00\n      keccak256\n        /* \"contracts/mem_flattened.sol\":29685:29712  _allowances[owner][spender] */\n      0x00\n        /* \"contracts/mem_flattened.sol\":29704:29711  spender */\n      dup6\n        /* \"contracts/mem_flattened.sol\":29685:29712  _allowances[owner][spender] */\n      0xffffffffffffffffffffffffffffffffffffffff\n      and\n      0xffffffffffffffffffffffffffffffffffffffff\n      and\n      dup2\n      mstore\n      0x20\n      add\n      swap1\n      dup2\n      mstore\n      0x20\n      add\n      0x00\n      keccak256\n        /* \"contracts/mem_flattened.sol\":29685:29720  _allowances[owner][spender] = value */\n      dup2\n      swap1\n      sstore\n      pop\n        /* \"contracts/mem_flattened.sol\":29734:29743  emitEvent */\n      dup1\n        /* \"contracts/mem_flattened.sol\":29730:29806  if (emitEvent) {... */\n      iszero\n      tag_267\n      jumpi\n        /* \"contracts/mem_flattened.sol\":29780:29787  spender */\n      dup3\n        /* \"contracts/mem_flattened.sol\":29764:29795  Approval(owner, spender, value) */\n      0xffffffffffffffffffffffffffffffffffffffff\n      and\n        /* \"contracts/mem_flattened.sol\":29773:29778  owner */\n      dup5\n        /* \"contracts/mem_flattened.sol\":29764:29795  Approval(owner, spender, value) */\n      0xffffffffffffffffffffffffffffffffffffffff\n      and\n      0x8c5be1e5ebec7d5bd14f71427d1e84f3dd0314c0f7b2291e5b200ac8c7c3b925\n        /* \"contracts/mem_flattened.sol\":29789:29794  value */\n      dup5\n        /* \"contracts/mem_flattened.sol\":29764:29795  Approval(owner, spender, value) */\n      mload(0x40)\n      tag_268\n      swap2\n      swap1\n      tag_37\n      jump\t// in\n    tag_268:\n      mload(0x40)\n      dup1\n      swap2\n      sub\n      swap1\n      log3\n        /* \"contracts/mem_flattened.sol\":29730:29806  if (emitEvent) {... */\n    tag_267:\n        /* \"contracts/mem_flattened.sol\":29380:29812  function _approve(address owner, address spender, uint256 value, bool emitEvent) internal virtual {... */\n      pop\n      pop\n      pop\n      pop\n      jump\t// out\n        /* \"contracts/mem_flattened.sol\":25687:26794  function _update(address from, address to, uint256 value) internal virtual {... */\n    tag_250:\n        /* \"contracts/mem_flattened.sol\":25792:25793  0 */\n      0x00\n        /* \"contracts/mem_flattened.sol\":25776:25794  from == address(0) */\n      0xffffffffffffffffffffffffffffffffffffffff\n      and\n        /* \"contracts/mem_flattened.sol\":25776:25780  from */\n      dup4\n        /* \"contracts/mem_flattened.sol\":25776:25794  from == address(0) */\n      0xffffffffffffffffffffffffffffffffffffffff\n      and\n      sub\n        /* \"contracts/mem_flattened.sol\":25772:26312  if (from == address(0)) {... */\n      tag_270\n      jumpi\n        /* \"contracts/mem_flattened.sol\":25928:25933  value */\n      dup1\n        /* \"contracts/mem_flattened.sol\":25912:25924  _totalSupply */\n      0x02\n      0x00\n        /* \"contracts/mem_flattened.sol\":25912:25933  _totalSupply += value */\n      dup3\n      dup3\n      sload\n      tag_271\n      swap2\n      swap1\n      tag_207\n      jump\t// in\n    tag_271:\n      swap3\n      pop\n      pop\n      dup2\n      swap1\n      sstore\n      pop\n        /* \"contracts/mem_flattened.sol\":25772:26312  if (from == address(0)) {... */\n      jump(tag_272)\n    tag_270:\n        /* \"contracts/mem_flattened.sol\":25964:25983  uint256 fromBalance */\n      0x00\n        /* \"contracts/mem_flattened.sol\":25986:25995  _balances */\n      0x00\n        /* \"contracts/mem_flattened.sol\":25986:26001  _balances[from] */\n      0x00\n        /* \"contracts/mem_flattened.sol\":25996:26000  from */\n      dup6\n        /* \"contracts/mem_flattened.sol\":25986:26001  _balances[from] */\n      0xffffffffffffffffffffffffffffffffffffffff\n      and\n      0xffffffffffffffffffffffffffffffffffffffff\n      and\n      dup2\n      mstore\n      0x20\n      add\n      swap1\n      dup2\n      mstore\n      0x20\n      add\n      0x00\n      keccak256\n      sload\n        /* \"contracts/mem_flattened.sol\":25964:26001  uint256 fromBalance = _balances[from] */\n      swap1\n      pop\n        /* \"contracts/mem_flattened.sol\":26033:26038  value */\n      dup2\n        /* \"contracts/mem_flattened.sol\":26019:26030  fromBalance */\n      dup2\n        /* \"contracts/mem_flattened.sol\":26019:26038  fromBalance < value */\n      lt\n        /* \"contracts/mem_flattened.sol\":26015:26130  if (fromBalance < value) {... */\n      iszero\n      tag_273\n      jumpi\n        /* \"contracts/mem_flattened.sol\":26090:26094  from */\n      dup4\n        /* \"contracts/mem_flattened.sol\":26096:26107  fromBalance */\n      dup2\n        /* \"contracts/mem_flattened.sol\":26109:26114  value */\n      dup4\n        /* \"contracts/mem_flattened.sol\":26065:26115  ERC20InsufficientBalance(from, fromBalance, value) */\n      mload(0x40)\n      0xe450d38c00000000000000000000000000000000000000000000000000000000\n      dup2\n      mstore\n      0x04\n      add\n      tag_274\n      swap4\n      swap3\n      swap2\n      swap1\n      tag_242\n      jump\t// in\n    tag_274:\n      mload(0x40)\n      dup1\n      swap2\n      sub\n      swap1\n      revert\n        /* \"contracts/mem_flattened.sol\":26015:26130  if (fromBalance < value) {... */\n    tag_273:\n        /* \"contracts/mem_flattened.sol\":26282:26287  value */\n      dup2\n        /* \"contracts/mem_flattened.sol\":26268:26279  fromBalance */\n      dup2\n        /* \"contracts/mem_flattened.sol\":26268:26287  fromBalance - value */\n      sub\n        /* \"contracts/mem_flattened.sol\":26250:26259  _balances */\n      0x00\n        /* \"contracts/mem_flattened.sol\":26250:26265  _balances[from] */\n      0x00\n        /* \"contracts/mem_flattened.sol\":26260:26264  from */\n      dup7\n        /* \"contracts/mem_flattened.sol\":26250:26265  _balances[from] */\n      0xffffffffffffffffffffffffffffffffffffffff\n      and\n      0xffffffffffffffffffffffffffffffffffffffff\n      and\n      dup2\n      mstore\n      0x20\n      add\n      swap1\n      dup2\n      mstore\n      0x20\n      add\n      0x00\n      keccak256\n        /* \"contracts/mem_flattened.sol\":26250:26287  _balances[from] = fromBalance - value */\n      dup2\n      swap1\n      sstore\n      pop\n        /* \"contracts/mem_flattened.sol\":25950:26312  {... */\n      pop\n        /* \"contracts/mem_flattened.sol\":25772:26312  if (from == address(0)) {... */\n    tag_272:\n        /* \"contracts/mem_flattened.sol\":26340:26341  0 */\n      0x00\n        /* \"contracts/mem_flattened.sol\":26326:26342  to == address(0) */\n      0xffffffffffffffffffffffffffffffffffffffff\n      and\n        /* \"contracts/mem_flattened.sol\":26326:26328  to */\n      dup3\n        /* \"contracts/mem_flattened.sol\":26326:26342  to == address(0) */\n      0xffffffffffffffffffffffffffffffffffffffff\n      and\n      sub\n        /* \"contracts/mem_flattened.sol\":26322:26747  if (to == address(0)) {... */\n      tag_275\n      jumpi\n        /* \"contracts/mem_flattened.sol\":26505:26510  value */\n      dup1\n        /* \"contracts/mem_flattened.sol\":26489:26501  _totalSupply */\n      0x02\n      0x00\n        /* \"contracts/mem_flattened.sol\":26489:26510  _totalSupply -= value */\n      dup3\n      dup3\n      sload\n      sub\n      swap3\n      pop\n      pop\n      dup2\n      swap1\n      sstore\n      pop\n        /* \"contracts/mem_flattened.sol\":26322:26747  if (to == address(0)) {... */\n      jump(tag_276)\n    tag_275:\n        /* \"contracts/mem_flattened.sol\":26717:26722  value */\n      dup1\n        /* \"contracts/mem_flattened.sol\":26700:26709  _balances */\n      0x00\n        /* \"contracts/mem_flattened.sol\":26700:26713  _balances[to] */\n      0x00\n        /* \"contracts/mem_flattened.sol\":26710:26712  to */\n      dup5\n        /* \"contracts/mem_flattened.sol\":26700:26713  _balances[to] */\n      0xffffffffffffffffffffffffffffffffffffffff\n      and\n      0xffffffffffffffffffffffffffffffffffffffff\n      and\n      dup2\n      mstore\n      0x20\n      add\n      swap1\n      dup2\n      mstore\n      0x20\n      add\n      0x00\n      keccak256\n      0x00\n        /* \"contracts/mem_flattened.sol\":26700:26722  _balances[to] += value */\n      dup3\n      dup3\n      sload\n      add\n      swap3\n      pop\n      pop\n      dup2\n      swap1\n      sstore\n      pop\n        /* \"contracts/mem_flattened.sol\":26322:26747  if (to == address(0)) {... */\n    tag_276:\n        /* \"contracts/mem_flattened.sol\":26777:26779  to */\n      dup2\n        /* \"contracts/mem_flattened.sol\":26762:26787  Transfer(from, to, value) */\n      0xffffffffffffffffffffffffffffffffffffffff\n      and\n        /* \"contracts/mem_flattened.sol\":26771:26775  from */\n      dup4\n        /* \"contracts/mem_flattened.sol\":26762:26787  Transfer(from, to, value) */\n      0xffffffffffffffffffffffffffffffffffffffff\n      and\n      0xddf252ad1be2c89b69c2b068fc378daa952ba7f163c4a11628f55a4df523b3ef\n        /* \"contracts/mem_flattened.sol\":26781:26786  value */\n      dup4\n        /* \"contracts/mem_flattened.sol\":26762:26787  Transfer(from, to, value) */\n      mload(0x40)\n      tag_277\n      swap2\n      swap1\n      tag_37\n      jump\t// in\n    tag_277:\n      mload(0x40)\n      dup1\n      swap2\n      sub\n      swap1\n      log3\n        /* \"contracts/mem_flattened.sol\":25687:26794  function _update(address from, address to, uint256 value) internal virtual {... */\n      pop\n      pop\n      pop\n      jump\t// out\n        /* \"#utility.yul\":7:84   */\n    tag_278:\n        /* \"#utility.yul\":44:51   */\n      0x00\n        /* \"#utility.yul\":73:78   */\n      dup2\n        /* \"#utility.yul\":62:78   */\n      swap1\n      pop\n        /* \"#utility.yul\":7:84   */\n      swap2\n      swap1\n      pop\n      jump\t// out\n        /* \"#utility.yul\":90:208   */\n    tag_279:\n        /* \"#utility.yul\":177:201   */\n      tag_316\n        /* \"#utility.yul\":195:200   */\n      dup2\n        /* \"#utility.yul\":177:201   */\n      tag_278\n      jump\t// in\n    tag_316:\n        /* \"#utility.yul\":172:175   */\n      dup3\n        /* \"#utility.yul\":165:202   */\n      mstore\n        /* \"#utility.yul\":90:208   */\n      pop\n      pop\n      jump\t// out\n        /* \"#utility.yul\":214:436   */\n    tag_37:\n        /* \"#utility.yul\":307:311   */\n      0x00\n        /* \"#utility.yul\":345:347   */\n      0x20\n        /* \"#utility.yul\":334:343   */\n      dup3\n        /* \"#utility.yul\":330:348   */\n      add\n        /* \"#utility.yul\":322:348   */\n      swap1\n      pop\n        /* \"#utility.yul\":358:429   */\n      tag_318\n        /* \"#utility.yul\":426:427   */\n      0x00\n        /* \"#utility.yul\":415:424   */\n      dup4\n        /* \"#utility.yul\":411:428   */\n      add\n        /* \"#utility.yul\":402:408   */\n      dup5\n        /* \"#utility.yul\":358:429   */\n      tag_279\n      jump\t// in\n    tag_318:\n        /* \"#utility.yul\":214:436   */\n      swap3\n      swap2\n      pop\n      pop\n      jump\t// out\n        /* \"#utility.yul\":442:541   */\n    tag_280:\n        /* \"#utility.yul\":494:500   */\n      0x00\n        /* \"#utility.yul\":528:533   */\n      dup2\n        /* \"#utility.yul\":522:534   */\n      mload\n        /* \"#utility.yul\":512:534   */\n      swap1\n      pop\n        /* \"#utility.yul\":442:541   */\n      swap2\n      swap1\n      pop\n      jump\t// out\n        /* \"#utility.yul\":547:716   */\n    tag_281:\n        /* \"#utility.yul\":631:642   */\n      0x00\n        /* \"#utility.yul\":665:671   */\n      dup3\n        /* \"#utility.yul\":660:663   */\n      dup3\n        /* \"#utility.yul\":653:672   */\n      mstore\n        /* \"#utility.yul\":705:709   */\n      0x20\n        /* \"#utility.yul\":700:703   */\n      dup3\n        /* \"#utility.yul\":696:710   */\n      add\n        /* \"#utility.yul\":681:710   */\n      swap1\n      pop\n        /* \"#utility.yul\":547:716   */\n      swap3\n      swap2\n      pop\n      pop\n      jump\t// out\n        /* \"#utility.yul\":722:861   */\n    tag_282:\n        /* \"#utility.yul\":811:817   */\n      dup3\n        /* \"#utility.yul\":806:809   */\n      dup2\n        /* \"#utility.yul\":801:804   */\n      dup4\n        /* \"#utility.yul\":795:818   */\n      mcopy\n        /* \"#utility.yul\":852:853   */\n      0x00\n        /* \"#utility.yul\":843:849   */\n      dup4\n        /* \"#utility.yul\":838:841   */\n      dup4\n        /* \"#utility.yul\":834:850   */\n      add\n        /* \"#utility.yul\":827:854   */\n      mstore\n        /* \"#utility.yul\":722:861   */\n      pop\n      pop\n      pop\n      jump\t// out\n        /* \"#utility.yul\":867:969   */\n    tag_283:\n        /* \"#utility.yul\":908:914   */\n      0x00\n        /* \"#utility.yul\":959:961   */\n      0x1f\n        /* \"#utility.yul\":955:962   */\n      not\n        /* \"#utility.yul\":950:952   */\n      0x1f\n        /* \"#utility.yul\":943:948   */\n      dup4\n        /* \"#utility.yul\":939:953   */\n      add\n        /* \"#utility.yul\":935:963   */\n      and\n        /* \"#utility.yul\":925:963   */\n      swap1\n      pop\n        /* \"#utility.yul\":867:969   */\n      swap2\n      swap1\n      pop\n      jump\t// out\n        /* \"#utility.yul\":975:1352   */\n    tag_284:\n        /* \"#utility.yul\":1063:1066   */\n      0x00\n        /* \"#utility.yul\":1091:1130   */\n      tag_324\n        /* \"#utility.yul\":1124:1129   */\n      dup3\n        /* \"#utility.yul\":1091:1130   */\n      tag_280\n      jump\t// in\n    tag_324:\n        /* \"#utility.yul\":1146:1217   */\n      tag_325\n        /* \"#utility.yul\":1210:1216   */\n      dup2\n        /* \"#utility.yul\":1205:1208   */\n      dup6\n        /* \"#utility.yul\":1146:1217   */\n      tag_281\n      jump\t// in\n    tag_325:\n        /* \"#utility.yul\":1139:1217   */\n      swap4\n      pop\n        /* \"#utility.yul\":1226:1291   */\n      tag_326\n        /* \"#utility.yul\":1284:1290   */\n      dup2\n        /* \"#utility.yul\":1279:1282   */\n      dup6\n        /* \"#utility.yul\":1272:1276   */\n      0x20\n        /* \"#utility.yul\":1265:1270   */\n      dup7\n        /* \"#utility.yul\":1261:1277   */\n      add\n        /* \"#utility.yul\":1226:1291   */\n      tag_282\n      jump\t// in\n    tag_326:\n        /* \"#utility.yul\":1316:1345   */\n      tag_327\n        /* \"#utility.yul\":1338:1344   */\n      dup2\n        /* \"#utility.yul\":1316:1345   */\n      tag_283\n      jump\t// in\n    tag_327:\n        /* \"#utility.yul\":1311:1314   */\n      dup5\n        /* \"#utility.yul\":1307:1346   */\n      add\n        /* \"#utility.yul\":1300:1346   */\n      swap2\n      pop\n        /* \"#utility.yul\":1067:1352   */\n      pop\n        /* \"#utility.yul\":975:1352   */\n      swap3\n      swap2\n      pop\n      pop\n      jump\t// out\n        /* \"#utility.yul\":1358:1671   */\n    tag_41:\n        /* \"#utility.yul\":1471:1475   */\n      0x00\n        /* \"#utility.yul\":1509:1511   */\n      0x20\n        /* \"#utility.yul\":1498:1507   */\n      dup3\n        /* \"#utility.yul\":1494:1512   */\n      add\n        /* \"#utility.yul\":1486:1512   */\n      swap1\n      pop\n        /* \"#utility.yul\":1558:1567   */\n      dup2\n        /* \"#utility.yul\":1552:1556   */\n      dup2\n        /* \"#utility.yul\":1548:1568   */\n      sub\n        /* \"#utility.yul\":1544:1545   */\n      0x00\n        /* \"#utility.yul\":1533:1542   */\n      dup4\n        /* \"#utility.yul\":1529:1546   */\n      add\n        /* \"#utility.yul\":1522:1569   */\n      mstore\n        /* \"#utility.yul\":1586:1664   */\n      tag_329\n        /* \"#utility.yul\":1659:1663   */\n      dup2\n        /* \"#utility.yul\":1650:1656   */\n      dup5\n        /* \"#utility.yul\":1586:1664   */\n      tag_284\n      jump\t// in\n    tag_329:\n        /* \"#utility.yul\":1578:1664   */\n      swap1\n      pop\n        /* \"#utility.yul\":1358:1671   */\n      swap3\n      swap2\n      pop\n      pop\n      jump\t// out\n        /* \"#utility.yul\":1758:1875   */\n    tag_286:\n        /* \"#utility.yul\":1867:1868   */\n      0x00\n        /* \"#utility.yul\":1864:1865   */\n      0x00\n        /* \"#utility.yul\":1857:1869   */\n      revert\n        /* \"#utility.yul\":2004:2130   */\n    tag_288:\n        /* \"#utility.yul\":2041:2048   */\n      0x00\n        /* \"#utility.yul\":2081:2123   */\n      0xffffffffffffffffffffffffffffffffffffffff\n        /* \"#utility.yul\":2074:2079   */\n      dup3\n        /* \"#utility.yul\":2070:2124   */\n      and\n        /* \"#utility.yul\":2059:2124   */\n      swap1\n      pop\n        /* \"#utility.yul\":2004:2130   */\n      swap2\n      swap1\n      pop\n      jump\t// out\n        /* \"#utility.yul\":2136:2232   */\n    tag_289:\n        /* \"#utility.yul\":2173:2180   */\n      0x00\n        /* \"#utility.yul\":2202:2226   */\n      tag_335\n        /* \"#utility.yul\":2220:2225   */\n      dup3\n        /* \"#utility.yul\":2202:2226   */\n      tag_288\n      jump\t// in\n    tag_335:\n        /* \"#utility.yul\":2191:2226   */\n      swap1\n      pop\n        /* \"#utility.yul\":2136:2232   */\n      swap2\n      swap1\n      pop\n      jump\t// out\n        /* \"#utility.yul\":2238:2360   */\n    tag_290:\n        /* \"#utility.yul\":2311:2335   */\n      tag_337\n        /* \"#utility.yul\":2329:2334   */\n      dup2\n        /* \"#utility.yul\":2311:2335   */\n      tag_289\n      jump\t// in\n    tag_337:\n        /* \"#utility.yul\":2304:2309   */\n      dup2\n        /* \"#utility.yul\":2301:2336   */\n      eq\n        /* \"#utility.yul\":2291:2354   */\n      tag_338\n      jumpi\n        /* \"#utility.yul\":2350:2351   */\n      0x00\n        /* \"#utility.yul\":2347:2348   */\n      0x00\n        /* \"#utility.yul\":2340:2352   */\n      revert\n        /* \"#utility.yul\":2291:2354   */\n    tag_338:\n        /* \"#utility.yul\":2238:2360   */\n      pop\n      jump\t// out\n        /* \"#utility.yul\":2366:2505   */\n    tag_291:\n        /* \"#utility.yul\":2412:2417   */\n      0x00\n        /* \"#utility.yul\":2450:2456   */\n      dup2\n        /* \"#utility.yul\":2437:2457   */\n      calldataload\n        /* \"#utility.yul\":2428:2457   */\n      swap1\n      pop\n        /* \"#utility.yul\":2466:2499   */\n      tag_340\n        /* \"#utility.yul\":2493:2498   */\n      dup2\n        /* \"#utility.yul\":2466:2499   */\n      tag_290\n      jump\t// in\n    tag_340:\n        /* \"#utility.yul\":2366:2505   */\n      swap3\n      swap2\n      pop\n      pop\n      jump\t// out\n        /* \"#utility.yul\":2511:2633   */\n    tag_292:\n        /* \"#utility.yul\":2584:2608   */\n      tag_342\n        /* \"#utility.yul\":2602:2607   */\n      dup2\n        /* \"#utility.yul\":2584:2608   */\n      tag_278\n      jump\t// in\n    tag_342:\n        /* \"#utility.yul\":2577:2582   */\n      dup2\n        /* \"#utility.yul\":2574:2609   */\n      eq\n        /* \"#utility.yul\":2564:2627   */\n      tag_343\n      jumpi\n        /* \"#utility.yul\":2623:2624   */\n      0x00\n        /* \"#utility.yul\":2620:2621   */\n      0x00\n        /* \"#utility.yul\":2613:2625   */\n      revert\n        /* \"#utility.yul\":2564:2627   */\n    tag_343:\n        /* \"#utility.yul\":2511:2633   */\n      pop\n      jump\t// out\n        /* \"#utility.yul\":2639:2778   */\n    tag_293:\n        /* \"#utility.yul\":2685:2690   */\n      0x00\n        /* \"#utility.yul\":2723:2729   */\n      dup2\n        /* \"#utility.yul\":2710:2730   */\n      calldataload\n        /* \"#utility.yul\":2701:2730   */\n      swap1\n      pop\n        /* \"#utility.yul\":2739:2772   */\n      tag_345\n        /* \"#utility.yul\":2766:2771   */\n      dup2\n        /* \"#utility.yul\":2739:2772   */\n      tag_292\n      jump\t// in\n    tag_345:\n        /* \"#utility.yul\":2639:2778   */\n      swap3\n      swap2\n      pop\n      pop\n      jump\t// out\n        /* \"#utility.yul\":2784:3258   */\n    tag_44:\n        /* \"#utility.yul\":2852:2858   */\n      0x00\n        /* \"#utility.yul\":2860:2866   */\n      0x00\n        /* \"#utility.yul\":2909:2911   */\n      0x40\n        /* \"#utility.yul\":2897:2906   */\n      dup4\n        /* \"#utility.yul\":2888:2895   */\n      dup6\n        /* \"#utility.yul\":2884:2907   */\n      sub\n        /* \"#utility.yul\":2880:2912   */\n      slt\n        /* \"#utility.yul\":2877:2996   */\n      iszero\n      tag_347\n      jumpi\n        /* \"#utility.yul\":2915:2994   */\n      tag_348\n      tag_286\n      jump\t// in\n    tag_348:\n        /* \"#utility.yul\":2877:2996   */\n    tag_347:\n        /* \"#utility.yul\":3035:3036   */\n      0x00\n        /* \"#utility.yul\":3060:3113   */\n      tag_349\n        /* \"#utility.yul\":3105:3112   */\n      dup6\n        /* \"#utility.yul\":3096:3102   */\n      dup3\n        /* \"#utility.yul\":3085:3094   */\n      dup7\n        /* \"#utility.yul\":3081:3103   */\n      add\n        /* \"#utility.yul\":3060:3113   */\n      tag_291\n      jump\t// in\n    tag_349:\n        /* \"#utility.yul\":3050:3113   */\n      swap3\n      pop\n        /* \"#utility.yul\":3006:3123   */\n      pop\n        /* \"#utility.yul\":3162:3164   */\n      0x20\n        /* \"#utility.yul\":3188:3241   */\n      tag_350\n        /* \"#utility.yul\":3233:3240   */\n      dup6\n        /* \"#utility.yul\":3224:3230   */\n      dup3\n        /* \"#utility.yul\":3213:3222   */\n      dup7\n        /* \"#utility.yul\":3209:3231   */\n      add\n        /* \"#utility.yul\":3188:3241   */\n      tag_293\n      jump\t// in\n    tag_350:\n        /* \"#utility.yul\":3178:3241   */\n      swap2\n      pop\n        /* \"#utility.yul\":3133:3251   */\n      pop\n        /* \"#utility.yul\":2784:3258   */\n      swap3\n      pop\n      swap3\n      swap1\n      pop\n      jump\t// out\n        /* \"#utility.yul\":3264:3354   */\n    tag_294:\n        /* \"#utility.yul\":3298:3305   */\n      0x00\n        /* \"#utility.yul\":3341:3346   */\n      dup2\n        /* \"#utility.yul\":3334:3347   */\n      iszero\n        /* \"#utility.yul\":3327:3348   */\n      iszero\n        /* \"#utility.yul\":3316:3348   */\n      swap1\n      pop\n        /* \"#utility.yul\":3264:3354   */\n      swap2\n      swap1\n      pop\n      jump\t// out\n        /* \"#utility.yul\":3360:3469   */\n    tag_295:\n        /* \"#utility.yul\":3441:3462   */\n      tag_353\n        /* \"#utility.yul\":3456:3461   */\n      dup2\n        /* \"#utility.yul\":3441:3462   */\n      tag_294\n      jump\t// in\n    tag_353:\n        /* \"#utility.yul\":3436:3439   */\n      dup3\n        /* \"#utility.yul\":3429:3463   */\n      mstore\n        /* \"#utility.yul\":3360:3469   */\n      pop\n      pop\n      jump\t// out\n        /* \"#utility.yul\":3475:3685   */\n    tag_47:\n        /* \"#utility.yul\":3562:3566   */\n      0x00\n        /* \"#utility.yul\":3600:3602   */\n      0x20\n        /* \"#utility.yul\":3589:3598   */\n      dup3\n        /* \"#utility.yul\":3585:3603   */\n      add\n        /* \"#utility.yul\":3577:3603   */\n      swap1\n      pop\n        /* \"#utility.yul\":3613:3678   */\n      tag_355\n        /* \"#utility.yul\":3675:3676   */\n      0x00\n        /* \"#utility.yul\":3664:3673   */\n      dup4\n        /* \"#utility.yul\":3660:3677   */\n      add\n        /* \"#utility.yul\":3651:3657   */\n      dup5\n        /* \"#utility.yul\":3613:3678   */\n      tag_295\n      jump\t// in\n    tag_355:\n        /* \"#utility.yul\":3475:3685   */\n      swap3\n      swap2\n      pop\n      pop\n      jump\t// out\n        /* \"#utility.yul\":3691:4310   */\n    tag_56:\n        /* \"#utility.yul\":3768:3774   */\n      0x00\n        /* \"#utility.yul\":3776:3782   */\n      0x00\n        /* \"#utility.yul\":3784:3790   */\n      0x00\n        /* \"#utility.yul\":3833:3835   */\n      0x60\n        /* \"#utility.yul\":3821:3830   */\n      dup5\n        /* \"#utility.yul\":3812:3819   */\n      dup7\n        /* \"#utility.yul\":3808:3831   */\n      sub\n        /* \"#utility.yul\":3804:3836   */\n      slt\n        /* \"#utility.yul\":3801:3920   */\n      iszero\n      tag_357\n      jumpi\n        /* \"#utility.yul\":3839:3918   */\n      tag_358\n      tag_286\n      jump\t// in\n    tag_358:\n        /* \"#utility.yul\":3801:3920   */\n    tag_357:\n        /* \"#utility.yul\":3959:3960   */\n      0x00\n        /* \"#utility.yul\":3984:4037   */\n      tag_359\n        /* \"#utility.yul\":4029:4036   */\n      dup7\n        /* \"#utility.yul\":4020:4026   */\n      dup3\n        /* \"#utility.yul\":4009:4018   */\n      dup8\n        /* \"#utility.yul\":4005:4027   */\n      add\n        /* \"#utility.yul\":3984:4037   */\n      tag_291\n      jump\t// in\n    tag_359:\n        /* \"#utility.yul\":3974:4037   */\n      swap4\n      pop\n        /* \"#utility.yul\":3930:4047   */\n      pop\n        /* \"#utility.yul\":4086:4088   */\n      0x20\n        /* \"#utility.yul\":4112:4165   */\n      tag_360\n        /* \"#utility.yul\":4157:4164   */\n      dup7\n        /* \"#utility.yul\":4148:4154   */\n      dup3\n        /* \"#utility.yul\":4137:4146   */\n      dup8\n        /* \"#utility.yul\":4133:4155   */\n      add\n        /* \"#utility.yul\":4112:4165   */\n      tag_291\n      jump\t// in\n    tag_360:\n        /* \"#utility.yul\":4102:4165   */\n      swap3\n      pop\n        /* \"#utility.yul\":4057:4175   */\n      pop\n        /* \"#utility.yul\":4214:4216   */\n      0x40\n        /* \"#utility.yul\":4240:4293   */\n      tag_361\n        /* \"#utility.yul\":4285:4292   */\n      dup7\n        /* \"#utility.yul\":4276:4282   */\n      dup3\n        /* \"#utility.yul\":4265:4274   */\n      dup8\n        /* \"#utility.yul\":4261:4283   */\n      add\n        /* \"#utility.yul\":4240:4293   */\n      tag_293\n      jump\t// in\n    tag_361:\n        /* \"#utility.yul\":4230:4293   */\n      swap2\n      pop\n        /* \"#utility.yul\":4185:4303   */\n      pop\n        /* \"#utility.yul\":3691:4310   */\n      swap3\n      pop\n      swap3\n      pop\n      swap3\n      jump\t// out\n        /* \"#utility.yul\":4316:4376   */\n    tag_296:\n        /* \"#utility.yul\":4344:4347   */\n      0x00\n        /* \"#utility.yul\":4365:4370   */\n      dup2\n        /* \"#utility.yul\":4358:4370   */\n      swap1\n      pop\n        /* \"#utility.yul\":4316:4376   */\n      swap2\n      swap1\n      pop\n      jump\t// out\n        /* \"#utility.yul\":4382:4524   */\n    tag_297:\n        /* \"#utility.yul\":4432:4441   */\n      0x00\n        /* \"#utility.yul\":4465:4518   */\n      tag_364\n        /* \"#utility.yul\":4483:4517   */\n      tag_365\n        /* \"#utility.yul\":4492:4516   */\n      tag_366\n        /* \"#utility.yul\":4510:4515   */\n      dup5\n        /* \"#utility.yul\":4492:4516   */\n      tag_288\n      jump\t// in\n    tag_366:\n        /* \"#utility.yul\":4483:4517   */\n      tag_296\n      jump\t// in\n    tag_365:\n        /* \"#utility.yul\":4465:4518   */\n      tag_288\n      jump\t// in\n    tag_364:\n        /* \"#utility.yul\":4452:4518   */\n      swap1\n      pop\n        /* \"#utility.yul\":4382:4524   */\n      swap2\n      swap1\n      pop\n      jump\t// out\n        /* \"#utility.yul\":4530:4656   */\n    tag_298:\n        /* \"#utility.yul\":4580:4589   */\n      0x00\n        /* \"#utility.yul\":4613:4650   */\n      tag_368\n        /* \"#utility.yul\":4644:4649   */\n      dup3\n        /* \"#utility.yul\":4613:4650   */\n      tag_297\n      jump\t// in\n    tag_368:\n        /* \"#utility.yul\":4600:4650   */\n      swap1\n      pop\n        /* \"#utility.yul\":4530:4656   */\n      swap2\n      swap1\n      pop\n      jump\t// out\n        /* \"#utility.yul\":4662:4814   */\n    tag_299:\n        /* \"#utility.yul\":4738:4747   */\n      0x00\n        /* \"#utility.yul\":4771:4808   */\n      tag_370\n        /* \"#utility.yul\":4802:4807   */\n      dup3\n        /* \"#utility.yul\":4771:4808   */\n      tag_298\n      jump\t// in\n    tag_370:\n        /* \"#utility.yul\":4758:4808   */\n      swap1\n      pop\n        /* \"#utility.yul\":4662:4814   */\n      swap2\n      swap1\n      pop\n      jump\t// out\n        /* \"#utility.yul\":4820:5003   */\n    tag_300:\n        /* \"#utility.yul\":4933:4996   */\n      tag_372\n        /* \"#utility.yul\":4990:4995   */\n      dup2\n        /* \"#utility.yul\":4933:4996   */\n      tag_299\n      jump\t// in\n    tag_372:\n        /* \"#utility.yul\":4928:4931   */\n      dup3\n        /* \"#utility.yul\":4921:4997   */\n      mstore\n        /* \"#utility.yul\":4820:5003   */\n      pop\n      pop\n      jump\t// out\n        /* \"#utility.yul\":5009:5283   */\n    tag_62:\n        /* \"#utility.yul\":5128:5132   */\n      0x00\n        /* \"#utility.yul\":5166:5168   */\n      0x20\n        /* \"#utility.yul\":5155:5164   */\n      dup3\n        /* \"#utility.yul\":5151:5169   */\n      add\n        /* \"#utility.yul\":5143:5169   */\n      swap1\n      pop\n        /* \"#utility.yul\":5179:5276   */\n      tag_374\n        /* \"#utility.yul\":5273:5274   */\n      0x00\n        /* \"#utility.yul\":5262:5271   */\n      dup4\n        /* \"#utility.yul\":5258:5275   */\n      add\n        /* \"#utility.yul\":5249:5255   */\n      dup5\n        /* \"#utility.yul\":5179:5276   */\n      tag_300\n      jump\t// in\n    tag_374:\n        /* \"#utility.yul\":5009:5283   */\n      swap3\n      swap2\n      pop\n      pop\n      jump\t// out\n        /* \"#utility.yul\":5289:5618   */\n    tag_65:\n        /* \"#utility.yul\":5348:5354   */\n      0x00\n        /* \"#utility.yul\":5397:5399   */\n      0x20\n        /* \"#utility.yul\":5385:5394   */\n      dup3\n        /* \"#utility.yul\":5376:5383   */\n      dup5\n        /* \"#utility.yul\":5372:5395   */\n      sub\n        /* \"#utility.yul\":5368:5400   */\n      slt\n        /* \"#utility.yul\":5365:5484   */\n      iszero\n      tag_376\n      jumpi\n        /* \"#utility.yul\":5403:5482   */\n      tag_377\n      tag_286\n      jump\t// in\n    tag_377:\n        /* \"#utility.yul\":5365:5484   */\n    tag_376:\n        /* \"#utility.yul\":5523:5524   */\n      0x00\n        /* \"#utility.yul\":5548:5601   */\n      tag_378\n        /* \"#utility.yul\":5593:5600   */\n      dup5\n        /* \"#utility.yul\":5584:5590   */\n      dup3\n        /* \"#utility.yul\":5573:5582   */\n      dup6\n        /* \"#utility.yul\":5569:5591   */\n      add\n        /* \"#utility.yul\":5548:5601   */\n      tag_293\n      jump\t// in\n    tag_378:\n        /* \"#utility.yul\":5538:5601   */\n      swap2\n      pop\n        /* \"#utility.yul\":5494:5611   */\n      pop\n        /* \"#utility.yul\":5289:5618   */\n      swap3\n      swap2\n      pop\n      pop\n      jump\t// out\n        /* \"#utility.yul\":5624:5710   */\n    tag_301:\n        /* \"#utility.yul\":5659:5666   */\n      0x00\n        /* \"#utility.yul\":5699:5703   */\n      0xff\n        /* \"#utility.yul\":5692:5697   */\n      dup3\n        /* \"#utility.yul\":5688:5704   */\n      and\n        /* \"#utility.yul\":5677:5704   */\n      swap1\n      pop\n        /* \"#utility.yul\":5624:5710   */\n      swap2\n      swap1\n      pop\n      jump\t// out\n        /* \"#utility.yul\":5716:5828   */\n    tag_302:\n        /* \"#utility.yul\":5799:5821   */\n      tag_381\n        /* \"#utility.yul\":5815:5820   */\n      dup2\n        /* \"#utility.yul\":5799:5821   */\n      tag_301\n      jump\t// in\n    tag_381:\n        /* \"#utility.yul\":5794:5797   */\n      dup3\n        /* \"#utility.yul\":5787:5822   */\n      mstore\n        /* \"#utility.yul\":5716:5828   */\n      pop\n      pop\n      jump\t// out\n        /* \"#utility.yul\":5834:6048   */\n    tag_70:\n        /* \"#utility.yul\":5923:5927   */\n      0x00\n        /* \"#utility.yul\":5961:5963   */\n      0x20\n        /* \"#utility.yul\":5950:5959   */\n      dup3\n        /* \"#utility.yul\":5946:5964   */\n      add\n        /* \"#utility.yul\":5938:5964   */\n      swap1\n      pop\n        /* \"#utility.yul\":5974:6041   */\n      tag_383\n        /* \"#utility.yul\":6038:6039   */\n      0x00\n        /* \"#utility.yul\":6027:6036   */\n      dup4\n        /* \"#utility.yul\":6023:6040   */\n      add\n        /* \"#utility.yul\":6014:6020   */\n      dup5\n        /* \"#utility.yul\":5974:6041   */\n      tag_302\n      jump\t// in\n    tag_383:\n        /* \"#utility.yul\":5834:6048   */\n      swap3\n      swap2\n      pop\n      pop\n      jump\t// out\n        /* \"#utility.yul\":6054:6172   */\n    tag_303:\n        /* \"#utility.yul\":6141:6165   */\n      tag_385\n        /* \"#utility.yul\":6159:6164   */\n      dup2\n        /* \"#utility.yul\":6141:6165   */\n      tag_289\n      jump\t// in\n    tag_385:\n        /* \"#utility.yul\":6136:6139   */\n      dup3\n        /* \"#utility.yul\":6129:6166   */\n      mstore\n        /* \"#utility.yul\":6054:6172   */\n      pop\n      pop\n      jump\t// out\n        /* \"#utility.yul\":6178:6400   */\n    tag_77:\n        /* \"#utility.yul\":6271:6275   */\n      0x00\n        /* \"#utility.yul\":6309:6311   */\n      0x20\n        /* \"#utility.yul\":6298:6307   */\n      dup3\n        /* \"#utility.yul\":6294:6312   */\n      add\n        /* \"#utility.yul\":6286:6312   */\n      swap1\n      pop\n        /* \"#utility.yul\":6322:6393   */\n      tag_387\n        /* \"#utility.yul\":6390:6391   */\n      0x00\n        /* \"#utility.yul\":6379:6388   */\n      dup4\n        /* \"#utility.yul\":6375:6392   */\n      add\n        /* \"#utility.yul\":6366:6372   */\n      dup5\n        /* \"#utility.yul\":6322:6393   */\n      tag_303\n      jump\t// in\n    tag_387:\n        /* \"#utility.yul\":6178:6400   */\n      swap3\n      swap2\n      pop\n      pop\n      jump\t// out\n        /* \"#utility.yul\":6406:6735   */\n    tag_86:\n        /* \"#utility.yul\":6465:6471   */\n      0x00\n        /* \"#utility.yul\":6514:6516   */\n      0x20\n        /* \"#utility.yul\":6502:6511   */\n      dup3\n        /* \"#utility.yul\":6493:6500   */\n      dup5\n        /* \"#utility.yul\":6489:6512   */\n      sub\n        /* \"#utility.yul\":6485:6517   */\n      slt\n        /* \"#utility.yul\":6482:6601   */\n      iszero\n      tag_389\n      jumpi\n        /* \"#utility.yul\":6520:6599   */\n      tag_390\n      tag_286\n      jump\t// in\n    tag_390:\n        /* \"#utility.yul\":6482:6601   */\n    tag_389:\n        /* \"#utility.yul\":6640:6641   */\n      0x00\n        /* \"#utility.yul\":6665:6718   */\n      tag_391\n        /* \"#utility.yul\":6710:6717   */\n      dup5\n        /* \"#utility.yul\":6701:6707   */\n      dup3\n        /* \"#utility.yul\":6690:6699   */\n      dup6\n        /* \"#utility.yul\":6686:6708   */\n      add\n        /* \"#utility.yul\":6665:6718   */\n      tag_291\n      jump\t// in\n    tag_391:\n        /* \"#utility.yul\":6655:6718   */\n      swap2\n      pop\n        /* \"#utility.yul\":6611:6728   */\n      pop\n        /* \"#utility.yul\":6406:6735   */\n      swap3\n      swap2\n      pop\n      pop\n      jump\t// out\n        /* \"#utility.yul\":6741:7215   */\n    tag_106:\n        /* \"#utility.yul\":6809:6815   */\n      0x00\n        /* \"#utility.yul\":6817:6823   */\n      0x00\n        /* \"#utility.yul\":6866:6868   */\n      0x40\n        /* \"#utility.yul\":6854:6863   */\n      dup4\n        /* \"#utility.yul\":6845:6852   */\n      dup6\n        /* \"#utility.yul\":6841:6864   */\n      sub\n        /* \"#utility.yul\":6837:6869   */\n      slt\n        /* \"#utility.yul\":6834:6953   */\n      iszero\n      tag_393\n      jumpi\n        /* \"#utility.yul\":6872:6951   */\n      tag_394\n      tag_286\n      jump\t// in\n    tag_394:\n        /* \"#utility.yul\":6834:6953   */\n    tag_393:\n        /* \"#utility.yul\":6992:6993   */\n      0x00\n        /* \"#utility.yul\":7017:7070   */\n      tag_395\n        /* \"#utility.yul\":7062:7069   */\n      dup6\n        /* \"#utility.yul\":7053:7059   */\n      dup3\n        /* \"#utility.yul\":7042:7051   */\n      dup7\n        /* \"#utility.yul\":7038:7060   */\n      add\n        /* \"#utility.yul\":7017:7070   */\n      tag_293\n      jump\t// in\n    tag_395:\n        /* \"#utility.yul\":7007:7070   */\n      swap3\n      pop\n        /* \"#utility.yul\":6963:7080   */\n      pop\n        /* \"#utility.yul\":7119:7121   */\n      0x20\n        /* \"#utility.yul\":7145:7198   */\n      tag_396\n        /* \"#utility.yul\":7190:7197   */\n      dup6\n        /* \"#utility.yul\":7181:7187   */\n      dup3\n        /* \"#utility.yul\":7170:7179   */\n      dup7\n        /* \"#utility.yul\":7166:7188   */\n      add\n        /* \"#utility.yul\":7145:7198   */\n      tag_293\n      jump\t// in\n    tag_396:\n        /* \"#utility.yul\":7135:7198   */\n      swap2\n      pop\n        /* \"#utility.yul\":7090:7208   */\n      pop\n        /* \"#utility.yul\":6741:7215   */\n      swap3\n      pop\n      swap3\n      swap1\n      pop\n      jump\t// out\n        /* \"#utility.yul\":7221:7337   */\n    tag_304:\n        /* \"#utility.yul\":7291:7312   */\n      tag_398\n        /* \"#utility.yul\":7306:7311   */\n      dup2\n        /* \"#utility.yul\":7291:7312   */\n      tag_294\n      jump\t// in\n    tag_398:\n        /* \"#utility.yul\":7284:7289   */\n      dup2\n        /* \"#utility.yul\":7281:7313   */\n      eq\n        /* \"#utility.yul\":7271:7331   */\n      tag_399\n      jumpi\n        /* \"#utility.yul\":7327:7328   */\n      0x00\n        /* \"#utility.yul\":7324:7325   */\n      0x00\n        /* \"#utility.yul\":7317:7329   */\n      revert\n        /* \"#utility.yul\":7271:7331   */\n    tag_399:\n        /* \"#utility.yul\":7221:7337   */\n      pop\n      jump\t// out\n        /* \"#utility.yul\":7343:7476   */\n    tag_305:\n        /* \"#utility.yul\":7386:7391   */\n      0x00\n        /* \"#utility.yul\":7424:7430   */\n      dup2\n        /* \"#utility.yul\":7411:7431   */\n      calldataload\n        /* \"#utility.yul\":7402:7431   */\n      swap1\n      pop\n        /* \"#utility.yul\":7440:7470   */\n      tag_401\n        /* \"#utility.yul\":7464:7469   */\n      dup2\n        /* \"#utility.yul\":7440:7470   */\n      tag_304\n      jump\t// in\n    tag_401:\n        /* \"#utility.yul\":7343:7476   */\n      swap3\n      swap2\n      pop\n      pop\n      jump\t// out\n        /* \"#utility.yul\":7482:7950   */\n    tag_110:\n        /* \"#utility.yul\":7547:7553   */\n      0x00\n        /* \"#utility.yul\":7555:7561   */\n      0x00\n        /* \"#utility.yul\":7604:7606   */\n      0x40\n        /* \"#utility.yul\":7592:7601   */\n      dup4\n        /* \"#utility.yul\":7583:7590   */\n      dup6\n        /* \"#utility.yul\":7579:7602   */\n      sub\n        /* \"#utility.yul\":7575:7607   */\n      slt\n        /* \"#utility.yul\":7572:7691   */\n      iszero\n      tag_403\n      jumpi\n        /* \"#utility.yul\":7610:7689   */\n      tag_404\n      tag_286\n      jump\t// in\n    tag_404:\n        /* \"#utility.yul\":7572:7691   */\n    tag_403:\n        /* \"#utility.yul\":7730:7731   */\n      0x00\n        /* \"#utility.yul\":7755:7808   */\n      tag_405\n        /* \"#utility.yul\":7800:7807   */\n      dup6\n        /* \"#utility.yul\":7791:7797   */\n      dup3\n        /* \"#utility.yul\":7780:7789   */\n      dup7\n        /* \"#utility.yul\":7776:7798   */\n      add\n        /* \"#utility.yul\":7755:7808   */\n      tag_291\n      jump\t// in\n    tag_405:\n        /* \"#utility.yul\":7745:7808   */\n      swap3\n      pop\n        /* \"#utility.yul\":7701:7818   */\n      pop\n        /* \"#utility.yul\":7857:7859   */\n      0x20\n        /* \"#utility.yul\":7883:7933   */\n      tag_406\n        /* \"#utility.yul\":7925:7932   */\n      dup6\n        /* \"#utility.yul\":7916:7922   */\n      dup3\n        /* \"#utility.yul\":7905:7914   */\n      dup7\n        /* \"#utility.yul\":7901:7923   */\n      add\n        /* \"#utility.yul\":7883:7933   */\n      tag_305\n      jump\t// in\n    tag_406:\n        /* \"#utility.yul\":7873:7933   */\n      swap2\n      pop\n        /* \"#utility.yul\":7828:7943   */\n      pop\n        /* \"#utility.yul\":7482:7950   */\n      swap3\n      pop\n      swap3\n      swap1\n      pop\n      jump\t// out\n        /* \"#utility.yul\":7956:8430   */\n    tag_124:\n        /* \"#utility.yul\":8024:8030   */\n      0x00\n        /* \"#utility.yul\":8032:8038   */\n      0x00\n        /* \"#utility.yul\":8081:8083   */\n      0x40\n        /* \"#utility.yul\":8069:8078   */\n      dup4\n        /* \"#utility.yul\":8060:8067   */\n      dup6\n        /* \"#utility.yul\":8056:8079   */\n      sub\n        /* \"#utility.yul\":8052:8084   */\n      slt\n        /* \"#utility.yul\":8049:8168   */\n      iszero\n      tag_408\n      jumpi\n        /* \"#utility.yul\":8087:8166   */\n      tag_409\n      tag_286\n      jump\t// in\n    tag_409:\n        /* \"#utility.yul\":8049:8168   */\n    tag_408:\n        /* \"#utility.yul\":8207:8208   */\n      0x00\n        /* \"#utility.yul\":8232:8285   */\n      tag_410\n        /* \"#utility.yul\":8277:8284   */\n      dup6\n        /* \"#utility.yul\":8268:8274   */\n      dup3\n        /* \"#utility.yul\":8257:8266   */\n      dup7\n        /* \"#utility.yul\":8253:8275   */\n      add\n        /* \"#utility.yul\":8232:8285   */\n      tag_291\n      jump\t// in\n    tag_410:\n        /* \"#utility.yul\":8222:8285   */\n      swap3\n      pop\n        /* \"#utility.yul\":8178:8295   */\n      pop\n        /* \"#utility.yul\":8334:8336   */\n      0x20\n        /* \"#utility.yul\":8360:8413   */\n      tag_411\n        /* \"#utility.yul\":8405:8412   */\n      dup6\n        /* \"#utility.yul\":8396:8402   */\n      dup3\n        /* \"#utility.yul\":8385:8394   */\n      dup7\n        /* \"#utility.yul\":8381:8403   */\n      add\n        /* \"#utility.yul\":8360:8413   */\n      tag_291\n      jump\t// in\n    tag_411:\n        /* \"#utility.yul\":8350:8413   */\n      swap2\n      pop\n        /* \"#utility.yul\":8305:8423   */\n      pop\n        /* \"#utility.yul\":7956:8430   */\n      swap3\n      pop\n      swap3\n      swap1\n      pop\n      jump\t// out\n        /* \"#utility.yul\":8436:8616   */\n    tag_306:\n        /* \"#utility.yul\":8484:8561   */\n      0x4e487b7100000000000000000000000000000000000000000000000000000000\n        /* \"#utility.yul\":8481:8482   */\n      0x00\n        /* \"#utility.yul\":8474:8562   */\n      mstore\n        /* \"#utility.yul\":8581:8585   */\n      0x22\n        /* \"#utility.yul\":8578:8579   */\n      0x04\n        /* \"#utility.yul\":8571:8586   */\n      mstore\n        /* \"#utility.yul\":8605:8609   */\n      0x24\n        /* \"#utility.yul\":8602:8603   */\n      0x00\n        /* \"#utility.yul\":8595:8610   */\n      revert\n        /* \"#utility.yul\":8622:8942   */\n    tag_132:\n        /* \"#utility.yul\":8666:8672   */\n      0x00\n        /* \"#utility.yul\":8703:8704   */\n      0x02\n        /* \"#utility.yul\":8697:8701   */\n      dup3\n        /* \"#utility.yul\":8693:8705   */\n      div\n        /* \"#utility.yul\":8683:8705   */\n      swap1\n      pop\n        /* \"#utility.yul\":8750:8751   */\n      0x01\n        /* \"#utility.yul\":8744:8748   */\n      dup3\n        /* \"#utility.yul\":8740:8752   */\n      and\n        /* \"#utility.yul\":8771:8789   */\n      dup1\n        /* \"#utility.yul\":8761:8842   */\n      tag_414\n      jumpi\n        /* \"#utility.yul\":8827:8831   */\n      0x7f\n        /* \"#utility.yul\":8819:8825   */\n      dup3\n        /* \"#utility.yul\":8815:8832   */\n      and\n        /* \"#utility.yul\":8805:8832   */\n      swap2\n      pop\n        /* \"#utility.yul\":8761:8842   */\n    tag_414:\n        /* \"#utility.yul\":8889:8891   */\n      0x20\n        /* \"#utility.yul\":8881:8887   */\n      dup3\n        /* \"#utility.yul\":8878:8892   */\n      lt\n        /* \"#utility.yul\":8858:8876   */\n      dup2\n        /* \"#utility.yul\":8855:8893   */\n      sub\n        /* \"#utility.yul\":8852:8936   */\n      tag_415\n      jumpi\n        /* \"#utility.yul\":8908:8926   */\n      tag_416\n      tag_306\n      jump\t// in\n    tag_416:\n        /* \"#utility.yul\":8852:8936   */\n    tag_415:\n        /* \"#utility.yul\":8673:8942   */\n      pop\n        /* \"#utility.yul\":8622:8942   */\n      swap2\n      swap1\n      pop\n      jump\t// out\n        /* \"#utility.yul\":8948:9033   */\n    tag_307:\n        /* \"#utility.yul\":8993:9000   */\n      0x00\n        /* \"#utility.yul\":9022:9027   */\n      dup2\n        /* \"#utility.yul\":9011:9027   */\n      swap1\n      pop\n        /* \"#utility.yul\":8948:9033   */\n      swap2\n      swap1\n      pop\n      jump\t// out\n        /* \"#utility.yul\":9039:9197   */\n    tag_308:\n        /* \"#utility.yul\":9097:9106   */\n      0x00\n        /* \"#utility.yul\":9130:9191   */\n      tag_419\n        /* \"#utility.yul\":9148:9190   */\n      tag_420\n        /* \"#utility.yul\":9157:9189   */\n      tag_421\n        /* \"#utility.yul\":9183:9188   */\n      dup5\n        /* \"#utility.yul\":9157:9189   */\n      tag_307\n      jump\t// in\n    tag_421:\n        /* \"#utility.yul\":9148:9190   */\n      tag_296\n      jump\t// in\n    tag_420:\n        /* \"#utility.yul\":9130:9191   */\n      tag_278\n      jump\t// in\n    tag_419:\n        /* \"#utility.yul\":9117:9191   */\n      swap1\n      pop\n        /* \"#utility.yul\":9039:9197   */\n      swap2\n      swap1\n      pop\n      jump\t// out\n        /* \"#utility.yul\":9203:9350   */\n    tag_309:\n        /* \"#utility.yul\":9298:9343   */\n      tag_423\n        /* \"#utility.yul\":9337:9342   */\n      dup2\n        /* \"#utility.yul\":9298:9343   */\n      tag_308\n      jump\t// in\n    tag_423:\n        /* \"#utility.yul\":9293:9296   */\n      dup3\n        /* \"#utility.yul\":9286:9344   */\n      mstore\n        /* \"#utility.yul\":9203:9350   */\n      pop\n      pop\n      jump\t// out\n        /* \"#utility.yul\":9356:10163   */\n    tag_166:\n        /* \"#utility.yul\":9605:9609   */\n      0x00\n        /* \"#utility.yul\":9643:9646   */\n      0xc0\n        /* \"#utility.yul\":9632:9641   */\n      dup3\n        /* \"#utility.yul\":9628:9647   */\n      add\n        /* \"#utility.yul\":9620:9647   */\n      swap1\n      pop\n        /* \"#utility.yul\":9657:9728   */\n      tag_425\n        /* \"#utility.yul\":9725:9726   */\n      0x00\n        /* \"#utility.yul\":9714:9723   */\n      dup4\n        /* \"#utility.yul\":9710:9727   */\n      add\n        /* \"#utility.yul\":9701:9707   */\n      dup10\n        /* \"#utility.yul\":9657:9728   */\n      tag_303\n      jump\t// in\n    tag_425:\n        /* \"#utility.yul\":9738:9810   */\n      tag_426\n        /* \"#utility.yul\":9806:9808   */\n      0x20\n        /* \"#utility.yul\":9795:9804   */\n      dup4\n        /* \"#utility.yul\":9791:9809   */\n      add\n        /* \"#utility.yul\":9782:9788   */\n      dup9\n        /* \"#utility.yul\":9738:9810   */\n      tag_279\n      jump\t// in\n    tag_426:\n        /* \"#utility.yul\":9820:9900   */\n      tag_427\n        /* \"#utility.yul\":9896:9898   */\n      0x40\n        /* \"#utility.yul\":9885:9894   */\n      dup4\n        /* \"#utility.yul\":9881:9899   */\n      add\n        /* \"#utility.yul\":9872:9878   */\n      dup8\n        /* \"#utility.yul\":9820:9900   */\n      tag_309\n      jump\t// in\n    tag_427:\n        /* \"#utility.yul\":9910:9990   */\n      tag_428\n        /* \"#utility.yul\":9986:9988   */\n      0x60\n        /* \"#utility.yul\":9975:9984   */\n      dup4\n        /* \"#utility.yul\":9971:9989   */\n      add\n        /* \"#utility.yul\":9962:9968   */\n      dup7\n        /* \"#utility.yul\":9910:9990   */\n      tag_309\n      jump\t// in\n    tag_428:\n        /* \"#utility.yul\":10000:10073   */\n      tag_429\n        /* \"#utility.yul\":10068:10071   */\n      0x80\n        /* \"#utility.yul\":10057:10066   */\n      dup4\n        /* \"#utility.yul\":10053:10072   */\n      add\n        /* \"#utility.yul\":10044:10050   */\n      dup6\n        /* \"#utility.yul\":10000:10073   */\n      tag_303\n      jump\t// in\n    tag_429:\n        /* \"#utility.yul\":10083:10156   */\n      tag_430\n        /* \"#utility.yul\":10151:10154   */\n      0xa0\n        /* \"#utility.yul\":10140:10149   */\n      dup4\n        /* \"#utility.yul\":10136:10155   */\n      add\n        /* \"#utility.yul\":10127:10133   */\n      dup5\n        /* \"#utility.yul\":10083:10156   */\n      tag_279\n      jump\t// in\n    tag_430:\n        /* \"#utility.yul\":9356:10163   */\n      swap8\n      swap7\n      pop\n      pop\n      pop\n      pop\n      pop\n      pop\n      pop\n      jump\t// out\n        /* \"#utility.yul\":10169:10312   */\n    tag_310:\n        /* \"#utility.yul\":10226:10231   */\n      0x00\n        /* \"#utility.yul\":10257:10263   */\n      dup2\n        /* \"#utility.yul\":10251:10264   */\n      mload\n        /* \"#utility.yul\":10242:10264   */\n      swap1\n      pop\n        /* \"#utility.yul\":10273:10306   */\n      tag_432\n        /* \"#utility.yul\":10300:10305   */\n      dup2\n        /* \"#utility.yul\":10273:10306   */\n      tag_292\n      jump\t// in\n    tag_432:\n        /* \"#utility.yul\":10169:10312   */\n      swap3\n      swap2\n      pop\n      pop\n      jump\t// out\n        /* \"#utility.yul\":10318:10981   */\n    tag_170:\n        /* \"#utility.yul\":10406:10412   */\n      0x00\n        /* \"#utility.yul\":10414:10420   */\n      0x00\n        /* \"#utility.yul\":10422:10428   */\n      0x00\n        /* \"#utility.yul\":10471:10473   */\n      0x60\n        /* \"#utility.yul\":10459:10468   */\n      dup5\n        /* \"#utility.yul\":10450:10457   */\n      dup7\n        /* \"#utility.yul\":10446:10469   */\n      sub\n        /* \"#utility.yul\":10442:10474   */\n      slt\n        /* \"#utility.yul\":10439:10558   */\n      iszero\n      tag_434\n      jumpi\n        /* \"#utility.yul\":10477:10556   */\n      tag_435\n      tag_286\n      jump\t// in\n    tag_435:\n        /* \"#utility.yul\":10439:10558   */\n    tag_434:\n        /* \"#utility.yul\":10597:10598   */\n      0x00\n        /* \"#utility.yul\":10622:10686   */\n      tag_436\n        /* \"#utility.yul\":10678:10685   */\n      dup7\n        /* \"#utility.yul\":10669:10675   */\n      dup3\n        /* \"#utility.yul\":10658:10667   */\n      dup8\n        /* \"#utility.yul\":10654:10676   */\n      add\n        /* \"#utility.yul\":10622:10686   */\n      tag_310\n      jump\t// in\n    tag_436:\n        /* \"#utility.yul\":10612:10686   */\n      swap4\n      pop\n        /* \"#utility.yul\":10568:10696   */\n      pop\n        /* \"#utility.yul\":10735:10737   */\n      0x20\n        /* \"#utility.yul\":10761:10825   */\n      tag_437\n        /* \"#utility.yul\":10817:10824   */\n      dup7\n        /* \"#utility.yul\":10808:10814   */\n      dup3\n        /* \"#utility.yul\":10797:10806   */\n      dup8\n        /* \"#utility.yul\":10793:10815   */\n      add\n        /* \"#utility.yul\":10761:10825   */\n      tag_310\n      jump\t// in\n    tag_437:\n        /* \"#utility.yul\":10751:10825   */\n      swap3\n      pop\n        /* \"#utility.yul\":10706:10835   */\n      pop\n        /* \"#utility.yul\":10874:10876   */\n      0x40\n        /* \"#utility.yul\":10900:10964   */\n      tag_438\n        /* \"#utility.yul\":10956:10963   */\n      dup7\n        /* \"#utility.yul\":10947:10953   */\n      dup3\n        /* \"#utility.yul\":10936:10945   */\n      dup8\n        /* \"#utility.yul\":10932:10954   */\n      add\n        /* \"#utility.yul\":10900:10964   */\n      tag_310\n      jump\t// in\n    tag_438:\n        /* \"#utility.yul\":10890:10964   */\n      swap2\n      pop\n        /* \"#utility.yul\":10845:10974   */\n      pop\n        /* \"#utility.yul\":10318:10981   */\n      swap3\n      pop\n      swap3\n      pop\n      swap3\n      jump\t// out\n        /* \"#utility.yul\":10987:11319   */\n    tag_172:\n        /* \"#utility.yul\":11108:11112   */\n      0x00\n        /* \"#utility.yul\":11146:11148   */\n      0x40\n        /* \"#utility.yul\":11135:11144   */\n      dup3\n        /* \"#utility.yul\":11131:11149   */\n      add\n        /* \"#utility.yul\":11123:11149   */\n      swap1\n      pop\n        /* \"#utility.yul\":11159:11230   */\n      tag_440\n        /* \"#utility.yul\":11227:11228   */\n      0x00\n        /* \"#utility.yul\":11216:11225   */\n      dup4\n        /* \"#utility.yul\":11212:11229   */\n      add\n        /* \"#utility.yul\":11203:11209   */\n      dup6\n        /* \"#utility.yul\":11159:11230   */\n      tag_279\n      jump\t// in\n    tag_440:\n        /* \"#utility.yul\":11240:11312   */\n      tag_441\n        /* \"#utility.yul\":11308:11310   */\n      0x20\n        /* \"#utility.yul\":11297:11306   */\n      dup4\n        /* \"#utility.yul\":11293:11311   */\n      add\n        /* \"#utility.yul\":11284:11290   */\n      dup5\n        /* \"#utility.yul\":11240:11312   */\n      tag_279\n      jump\t// in\n    tag_441:\n        /* \"#utility.yul\":10987:11319   */\n      swap4\n      swap3\n      pop\n      pop\n      pop\n      jump\t// out\n        /* \"#utility.yul\":11325:11505   */\n    tag_311:\n        /* \"#utility.yul\":11373:11450   */\n      0x4e487b7100000000000000000000000000000000000000000000000000000000\n        /* \"#utility.yul\":11370:11371   */\n      0x00\n        /* \"#utility.yul\":11363:11451   */\n      mstore\n        /* \"#utility.yul\":11470:11474   */\n      0x11\n        /* \"#utility.yul\":11467:11468   */\n      0x04\n        /* \"#utility.yul\":11460:11475   */\n      mstore\n        /* \"#utility.yul\":11494:11498   */\n      0x24\n        /* \"#utility.yul\":11491:11492   */\n      0x00\n        /* \"#utility.yul\":11484:11499   */\n      revert\n        /* \"#utility.yul\":11511:11921   */\n    tag_197:\n        /* \"#utility.yul\":11551:11558   */\n      0x00\n        /* \"#utility.yul\":11574:11594   */\n      tag_444\n        /* \"#utility.yul\":11592:11593   */\n      dup3\n        /* \"#utility.yul\":11574:11594   */\n      tag_278\n      jump\t// in\n    tag_444:\n        /* \"#utility.yul\":11569:11594   */\n      swap2\n      pop\n        /* \"#utility.yul\":11608:11628   */\n      tag_445\n        /* \"#utility.yul\":11626:11627   */\n      dup4\n        /* \"#utility.yul\":11608:11628   */\n      tag_278\n      jump\t// in\n    tag_445:\n        /* \"#utility.yul\":11603:11628   */\n      swap3\n      pop\n        /* \"#utility.yul\":11663:11664   */\n      dup3\n        /* \"#utility.yul\":11660:11661   */\n      dup3\n        /* \"#utility.yul\":11656:11665   */\n      mul\n        /* \"#utility.yul\":11685:11715   */\n      tag_446\n        /* \"#utility.yul\":11703:11714   */\n      dup2\n        /* \"#utility.yul\":11685:11715   */\n      tag_278\n      jump\t// in\n    tag_446:\n        /* \"#utility.yul\":11674:11715   */\n      swap2\n      pop\n        /* \"#utility.yul\":11864:11865   */\n      dup3\n        /* \"#utility.yul\":11855:11862   */\n      dup3\n        /* \"#utility.yul\":11851:11866   */\n      div\n        /* \"#utility.yul\":11848:11849   */\n      dup5\n        /* \"#utility.yul\":11845:11867   */\n      eq\n        /* \"#utility.yul\":11825:11826   */\n      dup4\n        /* \"#utility.yul\":11818:11827   */\n      iszero\n        /* \"#utility.yul\":11798:11881   */\n      or\n        /* \"#utility.yul\":11775:11914   */\n      tag_447\n      jumpi\n        /* \"#utility.yul\":11894:11912   */\n      tag_448\n      tag_311\n      jump\t// in\n    tag_448:\n        /* \"#utility.yul\":11775:11914   */\n    tag_447:\n        /* \"#utility.yul\":11559:11921   */\n      pop\n        /* \"#utility.yul\":11511:11921   */\n      swap3\n      swap2\n      pop\n      pop\n      jump\t// out\n        /* \"#utility.yul\":11927:12107   */\n    tag_312:\n        /* \"#utility.yul\":11975:12052   */\n      0x4e487b7100000000000000000000000000000000000000000000000000000000\n        /* \"#utility.yul\":11972:11973   */\n      0x00\n        /* \"#utility.yul\":11965:12053   */\n      mstore\n        /* \"#utility.yul\":12072:12076   */\n      0x12\n        /* \"#utility.yul\":12069:12070   */\n      0x04\n        /* \"#utility.yul\":12062:12077   */\n      mstore\n        /* \"#utility.yul\":12096:12100   */\n      0x24\n        /* \"#utility.yul\":12093:12094   */\n      0x00\n        /* \"#utility.yul\":12086:12101   */\n      revert\n        /* \"#utility.yul\":12113:12298   */\n    tag_199:\n        /* \"#utility.yul\":12153:12154   */\n      0x00\n        /* \"#utility.yul\":12170:12190   */\n      tag_451\n        /* \"#utility.yul\":12188:12189   */\n      dup3\n        /* \"#utility.yul\":12170:12190   */\n      tag_278\n      jump\t// in\n    tag_451:\n        /* \"#utility.yul\":12165:12190   */\n      swap2\n      pop\n        /* \"#utility.yul\":12204:12224   */\n      tag_452\n        /* \"#utility.yul\":12222:12223   */\n      dup4\n        /* \"#utility.yul\":12204:12224   */\n      tag_278\n      jump\t// in\n    tag_452:\n        /* \"#utility.yul\":12199:12224   */\n      swap3\n      pop\n        /* \"#utility.yul\":12243:12244   */\n      dup3\n        /* \"#utility.yul\":12233:12268   */\n      tag_453\n      jumpi\n        /* \"#utility.yul\":12248:12266   */\n      tag_454\n      tag_312\n      jump\t// in\n    tag_454:\n        /* \"#utility.yul\":12233:12268   */\n    tag_453:\n        /* \"#utility.yul\":12290:12291   */\n      dup3\n        /* \"#utility.yul\":12287:12288   */\n      dup3\n        /* \"#utility.yul\":12283:12292   */\n      div\n        /* \"#utility.yul\":12278:12292   */\n      swap1\n      pop\n        /* \"#utility.yul\":12113:12298   */\n      swap3\n      swap2\n      pop\n      pop\n      jump\t// out\n        /* \"#utility.yul\":12304:12498   */\n    tag_205:\n        /* \"#utility.yul\":12344:12348   */\n      0x00\n        /* \"#utility.yul\":12364:12384   */\n      tag_456\n        /* \"#utility.yul\":12382:12383   */\n      dup3\n        /* \"#utility.yul\":12364:12384   */\n      tag_278\n      jump\t// in\n    tag_456:\n        /* \"#utility.yul\":12359:12384   */\n      swap2\n      pop\n        /* \"#utility.yul\":12398:12418   */\n      tag_457\n        /* \"#utility.yul\":12416:12417   */\n      dup4\n        /* \"#utility.yul\":12398:12418   */\n      tag_278\n      jump\t// in\n    tag_457:\n        /* \"#utility.yul\":12393:12418   */\n      swap3\n      pop\n        /* \"#utility.yul\":12442:12443   */\n      dup3\n        /* \"#utility.yul\":12439:12440   */\n      dup3\n        /* \"#utility.yul\":12435:12444   */\n      sub\n        /* \"#utility.yul\":12427:12444   */\n      swap1\n      pop\n        /* \"#utility.yul\":12466:12467   */\n      dup2\n        /* \"#utility.yul\":12460:12464   */\n      dup2\n        /* \"#utility.yul\":12457:12468   */\n      gt\n        /* \"#utility.yul\":12454:12491   */\n      iszero\n      tag_458\n      jumpi\n        /* \"#utility.yul\":12471:12489   */\n      tag_459\n      tag_311\n      jump\t// in\n    tag_459:\n        /* \"#utility.yul\":12454:12491   */\n    tag_458:\n        /* \"#utility.yul\":12304:12498   */\n      swap3\n      swap2\n      pop\n      pop\n      jump\t// out\n        /* \"#utility.yul\":12504:12695   */\n    tag_207:\n        /* \"#utility.yul\":12544:12547   */\n      0x00\n        /* \"#utility.yul\":12563:12583   */\n      tag_461\n        /* \"#utility.yul\":12581:12582   */\n      dup3\n        /* \"#utility.yul\":12563:12583   */\n      tag_278\n      jump\t// in\n    tag_461:\n        /* \"#utility.yul\":12558:12583   */\n      swap2\n      pop\n        /* \"#utility.yul\":12597:12617   */\n      tag_462\n        /* \"#utility.yul\":12615:12616   */\n      dup4\n        /* \"#utility.yul\":12597:12617   */\n      tag_278\n      jump\t// in\n    tag_462:\n        /* \"#utility.yul\":12592:12617   */\n      swap3\n      pop\n        /* \"#utility.yul\":12640:12641   */\n      dup3\n        /* \"#utility.yul\":12637:12638   */\n      dup3\n        /* \"#utility.yul\":12633:12642   */\n      add\n        /* \"#utility.yul\":12626:12642   */\n      swap1\n      pop\n        /* \"#utility.yul\":12661:12664   */\n      dup1\n        /* \"#utility.yul\":12658:12659   */\n      dup3\n        /* \"#utility.yul\":12655:12665   */\n      gt\n        /* \"#utility.yul\":12652:12688   */\n      iszero\n      tag_463\n      jumpi\n        /* \"#utility.yul\":12668:12686   */\n      tag_464\n      tag_311\n      jump\t// in\n    tag_464:\n        /* \"#utility.yul\":12652:12688   */\n    tag_463:\n        /* \"#utility.yul\":12504:12695   */\n      swap3\n      swap2\n      pop\n      pop\n      jump\t// out\n        /* \"#utility.yul\":12701:13143   */\n    tag_242:\n        /* \"#utility.yul\":12850:12854   */\n      0x00\n        /* \"#utility.yul\":12888:12890   */\n      0x60\n        /* \"#utility.yul\":12877:12886   */\n      dup3\n        /* \"#utility.yul\":12873:12891   */\n      add\n        /* \"#utility.yul\":12865:12891   */\n      swap1\n      pop\n        /* \"#utility.yul\":12901:12972   */\n      tag_466\n        /* \"#utility.yul\":12969:12970   */\n      0x00\n        /* \"#utility.yul\":12958:12967   */\n      dup4\n        /* \"#utility.yul\":12954:12971   */\n      add\n        /* \"#utility.yul\":12945:12951   */\n      dup7\n        /* \"#utility.yul\":12901:12972   */\n      tag_303\n      jump\t// in\n    tag_466:\n        /* \"#utility.yul\":12982:13054   */\n      tag_467\n        /* \"#utility.yul\":13050:13052   */\n      0x20\n        /* \"#utility.yul\":13039:13048   */\n      dup4\n        /* \"#utility.yul\":13035:13053   */\n      add\n        /* \"#utility.yul\":13026:13032   */\n      dup6\n        /* \"#utility.yul\":12982:13054   */\n      tag_279\n      jump\t// in\n    tag_467:\n        /* \"#utility.yul\":13064:13136   */\n      tag_468\n        /* \"#utility.yul\":13132:13134   */\n      0x40\n        /* \"#utility.yul\":13121:13130   */\n      dup4\n        /* \"#utility.yul\":13117:13135   */\n      add\n        /* \"#utility.yul\":13108:13114   */\n      dup5\n        /* \"#utility.yul\":13064:13136   */\n      tag_279\n      jump\t// in\n    tag_468:\n        /* \"#utility.yul\":12701:13143   */\n      swap5\n      swap4\n      pop\n      pop\n      pop\n      pop\n      jump\t// out\n\n    auxdata: 0xa264697066735822122024c40446212869744a717e46fc7030820ed5b5c81d63cb729d455cf4d055c00364736f6c634300081c0033\n}\n",
				"bytecode": {
					"linkReferences": {},
					"object": "60806040526005600655600a60075560326008556014600955601e600a55348015610028575f5ffd5b50604051612ceb380380612ceb833981810160405281019061004a91906108fd565b338383816003908161005c9190610b95565b50806004908161006c9190610b95565b5050505f73ffffffffffffffffffffffffffffffffffffffff168173ffffffffffffffffffffffffffffffffffffffff16036100df575f6040517f1e4fbdf70000000000000000000000000000000000000000000000000000000081526004016100d69190610c73565b60405180910390fd5b6100ee816103ed60201b60201c565b5080600b5f6101000a81548173ffffffffffffffffffffffffffffffffffffffff021916908373ffffffffffffffffffffffffffffffffffffffff160217905550600b5f9054906101000a900473ffffffffffffffffffffffffffffffffffffffff1673ffffffffffffffffffffffffffffffffffffffff1663c45a01556040518163ffffffff1660e01b8152600401602060405180830381865afa158015610199573d5f5f3e3d5ffd5b505050506040513d601f19601f820116820180604052508101906101bd9190610c8c565b73ffffffffffffffffffffffffffffffffffffffff1663c9c6539630600b5f9054906101000a900473ffffffffffffffffffffffffffffffffffffffff1673ffffffffffffffffffffffffffffffffffffffff1663ad5c46486040518163ffffffff1660e01b8152600401602060405180830381865afa158015610243573d5f5f3e3d5ffd5b505050506040513d601f19601f820116820180604052508101906102679190610c8c565b6040518363ffffffff1660e01b8152600401610284929190610cb7565b6020604051808303815f875af11580156102a0573d5f5f3e3d5ffd5b505050506040513d601f19601f820116820180604052508101906102c49190610c8c565b600c5f6101000a81548173ffffffffffffffffffffffffffffffffffffffff021916908373ffffffffffffffffffffffffffffffffffffffff1602179055506001600d5f3373ffffffffffffffffffffffffffffffffffffffff1673ffffffffffffffffffffffffffffffffffffffff1681526020019081526020015f205f6101000a81548160ff0219169083151502179055506001600d5f3073ffffffffffffffffffffffffffffffffffffffff1673ffffffffffffffffffffffffffffffffffffffff1681526020019081526020015f205f6101000a81548160ff0219169083151502179055506103e5336103bf6104b060201b60201c565b600a6103cb9190610e46565b633b9aca006103da9190610e90565b6104b860201b60201c565b505050610f61565b5f60055f9054906101000a900473ffffffffffffffffffffffffffffffffffffffff1690508160055f6101000a81548173ffffffffffffffffffffffffffffffffffffffff021916908373ffffffffffffffffffffffffffffffffffffffff1602179055508173ffffffffffffffffffffffffffffffffffffffff168173ffffffffffffffffffffffffffffffffffffffff167f8be0079c531659141344cd1fd0a4f28419497f9722a3daafe3b4186f6b6457e060405160405180910390a35050565b5f6012905090565b5f73ffffffffffffffffffffffffffffffffffffffff168273ffffffffffffffffffffffffffffffffffffffff1603610528575f6040517fec442f0500000000000000000000000000000000000000000000000000000000815260040161051f9190610c73565b60405180910390fd5b6105395f838361053d60201b60201c565b5050565b5f73ffffffffffffffffffffffffffffffffffffffff168373ffffffffffffffffffffffffffffffffffffffff160361058d578060025f8282546105819190610ed1565b9250508190555061065b565b5f5f5f8573ffffffffffffffffffffffffffffffffffffffff1673ffffffffffffffffffffffffffffffffffffffff1681526020019081526020015f2054905081811015610616578381836040517fe450d38c00000000000000000000000000000000000000000000000000000000815260040161060d93929190610f13565b60405180910390fd5b8181035f5f8673ffffffffffffffffffffffffffffffffffffffff1673ffffffffffffffffffffffffffffffffffffffff1681526020019081526020015f2081905550505b5f73ffffffffffffffffffffffffffffffffffffffff168273ffffffffffffffffffffffffffffffffffffffff16036106a2578060025f82825403925050819055506106ec565b805f5f8473ffffffffffffffffffffffffffffffffffffffff1673ffffffffffffffffffffffffffffffffffffffff1681526020019081526020015f205f82825401925050819055505b8173ffffffffffffffffffffffffffffffffffffffff168373ffffffffffffffffffffffffffffffffffffffff167fddf252ad1be2c89b69c2b068fc378daa952ba7f163c4a11628f55a4df523b3ef836040516107499190610f48565b60405180910390a3505050565b5f604051905090565b5f5ffd5b5f5ffd5b5f5ffd5b5f5ffd5b5f601f19601f8301169050919050565b7f4e487b71000000000000000000000000000000000000000000000000000000005f52604160045260245ffd5b6107b58261076f565b810181811067ffffffffffffffff821117156107d4576107d361077f565b5b80604052505050565b5f6107e6610756565b90506107f282826107ac565b919050565b5f67ffffffffffffffff8211156108115761081061077f565b5b61081a8261076f565b9050602081019050919050565b8281835e5f83830152505050565b5f610847610842846107f7565b6107dd565b9050828152602081018484840111156108635761086261076b565b5b61086e848285610827565b509392505050565b5f82601f83011261088a57610889610767565b5b815161089a848260208601610835565b91505092915050565b5f73ffffffffffffffffffffffffffffffffffffffff82169050919050565b5f6108cc826108a3565b9050919050565b6108dc816108c2565b81146108e6575f5ffd5b50565b5f815190506108f7816108d3565b92915050565b5f5f5f606084860312156109145761091361075f565b5b5f84015167ffffffffffffffff81111561093157610930610763565b5b61093d86828701610876565b935050602084015167ffffffffffffffff81111561095e5761095d610763565b5b61096a86828701610876565b925050604061097b868287016108e9565b9150509250925092565b5f81519050919050565b7f4e487b71000000000000000000000000000000000000000000000000000000005f52602260045260245ffd5b5f60028204905060018216806109d357607f821691505b6020821081036109e6576109e561098f565b5b50919050565b5f819050815f5260205f209050919050565b5f6020601f8301049050919050565b5f82821b905092915050565b5f60088302610a487fffffffffffffffffffffffffffffffffffffffffffffffffffffffffffffffff82610a0d565b610a528683610a0d565b95508019841693508086168417925050509392505050565b5f819050919050565b5f819050919050565b5f610a96610a91610a8c84610a6a565b610a73565b610a6a565b9050919050565b5f819050919050565b610aaf83610a7c565b610ac3610abb82610a9d565b848454610a19565b825550505050565b5f5f905090565b610ada610acb565b610ae5818484610aa6565b505050565b5b81811015610b0857610afd5f82610ad2565b600181019050610aeb565b5050565b601f821115610b4d57610b1e816109ec565b610b27846109fe565b81016020851015610b36578190505b610b4a610b42856109fe565b830182610aea565b50505b505050565b5f82821c905092915050565b5f610b6d5f1984600802610b52565b1980831691505092915050565b5f610b858383610b5e565b9150826002028217905092915050565b610b9e82610985565b67ffffffffffffffff811115610bb757610bb661077f565b5b610bc182546109bc565b610bcc828285610b0c565b5f60209050601f831160018114610bfd575f8415610beb578287015190505b610bf58582610b7a565b865550610c5c565b601f198416610c0b866109ec565b5f5b82811015610c3257848901518255600182019150602085019450602081019050610c0d565b86831015610c4f5784890151610c4b601f891682610b5e565b8355505b6001600288020188555050505b505050505050565b610c6d816108c2565b82525050565b5f602082019050610c865f830184610c64565b92915050565b5f60208284031215610ca157610ca061075f565b5b5f610cae848285016108e9565b91505092915050565b5f604082019050610cca5f830185610c64565b610cd76020830184610c64565b9392505050565b7f4e487b71000000000000000000000000000000000000000000000000000000005f52601160045260245ffd5b5f8160011c9050919050565b5f5f8291508390505b6001851115610d6057808604811115610d3c57610d3b610cde565b5b6001851615610d4b5780820291505b8081029050610d5985610d0b565b9450610d20565b94509492505050565b5f82610d785760019050610e33565b81610d85575f9050610e33565b8160018114610d9b5760028114610da557610dd4565b6001915050610e33565b60ff841115610db757610db6610cde565b5b8360020a915084821115610dce57610dcd610cde565b5b50610e33565b5060208310610133831016604e8410600b8410161715610e095782820a905083811115610e0457610e03610cde565b5b610e33565b610e168484846001610d17565b92509050818404811115610e2d57610e2c610cde565b5b81810290505b9392505050565b5f60ff82169050919050565b5f610e5082610a6a565b9150610e5b83610e3a565b9250610e887fffffffffffffffffffffffffffffffffffffffffffffffffffffffffffffffff8484610d69565b905092915050565b5f610e9a82610a6a565b9150610ea583610a6a565b9250828202610eb381610a6a565b91508282048414831517610eca57610ec9610cde565b5b5092915050565b5f610edb82610a6a565b9150610ee683610a6a565b9250828201905080821115610efe57610efd610cde565b5b92915050565b610f0d81610a6a565b82525050565b5f606082019050610f265f830186610c64565b610f336020830185610f04565b610f406040830184610f04565b949350505050565b5f602082019050610f5b5f830184610f04565b92915050565b611d7d80610f6e5f395ff3fe608060405234801561000f575f5ffd5b506004361061018c575f3560e01c806370a08231116100dc578063c647b20e11610095578063cb4ca6311161006f578063cb4ca6311461044e578063cc1776d31461047e578063dd62ed3e1461049c578063f2fde38b146104cc5761018c565b8063c647b20e146103f8578063c6a3064714610414578063c816841b146104305761018c565b806370a0823114610336578063715018a6146103665780638da5cb5b1461037057806395d89b411461038e578063a9059cbb146103ac578063beabacc8146103dc5761018c565b80632431ba7311610149578063337270771161012357806333727077146102c05780634e6fd6c4146102de5780634f7041a5146102fc57806351c6590a1461031a5761018c565b80632431ba73146102685780632e1a7d4d14610286578063313ce567146102a25761018c565b806305bf0a541461019057806306fdde03146101ae578063095ea7b3146101cc57806315291cd4146101fc57806318160ddd1461021a57806323b872dd14610238575b5f5ffd5b6101986104e8565b6040516101a59190611665565b60405180910390f35b6101b66104ee565b6040516101c391906116ee565b60405180910390f35b6101e660048036038101906101e19190611796565b61057e565b6040516101f391906117ee565b60405180910390f35b6102046105a0565b6040516102119190611665565b60405180910390f35b6102226105a6565b60405161022f9190611665565b60405180910390f35b610252600480360381019061024d9190611807565b6105af565b60405161025f91906117ee565b60405180910390f35b6102706105dd565b60405161027d91906118b2565b60405180910390f35b6102a0600480360381019061029b91906118cb565b610602565b005b6102aa6106fb565b6040516102b79190611911565b60405180910390f35b6102c8610703565b6040516102d59190611665565b60405180910390f35b6102e6610709565b6040516102f39190611939565b60405180910390f35b61030461070f565b6040516103119190611665565b60405180910390f35b610334600480360381019061032f91906118cb565b610715565b005b610350600480360381019061034b9190611952565b61086e565b60405161035d9190611665565b60405180910390f35b61036e6108b3565b005b6103786108c6565b6040516103859190611939565b60405180910390f35b6103966108ee565b6040516103a391906116ee565b60405180910390f35b6103c660048036038101906103c19190611796565b61097e565b6040516103d391906117ee565b60405180910390f35b6103f660048036038101906103f19190611807565b6109a0565b005b610412600480360381019061040d919061197d565b610cf0565b005b61042e600480360381019061042991906119e5565b610d52565b005b610438610db2565b6040516104459190611939565b60405180910390f35b61046860048036038101906104639190611952565b610dd7565b60405161047591906117ee565b60405180910390f35b610486610df4565b6040516104939190611665565b60405180910390f35b6104b660048036038101906104b19190611a23565b610dfa565b6040516104c39190611665565b60405180910390f35b6104e660048036038101906104e19190611952565b610e7c565b005b60095481565b6060600380546104fd90611a8e565b80601f016020809104026020016040519081016040528092919081815260200182805461052990611a8e565b80156105745780601f1061054b57610100808354040283529160200191610574565b820191905f5260205f20905b81548152906001019060200180831161055757829003601f168201915b5050505050905090565b5f5f610588610f00565b9050610595818585610f07565b600191505092915050565b60085481565b5f600254905090565b5f5f6105b9610f00565b90506105c6858285610f19565b6105d1858585610fac565b60019150509392505050565b600b5f9054906101000a900473ffffffffffffffffffffffffffffffffffffffff1681565b61060a61109c565b5f73ffffffffffffffffffffffffffffffffffffffff163373ffffffffffffffffffffffffffffffffffffffff160361066f576040517fa38ca3d900000000000000000000000000000000000000000000000000000000815260040160405180910390fd5b4781116106a8576040517f356680b700000000000000000000000000000000000000000000000000000000815260040160405180910390fd5b5f4790506106b46108c6565b73ffffffffffffffffffffffffffffffffffffffff166108fc8290811502906040515f60405180830381858888f193505050501580156106f6573d5f5f3e3d5ffd5b505050565b5f6012905090565b600a5481565b61dead81565b60065481565b61071d61109c565b5f8111610756576040517f671d94d800000000000000000000000000000000000000000000000000000000815260040160405180910390fd5b61078230600b5f9054906101000a900473ffffffffffffffffffffffffffffffffffffffff1683610f07565b600b5f9054906101000a900473ffffffffffffffffffffffffffffffffffffffff1673ffffffffffffffffffffffffffffffffffffffff1663f305d7194730845f5f6107cc6108c6565b426040518863ffffffff1660e01b81526004016107ee96959493929190611af7565b60606040518083038185885af115801561080a573d5f5f3e3d5ffd5b50505050506040513d601f19601f8201168201806040525081019061082f9190611b6a565b5050507f38f8a0c92f4c5b0b6877f878cb4c0c8d348a47b76d716c8e78f425043df9515b8147604051610863929190611bba565b60405180910390a150565b5f5f5f8373ffffffffffffffffffffffffffffffffffffffff1673ffffffffffffffffffffffffffffffffffffffff1681526020019081526020015f20549050919050565b6108bb61109c565b6108c45f611123565b565b5f60055f9054906101000a900473ffffffffffffffffffffffffffffffffffffffff16905090565b6060600480546108fd90611a8e565b80601f016020809104026020016040519081016040528092919081815260200182805461092990611a8e565b80156109745780601f1061094b57610100808354040283529160200191610974565b820191905f5260205f20905b81548152906001019060200180831161095757829003601f168201915b5050505050905090565b5f5f610988610f00565b9050610995818585610fac565b600191505092915050565b5f73ffffffffffffffffffffffffffffffffffffffff168373ffffffffffffffffffffffffffffffffffffffff1603610a05576040517ff38f85c300000000000000000000000000000000000000000000000000000000815260040160405180910390fd5b5f73ffffffffffffffffffffffffffffffffffffffff168273ffffffffffffffffffffffffffffffffffffffff1603610a6a576040517fa38ca3d900000000000000000000000000000000000000000000000000000000815260040160405180910390fd5b600d5f8473ffffffffffffffffffffffffffffffffffffffff1673ffffffffffffffffffffffffffffffffffffffff1681526020019081526020015f205f9054906101000a900460ff1680610b055750600d5f8373ffffffffffffffffffffffffffffffffffffffff1673ffffffffffffffffffffffffffffffffffffffff1681526020019081526020015f205f9054906101000a900460ff165b15610b1a57610b15838383610fac565b610ceb565b5f600c5f9054906101000a900473ffffffffffffffffffffffffffffffffffffffff1673ffffffffffffffffffffffffffffffffffffffff168373ffffffffffffffffffffffffffffffffffffffff161490505f600c5f9054906101000a900473ffffffffffffffffffffffffffffffffffffffff1673ffffffffffffffffffffffffffffffffffffffff168573ffffffffffffffffffffffffffffffffffffffff161490505f8215610be857606460065485610bd79190611c0e565b610be19190611c7c565b9050610c0c565b8115610c0b57606460075485610bfe9190611c0e565b610c089190611c7c565b90505b5b5f8185610c199190611cac565b90508181610c279190611cdf565b8514610c5f576040517f1f825c6a00000000000000000000000000000000000000000000000000000000815260040160405180910390fd5b5f821115610cdb57610c72873084610fac565b7f092c6768ba45dfdc937f94a27a0c5be8334952f1558bc7dd41b3e8707502e1b682604051610ca19190611665565b60405180910390a15f606460095484610cba9190611c0e565b610cc49190611c7c565b90505f811115610cd957610cd830826111e6565b5b505b610ce6878783610fac565b505050505b505050565b610cf861109c565b600a8211158015610d0a575060148111155b610d40576040517faf1ee13400000000000000000000000000000000000000000000000000000000815260040160405180910390fd5b81600681905550806007819055505050565b610d5a61109c565b80600d5f8473ffffffffffffffffffffffffffffffffffffffff1673ffffffffffffffffffffffffffffffffffffffff1681526020019081526020015f205f6101000a81548160ff0219169083151502179055505050565b600c5f9054906101000a900473ffffffffffffffffffffffffffffffffffffffff1681565b600d602052805f5260405f205f915054906101000a900460ff1681565b60075481565b5f60015f8473ffffffffffffffffffffffffffffffffffffffff1673ffffffffffffffffffffffffffffffffffffffff1681526020019081526020015f205f8373ffffffffffffffffffffffffffffffffffffffff1673ffffffffffffffffffffffffffffffffffffffff1681526020019081526020015f2054905092915050565b610e8461109c565b5f73ffffffffffffffffffffffffffffffffffffffff168173ffffffffffffffffffffffffffffffffffffffff1603610ef4575f6040517f1e4fbdf7000000000000000000000000000000000000000000000000000000008152600401610eeb9190611939565b60405180910390fd5b610efd81611123565b50565b5f33905090565b610f148383836001611265565b505050565b5f610f248484610dfa565b90507fffffffffffffffffffffffffffffffffffffffffffffffffffffffffffffffff811015610fa65781811015610f97578281836040517ffb8f41b2000000000000000000000000000000000000000000000000000000008152600401610f8e93929190611d12565b60405180910390fd5b610fa584848484035f611265565b5b50505050565b5f73ffffffffffffffffffffffffffffffffffffffff168373ffffffffffffffffffffffffffffffffffffffff160361101c575f6040517f96c6fd1e0000000000000000000000000000000000000000000000000000000081526004016110139190611939565b60405180910390fd5b5f73ffffffffffffffffffffffffffffffffffffffff168273ffffffffffffffffffffffffffffffffffffffff160361108c575f6040517fec442f050000000000000000000000000000000000000000000000000000000081526004016110839190611939565b60405180910390fd5b611097838383611434565b505050565b6110a4610f00565b73ffffffffffffffffffffffffffffffffffffffff166110c26108c6565b73ffffffffffffffffffffffffffffffffffffffff1614611121576110e5610f00565b6040517f118cdaa70000000000000000000000000000000000000000000000000000000081526004016111189190611939565b60405180910390fd5b565b5f60055f9054906101000a900473ffffffffffffffffffffffffffffffffffffffff1690508160055f6101000a81548173ffffffffffffffffffffffffffffffffffffffff021916908373ffffffffffffffffffffffffffffffffffffffff1602179055508173ffffffffffffffffffffffffffffffffffffffff168173ffffffffffffffffffffffffffffffffffffffff167f8be0079c531659141344cd1fd0a4f28419497f9722a3daafe3b4186f6b6457e060405160405180910390a35050565b5f73ffffffffffffffffffffffffffffffffffffffff168273ffffffffffffffffffffffffffffffffffffffff1603611256575f6040517f96c6fd1e00000000000000000000000000000000000000000000000000000000815260040161124d9190611939565b60405180910390fd5b611261825f83611434565b5050565b5f73ffffffffffffffffffffffffffffffffffffffff168473ffffffffffffffffffffffffffffffffffffffff16036112d5575f6040517fe602df050000000000000000000000000000000000000000000000000000000081526004016112cc9190611939565b60405180910390fd5b5f73ffffffffffffffffffffffffffffffffffffffff168373ffffffffffffffffffffffffffffffffffffffff1603611345575f6040517f94280d6200000000000000000000000000000000000000000000000000000000815260040161133c9190611939565b60405180910390fd5b8160015f8673ffffffffffffffffffffffffffffffffffffffff1673ffffffffffffffffffffffffffffffffffffffff1681526020019081526020015f205f8573ffffffffffffffffffffffffffffffffffffffff1673ffffffffffffffffffffffffffffffffffffffff1681526020019081526020015f2081905550801561142e578273ffffffffffffffffffffffffffffffffffffffff168473ffffffffffffffffffffffffffffffffffffffff167f8c5be1e5ebec7d5bd14f71427d1e84f3dd0314c0f7b2291e5b200ac8c7c3b925846040516114259190611665565b60405180910390a35b50505050565b5f73ffffffffffffffffffffffffffffffffffffffff168373ffffffffffffffffffffffffffffffffffffffff1603611484578060025f8282546114789190611cdf565b92505081905550611552565b5f5f5f8573ffffffffffffffffffffffffffffffffffffffff1673ffffffffffffffffffffffffffffffffffffffff1681526020019081526020015f205490508181101561150d578381836040517fe450d38c00000000000000000000000000000000000000000000000000000000815260040161150493929190611d12565b60405180910390fd5b8181035f5f8673ffffffffffffffffffffffffffffffffffffffff1673ffffffffffffffffffffffffffffffffffffffff1681526020019081526020015f2081905550505b5f73ffffffffffffffffffffffffffffffffffffffff168273ffffffffffffffffffffffffffffffffffffffff1603611599578060025f82825403925050819055506115e3565b805f5f8473ffffffffffffffffffffffffffffffffffffffff1673ffffffffffffffffffffffffffffffffffffffff1681526020019081526020015f205f82825401925050819055505b8173ffffffffffffffffffffffffffffffffffffffff168373ffffffffffffffffffffffffffffffffffffffff167fddf252ad1be2c89b69c2b068fc378daa952ba7f163c4a11628f55a4df523b3ef836040516116409190611665565b60405180910390a3505050565b5f819050919050565b61165f8161164d565b82525050565b5f6020820190506116785f830184611656565b92915050565b5f81519050919050565b5f82825260208201905092915050565b8281835e5f83830152505050565b5f601f19601f8301169050919050565b5f6116c08261167e565b6116ca8185611688565b93506116da818560208601611698565b6116e3816116a6565b840191505092915050565b5f6020820190508181035f83015261170681846116b6565b905092915050565b5f5ffd5b5f73ffffffffffffffffffffffffffffffffffffffff82169050919050565b5f61173b82611712565b9050919050565b61174b81611731565b8114611755575f5ffd5b50565b5f8135905061176681611742565b92915050565b6117758161164d565b811461177f575f5ffd5b50565b5f813590506117908161176c565b92915050565b5f5f604083850312156117ac576117ab61170e565b5b5f6117b985828601611758565b92505060206117ca85828601611782565b9150509250929050565b5f8115159050919050565b6117e8816117d4565b82525050565b5f6020820190506118015f8301846117df565b92915050565b5f5f5f6060848603121561181e5761181d61170e565b5b5f61182b86828701611758565b935050602061183c86828701611758565b925050604061184d86828701611782565b9150509250925092565b5f819050919050565b5f61187a61187561187084611712565b611857565b611712565b9050919050565b5f61188b82611860565b9050919050565b5f61189c82611881565b9050919050565b6118ac81611892565b82525050565b5f6020820190506118c55f8301846118a3565b92915050565b5f602082840312156118e0576118df61170e565b5b5f6118ed84828501611782565b91505092915050565b5f60ff82169050919050565b61190b816118f6565b82525050565b5f6020820190506119245f830184611902565b92915050565b61193381611731565b82525050565b5f60208201905061194c5f83018461192a565b92915050565b5f602082840312156119675761196661170e565b5b5f61197484828501611758565b91505092915050565b5f5f604083850312156119935761199261170e565b5b5f6119a085828601611782565b92505060206119b185828601611782565b9150509250929050565b6119c4816117d4565b81146119ce575f5ffd5b50565b5f813590506119df816119bb565b92915050565b5f5f604083850312156119fb576119fa61170e565b5b5f611a0885828601611758565b9250506020611a19858286016119d1565b9150509250929050565b5f5f60408385031215611a3957611a3861170e565b5b5f611a4685828601611758565b9250506020611a5785828601611758565b9150509250929050565b7f4e487b71000000000000000000000000000000000000000000000000000000005f52602260045260245ffd5b5f6002820490506001821680611aa557607f821691505b602082108103611ab857611ab7611a61565b5b50919050565b5f819050919050565b5f611ae1611adc611ad784611abe565b611857565b61164d565b9050919050565b611af181611ac7565b82525050565b5f60c082019050611b0a5f83018961192a565b611b176020830188611656565b611b246040830187611ae8565b611b316060830186611ae8565b611b3e608083018561192a565b611b4b60a0830184611656565b979650505050505050565b5f81519050611b648161176c565b92915050565b5f5f5f60608486031215611b8157611b8061170e565b5b5f611b8e86828701611b56565b9350506020611b9f86828701611b56565b9250506040611bb086828701611b56565b9150509250925092565b5f604082019050611bcd5f830185611656565b611bda6020830184611656565b9392505050565b7f4e487b71000000000000000000000000000000000000000000000000000000005f52601160045260245ffd5b5f611c188261164d565b9150611c238361164d565b9250828202611c318161164d565b91508282048414831517611c4857611c47611be1565b5b5092915050565b7f4e487b71000000000000000000000000000000000000000000000000000000005f52601260045260245ffd5b5f611c868261164d565b9150611c918361164d565b925082611ca157611ca0611c4f565b5b828204905092915050565b5f611cb68261164d565b9150611cc18361164d565b9250828203905081811115611cd957611cd8611be1565b5b92915050565b5f611ce98261164d565b9150611cf48361164d565b9250828201905080821115611d0c57611d0b611be1565b5b92915050565b5f606082019050611d255f83018661192a565b611d326020830185611656565b611d3f6040830184611656565b94935050505056fea264697066735822122024c40446212869744a717e46fc7030820ed5b5c81d63cb729d455cf4d055c00364736f6c634300081c0033",
					"opcodes": "PUSH1 0x80 PUSH1 0x40 MSTORE PUSH1 0x5 PUSH1 0x6 SSTORE PUSH1 0xA PUSH1 0x7 SSTORE PUSH1 0x32 PUSH1 0x8 SSTORE PUSH1 0x14 PUSH1 0x9 SSTORE PUSH1 0x1E PUSH1 0xA SSTORE CALLVALUE DUP1 ISZERO PUSH2 0x28 JUMPI PUSH0 PUSH0 REVERT JUMPDEST POP PUSH1 0x40 MLOAD PUSH2 0x2CEB CODESIZE SUB DUP1 PUSH2 0x2CEB DUP4 CODECOPY DUP2 DUP2 ADD PUSH1 0x40 MSTORE DUP2 ADD SWAP1 PUSH2 0x4A SWAP2 SWAP1 PUSH2 0x8FD JUMP JUMPDEST CALLER DUP4 DUP4 DUP2 PUSH1 0x3 SWAP1 DUP2 PUSH2 0x5C SWAP2 SWAP1 PUSH2 0xB95 JUMP JUMPDEST POP DUP1 PUSH1 0x4 SWAP1 DUP2 PUSH2 0x6C SWAP2 SWAP1 PUSH2 0xB95 JUMP JUMPDEST POP POP POP PUSH0 PUSH20 0xFFFFFFFFFFFFFFFFFFFFFFFFFFFFFFFFFFFFFFFF AND DUP2 PUSH20 0xFFFFFFFFFFFFFFFFFFFFFFFFFFFFFFFFFFFFFFFF AND SUB PUSH2 0xDF JUMPI PUSH0 PUSH1 0x40 MLOAD PUSH32 0x1E4FBDF700000000000000000000000000000000000000000000000000000000 DUP2 MSTORE PUSH1 0x4 ADD PUSH2 0xD6 SWAP2 SWAP1 PUSH2 0xC73 JUMP JUMPDEST PUSH1 0x40 MLOAD DUP1 SWAP2 SUB SWAP1 REVERT JUMPDEST PUSH2 0xEE DUP2 PUSH2 0x3ED PUSH1 0x20 SHL PUSH1 0x20 SHR JUMP JUMPDEST POP DUP1 PUSH1 0xB PUSH0 PUSH2 0x100 EXP DUP2 SLOAD DUP2 PUSH20 0xFFFFFFFFFFFFFFFFFFFFFFFFFFFFFFFFFFFFFFFF MUL NOT AND SWAP1 DUP4 PUSH20 0xFFFFFFFFFFFFFFFFFFFFFFFFFFFFFFFFFFFFFFFF AND MUL OR SWAP1 SSTORE POP PUSH1 0xB PUSH0 SWAP1 SLOAD SWAP1 PUSH2 0x100 EXP SWAP1 DIV PUSH20 0xFFFFFFFFFFFFFFFFFFFFFFFFFFFFFFFFFFFFFFFF AND PUSH20 0xFFFFFFFFFFFFFFFFFFFFFFFFFFFFFFFFFFFFFFFF AND PUSH4 0xC45A0155 PUSH1 0x40 MLOAD DUP2 PUSH4 0xFFFFFFFF AND PUSH1 0xE0 SHL DUP2 MSTORE PUSH1 0x4 ADD PUSH1 0x20 PUSH1 0x40 MLOAD DUP1 DUP4 SUB DUP2 DUP7 GAS STATICCALL ISZERO DUP1 ISZERO PUSH2 0x199 JUMPI RETURNDATASIZE PUSH0 PUSH0 RETURNDATACOPY RETURNDATASIZE PUSH0 REVERT JUMPDEST POP POP POP POP PUSH1 0x40 MLOAD RETURNDATASIZE PUSH1 0x1F NOT PUSH1 0x1F DUP3 ADD AND DUP3 ADD DUP1 PUSH1 0x40 MSTORE POP DUP2 ADD SWAP1 PUSH2 0x1BD SWAP2 SWAP1 PUSH2 0xC8C JUMP JUMPDEST PUSH20 0xFFFFFFFFFFFFFFFFFFFFFFFFFFFFFFFFFFFFFFFF AND PUSH4 0xC9C65396 ADDRESS PUSH1 0xB PUSH0 SWAP1 SLOAD SWAP1 PUSH2 0x100 EXP SWAP1 DIV PUSH20 0xFFFFFFFFFFFFFFFFFFFFFFFFFFFFFFFFFFFFFFFF AND PUSH20 0xFFFFFFFFFFFFFFFFFFFFFFFFFFFFFFFFFFFFFFFF AND PUSH4 0xAD5C4648 PUSH1 0x40 MLOAD DUP2 PUSH4 0xFFFFFFFF AND PUSH1 0xE0 SHL DUP2 MSTORE PUSH1 0x4 ADD PUSH1 0x20 PUSH1 0x40 MLOAD DUP1 DUP4 SUB DUP2 DUP7 GAS STATICCALL ISZERO DUP1 ISZERO PUSH2 0x243 JUMPI RETURNDATASIZE PUSH0 PUSH0 RETURNDATACOPY RETURNDATASIZE PUSH0 REVERT JUMPDEST POP POP POP POP PUSH1 0x40 MLOAD RETURNDATASIZE PUSH1 0x1F NOT PUSH1 0x1F DUP3 ADD AND DUP3 ADD DUP1 PUSH1 0x40 MSTORE POP DUP2 ADD SWAP1 PUSH2 0x267 SWAP2 SWAP1 PUSH2 0xC8C JUMP JUMPDEST PUSH1 0x40 MLOAD DUP4 PUSH4 0xFFFFFFFF AND PUSH1 0xE0 SHL DUP2 MSTORE PUSH1 0x4 ADD PUSH2 0x284 SWAP3 SWAP2 SWAP1 PUSH2 0xCB7 JUMP JUMPDEST PUSH1 0x20 PUSH1 0x40 MLOAD DUP1 DUP4 SUB DUP2 PUSH0 DUP8 GAS CALL ISZERO DUP1 ISZERO PUSH2 0x2A0 JUMPI RETURNDATASIZE PUSH0 PUSH0 RETURNDATACOPY RETURNDATASIZE PUSH0 REVERT JUMPDEST POP POP POP POP PUSH1 0x40 MLOAD RETURNDATASIZE PUSH1 0x1F NOT PUSH1 0x1F DUP3 ADD AND DUP3 ADD DUP1 PUSH1 0x40 MSTORE POP DUP2 ADD SWAP1 PUSH2 0x2C4 SWAP2 SWAP1 PUSH2 0xC8C JUMP JUMPDEST PUSH1 0xC PUSH0 PUSH2 0x100 EXP DUP2 SLOAD DUP2 PUSH20 0xFFFFFFFFFFFFFFFFFFFFFFFFFFFFFFFFFFFFFFFF MUL NOT AND SWAP1 DUP4 PUSH20 0xFFFFFFFFFFFFFFFFFFFFFFFFFFFFFFFFFFFFFFFF AND MUL OR SWAP1 SSTORE POP PUSH1 0x1 PUSH1 0xD PUSH0 CALLER PUSH20 0xFFFFFFFFFFFFFFFFFFFFFFFFFFFFFFFFFFFFFFFF AND PUSH20 0xFFFFFFFFFFFFFFFFFFFFFFFFFFFFFFFFFFFFFFFF AND DUP2 MSTORE PUSH1 0x20 ADD SWAP1 DUP2 MSTORE PUSH1 0x20 ADD PUSH0 KECCAK256 PUSH0 PUSH2 0x100 EXP DUP2 SLOAD DUP2 PUSH1 0xFF MUL NOT AND SWAP1 DUP4 ISZERO ISZERO MUL OR SWAP1 SSTORE POP PUSH1 0x1 PUSH1 0xD PUSH0 ADDRESS PUSH20 0xFFFFFFFFFFFFFFFFFFFFFFFFFFFFFFFFFFFFFFFF AND PUSH20 0xFFFFFFFFFFFFFFFFFFFFFFFFFFFFFFFFFFFFFFFF AND DUP2 MSTORE PUSH1 0x20 ADD SWAP1 DUP2 MSTORE PUSH1 0x20 ADD PUSH0 KECCAK256 PUSH0 PUSH2 0x100 EXP DUP2 SLOAD DUP2 PUSH1 0xFF MUL NOT AND SWAP1 DUP4 ISZERO ISZERO MUL OR SWAP1 SSTORE POP PUSH2 0x3E5 CALLER PUSH2 0x3BF PUSH2 0x4B0 PUSH1 0x20 SHL PUSH1 0x20 SHR JUMP JUMPDEST PUSH1 0xA PUSH2 0x3CB SWAP2 SWAP1 PUSH2 0xE46 JUMP JUMPDEST PUSH4 0x3B9ACA00 PUSH2 0x3DA SWAP2 SWAP1 PUSH2 0xE90 JUMP JUMPDEST PUSH2 0x4B8 PUSH1 0x20 SHL PUSH1 0x20 SHR JUMP JUMPDEST POP POP POP PUSH2 0xF61 JUMP JUMPDEST PUSH0 PUSH1 0x5 PUSH0 SWAP1 SLOAD SWAP1 PUSH2 0x100 EXP SWAP1 DIV PUSH20 0xFFFFFFFFFFFFFFFFFFFFFFFFFFFFFFFFFFFFFFFF AND SWAP1 POP DUP2 PUSH1 0x5 PUSH0 PUSH2 0x100 EXP DUP2 SLOAD DUP2 PUSH20 0xFFFFFFFFFFFFFFFFFFFFFFFFFFFFFFFFFFFFFFFF MUL NOT AND SWAP1 DUP4 PUSH20 0xFFFFFFFFFFFFFFFFFFFFFFFFFFFFFFFFFFFFFFFF AND MUL OR SWAP1 SSTORE POP DUP2 PUSH20 0xFFFFFFFFFFFFFFFFFFFFFFFFFFFFFFFFFFFFFFFF AND DUP2 PUSH20 0xFFFFFFFFFFFFFFFFFFFFFFFFFFFFFFFFFFFFFFFF AND PUSH32 0x8BE0079C531659141344CD1FD0A4F28419497F9722A3DAAFE3B4186F6B6457E0 PUSH1 0x40 MLOAD PUSH1 0x40 MLOAD DUP1 SWAP2 SUB SWAP1 LOG3 POP POP JUMP JUMPDEST PUSH0 PUSH1 0x12 SWAP1 POP SWAP1 JUMP JUMPDEST PUSH0 PUSH20 0xFFFFFFFFFFFFFFFFFFFFFFFFFFFFFFFFFFFFFFFF AND DUP3 PUSH20 0xFFFFFFFFFFFFFFFFFFFFFFFFFFFFFFFFFFFFFFFF AND SUB PUSH2 0x528 JUMPI PUSH0 PUSH1 0x40 MLOAD PUSH32 0xEC442F0500000000000000000000000000000000000000000000000000000000 DUP2 MSTORE PUSH1 0x4 ADD PUSH2 0x51F SWAP2 SWAP1 PUSH2 0xC73 JUMP JUMPDEST PUSH1 0x40 MLOAD DUP1 SWAP2 SUB SWAP1 REVERT JUMPDEST PUSH2 0x539 PUSH0 DUP4 DUP4 PUSH2 0x53D PUSH1 0x20 SHL PUSH1 0x20 SHR JUMP JUMPDEST POP POP JUMP JUMPDEST PUSH0 PUSH20 0xFFFFFFFFFFFFFFFFFFFFFFFFFFFFFFFFFFFFFFFF AND DUP4 PUSH20 0xFFFFFFFFFFFFFFFFFFFFFFFFFFFFFFFFFFFFFFFF AND SUB PUSH2 0x58D JUMPI DUP1 PUSH1 0x2 PUSH0 DUP3 DUP3 SLOAD PUSH2 0x581 SWAP2 SWAP1 PUSH2 0xED1 JUMP JUMPDEST SWAP3 POP POP DUP2 SWAP1 SSTORE POP PUSH2 0x65B JUMP JUMPDEST PUSH0 PUSH0 PUSH0 DUP6 PUSH20 0xFFFFFFFFFFFFFFFFFFFFFFFFFFFFFFFFFFFFFFFF AND PUSH20 0xFFFFFFFFFFFFFFFFFFFFFFFFFFFFFFFFFFFFFFFF AND DUP2 MSTORE PUSH1 0x20 ADD SWAP1 DUP2 MSTORE PUSH1 0x20 ADD PUSH0 KECCAK256 SLOAD SWAP1 POP DUP2 DUP2 LT ISZERO PUSH2 0x616 JUMPI DUP4 DUP2 DUP4 PUSH1 0x40 MLOAD PUSH32 0xE450D38C00000000000000000000000000000000000000000000000000000000 DUP2 MSTORE PUSH1 0x4 ADD PUSH2 0x60D SWAP4 SWAP3 SWAP2 SWAP1 PUSH2 0xF13 JUMP JUMPDEST PUSH1 0x40 MLOAD DUP1 SWAP2 SUB SWAP1 REVERT JUMPDEST DUP2 DUP2 SUB PUSH0 PUSH0 DUP7 PUSH20 0xFFFFFFFFFFFFFFFFFFFFFFFFFFFFFFFFFFFFFFFF AND PUSH20 0xFFFFFFFFFFFFFFFFFFFFFFFFFFFFFFFFFFFFFFFF AND DUP2 MSTORE PUSH1 0x20 ADD SWAP1 DUP2 MSTORE PUSH1 0x20 ADD PUSH0 KECCAK256 DUP2 SWAP1 SSTORE POP POP JUMPDEST PUSH0 PUSH20 0xFFFFFFFFFFFFFFFFFFFFFFFFFFFFFFFFFFFFFFFF AND DUP3 PUSH20 0xFFFFFFFFFFFFFFFFFFFFFFFFFFFFFFFFFFFFFFFF AND SUB PUSH2 0x6A2 JUMPI DUP1 PUSH1 0x2 PUSH0 DUP3 DUP3 SLOAD SUB SWAP3 POP POP DUP2 SWAP1 SSTORE POP PUSH2 0x6EC JUMP JUMPDEST DUP1 PUSH0 PUSH0 DUP5 PUSH20 0xFFFFFFFFFFFFFFFFFFFFFFFFFFFFFFFFFFFFFFFF AND PUSH20 0xFFFFFFFFFFFFFFFFFFFFFFFFFFFFFFFFFFFFFFFF AND DUP2 MSTORE PUSH1 0x20 ADD SWAP1 DUP2 MSTORE PUSH1 0x20 ADD PUSH0 KECCAK256 PUSH0 DUP3 DUP3 SLOAD ADD SWAP3 POP POP DUP2 SWAP1 SSTORE POP JUMPDEST DUP2 PUSH20 0xFFFFFFFFFFFFFFFFFFFFFFFFFFFFFFFFFFFFFFFF AND DUP4 PUSH20 0xFFFFFFFFFFFFFFFFFFFFFFFFFFFFFFFFFFFFFFFF AND PUSH32 0xDDF252AD1BE2C89B69C2B068FC378DAA952BA7F163C4A11628F55A4DF523B3EF DUP4 PUSH1 0x40 MLOAD PUSH2 0x749 SWAP2 SWAP1 PUSH2 0xF48 JUMP JUMPDEST PUSH1 0x40 MLOAD DUP1 SWAP2 SUB SWAP1 LOG3 POP POP POP JUMP JUMPDEST PUSH0 PUSH1 0x40 MLOAD SWAP1 POP SWAP1 JUMP JUMPDEST PUSH0 PUSH0 REVERT JUMPDEST PUSH0 PUSH0 REVERT JUMPDEST PUSH0 PUSH0 REVERT JUMPDEST PUSH0 PUSH0 REVERT JUMPDEST PUSH0 PUSH1 0x1F NOT PUSH1 0x1F DUP4 ADD AND SWAP1 POP SWAP2 SWAP1 POP JUMP JUMPDEST PUSH32 0x4E487B7100000000000000000000000000000000000000000000000000000000 PUSH0 MSTORE PUSH1 0x41 PUSH1 0x4 MSTORE PUSH1 0x24 PUSH0 REVERT JUMPDEST PUSH2 0x7B5 DUP3 PUSH2 0x76F JUMP JUMPDEST DUP2 ADD DUP2 DUP2 LT PUSH8 0xFFFFFFFFFFFFFFFF DUP3 GT OR ISZERO PUSH2 0x7D4 JUMPI PUSH2 0x7D3 PUSH2 0x77F JUMP JUMPDEST JUMPDEST DUP1 PUSH1 0x40 MSTORE POP POP POP JUMP JUMPDEST PUSH0 PUSH2 0x7E6 PUSH2 0x756 JUMP JUMPDEST SWAP1 POP PUSH2 0x7F2 DUP3 DUP3 PUSH2 0x7AC JUMP JUMPDEST SWAP2 SWAP1 POP JUMP JUMPDEST PUSH0 PUSH8 0xFFFFFFFFFFFFFFFF DUP3 GT ISZERO PUSH2 0x811 JUMPI PUSH2 0x810 PUSH2 0x77F JUMP JUMPDEST JUMPDEST PUSH2 0x81A DUP3 PUSH2 0x76F JUMP JUMPDEST SWAP1 POP PUSH1 0x20 DUP2 ADD SWAP1 POP SWAP2 SWAP1 POP JUMP JUMPDEST DUP3 DUP2 DUP4 MCOPY PUSH0 DUP4 DUP4 ADD MSTORE POP POP POP JUMP JUMPDEST PUSH0 PUSH2 0x847 PUSH2 0x842 DUP5 PUSH2 0x7F7 JUMP JUMPDEST PUSH2 0x7DD JUMP JUMPDEST SWAP1 POP DUP3 DUP2 MSTORE PUSH1 0x20 DUP2 ADD DUP5 DUP5 DUP5 ADD GT ISZERO PUSH2 0x863 JUMPI PUSH2 0x862 PUSH2 0x76B JUMP JUMPDEST JUMPDEST PUSH2 0x86E DUP5 DUP3 DUP6 PUSH2 0x827 JUMP JUMPDEST POP SWAP4 SWAP3 POP POP POP JUMP JUMPDEST PUSH0 DUP3 PUSH1 0x1F DUP4 ADD SLT PUSH2 0x88A JUMPI PUSH2 0x889 PUSH2 0x767 JUMP JUMPDEST JUMPDEST DUP2 MLOAD PUSH2 0x89A DUP5 DUP3 PUSH1 0x20 DUP7 ADD PUSH2 0x835 JUMP JUMPDEST SWAP2 POP POP SWAP3 SWAP2 POP POP JUMP JUMPDEST PUSH0 PUSH20 0xFFFFFFFFFFFFFFFFFFFFFFFFFFFFFFFFFFFFFFFF DUP3 AND SWAP1 POP SWAP2 SWAP1 POP JUMP JUMPDEST PUSH0 PUSH2 0x8CC DUP3 PUSH2 0x8A3 JUMP JUMPDEST SWAP1 POP SWAP2 SWAP1 POP JUMP JUMPDEST PUSH2 0x8DC DUP2 PUSH2 0x8C2 JUMP JUMPDEST DUP2 EQ PUSH2 0x8E6 JUMPI PUSH0 PUSH0 REVERT JUMPDEST POP JUMP JUMPDEST PUSH0 DUP2 MLOAD SWAP1 POP PUSH2 0x8F7 DUP2 PUSH2 0x8D3 JUMP JUMPDEST SWAP3 SWAP2 POP POP JUMP JUMPDEST PUSH0 PUSH0 PUSH0 PUSH1 0x60 DUP5 DUP7 SUB SLT ISZERO PUSH2 0x914 JUMPI PUSH2 0x913 PUSH2 0x75F JUMP JUMPDEST JUMPDEST PUSH0 DUP5 ADD MLOAD PUSH8 0xFFFFFFFFFFFFFFFF DUP2 GT ISZERO PUSH2 0x931 JUMPI PUSH2 0x930 PUSH2 0x763 JUMP JUMPDEST JUMPDEST PUSH2 0x93D DUP7 DUP3 DUP8 ADD PUSH2 0x876 JUMP JUMPDEST SWAP4 POP POP PUSH1 0x20 DUP5 ADD MLOAD PUSH8 0xFFFFFFFFFFFFFFFF DUP2 GT ISZERO PUSH2 0x95E JUMPI PUSH2 0x95D PUSH2 0x763 JUMP JUMPDEST JUMPDEST PUSH2 0x96A DUP7 DUP3 DUP8 ADD PUSH2 0x876 JUMP JUMPDEST SWAP3 POP POP PUSH1 0x40 PUSH2 0x97B DUP7 DUP3 DUP8 ADD PUSH2 0x8E9 JUMP JUMPDEST SWAP2 POP POP SWAP3 POP SWAP3 POP SWAP3 JUMP JUMPDEST PUSH0 DUP2 MLOAD SWAP1 POP SWAP2 SWAP1 POP JUMP JUMPDEST PUSH32 0x4E487B7100000000000000000000000000000000000000000000000000000000 PUSH0 MSTORE PUSH1 0x22 PUSH1 0x4 MSTORE PUSH1 0x24 PUSH0 REVERT JUMPDEST PUSH0 PUSH1 0x2 DUP3 DIV SWAP1 POP PUSH1 0x1 DUP3 AND DUP1 PUSH2 0x9D3 JUMPI PUSH1 0x7F DUP3 AND SWAP2 POP JUMPDEST PUSH1 0x20 DUP3 LT DUP2 SUB PUSH2 0x9E6 JUMPI PUSH2 0x9E5 PUSH2 0x98F JUMP JUMPDEST JUMPDEST POP SWAP2 SWAP1 POP JUMP JUMPDEST PUSH0 DUP2 SWAP1 POP DUP2 PUSH0 MSTORE PUSH1 0x20 PUSH0 KECCAK256 SWAP1 POP SWAP2 SWAP1 POP JUMP JUMPDEST PUSH0 PUSH1 0x20 PUSH1 0x1F DUP4 ADD DIV SWAP1 POP SWAP2 SWAP1 POP JUMP JUMPDEST PUSH0 DUP3 DUP3 SHL SWAP1 POP SWAP3 SWAP2 POP POP JUMP JUMPDEST PUSH0 PUSH1 0x8 DUP4 MUL PUSH2 0xA48 PUSH32 0xFFFFFFFFFFFFFFFFFFFFFFFFFFFFFFFFFFFFFFFFFFFFFFFFFFFFFFFFFFFFFFFF DUP3 PUSH2 0xA0D JUMP JUMPDEST PUSH2 0xA52 DUP7 DUP4 PUSH2 0xA0D JUMP JUMPDEST SWAP6 POP DUP1 NOT DUP5 AND SWAP4 POP DUP1 DUP7 AND DUP5 OR SWAP3 POP POP POP SWAP4 SWAP3 POP POP POP JUMP JUMPDEST PUSH0 DUP2 SWAP1 POP SWAP2 SWAP1 POP JUMP JUMPDEST PUSH0 DUP2 SWAP1 POP SWAP2 SWAP1 POP JUMP JUMPDEST PUSH0 PUSH2 0xA96 PUSH2 0xA91 PUSH2 0xA8C DUP5 PUSH2 0xA6A JUMP JUMPDEST PUSH2 0xA73 JUMP JUMPDEST PUSH2 0xA6A JUMP JUMPDEST SWAP1 POP SWAP2 SWAP1 POP JUMP JUMPDEST PUSH0 DUP2 SWAP1 POP SWAP2 SWAP1 POP JUMP JUMPDEST PUSH2 0xAAF DUP4 PUSH2 0xA7C JUMP JUMPDEST PUSH2 0xAC3 PUSH2 0xABB DUP3 PUSH2 0xA9D JUMP JUMPDEST DUP5 DUP5 SLOAD PUSH2 0xA19 JUMP JUMPDEST DUP3 SSTORE POP POP POP POP JUMP JUMPDEST PUSH0 PUSH0 SWAP1 POP SWAP1 JUMP JUMPDEST PUSH2 0xADA PUSH2 0xACB JUMP JUMPDEST PUSH2 0xAE5 DUP2 DUP5 DUP5 PUSH2 0xAA6 JUMP JUMPDEST POP POP POP JUMP JUMPDEST JUMPDEST DUP2 DUP2 LT ISZERO PUSH2 0xB08 JUMPI PUSH2 0xAFD PUSH0 DUP3 PUSH2 0xAD2 JUMP JUMPDEST PUSH1 0x1 DUP2 ADD SWAP1 POP PUSH2 0xAEB JUMP JUMPDEST POP POP JUMP JUMPDEST PUSH1 0x1F DUP3 GT ISZERO PUSH2 0xB4D JUMPI PUSH2 0xB1E DUP2 PUSH2 0x9EC JUMP JUMPDEST PUSH2 0xB27 DUP5 PUSH2 0x9FE JUMP JUMPDEST DUP2 ADD PUSH1 0x20 DUP6 LT ISZERO PUSH2 0xB36 JUMPI DUP2 SWAP1 POP JUMPDEST PUSH2 0xB4A PUSH2 0xB42 DUP6 PUSH2 0x9FE JUMP JUMPDEST DUP4 ADD DUP3 PUSH2 0xAEA JUMP JUMPDEST POP POP JUMPDEST POP POP POP JUMP JUMPDEST PUSH0 DUP3 DUP3 SHR SWAP1 POP SWAP3 SWAP2 POP POP JUMP JUMPDEST PUSH0 PUSH2 0xB6D PUSH0 NOT DUP5 PUSH1 0x8 MUL PUSH2 0xB52 JUMP JUMPDEST NOT DUP1 DUP4 AND SWAP2 POP POP SWAP3 SWAP2 POP POP JUMP JUMPDEST PUSH0 PUSH2 0xB85 DUP4 DUP4 PUSH2 0xB5E JUMP JUMPDEST SWAP2 POP DUP3 PUSH1 0x2 MUL DUP3 OR SWAP1 POP SWAP3 SWAP2 POP POP JUMP JUMPDEST PUSH2 0xB9E DUP3 PUSH2 0x985 JUMP JUMPDEST PUSH8 0xFFFFFFFFFFFFFFFF DUP2 GT ISZERO PUSH2 0xBB7 JUMPI PUSH2 0xBB6 PUSH2 0x77F JUMP JUMPDEST JUMPDEST PUSH2 0xBC1 DUP3 SLOAD PUSH2 0x9BC JUMP JUMPDEST PUSH2 0xBCC DUP3 DUP3 DUP6 PUSH2 0xB0C JUMP JUMPDEST PUSH0 PUSH1 0x20 SWAP1 POP PUSH1 0x1F DUP4 GT PUSH1 0x1 DUP2 EQ PUSH2 0xBFD JUMPI PUSH0 DUP5 ISZERO PUSH2 0xBEB JUMPI DUP3 DUP8 ADD MLOAD SWAP1 POP JUMPDEST PUSH2 0xBF5 DUP6 DUP3 PUSH2 0xB7A JUMP JUMPDEST DUP7 SSTORE POP PUSH2 0xC5C JUMP JUMPDEST PUSH1 0x1F NOT DUP5 AND PUSH2 0xC0B DUP7 PUSH2 0x9EC JUMP JUMPDEST PUSH0 JUMPDEST DUP3 DUP2 LT ISZERO PUSH2 0xC32 JUMPI DUP5 DUP10 ADD MLOAD DUP3 SSTORE PUSH1 0x1 DUP3 ADD SWAP2 POP PUSH1 0x20 DUP6 ADD SWAP5 POP PUSH1 0x20 DUP2 ADD SWAP1 POP PUSH2 0xC0D JUMP JUMPDEST DUP7 DUP4 LT ISZERO PUSH2 0xC4F JUMPI DUP5 DUP10 ADD MLOAD PUSH2 0xC4B PUSH1 0x1F DUP10 AND DUP3 PUSH2 0xB5E JUMP JUMPDEST DUP4 SSTORE POP JUMPDEST PUSH1 0x1 PUSH1 0x2 DUP9 MUL ADD DUP9 SSTORE POP POP POP JUMPDEST POP POP POP POP POP POP JUMP JUMPDEST PUSH2 0xC6D DUP2 PUSH2 0x8C2 JUMP JUMPDEST DUP3 MSTORE POP POP JUMP JUMPDEST PUSH0 PUSH1 0x20 DUP3 ADD SWAP1 POP PUSH2 0xC86 PUSH0 DUP4 ADD DUP5 PUSH2 0xC64 JUMP JUMPDEST SWAP3 SWAP2 POP POP JUMP JUMPDEST PUSH0 PUSH1 0x20 DUP3 DUP5 SUB SLT ISZERO PUSH2 0xCA1 JUMPI PUSH2 0xCA0 PUSH2 0x75F JUMP JUMPDEST JUMPDEST PUSH0 PUSH2 0xCAE DUP5 DUP3 DUP6 ADD PUSH2 0x8E9 JUMP JUMPDEST SWAP2 POP POP SWAP3 SWAP2 POP POP JUMP JUMPDEST PUSH0 PUSH1 0x40 DUP3 ADD SWAP1 POP PUSH2 0xCCA PUSH0 DUP4 ADD DUP6 PUSH2 0xC64 JUMP JUMPDEST PUSH2 0xCD7 PUSH1 0x20 DUP4 ADD DUP5 PUSH2 0xC64 JUMP JUMPDEST SWAP4 SWAP3 POP POP POP JUMP JUMPDEST PUSH32 0x4E487B7100000000000000000000000000000000000000000000000000000000 PUSH0 MSTORE PUSH1 0x11 PUSH1 0x4 MSTORE PUSH1 0x24 PUSH0 REVERT JUMPDEST PUSH0 DUP2 PUSH1 0x1 SHR SWAP1 POP SWAP2 SWAP1 POP JUMP JUMPDEST PUSH0 PUSH0 DUP3 SWAP2 POP DUP4 SWAP1 POP JUMPDEST PUSH1 0x1 DUP6 GT ISZERO PUSH2 0xD60 JUMPI DUP1 DUP7 DIV DUP2 GT ISZERO PUSH2 0xD3C JUMPI PUSH2 0xD3B PUSH2 0xCDE JUMP JUMPDEST JUMPDEST PUSH1 0x1 DUP6 AND ISZERO PUSH2 0xD4B JUMPI DUP1 DUP3 MUL SWAP2 POP JUMPDEST DUP1 DUP2 MUL SWAP1 POP PUSH2 0xD59 DUP6 PUSH2 0xD0B JUMP JUMPDEST SWAP5 POP PUSH2 0xD20 JUMP JUMPDEST SWAP5 POP SWAP5 SWAP3 POP POP POP JUMP JUMPDEST PUSH0 DUP3 PUSH2 0xD78 JUMPI PUSH1 0x1 SWAP1 POP PUSH2 0xE33 JUMP JUMPDEST DUP2 PUSH2 0xD85 JUMPI PUSH0 SWAP1 POP PUSH2 0xE33 JUMP JUMPDEST DUP2 PUSH1 0x1 DUP2 EQ PUSH2 0xD9B JUMPI PUSH1 0x2 DUP2 EQ PUSH2 0xDA5 JUMPI PUSH2 0xDD4 JUMP JUMPDEST PUSH1 0x1 SWAP2 POP POP PUSH2 0xE33 JUMP JUMPDEST PUSH1 0xFF DUP5 GT ISZERO PUSH2 0xDB7 JUMPI PUSH2 0xDB6 PUSH2 0xCDE JUMP JUMPDEST JUMPDEST DUP4 PUSH1 0x2 EXP SWAP2 POP DUP5 DUP3 GT ISZERO PUSH2 0xDCE JUMPI PUSH2 0xDCD PUSH2 0xCDE JUMP JUMPDEST JUMPDEST POP PUSH2 0xE33 JUMP JUMPDEST POP PUSH1 0x20 DUP4 LT PUSH2 0x133 DUP4 LT AND PUSH1 0x4E DUP5 LT PUSH1 0xB DUP5 LT AND OR ISZERO PUSH2 0xE09 JUMPI DUP3 DUP3 EXP SWAP1 POP DUP4 DUP2 GT ISZERO PUSH2 0xE04 JUMPI PUSH2 0xE03 PUSH2 0xCDE JUMP JUMPDEST JUMPDEST PUSH2 0xE33 JUMP JUMPDEST PUSH2 0xE16 DUP5 DUP5 DUP5 PUSH1 0x1 PUSH2 0xD17 JUMP JUMPDEST SWAP3 POP SWAP1 POP DUP2 DUP5 DIV DUP2 GT ISZERO PUSH2 0xE2D JUMPI PUSH2 0xE2C PUSH2 0xCDE JUMP JUMPDEST JUMPDEST DUP2 DUP2 MUL SWAP1 POP JUMPDEST SWAP4 SWAP3 POP POP POP JUMP JUMPDEST PUSH0 PUSH1 0xFF DUP3 AND SWAP1 POP SWAP2 SWAP1 POP JUMP JUMPDEST PUSH0 PUSH2 0xE50 DUP3 PUSH2 0xA6A JUMP JUMPDEST SWAP2 POP PUSH2 0xE5B DUP4 PUSH2 0xE3A JUMP JUMPDEST SWAP3 POP PUSH2 0xE88 PUSH32 0xFFFFFFFFFFFFFFFFFFFFFFFFFFFFFFFFFFFFFFFFFFFFFFFFFFFFFFFFFFFFFFFF DUP5 DUP5 PUSH2 0xD69 JUMP JUMPDEST SWAP1 POP SWAP3 SWAP2 POP POP JUMP JUMPDEST PUSH0 PUSH2 0xE9A DUP3 PUSH2 0xA6A JUMP JUMPDEST SWAP2 POP PUSH2 0xEA5 DUP4 PUSH2 0xA6A JUMP JUMPDEST SWAP3 POP DUP3 DUP3 MUL PUSH2 0xEB3 DUP2 PUSH2 0xA6A JUMP JUMPDEST SWAP2 POP DUP3 DUP3 DIV DUP5 EQ DUP4 ISZERO OR PUSH2 0xECA JUMPI PUSH2 0xEC9 PUSH2 0xCDE JUMP JUMPDEST JUMPDEST POP SWAP3 SWAP2 POP POP JUMP JUMPDEST PUSH0 PUSH2 0xEDB DUP3 PUSH2 0xA6A JUMP JUMPDEST SWAP2 POP PUSH2 0xEE6 DUP4 PUSH2 0xA6A JUMP JUMPDEST SWAP3 POP DUP3 DUP3 ADD SWAP1 POP DUP1 DUP3 GT ISZERO PUSH2 0xEFE JUMPI PUSH2 0xEFD PUSH2 0xCDE JUMP JUMPDEST JUMPDEST SWAP3 SWAP2 POP POP JUMP JUMPDEST PUSH2 0xF0D DUP2 PUSH2 0xA6A JUMP JUMPDEST DUP3 MSTORE POP POP JUMP JUMPDEST PUSH0 PUSH1 0x60 DUP3 ADD SWAP1 POP PUSH2 0xF26 PUSH0 DUP4 ADD DUP7 PUSH2 0xC64 JUMP JUMPDEST PUSH2 0xF33 PUSH1 0x20 DUP4 ADD DUP6 PUSH2 0xF04 JUMP JUMPDEST PUSH2 0xF40 PUSH1 0x40 DUP4 ADD DUP5 PUSH2 0xF04 JUMP JUMPDEST SWAP5 SWAP4 POP POP POP POP JUMP JUMPDEST PUSH0 PUSH1 0x20 DUP3 ADD SWAP1 POP PUSH2 0xF5B PUSH0 DUP4 ADD DUP5 PUSH2 0xF04 JUMP JUMPDEST SWAP3 SWAP2 POP POP JUMP JUMPDEST PUSH2 0x1D7D DUP1 PUSH2 0xF6E PUSH0 CODECOPY PUSH0 RETURN INVALID PUSH1 0x80 PUSH1 0x40 MSTORE CALLVALUE DUP1 ISZERO PUSH2 0xF JUMPI PUSH0 PUSH0 REVERT JUMPDEST POP PUSH1 0x4 CALLDATASIZE LT PUSH2 0x18C JUMPI PUSH0 CALLDATALOAD PUSH1 0xE0 SHR DUP1 PUSH4 0x70A08231 GT PUSH2 0xDC JUMPI DUP1 PUSH4 0xC647B20E GT PUSH2 0x95 JUMPI DUP1 PUSH4 0xCB4CA631 GT PUSH2 0x6F JUMPI DUP1 PUSH4 0xCB4CA631 EQ PUSH2 0x44E JUMPI DUP1 PUSH4 0xCC1776D3 EQ PUSH2 0x47E JUMPI DUP1 PUSH4 0xDD62ED3E EQ PUSH2 0x49C JUMPI DUP1 PUSH4 0xF2FDE38B EQ PUSH2 0x4CC JUMPI PUSH2 0x18C JUMP JUMPDEST DUP1 PUSH4 0xC647B20E EQ PUSH2 0x3F8 JUMPI DUP1 PUSH4 0xC6A30647 EQ PUSH2 0x414 JUMPI DUP1 PUSH4 0xC816841B EQ PUSH2 0x430 JUMPI PUSH2 0x18C JUMP JUMPDEST DUP1 PUSH4 0x70A08231 EQ PUSH2 0x336 JUMPI DUP1 PUSH4 0x715018A6 EQ PUSH2 0x366 JUMPI DUP1 PUSH4 0x8DA5CB5B EQ PUSH2 0x370 JUMPI DUP1 PUSH4 0x95D89B41 EQ PUSH2 0x38E JUMPI DUP1 PUSH4 0xA9059CBB EQ PUSH2 0x3AC JUMPI DUP1 PUSH4 0xBEABACC8 EQ PUSH2 0x3DC JUMPI PUSH2 0x18C JUMP JUMPDEST DUP1 PUSH4 0x2431BA73 GT PUSH2 0x149 JUMPI DUP1 PUSH4 0x33727077 GT PUSH2 0x123 JUMPI DUP1 PUSH4 0x33727077 EQ PUSH2 0x2C0 JUMPI DUP1 PUSH4 0x4E6FD6C4 EQ PUSH2 0x2DE JUMPI DUP1 PUSH4 0x4F7041A5 EQ PUSH2 0x2FC JUMPI DUP1 PUSH4 0x51C6590A EQ PUSH2 0x31A JUMPI PUSH2 0x18C JUMP JUMPDEST DUP1 PUSH4 0x2431BA73 EQ PUSH2 0x268 JUMPI DUP1 PUSH4 0x2E1A7D4D EQ PUSH2 0x286 JUMPI DUP1 PUSH4 0x313CE567 EQ PUSH2 0x2A2 JUMPI PUSH2 0x18C JUMP JUMPDEST DUP1 PUSH4 0x5BF0A54 EQ PUSH2 0x190 JUMPI DUP1 PUSH4 0x6FDDE03 EQ PUSH2 0x1AE JUMPI DUP1 PUSH4 0x95EA7B3 EQ PUSH2 0x1CC JUMPI DUP1 PUSH4 0x15291CD4 EQ PUSH2 0x1FC JUMPI DUP1 PUSH4 0x18160DDD EQ PUSH2 0x21A JUMPI DUP1 PUSH4 0x23B872DD EQ PUSH2 0x238 JUMPI JUMPDEST PUSH0 PUSH0 REVERT JUMPDEST PUSH2 0x198 PUSH2 0x4E8 JUMP JUMPDEST PUSH1 0x40 MLOAD PUSH2 0x1A5 SWAP2 SWAP1 PUSH2 0x1665 JUMP JUMPDEST PUSH1 0x40 MLOAD DUP1 SWAP2 SUB SWAP1 RETURN JUMPDEST PUSH2 0x1B6 PUSH2 0x4EE JUMP JUMPDEST PUSH1 0x40 MLOAD PUSH2 0x1C3 SWAP2 SWAP1 PUSH2 0x16EE JUMP JUMPDEST PUSH1 0x40 MLOAD DUP1 SWAP2 SUB SWAP1 RETURN JUMPDEST PUSH2 0x1E6 PUSH1 0x4 DUP1 CALLDATASIZE SUB DUP2 ADD SWAP1 PUSH2 0x1E1 SWAP2 SWAP1 PUSH2 0x1796 JUMP JUMPDEST PUSH2 0x57E JUMP JUMPDEST PUSH1 0x40 MLOAD PUSH2 0x1F3 SWAP2 SWAP1 PUSH2 0x17EE JUMP JUMPDEST PUSH1 0x40 MLOAD DUP1 SWAP2 SUB SWAP1 RETURN JUMPDEST PUSH2 0x204 PUSH2 0x5A0 JUMP JUMPDEST PUSH1 0x40 MLOAD PUSH2 0x211 SWAP2 SWAP1 PUSH2 0x1665 JUMP JUMPDEST PUSH1 0x40 MLOAD DUP1 SWAP2 SUB SWAP1 RETURN JUMPDEST PUSH2 0x222 PUSH2 0x5A6 JUMP JUMPDEST PUSH1 0x40 MLOAD PUSH2 0x22F SWAP2 SWAP1 PUSH2 0x1665 JUMP JUMPDEST PUSH1 0x40 MLOAD DUP1 SWAP2 SUB SWAP1 RETURN JUMPDEST PUSH2 0x252 PUSH1 0x4 DUP1 CALLDATASIZE SUB DUP2 ADD SWAP1 PUSH2 0x24D SWAP2 SWAP1 PUSH2 0x1807 JUMP JUMPDEST PUSH2 0x5AF JUMP JUMPDEST PUSH1 0x40 MLOAD PUSH2 0x25F SWAP2 SWAP1 PUSH2 0x17EE JUMP JUMPDEST PUSH1 0x40 MLOAD DUP1 SWAP2 SUB SWAP1 RETURN JUMPDEST PUSH2 0x270 PUSH2 0x5DD JUMP JUMPDEST PUSH1 0x40 MLOAD PUSH2 0x27D SWAP2 SWAP1 PUSH2 0x18B2 JUMP JUMPDEST PUSH1 0x40 MLOAD DUP1 SWAP2 SUB SWAP1 RETURN JUMPDEST PUSH2 0x2A0 PUSH1 0x4 DUP1 CALLDATASIZE SUB DUP2 ADD SWAP1 PUSH2 0x29B SWAP2 SWAP1 PUSH2 0x18CB JUMP JUMPDEST PUSH2 0x602 JUMP JUMPDEST STOP JUMPDEST PUSH2 0x2AA PUSH2 0x6FB JUMP JUMPDEST PUSH1 0x40 MLOAD PUSH2 0x2B7 SWAP2 SWAP1 PUSH2 0x1911 JUMP JUMPDEST PUSH1 0x40 MLOAD DUP1 SWAP2 SUB SWAP1 RETURN JUMPDEST PUSH2 0x2C8 PUSH2 0x703 JUMP JUMPDEST PUSH1 0x40 MLOAD PUSH2 0x2D5 SWAP2 SWAP1 PUSH2 0x1665 JUMP JUMPDEST PUSH1 0x40 MLOAD DUP1 SWAP2 SUB SWAP1 RETURN JUMPDEST PUSH2 0x2E6 PUSH2 0x709 JUMP JUMPDEST PUSH1 0x40 MLOAD PUSH2 0x2F3 SWAP2 SWAP1 PUSH2 0x1939 JUMP JUMPDEST PUSH1 0x40 MLOAD DUP1 SWAP2 SUB SWAP1 RETURN JUMPDEST PUSH2 0x304 PUSH2 0x70F JUMP JUMPDEST PUSH1 0x40 MLOAD PUSH2 0x311 SWAP2 SWAP1 PUSH2 0x1665 JUMP JUMPDEST PUSH1 0x40 MLOAD DUP1 SWAP2 SUB SWAP1 RETURN JUMPDEST PUSH2 0x334 PUSH1 0x4 DUP1 CALLDATASIZE SUB DUP2 ADD SWAP1 PUSH2 0x32F SWAP2 SWAP1 PUSH2 0x18CB JUMP JUMPDEST PUSH2 0x715 JUMP JUMPDEST STOP JUMPDEST PUSH2 0x350 PUSH1 0x4 DUP1 CALLDATASIZE SUB DUP2 ADD SWAP1 PUSH2 0x34B SWAP2 SWAP1 PUSH2 0x1952 JUMP JUMPDEST PUSH2 0x86E JUMP JUMPDEST PUSH1 0x40 MLOAD PUSH2 0x35D SWAP2 SWAP1 PUSH2 0x1665 JUMP JUMPDEST PUSH1 0x40 MLOAD DUP1 SWAP2 SUB SWAP1 RETURN JUMPDEST PUSH2 0x36E PUSH2 0x8B3 JUMP JUMPDEST STOP JUMPDEST PUSH2 0x378 PUSH2 0x8C6 JUMP JUMPDEST PUSH1 0x40 MLOAD PUSH2 0x385 SWAP2 SWAP1 PUSH2 0x1939 JUMP JUMPDEST PUSH1 0x40 MLOAD DUP1 SWAP2 SUB SWAP1 RETURN JUMPDEST PUSH2 0x396 PUSH2 0x8EE JUMP JUMPDEST PUSH1 0x40 MLOAD PUSH2 0x3A3 SWAP2 SWAP1 PUSH2 0x16EE JUMP JUMPDEST PUSH1 0x40 MLOAD DUP1 SWAP2 SUB SWAP1 RETURN JUMPDEST PUSH2 0x3C6 PUSH1 0x4 DUP1 CALLDATASIZE SUB DUP2 ADD SWAP1 PUSH2 0x3C1 SWAP2 SWAP1 PUSH2 0x1796 JUMP JUMPDEST PUSH2 0x97E JUMP JUMPDEST PUSH1 0x40 MLOAD PUSH2 0x3D3 SWAP2 SWAP1 PUSH2 0x17EE JUMP JUMPDEST PUSH1 0x40 MLOAD DUP1 SWAP2 SUB SWAP1 RETURN JUMPDEST PUSH2 0x3F6 PUSH1 0x4 DUP1 CALLDATASIZE SUB DUP2 ADD SWAP1 PUSH2 0x3F1 SWAP2 SWAP1 PUSH2 0x1807 JUMP JUMPDEST PUSH2 0x9A0 JUMP JUMPDEST STOP JUMPDEST PUSH2 0x412 PUSH1 0x4 DUP1 CALLDATASIZE SUB DUP2 ADD SWAP1 PUSH2 0x40D SWAP2 SWAP1 PUSH2 0x197D JUMP JUMPDEST PUSH2 0xCF0 JUMP JUMPDEST STOP JUMPDEST PUSH2 0x42E PUSH1 0x4 DUP1 CALLDATASIZE SUB DUP2 ADD SWAP1 PUSH2 0x429 SWAP2 SWAP1 PUSH2 0x19E5 JUMP JUMPDEST PUSH2 0xD52 JUMP JUMPDEST STOP JUMPDEST PUSH2 0x438 PUSH2 0xDB2 JUMP JUMPDEST PUSH1 0x40 MLOAD PUSH2 0x445 SWAP2 SWAP1 PUSH2 0x1939 JUMP JUMPDEST PUSH1 0x40 MLOAD DUP1 SWAP2 SUB SWAP1 RETURN JUMPDEST PUSH2 0x468 PUSH1 0x4 DUP1 CALLDATASIZE SUB DUP2 ADD SWAP1 PUSH2 0x463 SWAP2 SWAP1 PUSH2 0x1952 JUMP JUMPDEST PUSH2 0xDD7 JUMP JUMPDEST PUSH1 0x40 MLOAD PUSH2 0x475 SWAP2 SWAP1 PUSH2 0x17EE JUMP JUMPDEST PUSH1 0x40 MLOAD DUP1 SWAP2 SUB SWAP1 RETURN JUMPDEST PUSH2 0x486 PUSH2 0xDF4 JUMP JUMPDEST PUSH1 0x40 MLOAD PUSH2 0x493 SWAP2 SWAP1 PUSH2 0x1665 JUMP JUMPDEST PUSH1 0x40 MLOAD DUP1 SWAP2 SUB SWAP1 RETURN JUMPDEST PUSH2 0x4B6 PUSH1 0x4 DUP1 CALLDATASIZE SUB DUP2 ADD SWAP1 PUSH2 0x4B1 SWAP2 SWAP1 PUSH2 0x1A23 JUMP JUMPDEST PUSH2 0xDFA JUMP JUMPDEST PUSH1 0x40 MLOAD PUSH2 0x4C3 SWAP2 SWAP1 PUSH2 0x1665 JUMP JUMPDEST PUSH1 0x40 MLOAD DUP1 SWAP2 SUB SWAP1 RETURN JUMPDEST PUSH2 0x4E6 PUSH1 0x4 DUP1 CALLDATASIZE SUB DUP2 ADD SWAP1 PUSH2 0x4E1 SWAP2 SWAP1 PUSH2 0x1952 JUMP JUMPDEST PUSH2 0xE7C JUMP JUMPDEST STOP JUMPDEST PUSH1 0x9 SLOAD DUP2 JUMP JUMPDEST PUSH1 0x60 PUSH1 0x3 DUP1 SLOAD PUSH2 0x4FD SWAP1 PUSH2 0x1A8E JUMP JUMPDEST DUP1 PUSH1 0x1F ADD PUSH1 0x20 DUP1 SWAP2 DIV MUL PUSH1 0x20 ADD PUSH1 0x40 MLOAD SWAP1 DUP2 ADD PUSH1 0x40 MSTORE DUP1 SWAP3 SWAP2 SWAP1 DUP2 DUP2 MSTORE PUSH1 0x20 ADD DUP3 DUP1 SLOAD PUSH2 0x529 SWAP1 PUSH2 0x1A8E JUMP JUMPDEST DUP1 ISZERO PUSH2 0x574 JUMPI DUP1 PUSH1 0x1F LT PUSH2 0x54B JUMPI PUSH2 0x100 DUP1 DUP4 SLOAD DIV MUL DUP4 MSTORE SWAP2 PUSH1 0x20 ADD SWAP2 PUSH2 0x574 JUMP JUMPDEST DUP3 ADD SWAP2 SWAP1 PUSH0 MSTORE PUSH1 0x20 PUSH0 KECCAK256 SWAP1 JUMPDEST DUP2 SLOAD DUP2 MSTORE SWAP1 PUSH1 0x1 ADD SWAP1 PUSH1 0x20 ADD DUP1 DUP4 GT PUSH2 0x557 JUMPI DUP3 SWAP1 SUB PUSH1 0x1F AND DUP3 ADD SWAP2 JUMPDEST POP POP POP POP POP SWAP1 POP SWAP1 JUMP JUMPDEST PUSH0 PUSH0 PUSH2 0x588 PUSH2 0xF00 JUMP JUMPDEST SWAP1 POP PUSH2 0x595 DUP2 DUP6 DUP6 PUSH2 0xF07 JUMP JUMPDEST PUSH1 0x1 SWAP2 POP POP SWAP3 SWAP2 POP POP JUMP JUMPDEST PUSH1 0x8 SLOAD DUP2 JUMP JUMPDEST PUSH0 PUSH1 0x2 SLOAD SWAP1 POP SWAP1 JUMP JUMPDEST PUSH0 PUSH0 PUSH2 0x5B9 PUSH2 0xF00 JUMP JUMPDEST SWAP1 POP PUSH2 0x5C6 DUP6 DUP3 DUP6 PUSH2 0xF19 JUMP JUMPDEST PUSH2 0x5D1 DUP6 DUP6 DUP6 PUSH2 0xFAC JUMP JUMPDEST PUSH1 0x1 SWAP2 POP POP SWAP4 SWAP3 POP POP POP JUMP JUMPDEST PUSH1 0xB PUSH0 SWAP1 SLOAD SWAP1 PUSH2 0x100 EXP SWAP1 DIV PUSH20 0xFFFFFFFFFFFFFFFFFFFFFFFFFFFFFFFFFFFFFFFF AND DUP2 JUMP JUMPDEST PUSH2 0x60A PUSH2 0x109C JUMP JUMPDEST PUSH0 PUSH20 0xFFFFFFFFFFFFFFFFFFFFFFFFFFFFFFFFFFFFFFFF AND CALLER PUSH20 0xFFFFFFFFFFFFFFFFFFFFFFFFFFFFFFFFFFFFFFFF AND SUB PUSH2 0x66F JUMPI PUSH1 0x40 MLOAD PUSH32 0xA38CA3D900000000000000000000000000000000000000000000000000000000 DUP2 MSTORE PUSH1 0x4 ADD PUSH1 0x40 MLOAD DUP1 SWAP2 SUB SWAP1 REVERT JUMPDEST SELFBALANCE DUP2 GT PUSH2 0x6A8 JUMPI PUSH1 0x40 MLOAD PUSH32 0x356680B700000000000000000000000000000000000000000000000000000000 DUP2 MSTORE PUSH1 0x4 ADD PUSH1 0x40 MLOAD DUP1 SWAP2 SUB SWAP1 REVERT JUMPDEST PUSH0 SELFBALANCE SWAP1 POP PUSH2 0x6B4 PUSH2 0x8C6 JUMP JUMPDEST PUSH20 0xFFFFFFFFFFFFFFFFFFFFFFFFFFFFFFFFFFFFFFFF AND PUSH2 0x8FC DUP3 SWAP1 DUP2 ISZERO MUL SWAP1 PUSH1 0x40 MLOAD PUSH0 PUSH1 0x40 MLOAD DUP1 DUP4 SUB DUP2 DUP6 DUP9 DUP9 CALL SWAP4 POP POP POP POP ISZERO DUP1 ISZERO PUSH2 0x6F6 JUMPI RETURNDATASIZE PUSH0 PUSH0 RETURNDATACOPY RETURNDATASIZE PUSH0 REVERT JUMPDEST POP POP POP JUMP JUMPDEST PUSH0 PUSH1 0x12 SWAP1 POP SWAP1 JUMP JUMPDEST PUSH1 0xA SLOAD DUP2 JUMP JUMPDEST PUSH2 0xDEAD DUP2 JUMP JUMPDEST PUSH1 0x6 SLOAD DUP2 JUMP JUMPDEST PUSH2 0x71D PUSH2 0x109C JUMP JUMPDEST PUSH0 DUP2 GT PUSH2 0x756 JUMPI PUSH1 0x40 MLOAD PUSH32 0x671D94D800000000000000000000000000000000000000000000000000000000 DUP2 MSTORE PUSH1 0x4 ADD PUSH1 0x40 MLOAD DUP1 SWAP2 SUB SWAP1 REVERT JUMPDEST PUSH2 0x782 ADDRESS PUSH1 0xB PUSH0 SWAP1 SLOAD SWAP1 PUSH2 0x100 EXP SWAP1 DIV PUSH20 0xFFFFFFFFFFFFFFFFFFFFFFFFFFFFFFFFFFFFFFFF AND DUP4 PUSH2 0xF07 JUMP JUMPDEST PUSH1 0xB PUSH0 SWAP1 SLOAD SWAP1 PUSH2 0x100 EXP SWAP1 DIV PUSH20 0xFFFFFFFFFFFFFFFFFFFFFFFFFFFFFFFFFFFFFFFF AND PUSH20 0xFFFFFFFFFFFFFFFFFFFFFFFFFFFFFFFFFFFFFFFF AND PUSH4 0xF305D719 SELFBALANCE ADDRESS DUP5 PUSH0 PUSH0 PUSH2 0x7CC PUSH2 0x8C6 JUMP JUMPDEST TIMESTAMP PUSH1 0x40 MLOAD DUP9 PUSH4 0xFFFFFFFF AND PUSH1 0xE0 SHL DUP2 MSTORE PUSH1 0x4 ADD PUSH2 0x7EE SWAP7 SWAP6 SWAP5 SWAP4 SWAP3 SWAP2 SWAP1 PUSH2 0x1AF7 JUMP JUMPDEST PUSH1 0x60 PUSH1 0x40 MLOAD DUP1 DUP4 SUB DUP2 DUP6 DUP9 GAS CALL ISZERO DUP1 ISZERO PUSH2 0x80A JUMPI RETURNDATASIZE PUSH0 PUSH0 RETURNDATACOPY RETURNDATASIZE PUSH0 REVERT JUMPDEST POP POP POP POP POP PUSH1 0x40 MLOAD RETURNDATASIZE PUSH1 0x1F NOT PUSH1 0x1F DUP3 ADD AND DUP3 ADD DUP1 PUSH1 0x40 MSTORE POP DUP2 ADD SWAP1 PUSH2 0x82F SWAP2 SWAP1 PUSH2 0x1B6A JUMP JUMPDEST POP POP POP PUSH32 0x38F8A0C92F4C5B0B6877F878CB4C0C8D348A47B76D716C8E78F425043DF9515B DUP2 SELFBALANCE PUSH1 0x40 MLOAD PUSH2 0x863 SWAP3 SWAP2 SWAP1 PUSH2 0x1BBA JUMP JUMPDEST PUSH1 0x40 MLOAD DUP1 SWAP2 SUB SWAP1 LOG1 POP JUMP JUMPDEST PUSH0 PUSH0 PUSH0 DUP4 PUSH20 0xFFFFFFFFFFFFFFFFFFFFFFFFFFFFFFFFFFFFFFFF AND PUSH20 0xFFFFFFFFFFFFFFFFFFFFFFFFFFFFFFFFFFFFFFFF AND DUP2 MSTORE PUSH1 0x20 ADD SWAP1 DUP2 MSTORE PUSH1 0x20 ADD PUSH0 KECCAK256 SLOAD SWAP1 POP SWAP2 SWAP1 POP JUMP JUMPDEST PUSH2 0x8BB PUSH2 0x109C JUMP JUMPDEST PUSH2 0x8C4 PUSH0 PUSH2 0x1123 JUMP JUMPDEST JUMP JUMPDEST PUSH0 PUSH1 0x5 PUSH0 SWAP1 SLOAD SWAP1 PUSH2 0x100 EXP SWAP1 DIV PUSH20 0xFFFFFFFFFFFFFFFFFFFFFFFFFFFFFFFFFFFFFFFF AND SWAP1 POP SWAP1 JUMP JUMPDEST PUSH1 0x60 PUSH1 0x4 DUP1 SLOAD PUSH2 0x8FD SWAP1 PUSH2 0x1A8E JUMP JUMPDEST DUP1 PUSH1 0x1F ADD PUSH1 0x20 DUP1 SWAP2 DIV MUL PUSH1 0x20 ADD PUSH1 0x40 MLOAD SWAP1 DUP2 ADD PUSH1 0x40 MSTORE DUP1 SWAP3 SWAP2 SWAP1 DUP2 DUP2 MSTORE PUSH1 0x20 ADD DUP3 DUP1 SLOAD PUSH2 0x929 SWAP1 PUSH2 0x1A8E JUMP JUMPDEST DUP1 ISZERO PUSH2 0x974 JUMPI DUP1 PUSH1 0x1F LT PUSH2 0x94B JUMPI PUSH2 0x100 DUP1 DUP4 SLOAD DIV MUL DUP4 MSTORE SWAP2 PUSH1 0x20 ADD SWAP2 PUSH2 0x974 JUMP JUMPDEST DUP3 ADD SWAP2 SWAP1 PUSH0 MSTORE PUSH1 0x20 PUSH0 KECCAK256 SWAP1 JUMPDEST DUP2 SLOAD DUP2 MSTORE SWAP1 PUSH1 0x1 ADD SWAP1 PUSH1 0x20 ADD DUP1 DUP4 GT PUSH2 0x957 JUMPI DUP3 SWAP1 SUB PUSH1 0x1F AND DUP3 ADD SWAP2 JUMPDEST POP POP POP POP POP SWAP1 POP SWAP1 JUMP JUMPDEST PUSH0 PUSH0 PUSH2 0x988 PUSH2 0xF00 JUMP JUMPDEST SWAP1 POP PUSH2 0x995 DUP2 DUP6 DUP6 PUSH2 0xFAC JUMP JUMPDEST PUSH1 0x1 SWAP2 POP POP SWAP3 SWAP2 POP POP JUMP JUMPDEST PUSH0 PUSH20 0xFFFFFFFFFFFFFFFFFFFFFFFFFFFFFFFFFFFFFFFF AND DUP4 PUSH20 0xFFFFFFFFFFFFFFFFFFFFFFFFFFFFFFFFFFFFFFFF AND SUB PUSH2 0xA05 JUMPI PUSH1 0x40 MLOAD PUSH32 0xF38F85C300000000000000000000000000000000000000000000000000000000 DUP2 MSTORE PUSH1 0x4 ADD PUSH1 0x40 MLOAD DUP1 SWAP2 SUB SWAP1 REVERT JUMPDEST PUSH0 PUSH20 0xFFFFFFFFFFFFFFFFFFFFFFFFFFFFFFFFFFFFFFFF AND DUP3 PUSH20 0xFFFFFFFFFFFFFFFFFFFFFFFFFFFFFFFFFFFFFFFF AND SUB PUSH2 0xA6A JUMPI PUSH1 0x40 MLOAD PUSH32 0xA38CA3D900000000000000000000000000000000000000000000000000000000 DUP2 MSTORE PUSH1 0x4 ADD PUSH1 0x40 MLOAD DUP1 SWAP2 SUB SWAP1 REVERT JUMPDEST PUSH1 0xD PUSH0 DUP5 PUSH20 0xFFFFFFFFFFFFFFFFFFFFFFFFFFFFFFFFFFFFFFFF AND PUSH20 0xFFFFFFFFFFFFFFFFFFFFFFFFFFFFFFFFFFFFFFFF AND DUP2 MSTORE PUSH1 0x20 ADD SWAP1 DUP2 MSTORE PUSH1 0x20 ADD PUSH0 KECCAK256 PUSH0 SWAP1 SLOAD SWAP1 PUSH2 0x100 EXP SWAP1 DIV PUSH1 0xFF AND DUP1 PUSH2 0xB05 JUMPI POP PUSH1 0xD PUSH0 DUP4 PUSH20 0xFFFFFFFFFFFFFFFFFFFFFFFFFFFFFFFFFFFFFFFF AND PUSH20 0xFFFFFFFFFFFFFFFFFFFFFFFFFFFFFFFFFFFFFFFF AND DUP2 MSTORE PUSH1 0x20 ADD SWAP1 DUP2 MSTORE PUSH1 0x20 ADD PUSH0 KECCAK256 PUSH0 SWAP1 SLOAD SWAP1 PUSH2 0x100 EXP SWAP1 DIV PUSH1 0xFF AND JUMPDEST ISZERO PUSH2 0xB1A JUMPI PUSH2 0xB15 DUP4 DUP4 DUP4 PUSH2 0xFAC JUMP JUMPDEST PUSH2 0xCEB JUMP JUMPDEST PUSH0 PUSH1 0xC PUSH0 SWAP1 SLOAD SWAP1 PUSH2 0x100 EXP SWAP1 DIV PUSH20 0xFFFFFFFFFFFFFFFFFFFFFFFFFFFFFFFFFFFFFFFF AND PUSH20 0xFFFFFFFFFFFFFFFFFFFFFFFFFFFFFFFFFFFFFFFF AND DUP4 PUSH20 0xFFFFFFFFFFFFFFFFFFFFFFFFFFFFFFFFFFFFFFFF AND EQ SWAP1 POP PUSH0 PUSH1 0xC PUSH0 SWAP1 SLOAD SWAP1 PUSH2 0x100 EXP SWAP1 DIV PUSH20 0xFFFFFFFFFFFFFFFFFFFFFFFFFFFFFFFFFFFFFFFF AND PUSH20 0xFFFFFFFFFFFFFFFFFFFFFFFFFFFFFFFFFFFFFFFF AND DUP6 PUSH20 0xFFFFFFFFFFFFFFFFFFFFFFFFFFFFFFFFFFFFFFFF AND EQ SWAP1 POP PUSH0 DUP3 ISZERO PUSH2 0xBE8 JUMPI PUSH1 0x64 PUSH1 0x6 SLOAD DUP6 PUSH2 0xBD7 SWAP2 SWAP1 PUSH2 0x1C0E JUMP JUMPDEST PUSH2 0xBE1 SWAP2 SWAP1 PUSH2 0x1C7C JUMP JUMPDEST SWAP1 POP PUSH2 0xC0C JUMP JUMPDEST DUP2 ISZERO PUSH2 0xC0B JUMPI PUSH1 0x64 PUSH1 0x7 SLOAD DUP6 PUSH2 0xBFE SWAP2 SWAP1 PUSH2 0x1C0E JUMP JUMPDEST PUSH2 0xC08 SWAP2 SWAP1 PUSH2 0x1C7C JUMP JUMPDEST SWAP1 POP JUMPDEST JUMPDEST PUSH0 DUP2 DUP6 PUSH2 0xC19 SWAP2 SWAP1 PUSH2 0x1CAC JUMP JUMPDEST SWAP1 POP DUP2 DUP2 PUSH2 0xC27 SWAP2 SWAP1 PUSH2 0x1CDF JUMP JUMPDEST DUP6 EQ PUSH2 0xC5F JUMPI PUSH1 0x40 MLOAD PUSH32 0x1F825C6A00000000000000000000000000000000000000000000000000000000 DUP2 MSTORE PUSH1 0x4 ADD PUSH1 0x40 MLOAD DUP1 SWAP2 SUB SWAP1 REVERT JUMPDEST PUSH0 DUP3 GT ISZERO PUSH2 0xCDB JUMPI PUSH2 0xC72 DUP8 ADDRESS DUP5 PUSH2 0xFAC JUMP JUMPDEST PUSH32 0x92C6768BA45DFDC937F94A27A0C5BE8334952F1558BC7DD41B3E8707502E1B6 DUP3 PUSH1 0x40 MLOAD PUSH2 0xCA1 SWAP2 SWAP1 PUSH2 0x1665 JUMP JUMPDEST PUSH1 0x40 MLOAD DUP1 SWAP2 SUB SWAP1 LOG1 PUSH0 PUSH1 0x64 PUSH1 0x9 SLOAD DUP5 PUSH2 0xCBA SWAP2 SWAP1 PUSH2 0x1C0E JUMP JUMPDEST PUSH2 0xCC4 SWAP2 SWAP1 PUSH2 0x1C7C JUMP JUMPDEST SWAP1 POP PUSH0 DUP2 GT ISZERO PUSH2 0xCD9 JUMPI PUSH2 0xCD8 ADDRESS DUP3 PUSH2 0x11E6 JUMP JUMPDEST JUMPDEST POP JUMPDEST PUSH2 0xCE6 DUP8 DUP8 DUP4 PUSH2 0xFAC JUMP JUMPDEST POP POP POP POP JUMPDEST POP POP POP JUMP JUMPDEST PUSH2 0xCF8 PUSH2 0x109C JUMP JUMPDEST PUSH1 0xA DUP3 GT ISZERO DUP1 ISZERO PUSH2 0xD0A JUMPI POP PUSH1 0x14 DUP2 GT ISZERO JUMPDEST PUSH2 0xD40 JUMPI PUSH1 0x40 MLOAD PUSH32 0xAF1EE13400000000000000000000000000000000000000000000000000000000 DUP2 MSTORE PUSH1 0x4 ADD PUSH1 0x40 MLOAD DUP1 SWAP2 SUB SWAP1 REVERT JUMPDEST DUP2 PUSH1 0x6 DUP2 SWAP1 SSTORE POP DUP1 PUSH1 0x7 DUP2 SWAP1 SSTORE POP POP POP JUMP JUMPDEST PUSH2 0xD5A PUSH2 0x109C JUMP JUMPDEST DUP1 PUSH1 0xD PUSH0 DUP5 PUSH20 0xFFFFFFFFFFFFFFFFFFFFFFFFFFFFFFFFFFFFFFFF AND PUSH20 0xFFFFFFFFFFFFFFFFFFFFFFFFFFFFFFFFFFFFFFFF AND DUP2 MSTORE PUSH1 0x20 ADD SWAP1 DUP2 MSTORE PUSH1 0x20 ADD PUSH0 KECCAK256 PUSH0 PUSH2 0x100 EXP DUP2 SLOAD DUP2 PUSH1 0xFF MUL NOT AND SWAP1 DUP4 ISZERO ISZERO MUL OR SWAP1 SSTORE POP POP POP JUMP JUMPDEST PUSH1 0xC PUSH0 SWAP1 SLOAD SWAP1 PUSH2 0x100 EXP SWAP1 DIV PUSH20 0xFFFFFFFFFFFFFFFFFFFFFFFFFFFFFFFFFFFFFFFF AND DUP2 JUMP JUMPDEST PUSH1 0xD PUSH1 0x20 MSTORE DUP1 PUSH0 MSTORE PUSH1 0x40 PUSH0 KECCAK256 PUSH0 SWAP2 POP SLOAD SWAP1 PUSH2 0x100 EXP SWAP1 DIV PUSH1 0xFF AND DUP2 JUMP JUMPDEST PUSH1 0x7 SLOAD DUP2 JUMP JUMPDEST PUSH0 PUSH1 0x1 PUSH0 DUP5 PUSH20 0xFFFFFFFFFFFFFFFFFFFFFFFFFFFFFFFFFFFFFFFF AND PUSH20 0xFFFFFFFFFFFFFFFFFFFFFFFFFFFFFFFFFFFFFFFF AND DUP2 MSTORE PUSH1 0x20 ADD SWAP1 DUP2 MSTORE PUSH1 0x20 ADD PUSH0 KECCAK256 PUSH0 DUP4 PUSH20 0xFFFFFFFFFFFFFFFFFFFFFFFFFFFFFFFFFFFFFFFF AND PUSH20 0xFFFFFFFFFFFFFFFFFFFFFFFFFFFFFFFFFFFFFFFF AND DUP2 MSTORE PUSH1 0x20 ADD SWAP1 DUP2 MSTORE PUSH1 0x20 ADD PUSH0 KECCAK256 SLOAD SWAP1 POP SWAP3 SWAP2 POP POP JUMP JUMPDEST PUSH2 0xE84 PUSH2 0x109C JUMP JUMPDEST PUSH0 PUSH20 0xFFFFFFFFFFFFFFFFFFFFFFFFFFFFFFFFFFFFFFFF AND DUP2 PUSH20 0xFFFFFFFFFFFFFFFFFFFFFFFFFFFFFFFFFFFFFFFF AND SUB PUSH2 0xEF4 JUMPI PUSH0 PUSH1 0x40 MLOAD PUSH32 0x1E4FBDF700000000000000000000000000000000000000000000000000000000 DUP2 MSTORE PUSH1 0x4 ADD PUSH2 0xEEB SWAP2 SWAP1 PUSH2 0x1939 JUMP JUMPDEST PUSH1 0x40 MLOAD DUP1 SWAP2 SUB SWAP1 REVERT JUMPDEST PUSH2 0xEFD DUP2 PUSH2 0x1123 JUMP JUMPDEST POP JUMP JUMPDEST PUSH0 CALLER SWAP1 POP SWAP1 JUMP JUMPDEST PUSH2 0xF14 DUP4 DUP4 DUP4 PUSH1 0x1 PUSH2 0x1265 JUMP JUMPDEST POP POP POP JUMP JUMPDEST PUSH0 PUSH2 0xF24 DUP5 DUP5 PUSH2 0xDFA JUMP JUMPDEST SWAP1 POP PUSH32 0xFFFFFFFFFFFFFFFFFFFFFFFFFFFFFFFFFFFFFFFFFFFFFFFFFFFFFFFFFFFFFFFF DUP2 LT ISZERO PUSH2 0xFA6 JUMPI DUP2 DUP2 LT ISZERO PUSH2 0xF97 JUMPI DUP3 DUP2 DUP4 PUSH1 0x40 MLOAD PUSH32 0xFB8F41B200000000000000000000000000000000000000000000000000000000 DUP2 MSTORE PUSH1 0x4 ADD PUSH2 0xF8E SWAP4 SWAP3 SWAP2 SWAP1 PUSH2 0x1D12 JUMP JUMPDEST PUSH1 0x40 MLOAD DUP1 SWAP2 SUB SWAP1 REVERT JUMPDEST PUSH2 0xFA5 DUP5 DUP5 DUP5 DUP5 SUB PUSH0 PUSH2 0x1265 JUMP JUMPDEST JUMPDEST POP POP POP POP JUMP JUMPDEST PUSH0 PUSH20 0xFFFFFFFFFFFFFFFFFFFFFFFFFFFFFFFFFFFFFFFF AND DUP4 PUSH20 0xFFFFFFFFFFFFFFFFFFFFFFFFFFFFFFFFFFFFFFFF AND SUB PUSH2 0x101C JUMPI PUSH0 PUSH1 0x40 MLOAD PUSH32 0x96C6FD1E00000000000000000000000000000000000000000000000000000000 DUP2 MSTORE PUSH1 0x4 ADD PUSH2 0x1013 SWAP2 SWAP1 PUSH2 0x1939 JUMP JUMPDEST PUSH1 0x40 MLOAD DUP1 SWAP2 SUB SWAP1 REVERT JUMPDEST PUSH0 PUSH20 0xFFFFFFFFFFFFFFFFFFFFFFFFFFFFFFFFFFFFFFFF AND DUP3 PUSH20 0xFFFFFFFFFFFFFFFFFFFFFFFFFFFFFFFFFFFFFFFF AND SUB PUSH2 0x108C JUMPI PUSH0 PUSH1 0x40 MLOAD PUSH32 0xEC442F0500000000000000000000000000000000000000000000000000000000 DUP2 MSTORE PUSH1 0x4 ADD PUSH2 0x1083 SWAP2 SWAP1 PUSH2 0x1939 JUMP JUMPDEST PUSH1 0x40 MLOAD DUP1 SWAP2 SUB SWAP1 REVERT JUMPDEST PUSH2 0x1097 DUP4 DUP4 DUP4 PUSH2 0x1434 JUMP JUMPDEST POP POP POP JUMP JUMPDEST PUSH2 0x10A4 PUSH2 0xF00 JUMP JUMPDEST PUSH20 0xFFFFFFFFFFFFFFFFFFFFFFFFFFFFFFFFFFFFFFFF AND PUSH2 0x10C2 PUSH2 0x8C6 JUMP JUMPDEST PUSH20 0xFFFFFFFFFFFFFFFFFFFFFFFFFFFFFFFFFFFFFFFF AND EQ PUSH2 0x1121 JUMPI PUSH2 0x10E5 PUSH2 0xF00 JUMP JUMPDEST PUSH1 0x40 MLOAD PUSH32 0x118CDAA700000000000000000000000000000000000000000000000000000000 DUP2 MSTORE PUSH1 0x4 ADD PUSH2 0x1118 SWAP2 SWAP1 PUSH2 0x1939 JUMP JUMPDEST PUSH1 0x40 MLOAD DUP1 SWAP2 SUB SWAP1 REVERT JUMPDEST JUMP JUMPDEST PUSH0 PUSH1 0x5 PUSH0 SWAP1 SLOAD SWAP1 PUSH2 0x100 EXP SWAP1 DIV PUSH20 0xFFFFFFFFFFFFFFFFFFFFFFFFFFFFFFFFFFFFFFFF AND SWAP1 POP DUP2 PUSH1 0x5 PUSH0 PUSH2 0x100 EXP DUP2 SLOAD DUP2 PUSH20 0xFFFFFFFFFFFFFFFFFFFFFFFFFFFFFFFFFFFFFFFF MUL NOT AND SWAP1 DUP4 PUSH20 0xFFFFFFFFFFFFFFFFFFFFFFFFFFFFFFFFFFFFFFFF AND MUL OR SWAP1 SSTORE POP DUP2 PUSH20 0xFFFFFFFFFFFFFFFFFFFFFFFFFFFFFFFFFFFFFFFF AND DUP2 PUSH20 0xFFFFFFFFFFFFFFFFFFFFFFFFFFFFFFFFFFFFFFFF AND PUSH32 0x8BE0079C531659141344CD1FD0A4F28419497F9722A3DAAFE3B4186F6B6457E0 PUSH1 0x40 MLOAD PUSH1 0x40 MLOAD DUP1 SWAP2 SUB SWAP1 LOG3 POP POP JUMP JUMPDEST PUSH0 PUSH20 0xFFFFFFFFFFFFFFFFFFFFFFFFFFFFFFFFFFFFFFFF AND DUP3 PUSH20 0xFFFFFFFFFFFFFFFFFFFFFFFFFFFFFFFFFFFFFFFF AND SUB PUSH2 0x1256 JUMPI PUSH0 PUSH1 0x40 MLOAD PUSH32 0x96C6FD1E00000000000000000000000000000000000000000000000000000000 DUP2 MSTORE PUSH1 0x4 ADD PUSH2 0x124D SWAP2 SWAP1 PUSH2 0x1939 JUMP JUMPDEST PUSH1 0x40 MLOAD DUP1 SWAP2 SUB SWAP1 REVERT JUMPDEST PUSH2 0x1261 DUP3 PUSH0 DUP4 PUSH2 0x1434 JUMP JUMPDEST POP POP JUMP JUMPDEST PUSH0 PUSH20 0xFFFFFFFFFFFFFFFFFFFFFFFFFFFFFFFFFFFFFFFF AND DUP5 PUSH20 0xFFFFFFFFFFFFFFFFFFFFFFFFFFFFFFFFFFFFFFFF AND SUB PUSH2 0x12D5 JUMPI PUSH0 PUSH1 0x40 MLOAD PUSH32 0xE602DF0500000000000000000000000000000000000000000000000000000000 DUP2 MSTORE PUSH1 0x4 ADD PUSH2 0x12CC SWAP2 SWAP1 PUSH2 0x1939 JUMP JUMPDEST PUSH1 0x40 MLOAD DUP1 SWAP2 SUB SWAP1 REVERT JUMPDEST PUSH0 PUSH20 0xFFFFFFFFFFFFFFFFFFFFFFFFFFFFFFFFFFFFFFFF AND DUP4 PUSH20 0xFFFFFFFFFFFFFFFFFFFFFFFFFFFFFFFFFFFFFFFF AND SUB PUSH2 0x1345 JUMPI PUSH0 PUSH1 0x40 MLOAD PUSH32 0x94280D6200000000000000000000000000000000000000000000000000000000 DUP2 MSTORE PUSH1 0x4 ADD PUSH2 0x133C SWAP2 SWAP1 PUSH2 0x1939 JUMP JUMPDEST PUSH1 0x40 MLOAD DUP1 SWAP2 SUB SWAP1 REVERT JUMPDEST DUP2 PUSH1 0x1 PUSH0 DUP7 PUSH20 0xFFFFFFFFFFFFFFFFFFFFFFFFFFFFFFFFFFFFFFFF AND PUSH20 0xFFFFFFFFFFFFFFFFFFFFFFFFFFFFFFFFFFFFFFFF AND DUP2 MSTORE PUSH1 0x20 ADD SWAP1 DUP2 MSTORE PUSH1 0x20 ADD PUSH0 KECCAK256 PUSH0 DUP6 PUSH20 0xFFFFFFFFFFFFFFFFFFFFFFFFFFFFFFFFFFFFFFFF AND PUSH20 0xFFFFFFFFFFFFFFFFFFFFFFFFFFFFFFFFFFFFFFFF AND DUP2 MSTORE PUSH1 0x20 ADD SWAP1 DUP2 MSTORE PUSH1 0x20 ADD PUSH0 KECCAK256 DUP2 SWAP1 SSTORE POP DUP1 ISZERO PUSH2 0x142E JUMPI DUP3 PUSH20 0xFFFFFFFFFFFFFFFFFFFFFFFFFFFFFFFFFFFFFFFF AND DUP5 PUSH20 0xFFFFFFFFFFFFFFFFFFFFFFFFFFFFFFFFFFFFFFFF AND PUSH32 0x8C5BE1E5EBEC7D5BD14F71427D1E84F3DD0314C0F7B2291E5B200AC8C7C3B925 DUP5 PUSH1 0x40 MLOAD PUSH2 0x1425 SWAP2 SWAP1 PUSH2 0x1665 JUMP JUMPDEST PUSH1 0x40 MLOAD DUP1 SWAP2 SUB SWAP1 LOG3 JUMPDEST POP POP POP POP JUMP JUMPDEST PUSH0 PUSH20 0xFFFFFFFFFFFFFFFFFFFFFFFFFFFFFFFFFFFFFFFF AND DUP4 PUSH20 0xFFFFFFFFFFFFFFFFFFFFFFFFFFFFFFFFFFFFFFFF AND SUB PUSH2 0x1484 JUMPI DUP1 PUSH1 0x2 PUSH0 DUP3 DUP3 SLOAD PUSH2 0x1478 SWAP2 SWAP1 PUSH2 0x1CDF JUMP JUMPDEST SWAP3 POP POP DUP2 SWAP1 SSTORE POP PUSH2 0x1552 JUMP JUMPDEST PUSH0 PUSH0 PUSH0 DUP6 PUSH20 0xFFFFFFFFFFFFFFFFFFFFFFFFFFFFFFFFFFFFFFFF AND PUSH20 0xFFFFFFFFFFFFFFFFFFFFFFFFFFFFFFFFFFFFFFFF AND DUP2 MSTORE PUSH1 0x20 ADD SWAP1 DUP2 MSTORE PUSH1 0x20 ADD PUSH0 KECCAK256 SLOAD SWAP1 POP DUP2 DUP2 LT ISZERO PUSH2 0x150D JUMPI DUP4 DUP2 DUP4 PUSH1 0x40 MLOAD PUSH32 0xE450D38C00000000000000000000000000000000000000000000000000000000 DUP2 MSTORE PUSH1 0x4 ADD PUSH2 0x1504 SWAP4 SWAP3 SWAP2 SWAP1 PUSH2 0x1D12 JUMP JUMPDEST PUSH1 0x40 MLOAD DUP1 SWAP2 SUB SWAP1 REVERT JUMPDEST DUP2 DUP2 SUB PUSH0 PUSH0 DUP7 PUSH20 0xFFFFFFFFFFFFFFFFFFFFFFFFFFFFFFFFFFFFFFFF AND PUSH20 0xFFFFFFFFFFFFFFFFFFFFFFFFFFFFFFFFFFFFFFFF AND DUP2 MSTORE PUSH1 0x20 ADD SWAP1 DUP2 MSTORE PUSH1 0x20 ADD PUSH0 KECCAK256 DUP2 SWAP1 SSTORE POP POP JUMPDEST PUSH0 PUSH20 0xFFFFFFFFFFFFFFFFFFFFFFFFFFFFFFFFFFFFFFFF AND DUP3 PUSH20 0xFFFFFFFFFFFFFFFFFFFFFFFFFFFFFFFFFFFFFFFF AND SUB PUSH2 0x1599 JUMPI DUP1 PUSH1 0x2 PUSH0 DUP3 DUP3 SLOAD SUB SWAP3 POP POP DUP2 SWAP1 SSTORE POP PUSH2 0x15E3 JUMP JUMPDEST DUP1 PUSH0 PUSH0 DUP5 PUSH20 0xFFFFFFFFFFFFFFFFFFFFFFFFFFFFFFFFFFFFFFFF AND PUSH20 0xFFFFFFFFFFFFFFFFFFFFFFFFFFFFFFFFFFFFFFFF AND DUP2 MSTORE PUSH1 0x20 ADD SWAP1 DUP2 MSTORE PUSH1 0x20 ADD PUSH0 KECCAK256 PUSH0 DUP3 DUP3 SLOAD ADD SWAP3 POP POP DUP2 SWAP1 SSTORE POP JUMPDEST DUP2 PUSH20 0xFFFFFFFFFFFFFFFFFFFFFFFFFFFFFFFFFFFFFFFF AND DUP4 PUSH20 0xFFFFFFFFFFFFFFFFFFFFFFFFFFFFFFFFFFFFFFFF AND PUSH32 0xDDF252AD1BE2C89B69C2B068FC378DAA952BA7F163C4A11628F55A4DF523B3EF DUP4 PUSH1 0x40 MLOAD PUSH2 0x1640 SWAP2 SWAP1 PUSH2 0x1665 JUMP JUMPDEST PUSH1 0x40 MLOAD DUP1 SWAP2 SUB SWAP1 LOG3 POP POP POP JUMP JUMPDEST PUSH0 DUP2 SWAP1 POP SWAP2 SWAP1 POP JUMP JUMPDEST PUSH2 0x165F DUP2 PUSH2 0x164D JUMP JUMPDEST DUP3 MSTORE POP POP JUMP JUMPDEST PUSH0 PUSH1 0x20 DUP3 ADD SWAP1 POP PUSH2 0x1678 PUSH0 DUP4 ADD DUP5 PUSH2 0x1656 JUMP JUMPDEST SWAP3 SWAP2 POP POP JUMP JUMPDEST PUSH0 DUP2 MLOAD SWAP1 POP SWAP2 SWAP1 POP JUMP JUMPDEST PUSH0 DUP3 DUP3 MSTORE PUSH1 0x20 DUP3 ADD SWAP1 POP SWAP3 SWAP2 POP POP JUMP JUMPDEST DUP3 DUP2 DUP4 MCOPY PUSH0 DUP4 DUP4 ADD MSTORE POP POP POP JUMP JUMPDEST PUSH0 PUSH1 0x1F NOT PUSH1 0x1F DUP4 ADD AND SWAP1 POP SWAP2 SWAP1 POP JUMP JUMPDEST PUSH0 PUSH2 0x16C0 DUP3 PUSH2 0x167E JUMP JUMPDEST PUSH2 0x16CA DUP2 DUP6 PUSH2 0x1688 JUMP JUMPDEST SWAP4 POP PUSH2 0x16DA DUP2 DUP6 PUSH1 0x20 DUP7 ADD PUSH2 0x1698 JUMP JUMPDEST PUSH2 0x16E3 DUP2 PUSH2 0x16A6 JUMP JUMPDEST DUP5 ADD SWAP2 POP POP SWAP3 SWAP2 POP POP JUMP JUMPDEST PUSH0 PUSH1 0x20 DUP3 ADD SWAP1 POP DUP2 DUP2 SUB PUSH0 DUP4 ADD MSTORE PUSH2 0x1706 DUP2 DUP5 PUSH2 0x16B6 JUMP JUMPDEST SWAP1 POP SWAP3 SWAP2 POP POP JUMP JUMPDEST PUSH0 PUSH0 REVERT JUMPDEST PUSH0 PUSH20 0xFFFFFFFFFFFFFFFFFFFFFFFFFFFFFFFFFFFFFFFF DUP3 AND SWAP1 POP SWAP2 SWAP1 POP JUMP JUMPDEST PUSH0 PUSH2 0x173B DUP3 PUSH2 0x1712 JUMP JUMPDEST SWAP1 POP SWAP2 SWAP1 POP JUMP JUMPDEST PUSH2 0x174B DUP2 PUSH2 0x1731 JUMP JUMPDEST DUP2 EQ PUSH2 0x1755 JUMPI PUSH0 PUSH0 REVERT JUMPDEST POP JUMP JUMPDEST PUSH0 DUP2 CALLDATALOAD SWAP1 POP PUSH2 0x1766 DUP2 PUSH2 0x1742 JUMP JUMPDEST SWAP3 SWAP2 POP POP JUMP JUMPDEST PUSH2 0x1775 DUP2 PUSH2 0x164D JUMP JUMPDEST DUP2 EQ PUSH2 0x177F JUMPI PUSH0 PUSH0 REVERT JUMPDEST POP JUMP JUMPDEST PUSH0 DUP2 CALLDATALOAD SWAP1 POP PUSH2 0x1790 DUP2 PUSH2 0x176C JUMP JUMPDEST SWAP3 SWAP2 POP POP JUMP JUMPDEST PUSH0 PUSH0 PUSH1 0x40 DUP4 DUP6 SUB SLT ISZERO PUSH2 0x17AC JUMPI PUSH2 0x17AB PUSH2 0x170E JUMP JUMPDEST JUMPDEST PUSH0 PUSH2 0x17B9 DUP6 DUP3 DUP7 ADD PUSH2 0x1758 JUMP JUMPDEST SWAP3 POP POP PUSH1 0x20 PUSH2 0x17CA DUP6 DUP3 DUP7 ADD PUSH2 0x1782 JUMP JUMPDEST SWAP2 POP POP SWAP3 POP SWAP3 SWAP1 POP JUMP JUMPDEST PUSH0 DUP2 ISZERO ISZERO SWAP1 POP SWAP2 SWAP1 POP JUMP JUMPDEST PUSH2 0x17E8 DUP2 PUSH2 0x17D4 JUMP JUMPDEST DUP3 MSTORE POP POP JUMP JUMPDEST PUSH0 PUSH1 0x20 DUP3 ADD SWAP1 POP PUSH2 0x1801 PUSH0 DUP4 ADD DUP5 PUSH2 0x17DF JUMP JUMPDEST SWAP3 SWAP2 POP POP JUMP JUMPDEST PUSH0 PUSH0 PUSH0 PUSH1 0x60 DUP5 DUP7 SUB SLT ISZERO PUSH2 0x181E JUMPI PUSH2 0x181D PUSH2 0x170E JUMP JUMPDEST JUMPDEST PUSH0 PUSH2 0x182B DUP7 DUP3 DUP8 ADD PUSH2 0x1758 JUMP JUMPDEST SWAP4 POP POP PUSH1 0x20 PUSH2 0x183C DUP7 DUP3 DUP8 ADD PUSH2 0x1758 JUMP JUMPDEST SWAP3 POP POP PUSH1 0x40 PUSH2 0x184D DUP7 DUP3 DUP8 ADD PUSH2 0x1782 JUMP JUMPDEST SWAP2 POP POP SWAP3 POP SWAP3 POP SWAP3 JUMP JUMPDEST PUSH0 DUP2 SWAP1 POP SWAP2 SWAP1 POP JUMP JUMPDEST PUSH0 PUSH2 0x187A PUSH2 0x1875 PUSH2 0x1870 DUP5 PUSH2 0x1712 JUMP JUMPDEST PUSH2 0x1857 JUMP JUMPDEST PUSH2 0x1712 JUMP JUMPDEST SWAP1 POP SWAP2 SWAP1 POP JUMP JUMPDEST PUSH0 PUSH2 0x188B DUP3 PUSH2 0x1860 JUMP JUMPDEST SWAP1 POP SWAP2 SWAP1 POP JUMP JUMPDEST PUSH0 PUSH2 0x189C DUP3 PUSH2 0x1881 JUMP JUMPDEST SWAP1 POP SWAP2 SWAP1 POP JUMP JUMPDEST PUSH2 0x18AC DUP2 PUSH2 0x1892 JUMP JUMPDEST DUP3 MSTORE POP POP JUMP JUMPDEST PUSH0 PUSH1 0x20 DUP3 ADD SWAP1 POP PUSH2 0x18C5 PUSH0 DUP4 ADD DUP5 PUSH2 0x18A3 JUMP JUMPDEST SWAP3 SWAP2 POP POP JUMP JUMPDEST PUSH0 PUSH1 0x20 DUP3 DUP5 SUB SLT ISZERO PUSH2 0x18E0 JUMPI PUSH2 0x18DF PUSH2 0x170E JUMP JUMPDEST JUMPDEST PUSH0 PUSH2 0x18ED DUP5 DUP3 DUP6 ADD PUSH2 0x1782 JUMP JUMPDEST SWAP2 POP POP SWAP3 SWAP2 POP POP JUMP JUMPDEST PUSH0 PUSH1 0xFF DUP3 AND SWAP1 POP SWAP2 SWAP1 POP JUMP JUMPDEST PUSH2 0x190B DUP2 PUSH2 0x18F6 JUMP JUMPDEST DUP3 MSTORE POP POP JUMP JUMPDEST PUSH0 PUSH1 0x20 DUP3 ADD SWAP1 POP PUSH2 0x1924 PUSH0 DUP4 ADD DUP5 PUSH2 0x1902 JUMP JUMPDEST SWAP3 SWAP2 POP POP JUMP JUMPDEST PUSH2 0x1933 DUP2 PUSH2 0x1731 JUMP JUMPDEST DUP3 MSTORE POP POP JUMP JUMPDEST PUSH0 PUSH1 0x20 DUP3 ADD SWAP1 POP PUSH2 0x194C PUSH0 DUP4 ADD DUP5 PUSH2 0x192A JUMP JUMPDEST SWAP3 SWAP2 POP POP JUMP JUMPDEST PUSH0 PUSH1 0x20 DUP3 DUP5 SUB SLT ISZERO PUSH2 0x1967 JUMPI PUSH2 0x1966 PUSH2 0x170E JUMP JUMPDEST JUMPDEST PUSH0 PUSH2 0x1974 DUP5 DUP3 DUP6 ADD PUSH2 0x1758 JUMP JUMPDEST SWAP2 POP POP SWAP3 SWAP2 POP POP JUMP JUMPDEST PUSH0 PUSH0 PUSH1 0x40 DUP4 DUP6 SUB SLT ISZERO PUSH2 0x1993 JUMPI PUSH2 0x1992 PUSH2 0x170E JUMP JUMPDEST JUMPDEST PUSH0 PUSH2 0x19A0 DUP6 DUP3 DUP7 ADD PUSH2 0x1782 JUMP JUMPDEST SWAP3 POP POP PUSH1 0x20 PUSH2 0x19B1 DUP6 DUP3 DUP7 ADD PUSH2 0x1782 JUMP JUMPDEST SWAP2 POP POP SWAP3 POP SWAP3 SWAP1 POP JUMP JUMPDEST PUSH2 0x19C4 DUP2 PUSH2 0x17D4 JUMP JUMPDEST DUP2 EQ PUSH2 0x19CE JUMPI PUSH0 PUSH0 REVERT JUMPDEST POP JUMP JUMPDEST PUSH0 DUP2 CALLDATALOAD SWAP1 POP PUSH2 0x19DF DUP2 PUSH2 0x19BB JUMP JUMPDEST SWAP3 SWAP2 POP POP JUMP JUMPDEST PUSH0 PUSH0 PUSH1 0x40 DUP4 DUP6 SUB SLT ISZERO PUSH2 0x19FB JUMPI PUSH2 0x19FA PUSH2 0x170E JUMP JUMPDEST JUMPDEST PUSH0 PUSH2 0x1A08 DUP6 DUP3 DUP7 ADD PUSH2 0x1758 JUMP JUMPDEST SWAP3 POP POP PUSH1 0x20 PUSH2 0x1A19 DUP6 DUP3 DUP7 ADD PUSH2 0x19D1 JUMP JUMPDEST SWAP2 POP POP SWAP3 POP SWAP3 SWAP1 POP JUMP JUMPDEST PUSH0 PUSH0 PUSH1 0x40 DUP4 DUP6 SUB SLT ISZERO PUSH2 0x1A39 JUMPI PUSH2 0x1A38 PUSH2 0x170E JUMP JUMPDEST JUMPDEST PUSH0 PUSH2 0x1A46 DUP6 DUP3 DUP7 ADD PUSH2 0x1758 JUMP JUMPDEST SWAP3 POP POP PUSH1 0x20 PUSH2 0x1A57 DUP6 DUP3 DUP7 ADD PUSH2 0x1758 JUMP JUMPDEST SWAP2 POP POP SWAP3 POP SWAP3 SWAP1 POP JUMP JUMPDEST PUSH32 0x4E487B7100000000000000000000000000000000000000000000000000000000 PUSH0 MSTORE PUSH1 0x22 PUSH1 0x4 MSTORE PUSH1 0x24 PUSH0 REVERT JUMPDEST PUSH0 PUSH1 0x2 DUP3 DIV SWAP1 POP PUSH1 0x1 DUP3 AND DUP1 PUSH2 0x1AA5 JUMPI PUSH1 0x7F DUP3 AND SWAP2 POP JUMPDEST PUSH1 0x20 DUP3 LT DUP2 SUB PUSH2 0x1AB8 JUMPI PUSH2 0x1AB7 PUSH2 0x1A61 JUMP JUMPDEST JUMPDEST POP SWAP2 SWAP1 POP JUMP JUMPDEST PUSH0 DUP2 SWAP1 POP SWAP2 SWAP1 POP JUMP JUMPDEST PUSH0 PUSH2 0x1AE1 PUSH2 0x1ADC PUSH2 0x1AD7 DUP5 PUSH2 0x1ABE JUMP JUMPDEST PUSH2 0x1857 JUMP JUMPDEST PUSH2 0x164D JUMP JUMPDEST SWAP1 POP SWAP2 SWAP1 POP JUMP JUMPDEST PUSH2 0x1AF1 DUP2 PUSH2 0x1AC7 JUMP JUMPDEST DUP3 MSTORE POP POP JUMP JUMPDEST PUSH0 PUSH1 0xC0 DUP3 ADD SWAP1 POP PUSH2 0x1B0A PUSH0 DUP4 ADD DUP10 PUSH2 0x192A JUMP JUMPDEST PUSH2 0x1B17 PUSH1 0x20 DUP4 ADD DUP9 PUSH2 0x1656 JUMP JUMPDEST PUSH2 0x1B24 PUSH1 0x40 DUP4 ADD DUP8 PUSH2 0x1AE8 JUMP JUMPDEST PUSH2 0x1B31 PUSH1 0x60 DUP4 ADD DUP7 PUSH2 0x1AE8 JUMP JUMPDEST PUSH2 0x1B3E PUSH1 0x80 DUP4 ADD DUP6 PUSH2 0x192A JUMP JUMPDEST PUSH2 0x1B4B PUSH1 0xA0 DUP4 ADD DUP5 PUSH2 0x1656 JUMP JUMPDEST SWAP8 SWAP7 POP POP POP POP POP POP POP JUMP JUMPDEST PUSH0 DUP2 MLOAD SWAP1 POP PUSH2 0x1B64 DUP2 PUSH2 0x176C JUMP JUMPDEST SWAP3 SWAP2 POP POP JUMP JUMPDEST PUSH0 PUSH0 PUSH0 PUSH1 0x60 DUP5 DUP7 SUB SLT ISZERO PUSH2 0x1B81 JUMPI PUSH2 0x1B80 PUSH2 0x170E JUMP JUMPDEST JUMPDEST PUSH0 PUSH2 0x1B8E DUP7 DUP3 DUP8 ADD PUSH2 0x1B56 JUMP JUMPDEST SWAP4 POP POP PUSH1 0x20 PUSH2 0x1B9F DUP7 DUP3 DUP8 ADD PUSH2 0x1B56 JUMP JUMPDEST SWAP3 POP POP PUSH1 0x40 PUSH2 0x1BB0 DUP7 DUP3 DUP8 ADD PUSH2 0x1B56 JUMP JUMPDEST SWAP2 POP POP SWAP3 POP SWAP3 POP SWAP3 JUMP JUMPDEST PUSH0 PUSH1 0x40 DUP3 ADD SWAP1 POP PUSH2 0x1BCD PUSH0 DUP4 ADD DUP6 PUSH2 0x1656 JUMP JUMPDEST PUSH2 0x1BDA PUSH1 0x20 DUP4 ADD DUP5 PUSH2 0x1656 JUMP JUMPDEST SWAP4 SWAP3 POP POP POP JUMP JUMPDEST PUSH32 0x4E487B7100000000000000000000000000000000000000000000000000000000 PUSH0 MSTORE PUSH1 0x11 PUSH1 0x4 MSTORE PUSH1 0x24 PUSH0 REVERT JUMPDEST PUSH0 PUSH2 0x1C18 DUP3 PUSH2 0x164D JUMP JUMPDEST SWAP2 POP PUSH2 0x1C23 DUP4 PUSH2 0x164D JUMP JUMPDEST SWAP3 POP DUP3 DUP3 MUL PUSH2 0x1C31 DUP2 PUSH2 0x164D JUMP JUMPDEST SWAP2 POP DUP3 DUP3 DIV DUP5 EQ DUP4 ISZERO OR PUSH2 0x1C48 JUMPI PUSH2 0x1C47 PUSH2 0x1BE1 JUMP JUMPDEST JUMPDEST POP SWAP3 SWAP2 POP POP JUMP JUMPDEST PUSH32 0x4E487B7100000000000000000000000000000000000000000000000000000000 PUSH0 MSTORE PUSH1 0x12 PUSH1 0x4 MSTORE PUSH1 0x24 PUSH0 REVERT JUMPDEST PUSH0 PUSH2 0x1C86 DUP3 PUSH2 0x164D JUMP JUMPDEST SWAP2 POP PUSH2 0x1C91 DUP4 PUSH2 0x164D JUMP JUMPDEST SWAP3 POP DUP3 PUSH2 0x1CA1 JUMPI PUSH2 0x1CA0 PUSH2 0x1C4F JUMP JUMPDEST JUMPDEST DUP3 DUP3 DIV SWAP1 POP SWAP3 SWAP2 POP POP JUMP JUMPDEST PUSH0 PUSH2 0x1CB6 DUP3 PUSH2 0x164D JUMP JUMPDEST SWAP2 POP PUSH2 0x1CC1 DUP4 PUSH2 0x164D JUMP JUMPDEST SWAP3 POP DUP3 DUP3 SUB SWAP1 POP DUP2 DUP2 GT ISZERO PUSH2 0x1CD9 JUMPI PUSH2 0x1CD8 PUSH2 0x1BE1 JUMP JUMPDEST JUMPDEST SWAP3 SWAP2 POP POP JUMP JUMPDEST PUSH0 PUSH2 0x1CE9 DUP3 PUSH2 0x164D JUMP JUMPDEST SWAP2 POP PUSH2 0x1CF4 DUP4 PUSH2 0x164D JUMP JUMPDEST SWAP3 POP DUP3 DUP3 ADD SWAP1 POP DUP1 DUP3 GT ISZERO PUSH2 0x1D0C JUMPI PUSH2 0x1D0B PUSH2 0x1BE1 JUMP JUMPDEST JUMPDEST SWAP3 SWAP2 POP POP JUMP JUMPDEST PUSH0 PUSH1 0x60 DUP3 ADD SWAP1 POP PUSH2 0x1D25 PUSH0 DUP4 ADD DUP7 PUSH2 0x192A JUMP JUMPDEST PUSH2 0x1D32 PUSH1 0x20 DUP4 ADD DUP6 PUSH2 0x1656 JUMP JUMPDEST PUSH2 0x1D3F PUSH1 0x40 DUP4 ADD DUP5 PUSH2 0x1656 JUMP JUMPDEST SWAP5 SWAP4 POP POP POP POP JUMP INVALID LOG2 PUSH5 0x6970667358 0x22 SLT KECCAK256 0x24 0xC4 DIV CHAINID 0x21 0x28 PUSH10 0x744A717E46FC7030820E 0xD5 0xB5 0xC8 SAR PUSH4 0xCB729D45 TLOAD DELEGATECALL 0xD0 SSTORE 0xC0 SUB PUSH5 0x736F6C6343 STOP ADDMOD SHR STOP CALLER "
				},
				"gasEstimates": {
					"creation": {
						"codeDepositCost": "1509800",
						"executionCost": "infinite",
						"totalCost": "infinite"
					},
					"external": {
						"DEAD_ADDRESS()": "440",
						"addLiquidity(uint256)": "infinite",
						"allowance(address,address)": "infinite",
						"approve(address,uint256)": "infinite",
						"balanceOf(address)": "2851",
						"burnShare()": "2449",
						"buyTax()": "2514",
						"decimals()": "428",
						"excludeFromTax(address,bool)": "infinite",
						"isExcludedFromTax(address)": "2877",
						"liquidityShare()": "2515",
						"name()": "infinite",
						"owner()": "2582",
						"renounceOwnership()": "infinite",
						"rewardsShare()": "2470",
						"sellTax()": "2491",
						"setTaxes(uint256,uint256)": "infinite",
						"symbol()": "infinite",
						"totalSupply()": "2544",
						"transfer(address,address,uint256)": "infinite",
						"transfer(address,uint256)": "infinite",
						"transferFrom(address,address,uint256)": "infinite",
						"transferOwnership(address)": "infinite",
						"uniswapPair()": "2597",
						"uniswaprouter()": "infinite",
						"withdraw(uint256)": "infinite"
					}
				},
				"methodIdentifiers": {
					"DEAD_ADDRESS()": "4e6fd6c4",
					"addLiquidity(uint256)": "51c6590a",
					"allowance(address,address)": "dd62ed3e",
					"approve(address,uint256)": "095ea7b3",
					"balanceOf(address)": "70a08231",
					"burnShare()": "05bf0a54",
					"buyTax()": "4f7041a5",
					"decimals()": "313ce567",
					"excludeFromTax(address,bool)": "c6a30647",
					"isExcludedFromTax(address)": "cb4ca631",
					"liquidityShare()": "15291cd4",
					"name()": "06fdde03",
					"owner()": "8da5cb5b",
					"renounceOwnership()": "715018a6",
					"rewardsShare()": "33727077",
					"sellTax()": "cc1776d3",
					"setTaxes(uint256,uint256)": "c647b20e",
					"symbol()": "95d89b41",
					"totalSupply()": "18160ddd",
					"transfer(address,address,uint256)": "beabacc8",
					"transfer(address,uint256)": "a9059cbb",
					"transferFrom(address,address,uint256)": "23b872dd",
					"transferOwnership(address)": "f2fde38b",
					"uniswapPair()": "c816841b",
					"uniswaprouter()": "2431ba73",
					"withdraw(uint256)": "2e1a7d4d"
				}
			},
			"storageLayout": {
				"storage": [
					{
						"astId": 879,
						"contract": "contracts/mem_flattened.sol:MemCoin",
						"label": "_balances",
						"offset": 0,
						"slot": "0",
						"type": "t_mapping(t_address,t_uint256)"
					},
					{
						"astId": 885,
						"contract": "contracts/mem_flattened.sol:MemCoin",
						"label": "_allowances",
						"offset": 0,
						"slot": "1",
						"type": "t_mapping(t_address,t_mapping(t_address,t_uint256))"
					},
					{
						"astId": 887,
						"contract": "contracts/mem_flattened.sol:MemCoin",
						"label": "_totalSupply",
						"offset": 0,
						"slot": "2",
						"type": "t_uint256"
					},
					{
						"astId": 889,
						"contract": "contracts/mem_flattened.sol:MemCoin",
						"label": "_name",
						"offset": 0,
						"slot": "3",
						"type": "t_string_storage"
					},
					{
						"astId": 891,
						"contract": "contracts/mem_flattened.sol:MemCoin",
						"label": "_symbol",
						"offset": 0,
						"slot": "4",
						"type": "t_string_storage"
					},
					{
						"astId": 626,
						"contract": "contracts/mem_flattened.sol:MemCoin",
						"label": "_owner",
						"offset": 0,
						"slot": "5",
						"type": "t_address"
					},
					{
						"astId": 1391,
						"contract": "contracts/mem_flattened.sol:MemCoin",
						"label": "buyTax",
						"offset": 0,
						"slot": "6",
						"type": "t_uint256"
					},
					{
						"astId": 1394,
						"contract": "contracts/mem_flattened.sol:MemCoin",
						"label": "sellTax",
						"offset": 0,
						"slot": "7",
						"type": "t_uint256"
					},
					{
						"astId": 1397,
						"contract": "contracts/mem_flattened.sol:MemCoin",
						"label": "liquidityShare",
						"offset": 0,
						"slot": "8",
						"type": "t_uint256"
					},
					{
						"astId": 1400,
						"contract": "contracts/mem_flattened.sol:MemCoin",
						"label": "burnShare",
						"offset": 0,
						"slot": "9",
						"type": "t_uint256"
					},
					{
						"astId": 1403,
						"contract": "contracts/mem_flattened.sol:MemCoin",
						"label": "rewardsShare",
						"offset": 0,
						"slot": "10",
						"type": "t_uint256"
					},
					{
						"astId": 1406,
						"contract": "contracts/mem_flattened.sol:MemCoin",
						"label": "uniswaprouter",
						"offset": 0,
						"slot": "11",
						"type": "t_contract(IUniswapV2Router02)393"
					},
					{
						"astId": 1408,
						"contract": "contracts/mem_flattened.sol:MemCoin",
						"label": "uniswapPair",
						"offset": 0,
						"slot": "12",
						"type": "t_address"
					},
					{
						"astId": 1415,
						"contract": "contracts/mem_flattened.sol:MemCoin",
						"label": "isExcludedFromTax",
						"offset": 0,
						"slot": "13",
						"type": "t_mapping(t_address,t_bool)"
					}
				],
				"types": {
					"t_address": {
						"encoding": "inplace",
						"label": "address",
						"numberOfBytes": "20"
					},
					"t_bool": {
						"encoding": "inplace",
						"label": "bool",
						"numberOfBytes": "1"
					},
					"t_contract(IUniswapV2Router02)393": {
						"encoding": "inplace",
						"label": "contract IUniswapV2Router02",
						"numberOfBytes": "20"
					},
					"t_mapping(t_address,t_bool)": {
						"encoding": "mapping",
						"key": "t_address",
						"label": "mapping(address => bool)",
						"numberOfBytes": "32",
						"value": "t_bool"
					},
					"t_mapping(t_address,t_mapping(t_address,t_uint256))": {
						"encoding": "mapping",
						"key": "t_address",
						"label": "mapping(address => mapping(address => uint256))",
						"numberOfBytes": "32",
						"value": "t_mapping(t_address,t_uint256)"
					},
					"t_mapping(t_address,t_uint256)": {
						"encoding": "mapping",
						"key": "t_address",
						"label": "mapping(address => uint256)",
						"numberOfBytes": "32",
						"value": "t_uint256"
					},
					"t_string_storage": {
						"encoding": "bytes",
						"label": "string",
						"numberOfBytes": "32"
					},
					"t_uint256": {
						"encoding": "inplace",
						"label": "uint256",
						"numberOfBytes": "32"
					}
				}
			},
			"userdoc": {
				"kind": "user",
				"methods": {},
				"version": 1
			}
		}
	}
}